{
  "_format": "hh-sol-artifact-1",
  "contractName": "NFTXDeferEligibility",
  "sourceName": "contracts/solidity/eligibility/NFTXDeferEligibility.sol",
  "abi": [
    {
      "anonymous": false,
      "inputs": [
        {
          "indexed": false,
          "internalType": "address",
          "name": "deferAddress",
          "type": "address"
        },
        {
          "indexed": false,
          "internalType": "uint256",
          "name": "deferralVaultId",
          "type": "uint256"
        }
      ],
      "name": "NFTXEligibilityInit",
      "type": "event"
    },
    {
      "inputs": [
        {
          "internalType": "address",
          "name": "_deferAddress",
          "type": "address"
        },
        {
          "internalType": "uint256",
          "name": "_deferVaultId",
          "type": "uint256"
        }
      ],
      "name": "__NFTXEligibility_init",
      "outputs": [],
      "stateMutability": "nonpayable",
      "type": "function"
    },
    {
      "inputs": [
        {
          "internalType": "bytes",
          "name": "configData",
          "type": "bytes"
        }
      ],
      "name": "__NFTXEligibility_init_bytes",
      "outputs": [],
      "stateMutability": "nonpayable",
      "type": "function"
    },
    {
      "inputs": [
        {
          "internalType": "uint256[]",
          "name": "tokenIds",
          "type": "uint256[]"
        }
      ],
      "name": "afterMintHook",
      "outputs": [],
      "stateMutability": "nonpayable",
      "type": "function"
    },
    {
      "inputs": [
        {
          "internalType": "uint256[]",
          "name": "tokenIds",
          "type": "uint256[]"
        }
      ],
      "name": "afterRedeemHook",
      "outputs": [],
      "stateMutability": "nonpayable",
      "type": "function"
    },
    {
      "inputs": [
        {
          "internalType": "uint256[]",
          "name": "tokenIds",
          "type": "uint256[]"
        }
      ],
      "name": "beforeMintHook",
      "outputs": [],
      "stateMutability": "nonpayable",
      "type": "function"
    },
    {
      "inputs": [
        {
          "internalType": "uint256[]",
          "name": "tokenIds",
          "type": "uint256[]"
        }
      ],
      "name": "beforeRedeemHook",
      "outputs": [],
      "stateMutability": "nonpayable",
      "type": "function"
    },
    {
      "inputs": [
        {
          "internalType": "uint256[]",
          "name": "tokenIds",
          "type": "uint256[]"
        }
      ],
      "name": "checkAllEligible",
      "outputs": [
        {
          "internalType": "bool",
          "name": "",
          "type": "bool"
        }
      ],
      "stateMutability": "view",
      "type": "function"
    },
    {
      "inputs": [
        {
          "internalType": "uint256[]",
          "name": "tokenIds",
          "type": "uint256[]"
        }
      ],
      "name": "checkAllIneligible",
      "outputs": [
        {
          "internalType": "bool",
          "name": "",
          "type": "bool"
        }
      ],
      "stateMutability": "view",
      "type": "function"
    },
    {
      "inputs": [
        {
          "internalType": "uint256[]",
          "name": "tokenIds",
          "type": "uint256[]"
        }
      ],
      "name": "checkEligible",
      "outputs": [
        {
          "internalType": "bool[]",
          "name": "",
          "type": "bool[]"
        }
      ],
      "stateMutability": "view",
      "type": "function"
    },
    {
      "inputs": [
        {
          "internalType": "uint256",
          "name": "tokenId",
          "type": "uint256"
        }
      ],
      "name": "checkIsEligible",
      "outputs": [
        {
          "internalType": "bool",
          "name": "",
          "type": "bool"
        }
      ],
      "stateMutability": "view",
      "type": "function"
    },
    {
      "inputs": [],
      "name": "deferAddress",
      "outputs": [
        {
          "internalType": "address",
          "name": "",
          "type": "address"
        }
      ],
      "stateMutability": "view",
      "type": "function"
    },
    {
      "inputs": [],
      "name": "deferVaultId",
      "outputs": [
        {
          "internalType": "uint256",
          "name": "",
          "type": "uint256"
        }
      ],
      "stateMutability": "view",
      "type": "function"
    },
    {
      "inputs": [],
      "name": "finalized",
      "outputs": [
        {
          "internalType": "bool",
          "name": "",
          "type": "bool"
        }
      ],
      "stateMutability": "view",
      "type": "function"
    },
    {
      "inputs": [],
      "name": "name",
      "outputs": [
        {
          "internalType": "string",
          "name": "",
          "type": "string"
        }
      ],
      "stateMutability": "pure",
      "type": "function"
    },
    {
      "inputs": [],
      "name": "targetAsset",
      "outputs": [
        {
          "internalType": "address",
          "name": "",
          "type": "address"
        }
      ],
      "stateMutability": "pure",
      "type": "function"
    }
  ],
  "bytecode": "0x608060405234801561001057600080fd5b50610901806100206000396000f3fe608060405234801561001057600080fd5b50600436106100f55760003560e01c80637a90169211610097578063bd8affde11610066578063bd8affde1461012a578063ca373f28146101e6578063d2a096e8146101f9578063f7be19f11461020c57600080fd5b80637a9016921461018c57806384ca9f85146101a3578063a8bdfa2b146101c6578063b3f05b97146101df57600080fd5b80634998b7f3116100d35780634998b7f3146101595780635e2f9b521461012a5780636c47d5951461012a5780636cd912601461016c57600080fd5b806306fdde03146100fa57806336eb08621461012a5780633d4403ac1461013e575b600080fd5b60408051808201825260058152642232b332b960d91b6020820152905161012191906105b5565b60405180910390f35b61013c61013836600461060a565b5050565b005b60005b6040516001600160a01b039091168152602001610121565b61013c610167366004610695565b61021f565b61017f61017a36600461060a565b6102bb565b6040516101219190610746565b61019560015481565b604051908152602001610121565b6101b66101b136600461060a565b610370565b6040519015158152602001610121565b600054610141906201000090046001600160a01b031681565b60016101b6565b6101b66101f436600461060a565b6103be565b6101b661020736600461078c565b610402565b61013c61021a3660046107bd565b61040d565b600054610100900460ff1680610238575060005460ff16155b61025d5760405162461bcd60e51b8152600401610254906107e9565b60405180910390fd5b600054610100900460ff1615801561027f576000805461ffff19166101011790555b600080838060200190518101906102969190610837565b915091506102a4828261040d565b50508015610138576000805461ff00191690555050565b60608160008167ffffffffffffffff8111156102d9576102d961067f565b604051908082528060200260200182016040528015610302578160200160208202803683370190505b50905060005b828110156103655761033186868381811061032557610325610865565b90506020020135610537565b82828151811061034357610343610865565b911515602092830291909101909101528061035d8161087b565b915050610308565b509150505b92915050565b600081815b818110156103b35761039285858381811061032557610325610865565b6103a15760009250505061036a565b806103ab8161087b565b915050610375565b506001949350505050565b600081815b818110156103b3576103e085858381811061032557610325610865565b156103f05760009250505061036a565b806103fa8161087b565b9150506103c3565b600061036a82610537565b600054610100900460ff1680610426575060005460ff16155b6104425760405162461bcd60e51b8152600401610254906107e9565b600054610100900460ff16158015610464576000805461ffff19166101011790555b6001600160a01b0383166104ba5760405162461bcd60e51b815260206004820152601a60248201527f64656665724164647265737320213d20616464726573732830290000000000006044820152606401610254565b6000805462010000600160b01b031916620100006001600160a01b03861690810291909117909155600183905560408051918252602082018490527f7f42b8fc71aace6a5941e31ba0be200e39ccb42e6f1221a5114fd82e34ec4e35910160405180910390a18015610532576000805461ff00191690555b505050565b6000805460015460405163784f417160e11b8152600481019190915260248101849052620100009091046001600160a01b03169063f09e82e290604401602060405180830381865afa158015610591573d6000803e3d6000fd5b505050506040513d601f19601f8201168201806040525081019061036a91906108a2565b600060208083528351808285015260005b818110156105e2578581018301518582016040015282016105c6565b818111156105f4576000604083870101525b50601f01601f1916929092016040019392505050565b6000806020838503121561061d57600080fd5b823567ffffffffffffffff8082111561063557600080fd5b818501915085601f83011261064957600080fd5b81358181111561065857600080fd5b8660208260051b850101111561066d57600080fd5b60209290920196919550909350505050565b634e487b7160e01b600052604160045260246000fd5b6000602082840312156106a757600080fd5b813567ffffffffffffffff808211156106bf57600080fd5b818401915084601f8301126106d357600080fd5b8135818111156106e5576106e561067f565b604051601f8201601f19908116603f0116810190838211818310171561070d5761070d61067f565b8160405282815287602084870101111561072657600080fd5b826020860160208301376000928101602001929092525095945050505050565b6020808252825182820181905260009190848201906040850190845b81811015610780578351151583529284019291840191600101610762565b50909695505050505050565b60006020828403121561079e57600080fd5b5035919050565b6001600160a01b03811681146107ba57600080fd5b50565b600080604083850312156107d057600080fd5b82356107db816107a5565b946020939093013593505050565b6020808252602e908201527f496e697469616c697a61626c653a20636f6e747261637420697320616c72656160408201526d191e481a5b9a5d1a585b1a5e995960921b606082015260800190565b6000806040838503121561084a57600080fd5b8251610855816107a5565b6020939093015192949293505050565b634e487b7160e01b600052603260045260246000fd5b60006001820161089b57634e487b7160e01b600052601160045260246000fd5b5060010190565b6000602082840312156108b457600080fd5b815180151581146108c457600080fd5b939250505056fea26469706673582212200a33701d7c7c430d9c51485fa5b741e6e986084cb95e380016c4a0041cfe028e64736f6c634300080d0033",
  "linkReferences": {},
  "deployedLinkReferences": {}
}