{
  "_format": "hh-sol-artifact-1",
  "contractName": "NFTXGen0KittyEligibility",
  "sourceName": "contracts/solidity/eligibility/NFTXGen0Eligibility.sol",
  "abi": [
    {
      "anonymous": false,
      "inputs": [],
      "name": "NFTXEligibilityInit",
      "type": "event"
    },
    {
      "inputs": [],
      "name": "__NFTXEligibility_init",
      "outputs": [],
      "stateMutability": "nonpayable",
      "type": "function"
    },
    {
      "inputs": [
        {
          "internalType": "bytes",
          "name": "",
          "type": "bytes"
        }
      ],
      "name": "__NFTXEligibility_init_bytes",
      "outputs": [],
      "stateMutability": "nonpayable",
      "type": "function"
    },
    {
      "inputs": [
        {
          "internalType": "uint256[]",
          "name": "tokenIds",
          "type": "uint256[]"
        }
      ],
      "name": "afterMintHook",
      "outputs": [],
      "stateMutability": "nonpayable",
      "type": "function"
    },
    {
      "inputs": [
        {
          "internalType": "uint256[]",
          "name": "tokenIds",
          "type": "uint256[]"
        }
      ],
      "name": "afterRedeemHook",
      "outputs": [],
      "stateMutability": "nonpayable",
      "type": "function"
    },
    {
      "inputs": [
        {
          "internalType": "uint256[]",
          "name": "tokenIds",
          "type": "uint256[]"
        }
      ],
      "name": "beforeMintHook",
      "outputs": [],
      "stateMutability": "nonpayable",
      "type": "function"
    },
    {
      "inputs": [
        {
          "internalType": "uint256[]",
          "name": "tokenIds",
          "type": "uint256[]"
        }
      ],
      "name": "beforeRedeemHook",
      "outputs": [],
      "stateMutability": "nonpayable",
      "type": "function"
    },
    {
      "inputs": [
        {
          "internalType": "uint256[]",
          "name": "tokenIds",
          "type": "uint256[]"
        }
      ],
      "name": "checkAllEligible",
      "outputs": [
        {
          "internalType": "bool",
          "name": "",
          "type": "bool"
        }
      ],
      "stateMutability": "view",
      "type": "function"
    },
    {
      "inputs": [
        {
          "internalType": "uint256[]",
          "name": "tokenIds",
          "type": "uint256[]"
        }
      ],
      "name": "checkAllIneligible",
      "outputs": [
        {
          "internalType": "bool",
          "name": "",
          "type": "bool"
        }
      ],
      "stateMutability": "view",
      "type": "function"
    },
    {
      "inputs": [
        {
          "internalType": "uint256[]",
          "name": "tokenIds",
          "type": "uint256[]"
        }
      ],
      "name": "checkEligible",
      "outputs": [
        {
          "internalType": "bool[]",
          "name": "",
          "type": "bool[]"
        }
      ],
      "stateMutability": "view",
      "type": "function"
    },
    {
      "inputs": [
        {
          "internalType": "uint256",
          "name": "tokenId",
          "type": "uint256"
        }
      ],
      "name": "checkIsEligible",
      "outputs": [
        {
          "internalType": "bool",
          "name": "",
          "type": "bool"
        }
      ],
      "stateMutability": "view",
      "type": "function"
    },
    {
      "inputs": [],
      "name": "finalized",
      "outputs": [
        {
          "internalType": "bool",
          "name": "",
          "type": "bool"
        }
      ],
      "stateMutability": "view",
      "type": "function"
    },
    {
      "inputs": [],
      "name": "name",
      "outputs": [
        {
          "internalType": "string",
          "name": "",
          "type": "string"
        }
      ],
      "stateMutability": "pure",
      "type": "function"
    },
    {
      "inputs": [],
      "name": "targetAsset",
      "outputs": [
        {
          "internalType": "address",
          "name": "",
          "type": "address"
        }
      ],
      "stateMutability": "pure",
      "type": "function"
    }
  ],
  "bytecode": "0x608060405234801561001057600080fd5b506107fc806100206000396000f3fe608060405234801561001057600080fd5b50600436106100cf5760003560e01c80636cd912601161008c578063b3f05b9711610066578063b3f05b971461019c578063bd8affde14610108578063ca373f28146101a3578063d2a096e8146101b657600080fd5b80636cd912601461015157806384ca9f8514610171578063b1eb9f871461019457600080fd5b806306fdde03146100d457806336eb0862146101085780633d4403ac1461011c5780634998b7f31461013e5780635e2f9b52146101085780636c47d59514610108575b600080fd5b604080518082018252600981526847656e304b6974747960b81b602082015290516100ff91906104b4565b60405180910390f35b61011a610116366004610509565b5050565b005b6040517306012c8cf97bead5deae237070f9587f8e7a266d81526020016100ff565b61011a61014c366004610594565b6101c9565b61016461015f366004610509565b610246565b6040516100ff9190610645565b61018461017f366004610509565b6102fb565b60405190151581526020016100ff565b61011a610349565b6001610184565b6101846101b1366004610509565b6103de565b6101846101c436600461068b565b610422565b600054610100900460ff16806101e2575060005460ff16155b6102075760405162461bcd60e51b81526004016101fe906106a4565b60405180910390fd5b600054610100900460ff16158015610229576000805461ffff19166101011790555b610231610349565b8015610116576000805461ff00191690555050565b60608160008167ffffffffffffffff8111156102645761026461057e565b60405190808252806020026020018201604052801561028d578160200160208202803683370190505b50905060005b828110156102f0576102bc8686838181106102b0576102b06106f2565b90506020020135610429565b8282815181106102ce576102ce6106f2565b91151560209283029190910190910152806102e881610708565b915050610293565b509150505b92915050565b600081815b8181101561033e5761031d8585838181106102b0576102b06106f2565b61032c576000925050506102f5565b8061033681610708565b915050610300565b506001949350505050565b600054610100900460ff1680610362575060005460ff16155b61037e5760405162461bcd60e51b81526004016101fe906106a4565b600054610100900460ff161580156103a0576000805461ffff19166101011790555b6040517fb708568a0e67d40b1324a610ddd779500570f113513f944a791cc7b8b4970dec90600090a180156103db576000805461ff00191690555b50565b600081815b8181101561033e576104008585838181106102b0576102b06106f2565b15610410576000925050506102f5565b8061041a81610708565b9150506103e3565b60006102f5825b60405163e98b7f4d60e01b81526004810182905260009081907306012c8cf97bead5deae237070f9587f8e7a266d9063e98b7f4d9060240161014060405180830381865afa15801561047f573d6000803e3d6000fd5b505050506040513d601f19601f820116820180604052508101906104a39190610744565b50159b9a5050505050505050505050565b600060208083528351808285015260005b818110156104e1578581018301518582016040015282016104c5565b818111156104f3576000604083870101525b50601f01601f1916929092016040019392505050565b6000806020838503121561051c57600080fd5b823567ffffffffffffffff8082111561053457600080fd5b818501915085601f83011261054857600080fd5b81358181111561055757600080fd5b8660208260051b850101111561056c57600080fd5b60209290920196919550909350505050565b634e487b7160e01b600052604160045260246000fd5b6000602082840312156105a657600080fd5b813567ffffffffffffffff808211156105be57600080fd5b818401915084601f8301126105d257600080fd5b8135818111156105e4576105e461057e565b604051601f8201601f19908116603f0116810190838211818310171561060c5761060c61057e565b8160405282815287602084870101111561062557600080fd5b826020860160208301376000928101602001929092525095945050505050565b6020808252825182820181905260009190848201906040850190845b8181101561067f578351151583529284019291840191600101610661565b50909695505050505050565b60006020828403121561069d57600080fd5b5035919050565b6020808252602e908201527f496e697469616c697a61626c653a20636f6e747261637420697320616c72656160408201526d191e481a5b9a5d1a585b1a5e995960921b606082015260800190565b634e487b7160e01b600052603260045260246000fd5b60006001820161072857634e487b7160e01b600052601160045260246000fd5b5060010190565b8051801515811461073f57600080fd5b919050565b6000806000806000806000806000806101408b8d03121561076457600080fd5b61076d8b61072f565b995061077b60208c0161072f565b985060408b0151975060608b0151965060808b0151955060a08b0151945060c08b0151935060e08b015192506101008b015191506101208b015190509295989b9194979a509295985056fea26469706673582212202d544a5f2fbf379c73fded86bae5c9db0b90497f5d5ec74258884a7eecf1792a64736f6c634300080d0033",
  "linkReferences": {},
  "deployedLinkReferences": {}
}