{
  "_format": "hh-sol-artifact-1",
  "contractName": "NFTXMintRequestEligibility",
  "sourceName": "contracts/solidity/eligibility/NFTXMintRequestEligibility.sol",
  "abi": [
    {
      "anonymous": false,
      "inputs": [
        {
          "indexed": false,
          "internalType": "bool",
          "name": "allow",
          "type": "bool"
        }
      ],
      "name": "AllowTrustedApprovalsSet",
      "type": "event"
    },
    {
      "anonymous": false,
      "inputs": [
        {
          "indexed": false,
          "internalType": "uint256[]",
          "name": "nftIds",
          "type": "uint256[]"
        }
      ],
      "name": "Approve",
      "type": "event"
    },
    {
      "anonymous": false,
      "inputs": [
        {
          "indexed": false,
          "internalType": "address",
          "name": "owner",
          "type": "address"
        },
        {
          "indexed": false,
          "internalType": "uint256[]",
          "name": "tokenIds",
          "type": "uint256[]"
        }
      ],
      "name": "NFTXEligibilityInit",
      "type": "event"
    },
    {
      "anonymous": false,
      "inputs": [
        {
          "indexed": true,
          "internalType": "address",
          "name": "previousOwner",
          "type": "address"
        },
        {
          "indexed": true,
          "internalType": "address",
          "name": "newOwner",
          "type": "address"
        }
      ],
      "name": "OwnershipTransferred",
      "type": "event"
    },
    {
      "anonymous": false,
      "inputs": [
        {
          "indexed": false,
          "internalType": "address",
          "name": "sender",
          "type": "address"
        },
        {
          "indexed": false,
          "internalType": "uint256[]",
          "name": "nftIds",
          "type": "uint256[]"
        },
        {
          "indexed": false,
          "internalType": "uint256[]",
          "name": "amounts",
          "type": "uint256[]"
        }
      ],
      "name": "Request",
      "type": "event"
    },
    {
      "anonymous": false,
      "inputs": [
        {
          "indexed": false,
          "internalType": "address",
          "name": "addr",
          "type": "address"
        },
        {
          "indexed": false,
          "internalType": "bool",
          "name": "isGuardian",
          "type": "bool"
        }
      ],
      "name": "SetIsGuardian",
      "type": "event"
    },
    {
      "anonymous": false,
      "inputs": [
        {
          "indexed": false,
          "internalType": "uint256",
          "name": "lockId",
          "type": "uint256"
        },
        {
          "indexed": false,
          "internalType": "bool",
          "name": "paused",
          "type": "bool"
        }
      ],
      "name": "SetPaused",
      "type": "event"
    },
    {
      "anonymous": false,
      "inputs": [
        {
          "indexed": false,
          "internalType": "uint256[]",
          "name": "tokenIds",
          "type": "uint256[]"
        },
        {
          "indexed": false,
          "internalType": "bool",
          "name": "isEligible",
          "type": "bool"
        }
      ],
      "name": "UniqueEligibilitiesSet",
      "type": "event"
    },
    {
      "inputs": [
        {
          "internalType": "address",
          "name": "_owner",
          "type": "address"
        },
        {
          "internalType": "address",
          "name": "vaultAddress",
          "type": "address"
        },
        {
          "internalType": "bool",
          "name": "_negateEligOnRedeem",
          "type": "bool"
        },
        {
          "internalType": "uint256[]",
          "name": "tokenIds",
          "type": "uint256[]"
        }
      ],
      "name": "__NFTXEligibility_init",
      "outputs": [],
      "stateMutability": "nonpayable",
      "type": "function"
    },
    {
      "inputs": [
        {
          "internalType": "bytes",
          "name": "_configData",
          "type": "bytes"
        }
      ],
      "name": "__NFTXEligibility_init_bytes",
      "outputs": [],
      "stateMutability": "nonpayable",
      "type": "function"
    },
    {
      "inputs": [
        {
          "internalType": "uint256[]",
          "name": "tokenIds",
          "type": "uint256[]"
        }
      ],
      "name": "afterMintHook",
      "outputs": [],
      "stateMutability": "nonpayable",
      "type": "function"
    },
    {
      "inputs": [
        {
          "internalType": "uint256[]",
          "name": "tokenIds",
          "type": "uint256[]"
        }
      ],
      "name": "afterRedeemHook",
      "outputs": [],
      "stateMutability": "nonpayable",
      "type": "function"
    },
    {
      "inputs": [],
      "name": "allowTrustedApprovals",
      "outputs": [
        {
          "internalType": "bool",
          "name": "",
          "type": "bool"
        }
      ],
      "stateMutability": "view",
      "type": "function"
    },
    {
      "inputs": [
        {
          "internalType": "uint256[]",
          "name": "tokenIds",
          "type": "uint256[]"
        },
        {
          "internalType": "address[]",
          "name": "addresses",
          "type": "address[]"
        },
        {
          "internalType": "bool",
          "name": "mint",
          "type": "bool"
        }
      ],
      "name": "approveMintRequests",
      "outputs": [],
      "stateMutability": "nonpayable",
      "type": "function"
    },
    {
      "inputs": [
        {
          "internalType": "uint256[]",
          "name": "tokenIds",
          "type": "uint256[]"
        }
      ],
      "name": "beforeMintHook",
      "outputs": [],
      "stateMutability": "nonpayable",
      "type": "function"
    },
    {
      "inputs": [
        {
          "internalType": "uint256[]",
          "name": "tokenIds",
          "type": "uint256[]"
        }
      ],
      "name": "beforeRedeemHook",
      "outputs": [],
      "stateMutability": "nonpayable",
      "type": "function"
    },
    {
      "inputs": [
        {
          "internalType": "uint256[]",
          "name": "tokenIds",
          "type": "uint256[]"
        }
      ],
      "name": "checkAllEligible",
      "outputs": [
        {
          "internalType": "bool",
          "name": "",
          "type": "bool"
        }
      ],
      "stateMutability": "view",
      "type": "function"
    },
    {
      "inputs": [
        {
          "internalType": "uint256[]",
          "name": "tokenIds",
          "type": "uint256[]"
        }
      ],
      "name": "checkAllIneligible",
      "outputs": [
        {
          "internalType": "bool",
          "name": "",
          "type": "bool"
        }
      ],
      "stateMutability": "view",
      "type": "function"
    },
    {
      "inputs": [
        {
          "internalType": "uint256[]",
          "name": "tokenIds",
          "type": "uint256[]"
        }
      ],
      "name": "checkEligible",
      "outputs": [
        {
          "internalType": "bool[]",
          "name": "",
          "type": "bool[]"
        }
      ],
      "stateMutability": "view",
      "type": "function"
    },
    {
      "inputs": [
        {
          "internalType": "uint256",
          "name": "tokenId",
          "type": "uint256"
        }
      ],
      "name": "checkIsEligible",
      "outputs": [
        {
          "internalType": "bool",
          "name": "",
          "type": "bool"
        }
      ],
      "stateMutability": "view",
      "type": "function"
    },
    {
      "inputs": [
        {
          "internalType": "uint256[]",
          "name": "tokenIds",
          "type": "uint256[]"
        },
        {
          "internalType": "address[]",
          "name": "addresses",
          "type": "address[]"
        }
      ],
      "name": "claimUnminted",
      "outputs": [],
      "stateMutability": "nonpayable",
      "type": "function"
    },
    {
      "inputs": [],
      "name": "finalizeEligibility",
      "outputs": [],
      "stateMutability": "nonpayable",
      "type": "function"
    },
    {
      "inputs": [],
      "name": "finalized",
      "outputs": [
        {
          "internalType": "bool",
          "name": "",
          "type": "bool"
        }
      ],
      "stateMutability": "view",
      "type": "function"
    },
    {
      "inputs": [],
      "name": "is1155",
      "outputs": [
        {
          "internalType": "bool",
          "name": "",
          "type": "bool"
        }
      ],
      "stateMutability": "view",
      "type": "function"
    },
    {
      "inputs": [
        {
          "internalType": "address",
          "name": "",
          "type": "address"
        }
      ],
      "name": "isGuardian",
      "outputs": [
        {
          "internalType": "bool",
          "name": "",
          "type": "bool"
        }
      ],
      "stateMutability": "view",
      "type": "function"
    },
    {
      "inputs": [],
      "name": "isInitialized",
      "outputs": [
        {
          "internalType": "bool",
          "name": "",
          "type": "bool"
        }
      ],
      "stateMutability": "view",
      "type": "function"
    },
    {
      "inputs": [
        {
          "internalType": "uint256",
          "name": "",
          "type": "uint256"
        }
      ],
      "name": "isPaused",
      "outputs": [
        {
          "internalType": "bool",
          "name": "",
          "type": "bool"
        }
      ],
      "stateMutability": "view",
      "type": "function"
    },
    {
      "inputs": [
        {
          "internalType": "uint256",
          "name": "tokenId",
          "type": "uint256"
        }
      ],
      "name": "isUniqueEligible",
      "outputs": [
        {
          "internalType": "bool",
          "name": "",
          "type": "bool"
        }
      ],
      "stateMutability": "view",
      "type": "function"
    },
    {
      "inputs": [],
      "name": "name",
      "outputs": [
        {
          "internalType": "string",
          "name": "",
          "type": "string"
        }
      ],
      "stateMutability": "pure",
      "type": "function"
    },
    {
      "inputs": [],
      "name": "negateEligOnRedeem",
      "outputs": [
        {
          "internalType": "bool",
          "name": "",
          "type": "bool"
        }
      ],
      "stateMutability": "view",
      "type": "function"
    },
    {
      "inputs": [
        {
          "internalType": "address",
          "name": "",
          "type": "address"
        },
        {
          "internalType": "address",
          "name": "",
          "type": "address"
        },
        {
          "internalType": "uint256[]",
          "name": "",
          "type": "uint256[]"
        },
        {
          "internalType": "uint256[]",
          "name": "",
          "type": "uint256[]"
        },
        {
          "internalType": "bytes",
          "name": "",
          "type": "bytes"
        }
      ],
      "name": "onERC1155BatchReceived",
      "outputs": [
        {
          "internalType": "bytes4",
          "name": "",
          "type": "bytes4"
        }
      ],
      "stateMutability": "nonpayable",
      "type": "function"
    },
    {
      "inputs": [
        {
          "internalType": "address",
          "name": "",
          "type": "address"
        },
        {
          "internalType": "address",
          "name": "",
          "type": "address"
        },
        {
          "internalType": "uint256",
          "name": "",
          "type": "uint256"
        },
        {
          "internalType": "uint256",
          "name": "",
          "type": "uint256"
        },
        {
          "internalType": "bytes",
          "name": "",
          "type": "bytes"
        }
      ],
      "name": "onERC1155Received",
      "outputs": [
        {
          "internalType": "bytes4",
          "name": "",
          "type": "bytes4"
        }
      ],
      "stateMutability": "nonpayable",
      "type": "function"
    },
    {
      "inputs": [
        {
          "internalType": "address",
          "name": "",
          "type": "address"
        },
        {
          "internalType": "address",
          "name": "",
          "type": "address"
        },
        {
          "internalType": "uint256",
          "name": "",
          "type": "uint256"
        },
        {
          "internalType": "bytes",
          "name": "",
          "type": "bytes"
        }
      ],
      "name": "onERC721Received",
      "outputs": [
        {
          "internalType": "bytes4",
          "name": "",
          "type": "bytes4"
        }
      ],
      "stateMutability": "nonpayable",
      "type": "function"
    },
    {
      "inputs": [
        {
          "internalType": "uint256",
          "name": "lockId",
          "type": "uint256"
        }
      ],
      "name": "onlyOwnerIfPaused",
      "outputs": [],
      "stateMutability": "view",
      "type": "function"
    },
    {
      "inputs": [],
      "name": "owner",
      "outputs": [
        {
          "internalType": "address",
          "name": "",
          "type": "address"
        }
      ],
      "stateMutability": "view",
      "type": "function"
    },
    {
      "inputs": [
        {
          "internalType": "uint256",
          "name": "lockId",
          "type": "uint256"
        }
      ],
      "name": "pause",
      "outputs": [],
      "stateMutability": "nonpayable",
      "type": "function"
    },
    {
      "inputs": [
        {
          "internalType": "uint256[]",
          "name": "tokenIds",
          "type": "uint256[]"
        }
      ],
      "name": "reclaimRequestedMint",
      "outputs": [],
      "stateMutability": "nonpayable",
      "type": "function"
    },
    {
      "inputs": [],
      "name": "renounceOwnership",
      "outputs": [],
      "stateMutability": "nonpayable",
      "type": "function"
    },
    {
      "inputs": [
        {
          "internalType": "uint256[]",
          "name": "tokenIds",
          "type": "uint256[]"
        },
        {
          "internalType": "uint256[]",
          "name": "amounts",
          "type": "uint256[]"
        }
      ],
      "name": "requestMint",
      "outputs": [],
      "stateMutability": "nonpayable",
      "type": "function"
    },
    {
      "inputs": [
        {
          "internalType": "bool",
          "name": "_allowTrustedApprovals",
          "type": "bool"
        }
      ],
      "name": "setEligibilityPreferences",
      "outputs": [],
      "stateMutability": "nonpayable",
      "type": "function"
    },
    {
      "inputs": [
        {
          "internalType": "address",
          "name": "addr",
          "type": "address"
        },
        {
          "internalType": "bool",
          "name": "_isGuardian",
          "type": "bool"
        }
      ],
      "name": "setIsGuardian",
      "outputs": [],
      "stateMutability": "nonpayable",
      "type": "function"
    },
    {
      "inputs": [
        {
          "internalType": "uint256[]",
          "name": "tokenIds",
          "type": "uint256[]"
        },
        {
          "internalType": "bool",
          "name": "_isEligible",
          "type": "bool"
        }
      ],
      "name": "setUniqueEligibilities",
      "outputs": [],
      "stateMutability": "nonpayable",
      "type": "function"
    },
    {
      "inputs": [
        {
          "internalType": "bytes4",
          "name": "interfaceId",
          "type": "bytes4"
        }
      ],
      "name": "supportsInterface",
      "outputs": [
        {
          "internalType": "bool",
          "name": "",
          "type": "bool"
        }
      ],
      "stateMutability": "view",
      "type": "function"
    },
    {
      "inputs": [],
      "name": "targetAsset",
      "outputs": [
        {
          "internalType": "address",
          "name": "",
          "type": "address"
        }
      ],
      "stateMutability": "pure",
      "type": "function"
    },
    {
      "inputs": [
        {
          "internalType": "address",
          "name": "newOwner",
          "type": "address"
        }
      ],
      "name": "transferOwnership",
      "outputs": [],
      "stateMutability": "nonpayable",
      "type": "function"
    },
    {
      "inputs": [
        {
          "internalType": "uint256",
          "name": "lockId",
          "type": "uint256"
        }
      ],
      "name": "unpause",
      "outputs": [],
      "stateMutability": "nonpayable",
      "type": "function"
    },
    {
      "inputs": [],
      "name": "vault",
      "outputs": [
        {
          "internalType": "contract INFTXVault",
          "name": "",
          "type": "address"
        }
      ],
      "stateMutability": "view",
      "type": "function"
    }
  ],
  "bytecode": "0x608060405234801561001057600080fd5b506129b5806100206000396000f3fe608060405234801561001057600080fd5b506004361061023d5760003560e01c80637c77b6161161013b578063ca373f28116100b8578063f23a6e611161007c578063f23a6e6114610518578063f2fde38b14610537578063fabc1cbc1461054a578063fbd5cb201461055d578063fbfa77cf1461057057600080fd5b8063ca373f28146104b8578063d2a096e8146104cb578063d6eed937146104de578063e23268d4146104f2578063f09064db1461050557600080fd5b80639ee0362c116100ff5780639ee0362c1461045b578063b3f05b971461046e578063bc197c8114610476578063bd8affde14610348578063bdf2a43c1461049557600080fd5b80637c77b616146103fd57806384ca9f85146104105780638da5cb5b14610423578063920aa5d21461043457806393cb666d1461044757600080fd5b806336eb0862116101c95780634998b7f31161018d5780634998b7f3146103af5780635e2f9b52146103c25780636c47d595146103485780636cd91260146103d5578063715018a6146103f557600080fd5b806336eb086214610348578063392e53cd1461035a5780633942cf361461036e5780633d4403ac14610381578063423515c41461039c57600080fd5b80630c68ba21116102105780630c68ba21146102c0578063136439dd146102e3578063150b7a02146102f6578063194ab4d81461032d57806323845fb51461033557600080fd5b806301ffc9a714610242578063047d066c1461026a57806306f26dc21461027f57806306fdde0314610293575b600080fd5b610255610250366004611f48565b610583565b60405190151581526020015b60405180910390f35b61027d610278366004612069565b6105ba565b005b60685461025590600160a81b900460ff1681565b604080518082018252600b81526a135a5b9d14995c5d595cdd60aa1b6020820152905161026191906120dd565b6102556102ce366004612132565b60656020526000908152604090205460ff1681565b61027d6102f136600461214f565b61080b565b6103146103043660046121d7565b630a85bd0160e11b949350505050565b6040516001600160e01b03199091168152602001610261565b61027d6108b0565b61027d610343366004612236565b6108e4565b61027d6103563660046122ba565b5050565b60685461025590600160a01b900460ff1681565b61025561037c36600461214f565b610971565b60005b6040516001600160a01b039091168152602001610261565b61027d6103aa3660046122fb565b6109a4565b61027d6103bd366004612318565b610a1b565b61027d6103d03660046122ba565b610ab9565b6103e86103e33660046122ba565b610b1e565b604051610261919061234c565b61027d610bd0565b61027d61040b36600461214f565b610c44565b61025561041e3660046122ba565b610ca4565b6033546001600160a01b0316610384565b61027d6104423660046122ba565b610cf2565b60685461025590600160b81b900460ff1681565b61027d610469366004612392565b610f90565b6102556112b8565b6103146104843660046123fd565b63bc197c8160e01b95945050505050565b6102556104a336600461214f565b60666020526000908152604090205460ff1681565b6102556104c63660046122ba565b6112f3565b6102556104d936600461214f565b611337565b60685461025590600160b01b900460ff1681565b61027d610500366004612392565b611342565b61027d6105133660046124aa565b6116ab565b61031461052636600461252d565b63f23a6e6160e01b95945050505050565b61027d610545366004612132565b611a5c565b61027d61055836600461214f565b611b47565b61027d61056b366004612595565b611bbe565b606854610384906001600160a01b031681565b60006001600160e01b03198216630271189760e51b14806105b457506301ffc9a760e01b6001600160e01b03198316145b92915050565b600054610100900460ff16806105d3575060005460ff16155b6105f85760405162461bcd60e51b81526004016105ef906125db565b60405180910390fd5b600054610100900460ff1615801561061a576000805461ffff19166101011790555b610622611c0d565b6068805460ff60a01b1916600160a01b179055610640826001611c88565b61064985611a5c565b606880546001600160a01b038616600162ff000160a01b03199091168117600160b01b86151502179091556040805163037936e160e11b815290516306f26dc2916004808201926020929091908290030181865afa1580156106af573d6000803e3d6000fd5b505050506040513d601f19601f820116820180604052508101906106d39190612629565b606860156101000a81548160ff0219169083151502179055506000846001600160a01b0316631ba46cfd6040518163ffffffff1660e01b8152600401602060405180830381865afa15801561072c573d6000803e3d6000fd5b505050506040513d601f19601f820116820180604052508101906107509190612646565b60685460405163a22cb46560e01b81526001600160a01b0391821660048201526001602482015291925082169063a22cb46590604401600060405180830381600087803b1580156107a057600080fd5b505af11580156107b4573d6000803e3d6000fd5b505050507f7bc77c0b30e14218218c321182385b620a19a395362de610f7478a989d37eeb486846040516107e992919061269e565b60405180910390a1508015610804576000805461ff00191690555b5050505050565b3360009081526065602052604090205460ff166108585760405162461bcd60e51b815260206004820152600b60248201526a43616e277420706175736560a81b60448201526064016105ef565b600081815260666020908152604091829020805460ff191660019081179091558251848152918201527f77f1fcfcce67dc392d64f842056d2ec06c80986c47c910f7e79c5b23a2738d7491015b60405180910390a150565b6033546001600160a01b031633146108da5760405162461bcd60e51b81526004016105ef906126c2565b6108e2610bd0565b565b6033546001600160a01b0316331461090e5760405162461bcd60e51b81526004016105ef906126c2565b6001600160a01b038216600081815260656020908152604091829020805460ff19168515159081179091558251938452908301527fd0b6b573d5442f7c29fd50d9735ae341581c25c6ed07748d50eda519f1ffa88a910160405180910390a15050565b6000806109806101008461270d565b60008181526067602052604090205490915061099c8185611d8a565b949350505050565b6033546001600160a01b031633146109ce5760405162461bcd60e51b81526004016105ef906126c2565b60688054821515600160b81b0260ff60b81b199091161790556040517f265b2675575500edc646c9c2fbbd54edb9abe02267907927c3c43a620c59d950906108a590831515815260200190565b600054610100900460ff1680610a34575060005460ff16155b610a505760405162461bcd60e51b81526004016105ef906125db565b600054610100900460ff16158015610a72576000805461ffff19166101011790555b60008060008085806020019051810190610a8c9190612721565b9350935093509350610aa0848484846105ba565b505050508015610356576000805461ff00191690555050565b6068546001600160a01b03163314610ad057600080fd5b606854600160b01b900460ff16156103565761035682828080602002602001604051908101604052809392919081815260200183836020028082843760009201829052509250611c88915050565b6060816000816001600160401b03811115610b3b57610b3b611f95565b604051908082528060200260200182016040528015610b64578160200160208202803683370190505b50905060005b82811015610bc757610b93868683818110610b8757610b876127ed565b90506020020135611daa565b828281518110610ba557610ba56127ed565b9115156020928302919091019091015280610bbf81612803565b915050610b6a565b50949350505050565b6033546001600160a01b03163314610bfa5760405162461bcd60e51b81526004016105ef906126c2565b6033546040516000916001600160a01b0316907f8be0079c531659141344cd1fd0a4f28419497f9722a3daafe3b4186f6b6457e0908390a3603380546001600160a01b0319169055565b60008181526066602052604090205460ff161580610c6c57506033546001600160a01b031633145b610ca15760405162461bcd60e51b815260206004820152600660248201526514185d5cd95960d21b60448201526064016105ef565b50565b600081815b81811015610ce757610cc6858583818110610b8757610b876127ed565b610cd5576000925050506105b4565b80610cdf81612803565b915050610ca9565b506001949350505050565b60685460408051631ba46cfd60e01b815290516000926001600160a01b031691631ba46cfd9160048083019260209291908290030181865afa158015610d3c573d6000803e3d6000fd5b505050506040513d601f19601f82011682018060405250810190610d609190612646565b606854909150600160a81b900460ff1660005b83811015610804576000858583818110610d8f57610d8f6127ed565b336000908152606a60209081526040808320938202959095013580835292905292909220549192505080610e055760405162461bcd60e51b815260206004820152601d60248201527f4e4654585661756c743a206e6f7468696e6720746f207265636c61696d00000060448201526064016105ef565b33600090815260696020908152604080832085845290915290205460ff1615610e705760405162461bcd60e51b815260206004820152601f60248201527f456c69676962696c6974793a2063616e6e6f7420626520617070726f7665640060448201526064016105ef565b336000818152606a60209081526040808320868452825280832083905592825260698152828220858352905220805460ff191690558315610f1457604051637921219560e11b81526001600160a01b0386169063f242432a90610edd90309033908790879060040161282a565b600060405180830381600087803b158015610ef757600080fd5b505af1158015610f0b573d6000803e3d6000fd5b50505050610f7b565b604051632142170760e11b8152306004820152336024820152604481018390526001600160a01b038616906342842e0e90606401600060405180830381600087803b158015610f6257600080fd5b505af1158015610f76573d6000803e3d6000fd5b505050505b50508080610f8890612803565b915050610d73565b610f9a6000610c44565b828114610fa657600080fd5b60685460408051631ba46cfd60e01b8152905160ff600160a81b840416926000926001600160a01b0390911691631ba46cfd916004808201926020929091908290030181865afa158015610ffe573d6000803e3d6000fd5b505050506040513d601f19601f820116820180604052508101906110229190612646565b905060005b85811015611270576000878783818110611043576110436127ed565b9050602002013590506000868684818110611060576110606127ed565b336000908152606a6020908152604080832088845282529091205491029290920135925050156110c85760405162461bcd60e51b8152602060048201526013602482015272139bc8195e1a5cdd1a5b99c81c995c5d595cdd606a1b60448201526064016105ef565b336000908152606a60209081526040808320858452909152902081905584156111a4576000811161113b5760405162461bcd60e51b815260206004820152601e60248201527f4d75737420726571756573742077697468206174206c65617374206f6e65000060448201526064016105ef565b604051637921219560e11b81526001600160a01b0385169063f242432a9061116d90339030908790879060040161282a565b600060405180830381600087803b15801561118757600080fd5b505af115801561119b573d6000803e3d6000fd5b5050505061125b565b806001146111f45760405162461bcd60e51b815260206004820152601a60248201527f4d75737420726571756573742077697468206f6e6c79206f6e6500000000000060448201526064016105ef565b604051632142170760e11b8152336004820152306024820152604481018390526001600160a01b038516906342842e0e90606401600060405180830381600087803b15801561124257600080fd5b505af1158015611256573d6000803e3d6000fd5b505050505b5050808061126890612803565b915050611027565b507f82a3bdcbe86d2a7b5d30b7d06d6be36f5a2899a83922820dbed635afc0a2ef1933878787876040516112a8959493929190612898565b60405180910390a1505050505050565b606854600090600160a01b900460ff1680156112ee575060006112e36033546001600160a01b031690565b6001600160a01b0316145b905090565b600081815b81811015610ce757611315858583818110610b8757610b876127ed565b15611325576000925050506105b4565b8061132f81612803565b9150506112f8565b60006105b482611daa565b82811461134e57600080fd5b6068546001600160a01b031660005b848110156116a3576000868683818110611379576113796127ed565b9050602002013590506000606a600087878681811061139a5761139a6127ed565b90506020020160208101906113af9190612132565b6001600160a01b03166001600160a01b031681526020019081526020016000206000838152602001908152602001600020549050600081116114215760405162461bcd60e51b815260206004820152600b60248201526a4e6f20726571756573747360a81b60448201526064016105ef565b60696000878786818110611437576114376127ed565b905060200201602081019061144c9190612132565b6001600160a01b031681526020808201929092526040908101600090812085825290925290205460ff166114b15760405162461bcd60e51b815260206004820152600c60248201526b139bdd08185c1c1c9bdd995960a21b60448201526064016105ef565b6000606960008888878181106114c9576114c96127ed565b90506020020160208101906114de9190612132565b6001600160a01b03168152602080820192909252604090810160009081208682529092528120805460ff191692151592909217909155606a81888887818110611529576115296127ed565b905060200201602081019061153e9190612132565b6001600160a01b031681526020808201929092526040908101600090812086825283528181209390935580516001808252818301909252918281019080368337505060408051600180825281830190925292935060009291506020808301908036833701905050905083826000815181106115bb576115bb6127ed565b60200260200101818152505082816000815181106115db576115db6127ed565b6020026020010181815250506115f2826001611c88565b856001600160a01b031663b10402ea83838b8b8a818110611615576116156127ed565b905060200201602081019061162a9190612132565b6040518463ffffffff1660e01b8152600401611648939291906128dc565b6020604051808303816000875af1158015611667573d6000803e3d6000fd5b505050506040513d601f19601f8201168201806040525081019061168b919061291a565b5050505050808061169b90612803565b91505061135d565b505050505050565b6116b56000610c44565b8382146116c157600080fd5b606854600160b81b900460ff1615806116ea57503360009081526065602052604090205460ff16155b156116f7576116f7611db5565b6068546001600160a01b031660005b85811015611a2a576000878783818110611722576117226127ed565b9050602002013590506000606a6000888886818110611743576117436127ed565b90506020020160208101906117589190612132565b6001600160a01b03166001600160a01b031681526020019081526020016000206000838152602001908152602001600020549050600081116117ca5760405162461bcd60e51b815260206004820152600b60248201526a4e6f20726571756573747360a81b60448201526064016105ef565b84156119b2576000606960008989878181106117e8576117e86127ed565b90506020020160208101906117fd9190612132565b6001600160a01b03168152602080820192909252604090810160009081208682529092528120805460ff191692151592909217909155606a81898987818110611848576118486127ed565b905060200201602081019061185d9190612132565b6001600160a01b031681526020808201929092526040908101600090812086825283528181209390935580516001808252818301909252918281019080368337505060408051600180825281830190925292935060009291506020808301908036833701905050905083826000815181106118da576118da6127ed565b60200260200101818152505082816000815181106118fa576118fa6127ed565b602002602001018181525050611911826001611c88565b856001600160a01b031663b10402ea83838c8c8a818110611934576119346127ed565b90506020020160208101906119499190612132565b6040518463ffffffff1660e01b8152600401611967939291906128dc565b6020604051808303816000875af1158015611986573d6000803e3d6000fd5b505050506040513d601f19601f820116820180604052508101906119aa919061291a565b505050611a15565b6001606960008989878181106119ca576119ca6127ed565b90506020020160208101906119df9190612132565b6001600160a01b03168152602080820192909252604090810160009081208682529092529020805460ff19169115159190911790555b50508080611a2290612803565b915050611706565b507ffcaa564cf1fd9419442b64a8ecd5417f0674fcf5a55a6a53694f14250a73b5d086866040516112a8929190612933565b6033546001600160a01b03163314611a865760405162461bcd60e51b81526004016105ef906126c2565b6001600160a01b038116611aeb5760405162461bcd60e51b815260206004820152602660248201527f4f776e61626c653a206e6577206f776e657220697320746865207a65726f206160448201526564647265737360d01b60648201526084016105ef565b6033546040516001600160a01b038084169216907f8be0079c531659141344cd1fd0a4f28419497f9722a3daafe3b4186f6b6457e090600090a3603380546001600160a01b0319166001600160a01b0392909216919091179055565b6033546001600160a01b03163314611b715760405162461bcd60e51b81526004016105ef906126c2565b6000818152606660209081526040808320805460ff191690558051848152918201929092527f77f1fcfcce67dc392d64f842056d2ec06c80986c47c910f7e79c5b23a2738d7491016108a5565b606854600160b81b900460ff161580611be757503360009081526065602052604090205460ff16155b15611bf957611bf4611db5565b611c03565b611c036000610c44565b6103568282611c88565b600054610100900460ff1680611c26575060005460ff16155b611c425760405162461bcd60e51b81526004016105ef906125db565b600054610100900460ff16158015611c64576000805461ffff19166101011790555b611c6c611dfb565b611c74611e65565b8015610ca1576000805461ff001916905550565b600080805260676020527fd4e1ac8b62c3ff1e2c1b7113742533b8310ce5ab8a8767ead9ba8b250c7e3cc95490805b8451811015611d38576000858281518110611cd457611cd46127ed565b60200260200101519050600061010082611cee919061270d565b9050838114611d16576000938452606760205260408085209590955580845293909220549291825b611d21858388611f13565b945050508080611d3090612803565b915050611cb7565b5060008181526067602052604090819020839055517ffacde3821ab1224682dd0ab6a805f71860b6ca6982ad044c8c4927ea4c6f140190611d7c9086908690612947565b60405180910390a150505050565b600080611d996101008461296b565b9390931c6001908116149392505050565b60006105b482610971565b6033546001600160a01b031633146108e25760405162461bcd60e51b81526020600482015260096024820152682737ba1037bbb732b960b91b60448201526064016105ef565b600054610100900460ff1680611e14575060005460ff16155b611e305760405162461bcd60e51b81526004016105ef906125db565b600054610100900460ff16158015611c74576000805461ffff19166101011790558015610ca1576000805461ff001916905550565b600054610100900460ff1680611e7e575060005460ff16155b611e9a5760405162461bcd60e51b81526004016105ef906125db565b600054610100900460ff16158015611ebc576000805461ffff19166101011790555b603380546001600160a01b0319163390811790915560405181906000907f8be0079c531659141344cd1fd0a4f28419497f9722a3daafe3b4186f6b6457e0908290a3508015610ca1576000805461ff001916905550565b600080611f226101008561296b565b90508215611f37576001901b84179050611f41565b6001901b19841690505b9392505050565b600060208284031215611f5a57600080fd5b81356001600160e01b031981168114611f4157600080fd5b6001600160a01b0381168114610ca157600080fd5b8015158114610ca157600080fd5b634e487b7160e01b600052604160045260246000fd5b604051601f8201601f191681016001600160401b0381118282101715611fd357611fd3611f95565b604052919050565b60006001600160401b03821115611ff457611ff4611f95565b5060051b60200190565b600082601f83011261200f57600080fd5b8135602061202461201f83611fdb565b611fab565b82815260059290921b8401810191818101908684111561204357600080fd5b8286015b8481101561205e5780358352918301918301612047565b509695505050505050565b6000806000806080858703121561207f57600080fd5b843561208a81611f72565b9350602085013561209a81611f72565b925060408501356120aa81611f87565b915060608501356001600160401b038111156120c557600080fd5b6120d187828801611ffe565b91505092959194509250565b600060208083528351808285015260005b8181101561210a578581018301518582016040015282016120ee565b8181111561211c576000604083870101525b50601f01601f1916929092016040019392505050565b60006020828403121561214457600080fd5b8135611f4181611f72565b60006020828403121561216157600080fd5b5035919050565b600082601f83011261217957600080fd5b81356001600160401b0381111561219257612192611f95565b6121a5601f8201601f1916602001611fab565b8181528460208386010111156121ba57600080fd5b816020850160208301376000918101602001919091529392505050565b600080600080608085870312156121ed57600080fd5b84356121f881611f72565b9350602085013561220881611f72565b92506040850135915060608501356001600160401b0381111561222a57600080fd5b6120d187828801612168565b6000806040838503121561224957600080fd5b823561225481611f72565b9150602083013561226481611f87565b809150509250929050565b60008083601f84011261228157600080fd5b5081356001600160401b0381111561229857600080fd5b6020830191508360208260051b85010111156122b357600080fd5b9250929050565b600080602083850312156122cd57600080fd5b82356001600160401b038111156122e357600080fd5b6122ef8582860161226f565b90969095509350505050565b60006020828403121561230d57600080fd5b8135611f4181611f87565b60006020828403121561232a57600080fd5b81356001600160401b0381111561234057600080fd5b61099c84828501612168565b6020808252825182820181905260009190848201906040850190845b81811015612386578351151583529284019291840191600101612368565b50909695505050505050565b600080600080604085870312156123a857600080fd5b84356001600160401b03808211156123bf57600080fd5b6123cb8883890161226f565b909650945060208701359150808211156123e457600080fd5b506123f18782880161226f565b95989497509550505050565b600080600080600060a0868803121561241557600080fd5b853561242081611f72565b9450602086013561243081611f72565b935060408601356001600160401b038082111561244c57600080fd5b61245889838a01611ffe565b9450606088013591508082111561246e57600080fd5b61247a89838a01611ffe565b9350608088013591508082111561249057600080fd5b5061249d88828901612168565b9150509295509295909350565b6000806000806000606086880312156124c257600080fd5b85356001600160401b03808211156124d957600080fd5b6124e589838a0161226f565b909750955060208801359150808211156124fe57600080fd5b5061250b8882890161226f565b909450925050604086013561251f81611f87565b809150509295509295909350565b600080600080600060a0868803121561254557600080fd5b853561255081611f72565b9450602086013561256081611f72565b9350604086013592506060860135915060808601356001600160401b0381111561258957600080fd5b61249d88828901612168565b600080604083850312156125a857600080fd5b82356001600160401b038111156125be57600080fd5b6125ca85828601611ffe565b925050602083013561226481611f87565b6020808252602e908201527f496e697469616c697a61626c653a20636f6e747261637420697320616c72656160408201526d191e481a5b9a5d1a585b1a5e995960921b606082015260800190565b60006020828403121561263b57600080fd5b8151611f4181611f87565b60006020828403121561265857600080fd5b8151611f4181611f72565b600081518084526020808501945080840160005b8381101561269357815187529582019590820190600101612677565b509495945050505050565b6001600160a01b038316815260406020820181905260009061099c90830184612663565b6020808252818101527f4f776e61626c653a2063616c6c6572206973206e6f7420746865206f776e6572604082015260600190565b634e487b7160e01b600052601260045260246000fd5b60008261271c5761271c6126f7565b500490565b6000806000806080858703121561273757600080fd5b845161274281611f72565b8094505060208086015161275581611f72565b604087015190945061276681611f87565b60608701519093506001600160401b0381111561278257600080fd5b8601601f8101881361279357600080fd5b80516127a161201f82611fdb565b81815260059190911b8201830190838101908a8311156127c057600080fd5b928401925b828410156127de578351825292840192908401906127c5565b979a9699509497505050505050565b634e487b7160e01b600052603260045260246000fd5b60006001820161282357634e487b7160e01b600052601160045260246000fd5b5060010190565b6001600160a01b0394851681529290931660208301526040820152606081019190915260a06080820181905260009082015260c00190565b81835260006001600160fb1b0383111561287b57600080fd5b8260051b8083602087013760009401602001938452509192915050565b6001600160a01b03861681526060602082018190526000906128bd9083018688612862565b82810360408401526128d0818587612862565b98975050505050505050565b6060815260006128ef6060830186612663565b82810360208401526129018186612663565b91505060018060a01b0383166040830152949350505050565b60006020828403121561292c57600080fd5b5051919050565b60208152600061099c602083018486612862565b60408152600061295a6040830185612663565b905082151560208301529392505050565b60008261297a5761297a6126f7565b50069056fea26469706673582212206dfcc59e540a948050d18f104e951d5e724e33c3851e554b6e7fce1282f418e364736f6c634300080d0033",
  "linkReferences": {},
  "deployedLinkReferences": {}
}