{
  "_format": "hh-sol-artifact-1",
  "contractName": "NFTXEligibilityManager",
  "sourceName": "contracts/solidity/NFTXEligibilityManager.sol",
  "abi": [
    {
      "anonymous": false,
      "inputs": [
        {
          "indexed": false,
          "internalType": "address",
          "name": "implementation",
          "type": "address"
        },
        {
          "indexed": false,
          "internalType": "address",
          "name": "targetAsset",
          "type": "address"
        },
        {
          "indexed": false,
          "internalType": "string",
          "name": "name",
          "type": "string"
        },
        {
          "indexed": false,
          "internalType": "bool",
          "name": "finalizedOnDeploy",
          "type": "bool"
        }
      ],
      "name": "ModuleAdded",
      "type": "event"
    },
    {
      "anonymous": false,
      "inputs": [
        {
          "indexed": false,
          "internalType": "address",
          "name": "implementation",
          "type": "address"
        },
        {
          "indexed": false,
          "internalType": "string",
          "name": "name",
          "type": "string"
        },
        {
          "indexed": false,
          "internalType": "bool",
          "name": "finalizedOnDeploy",
          "type": "bool"
        }
      ],
      "name": "ModuleUpdated",
      "type": "event"
    },
    {
      "anonymous": false,
      "inputs": [
        {
          "indexed": true,
          "internalType": "address",
          "name": "previousOwner",
          "type": "address"
        },
        {
          "indexed": true,
          "internalType": "address",
          "name": "newOwner",
          "type": "address"
        }
      ],
      "name": "OwnershipTransferred",
      "type": "event"
    },
    {
      "inputs": [],
      "name": "__NFTXEligibilityManager_init",
      "outputs": [],
      "stateMutability": "nonpayable",
      "type": "function"
    },
    {
      "inputs": [
        {
          "internalType": "address",
          "name": "implementation",
          "type": "address"
        }
      ],
      "name": "addModule",
      "outputs": [],
      "stateMutability": "nonpayable",
      "type": "function"
    },
    {
      "inputs": [],
      "name": "allModuleNames",
      "outputs": [
        {
          "internalType": "string[]",
          "name": "",
          "type": "string[]"
        }
      ],
      "stateMutability": "view",
      "type": "function"
    },
    {
      "inputs": [],
      "name": "allModules",
      "outputs": [
        {
          "components": [
            {
              "internalType": "address",
              "name": "implementation",
              "type": "address"
            },
            {
              "internalType": "address",
              "name": "targetAsset",
              "type": "address"
            },
            {
              "internalType": "string",
              "name": "name",
              "type": "string"
            }
          ],
          "internalType": "struct NFTXEligibilityManager.EligibilityModule[]",
          "name": "",
          "type": "tuple[]"
        }
      ],
      "stateMutability": "view",
      "type": "function"
    },
    {
      "inputs": [
        {
          "internalType": "uint256",
          "name": "moduleIndex",
          "type": "uint256"
        },
        {
          "internalType": "bytes",
          "name": "configData",
          "type": "bytes"
        }
      ],
      "name": "deployEligibility",
      "outputs": [
        {
          "internalType": "address",
          "name": "",
          "type": "address"
        }
      ],
      "stateMutability": "nonpayable",
      "type": "function"
    },
    {
      "inputs": [
        {
          "internalType": "uint256",
          "name": "",
          "type": "uint256"
        }
      ],
      "name": "modules",
      "outputs": [
        {
          "internalType": "address",
          "name": "implementation",
          "type": "address"
        },
        {
          "internalType": "address",
          "name": "targetAsset",
          "type": "address"
        },
        {
          "internalType": "string",
          "name": "name",
          "type": "string"
        }
      ],
      "stateMutability": "view",
      "type": "function"
    },
    {
      "inputs": [],
      "name": "owner",
      "outputs": [
        {
          "internalType": "address",
          "name": "",
          "type": "address"
        }
      ],
      "stateMutability": "view",
      "type": "function"
    },
    {
      "inputs": [],
      "name": "renounceOwnership",
      "outputs": [],
      "stateMutability": "nonpayable",
      "type": "function"
    },
    {
      "inputs": [
        {
          "internalType": "address",
          "name": "newOwner",
          "type": "address"
        }
      ],
      "name": "transferOwnership",
      "outputs": [],
      "stateMutability": "nonpayable",
      "type": "function"
    },
    {
      "inputs": [
        {
          "internalType": "uint256",
          "name": "moduleIndex",
          "type": "uint256"
        },
        {
          "internalType": "address",
          "name": "implementation",
          "type": "address"
        }
      ],
      "name": "updateModule",
      "outputs": [],
      "stateMutability": "nonpayable",
      "type": "function"
    }
  ],
  "bytecode": "0x608060405234801561001057600080fd5b506114d0806100206000396000f3fe608060405234801561001057600080fd5b506004361061009e5760003560e01c8063786049ec11610066578063786049ec1461011c57806381b2248a146101315780638da5cb5b14610153578063f2fde38b14610164578063f72597cf1461017757600080fd5b8063164f49ae146100a35780631ed86f19146100c157806323b6c2eb146100d6578063576ff908146100e9578063715018a614610114575b600080fd5b6100ab61017f565b6040516100b89190610fda565b60405180910390f35b6100d46100cf36600461107a565b610293565b005b6100d46100e436600461109e565b61057f565b6100fc6100f73660046110ce565b61077a565b6040516001600160a01b0390911681526020016100b8565b6100d4610864565b6101246108d8565b6040516100b8919061114a565b61014461013f3660046111ac565b610a9e565b6040516100b8939291906111c5565b6033546001600160a01b03166100fc565b6100d461017236600461107a565b610b6a565b6100d4610c55565b60606065805480602002602001604051908101604052809291908181526020016000905b8282101561028a576000848152602090819020604080516060810182526003860290920180546001600160a01b03908116845260018201541693830193909352600283018054929392918401916101f9906111fa565b80601f0160208091040260200160405190810160405280929190818152602001828054610225906111fa565b80156102725780601f1061024757610100808354040283529160200191610272565b820191906000526020600020905b81548152906001019060200180831161025557829003601f168201915b505050505081525050815260200190600101906101a3565b50505050905090565b6033546001600160a01b031633146102c65760405162461bcd60e51b81526004016102bd90611234565b60405180910390fd5b6001600160a01b0381166103115760405162461bcd60e51b8152602060048201526012602482015271496d706c20213d206164647265737328302960701b60448201526064016102bd565b60008190506000816001600160a01b03166306fdde036040518163ffffffff1660e01b8152600401600060405180830381865afa158015610356573d6000803e3d6000fd5b505050506040513d6000823e601f3d908101601f1916820160405261037e919081019061127f565b905060006040518060600160405280856001600160a01b03168152602001846001600160a01b0316633d4403ac6040518163ffffffff1660e01b8152600401602060405180830381865afa1580156103da573d6000803e3d6000fd5b505050506040513d601f19601f820116820180604052508101906103fe919061132c565b6001600160a01b039081168252602091820185905260658054600181018255600091909152835160039091027f8ff97419363ffd7000167f130ef7168fbea05faf9251824ca5043f113cc6a7c7810180549284166001600160a01b0319938416178155858501517f8ff97419363ffd7000167f130ef7168fbea05faf9251824ca5043f113cc6a7c8830180549190951693169290921790925560408401518051949550859491936104d4937f8ff97419363ffd7000167f130ef7168fbea05faf9251824ca5043f113cc6a7c90192910190610ee5565b5050507f526a1ef569cd9da0f740679693eef4f6062880ef98c0fcf77a896418a42ac75d84826020015184866001600160a01b031663b3f05b976040518163ffffffff1660e01b8152600401602060405180830381865afa15801561053d573d6000803e3d6000fd5b505050506040513d601f19601f820116820180604052508101906105619190611349565b604051610571949392919061136b565b60405180910390a150505050565b6033546001600160a01b031633146105a95760405162461bcd60e51b81526004016102bd90611234565b60655482106105ea5760405162461bcd60e51b815260206004820152600d60248201526c4f7574206f6620626f756e647360981b60448201526064016102bd565b6001600160a01b0381166106355760405162461bcd60e51b8152602060048201526012602482015271496d706c20213d206164647265737328302960701b60448201526064016102bd565b8060658381548110610649576106496113aa565b6000918252602082206003919091020180546001600160a01b0319166001600160a01b03938416179055604080516306fdde0360e01b8152905184937f3aaa99f765c2d9bcbd284c1b88997701cb6bce9eede1b193b43fc34261ddf4e1938593918416926306fdde039260048082019392918290030181865afa1580156106d4573d6000803e3d6000fd5b505050506040513d6000823e601f3d908101601f191682016040526106fc919081019061127f565b836001600160a01b031663b3f05b976040518163ffffffff1660e01b8152600401602060405180830381865afa15801561073a573d6000803e3d6000fd5b505050506040513d601f19601f8201168201806040525081019061075e9190611349565b60405161076d939291906113c0565b60405180910390a1505050565b60655460009084106107be5760405162461bcd60e51b815260206004820152600d60248201526c4f7574206f6620626f756e647360981b60448201526064016102bd565b6000606585815481106107d3576107d36113aa565b600091825260208220600390910201546001600160a01b031691506107f782610cc9565b604051634998b7f360e01b81529091506001600160a01b03821690634998b7f39061082890889088906004016113f6565b600060405180830381600087803b15801561084257600080fd5b505af1158015610856573d6000803e3d6000fd5b509298975050505050505050565b6033546001600160a01b0316331461088e5760405162461bcd60e51b81526004016102bd90611234565b6033546040516000916001600160a01b0316907f8be0079c531659141344cd1fd0a4f28419497f9722a3daafe3b4186f6b6457e0908390a3603380546001600160a01b0319169055565b606060006065805480602002602001604051908101604052809291908181526020016000905b828210156109e5576000848152602090819020604080516060810182526003860290920180546001600160a01b0390811684526001820154169383019390935260028301805492939291840191610954906111fa565b80601f0160208091040260200160405190810160405280929190818152602001828054610980906111fa565b80156109cd5780601f106109a2576101008083540402835291602001916109cd565b820191906000526020600020905b8154815290600101906020018083116109b057829003601f168201915b505050505081525050815260200190600101906108fe565b5050505090506000815167ffffffffffffffff811115610a0757610a07611269565b604051908082528060200260200182016040528015610a3a57816020015b6060815260200190600190039081610a255790505b50905060005b8251811015610a9757828181518110610a5b57610a5b6113aa565b602002602001015160400151828281518110610a7957610a796113aa565b60200260200101819052508080610a8f90611425565b915050610a40565b5092915050565b60658181548110610aae57600080fd5b60009182526020909120600390910201805460018201546002830180546001600160a01b039384169550929091169291610ae7906111fa565b80601f0160208091040260200160405190810160405280929190818152602001828054610b13906111fa565b8015610b605780601f10610b3557610100808354040283529160200191610b60565b820191906000526020600020905b815481529060010190602001808311610b4357829003601f168201915b5050505050905083565b6033546001600160a01b03163314610b945760405162461bcd60e51b81526004016102bd90611234565b6001600160a01b038116610bf95760405162461bcd60e51b815260206004820152602660248201527f4f776e61626c653a206e6577206f776e657220697320746865207a65726f206160448201526564647265737360d01b60648201526084016102bd565b6033546040516001600160a01b038084169216907f8be0079c531659141344cd1fd0a4f28419497f9722a3daafe3b4186f6b6457e090600090a3603380546001600160a01b0319166001600160a01b0392909216919091179055565b600054610100900460ff1680610c6e575060005460ff16155b610c8a5760405162461bcd60e51b81526004016102bd9061144c565b600054610100900460ff16158015610cac576000805461ffff19166101011790555b610cb4610d66565b8015610cc6576000805461ff00191690555b50565b6000604051733d602d80600a3d3981f3363d3d373d3d3d363d7360601b81528260601b60148201526e5af43d82803e903d91602b57fd5bf360881b60288201526037816000f09150506001600160a01b038116610d615760405162461bcd60e51b8152602060048201526016602482015275115490cc4c4d8dce8818dc99585d194819985a5b195960521b60448201526064016102bd565b919050565b600054610100900460ff1680610d7f575060005460ff16155b610d9b5760405162461bcd60e51b81526004016102bd9061144c565b600054610100900460ff16158015610dbd576000805461ffff19166101011790555b610dc5610dcd565b610cb4610e37565b600054610100900460ff1680610de6575060005460ff16155b610e025760405162461bcd60e51b81526004016102bd9061144c565b600054610100900460ff16158015610cb4576000805461ffff19166101011790558015610cc6576000805461ff001916905550565b600054610100900460ff1680610e50575060005460ff16155b610e6c5760405162461bcd60e51b81526004016102bd9061144c565b600054610100900460ff16158015610e8e576000805461ffff19166101011790555b603380546001600160a01b0319163390811790915560405181906000907f8be0079c531659141344cd1fd0a4f28419497f9722a3daafe3b4186f6b6457e0908290a3508015610cc6576000805461ff001916905550565b828054610ef1906111fa565b90600052602060002090601f016020900481019282610f135760008555610f59565b82601f10610f2c57805160ff1916838001178555610f59565b82800160010185558215610f59579182015b82811115610f59578251825591602001919060010190610f3e565b50610f65929150610f69565b5090565b5b80821115610f655760008155600101610f6a565b60005b83811015610f99578181015183820152602001610f81565b83811115610fa8576000848401525b50505050565b60008151808452610fc6816020860160208601610f7e565b601f01601f19169290920160200192915050565b60006020808301818452808551808352604092508286019150828160051b87010184880160005b8381101561105757888303603f19018552815180516001600160a01b039081168552888201511688850152860151606087850181905261104381860183610fae565b968901969450505090860190600101611001565b509098975050505050505050565b6001600160a01b0381168114610cc657600080fd5b60006020828403121561108c57600080fd5b813561109781611065565b9392505050565b600080604083850312156110b157600080fd5b8235915060208301356110c381611065565b809150509250929050565b6000806000604084860312156110e357600080fd5b83359250602084013567ffffffffffffffff8082111561110257600080fd5b818601915086601f83011261111657600080fd5b81358181111561112557600080fd5b87602082850101111561113757600080fd5b6020830194508093505050509250925092565b6000602080830181845280855180835260408601915060408160051b870101925083870160005b8281101561119f57603f1988860301845261118d858351610fae565b94509285019290850190600101611171565b5092979650505050505050565b6000602082840312156111be57600080fd5b5035919050565b6001600160a01b038481168252831660208201526060604082018190526000906111f190830184610fae565b95945050505050565b600181811c9082168061120e57607f821691505b60208210810361122e57634e487b7160e01b600052602260045260246000fd5b50919050565b6020808252818101527f4f776e61626c653a2063616c6c6572206973206e6f7420746865206f776e6572604082015260600190565b634e487b7160e01b600052604160045260246000fd5b60006020828403121561129157600080fd5b815167ffffffffffffffff808211156112a957600080fd5b818401915084601f8301126112bd57600080fd5b8151818111156112cf576112cf611269565b604051601f8201601f19908116603f011681019083821181831017156112f7576112f7611269565b8160405282815287602084870101111561131057600080fd5b611321836020830160208801610f7e565b979650505050505050565b60006020828403121561133e57600080fd5b815161109781611065565b60006020828403121561135b57600080fd5b8151801515811461109757600080fd5b6001600160a01b0385811682528416602082015260806040820181905260009061139790830185610fae565b9050821515606083015295945050505050565b634e487b7160e01b600052603260045260246000fd5b6001600160a01b03841681526060602082018190526000906113e490830185610fae565b90508215156040830152949350505050565b60208152816020820152818360408301376000818301604090810191909152601f909201601f19160101919050565b60006001820161144557634e487b7160e01b600052601160045260246000fd5b5060010190565b6020808252602e908201527f496e697469616c697a61626c653a20636f6e747261637420697320616c72656160408201526d191e481a5b9a5d1a585b1a5e995960921b60608201526080019056fea2646970667358221220378045634b3b9e86a5347ebac646a415dcc2213d2b3c8882d5f7a35619c71f6b64736f6c634300080d0033",
  "linkReferences": {},
  "deployedLinkReferences": {}
}