{
  "_format": "hh-sol-artifact-1",
  "contractName": "MockVault",
  "sourceName": "contracts/solidity/testing/MockVault.sol",
  "abi": [
    {
      "inputs": [
        {
          "internalType": "address",
          "name": "_assetAddress",
          "type": "address"
        },
        {
          "internalType": "bool",
          "name": "_is1155",
          "type": "bool"
        }
      ],
      "stateMutability": "nonpayable",
      "type": "constructor"
    },
    {
      "inputs": [],
      "name": "assetAddress",
      "outputs": [
        {
          "internalType": "address",
          "name": "",
          "type": "address"
        }
      ],
      "stateMutability": "view",
      "type": "function"
    },
    {
      "inputs": [],
      "name": "is1155",
      "outputs": [
        {
          "internalType": "bool",
          "name": "",
          "type": "bool"
        }
      ],
      "stateMutability": "view",
      "type": "function"
    },
    {
      "inputs": [
        {
          "internalType": "uint256[]",
          "name": "tokenIds",
          "type": "uint256[]"
        },
        {
          "internalType": "uint256[]",
          "name": "amounts",
          "type": "uint256[]"
        },
        {
          "internalType": "address",
          "name": "to",
          "type": "address"
        }
      ],
      "name": "mintTo",
      "outputs": [
        {
          "internalType": "uint256",
          "name": "",
          "type": "uint256"
        }
      ],
      "stateMutability": "nonpayable",
      "type": "function"
    },
    {
      "inputs": [
        {
          "internalType": "address",
          "name": "",
          "type": "address"
        },
        {
          "internalType": "address",
          "name": "",
          "type": "address"
        },
        {
          "internalType": "uint256",
          "name": "",
          "type": "uint256"
        },
        {
          "internalType": "bytes",
          "name": "",
          "type": "bytes"
        }
      ],
      "name": "onERC721Received",
      "outputs": [
        {
          "internalType": "bytes4",
          "name": "",
          "type": "bytes4"
        }
      ],
      "stateMutability": "nonpayable",
      "type": "function"
    }
  ],
  "bytecode": "0x608060405234801561001057600080fd5b5060405161040738038061040783398101604081905261002f9161005f565b60008054911515600160a01b026001600160a81b03199092166001600160a01b03909316929092171790556100aa565b6000806040838503121561007257600080fd5b82516001600160a01b038116811461008957600080fd5b6020840151909250801515811461009f57600080fd5b809150509250929050565b61034e806100b96000396000f3fe608060405234801561001057600080fd5b506004361061004c5760003560e01c806306f26dc214610051578063150b7a021461007a5780631ba46cfd146100b1578063b10402ea146100dc575b600080fd5b60005461006590600160a01b900460ff1681565b60405190151581526020015b60405180910390f35b610098610088366004610164565b630a85bd0160e11b949350505050565b6040516001600160e01b03199091168152602001610071565b6000546100c4906001600160a01b031681565b6040516001600160a01b039091168152602001610071565b6100f36100ea3660046102a4565b60009392505050565b604051908152602001610071565b80356001600160a01b038116811461011857600080fd5b919050565b634e487b7160e01b600052604160045260246000fd5b604051601f8201601f1916810167ffffffffffffffff8111828210171561015c5761015c61011d565b604052919050565b6000806000806080858703121561017a57600080fd5b61018385610101565b93506020610192818701610101565b935060408601359250606086013567ffffffffffffffff808211156101b657600080fd5b818801915088601f8301126101ca57600080fd5b8135818111156101dc576101dc61011d565b6101ee601f8201601f19168501610133565b9150808252898482850101111561020457600080fd5b808484018584013760008482840101525080935050505092959194509250565b600082601f83011261023557600080fd5b8135602067ffffffffffffffff8211156102515761025161011d565b8160051b610260828201610133565b928352848101820192828101908785111561027a57600080fd5b83870192505b8483101561029957823582529183019190830190610280565b979650505050505050565b6000806000606084860312156102b957600080fd5b833567ffffffffffffffff808211156102d157600080fd5b6102dd87838801610224565b945060208601359150808211156102f357600080fd5b5061030086828701610224565b92505061030f60408501610101565b9050925092509256fea264697066735822122098d14b09b102b6d97c6b85de696fa3cdd400f81164b25168aab936733a0af48264736f6c634300080d0033",
  "linkReferences": {},
  "deployedLinkReferences": {}
}