{
  "_format": "hh-sol-artifact-1",
  "contractName": "ProxyController",
  "sourceName": "contracts/solidity/proxy/ProxyController.sol",
  "abi": [
    {
      "inputs": [
        {
          "internalType": "address",
          "name": "vaultFactory",
          "type": "address"
        },
        {
          "internalType": "address",
          "name": "eligManager",
          "type": "address"
        },
        {
          "internalType": "address",
          "name": "stakingProvider",
          "type": "address"
        },
        {
          "internalType": "address",
          "name": "staking",
          "type": "address"
        },
        {
          "internalType": "address",
          "name": "feeDistrib",
          "type": "address"
        }
      ],
      "stateMutability": "nonpayable",
      "type": "constructor"
    },
    {
      "anonymous": false,
      "inputs": [
        {
          "indexed": false,
          "internalType": "uint256",
          "name": "index",
          "type": "uint256"
        },
        {
          "indexed": false,
          "internalType": "address",
          "name": "impl",
          "type": "address"
        }
      ],
      "name": "ImplAddressSet",
      "type": "event"
    },
    {
      "anonymous": false,
      "inputs": [
        {
          "indexed": true,
          "internalType": "address",
          "name": "previousOwner",
          "type": "address"
        },
        {
          "indexed": true,
          "internalType": "address",
          "name": "newOwner",
          "type": "address"
        }
      ],
      "name": "OwnershipTransferred",
      "type": "event"
    },
    {
      "anonymous": false,
      "inputs": [
        {
          "indexed": false,
          "internalType": "uint256",
          "name": "index",
          "type": "uint256"
        },
        {
          "indexed": false,
          "internalType": "address",
          "name": "newAdmin",
          "type": "address"
        }
      ],
      "name": "ProxyAdminChanged",
      "type": "event"
    },
    {
      "inputs": [
        {
          "internalType": "address",
          "name": "newAdmin",
          "type": "address"
        }
      ],
      "name": "changeAllProxyAdmins",
      "outputs": [],
      "stateMutability": "nonpayable",
      "type": "function"
    },
    {
      "inputs": [
        {
          "internalType": "uint256",
          "name": "index",
          "type": "uint256"
        },
        {
          "internalType": "address",
          "name": "newAdmin",
          "type": "address"
        }
      ],
      "name": "changeProxyAdmin",
      "outputs": [],
      "stateMutability": "nonpayable",
      "type": "function"
    },
    {
      "inputs": [],
      "name": "eligManagerImpl",
      "outputs": [
        {
          "internalType": "address",
          "name": "",
          "type": "address"
        }
      ],
      "stateMutability": "view",
      "type": "function"
    },
    {
      "inputs": [],
      "name": "feeDistribImpl",
      "outputs": [
        {
          "internalType": "address",
          "name": "",
          "type": "address"
        }
      ],
      "stateMutability": "view",
      "type": "function"
    },
    {
      "inputs": [
        {
          "internalType": "uint256",
          "name": "index",
          "type": "uint256"
        }
      ],
      "name": "fetchImplAddress",
      "outputs": [],
      "stateMutability": "nonpayable",
      "type": "function"
    },
    {
      "inputs": [
        {
          "internalType": "uint256",
          "name": "index",
          "type": "uint256"
        }
      ],
      "name": "getAdmin",
      "outputs": [
        {
          "internalType": "address",
          "name": "admin",
          "type": "address"
        }
      ],
      "stateMutability": "view",
      "type": "function"
    },
    {
      "inputs": [],
      "name": "owner",
      "outputs": [
        {
          "internalType": "address",
          "name": "",
          "type": "address"
        }
      ],
      "stateMutability": "view",
      "type": "function"
    },
    {
      "inputs": [],
      "name": "renounceOwnership",
      "outputs": [],
      "stateMutability": "nonpayable",
      "type": "function"
    },
    {
      "inputs": [],
      "name": "stakingImpl",
      "outputs": [
        {
          "internalType": "address",
          "name": "",
          "type": "address"
        }
      ],
      "stateMutability": "view",
      "type": "function"
    },
    {
      "inputs": [],
      "name": "stakingProviderImpl",
      "outputs": [
        {
          "internalType": "address",
          "name": "",
          "type": "address"
        }
      ],
      "stateMutability": "view",
      "type": "function"
    },
    {
      "inputs": [
        {
          "internalType": "address",
          "name": "newOwner",
          "type": "address"
        }
      ],
      "name": "transferOwnership",
      "outputs": [],
      "stateMutability": "nonpayable",
      "type": "function"
    },
    {
      "inputs": [
        {
          "internalType": "uint256",
          "name": "index",
          "type": "uint256"
        },
        {
          "internalType": "address",
          "name": "newImpl",
          "type": "address"
        }
      ],
      "name": "upgradeProxyTo",
      "outputs": [],
      "stateMutability": "nonpayable",
      "type": "function"
    },
    {
      "inputs": [],
      "name": "vaultFactoryImpl",
      "outputs": [
        {
          "internalType": "address",
          "name": "",
          "type": "address"
        }
      ],
      "stateMutability": "view",
      "type": "function"
    }
  ],
  "bytecode": "0x608060405234801561001057600080fd5b50604051610f8b380380610f8b83398101604081905261002f916100ee565b600080546001600160a01b031916339081178255604051909182917f8be0079c531659141344cd1fd0a4f28419497f9722a3daafe3b4186f6b6457e0908290a350600680546001600160a01b03199081166001600160a01b03978816179091556007805482169587169590951790945560088054851693861693909317909255600980548416918516919091179055600a80549092169216919091179055610153565b80516001600160a01b03811681146100e957600080fd5b919050565b600080600080600060a0868803121561010657600080fd5b61010f866100d2565b945061011d602087016100d2565b935061012b604087016100d2565b9250610139606087016100d2565b9150610147608087016100d2565b90509295509295909350565b610e29806101626000396000f3fe608060405234801561001057600080fd5b50600436106100cf5760003560e01c8063b9d1abba1161008c578063e5e412cf11610066578063e5e412cf14610190578063ef1dcd51146101a3578063f0dce629146101b6578063f2fde38b146101c957600080fd5b8063b9d1abba14610157578063be91ae021461016a578063c003d6671461017d57600080fd5b8063111fd88b146100d4578063194376a7146101035780634acaaec914610116578063715018a61461012b5780638da5cb5b14610133578063b4113cc814610144575b600080fd5b6100e76100e2366004610cff565b6101dc565b6040516001600160a01b03909116815260200160405180910390f35b6002546100e7906001600160a01b031681565b610129610124366004610d2d565b6103d4565b005b610129610574565b6000546001600160a01b03166100e7565b6004546100e7906001600160a01b031681565b6003546100e7906001600160a01b031681565b610129610178366004610d5d565b6105e8565b61012961018b366004610cff565b61064c565b6005546100e7906001600160a01b031681565b6101296101b1366004610d2d565b610a23565b6001546100e7906001600160a01b031681565b6101296101d7366004610d5d565b610c15565b60008160000361026357600660009054906101000a90046001600160a01b03166001600160a01b031663f851a4406040518163ffffffff1660e01b8152600401602060405180830381865afa158015610239573d6000803e3d6000fd5b505050506040513d601f19601f8201168201806040525081019061025d9190610d81565b92915050565b816001036102be57600760009054906101000a90046001600160a01b03166001600160a01b031663f851a4406040518163ffffffff1660e01b8152600401602060405180830381865afa158015610239573d6000803e3d6000fd5b8160020361031957600860009054906101000a90046001600160a01b03166001600160a01b031663f851a4406040518163ffffffff1660e01b8152600401602060405180830381865afa158015610239573d6000803e3d6000fd5b8160030361037457600960009054906101000a90046001600160a01b03166001600160a01b031663f851a4406040518163ffffffff1660e01b8152600401602060405180830381865afa158015610239573d6000803e3d6000fd5b816004036103cf57600a60009054906101000a90046001600160a01b03166001600160a01b031663f851a4406040518163ffffffff1660e01b8152600401602060405180830381865afa158015610239573d6000803e3d6000fd5b919050565b6000546001600160a01b031633146104075760405162461bcd60e51b81526004016103fe90610d9e565b60405180910390fd5b8160000361047357600654604051631b2ce7f360e11b81526001600160a01b03838116600483015290911690633659cfe6906024015b600060405180830381600087803b15801561045757600080fd5b505af115801561046b573d6000803e3d6000fd5b505050505050565b816001036104ad57600754604051631b2ce7f360e11b81526001600160a01b03838116600483015290911690633659cfe69060240161043d565b816002036104e757600854604051631b2ce7f360e11b81526001600160a01b03838116600483015290911690633659cfe69060240161043d565b8160030361052157600954604051631b2ce7f360e11b81526001600160a01b03838116600483015290911690633659cfe69060240161043d565b8160040361057057600a54604051631b2ce7f360e11b81526001600160a01b03838116600483015290911690633659cfe690602401600060405180830381600087803b15801561045757600080fd5b5050565b6000546001600160a01b0316331461059e5760405162461bcd60e51b81526004016103fe90610d9e565b600080546040516001600160a01b03909116907f8be0079c531659141344cd1fd0a4f28419497f9722a3daafe3b4186f6b6457e0908390a3600080546001600160a01b0319169055565b6000546001600160a01b031633146106125760405162461bcd60e51b81526004016103fe90610d9e565b61061d600082610a23565b610628600182610a23565b610633600282610a23565b61063e600382610a23565b610649600482610a23565b50565b8060000361071757600660009054906101000a90046001600160a01b03166001600160a01b0316635c60da1b6040518163ffffffff1660e01b8152600401602060405180830381865afa1580156106a7573d6000803e3d6000fd5b505050506040513d601f19601f820116820180604052508101906106cb9190610d81565b600180546001600160a01b0319166001600160a01b0392909216918217905560408051600081526020810192909252600080516020610dd483398151915291015b60405180910390a150565b806001036107da57600760009054906101000a90046001600160a01b03166001600160a01b0316635c60da1b6040518163ffffffff1660e01b8152600401602060405180830381865afa158015610772573d6000803e3d6000fd5b505050506040513d601f19601f820116820180604052508101906107969190610d81565b600280546001600160a01b0319166001600160a01b03929092169182179055604080518381526020810192909252600080516020610dd4833981519152910161070c565b8060020361089d57600860009054906101000a90046001600160a01b03166001600160a01b0316635c60da1b6040518163ffffffff1660e01b8152600401602060405180830381865afa158015610835573d6000803e3d6000fd5b505050506040513d601f19601f820116820180604052508101906108599190610d81565b600380546001600160a01b0319166001600160a01b03929092169182179055604080518381526020810192909252600080516020610dd4833981519152910161070c565b8060030361096057600960009054906101000a90046001600160a01b03166001600160a01b0316635c60da1b6040518163ffffffff1660e01b8152600401602060405180830381865afa1580156108f8573d6000803e3d6000fd5b505050506040513d601f19601f8201168201806040525081019061091c9190610d81565b600480546001600160a01b0319166001600160a01b03929092169182179055604080518381526020810192909252600080516020610dd4833981519152910161070c565b8060040361064957600a60009054906101000a90046001600160a01b03166001600160a01b0316635c60da1b6040518163ffffffff1660e01b8152600401602060405180830381865afa1580156109bb573d6000803e3d6000fd5b505050506040513d601f19601f820116820180604052508101906109df9190610d81565b600580546001600160a01b0319166001600160a01b03929092169182179055604080518381526020810192909252600080516020610dd4833981519152910161070c565b6000546001600160a01b03163314610a4d5760405162461bcd60e51b81526004016103fe90610d9e565b81600003610aba576006546040516308f2839760e41b81526001600160a01b03838116600483015290911690638f283970906024015b600060405180830381600087803b158015610a9d57600080fd5b505af1158015610ab1573d6000803e3d6000fd5b50505050610bd0565b81600103610af4576007546040516308f2839760e41b81526001600160a01b03838116600483015290911690638f28397090602401610a83565b81600203610b2e576008546040516308f2839760e41b81526001600160a01b03838116600483015290911690638f28397090602401610a83565b81600303610b68576009546040516308f2839760e41b81526001600160a01b03838116600483015290911690638f28397090602401610a83565b81600403610bd057600a546040516308f2839760e41b81526001600160a01b03838116600483015290911690638f28397090602401600060405180830381600087803b158015610bb757600080fd5b505af1158015610bcb573d6000803e3d6000fd5b505050505b604080518381526001600160a01b03831660208201527fdd46f7a110d29e571d4200939ad89fe6fd13f4bbdb521c01f8a8cef93ec2dd8d910160405180910390a15050565b6000546001600160a01b03163314610c3f5760405162461bcd60e51b81526004016103fe90610d9e565b6001600160a01b038116610ca45760405162461bcd60e51b815260206004820152602660248201527f4f776e61626c653a206e6577206f776e657220697320746865207a65726f206160448201526564647265737360d01b60648201526084016103fe565b600080546040516001600160a01b03808516939216917f8be0079c531659141344cd1fd0a4f28419497f9722a3daafe3b4186f6b6457e091a3600080546001600160a01b0319166001600160a01b0392909216919091179055565b600060208284031215610d1157600080fd5b5035919050565b6001600160a01b038116811461064957600080fd5b60008060408385031215610d4057600080fd5b823591506020830135610d5281610d18565b809150509250929050565b600060208284031215610d6f57600080fd5b8135610d7a81610d18565b9392505050565b600060208284031215610d9357600080fd5b8151610d7a81610d18565b6020808252818101527f4f776e61626c653a2063616c6c6572206973206e6f7420746865206f776e657260408201526060019056fe7de8ab8b77228d35af67c8e9749f12679e02c3aeda9375749a9c354dd0066b65a2646970667358221220a9e8d24c2e1e7cdd4e441512cf2a81d832a7e6f654fb00dc630320efdf80adcd64736f6c634300080d0033",
  "linkReferences": {},
  "deployedLinkReferences": {}
}