{
  "_format": "hh-sol-artifact-1",
  "contractName": "NFTXEligibilityManager2",
  "sourceName": "contracts/solidity/testing/NFTXEligibilityManager2.sol",
  "abi": [
    {
      "anonymous": false,
      "inputs": [
        {
          "indexed": false,
          "internalType": "address",
          "name": "implementation",
          "type": "address"
        },
        {
          "indexed": false,
          "internalType": "address",
          "name": "targetAsset",
          "type": "address"
        },
        {
          "indexed": false,
          "internalType": "string",
          "name": "name",
          "type": "string"
        },
        {
          "indexed": false,
          "internalType": "bool",
          "name": "finalizedOnDeploy",
          "type": "bool"
        }
      ],
      "name": "ModuleAdded",
      "type": "event"
    },
    {
      "anonymous": false,
      "inputs": [
        {
          "indexed": false,
          "internalType": "address",
          "name": "implementation",
          "type": "address"
        },
        {
          "indexed": false,
          "internalType": "string",
          "name": "name",
          "type": "string"
        },
        {
          "indexed": false,
          "internalType": "bool",
          "name": "finalizedOnDeploy",
          "type": "bool"
        }
      ],
      "name": "ModuleUpdated",
      "type": "event"
    },
    {
      "anonymous": false,
      "inputs": [
        {
          "indexed": true,
          "internalType": "address",
          "name": "previousOwner",
          "type": "address"
        },
        {
          "indexed": true,
          "internalType": "address",
          "name": "newOwner",
          "type": "address"
        }
      ],
      "name": "OwnershipTransferred",
      "type": "event"
    },
    {
      "inputs": [],
      "name": "__NFTXEligibilityManager_init",
      "outputs": [],
      "stateMutability": "nonpayable",
      "type": "function"
    },
    {
      "inputs": [
        {
          "internalType": "address",
          "name": "implementation",
          "type": "address"
        }
      ],
      "name": "addModule",
      "outputs": [],
      "stateMutability": "nonpayable",
      "type": "function"
    },
    {
      "inputs": [],
      "name": "allModuleNames",
      "outputs": [
        {
          "internalType": "string[]",
          "name": "",
          "type": "string[]"
        }
      ],
      "stateMutability": "view",
      "type": "function"
    },
    {
      "inputs": [],
      "name": "allModules",
      "outputs": [
        {
          "components": [
            {
              "internalType": "address",
              "name": "implementation",
              "type": "address"
            },
            {
              "internalType": "address",
              "name": "targetAsset",
              "type": "address"
            },
            {
              "internalType": "string",
              "name": "name",
              "type": "string"
            }
          ],
          "internalType": "struct NFTXEligibilityManager.EligibilityModule[]",
          "name": "",
          "type": "tuple[]"
        }
      ],
      "stateMutability": "view",
      "type": "function"
    },
    {
      "inputs": [
        {
          "internalType": "uint256",
          "name": "moduleIndex",
          "type": "uint256"
        },
        {
          "internalType": "bytes",
          "name": "configData",
          "type": "bytes"
        }
      ],
      "name": "deployEligibility",
      "outputs": [
        {
          "internalType": "address",
          "name": "",
          "type": "address"
        }
      ],
      "stateMutability": "nonpayable",
      "type": "function"
    },
    {
      "inputs": [
        {
          "internalType": "uint256",
          "name": "",
          "type": "uint256"
        }
      ],
      "name": "modules",
      "outputs": [
        {
          "internalType": "address",
          "name": "implementation",
          "type": "address"
        },
        {
          "internalType": "address",
          "name": "targetAsset",
          "type": "address"
        },
        {
          "internalType": "string",
          "name": "name",
          "type": "string"
        }
      ],
      "stateMutability": "view",
      "type": "function"
    },
    {
      "inputs": [],
      "name": "owner",
      "outputs": [
        {
          "internalType": "address",
          "name": "",
          "type": "address"
        }
      ],
      "stateMutability": "view",
      "type": "function"
    },
    {
      "inputs": [],
      "name": "renounceOwnership",
      "outputs": [],
      "stateMutability": "nonpayable",
      "type": "function"
    },
    {
      "inputs": [
        {
          "internalType": "uint256",
          "name": "a",
          "type": "uint256"
        },
        {
          "internalType": "uint256",
          "name": "b",
          "type": "uint256"
        }
      ],
      "name": "sum",
      "outputs": [
        {
          "internalType": "uint256",
          "name": "",
          "type": "uint256"
        }
      ],
      "stateMutability": "pure",
      "type": "function"
    },
    {
      "inputs": [
        {
          "internalType": "address",
          "name": "newOwner",
          "type": "address"
        }
      ],
      "name": "transferOwnership",
      "outputs": [],
      "stateMutability": "nonpayable",
      "type": "function"
    },
    {
      "inputs": [
        {
          "internalType": "uint256",
          "name": "moduleIndex",
          "type": "uint256"
        },
        {
          "internalType": "address",
          "name": "implementation",
          "type": "address"
        }
      ],
      "name": "updateModule",
      "outputs": [],
      "stateMutability": "nonpayable",
      "type": "function"
    }
  ],
  "bytecode": "0x608060405234801561001057600080fd5b5061154a806100206000396000f3fe608060405234801561001057600080fd5b50600436106100a95760003560e01c8063786049ec11610071578063786049ec1461012757806381b2248a1461013c5780638da5cb5b1461015e578063cad0899b1461016f578063f2fde38b14610190578063f72597cf146101a357600080fd5b8063164f49ae146100ae5780631ed86f19146100cc57806323b6c2eb146100e1578063576ff908146100f4578063715018a61461011f575b600080fd5b6100b66101ab565b6040516100c39190611019565b60405180910390f35b6100df6100da3660046110b9565b6102bf565b005b6100df6100ef3660046110d6565b6105ab565b610107610102366004611106565b6107a6565b6040516001600160a01b0390911681526020016100c3565b6100df610890565b61012f610904565b6040516100c39190611182565b61014f61014a3660046111e4565b610aca565b6040516100c3939291906111fd565b6033546001600160a01b0316610107565b61018261017d366004611232565b610b96565b6040519081526020016100c3565b6100df61019e3660046110b9565b610ba9565b6100df610c94565b60606065805480602002602001604051908101604052809291908181526020016000905b828210156102b6576000848152602090819020604080516060810182526003860290920180546001600160a01b039081168452600182015416938301939093526002830180549293929184019161022590611254565b80601f016020809104026020016040519081016040528092919081815260200182805461025190611254565b801561029e5780601f106102735761010080835404028352916020019161029e565b820191906000526020600020905b81548152906001019060200180831161028157829003601f168201915b505050505081525050815260200190600101906101cf565b50505050905090565b6033546001600160a01b031633146102f25760405162461bcd60e51b81526004016102e99061128e565b60405180910390fd5b6001600160a01b03811661033d5760405162461bcd60e51b8152602060048201526012602482015271496d706c20213d206164647265737328302960701b60448201526064016102e9565b60008190506000816001600160a01b03166306fdde036040518163ffffffff1660e01b8152600401600060405180830381865afa158015610382573d6000803e3d6000fd5b505050506040513d6000823e601f3d908101601f191682016040526103aa91908101906112d9565b905060006040518060600160405280856001600160a01b03168152602001846001600160a01b0316633d4403ac6040518163ffffffff1660e01b8152600401602060405180830381865afa158015610406573d6000803e3d6000fd5b505050506040513d601f19601f8201168201806040525081019061042a9190611386565b6001600160a01b039081168252602091820185905260658054600181018255600091909152835160039091027f8ff97419363ffd7000167f130ef7168fbea05faf9251824ca5043f113cc6a7c7810180549284166001600160a01b0319938416178155858501517f8ff97419363ffd7000167f130ef7168fbea05faf9251824ca5043f113cc6a7c883018054919095169316929092179092556040840151805194955085949193610500937f8ff97419363ffd7000167f130ef7168fbea05faf9251824ca5043f113cc6a7c90192910190610f24565b5050507f526a1ef569cd9da0f740679693eef4f6062880ef98c0fcf77a896418a42ac75d84826020015184866001600160a01b031663b3f05b976040518163ffffffff1660e01b8152600401602060405180830381865afa158015610569573d6000803e3d6000fd5b505050506040513d601f19601f8201168201806040525081019061058d91906113a3565b60405161059d94939291906113c5565b60405180910390a150505050565b6033546001600160a01b031633146105d55760405162461bcd60e51b81526004016102e99061128e565b60655482106106165760405162461bcd60e51b815260206004820152600d60248201526c4f7574206f6620626f756e647360981b60448201526064016102e9565b6001600160a01b0381166106615760405162461bcd60e51b8152602060048201526012602482015271496d706c20213d206164647265737328302960701b60448201526064016102e9565b806065838154811061067557610675611404565b6000918252602082206003919091020180546001600160a01b0319166001600160a01b03938416179055604080516306fdde0360e01b8152905184937f3aaa99f765c2d9bcbd284c1b88997701cb6bce9eede1b193b43fc34261ddf4e1938593918416926306fdde039260048082019392918290030181865afa158015610700573d6000803e3d6000fd5b505050506040513d6000823e601f3d908101601f1916820160405261072891908101906112d9565b836001600160a01b031663b3f05b976040518163ffffffff1660e01b8152600401602060405180830381865afa158015610766573d6000803e3d6000fd5b505050506040513d601f19601f8201168201806040525081019061078a91906113a3565b6040516107999392919061141a565b60405180910390a1505050565b60655460009084106107ea5760405162461bcd60e51b815260206004820152600d60248201526c4f7574206f6620626f756e647360981b60448201526064016102e9565b6000606585815481106107ff576107ff611404565b600091825260208220600390910201546001600160a01b0316915061082382610d08565b604051634998b7f360e01b81529091506001600160a01b03821690634998b7f3906108549088908890600401611450565b600060405180830381600087803b15801561086e57600080fd5b505af1158015610882573d6000803e3d6000fd5b509298975050505050505050565b6033546001600160a01b031633146108ba5760405162461bcd60e51b81526004016102e99061128e565b6033546040516000916001600160a01b0316907f8be0079c531659141344cd1fd0a4f28419497f9722a3daafe3b4186f6b6457e0908390a3603380546001600160a01b0319169055565b606060006065805480602002602001604051908101604052809291908181526020016000905b82821015610a11576000848152602090819020604080516060810182526003860290920180546001600160a01b039081168452600182015416938301939093526002830180549293929184019161098090611254565b80601f01602080910402602001604051908101604052809291908181526020018280546109ac90611254565b80156109f95780601f106109ce576101008083540402835291602001916109f9565b820191906000526020600020905b8154815290600101906020018083116109dc57829003601f168201915b5050505050815250508152602001906001019061092a565b5050505090506000815167ffffffffffffffff811115610a3357610a336112c3565b604051908082528060200260200182016040528015610a6657816020015b6060815260200190600190039081610a515790505b50905060005b8251811015610ac357828181518110610a8757610a87611404565b602002602001015160400151828281518110610aa557610aa5611404565b60200260200101819052508080610abb90611495565b915050610a6c565b5092915050565b60658181548110610ada57600080fd5b60009182526020909120600390910201805460018201546002830180546001600160a01b039384169550929091169291610b1390611254565b80601f0160208091040260200160405190810160405280929190818152602001828054610b3f90611254565b8015610b8c5780601f10610b6157610100808354040283529160200191610b8c565b820191906000526020600020905b815481529060010190602001808311610b6f57829003601f168201915b5050505050905083565b6000610ba282846114ae565b9392505050565b6033546001600160a01b03163314610bd35760405162461bcd60e51b81526004016102e99061128e565b6001600160a01b038116610c385760405162461bcd60e51b815260206004820152602660248201527f4f776e61626c653a206e6577206f776e657220697320746865207a65726f206160448201526564647265737360d01b60648201526084016102e9565b6033546040516001600160a01b038084169216907f8be0079c531659141344cd1fd0a4f28419497f9722a3daafe3b4186f6b6457e090600090a3603380546001600160a01b0319166001600160a01b0392909216919091179055565b600054610100900460ff1680610cad575060005460ff16155b610cc95760405162461bcd60e51b81526004016102e9906114c6565b600054610100900460ff16158015610ceb576000805461ffff19166101011790555b610cf3610da5565b8015610d05576000805461ff00191690555b50565b6000604051733d602d80600a3d3981f3363d3d373d3d3d363d7360601b81528260601b60148201526e5af43d82803e903d91602b57fd5bf360881b60288201526037816000f09150506001600160a01b038116610da05760405162461bcd60e51b8152602060048201526016602482015275115490cc4c4d8dce8818dc99585d194819985a5b195960521b60448201526064016102e9565b919050565b600054610100900460ff1680610dbe575060005460ff16155b610dda5760405162461bcd60e51b81526004016102e9906114c6565b600054610100900460ff16158015610dfc576000805461ffff19166101011790555b610e04610e0c565b610cf3610e76565b600054610100900460ff1680610e25575060005460ff16155b610e415760405162461bcd60e51b81526004016102e9906114c6565b600054610100900460ff16158015610cf3576000805461ffff19166101011790558015610d05576000805461ff001916905550565b600054610100900460ff1680610e8f575060005460ff16155b610eab5760405162461bcd60e51b81526004016102e9906114c6565b600054610100900460ff16158015610ecd576000805461ffff19166101011790555b603380546001600160a01b0319163390811790915560405181906000907f8be0079c531659141344cd1fd0a4f28419497f9722a3daafe3b4186f6b6457e0908290a3508015610d05576000805461ff001916905550565b828054610f3090611254565b90600052602060002090601f016020900481019282610f525760008555610f98565b82601f10610f6b57805160ff1916838001178555610f98565b82800160010185558215610f98579182015b82811115610f98578251825591602001919060010190610f7d565b50610fa4929150610fa8565b5090565b5b80821115610fa45760008155600101610fa9565b60005b83811015610fd8578181015183820152602001610fc0565b83811115610fe7576000848401525b50505050565b60008151808452611005816020860160208601610fbd565b601f01601f19169290920160200192915050565b60006020808301818452808551808352604092508286019150828160051b87010184880160005b8381101561109657888303603f19018552815180516001600160a01b039081168552888201511688850152860151606087850181905261108281860183610fed565b968901969450505090860190600101611040565b509098975050505050505050565b6001600160a01b0381168114610d0557600080fd5b6000602082840312156110cb57600080fd5b8135610ba2816110a4565b600080604083850312156110e957600080fd5b8235915060208301356110fb816110a4565b809150509250929050565b60008060006040848603121561111b57600080fd5b83359250602084013567ffffffffffffffff8082111561113a57600080fd5b818601915086601f83011261114e57600080fd5b81358181111561115d57600080fd5b87602082850101111561116f57600080fd5b6020830194508093505050509250925092565b6000602080830181845280855180835260408601915060408160051b870101925083870160005b828110156111d757603f198886030184526111c5858351610fed565b945092850192908501906001016111a9565b5092979650505050505050565b6000602082840312156111f657600080fd5b5035919050565b6001600160a01b0384811682528316602082015260606040820181905260009061122990830184610fed565b95945050505050565b6000806040838503121561124557600080fd5b50508035926020909101359150565b600181811c9082168061126857607f821691505b60208210810361128857634e487b7160e01b600052602260045260246000fd5b50919050565b6020808252818101527f4f776e61626c653a2063616c6c6572206973206e6f7420746865206f776e6572604082015260600190565b634e487b7160e01b600052604160045260246000fd5b6000602082840312156112eb57600080fd5b815167ffffffffffffffff8082111561130357600080fd5b818401915084601f83011261131757600080fd5b815181811115611329576113296112c3565b604051601f8201601f19908116603f01168101908382118183101715611351576113516112c3565b8160405282815287602084870101111561136a57600080fd5b61137b836020830160208801610fbd565b979650505050505050565b60006020828403121561139857600080fd5b8151610ba2816110a4565b6000602082840312156113b557600080fd5b81518015158114610ba257600080fd5b6001600160a01b038581168252841660208201526080604082018190526000906113f190830185610fed565b9050821515606083015295945050505050565b634e487b7160e01b600052603260045260246000fd5b6001600160a01b038416815260606020820181905260009061143e90830185610fed565b90508215156040830152949350505050565b60208152816020820152818360408301376000818301604090810191909152601f909201601f19160101919050565b634e487b7160e01b600052601160045260246000fd5b6000600182016114a7576114a761147f565b5060010190565b600082198211156114c1576114c161147f565b500190565b6020808252602e908201527f496e697469616c697a61626c653a20636f6e747261637420697320616c72656160408201526d191e481a5b9a5d1a585b1a5e995960921b60608201526080019056fea264697066735822122017f7bdba7bf810e14dd9e8e1fc26be3a4893c307964a46f6ffb650edec1d56b264736f6c634300080d0033",
  "linkReferences": {},
  "deployedLinkReferences": {}
}