{
  "_format": "hh-sol-artifact-1",
  "contractName": "CryptoPunksMarket",
  "sourceName": "contracts/solidity/testing/CryptoPunks.sol",
  "abi": [
    {
      "inputs": [],
      "stateMutability": "payable",
      "type": "constructor"
    },
    {
      "anonymous": false,
      "inputs": [
        {
          "indexed": true,
          "internalType": "address",
          "name": "to",
          "type": "address"
        },
        {
          "indexed": false,
          "internalType": "uint256",
          "name": "punkIndex",
          "type": "uint256"
        }
      ],
      "name": "Assign",
      "type": "event"
    },
    {
      "anonymous": false,
      "inputs": [
        {
          "indexed": true,
          "internalType": "uint256",
          "name": "punkIndex",
          "type": "uint256"
        },
        {
          "indexed": false,
          "internalType": "uint256",
          "name": "value",
          "type": "uint256"
        },
        {
          "indexed": true,
          "internalType": "address",
          "name": "fromAddress",
          "type": "address"
        }
      ],
      "name": "PunkBidEntered",
      "type": "event"
    },
    {
      "anonymous": false,
      "inputs": [
        {
          "indexed": true,
          "internalType": "uint256",
          "name": "punkIndex",
          "type": "uint256"
        },
        {
          "indexed": false,
          "internalType": "uint256",
          "name": "value",
          "type": "uint256"
        },
        {
          "indexed": true,
          "internalType": "address",
          "name": "fromAddress",
          "type": "address"
        }
      ],
      "name": "PunkBidWithdrawn",
      "type": "event"
    },
    {
      "anonymous": false,
      "inputs": [
        {
          "indexed": true,
          "internalType": "uint256",
          "name": "punkIndex",
          "type": "uint256"
        },
        {
          "indexed": false,
          "internalType": "uint256",
          "name": "value",
          "type": "uint256"
        },
        {
          "indexed": true,
          "internalType": "address",
          "name": "fromAddress",
          "type": "address"
        },
        {
          "indexed": true,
          "internalType": "address",
          "name": "toAddress",
          "type": "address"
        }
      ],
      "name": "PunkBought",
      "type": "event"
    },
    {
      "anonymous": false,
      "inputs": [
        {
          "indexed": true,
          "internalType": "uint256",
          "name": "punkIndex",
          "type": "uint256"
        }
      ],
      "name": "PunkNoLongerForSale",
      "type": "event"
    },
    {
      "anonymous": false,
      "inputs": [
        {
          "indexed": true,
          "internalType": "uint256",
          "name": "punkIndex",
          "type": "uint256"
        },
        {
          "indexed": false,
          "internalType": "uint256",
          "name": "minValue",
          "type": "uint256"
        },
        {
          "indexed": true,
          "internalType": "address",
          "name": "toAddress",
          "type": "address"
        }
      ],
      "name": "PunkOffered",
      "type": "event"
    },
    {
      "anonymous": false,
      "inputs": [
        {
          "indexed": true,
          "internalType": "address",
          "name": "from",
          "type": "address"
        },
        {
          "indexed": true,
          "internalType": "address",
          "name": "to",
          "type": "address"
        },
        {
          "indexed": false,
          "internalType": "uint256",
          "name": "punkIndex",
          "type": "uint256"
        }
      ],
      "name": "PunkTransfer",
      "type": "event"
    },
    {
      "anonymous": false,
      "inputs": [
        {
          "indexed": true,
          "internalType": "address",
          "name": "from",
          "type": "address"
        },
        {
          "indexed": true,
          "internalType": "address",
          "name": "to",
          "type": "address"
        },
        {
          "indexed": false,
          "internalType": "uint256",
          "name": "value",
          "type": "uint256"
        }
      ],
      "name": "Transfer",
      "type": "event"
    },
    {
      "inputs": [
        {
          "internalType": "uint256",
          "name": "punkIndex",
          "type": "uint256"
        },
        {
          "internalType": "uint256",
          "name": "minPrice",
          "type": "uint256"
        }
      ],
      "name": "acceptBidForPunk",
      "outputs": [],
      "stateMutability": "nonpayable",
      "type": "function"
    },
    {
      "inputs": [],
      "name": "allInitialOwnersAssigned",
      "outputs": [],
      "stateMutability": "nonpayable",
      "type": "function"
    },
    {
      "inputs": [],
      "name": "allPunksAssigned",
      "outputs": [
        {
          "internalType": "bool",
          "name": "",
          "type": "bool"
        }
      ],
      "stateMutability": "view",
      "type": "function"
    },
    {
      "inputs": [
        {
          "internalType": "address",
          "name": "",
          "type": "address"
        }
      ],
      "name": "balanceOf",
      "outputs": [
        {
          "internalType": "uint256",
          "name": "",
          "type": "uint256"
        }
      ],
      "stateMutability": "view",
      "type": "function"
    },
    {
      "inputs": [
        {
          "internalType": "uint256",
          "name": "punkIndex",
          "type": "uint256"
        }
      ],
      "name": "buyPunk",
      "outputs": [],
      "stateMutability": "payable",
      "type": "function"
    },
    {
      "inputs": [],
      "name": "decimals",
      "outputs": [
        {
          "internalType": "uint8",
          "name": "",
          "type": "uint8"
        }
      ],
      "stateMutability": "view",
      "type": "function"
    },
    {
      "inputs": [
        {
          "internalType": "uint256",
          "name": "punkIndex",
          "type": "uint256"
        }
      ],
      "name": "enterBidForPunk",
      "outputs": [],
      "stateMutability": "payable",
      "type": "function"
    },
    {
      "inputs": [
        {
          "internalType": "uint256",
          "name": "punkIndex",
          "type": "uint256"
        }
      ],
      "name": "getPunk",
      "outputs": [],
      "stateMutability": "nonpayable",
      "type": "function"
    },
    {
      "inputs": [],
      "name": "imageHash",
      "outputs": [
        {
          "internalType": "string",
          "name": "",
          "type": "string"
        }
      ],
      "stateMutability": "view",
      "type": "function"
    },
    {
      "inputs": [],
      "name": "name",
      "outputs": [
        {
          "internalType": "string",
          "name": "",
          "type": "string"
        }
      ],
      "stateMutability": "view",
      "type": "function"
    },
    {
      "inputs": [],
      "name": "nextPunkIndexToAssign",
      "outputs": [
        {
          "internalType": "uint256",
          "name": "",
          "type": "uint256"
        }
      ],
      "stateMutability": "view",
      "type": "function"
    },
    {
      "inputs": [
        {
          "internalType": "uint256",
          "name": "punkIndex",
          "type": "uint256"
        },
        {
          "internalType": "uint256",
          "name": "minSalePriceInWei",
          "type": "uint256"
        }
      ],
      "name": "offerPunkForSale",
      "outputs": [],
      "stateMutability": "nonpayable",
      "type": "function"
    },
    {
      "inputs": [
        {
          "internalType": "uint256",
          "name": "punkIndex",
          "type": "uint256"
        },
        {
          "internalType": "uint256",
          "name": "minSalePriceInWei",
          "type": "uint256"
        },
        {
          "internalType": "address",
          "name": "toAddress",
          "type": "address"
        }
      ],
      "name": "offerPunkForSaleToAddress",
      "outputs": [],
      "stateMutability": "nonpayable",
      "type": "function"
    },
    {
      "inputs": [
        {
          "internalType": "address",
          "name": "",
          "type": "address"
        }
      ],
      "name": "pendingWithdrawals",
      "outputs": [
        {
          "internalType": "uint256",
          "name": "",
          "type": "uint256"
        }
      ],
      "stateMutability": "view",
      "type": "function"
    },
    {
      "inputs": [
        {
          "internalType": "uint256",
          "name": "",
          "type": "uint256"
        }
      ],
      "name": "punkBids",
      "outputs": [
        {
          "internalType": "bool",
          "name": "hasBid",
          "type": "bool"
        },
        {
          "internalType": "uint256",
          "name": "punkIndex",
          "type": "uint256"
        },
        {
          "internalType": "address",
          "name": "bidder",
          "type": "address"
        },
        {
          "internalType": "uint256",
          "name": "value",
          "type": "uint256"
        }
      ],
      "stateMutability": "view",
      "type": "function"
    },
    {
      "inputs": [
        {
          "internalType": "uint256",
          "name": "",
          "type": "uint256"
        }
      ],
      "name": "punkIndexToAddress",
      "outputs": [
        {
          "internalType": "address",
          "name": "",
          "type": "address"
        }
      ],
      "stateMutability": "view",
      "type": "function"
    },
    {
      "inputs": [
        {
          "internalType": "uint256",
          "name": "punkIndex",
          "type": "uint256"
        }
      ],
      "name": "punkNoLongerForSale",
      "outputs": [],
      "stateMutability": "nonpayable",
      "type": "function"
    },
    {
      "inputs": [
        {
          "internalType": "uint256",
          "name": "",
          "type": "uint256"
        }
      ],
      "name": "punksOfferedForSale",
      "outputs": [
        {
          "internalType": "bool",
          "name": "isForSale",
          "type": "bool"
        },
        {
          "internalType": "uint256",
          "name": "punkIndex",
          "type": "uint256"
        },
        {
          "internalType": "address",
          "name": "seller",
          "type": "address"
        },
        {
          "internalType": "uint256",
          "name": "minValue",
          "type": "uint256"
        },
        {
          "internalType": "address",
          "name": "onlySellTo",
          "type": "address"
        }
      ],
      "stateMutability": "view",
      "type": "function"
    },
    {
      "inputs": [],
      "name": "punksRemainingToAssign",
      "outputs": [
        {
          "internalType": "uint256",
          "name": "",
          "type": "uint256"
        }
      ],
      "stateMutability": "view",
      "type": "function"
    },
    {
      "inputs": [
        {
          "internalType": "address",
          "name": "to",
          "type": "address"
        },
        {
          "internalType": "uint256",
          "name": "punkIndex",
          "type": "uint256"
        }
      ],
      "name": "setInitialOwner",
      "outputs": [],
      "stateMutability": "nonpayable",
      "type": "function"
    },
    {
      "inputs": [
        {
          "internalType": "address[]",
          "name": "addresses",
          "type": "address[]"
        },
        {
          "internalType": "uint256[]",
          "name": "indices",
          "type": "uint256[]"
        }
      ],
      "name": "setInitialOwners",
      "outputs": [],
      "stateMutability": "nonpayable",
      "type": "function"
    },
    {
      "inputs": [],
      "name": "standard",
      "outputs": [
        {
          "internalType": "string",
          "name": "",
          "type": "string"
        }
      ],
      "stateMutability": "view",
      "type": "function"
    },
    {
      "inputs": [],
      "name": "symbol",
      "outputs": [
        {
          "internalType": "string",
          "name": "",
          "type": "string"
        }
      ],
      "stateMutability": "view",
      "type": "function"
    },
    {
      "inputs": [],
      "name": "totalSupply",
      "outputs": [
        {
          "internalType": "uint256",
          "name": "",
          "type": "uint256"
        }
      ],
      "stateMutability": "view",
      "type": "function"
    },
    {
      "inputs": [
        {
          "internalType": "address",
          "name": "to",
          "type": "address"
        },
        {
          "internalType": "uint256",
          "name": "punkIndex",
          "type": "uint256"
        }
      ],
      "name": "transferPunk",
      "outputs": [],
      "stateMutability": "nonpayable",
      "type": "function"
    },
    {
      "inputs": [],
      "name": "withdraw",
      "outputs": [],
      "stateMutability": "nonpayable",
      "type": "function"
    },
    {
      "inputs": [
        {
          "internalType": "uint256",
          "name": "punkIndex",
          "type": "uint256"
        }
      ],
      "name": "withdrawBidForPunk",
      "outputs": [],
      "stateMutability": "nonpayable",
      "type": "function"
    }
  ],
  "bytecode": "0x60e0604090815260808181529062001e9b60a03980516200002991600091602090910190620000fe565b5060408051808201909152600b8082526a43727970746f50756e6b7360a81b60209092019182526200005e91600291620000fe565b5060006007556008805460ff19169055600180546001600160a01b031916331790556005600681905560095560408051808201909152600b8082526a43525950544f50554e4b5360a81b6020909201918252620000be91600391620000fe565b506040805180820190915260058082526450554e4b5360d81b6020909201918252620000ed91600491620000fe565b506005805460ff19169055620001e0565b8280546200010c90620001a4565b90600052602060002090601f0160209004810192826200013057600085556200017b565b82601f106200014b57805160ff19168380011785556200017b565b828001600101855582156200017b579182015b828111156200017b5782518255916020019190600101906200015e565b50620001899291506200018d565b5090565b5b808211156200018957600081556001016200018e565b600181811c90821680620001b957607f821691505b602082108103620001da57634e487b7160e01b600052602260045260246000fd5b50919050565b611cab80620001f06000396000f3fe60806040526004361061019c5760003560e01c806370a08231116100ec578063a75a90491161008a578063c44193c311610064578063c44193c314610550578063c81d1d5b14610570578063f3f4370314610590578063f6eeff1e146105bd57600080fd5b8063a75a9049146104fa578063bf31196f1461051a578063c0d6ce631461053a57600080fd5b80638264fe98116100c65780638264fe98146104925780638b72a2ec146104a557806395d89b41146104c5578063979bc638146104da57600080fd5b806370a08231146104265780637ecedac9146104535780638126c38a1461046857600080fd5b806339c5dde61161015957806352f29a251161013357806352f29a251461032a57806358178168146103405780635a3b7e421461038e5780636e743fa9146103a357600080fd5b806339c5dde6146102e05780633ccfd60b1461030057806351605d801461031557600080fd5b806306fdde03146101a1578063088f11f3146101cc578063091dbfd21461025b57806318160ddd1461027057806323165b7514610294578063313ce567146102b4575b600080fd5b3480156101ad57600080fd5b506101b66105dd565b6040516101c39190611904565b60405180910390f35b3480156101d857600080fd5b506102256101e7366004611959565b600c602052600090815260409020805460018201546002830154600384015460049094015460ff9093169391926001600160a01b0391821692911685565b60408051951515865260208601949094526001600160a01b0392831693850193909352606084015216608082015260a0016101c3565b61026e610269366004611959565b61066b565b005b34801561027c57600080fd5b5061028660065481565b6040519081526020016101c3565b3480156102a057600080fd5b5061026e6102af366004611972565b610826565b3480156102c057600080fd5b506005546102ce9060ff1681565b60405160ff90911681526020016101c3565b3480156102ec57600080fd5b5061026e6102fb366004611a86565b610bca565b34801561030c57600080fd5b5061026e610c42565b34801561032157600080fd5b506101b6610c96565b34801561033657600080fd5b5061028660075481565b34801561034c57600080fd5b5061037661035b366004611959565b600a602052600090815260409020546001600160a01b031681565b6040516001600160a01b0390911681526020016101c3565b34801561039a57600080fd5b506101b6610ca3565b3480156103af57600080fd5b506103f56103be366004611959565b600d60205260009081526040902080546001820154600283015460039093015460ff9092169290916001600160a01b039091169084565b6040516101c39493929190931515845260208401929092526001600160a01b03166040830152606082015260800190565b34801561043257600080fd5b50610286610441366004611b46565b600b6020526000908152604090205481565b34801561045f57600080fd5b5061026e610cb0565b34801561047457600080fd5b506008546104829060ff1681565b60405190151581526020016101c3565b61026e6104a0366004611959565b610cd6565b3480156104b157600080fd5b5061026e6104c0366004611b68565b610fe1565b3480156104d157600080fd5b506101b6611232565b3480156104e657600080fd5b5061026e6104f5366004611959565b61123f565b34801561050657600080fd5b5061026e610515366004611b68565b6113e0565b34801561052657600080fd5b5061026e610535366004611b92565b611530565b34801561054657600080fd5b5061028660095481565b34801561055c57600080fd5b5061026e61056b366004611972565b611639565b34801561057c57600080fd5b5061026e61058b366004611959565b611737565b34801561059c57600080fd5b506102866105ab366004611b46565b600e6020526000908152604090205481565b3480156105c957600080fd5b5061026e6105d8366004611959565b61180f565b600380546105ea90611bc7565b80601f016020809104026020016040519081016040528092919081815260200182805461061690611bc7565b80156106635780601f1061063857610100808354040283529160200191610663565b820191906000526020600020905b81548152906001019060200180831161064657829003601f168201915b505050505081565b6005811061067857600080fd5b60085460ff1661068757600080fd5b6000818152600a60205260409020546001600160a01b03166106a857600080fd5b6000818152600a6020526040902054336001600160a01b03909116036106cd57600080fd5b346000036106da57600080fd5b6000818152600d60209081526040918290208251608081018452815460ff161515815260018201549281019290925260028101546001600160a01b03169282019290925260039091015460608201819052341161073657600080fd5b6060810151156107775760608101516040808301516001600160a01b03166000908152600e6020529081208054909190610771908490611c17565b90915550505b604080516080810182526001808252602080830186815233848601818152346060870181815260008b8152600d87528990209751885460ff1916901515178855935195870195909555516002860180546001600160a01b0319166001600160a01b0390921691909117905590516003909401939093559251908152909184917f5b859394fabae0c1ba88baffe67e751ab5248d2e879028b8c8d6897b0519f56a91015b60405180910390a35050565b6005821061083357600080fd5b60085460ff1661084257600080fd5b6000828152600a60205260409020546001600160a01b0316331461086557600080fd5b6000828152600d602090815260408083208151608081018352815460ff161515815260018201549381019390935260028101546001600160a01b03169183019190915260030154606082018190523392036108bf57600080fd5b82816060015110156108d057600080fd5b6040818101516000868152600a602090815283822080546001600160a01b0319166001600160a01b039485161790559185168152600b90915290812080549161091883611c2f565b90915550506040808201516001600160a01b03166000908152600b60205290812080549161094583611c46565b919050555080604001516001600160a01b0316826001600160a01b03167fddf252ad1be2c89b69c2b068fc378daa952ba7f163c4a11628f55a4df523b3ef600160405161099491815260200190565b60405180910390a36040518060a0016040528060001515815260200185815260200182604001516001600160a01b031681526020016000815260200160006001600160a01b0316815250600c600086815260200190815260200160002060008201518160000160006101000a81548160ff0219169083151502179055506020820151816001015560408201518160020160006101000a8154816001600160a01b0302191690836001600160a01b031602179055506060820151816003015560808201518160040160006101000a8154816001600160a01b0302191690836001600160a01b03160217905550905050600081606001519050604051806080016040528060001515815260200186815260200160006001600160a01b031681526020016000815250600d600087815260200190815260200160002060008201518160000160006101000a81548160ff0219169083151502179055506020820151816001015560408201518160020160006101000a8154816001600160a01b0302191690836001600160a01b031602179055506060820151816003015590505080600e6000856001600160a01b03166001600160a01b031681526020019081526020016000206000828254610b669190611c17565b9250508190555081604001516001600160a01b0316836001600160a01b0316867f58e5d5a525e3b40bc15abaa38b5882678db1ee68befd2f60bafe3a7fd06db9e38560600151604051610bbb91815260200190565b60405180910390a45050505050565b6001546001600160a01b03163314610be157600080fd5b815160005b81811015610c3c57610c2a848281518110610c0357610c03611c5f565b6020026020010151848381518110610c1d57610c1d611c5f565b60200260200101516113e0565b80610c3481611c46565b915050610be6565b50505050565b60085460ff16610c5157600080fd5b336000818152600e6020526040808220805490839055905190929183156108fc02918491818181858888f19350505050158015610c92573d6000803e3d6000fd5b5050565b600080546105ea90611bc7565b600280546105ea90611bc7565b6001546001600160a01b03163314610cc757600080fd5b6008805460ff19166001179055565b60085460ff16610ce557600080fd5b6000818152600c6020908152604091829020825160a081018452815460ff161515815260018201549281019290925260028101546001600160a01b03908116938301939093526003810154606083015260040154909116608082015260058210610d4e57600080fd5b8051610d5957600080fd5b60808101516001600160a01b031615801590610d82575060808101516001600160a01b03163314155b15610d8c57600080fd5b8060600151341015610d9d57600080fd5b6000828152600a60205260409081902054908201516001600160a01b03908116911614610dc957600080fd5b6040808201516000848152600a602090815283822080546001600160a01b031916331790556001600160a01b0383168252600b905291822080549192610e0e83611c2f565b9091555050336000908152600b60205260408120805491610e2e83611c46565b90915550506040516001815233906001600160a01b038316907fddf252ad1be2c89b69c2b068fc378daa952ba7f163c4a11628f55a4df523b3ef9060200160405180910390a3610e7d8361180f565b6001600160a01b0381166000908152600e602052604081208054349290610ea5908490611c17565b909155505060405134815233906001600160a01b0383169085907f58e5d5a525e3b40bc15abaa38b5882678db1ee68befd2f60bafe3a7fd06db9e39060200160405180910390a46000838152600d60209081526040918290208251608081018452815460ff161515815260018201549281019290925260028101546001600160a01b031692820183905260030154606082015290339003610c3c576060810151336000908152600e602052604081208054909190610f64908490611c17565b9091555050604080516080810182526000808252602080830188815283850183815260608501848152998452600d909252939091209151825460ff19169015151782559151600182015590516002820180546001600160a01b0319166001600160a01b039092169190911790559351600390940193909355505050565b60085460ff16610ff057600080fd5b6000818152600a60205260409020546001600160a01b0316331461101357600080fd5b6005811061102057600080fd5b6000818152600c602052604090205460ff1615611040576110408161180f565b6000818152600a6020908152604080832080546001600160a01b0319166001600160a01b038716179055338352600b909152812080549161108083611c2f565b90915550506001600160a01b0382166000908152600b602052604081208054916110a983611c46565b9091555050604051600181526001600160a01b0383169033907fddf252ad1be2c89b69c2b068fc378daa952ba7f163c4a11628f55a4df523b3ef9060200160405180910390a36040518181526001600160a01b0383169033907f05af636b70da6819000c49f85b21fa82081c632069bb626f30932034099107d89060200160405180910390a36000818152600d60209081526040918290208251608081018452815460ff161515815260018201549281019290925260028101546001600160a01b0390811693830184905260039091015460608301529091908416900361122d5760608101516001600160a01b0384166000908152600e6020526040812080549091906111b7908490611c17565b9091555050604080516080810182526000808252602080830186815283850183815260608501848152888552600d909352949092209251835460ff19169015151783559051600183015591516002820180546001600160a01b0319166001600160a01b0390921691909117905590516003909101555b505050565b600480546105ea90611bc7565b6005811061124c57600080fd5b60085460ff1661125b57600080fd5b6000818152600a60205260409020546001600160a01b031661127c57600080fd5b6000818152600a6020526040902054336001600160a01b03909116036112a157600080fd5b6000818152600d60209081526040918290208251608081018452815460ff161515815260018201549281019290925260028101546001600160a01b03169282018390526003015460608201529033146112f957600080fd5b336001600160a01b0316827f6f30e1ee4d81dcc7a8a478577f65d2ed2edb120565960ac45fe7c50551c87932836060015160405161133991815260200190565b60405180910390a36060818101516040805160808101825260008082526020808301888152838501838152968401838152898452600d9092528483209351845460ff191690151517845551600184015594516002830180546001600160a01b0319166001600160a01b03909216919091179055935160039091015551909133916108fc84150291849190818181858888f19350505050158015610c3c573d6000803e3d6000fd5b6001546001600160a01b031633146113f757600080fd5b60085460ff161561140757600080fd5b6005811061141457600080fd5b6000818152600a60205260409020546001600160a01b03838116911614610c92576000818152600a60205260409020546001600160a01b03161561148c576000818152600a60209081526040808320546001600160a01b03168352600b909152812080549161148283611c2f565b91905055506114a2565b6009805490600061149c83611c2f565b91905055505b6000818152600a6020908152604080832080546001600160a01b0319166001600160a01b0387169081179091558352600b90915281208054916114e483611c46565b9190505550816001600160a01b03167f8a0e37b73a0d9c82e205d4d1a3ff3d0b57ce5f4d7bccf6bac03336dc101cb7ba8260405161152491815260200190565b60405180910390a25050565b60085460ff1661153f57600080fd5b6000838152600a60205260409020546001600160a01b0316331461156257600080fd5b6005831061156f57600080fd5b6040805160a0810182526001808252602080830187815233848601908152606085018881526001600160a01b038881166080880181815260008d8152600c88528a90209851895460ff191690151517895594519688019690965591516002870180546001600160a01b031990811692851692909217905590516003870155915160049095018054909216941693909317909255915184815285917f3c7b682d5da98001a9b8cbda6c647d2c63d698a4184fd1d55e2ce7b66f5d21eb910160405180910390a3505050565b60085460ff1661164857600080fd5b6000828152600a60205260409020546001600160a01b0316331461166b57600080fd5b6005821061167857600080fd5b6040805160a0810182526001808252602080830186815233848601908152606085018781526000608087018181528a8252600c86528882209751885460ff191690151517885593519587019590955590516002860180546001600160a01b03199081166001600160a01b0393841617909155915160038701559151600490950180549091169490911693909317909255915183815284917f3c7b682d5da98001a9b8cbda6c647d2c63d698a4184fd1d55e2ce7b66f5d21eb910161081a565b60085460ff1661174657600080fd5b60095460000361175557600080fd5b6000818152600a60205260409020546001600160a01b03161561177757600080fd5b6005811061178457600080fd5b6000818152600a6020908152604080832080546001600160a01b031916339081179091558352600b90915281208054916117bd83611c46565b9091555050600980549060006117d283611c2f565b909155505060405181815233907f8a0e37b73a0d9c82e205d4d1a3ff3d0b57ce5f4d7bccf6bac03336dc101cb7ba9060200160405180910390a250565b60085460ff1661181e57600080fd5b6000818152600a60205260409020546001600160a01b0316331461184157600080fd5b6005811061184e57600080fd5b6040805160a08101825260008082526020808301858152338486019081526060850184815260808601858152888652600c9094528685209551865460ff191690151517865591516001860155516002850180546001600160a01b03199081166001600160a01b0393841617909155915160038601559151600490940180549091169390911692909217909155905182917fb0e0a660b4e50f26f0b7ce75c24655fc76cc66e3334a54ff410277229fa10bd491a250565b600060208083528351808285015260005b8181101561193157858101830151858201604001528201611915565b81811115611943576000604083870101525b50601f01601f1916929092016040019392505050565b60006020828403121561196b57600080fd5b5035919050565b6000806040838503121561198557600080fd5b50508035926020909101359150565b634e487b7160e01b600052604160045260246000fd5b604051601f8201601f1916810167ffffffffffffffff811182821017156119d3576119d3611994565b604052919050565b600067ffffffffffffffff8211156119f5576119f5611994565b5060051b60200190565b80356001600160a01b0381168114611a1657600080fd5b919050565b600082601f830112611a2c57600080fd5b81356020611a41611a3c836119db565b6119aa565b82815260059290921b84018101918181019086841115611a6057600080fd5b8286015b84811015611a7b5780358352918301918301611a64565b509695505050505050565b60008060408385031215611a9957600080fd5b823567ffffffffffffffff80821115611ab157600080fd5b818501915085601f830112611ac557600080fd5b81356020611ad5611a3c836119db565b82815260059290921b84018101918181019089841115611af457600080fd5b948201945b83861015611b1957611b0a866119ff565b82529482019490820190611af9565b96505086013592505080821115611b2f57600080fd5b50611b3c85828601611a1b565b9150509250929050565b600060208284031215611b5857600080fd5b611b61826119ff565b9392505050565b60008060408385031215611b7b57600080fd5b611b84836119ff565b946020939093013593505050565b600080600060608486031215611ba757600080fd5b8335925060208401359150611bbe604085016119ff565b90509250925092565b600181811c90821680611bdb57607f821691505b602082108103611bfb57634e487b7160e01b600052602260045260246000fd5b50919050565b634e487b7160e01b600052601160045260246000fd5b60008219821115611c2a57611c2a611c01565b500190565b600081611c3e57611c3e611c01565b506000190190565b600060018201611c5857611c58611c01565b5060010190565b634e487b7160e01b600052603260045260246000fdfea2646970667358221220057e8e05fc5120978076beb64d8e6b02d97247acbfad8cf3b95dcefe1973dde664736f6c634300080d003361633339616634373933313139656534366262666633353164386362366235663233646136303232323132366164643432363865323631313939613239323162",
  "linkReferences": {},
  "deployedLinkReferences": {}
}