{
  "_format": "hh-sol-artifact-1",
  "contractName": "TimelockExcludeList",
  "sourceName": "contracts/solidity/other/TimelockExcludeList.sol",
  "abi": [
    {
      "anonymous": false,
      "inputs": [
        {
          "indexed": false,
          "internalType": "address",
          "name": "",
          "type": "address"
        },
        {
          "indexed": false,
          "internalType": "bool",
          "name": "",
          "type": "bool"
        }
      ],
      "name": "ExcludeFromAllSet",
      "type": "event"
    },
    {
      "anonymous": false,
      "inputs": [
        {
          "indexed": false,
          "internalType": "address",
          "name": "",
          "type": "address"
        },
        {
          "indexed": false,
          "internalType": "uint256",
          "name": "",
          "type": "uint256"
        },
        {
          "indexed": false,
          "internalType": "bool",
          "name": "",
          "type": "bool"
        }
      ],
      "name": "ExcludeFromVaultSet",
      "type": "event"
    },
    {
      "anonymous": false,
      "inputs": [
        {
          "indexed": true,
          "internalType": "address",
          "name": "previousOwner",
          "type": "address"
        },
        {
          "indexed": true,
          "internalType": "address",
          "name": "newOwner",
          "type": "address"
        }
      ],
      "name": "OwnershipTransferred",
      "type": "event"
    },
    {
      "inputs": [
        {
          "internalType": "address",
          "name": "",
          "type": "address"
        }
      ],
      "name": "excludeFromAll",
      "outputs": [
        {
          "internalType": "bool",
          "name": "",
          "type": "bool"
        }
      ],
      "stateMutability": "view",
      "type": "function"
    },
    {
      "inputs": [
        {
          "internalType": "address",
          "name": "",
          "type": "address"
        },
        {
          "internalType": "uint256",
          "name": "",
          "type": "uint256"
        }
      ],
      "name": "excludeFromVault",
      "outputs": [
        {
          "internalType": "bool",
          "name": "",
          "type": "bool"
        }
      ],
      "stateMutability": "view",
      "type": "function"
    },
    {
      "inputs": [
        {
          "internalType": "address",
          "name": "addr",
          "type": "address"
        },
        {
          "internalType": "uint256",
          "name": "vaultId",
          "type": "uint256"
        }
      ],
      "name": "isExcluded",
      "outputs": [
        {
          "internalType": "bool",
          "name": "",
          "type": "bool"
        }
      ],
      "stateMutability": "view",
      "type": "function"
    },
    {
      "inputs": [
        {
          "internalType": "address",
          "name": "addr",
          "type": "address"
        }
      ],
      "name": "isExcludedFromAll",
      "outputs": [
        {
          "internalType": "bool",
          "name": "",
          "type": "bool"
        }
      ],
      "stateMutability": "view",
      "type": "function"
    },
    {
      "inputs": [
        {
          "internalType": "address",
          "name": "addr",
          "type": "address"
        },
        {
          "internalType": "uint256",
          "name": "vaultId",
          "type": "uint256"
        }
      ],
      "name": "isExcludedFromVault",
      "outputs": [
        {
          "internalType": "bool",
          "name": "",
          "type": "bool"
        }
      ],
      "stateMutability": "view",
      "type": "function"
    },
    {
      "inputs": [],
      "name": "owner",
      "outputs": [
        {
          "internalType": "address",
          "name": "",
          "type": "address"
        }
      ],
      "stateMutability": "view",
      "type": "function"
    },
    {
      "inputs": [],
      "name": "renounceOwnership",
      "outputs": [],
      "stateMutability": "nonpayable",
      "type": "function"
    },
    {
      "inputs": [
        {
          "internalType": "address",
          "name": "addr",
          "type": "address"
        },
        {
          "internalType": "bool",
          "name": "setting",
          "type": "bool"
        }
      ],
      "name": "setExcludeFromAll",
      "outputs": [],
      "stateMutability": "nonpayable",
      "type": "function"
    },
    {
      "inputs": [
        {
          "internalType": "address",
          "name": "addr",
          "type": "address"
        },
        {
          "internalType": "uint256",
          "name": "vaultId",
          "type": "uint256"
        },
        {
          "internalType": "bool",
          "name": "setting",
          "type": "bool"
        }
      ],
      "name": "setExcludeFromVault",
      "outputs": [],
      "stateMutability": "nonpayable",
      "type": "function"
    },
    {
      "inputs": [
        {
          "internalType": "address",
          "name": "newOwner",
          "type": "address"
        }
      ],
      "name": "transferOwnership",
      "outputs": [],
      "stateMutability": "nonpayable",
      "type": "function"
    }
  ],
  "bytecode": "0x608060405234801561001057600080fd5b50600080546001600160a01b031916339081178255604051909182917f8be0079c531659141344cd1fd0a4f28419497f9722a3daafe3b4186f6b6457e0908290a35061060d806100616000396000f3fe608060405234801561001057600080fd5b506004361061009e5760003560e01c8063a4d6d29211610066578063a4d6d29214610126578063ac98c93814610154578063b874c03814610167578063e595175614610193578063f2fde38b146101cc57600080fd5b8063370f0a60146100a3578063518f037c146100db578063715018a6146100f057806381e97b66146100f85780638da5cb5b1461010b575b600080fd5b6100c66100b13660046104de565b60016020526000908152604090205460ff1681565b60405190151581526020015b60405180910390f35b6100ee6100e9366004610509565b6101df565b005b6100ee610275565b6100c661010636600461053c565b6102e9565b6000546040516001600160a01b0390911681526020016100d2565b6100c661013436600461053c565b600260209081526000928352604080842090915290825290205460ff1681565b6100ee610162366004610566565b61033a565b6100c66101753660046104de565b6001600160a01b031660009081526001602052604090205460ff1690565b6100c66101a136600461053c565b6001600160a01b03919091166000908152600260209081526040808320938352929052205460ff1690565b6100ee6101da3660046104de565b6103d8565b6000546001600160a01b031633146102125760405162461bcd60e51b8152600401610209906105a2565b60405180910390fd5b6001600160a01b038216600081815260016020908152604091829020805460ff19168515159081179091558251938452908301527f6c25d7a16f87af6c8f2bd27b2d9d88d7f6beedb8f4d8bee2f09507bde88ee979910160405180910390a15050565b6000546001600160a01b0316331461029f5760405162461bcd60e51b8152600401610209906105a2565b600080546040516001600160a01b03909116907f8be0079c531659141344cd1fd0a4f28419497f9722a3daafe3b4186f6b6457e0908390a3600080546001600160a01b0319169055565b6001600160a01b03821660009081526001602052604081205460ff168061033357506001600160a01b038316600090815260026020908152604080832085845290915290205460ff165b9392505050565b6000546001600160a01b031633146103645760405162461bcd60e51b8152600401610209906105a2565b6001600160a01b0383166000818152600260209081526040808320868452825291829020805460ff19168515159081179091558251938452908301859052908201527f1b5035f0e2caa5edc420739aae4c76fba5381d22d1fa3c1810cd6a71fe32a2569060600160405180910390a1505050565b6000546001600160a01b031633146104025760405162461bcd60e51b8152600401610209906105a2565b6001600160a01b0381166104675760405162461bcd60e51b815260206004820152602660248201527f4f776e61626c653a206e6577206f776e657220697320746865207a65726f206160448201526564647265737360d01b6064820152608401610209565b600080546040516001600160a01b03808516939216917f8be0079c531659141344cd1fd0a4f28419497f9722a3daafe3b4186f6b6457e091a3600080546001600160a01b0319166001600160a01b0392909216919091179055565b80356001600160a01b03811681146104d957600080fd5b919050565b6000602082840312156104f057600080fd5b610333826104c2565b803580151581146104d957600080fd5b6000806040838503121561051c57600080fd5b610525836104c2565b9150610533602084016104f9565b90509250929050565b6000806040838503121561054f57600080fd5b610558836104c2565b946020939093013593505050565b60008060006060848603121561057b57600080fd5b610584846104c2565b925060208401359150610599604085016104f9565b90509250925092565b6020808252818101527f4f776e61626c653a2063616c6c6572206973206e6f7420746865206f776e657260408201526060019056fea264697066735822122028e2ca5dc91c3e089fc84bd8c81e52ca60eae56730082119fa9175c1de5e60fd64736f6c634300080d0033",
  "linkReferences": {},
  "deployedLinkReferences": {}
}