{
  "_format": "hh-sol-artifact-1",
  "contractName": "NFTXMarketplaceZap",
  "sourceName": "contracts/solidity/NFTXMarketplaceZap.sol",
  "abi": [
    {
      "inputs": [
        {
          "internalType": "address",
          "name": "_nftxFactory",
          "type": "address"
        },
        {
          "internalType": "address",
          "name": "_sushiRouter",
          "type": "address"
        }
      ],
      "stateMutability": "nonpayable",
      "type": "constructor"
    },
    {
      "anonymous": false,
      "inputs": [
        {
          "indexed": false,
          "internalType": "uint256",
          "name": "count",
          "type": "uint256"
        },
        {
          "indexed": false,
          "internalType": "uint256",
          "name": "ethSpent",
          "type": "uint256"
        },
        {
          "indexed": false,
          "internalType": "address",
          "name": "to",
          "type": "address"
        }
      ],
      "name": "Buy",
      "type": "event"
    },
    {
      "anonymous": false,
      "inputs": [
        {
          "indexed": true,
          "internalType": "address",
          "name": "previousOwner",
          "type": "address"
        },
        {
          "indexed": true,
          "internalType": "address",
          "name": "newOwner",
          "type": "address"
        }
      ],
      "name": "OwnershipTransferred",
      "type": "event"
    },
    {
      "anonymous": false,
      "inputs": [
        {
          "indexed": false,
          "internalType": "uint256",
          "name": "count",
          "type": "uint256"
        },
        {
          "indexed": false,
          "internalType": "uint256",
          "name": "ethReceived",
          "type": "uint256"
        },
        {
          "indexed": false,
          "internalType": "address",
          "name": "to",
          "type": "address"
        }
      ],
      "name": "Sell",
      "type": "event"
    },
    {
      "anonymous": false,
      "inputs": [
        {
          "indexed": false,
          "internalType": "uint256",
          "name": "count",
          "type": "uint256"
        },
        {
          "indexed": false,
          "internalType": "uint256",
          "name": "ethSpent",
          "type": "uint256"
        },
        {
          "indexed": false,
          "internalType": "address",
          "name": "to",
          "type": "address"
        }
      ],
      "name": "Swap",
      "type": "event"
    },
    {
      "inputs": [],
      "name": "WETH",
      "outputs": [
        {
          "internalType": "contract IWETH",
          "name": "",
          "type": "address"
        }
      ],
      "stateMutability": "view",
      "type": "function"
    },
    {
      "inputs": [
        {
          "internalType": "uint256",
          "name": "vaultId",
          "type": "uint256"
        },
        {
          "internalType": "uint256",
          "name": "amount",
          "type": "uint256"
        },
        {
          "internalType": "uint256[]",
          "name": "specificIds",
          "type": "uint256[]"
        },
        {
          "internalType": "address[]",
          "name": "path",
          "type": "address[]"
        },
        {
          "internalType": "address",
          "name": "to",
          "type": "address"
        }
      ],
      "name": "buyAndRedeem",
      "outputs": [],
      "stateMutability": "payable",
      "type": "function"
    },
    {
      "inputs": [
        {
          "internalType": "uint256",
          "name": "vaultId",
          "type": "uint256"
        },
        {
          "internalType": "uint256",
          "name": "amount",
          "type": "uint256"
        },
        {
          "internalType": "uint256[]",
          "name": "specificIds",
          "type": "uint256[]"
        },
        {
          "internalType": "uint256",
          "name": "maxWethIn",
          "type": "uint256"
        },
        {
          "internalType": "address[]",
          "name": "path",
          "type": "address[]"
        },
        {
          "internalType": "address",
          "name": "to",
          "type": "address"
        }
      ],
      "name": "buyAndRedeemWETH",
      "outputs": [],
      "stateMutability": "nonpayable",
      "type": "function"
    },
    {
      "inputs": [
        {
          "internalType": "uint256",
          "name": "vaultId",
          "type": "uint256"
        },
        {
          "internalType": "uint256[]",
          "name": "idsIn",
          "type": "uint256[]"
        },
        {
          "internalType": "uint256[]",
          "name": "amounts",
          "type": "uint256[]"
        },
        {
          "internalType": "uint256[]",
          "name": "specificIds",
          "type": "uint256[]"
        },
        {
          "internalType": "address[]",
          "name": "path",
          "type": "address[]"
        },
        {
          "internalType": "address",
          "name": "to",
          "type": "address"
        }
      ],
      "name": "buyAndSwap1155",
      "outputs": [],
      "stateMutability": "payable",
      "type": "function"
    },
    {
      "inputs": [
        {
          "internalType": "uint256",
          "name": "vaultId",
          "type": "uint256"
        },
        {
          "internalType": "uint256[]",
          "name": "idsIn",
          "type": "uint256[]"
        },
        {
          "internalType": "uint256[]",
          "name": "amounts",
          "type": "uint256[]"
        },
        {
          "internalType": "uint256[]",
          "name": "specificIds",
          "type": "uint256[]"
        },
        {
          "internalType": "uint256",
          "name": "maxWethIn",
          "type": "uint256"
        },
        {
          "internalType": "address[]",
          "name": "path",
          "type": "address[]"
        },
        {
          "internalType": "address",
          "name": "to",
          "type": "address"
        }
      ],
      "name": "buyAndSwap1155WETH",
      "outputs": [],
      "stateMutability": "payable",
      "type": "function"
    },
    {
      "inputs": [
        {
          "internalType": "uint256",
          "name": "vaultId",
          "type": "uint256"
        },
        {
          "internalType": "uint256[]",
          "name": "idsIn",
          "type": "uint256[]"
        },
        {
          "internalType": "uint256[]",
          "name": "specificIds",
          "type": "uint256[]"
        },
        {
          "internalType": "address[]",
          "name": "path",
          "type": "address[]"
        },
        {
          "internalType": "address",
          "name": "to",
          "type": "address"
        }
      ],
      "name": "buyAndSwap721",
      "outputs": [],
      "stateMutability": "payable",
      "type": "function"
    },
    {
      "inputs": [
        {
          "internalType": "uint256",
          "name": "vaultId",
          "type": "uint256"
        },
        {
          "internalType": "uint256[]",
          "name": "idsIn",
          "type": "uint256[]"
        },
        {
          "internalType": "uint256[]",
          "name": "specificIds",
          "type": "uint256[]"
        },
        {
          "internalType": "uint256",
          "name": "maxWethIn",
          "type": "uint256"
        },
        {
          "internalType": "address[]",
          "name": "path",
          "type": "address[]"
        },
        {
          "internalType": "address",
          "name": "to",
          "type": "address"
        }
      ],
      "name": "buyAndSwap721WETH",
      "outputs": [],
      "stateMutability": "nonpayable",
      "type": "function"
    },
    {
      "inputs": [],
      "name": "lpStaking",
      "outputs": [
        {
          "internalType": "contract INFTXLPStaking",
          "name": "",
          "type": "address"
        }
      ],
      "stateMutability": "view",
      "type": "function"
    },
    {
      "inputs": [
        {
          "internalType": "uint256",
          "name": "vaultId",
          "type": "uint256"
        },
        {
          "internalType": "uint256[]",
          "name": "ids",
          "type": "uint256[]"
        },
        {
          "internalType": "uint256[]",
          "name": "amounts",
          "type": "uint256[]"
        },
        {
          "internalType": "uint256",
          "name": "minWethOut",
          "type": "uint256"
        },
        {
          "internalType": "address[]",
          "name": "path",
          "type": "address[]"
        },
        {
          "internalType": "address",
          "name": "to",
          "type": "address"
        }
      ],
      "name": "mintAndSell1155",
      "outputs": [],
      "stateMutability": "nonpayable",
      "type": "function"
    },
    {
      "inputs": [
        {
          "internalType": "uint256",
          "name": "vaultId",
          "type": "uint256"
        },
        {
          "internalType": "uint256[]",
          "name": "ids",
          "type": "uint256[]"
        },
        {
          "internalType": "uint256[]",
          "name": "amounts",
          "type": "uint256[]"
        },
        {
          "internalType": "uint256",
          "name": "minWethOut",
          "type": "uint256"
        },
        {
          "internalType": "address[]",
          "name": "path",
          "type": "address[]"
        },
        {
          "internalType": "address",
          "name": "to",
          "type": "address"
        }
      ],
      "name": "mintAndSell1155WETH",
      "outputs": [],
      "stateMutability": "nonpayable",
      "type": "function"
    },
    {
      "inputs": [
        {
          "internalType": "uint256",
          "name": "vaultId",
          "type": "uint256"
        },
        {
          "internalType": "uint256[]",
          "name": "ids",
          "type": "uint256[]"
        },
        {
          "internalType": "uint256",
          "name": "minEthOut",
          "type": "uint256"
        },
        {
          "internalType": "address[]",
          "name": "path",
          "type": "address[]"
        },
        {
          "internalType": "address",
          "name": "to",
          "type": "address"
        }
      ],
      "name": "mintAndSell721",
      "outputs": [],
      "stateMutability": "nonpayable",
      "type": "function"
    },
    {
      "inputs": [
        {
          "internalType": "uint256",
          "name": "vaultId",
          "type": "uint256"
        },
        {
          "internalType": "uint256[]",
          "name": "ids",
          "type": "uint256[]"
        },
        {
          "internalType": "uint256",
          "name": "minWethOut",
          "type": "uint256"
        },
        {
          "internalType": "address[]",
          "name": "path",
          "type": "address[]"
        },
        {
          "internalType": "address",
          "name": "to",
          "type": "address"
        }
      ],
      "name": "mintAndSell721WETH",
      "outputs": [],
      "stateMutability": "nonpayable",
      "type": "function"
    },
    {
      "inputs": [],
      "name": "nftxFactory",
      "outputs": [
        {
          "internalType": "contract INFTXVaultFactory",
          "name": "",
          "type": "address"
        }
      ],
      "stateMutability": "view",
      "type": "function"
    },
    {
      "inputs": [
        {
          "internalType": "address",
          "name": "",
          "type": "address"
        },
        {
          "internalType": "address",
          "name": "",
          "type": "address"
        },
        {
          "internalType": "uint256[]",
          "name": "",
          "type": "uint256[]"
        },
        {
          "internalType": "uint256[]",
          "name": "",
          "type": "uint256[]"
        },
        {
          "internalType": "bytes",
          "name": "",
          "type": "bytes"
        }
      ],
      "name": "onERC1155BatchReceived",
      "outputs": [
        {
          "internalType": "bytes4",
          "name": "",
          "type": "bytes4"
        }
      ],
      "stateMutability": "nonpayable",
      "type": "function"
    },
    {
      "inputs": [
        {
          "internalType": "address",
          "name": "",
          "type": "address"
        },
        {
          "internalType": "address",
          "name": "",
          "type": "address"
        },
        {
          "internalType": "uint256",
          "name": "",
          "type": "uint256"
        },
        {
          "internalType": "uint256",
          "name": "",
          "type": "uint256"
        },
        {
          "internalType": "bytes",
          "name": "",
          "type": "bytes"
        }
      ],
      "name": "onERC1155Received",
      "outputs": [
        {
          "internalType": "bytes4",
          "name": "",
          "type": "bytes4"
        }
      ],
      "stateMutability": "nonpayable",
      "type": "function"
    },
    {
      "inputs": [
        {
          "internalType": "address",
          "name": "",
          "type": "address"
        },
        {
          "internalType": "address",
          "name": "",
          "type": "address"
        },
        {
          "internalType": "uint256",
          "name": "",
          "type": "uint256"
        },
        {
          "internalType": "bytes",
          "name": "",
          "type": "bytes"
        }
      ],
      "name": "onERC721Received",
      "outputs": [
        {
          "internalType": "bytes4",
          "name": "",
          "type": "bytes4"
        }
      ],
      "stateMutability": "nonpayable",
      "type": "function"
    },
    {
      "inputs": [],
      "name": "owner",
      "outputs": [
        {
          "internalType": "address",
          "name": "",
          "type": "address"
        }
      ],
      "stateMutability": "view",
      "type": "function"
    },
    {
      "inputs": [],
      "name": "renounceOwnership",
      "outputs": [],
      "stateMutability": "nonpayable",
      "type": "function"
    },
    {
      "inputs": [
        {
          "internalType": "address",
          "name": "token",
          "type": "address"
        }
      ],
      "name": "rescue",
      "outputs": [],
      "stateMutability": "nonpayable",
      "type": "function"
    },
    {
      "inputs": [
        {
          "internalType": "bytes4",
          "name": "interfaceId",
          "type": "bytes4"
        }
      ],
      "name": "supportsInterface",
      "outputs": [
        {
          "internalType": "bool",
          "name": "",
          "type": "bool"
        }
      ],
      "stateMutability": "view",
      "type": "function"
    },
    {
      "inputs": [],
      "name": "sushiRouter",
      "outputs": [
        {
          "internalType": "contract IUniswapV2Router01",
          "name": "",
          "type": "address"
        }
      ],
      "stateMutability": "view",
      "type": "function"
    },
    {
      "inputs": [
        {
          "internalType": "address",
          "name": "newOwner",
          "type": "address"
        }
      ],
      "name": "transferOwnership",
      "outputs": [],
      "stateMutability": "nonpayable",
      "type": "function"
    },
    {
      "stateMutability": "payable",
      "type": "receive"
    }
  ],
  "bytecode": "0x6101006040523480156200001257600080fd5b50604051620051c1380380620051c1833981016040819052620000359162000668565b62000040336200023e565b600180556001600160a01b03821660c081905260408051630d43e8ad60e01b81529051630d43e8ad916004808201926020929091908290030181865afa1580156200008f573d6000803e3d6000fd5b505050506040513d601f19601f82011682018060405250810190620000b59190620006a0565b6001600160a01b0316639bf1401c6040518163ffffffff1660e01b81526004016020604051808303816000875af1158015620000f5573d6000803e3d6000fd5b505050506040513d601f19601f820116820180604052508101906200011b9190620006a0565b6001600160a01b0390811660a052811660e0819052604080516315ab88c960e31b8152905163ad5c4648916004808201926020929091908290030181865afa1580156200016c573d6000803e3d6000fd5b505050506040513d601f19601f82011682018060405250810190620001929190620006a0565b6001600160a01b03166080816001600160a01b0316815250506200023681600019836001600160a01b031663ad5c46486040518163ffffffff1660e01b8152600401602060405180830381865afa158015620001f2573d6000803e3d6000fd5b505050506040513d601f19601f82011682018060405250810190620002189190620006a0565b6001600160a01b03166200028e60201b620026cc179092919060201c565b505062000782565b600080546001600160a01b038381166001600160a01b0319831681178455604051919092169283917f8be0079c531659141344cd1fd0a4f28419497f9722a3daafe3b4186f6b6457e09190a35050565b8015806200030c5750604051636eb1769f60e11b81523060048201526001600160a01b03838116602483015284169063dd62ed3e90604401602060405180830381865afa158015620002e4573d6000803e3d6000fd5b505050506040513d601f19601f820116820180604052508101906200030a9190620006be565b155b620003845760405162461bcd60e51b815260206004820152603660248201527f5361666545524332303a20617070726f76652066726f6d206e6f6e2d7a65726f60448201527f20746f206e6f6e2d7a65726f20616c6c6f77616e63650000000000000000000060648201526084015b60405180910390fd5b604080516001600160a01b038416602482015260448082018490528251808303909101815260649091019091526020810180516001600160e01b0390811663095ea7b360e01b17909152620003dc918591620003e116565b505050565b60006200043d826040518060400160405280602081526020017f5361666545524332303a206c6f772d6c6576656c2063616c6c206661696c6564815250856001600160a01b0316620004bf60201b62002819179092919060201c565b805190915015620003dc57808060200190518101906200045e9190620006d8565b620003dc5760405162461bcd60e51b815260206004820152602a60248201527f5361666545524332303a204552433230206f7065726174696f6e20646964206e6044820152691bdd081cdd58d8d9595960b21b60648201526084016200037b565b6060620004d08484600085620004da565b90505b9392505050565b6060824710156200053d5760405162461bcd60e51b815260206004820152602660248201527f416464726573733a20696e73756666696369656e742062616c616e636520666f6044820152651c8818d85b1b60d21b60648201526084016200037b565b843b6200058d5760405162461bcd60e51b815260206004820152601d60248201527f416464726573733a2063616c6c20746f206e6f6e2d636f6e747261637400000060448201526064016200037b565b600080866001600160a01b03168587604051620005ab91906200072f565b60006040518083038185875af1925050503d8060008114620005ea576040519150601f19603f3d011682016040523d82523d6000602084013e620005ef565b606091505b509092509050620006028282866200060d565b979650505050505050565b606083156200061e575081620004d3565b8251156200062f5782518084602001fd5b8160405162461bcd60e51b81526004016200037b91906200074d565b80516001600160a01b03811681146200066357600080fd5b919050565b600080604083850312156200067c57600080fd5b62000687836200064b565b915062000697602084016200064b565b90509250929050565b600060208284031215620006b357600080fd5b620004d3826200064b565b600060208284031215620006d157600080fd5b5051919050565b600060208284031215620006eb57600080fd5b81518015158114620004d357600080fd5b60005b8381101562000719578181015183820152602001620006ff565b8381111562000729576000848401525b50505050565b6000825162000743818460208701620006fc565b9190910192915050565b60208152600082518060208401526200076e816040850160208701620006fc565b601f01601f19169190910160400192915050565b60805160a05160c05160e051614910620008b16000396000818161031e01528181612abe01528181612afd01528181612bd30152818161322601526132650152600081816102d20152818161075301528181610b9f01528181611012015281816114ef0152818161195c01528181611e100152818161283901528181612c9b01528181612ed401528181612fec01526132ab015260006103d80152600081816101490152818161044c015281816108c101528181610a1801528181610ab401528181610c7001528181610d7101528181610e1201528181610ef4015281816112a20152818161132e0152818161146601528181611739015281816117c50152818161191b01528181611bb501528181611c5601528181611d7c01528181611f8b015261201c01526149106000f3fe6080604052600436106101395760003560e01c80637fc82484116100ab578063a02716171161006f578063a0271617146103fa578063ab3a41211461041a578063ad5c46481461043a578063bc197c811461046e578063f23a6e611461049a578063f2fde38b146104c657600080fd5b80637fc8248414610355578063839006f2146103685780638da5cb5b14610388578063929bf3d3146103a65780639bf1401c146103c657600080fd5b806357e836dc116100fd57806357e836dc1461027a57806358fbdd0a1461028d5780635d8117a6146102a05780635ee50f88146102c05780636d13582c1461030c578063715018a61461034057600080fd5b806301ffc9a7146101ae5780630956642b146101e3578063150b7a021461020357806342c4ccaa146102475780634447d8881461025a57600080fd5b366101a957336001600160a01b037f000000000000000000000000000000000000000000000000000000000000000016146101a75760405162461bcd60e51b815260206004820152600960248201526809edcd8f240ae8aa8960bb1b60448201526064015b60405180910390fd5b005b600080fd5b3480156101ba57600080fd5b506101ce6101c9366004613bb3565b6104e6565b60405190151581526020015b60405180910390f35b3480156101ef57600080fd5b506101a76101fe366004613c46565b61051d565b34801561020f57600080fd5b5061022e61021e366004613d91565b630a85bd0160e11b949350505050565b6040516001600160e01b031990911681526020016101da565b6101a7610255366004613dfc565b610646565b34801561026657600080fd5b506101a7610275366004613ee7565b610b3a565b6101a7610288366004613f86565b610e92565b6101a761029b366004614063565b611405565b3480156102ac57600080fd5b506101a76102bb366004614108565b6118af565b3480156102cc57600080fd5b506102f47f000000000000000000000000000000000000000000000000000000000000000081565b6040516001600160a01b0390911681526020016101da565b34801561031857600080fd5b506102f47f000000000000000000000000000000000000000000000000000000000000000081565b34801561034c57600080fd5b506101a7611cd7565b6101a76103633660046141c7565b611d1c565b34801561037457600080fd5b506101a761038336600461422c565b612107565b34801561039457600080fd5b506000546001600160a01b03166102f4565b3480156103b257600080fd5b506101a76103c1366004613c46565b61223c565b3480156103d257600080fd5b506102f47f000000000000000000000000000000000000000000000000000000000000000081565b34801561040657600080fd5b506101a7610415366004614108565b6122ef565b34801561042657600080fd5b506101a7610435366004614108565b612486565b34801561044657600080fd5b506102f47f000000000000000000000000000000000000000000000000000000000000000081565b34801561047a57600080fd5b5061022e6104893660046142d7565b63bc197c8160e01b95945050505050565b3480156104a657600080fd5b5061022e6104b5366004614384565b63f23a6e6160e01b95945050505050565b3480156104d257600080fd5b506101a76104e136600461422c565b612625565b60006001600160e01b03198216630271189760e51b148061051757506301ffc9a760e01b6001600160e01b03198316145b92915050565b60026001540361053f5760405162461bcd60e51b815260040161019e906143ec565b60026001556001600160a01b0381161580159061056557506001600160a01b0381163014155b61056e57600080fd5b600085900361057c57600080fd5b6000806105bc8989898080602002602001604051908101604052809392919081815260200183836020028082843760009201919091525061283292505050565b9150915060006105d0838884898989612aad565b90507f1cdb5ee3c47e1a706ac452b89698e5e3f2ff4f835ca72dde8936d0f4fcf37d818989905082600184516106069190614439565b8151811061061657610616614450565b60200260200101518660405161062e93929190614466565b60405180910390a15050600180555050505050505050565b6002600154036106685760405162461bcd60e51b815260040161019e906143ec565b60026001556001600160a01b0381161580159061068e57506001600160a01b0381163014155b61069757600080fd5b60008990036106a557600080fd5b6000805b8a8110156107315760008a8a838181106106c5576106c5614450565b905060200201359050600081116107115760405162461bcd60e51b815260206004820152601060248201526f5472616e7366657272696e67203c203160801b604482015260640161019e565b61071b8184614485565b92505080806107299061449d565b9150506106a9565b506040516340d1b7db60e11b8152600481018d90526000906001600160a01b037f000000000000000000000000000000000000000000000000000000000000000016906381a36fb690602401602060405180830381865afa15801561079a573d6000803e3d6000fd5b505050506040513d601f19601f820116820180604052508101906107be91906144b6565b905060006107cc8884614439565b826001600160a01b031663d53f62176040518163ffffffff1660e01b8152600401602060405180830381865afa15801561080a573d6000803e3d6000fd5b505050506040513d601f19601f8201168201806040525081019061082e91906144d3565b61083891906144ec565b89899050836001600160a01b03166335dca76c6040518163ffffffff1660e01b8152600401602060405180830381865afa15801561087a573d6000803e3d6000fd5b505050506040513d601f19601f8201168201806040525081019061089e91906144d3565b6108a891906144ec565b6108b29190614485565b90506108e96001600160a01b037f00000000000000000000000000000000000000000000000000000000000000001633308a612b8f565b60006108f782898989612bcd565b90506109bc8f8f8f80806020026020016040519081016040528093929190818152602001838360200280828437600081840152601f19601f820116905080830192505050505050508e8e80806020026020016040519081016040528093929190818152602001838360200280828437600081840152601f19601f820116905080830192505050505050508d8d808060200260200160405190810160405280939291908181526020018383602002808284376000920191909152508c9250612c78915050565b506000805160206148bb83398151915284826000815181106109e0576109e0614450565b6020026020010151876040516109f893929190614466565b60405180910390a16040516370a0823160e01b81523060048201526000907f00000000000000000000000000000000000000000000000000000000000000006001600160a01b0316906370a0823190602401602060405180830381865afa158015610a67573d6000803e3d6000fd5b505050506040513d601f19601f82011682018060405250810190610a8b91906144d3565b60405163a9059cbb60e01b81526001600160a01b038881166004830152602482018390529192507f00000000000000000000000000000000000000000000000000000000000000009091169063a9059cbb906044016020604051808303816000875af1158015610aff573d6000803e3d6000fd5b505050506040513d601f19601f82011682018060405250810190610b23919061450b565b505060018055505050505050505050505050505050565b600260015403610b5c5760405162461bcd60e51b815260040161019e906143ec565b60026001556001600160a01b03811615801590610b8257506001600160a01b0381163014155b610b8b57600080fd5b86600003610b9857600080fd5b60008060007f00000000000000000000000000000000000000000000000000000000000000006001600160a01b031663220613798c6040518263ffffffff1660e01b8152600401610beb91815260200190565b60a060405180830381865afa158015610c08573d6000803e3d6000fd5b505050506040513d601f19601f82011682018060405250810190610c2c919061452d565b509194509250610c4091508990508b614439565b610c4a90836144ec565b610c5489836144ec565b610c5e9190614485565b9250610c989150506001600160a01b037f000000000000000000000000000000000000000000000000000000000000000016333088612b8f565b6000610cc282610cb0670de0b6b3a76400008c6144ec565b610cba9190614485565b878787612bcd565b9050610d048a8a8a8a80806020026020016040519081016040528093929190818152602001838360200280828437600092019190915250899250612ebb915050565b7ff7735c8cb2a65788ca663fc8415b7c6a66cd6847d58346d8334e8d52a599d3df8982600081518110610d3957610d39614450565b602002602001015185604051610d5193929190614466565b60405180910390a16040516370a0823160e01b81523060048201526000907f00000000000000000000000000000000000000000000000000000000000000006001600160a01b0316906370a0823190602401602060405180830381865afa158015610dc0573d6000803e3d6000fd5b505050506040513d601f19601f82011682018060405250810190610de491906144d3565b90508015610e815760405163a9059cbb60e01b81526001600160a01b038581166004830152602482018390527f0000000000000000000000000000000000000000000000000000000000000000169063a9059cbb906044016020604051808303816000875af1158015610e5b573d6000803e3d6000fd5b505050506040513d601f19601f82011682018060405250810190610e7f919061450b565b505b505060018055505050505050505050565b600260015403610eb45760405162461bcd60e51b815260040161019e906143ec565b60026001556001600160a01b03811615801590610eda57506001600160a01b0381163014155b610ee357600080fd5b876000819003610ef257600080fd5b7f00000000000000000000000000000000000000000000000000000000000000006001600160a01b031663d0e30db0346040518263ffffffff1660e01b81526004016000604051808303818588803b158015610f4d57600080fd5b505af1158015610f61573d6000803e3d6000fd5b50505050506000805b82811015610ff05760008a8a83818110610f8657610f86614450565b90506020020135905060008111610fd25760405162461bcd60e51b815260206004820152601060248201526f5472616e7366657272696e67203c203160801b604482015260640161019e565b610fdc8184614485565b92505080610fe99061449d565b9050610f6a565b506040516340d1b7db60e11b8152600481018d90526000906001600160a01b037f000000000000000000000000000000000000000000000000000000000000000016906381a36fb690602401602060405180830381865afa158015611059573d6000803e3d6000fd5b505050506040513d601f19601f8201168201806040525081019061107d91906144b6565b9050600061108b8884614439565b826001600160a01b031663d53f62176040518163ffffffff1660e01b8152600401602060405180830381865afa1580156110c9573d6000803e3d6000fd5b505050506040513d601f19601f820116820180604052508101906110ed91906144d3565b6110f791906144ec565b89899050836001600160a01b03166335dca76c6040518163ffffffff1660e01b8152600401602060405180830381865afa158015611139573d6000803e3d6000fd5b505050506040513d601f19601f8201168201806040525081019061115d91906144d3565b61116791906144ec565b6111719190614485565b9050600061118182348a8a612bcd565b90506112468f8f8f80806020026020016040519081016040528093929190818152602001838360200280828437600081840152601f19601f820116905080830192505050505050508e8e80806020026020016040519081016040528093929190818152602001838360200280828437600081840152601f19601f820116905080830192505050505050508d8d808060200260200160405190810160405280939291908181526020018383602002808284376000920191909152508d9250612c78915050565b506000805160206148bb833981519152848260008151811061126a5761126a614450565b60200260200101518860405161128293929190614466565b60405180910390a16040516370a0823160e01b81523060048201526000907f00000000000000000000000000000000000000000000000000000000000000006001600160a01b0316906370a0823190602401602060405180830381865afa1580156112f1573d6000803e3d6000fd5b505050506040513d601f19601f8201168201806040525081019061131591906144d3565b604051632e1a7d4d60e01b8152600481018290529091507f00000000000000000000000000000000000000000000000000000000000000006001600160a01b031690632e1a7d4d90602401600060405180830381600087803b15801561137a57600080fd5b505af115801561138e573d6000803e3d6000fd5b505050506000876001600160a01b03168260405160006040518083038185875af1925050503d80600081146113df576040519150601f19603f3d011682016040523d82523d6000602084013e6113e4565b606091505b5050905080610b235760405162461bcd60e51b815260040161019e9061456d565b6002600154036114275760405162461bcd60e51b815260040161019e906143ec565b60026001556001600160a01b0381161580159061144d57506001600160a01b0381163014155b61145657600080fd5b600086900361146457600080fd5b7f00000000000000000000000000000000000000000000000000000000000000006001600160a01b031663d0e30db0346040518263ffffffff1660e01b81526004016000604051808303818588803b1580156114bf57600080fd5b505af11580156114d3573d6000803e3d6000fd5b50506040516340d1b7db60e11b8152600481018c9052600093507f00000000000000000000000000000000000000000000000000000000000000006001600160a01b031692506381a36fb69150602401602060405180830381865afa158015611540573d6000803e3d6000fd5b505050506040513d601f19601f8201168201806040525081019061156491906144b6565b905060006115728689614439565b826001600160a01b031663d53f62176040518163ffffffff1660e01b8152600401602060405180830381865afa1580156115b0573d6000803e3d6000fd5b505050506040513d601f19601f820116820180604052508101906115d491906144d3565b6115de91906144ec565b87879050836001600160a01b03166335dca76c6040518163ffffffff1660e01b8152600401602060405180830381865afa158015611620573d6000803e3d6000fd5b505050506040513d601f19601f8201168201806040525081019061164491906144d3565b61164e91906144ec565b6116589190614485565b9050600061166882348888612bcd565b90506116da8b8b8b8080602002602001604051908101604052809392919081815260200183836020028082843760009201919091525050604080516020808f0282810182019093528e82529093508e92508d9182918501908490808284376000920191909152508a9250612fc9915050565b506000805160206148bb8339815191528a8a90508260008151811061170157611701614450565b60200260200101518660405161171993929190614466565b60405180910390a16040516370a0823160e01b81523060048201526000907f00000000000000000000000000000000000000000000000000000000000000006001600160a01b0316906370a0823190602401602060405180830381865afa158015611788573d6000803e3d6000fd5b505050506040513d601f19601f820116820180604052508101906117ac91906144d3565b604051632e1a7d4d60e01b8152600481018290529091507f00000000000000000000000000000000000000000000000000000000000000006001600160a01b031690632e1a7d4d90602401600060405180830381600087803b15801561181157600080fd5b505af1158015611825573d6000803e3d6000fd5b505050506000856001600160a01b03168260405160006040518083038185875af1925050503d8060008114611876576040519150601f19603f3d011682016040523d82523d6000602084013e61187b565b606091505b505090508061189c5760405162461bcd60e51b815260040161019e9061456d565b5050600180555050505050505050505050565b6002600154036118d15760405162461bcd60e51b815260040161019e906143ec565b60026001556001600160a01b038116158015906118f757506001600160a01b0381163014155b61190057600080fd5b600087900361190e57600080fd5b6119436001600160a01b037f000000000000000000000000000000000000000000000000000000000000000016333087612b8f565b6040516340d1b7db60e11b8152600481018a90526000907f00000000000000000000000000000000000000000000000000000000000000006001600160a01b0316906381a36fb690602401602060405180830381865afa1580156119ab573d6000803e3d6000fd5b505050506040513d601f19601f820116820180604052508101906119cf91906144b6565b905060006119dd878a614439565b826001600160a01b031663d53f62176040518163ffffffff1660e01b8152600401602060405180830381865afa158015611a1b573d6000803e3d6000fd5b505050506040513d601f19601f82011682018060405250810190611a3f91906144d3565b611a4991906144ec565b88889050836001600160a01b03166335dca76c6040518163ffffffff1660e01b8152600401602060405180830381865afa158015611a8b573d6000803e3d6000fd5b505050506040513d601f19601f82011682018060405250810190611aaf91906144d3565b611ab991906144ec565b611ac39190614485565b90506000611ad382888888612bcd565b9050611b568c8c8c80806020026020016040519081016040528093929190818152602001838360200280828437600081840152601f19601f820116905080830192505050505050508b8b808060200260200160405190810160405280939291908181526020018383602002808284376000920191909152508a9250612fc9915050565b506000805160206148bb8339815191528b8b905082600081518110611b7d57611b7d614450565b602002602001015186604051611b9593929190614466565b60405180910390a16040516370a0823160e01b81523060048201526000907f00000000000000000000000000000000000000000000000000000000000000006001600160a01b0316906370a0823190602401602060405180830381865afa158015611c04573d6000803e3d6000fd5b505050506040513d601f19601f82011682018060405250810190611c2891906144d3565b9050801561189c5760405163a9059cbb60e01b81526001600160a01b038681166004830152602482018390527f0000000000000000000000000000000000000000000000000000000000000000169063a9059cbb906044016020604051808303816000875af1158015611c9f573d6000803e3d6000fd5b505050506040513d601f19601f82011682018060405250810190611cc3919061450b565b505050600180555050505050505050505050565b33611cea6000546001600160a01b031690565b6001600160a01b031614611d105760405162461bcd60e51b815260040161019e906145ca565b611d1a6000613195565b565b600260015403611d3e5760405162461bcd60e51b815260040161019e906143ec565b60026001556001600160a01b03811615801590611d6457506001600160a01b0381163014155b611d6d57600080fd5b85600003611d7a57600080fd5b7f00000000000000000000000000000000000000000000000000000000000000006001600160a01b031663d0e30db0346040518263ffffffff1660e01b81526004016000604051808303818588803b158015611dd557600080fd5b505af1158015611de9573d6000803e3d6000fd5b5050604051632206137960e01b8152600481018b9052600093508392506001600160a01b037f000000000000000000000000000000000000000000000000000000000000000016915063220613799060240160a060405180830381865afa158015611e58573d6000803e3d6000fd5b505050506040513d601f19601f82011682018060405250810190611e7c919061452d565b50919450925060009150611e929050878a614439565b611e9c90846144ec565b611ea688846144ec565b611eb09190614485565b90506000611edc82611eca670de0b6b3a76400008d6144ec565b611ed49190614485565b348989612bcd565b9050611f1e8b8b8b8b808060200260200160405190810160405280939291908181526020018383602002808284376000920191909152508b9250612ebb915050565b7ff7735c8cb2a65788ca663fc8415b7c6a66cd6847d58346d8334e8d52a599d3df8a82600081518110611f5357611f53614450565b602002602001015187604051611f6b93929190614466565b60405180910390a16040516370a0823160e01b81523060048201526000907f00000000000000000000000000000000000000000000000000000000000000006001600160a01b0316906370a0823190602401602060405180830381865afa158015611fda573d6000803e3d6000fd5b505050506040513d601f19601f82011682018060405250810190611ffe91906144d3565b905080156120f557604051632e1a7d4d60e01b8152600481018290527f00000000000000000000000000000000000000000000000000000000000000006001600160a01b031690632e1a7d4d90602401600060405180830381600087803b15801561206857600080fd5b505af115801561207c573d6000803e3d6000fd5b505050506000866001600160a01b03168260405160006040518083038185875af1925050503d80600081146120cd576040519150601f19603f3d011682016040523d82523d6000602084013e6120d2565b606091505b50509050806120f35760405162461bcd60e51b815260040161019e9061456d565b505b50506001805550505050505050505050565b3361211a6000546001600160a01b031690565b6001600160a01b0316146121405760405162461bcd60e51b815260040161019e906145ca565b6001600160a01b0381166121ba57604051600090339047908381818185875af1925050503d8060008114612190576040519150601f19603f3d011682016040523d82523d6000602084013e612195565b606091505b50509050806121b65760405162461bcd60e51b815260040161019e9061456d565b5050565b6040516370a0823160e01b81523060048201526122399033906001600160a01b038416906370a0823190602401602060405180830381865afa158015612204573d6000803e3d6000fd5b505050506040513d601f19601f8201168201806040525081019061222891906144d3565b6001600160a01b03841691906131e5565b50565b60026001540361225e5760405162461bcd60e51b815260040161019e906143ec565b60026001556001600160a01b0381161580159061228457506001600160a01b0381163014155b61228d57600080fd5b600085900361229b57600080fd5b6000806122db8989898080602002602001604051908101604052809392919081815260200183836020028082843760009201919091525061283292505050565b9150915060006105d0838884898989613215565b6002600154036123115760405162461bcd60e51b815260040161019e906143ec565b60026001556001600160a01b0381161580159061233757506001600160a01b0381163014155b61234057600080fd5b600087900361234e57600080fd5b6000806123bf8b8b8b8080602002602001604051908101604052809392919081815260200183836020028082843760009201919091525050604080516020808f0282810182019093528e82529093508e92508d9182918501908490808284376000920191909152506132a492505050565b915091506123d1828783888888613215565b50600089815b81811015612415578a8a828181106123f1576123f1614450565b90506020020135836124039190614485565b925061240e8161449d565b90506123d7565b507f1cdb5ee3c47e1a706ac452b89698e5e3f2ff4f835ca72dde8936d0f4fcf37d81828b8b612445600182614439565b81811061245457612454614450565b905060200201358760405161246b93929190614466565b60405180910390a15050600180555050505050505050505050565b6002600154036124a85760405162461bcd60e51b815260040161019e906143ec565b60026001556001600160a01b038116158015906124ce57506001600160a01b0381163014155b6124d757600080fd5b60008790036124e557600080fd5b6000806125568b8b8b8080602002602001604051908101604052809392919081815260200183836020028082843760009201919091525050604080516020808f0282810182019093528e82529093508e92508d9182918501908490808284376000920191909152506132a492505050565b91509150600061256a838884898989612aad565b905060008a815b818110156125af578b8b8281811061258b5761258b614450565b905060200201358361259d9190614485565b92506125a88161449d565b9050612571565b507f1cdb5ee3c47e1a706ac452b89698e5e3f2ff4f835ca72dde8936d0f4fcf37d818284600186516125e19190614439565b815181106125f1576125f1614450565b60200260200101518860405161260993929190614466565b60405180910390a1505060018055505050505050505050505050565b336126386000546001600160a01b031690565b6001600160a01b03161461265e5760405162461bcd60e51b815260040161019e906145ca565b6001600160a01b0381166126c35760405162461bcd60e51b815260206004820152602660248201527f4f776e61626c653a206e6577206f776e657220697320746865207a65726f206160448201526564647265737360d01b606482015260840161019e565b61223981613195565b8015806127465750604051636eb1769f60e11b81523060048201526001600160a01b03838116602483015284169063dd62ed3e90604401602060405180830381865afa158015612720573d6000803e3d6000fd5b505050506040513d601f19601f8201168201806040525081019061274491906144d3565b155b6127b15760405162461bcd60e51b815260206004820152603660248201527f5361666545524332303a20617070726f76652066726f6d206e6f6e2d7a65726f60448201527520746f206e6f6e2d7a65726f20616c6c6f77616e636560501b606482015260840161019e565b6040516001600160a01b03831660248201526044810182905261281490849063095ea7b360e01b906064015b60408051601f198184030181529190526020810180516001600160e01b03166001600160e01b0319909316929092179091526135ce565b505050565b606061282884846000856136a0565b90505b9392505050565b60008060007f00000000000000000000000000000000000000000000000000000000000000006001600160a01b03166381a36fb6866040518263ffffffff1660e01b815260040161288591815260200190565b602060405180830381865afa1580156128a2573d6000803e3d6000fd5b505050506040513d601f19601f820116820180604052508101906128c691906144b6565b90506000816001600160a01b0316631ba46cfd6040518163ffffffff1660e01b8152600401602060405180830381865afa158015612908573d6000803e3d6000fd5b505050506040513d601f19601f8201168201806040525081019061292c91906144b6565b855190915060005b81811015612994576129608388838151811061295257612952614450565b6020026020010151866137c8565b612984838589848151811061297757612977614450565b6020026020010151613ab4565b61298d8161449d565b9050612934565b50604051630f57464360e21b81526060906001600160a01b03851690633d5d190c906129c6908a90859060040161463a565b6020604051808303816000875af11580156129e5573d6000803e3d6000fd5b505050506040513d601f19601f82011682018060405250810190612a0991906144d3565b506000875190506000856001600160a01b03166313966db56040518163ffffffff1660e01b8152600401602060405180830381865afa158015612a50573d6000803e3d6000fd5b505050506040513d601f19601f82011682018060405250810190612a7491906144d3565b612a7e90836144ec565b612a90670de0b6b3a7640000846144ec565b612a9a9190614439565b95975094955050505050505b9250929050565b6060612ae36001600160a01b0388167f0000000000000000000000000000000000000000000000000000000000000000876126cc565b6040516318cbafe560e01b81526000906001600160a01b037f000000000000000000000000000000000000000000000000000000000000000016906318cbafe590612b3c9089908b908a908a908a904290600401614668565b6000604051808303816000875af1158015612b5b573d6000803e3d6000fd5b505050506040513d6000823e601f3d908101601f19168201604052612b8391908101906146db565b98975050505050505050565b6040516001600160a01b0380851660248301528316604482015260648101829052612bc79085906323b872dd60e01b906084016127dd565b50505050565b606060007f00000000000000000000000000000000000000000000000000000000000000006001600160a01b0316638803dbee8787878730426040518763ffffffff1660e01b8152600401612c2796959493929190614668565b6000604051808303816000875af1158015612c46573d6000803e3d6000fd5b505050506040513d6000823e601f3d908101601f19168201604052612c6e91908101906146db565b9695505050505050565b6040516340d1b7db60e11b81526004810186905260009081906001600160a01b037f000000000000000000000000000000000000000000000000000000000000000016906381a36fb690602401602060405180830381865afa158015612ce2573d6000803e3d6000fd5b505050506040513d601f19601f82011682018060405250810190612d0691906144b6565b90506000816001600160a01b0316631ba46cfd6040518163ffffffff1660e01b8152600401602060405180830381865afa158015612d48573d6000803e3d6000fd5b505050506040513d601f19601f82011682018060405250810190612d6c91906144b6565b604051631759616b60e11b81529091506001600160a01b03821690632eb2c2d690612da190339030908c908c90600401614760565b600060405180830381600087803b158015612dbb57600080fd5b505af1158015612dcf573d6000803e3d6000fd5b505060405163a22cb46560e01b81526001600160a01b038581166004830152600160248301528416925063a22cb4659150604401600060405180830381600087803b158015612e1d57600080fd5b505af1158015612e31573d6000803e3d6000fd5b5050604051632321420560e21b81526001600160a01b0385169250638c8508149150612e67908a908a908a908a906004016147bb565b6000604051808303816000875af1158015612e86573d6000803e3d6000fd5b505050506040513d6000823e601f3d908101601f19168201604052612eae91908101906146db565b5090979650505050505050565b6040516340d1b7db60e11b8152600481018590526000907f00000000000000000000000000000000000000000000000000000000000000006001600160a01b0316906381a36fb690602401602060405180830381865afa158015612f23573d6000803e3d6000fd5b505050506040513d601f19601f82011682018060405250810190612f4791906144b6565b604051634eaa6f7b60e11b81529091506001600160a01b03821690639d54def690612f7a9087908790879060040161480e565b6000604051808303816000875af1158015612f99573d6000803e3d6000fd5b505050506040513d6000823e601f3d908101601f19168201604052612fc191908101906146db565b505050505050565b6040516340d1b7db60e11b81526004810185905260009081906001600160a01b037f000000000000000000000000000000000000000000000000000000000000000016906381a36fb690602401602060405180830381865afa158015613033573d6000803e3d6000fd5b505050506040513d601f19601f8201168201806040525081019061305791906144b6565b90506000816001600160a01b0316631ba46cfd6040518163ffffffff1660e01b8152600401602060405180830381865afa158015613099573d6000803e3d6000fd5b505050506040513d601f19601f820116820180604052508101906130bd91906144b6565b865190915060005b8181101561310a576130e38389838151811061295257612952614450565b6130fa83858a848151811061297757612977614450565b6131038161449d565b90506130c5565b50604051632321420560e21b81526060906001600160a01b03851690638c85081490613140908b9085908c908c906004016147bb565b6000604051808303816000875af115801561315f573d6000803e3d6000fd5b505050506040513d6000823e601f3d908101601f1916820160405261318791908101906146db565b509298975050505050505050565b600080546001600160a01b038381166001600160a01b0319831681178455604051919092169283917f8be0079c531659141344cd1fd0a4f28419497f9722a3daafe3b4186f6b6457e09190a35050565b6040516001600160a01b03831660248201526044810182905261281490849063a9059cbb60e01b906064016127dd565b606061324b6001600160a01b0388167f0000000000000000000000000000000000000000000000000000000000000000876126cc565b6040516338ed173960e01b81526000906001600160a01b037f000000000000000000000000000000000000000000000000000000000000000016906338ed173990612b3c9089908b908a908a908a904290600401614668565b60008060007f00000000000000000000000000000000000000000000000000000000000000006001600160a01b03166381a36fb6876040518263ffffffff1660e01b81526004016132f791815260200190565b602060405180830381865afa158015613314573d6000803e3d6000fd5b505050506040513d601f19601f8201168201806040525081019061333891906144b6565b90506001600160a01b0381166133905760405162461bcd60e51b815260206004820152601d60248201527f4e4654585a61703a205661756c7420646f6573206e6f74206578697374000000604482015260640161019e565b6000816001600160a01b0316631ba46cfd6040518163ffffffff1660e01b8152600401602060405180830381865afa1580156133d0573d6000803e3d6000fd5b505050506040513d601f19601f820116820180604052508101906133f491906144b6565b604051631759616b60e11b81529091506001600160a01b03821690632eb2c2d69061342990339030908b908b90600401614760565b600060405180830381600087803b15801561344357600080fd5b505af1158015613457573d6000803e3d6000fd5b505060405163a22cb46560e01b81526001600160a01b038581166004830152600160248301528416925063a22cb4659150604401600060405180830381600087803b1580156134a557600080fd5b505af11580156134b9573d6000803e3d6000fd5b5050604051630f57464360e21b8152600092506001600160a01b0385169150633d5d190c906134ee908a908a9060040161463a565b6020604051808303816000875af115801561350d573d6000803e3d6000fd5b505050506040513d601f19601f8201168201806040525081019061353191906144d3565b9050600081846001600160a01b03166313966db56040518163ffffffff1660e01b8152600401602060405180830381865afa158015613574573d6000803e3d6000fd5b505050506040513d601f19601f8201168201806040525081019061359891906144d3565b6135a291906144ec565b6135b4670de0b6b3a7640000846144ec565b6135be9190614439565b9399939850929650505050505050565b6000613623826040518060400160405280602081526020017f5361666545524332303a206c6f772d6c6576656c2063616c6c206661696c6564815250856001600160a01b03166128199092919063ffffffff16565b8051909150156128145780806020019051810190613641919061450b565b6128145760405162461bcd60e51b815260206004820152602a60248201527f5361666545524332303a204552433230206f7065726174696f6e20646964206e6044820152691bdd081cdd58d8d9595960b21b606482015260840161019e565b6060824710156137015760405162461bcd60e51b815260206004820152602660248201527f416464726573733a20696e73756666696369656e742062616c616e636520666f6044820152651c8818d85b1b60d21b606482015260840161019e565b843b61374f5760405162461bcd60e51b815260206004820152601d60248201527f416464726573733a2063616c6c20746f206e6f6e2d636f6e7472616374000000604482015260640161019e565b600080866001600160a01b0316858760405161376b919061486b565b60006040518083038185875af1925050503d80600081146137a8576040519150601f19603f3d011682016040523d82523d6000602084013e6137ad565b606091505b50915091506137bd828286613b7a565b979650505050505050565b7306012c8cf97bead5deae237070f9587f8e7a266d73b47e3cd837ddf8e4c57f05d70ab865de6e193bbb60607306012c8cf97bead5deae237070f9587f8e7a266c196001600160a01b0387160161386c576040513360248201526001600160a01b03851660448201526064810186905260840160408051601f198184030181529190526020810180516001600160e01b03166323b872dd60e01b1790529050613a27565b816001600160a01b0316866001600160a01b0316036139d85760008560405160240161389a91815260200190565b60408051601f198184030181529181526020820180516001600160e01b0316630b02f02d60e31b1790525190915060009081906001600160a01b038a16906138e390859061486b565b600060405180830381855afa9150503d806000811461391e576040519150601f19603f3d011682016040523d82523d6000602084013e613923565b606091505b509150915060008180602001905181019061393e91906144b6565b905082801561395557506001600160a01b03811633145b6139955760405162461bcd60e51b81526020600482015260116024820152702737ba103a34329027232a1037bbb732b960791b604482015260640161019e565b604051602481018a905260440160408051601f198184030181529190526020810180516001600160e01b031663104c9fd360e31b1790529450613a279350505050565b6040513360248201526001600160a01b03851660448201526064810186905260840160408051601f198184030181529190526020810180516001600160e01b0316632142170760e11b17905290505b600080876001600160a01b031683604051613a42919061486b565b6000604051808303816000865af19150503d8060008114613a7f576040519150601f19603f3d011682016040523d82523d6000602084013e613a84565b606091505b5091509150818190613aa95760405162461bcd60e51b815260040161019e9190614887565b505050505050505050565b7306012c8cf97bead5deae237070f9587f8e7a266d73b47e3cd837ddf8e4c57f05d70ab865de6e193bbb60607306012c8cf97bead5deae237070f9587f8e7a266c196001600160a01b03871601613b0d57505050505050565b816001600160a01b0316866001600160a01b031603612fc15760405160248101859052600060448201526001600160a01b038616606482015260840160408051601f198184030181529190526020810180516001600160e01b031663bf31196f60e01b1790529050613a27565b60608315613b8957508161282b565b825115613b995782518084602001fd5b8160405162461bcd60e51b815260040161019e9190614887565b600060208284031215613bc557600080fd5b81356001600160e01b03198116811461282b57600080fd5b60008083601f840112613bef57600080fd5b5081356001600160401b03811115613c0657600080fd5b6020830191508360208260051b8501011115612aa657600080fd5b6001600160a01b038116811461223957600080fd5b8035613c4181613c21565b919050565b600080600080600080600060a0888a031215613c6157600080fd5b8735965060208801356001600160401b0380821115613c7f57600080fd5b613c8b8b838c01613bdd565b909850965060408a0135955060608a0135915080821115613cab57600080fd5b50613cb88a828b01613bdd565b9094509250506080880135613ccc81613c21565b8091505092959891949750929550565b634e487b7160e01b600052604160045260246000fd5b604051601f8201601f191681016001600160401b0381118282101715613d1a57613d1a613cdc565b604052919050565b600082601f830112613d3357600080fd5b81356001600160401b03811115613d4c57613d4c613cdc565b613d5f601f8201601f1916602001613cf2565b818152846020838601011115613d7457600080fd5b816020850160208301376000918101602001919091529392505050565b60008060008060808587031215613da757600080fd5b8435613db281613c21565b93506020850135613dc281613c21565b92506040850135915060608501356001600160401b03811115613de457600080fd5b613df087828801613d22565b91505092959194509250565b600080600080600080600080600080600060e08c8e031215613e1d57600080fd5b8b359a506001600160401b038060208e01351115613e3a57600080fd5b613e4a8e60208f01358f01613bdd565b909b50995060408d0135811015613e6057600080fd5b613e708e60408f01358f01613bdd565b909950975060608d0135811015613e8657600080fd5b613e968e60608f01358f01613bdd565b909750955060808d0135945060a08d0135811015613eb357600080fd5b50613ec48d60a08e01358e01613bdd565b9093509150613ed560c08d01613c36565b90509295989b509295989b9093969950565b60008060008060008060008060c0898b031215613f0357600080fd5b883597506020890135965060408901356001600160401b0380821115613f2857600080fd5b613f348c838d01613bdd565b909850965060608b0135955060808b0135915080821115613f5457600080fd5b50613f618b828c01613bdd565b90945092505060a0890135613f7581613c21565b809150509295985092959890939650565b60008060008060008060008060008060c08b8d031215613fa557600080fd5b8a35995060208b01356001600160401b0380821115613fc357600080fd5b613fcf8e838f01613bdd565b909b50995060408d0135915080821115613fe857600080fd5b613ff48e838f01613bdd565b909950975060608d013591508082111561400d57600080fd5b6140198e838f01613bdd565b909750955060808d013591508082111561403257600080fd5b5061403f8d828e01613bdd565b9094509250614052905060a08c01613c36565b90509295989b9194979a5092959850565b60008060008060008060008060a0898b03121561407f57600080fd5b8835975060208901356001600160401b038082111561409d57600080fd5b6140a98c838d01613bdd565b909950975060408b01359150808211156140c257600080fd5b6140ce8c838d01613bdd565b909750955060608b01359150808211156140e757600080fd5b506140f48b828c01613bdd565b9094509250506080890135613f7581613c21565b600080600080600080600080600060c08a8c03121561412657600080fd5b8935985060208a01356001600160401b038082111561414457600080fd5b6141508d838e01613bdd565b909a50985060408c013591508082111561416957600080fd5b6141758d838e01613bdd565b909850965060608c0135955060808c013591508082111561419557600080fd5b506141a28c828d01613bdd565b90945092505060a08a01356141b681613c21565b809150509295985092959850929598565b600080600080600080600060a0888a0312156141e257600080fd5b873596506020880135955060408801356001600160401b038082111561420757600080fd5b6142138b838c01613bdd565b909750955060608a0135915080821115613cab57600080fd5b60006020828403121561423e57600080fd5b813561282b81613c21565b60006001600160401b0382111561426257614262613cdc565b5060051b60200190565b600082601f83011261427d57600080fd5b8135602061429261428d83614249565b613cf2565b82815260059290921b840181019181810190868411156142b157600080fd5b8286015b848110156142cc57803583529183019183016142b5565b509695505050505050565b600080600080600060a086880312156142ef57600080fd5b85356142fa81613c21565b9450602086013561430a81613c21565b935060408601356001600160401b038082111561432657600080fd5b61433289838a0161426c565b9450606088013591508082111561434857600080fd5b61435489838a0161426c565b9350608088013591508082111561436a57600080fd5b5061437788828901613d22565b9150509295509295909350565b600080600080600060a0868803121561439c57600080fd5b85356143a781613c21565b945060208601356143b781613c21565b9350604086013592506060860135915060808601356001600160401b038111156143e057600080fd5b61437788828901613d22565b6020808252601f908201527f5265656e7472616e637947756172643a207265656e7472616e742063616c6c00604082015260600190565b634e487b7160e01b600052601160045260246000fd5b60008282101561444b5761444b614423565b500390565b634e487b7160e01b600052603260045260246000fd5b92835260208301919091526001600160a01b0316604082015260600190565b6000821982111561449857614498614423565b500190565b6000600182016144af576144af614423565b5060010190565b6000602082840312156144c857600080fd5b815161282b81613c21565b6000602082840312156144e557600080fd5b5051919050565b600081600019048311821515161561450657614506614423565b500290565b60006020828403121561451d57600080fd5b8151801515811461282b57600080fd5b600080600080600060a0868803121561454557600080fd5b5050835160208501516040860151606087015160809097015192989197509594509092509050565b6020808252603a908201527f416464726573733a20756e61626c6520746f2073656e642076616c75652c207260408201527f6563697069656e74206d61792068617665207265766572746564000000000000606082015260800190565b6020808252818101527f4f776e61626c653a2063616c6c6572206973206e6f7420746865206f776e6572604082015260600190565b600081518084526020808501945080840160005b8381101561462f57815187529582019590820190600101614613565b509495945050505050565b60408152600061464d60408301856145ff565b828103602084015261465f81856145ff565b95945050505050565b868152602080820187905260a0604083018190528201859052600090869060c08401835b888110156146ba57833561469f81613c21565b6001600160a01b03168252928201929082019060010161468c565b506001600160a01b0396909616606085015250505060800152949350505050565b600060208083850312156146ee57600080fd5b82516001600160401b0381111561470457600080fd5b8301601f8101851361471557600080fd5b805161472361428d82614249565b81815260059190911b8201830190838101908783111561474257600080fd5b928401925b828410156137bd57835182529284019290840190614747565b6001600160a01b0385811682528416602082015260a06040820181905260009061478c908301856145ff565b828103606084015261479e81856145ff565b838103608090940193909352505060008152602001949350505050565b6080815260006147ce60808301876145ff565b82810360208401526147e081876145ff565b905082810360408401526147f481866145ff565b91505060018060a01b038316606083015295945050505050565b83815260606020820152600061482760608301856145ff565b905060018060a01b0383166040830152949350505050565b60005b8381101561485a578181015183820152602001614842565b83811115612bc75750506000910152565b6000825161487d81846020870161483f565b9190910192915050565b60208152600082518060208401526148a681604085016020870161483f565b601f01601f1916919091016040019291505056fe7af2bc3f8ec800c569b6555feaf16589d96a9d04a49d1645fd456d75fa0b372ba2646970667358221220b7301d173d723e73656873c6649294fef63b28f0b8ffdf5d360fb868f8838c4e64736f6c634300080d0033",
  "linkReferences": {},
  "deployedLinkReferences": {}
}