{
  "_format": "hh-sol-artifact-1",
  "contractName": "StakingTokenProvider",
  "sourceName": "contracts/solidity/StakingTokenProvider.sol",
  "abi": [
    {
      "anonymous": false,
      "inputs": [
        {
          "indexed": false,
          "internalType": "address",
          "name": "oldPaired",
          "type": "address"
        },
        {
          "indexed": false,
          "internalType": "address",
          "name": "newPaired",
          "type": "address"
        }
      ],
      "name": "NewDefaultPaired",
      "type": "event"
    },
    {
      "anonymous": false,
      "inputs": [
        {
          "indexed": false,
          "internalType": "address",
          "name": "vaultToken",
          "type": "address"
        },
        {
          "indexed": false,
          "internalType": "address",
          "name": "oldPairedtoken",
          "type": "address"
        },
        {
          "indexed": false,
          "internalType": "address",
          "name": "newPairedToken",
          "type": "address"
        }
      ],
      "name": "NewPairedTokenForVault",
      "type": "event"
    },
    {
      "anonymous": false,
      "inputs": [
        {
          "indexed": true,
          "internalType": "address",
          "name": "previousOwner",
          "type": "address"
        },
        {
          "indexed": true,
          "internalType": "address",
          "name": "newOwner",
          "type": "address"
        }
      ],
      "name": "OwnershipTransferred",
      "type": "event"
    },
    {
      "inputs": [
        {
          "internalType": "address",
          "name": "_uniLikeExchange",
          "type": "address"
        },
        {
          "internalType": "address",
          "name": "_defaultPairedtoken",
          "type": "address"
        },
        {
          "internalType": "string",
          "name": "_defaultPrefix",
          "type": "string"
        }
      ],
      "name": "__StakingTokenProvider_init",
      "outputs": [],
      "stateMutability": "nonpayable",
      "type": "function"
    },
    {
      "inputs": [],
      "name": "defaultPairedToken",
      "outputs": [
        {
          "internalType": "address",
          "name": "",
          "type": "address"
        }
      ],
      "stateMutability": "view",
      "type": "function"
    },
    {
      "inputs": [],
      "name": "defaultPrefix",
      "outputs": [
        {
          "internalType": "string",
          "name": "",
          "type": "string"
        }
      ],
      "stateMutability": "view",
      "type": "function"
    },
    {
      "inputs": [
        {
          "internalType": "address",
          "name": "_vaultToken",
          "type": "address"
        }
      ],
      "name": "nameForStakingToken",
      "outputs": [
        {
          "internalType": "string",
          "name": "",
          "type": "string"
        }
      ],
      "stateMutability": "view",
      "type": "function"
    },
    {
      "inputs": [],
      "name": "owner",
      "outputs": [
        {
          "internalType": "address",
          "name": "",
          "type": "address"
        }
      ],
      "stateMutability": "view",
      "type": "function"
    },
    {
      "inputs": [
        {
          "internalType": "address",
          "name": "_vaultToken",
          "type": "address"
        },
        {
          "internalType": "address",
          "name": "_pairedToken",
          "type": "address"
        }
      ],
      "name": "pairForVaultToken",
      "outputs": [
        {
          "internalType": "address",
          "name": "",
          "type": "address"
        }
      ],
      "stateMutability": "view",
      "type": "function"
    },
    {
      "inputs": [
        {
          "internalType": "address",
          "name": "",
          "type": "address"
        }
      ],
      "name": "pairedPrefix",
      "outputs": [
        {
          "internalType": "string",
          "name": "",
          "type": "string"
        }
      ],
      "stateMutability": "view",
      "type": "function"
    },
    {
      "inputs": [
        {
          "internalType": "address",
          "name": "",
          "type": "address"
        }
      ],
      "name": "pairedToken",
      "outputs": [
        {
          "internalType": "address",
          "name": "",
          "type": "address"
        }
      ],
      "stateMutability": "view",
      "type": "function"
    },
    {
      "inputs": [],
      "name": "renounceOwnership",
      "outputs": [],
      "stateMutability": "nonpayable",
      "type": "function"
    },
    {
      "inputs": [
        {
          "internalType": "address",
          "name": "_newDefaultPaired",
          "type": "address"
        },
        {
          "internalType": "string",
          "name": "_newDefaultPrefix",
          "type": "string"
        }
      ],
      "name": "setDefaultPairedToken",
      "outputs": [],
      "stateMutability": "nonpayable",
      "type": "function"
    },
    {
      "inputs": [
        {
          "internalType": "address",
          "name": "_vaultToken",
          "type": "address"
        },
        {
          "internalType": "address",
          "name": "_newPairedToken",
          "type": "address"
        },
        {
          "internalType": "string",
          "name": "_newPrefix",
          "type": "string"
        }
      ],
      "name": "setPairedTokenForVaultToken",
      "outputs": [],
      "stateMutability": "nonpayable",
      "type": "function"
    },
    {
      "inputs": [
        {
          "internalType": "address",
          "name": "_vaultToken",
          "type": "address"
        }
      ],
      "name": "stakingTokenForVaultToken",
      "outputs": [
        {
          "internalType": "address",
          "name": "",
          "type": "address"
        }
      ],
      "stateMutability": "view",
      "type": "function"
    },
    {
      "inputs": [
        {
          "internalType": "address",
          "name": "newOwner",
          "type": "address"
        }
      ],
      "name": "transferOwnership",
      "outputs": [],
      "stateMutability": "nonpayable",
      "type": "function"
    },
    {
      "inputs": [],
      "name": "uniLikeExchange",
      "outputs": [
        {
          "internalType": "address",
          "name": "",
          "type": "address"
        }
      ],
      "stateMutability": "view",
      "type": "function"
    }
  ],
  "bytecode": "0x608060405234801561001057600080fd5b506112be806100206000396000f3fe608060405234801561001057600080fd5b50600436106100ea5760003560e01c8063814073071161008c5780638da5cb5b116100665780638da5cb5b146101e457806396c59671146101f5578063be9773c614610208578063f2fde38b1461021057600080fd5b806381407307146101ab57806387c13f4d146101be5780638a2a1e2f146101d157600080fd5b80634d985ea0116100c85780634d985ea01461015d5780635b9490f314610170578063715018a614610183578063718806f51461018b57600080fd5b806307f0317c146100ef57806308bd3ce01461011f5780634c9ae92f14610134575b600080fd5b606554610102906001600160a01b031681565b6040516001600160a01b0390911681526020015b60405180910390f35b61013261012d366004610e72565b610223565b005b610102610142366004610ed3565b6068602052600090815260409020546001600160a01b031681565b61013261016b366004610eee565b610321565b61010261017e366004610f41565b6103bf565b6101326103e0565b61019e610199366004610ed3565b610454565b6040516101169190610fa0565b606654610102906001600160a01b031681565b6101026101cc366004610ed3565b6104ee565b6101326101df366004611042565b610535565b6033546001600160a01b0316610102565b61019e610203366004610ed3565b61063b565b61019e6108ab565b61013261021e366004610ed3565b6108b8565b6033546001600160a01b031633146102565760405162461bcd60e51b815260040161024d906110e3565b60405180910390fd5b6001600160a01b03831661027c5760405162461bcd60e51b815260040161024d90611118565b6001600160a01b038481166000818152606860209081526040918290205482519384528416908301529185168183015290517feebfe7d1e53931026507d88d3ca53b9596e130b8a3f0704926a88392c5d9ef8a9181900360600190a16001600160a01b03848116600090815260686020908152604080832080546001600160a01b03191694881694909417909355606990522061031a908383610d07565b5050505050565b6033546001600160a01b0316331461034b5760405162461bcd60e51b815260040161024d906110e3565b606654604080516001600160a01b03928316815291851660208301527fa5bf9b3710a67845897570cd50a1b4e4a3c98b76e06ee88b704d51a4d9b3c46f910160405180910390a1606680546001600160a01b0319166001600160a01b0385161790556103b960678383610d07565b50505050565b6065546000906103d9906001600160a01b031684846109a3565b9392505050565b6033546001600160a01b0316331461040a5760405162461bcd60e51b815260040161024d906110e3565b6033546040516000916001600160a01b0316907f8be0079c531659141344cd1fd0a4f28419497f9722a3daafe3b4186f6b6457e0908390a3603380546001600160a01b0319169055565b6069602052600090815260409020805461046d90611146565b80601f016020809104026020016040519081016040528092919081815260200182805461049990611146565b80156104e65780601f106104bb576101008083540402835291602001916104e6565b820191906000526020600020905b8154815290600101906020018083116104c957829003601f168201915b505050505081565b6001600160a01b038082166000908152606860205260408120549091168061051e57506066546001600160a01b03165b6065546103d9906001600160a01b031684836109a3565b600054610100900460ff168061054e575060005460ff16155b61056a5760405162461bcd60e51b815260040161024d90611180565b600054610100900460ff1615801561058c576000805461ffff19166101011790555b610594610a7c565b6001600160a01b0384166105ba5760405162461bcd60e51b815260040161024d90611118565b6001600160a01b0383166105e05760405162461bcd60e51b815260040161024d90611118565b606580546001600160a01b038087166001600160a01b03199283161790925560668054928616929091169190911790558151610623906067906020850190610d8b565b5080156103b9576000805461ff001916905550505050565b6001600160a01b03811660009081526069602052604081208054606092919061066390611146565b80601f016020809104026020016040519081016040528092919081815260200182805461068f90611146565b80156106dc5780601f106106b1576101008083540402835291602001916106dc565b820191906000526020600020905b8154815290600101906020018083116106bf57829003601f168201915b50505050509050805160000361077a57606780546106f990611146565b80601f016020809104026020016040519081016040528092919081815260200182805461072590611146565b80156107725780601f1061074757610100808354040283529160200191610772565b820191906000526020600020905b81548152906001019060200180831161075557829003601f168201915b505050505090505b6001600160a01b0380841660009081526068602052604090205416806107a857506066546001600160a01b03165b6000846001600160a01b03166395d89b416040518163ffffffff1660e01b8152600401600060405180830381865afa1580156107e8573d6000803e3d6000fd5b505050506040513d6000823e601f3d908101601f1916820160405261081091908101906111ce565b90506000826001600160a01b03166395d89b416040518163ffffffff1660e01b8152600401600060405180830381865afa158015610852573d6000803e3d6000fd5b505050506040513d6000823e601f3d908101601f1916820160405261087a91908101906111ce565b905083828260405160200161089193929190611245565b604051602081830303815290604052945050505050919050565b6067805461046d90611146565b6033546001600160a01b031633146108e25760405162461bcd60e51b815260040161024d906110e3565b6001600160a01b0381166109475760405162461bcd60e51b815260206004820152602660248201527f4f776e61626c653a206e6577206f776e657220697320746865207a65726f206160448201526564647265737360d01b606482015260840161024d565b6033546040516001600160a01b038084169216907f8be0079c531659141344cd1fd0a4f28419497f9722a3daafe3b4186f6b6457e090600090a3603380546001600160a01b0319166001600160a01b0392909216919091179055565b60008060006109b28585610af8565b6040516bffffffffffffffffffffffff19606084811b8216602084015283901b1660348201529193509150869060480160405160208183030381529060405280519060200120604051602001610a5a9291906001600160f81b0319815260609290921b6bffffffffffffffffffffffff1916600183015260158201527fe18a34eb0e04b04f7a0ac29a6e80748dca96319b42c54d679cb821dca90c6303603582015260550190565b60408051601f1981840301815291905280516020909101209695505050505050565b600054610100900460ff1680610a95575060005460ff16155b610ab15760405162461bcd60e51b815260040161024d90611180565b600054610100900460ff16158015610ad3576000805461ffff19166101011790555b610adb610bef565b610ae3610c59565b8015610af5576000805461ff00191690555b50565b600080826001600160a01b0316846001600160a01b031603610b6a5760405162461bcd60e51b815260206004820152602560248201527f556e697377617056324c6962726172793a204944454e544943414c5f41444452604482015264455353455360d81b606482015260840161024d565b826001600160a01b0316846001600160a01b031610610b8a578284610b8d565b83835b90925090506001600160a01b038216610be85760405162461bcd60e51b815260206004820152601e60248201527f556e697377617056324c6962726172793a205a45524f5f414444524553530000604482015260640161024d565b9250929050565b600054610100900460ff1680610c08575060005460ff16155b610c245760405162461bcd60e51b815260040161024d90611180565b600054610100900460ff16158015610ae3576000805461ffff19166101011790558015610af5576000805461ff001916905550565b600054610100900460ff1680610c72575060005460ff16155b610c8e5760405162461bcd60e51b815260040161024d90611180565b600054610100900460ff16158015610cb0576000805461ffff19166101011790555b603380546001600160a01b0319163390811790915560405181906000907f8be0079c531659141344cd1fd0a4f28419497f9722a3daafe3b4186f6b6457e0908290a3508015610af5576000805461ff001916905550565b828054610d1390611146565b90600052602060002090601f016020900481019282610d355760008555610d7b565b82601f10610d4e5782800160ff19823516178555610d7b565b82800160010185558215610d7b579182015b82811115610d7b578235825591602001919060010190610d60565b50610d87929150610dff565b5090565b828054610d9790611146565b90600052602060002090601f016020900481019282610db95760008555610d7b565b82601f10610dd257805160ff1916838001178555610d7b565b82800160010185558215610d7b579182015b82811115610d7b578251825591602001919060010190610de4565b5b80821115610d875760008155600101610e00565b80356001600160a01b0381168114610e2b57600080fd5b919050565b60008083601f840112610e4257600080fd5b50813567ffffffffffffffff811115610e5a57600080fd5b602083019150836020828501011115610be857600080fd5b60008060008060608587031215610e8857600080fd5b610e9185610e14565b9350610e9f60208601610e14565b9250604085013567ffffffffffffffff811115610ebb57600080fd5b610ec787828801610e30565b95989497509550505050565b600060208284031215610ee557600080fd5b6103d982610e14565b600080600060408486031215610f0357600080fd5b610f0c84610e14565b9250602084013567ffffffffffffffff811115610f2857600080fd5b610f3486828701610e30565b9497909650939450505050565b60008060408385031215610f5457600080fd5b610f5d83610e14565b9150610f6b60208401610e14565b90509250929050565b60005b83811015610f8f578181015183820152602001610f77565b838111156103b95750506000910152565b6020815260008251806020840152610fbf816040850160208701610f74565b601f01601f19169190910160400192915050565b634e487b7160e01b600052604160045260246000fd5b604051601f8201601f1916810167ffffffffffffffff8111828210171561101257611012610fd3565b604052919050565b600067ffffffffffffffff82111561103457611034610fd3565b50601f01601f191660200190565b60008060006060848603121561105757600080fd5b61106084610e14565b925061106e60208501610e14565b9150604084013567ffffffffffffffff81111561108a57600080fd5b8401601f8101861361109b57600080fd5b80356110ae6110a98261101a565b610fe9565b8181528760208385010111156110c357600080fd5b816020840160208301376000602083830101528093505050509250925092565b6020808252818101527f4f776e61626c653a2063616c6c6572206973206e6f7420746865206f776e6572604082015260600190565b60208082526014908201527343616e6e6f74206265206164647265737328302960601b604082015260600190565b600181811c9082168061115a57607f821691505b60208210810361117a57634e487b7160e01b600052602260045260246000fd5b50919050565b6020808252602e908201527f496e697469616c697a61626c653a20636f6e747261637420697320616c72656160408201526d191e481a5b9a5d1a585b1a5e995960921b606082015260800190565b6000602082840312156111e057600080fd5b815167ffffffffffffffff8111156111f757600080fd5b8201601f8101841361120857600080fd5b80516112166110a98261101a565b81815285602083850101111561122b57600080fd5b61123c826020830160208601610f74565b95945050505050565b60008451611257818460208901610f74565b84519083019061126b818360208901610f74565b845191019061127e818360208801610f74565b019594505050505056fea2646970667358221220bd76ed5c6c68399253acb8d7bb66a882a5d4daf1920f1e46a8c9e89cea14bdb564736f6c634300080d0033",
  "linkReferences": {},
  "deployedLinkReferences": {}
}