{
  "_format": "hh-sol-artifact-1",
  "contractName": "NFTXGen0FastKittyEligibility",
  "sourceName": "contracts/solidity/eligibility/NFTXGen0FastEligibility.sol",
  "abi": [
    {
      "anonymous": false,
      "inputs": [],
      "name": "NFTXEligibilityInit",
      "type": "event"
    },
    {
      "inputs": [],
      "name": "__NFTXEligibility_init",
      "outputs": [],
      "stateMutability": "nonpayable",
      "type": "function"
    },
    {
      "inputs": [
        {
          "internalType": "bytes",
          "name": "",
          "type": "bytes"
        }
      ],
      "name": "__NFTXEligibility_init_bytes",
      "outputs": [],
      "stateMutability": "nonpayable",
      "type": "function"
    },
    {
      "inputs": [
        {
          "internalType": "uint256[]",
          "name": "tokenIds",
          "type": "uint256[]"
        }
      ],
      "name": "afterMintHook",
      "outputs": [],
      "stateMutability": "nonpayable",
      "type": "function"
    },
    {
      "inputs": [
        {
          "internalType": "uint256[]",
          "name": "tokenIds",
          "type": "uint256[]"
        }
      ],
      "name": "afterRedeemHook",
      "outputs": [],
      "stateMutability": "nonpayable",
      "type": "function"
    },
    {
      "inputs": [
        {
          "internalType": "uint256[]",
          "name": "tokenIds",
          "type": "uint256[]"
        }
      ],
      "name": "beforeMintHook",
      "outputs": [],
      "stateMutability": "nonpayable",
      "type": "function"
    },
    {
      "inputs": [
        {
          "internalType": "uint256[]",
          "name": "tokenIds",
          "type": "uint256[]"
        }
      ],
      "name": "beforeRedeemHook",
      "outputs": [],
      "stateMutability": "nonpayable",
      "type": "function"
    },
    {
      "inputs": [
        {
          "internalType": "uint256[]",
          "name": "tokenIds",
          "type": "uint256[]"
        }
      ],
      "name": "checkAllEligible",
      "outputs": [
        {
          "internalType": "bool",
          "name": "",
          "type": "bool"
        }
      ],
      "stateMutability": "view",
      "type": "function"
    },
    {
      "inputs": [
        {
          "internalType": "uint256[]",
          "name": "tokenIds",
          "type": "uint256[]"
        }
      ],
      "name": "checkAllIneligible",
      "outputs": [
        {
          "internalType": "bool",
          "name": "",
          "type": "bool"
        }
      ],
      "stateMutability": "view",
      "type": "function"
    },
    {
      "inputs": [
        {
          "internalType": "uint256[]",
          "name": "tokenIds",
          "type": "uint256[]"
        }
      ],
      "name": "checkEligible",
      "outputs": [
        {
          "internalType": "bool[]",
          "name": "",
          "type": "bool[]"
        }
      ],
      "stateMutability": "view",
      "type": "function"
    },
    {
      "inputs": [
        {
          "internalType": "uint256",
          "name": "tokenId",
          "type": "uint256"
        }
      ],
      "name": "checkIsEligible",
      "outputs": [
        {
          "internalType": "bool",
          "name": "",
          "type": "bool"
        }
      ],
      "stateMutability": "view",
      "type": "function"
    },
    {
      "inputs": [],
      "name": "finalized",
      "outputs": [
        {
          "internalType": "bool",
          "name": "",
          "type": "bool"
        }
      ],
      "stateMutability": "view",
      "type": "function"
    },
    {
      "inputs": [],
      "name": "name",
      "outputs": [
        {
          "internalType": "string",
          "name": "",
          "type": "string"
        }
      ],
      "stateMutability": "pure",
      "type": "function"
    },
    {
      "inputs": [],
      "name": "targetAsset",
      "outputs": [
        {
          "internalType": "address",
          "name": "",
          "type": "address"
        }
      ],
      "stateMutability": "pure",
      "type": "function"
    }
  ],
  "bytecode": "0x608060405234801561001057600080fd5b50610813806100206000396000f3fe608060405234801561001057600080fd5b50600436106100cf5760003560e01c80636cd912601161008c578063b3f05b9711610066578063b3f05b97146101a0578063bd8affde1461010c578063ca373f28146101a7578063d2a096e8146101ba57600080fd5b80636cd912601461015557806384ca9f8514610175578063b1eb9f871461019857600080fd5b806306fdde03146100d457806336eb08621461010c5780633d4403ac146101205780634998b7f3146101425780635e2f9b521461010c5780636c47d5951461010c575b600080fd5b604080518082018252600d81526c47656e30466173744b6974747960981b6020820152905161010391906104cb565b60405180910390f35b61011e61011a366004610520565b5050565b005b6040517306012c8cf97bead5deae237070f9587f8e7a266d8152602001610103565b61011e6101503660046105ab565b6101cd565b610168610163366004610520565b61024a565b604051610103919061065c565b610188610183366004610520565b6102ff565b6040519015158152602001610103565b61011e61034d565b6001610188565b6101886101b5366004610520565b6103e2565b6101886101c83660046106a2565b610426565b600054610100900460ff16806101e6575060005460ff16155b61020b5760405162461bcd60e51b8152600401610202906106bb565b60405180910390fd5b600054610100900460ff1615801561022d576000805461ffff19166101011790555b61023561034d565b801561011a576000805461ff00191690555050565b60608160008167ffffffffffffffff81111561026857610268610595565b604051908082528060200260200182016040528015610291578160200160208202803683370190505b50905060005b828110156102f4576102c08686838181106102b4576102b4610709565b9050602002013561042d565b8282815181106102d2576102d2610709565b91151560209283029190910190910152806102ec8161071f565b915050610297565b509150505b92915050565b600081815b81811015610342576103218585838181106102b4576102b4610709565b610330576000925050506102f9565b8061033a8161071f565b915050610304565b506001949350505050565b600054610100900460ff1680610366575060005460ff16155b6103825760405162461bcd60e51b8152600401610202906106bb565b600054610100900460ff161580156103a4576000805461ffff19166101011790555b6040517fb708568a0e67d40b1324a610ddd779500570f113513f944a791cc7b8b4970dec90600090a180156103df576000805461ff00191690555b50565b600081815b81811015610342576104048585838181106102b4576102b4610709565b15610414576000925050506102f9565b8061041e8161071f565b9150506103e7565b60006102f9825b60405163e98b7f4d60e01b815260048101829052600090819081907306012c8cf97bead5deae237070f9587f8e7a266d9063e98b7f4d9060240161014060405180830381865afa158015610485573d6000803e3d6000fd5b505050506040513d601f19601f820116820180604052508101906104a9919061075b565b5098505050505050935050508160001480156104c3575080155b949350505050565b600060208083528351808285015260005b818110156104f8578581018301518582016040015282016104dc565b8181111561050a576000604083870101525b50601f01601f1916929092016040019392505050565b6000806020838503121561053357600080fd5b823567ffffffffffffffff8082111561054b57600080fd5b818501915085601f83011261055f57600080fd5b81358181111561056e57600080fd5b8660208260051b850101111561058357600080fd5b60209290920196919550909350505050565b634e487b7160e01b600052604160045260246000fd5b6000602082840312156105bd57600080fd5b813567ffffffffffffffff808211156105d557600080fd5b818401915084601f8301126105e957600080fd5b8135818111156105fb576105fb610595565b604051601f8201601f19908116603f0116810190838211818310171561062357610623610595565b8160405282815287602084870101111561063c57600080fd5b826020860160208301376000928101602001929092525095945050505050565b6020808252825182820181905260009190848201906040850190845b81811015610696578351151583529284019291840191600101610678565b50909695505050505050565b6000602082840312156106b457600080fd5b5035919050565b6020808252602e908201527f496e697469616c697a61626c653a20636f6e747261637420697320616c72656160408201526d191e481a5b9a5d1a585b1a5e995960921b606082015260800190565b634e487b7160e01b600052603260045260246000fd5b60006001820161073f57634e487b7160e01b600052601160045260246000fd5b5060010190565b8051801515811461075657600080fd5b919050565b6000806000806000806000806000806101408b8d03121561077b57600080fd5b6107848b610746565b995061079260208c01610746565b985060408b0151975060608b0151965060808b0151955060a08b0151945060c08b0151935060e08b015192506101008b015191506101208b015190509295989b9194979a509295985056fea26469706673582212209be930bc2c590a3dee2e18e0e57a0701d1e11e802a1fdd27f44caaf1745d1c8f64736f6c634300080d0033",
  "linkReferences": {},
  "deployedLinkReferences": {}
}