{
  "_format": "hh-sol-artifact-1",
  "contractName": "TimelockRewardDistributionTokenImpl",
  "sourceName": "contracts/solidity/token/TimelockRewardDistributionTokenImpl.sol",
  "abi": [
    {
      "anonymous": false,
      "inputs": [
        {
          "indexed": true,
          "internalType": "address",
          "name": "owner",
          "type": "address"
        },
        {
          "indexed": true,
          "internalType": "address",
          "name": "spender",
          "type": "address"
        },
        {
          "indexed": false,
          "internalType": "uint256",
          "name": "value",
          "type": "uint256"
        }
      ],
      "name": "Approval",
      "type": "event"
    },
    {
      "anonymous": false,
      "inputs": [
        {
          "indexed": true,
          "internalType": "address",
          "name": "previousOwner",
          "type": "address"
        },
        {
          "indexed": true,
          "internalType": "address",
          "name": "newOwner",
          "type": "address"
        }
      ],
      "name": "OwnershipTransferred",
      "type": "event"
    },
    {
      "anonymous": false,
      "inputs": [
        {
          "indexed": true,
          "internalType": "address",
          "name": "to",
          "type": "address"
        },
        {
          "indexed": false,
          "internalType": "uint256",
          "name": "weiAmount",
          "type": "uint256"
        }
      ],
      "name": "RewardWithdrawn",
      "type": "event"
    },
    {
      "anonymous": false,
      "inputs": [
        {
          "indexed": true,
          "internalType": "address",
          "name": "from",
          "type": "address"
        },
        {
          "indexed": false,
          "internalType": "uint256",
          "name": "weiAmount",
          "type": "uint256"
        }
      ],
      "name": "RewardsDistributed",
      "type": "event"
    },
    {
      "anonymous": false,
      "inputs": [
        {
          "indexed": false,
          "internalType": "address",
          "name": "user",
          "type": "address"
        },
        {
          "indexed": false,
          "internalType": "uint256",
          "name": "amount",
          "type": "uint256"
        },
        {
          "indexed": false,
          "internalType": "uint256",
          "name": "until",
          "type": "uint256"
        }
      ],
      "name": "Timelocked",
      "type": "event"
    },
    {
      "anonymous": false,
      "inputs": [
        {
          "indexed": true,
          "internalType": "address",
          "name": "from",
          "type": "address"
        },
        {
          "indexed": true,
          "internalType": "address",
          "name": "to",
          "type": "address"
        },
        {
          "indexed": false,
          "internalType": "uint256",
          "name": "value",
          "type": "uint256"
        }
      ],
      "name": "Transfer",
      "type": "event"
    },
    {
      "inputs": [
        {
          "internalType": "contract IERC20Upgradeable",
          "name": "_target",
          "type": "address"
        },
        {
          "internalType": "string",
          "name": "_name",
          "type": "string"
        },
        {
          "internalType": "string",
          "name": "_symbol",
          "type": "string"
        }
      ],
      "name": "__TimelockRewardDistributionToken_init",
      "outputs": [],
      "stateMutability": "nonpayable",
      "type": "function"
    },
    {
      "inputs": [
        {
          "internalType": "address",
          "name": "_owner",
          "type": "address"
        }
      ],
      "name": "accumulativeRewardOf",
      "outputs": [
        {
          "internalType": "uint256",
          "name": "",
          "type": "uint256"
        }
      ],
      "stateMutability": "view",
      "type": "function"
    },
    {
      "inputs": [
        {
          "internalType": "address",
          "name": "owner",
          "type": "address"
        },
        {
          "internalType": "address",
          "name": "spender",
          "type": "address"
        }
      ],
      "name": "allowance",
      "outputs": [
        {
          "internalType": "uint256",
          "name": "",
          "type": "uint256"
        }
      ],
      "stateMutability": "view",
      "type": "function"
    },
    {
      "inputs": [
        {
          "internalType": "address",
          "name": "spender",
          "type": "address"
        },
        {
          "internalType": "uint256",
          "name": "amount",
          "type": "uint256"
        }
      ],
      "name": "approve",
      "outputs": [
        {
          "internalType": "bool",
          "name": "",
          "type": "bool"
        }
      ],
      "stateMutability": "nonpayable",
      "type": "function"
    },
    {
      "inputs": [
        {
          "internalType": "address",
          "name": "account",
          "type": "address"
        }
      ],
      "name": "balanceOf",
      "outputs": [
        {
          "internalType": "uint256",
          "name": "",
          "type": "uint256"
        }
      ],
      "stateMutability": "view",
      "type": "function"
    },
    {
      "inputs": [
        {
          "internalType": "address",
          "name": "account",
          "type": "address"
        },
        {
          "internalType": "uint256",
          "name": "amount",
          "type": "uint256"
        }
      ],
      "name": "burnFrom",
      "outputs": [],
      "stateMutability": "nonpayable",
      "type": "function"
    },
    {
      "inputs": [],
      "name": "decimals",
      "outputs": [
        {
          "internalType": "uint8",
          "name": "",
          "type": "uint8"
        }
      ],
      "stateMutability": "view",
      "type": "function"
    },
    {
      "inputs": [
        {
          "internalType": "address",
          "name": "spender",
          "type": "address"
        },
        {
          "internalType": "uint256",
          "name": "subtractedValue",
          "type": "uint256"
        }
      ],
      "name": "decreaseAllowance",
      "outputs": [
        {
          "internalType": "bool",
          "name": "",
          "type": "bool"
        }
      ],
      "stateMutability": "nonpayable",
      "type": "function"
    },
    {
      "inputs": [
        {
          "internalType": "uint256",
          "name": "amount",
          "type": "uint256"
        }
      ],
      "name": "distributeRewards",
      "outputs": [],
      "stateMutability": "nonpayable",
      "type": "function"
    },
    {
      "inputs": [
        {
          "internalType": "address",
          "name": "_owner",
          "type": "address"
        }
      ],
      "name": "dividendOf",
      "outputs": [
        {
          "internalType": "uint256",
          "name": "",
          "type": "uint256"
        }
      ],
      "stateMutability": "view",
      "type": "function"
    },
    {
      "inputs": [
        {
          "internalType": "address",
          "name": "spender",
          "type": "address"
        },
        {
          "internalType": "uint256",
          "name": "addedValue",
          "type": "uint256"
        }
      ],
      "name": "increaseAllowance",
      "outputs": [
        {
          "internalType": "bool",
          "name": "",
          "type": "bool"
        }
      ],
      "stateMutability": "nonpayable",
      "type": "function"
    },
    {
      "inputs": [
        {
          "internalType": "address",
          "name": "account",
          "type": "address"
        },
        {
          "internalType": "uint256",
          "name": "amount",
          "type": "uint256"
        }
      ],
      "name": "mint",
      "outputs": [],
      "stateMutability": "nonpayable",
      "type": "function"
    },
    {
      "inputs": [],
      "name": "name",
      "outputs": [
        {
          "internalType": "string",
          "name": "",
          "type": "string"
        }
      ],
      "stateMutability": "view",
      "type": "function"
    },
    {
      "inputs": [],
      "name": "owner",
      "outputs": [
        {
          "internalType": "address",
          "name": "",
          "type": "address"
        }
      ],
      "stateMutability": "view",
      "type": "function"
    },
    {
      "inputs": [],
      "name": "renounceOwnership",
      "outputs": [],
      "stateMutability": "nonpayable",
      "type": "function"
    },
    {
      "inputs": [],
      "name": "symbol",
      "outputs": [
        {
          "internalType": "string",
          "name": "",
          "type": "string"
        }
      ],
      "stateMutability": "view",
      "type": "function"
    },
    {
      "inputs": [],
      "name": "target",
      "outputs": [
        {
          "internalType": "contract IERC20Upgradeable",
          "name": "",
          "type": "address"
        }
      ],
      "stateMutability": "view",
      "type": "function"
    },
    {
      "inputs": [
        {
          "internalType": "address",
          "name": "account",
          "type": "address"
        },
        {
          "internalType": "uint256",
          "name": "amount",
          "type": "uint256"
        },
        {
          "internalType": "uint256",
          "name": "timelockLength",
          "type": "uint256"
        }
      ],
      "name": "timelockMint",
      "outputs": [],
      "stateMutability": "nonpayable",
      "type": "function"
    },
    {
      "inputs": [
        {
          "internalType": "address",
          "name": "account",
          "type": "address"
        }
      ],
      "name": "timelockUntil",
      "outputs": [
        {
          "internalType": "uint256",
          "name": "",
          "type": "uint256"
        }
      ],
      "stateMutability": "view",
      "type": "function"
    },
    {
      "inputs": [],
      "name": "totalSupply",
      "outputs": [
        {
          "internalType": "uint256",
          "name": "",
          "type": "uint256"
        }
      ],
      "stateMutability": "view",
      "type": "function"
    },
    {
      "inputs": [
        {
          "internalType": "address",
          "name": "recipient",
          "type": "address"
        },
        {
          "internalType": "uint256",
          "name": "amount",
          "type": "uint256"
        }
      ],
      "name": "transfer",
      "outputs": [
        {
          "internalType": "bool",
          "name": "",
          "type": "bool"
        }
      ],
      "stateMutability": "nonpayable",
      "type": "function"
    },
    {
      "inputs": [
        {
          "internalType": "address",
          "name": "sender",
          "type": "address"
        },
        {
          "internalType": "address",
          "name": "recipient",
          "type": "address"
        },
        {
          "internalType": "uint256",
          "name": "amount",
          "type": "uint256"
        }
      ],
      "name": "transferFrom",
      "outputs": [
        {
          "internalType": "bool",
          "name": "",
          "type": "bool"
        }
      ],
      "stateMutability": "nonpayable",
      "type": "function"
    },
    {
      "inputs": [
        {
          "internalType": "address",
          "name": "newOwner",
          "type": "address"
        }
      ],
      "name": "transferOwnership",
      "outputs": [],
      "stateMutability": "nonpayable",
      "type": "function"
    },
    {
      "inputs": [
        {
          "internalType": "address",
          "name": "user",
          "type": "address"
        }
      ],
      "name": "withdrawReward",
      "outputs": [],
      "stateMutability": "nonpayable",
      "type": "function"
    },
    {
      "inputs": [
        {
          "internalType": "address",
          "name": "_owner",
          "type": "address"
        }
      ],
      "name": "withdrawnRewardOf",
      "outputs": [
        {
          "internalType": "uint256",
          "name": "",
          "type": "uint256"
        }
      ],
      "stateMutability": "view",
      "type": "function"
    }
  ],
  "bytecode": "0x608060405234801561001057600080fd5b50611e91806100206000396000f3fe608060405234801561001057600080fd5b50600436106101735760003560e01c806379cc6790116100de578063a9059cbb11610097578063c19ea05311610071578063c19ea05314610347578063d4b8399214610370578063dd62ed3e14610383578063f2fde38b146103bc57600080fd5b8063a9059cbb146102f8578063ad76d6861461030b578063b86e321c1461033457600080fd5b806379cc67901461027f5780638da5cb5b1461029257806391b89fba146102b757806395d89b41146102ca5780639f63df1f146102d2578063a457c2d7146102e557600080fd5b8063313ce56711610130578063313ce56714610206578063395093511461021557806340c10f191461022857806359974e381461023b57806370a082311461024e578063715018a61461027757600080fd5b806305b3ccb41461017857806306fdde031461019e578063095ea7b3146101b357806318160ddd146101d657806323b872dd146101de57806328bcc25e146101f1575b600080fd5b61018b6101863660046119a9565b6103cf565b6040519081526020015b60405180910390f35b6101a6610432565b60405161019591906119f2565b6101c66101c1366004611a25565b6104c4565b6040519015158152602001610195565b60675461018b565b6101c66101ec366004611a51565b6104da565b6102046101ff366004611a92565b61052a565b005b60405160128152602001610195565b6101c6610223366004611a25565b6105d7565b610204610236366004611a25565b61060e565b610204610249366004611ac7565b610646565b61018b61025c3660046119a9565b6001600160a01b031660009081526065602052604090205490565b61020461076e565b61020461028d366004611a25565b6107e2565b6033546001600160a01b03165b6040516001600160a01b039091168152602001610195565b61018b6102c53660046119a9565b610816565b6101a6610821565b6102046102e0366004611b83565b610830565b6101c66102f3366004611a25565b6108cb565b6101c6610306366004611a25565b61095c565b61018b6103193660046119a9565b6001600160a01b03166000908152609a602052604090205490565b6102046103423660046119a9565b610969565b61018b6103553660046119a9565b6001600160a01b03166000908152609b602052604090205490565b60975461029f906001600160a01b031681565b61018b610391366004611bf9565b6001600160a01b03918216600090815260666020908152604080832093909416825291909152205490565b6102046103ca3660046119a9565b610a3c565b6001600160a01b0381166000908152609960209081526040808320546065909252822054609854600160801b926104229261041d92610417916104129190610b27565b610b33565b90610b9d565b610bdb565b61042c9190611c48565b92915050565b60606068805461044190611c6a565b80601f016020809104026020016040519081016040528092919081815260200182805461046d90611c6a565b80156104ba5780601f1061048f576101008083540402835291602001916104ba565b820191906000526020600020905b81548152906001019060200180831161049d57829003601f168201915b5050505050905090565b60006104d1338484610bea565b50600192915050565b60006104e7848484610d0f565b61051f843361051a85604051806060016040528060288152602001611e34602891396105138a33610391565b9190610e00565b610bea565b5060015b9392505050565b6033546001600160a01b0316331461055d5760405162461bcd60e51b815260040161055490611ca4565b60405180910390fd5b60006105698242611cd9565b6001600160a01b0385166000818152609b60209081526040918290208490558151928352820186905281018290529091507fe1d6ea7b60537f263509ee48f8e298cc60801e7bddbec613b343272d897dc5e79060600160405180910390a16105d18484610e2c565b50505050565b3360008181526066602090815260408083206001600160a01b038716845290915281205490916104d191859061051a908690611cd9565b6033546001600160a01b031633146106385760405162461bcd60e51b815260040161055490611ca4565b6106428282610e2c565b5050565b6033546001600160a01b031633146106705760405162461bcd60e51b815260040161055490611ca4565b600061067b60675490565b116106bf5760405162461bcd60e51b8152602060048201526014602482015273526577617264446973743a203020737570706c7960601b6044820152606401610554565b600081116107065760405162461bcd60e51b815260206004820152601460248201527314995dd85c99111a5cdd0e880c08185b5bdd5b9d60621b6044820152606401610554565b61073361071260675490565b61072083600160801b610b27565b61072a9190611c48565b60985490610e90565b60985560405181815233907fdf29796aad820e4bb192f3a8d631b76519bcd2cbe77cc85af20e9df53cece0869060200160405180910390a250565b6033546001600160a01b031633146107985760405162461bcd60e51b815260040161055490611ca4565b6033546040516000916001600160a01b0316907f8be0079c531659141344cd1fd0a4f28419497f9722a3daafe3b4186f6b6457e0908390a3603380546001600160a01b0319169055565b6033546001600160a01b0316331461080c5760405162461bcd60e51b815260040161055490611ca4565b6106428282610e9c565b600061042c82610f35565b60606069805461044190611c6a565b600054610100900460ff1680610849575060005460ff16155b6108655760405162461bcd60e51b815260040161055490611cf1565b600054610100900460ff16158015610887576000805461ffff19166101011790555b61088f610f61565b6108998383610fdd565b609780546001600160a01b0319166001600160a01b03861617905580156105d1576000805461ff001916905550505050565b3360009081526066602090815260408083206001600160a01b03861684529091528120548281101561094d5760405162461bcd60e51b815260206004820152602560248201527f45524332303a2064656372656173656420616c6c6f77616e63652062656c6f77604482015264207a65726f60d81b6064820152608401610554565b61051f338561051a8685611d3f565b60006104d1338484610d0f565b6033546001600160a01b031633146109935760405162461bcd60e51b815260040161055490611ca4565b600061099e82610f35565b90508015610642576001600160a01b0382166000908152609a60205260409020546109c99082610e90565b6001600160a01b038084166000908152609a60205260409020919091556097546109f59116838361105d565b816001600160a01b03167f1d3eee4ca001cff39eec6ec7615aacf2f2bd61791273830728ba00ccbd6e133782604051610a3091815260200190565b60405180910390a25050565b6033546001600160a01b03163314610a665760405162461bcd60e51b815260040161055490611ca4565b6001600160a01b038116610acb5760405162461bcd60e51b815260206004820152602660248201527f4f776e61626c653a206e6577206f776e657220697320746865207a65726f206160448201526564647265737360d01b6064820152608401610554565b6033546040516001600160a01b038084169216907f8be0079c531659141344cd1fd0a4f28419497f9722a3daafe3b4186f6b6457e090600090a3603380546001600160a01b0319166001600160a01b0392909216919091179055565b60006105238284611d56565b6000600160ff1b8210610b995760405162461bcd60e51b815260206004820152602860248201527f53616665436173743a2076616c756520646f65736e27742066697420696e2061604482015267371034b73a191a9b60c11b6064820152608401610554565b5090565b600080610baa8385611d75565b905060008312158015610bbd5750838112155b80610bd25750600083128015610bd257508381125b61052357600080fd5b600080821215610b9957600080fd5b6001600160a01b038316610c4c5760405162461bcd60e51b8152602060048201526024808201527f45524332303a20617070726f76652066726f6d20746865207a65726f206164646044820152637265737360e01b6064820152608401610554565b6001600160a01b038216610cad5760405162461bcd60e51b815260206004820152602260248201527f45524332303a20617070726f766520746f20746865207a65726f206164647265604482015261737360f01b6064820152608401610554565b6001600160a01b0383811660008181526066602090815260408083209487168084529482529182902085905590518481527f8c5be1e5ebec7d5bd14f71427d1e84f3dd0314c0f7b2291e5b200ac8c7c3b92591015b60405180910390a3505050565b6001600160a01b0383166000908152609b60205260409020544211610d645760405162461bcd60e51b815260206004820152600b60248201526a155cd95c881b1bd8dad95960aa1b6044820152606401610554565b610d6f8383836110af565b6000610d8961041283609854610b2790919063ffffffff16565b6001600160a01b038516600090815260996020526040902054909150610daf9082610b9d565b6001600160a01b038086166000908152609960205260408082209390935590851681522054610dde9082611287565b6001600160a01b03909316600090815260996020526040902092909255505050565b60008184841115610e245760405162461bcd60e51b815260040161055491906119f2565b505050900390565b610e3682826112d3565b610e70610e5161041283609854610b2790919063ffffffff16565b6001600160a01b03841660009081526099602052604090205490611287565b6001600160a01b0390921660009081526099602052604090209190915550565b60006105238284611cd9565b6001600160a01b0382166000908152609b60205260409020544211610ef15760405162461bcd60e51b815260206004820152600b60248201526a155cd95c881b1bd8dad95960aa1b6044820152606401610554565b610efb82826113b2565b610e70610f1661041283609854610b2790919063ffffffff16565b6001600160a01b03841660009081526099602052604090205490610b9d565b6001600160a01b0381166000908152609a602052604081205461042c90610f5b846103cf565b90611501565b600054610100900460ff1680610f7a575060005460ff16155b610f965760405162461bcd60e51b815260040161055490611cf1565b600054610100900460ff16158015610fb8576000805461ffff19166101011790555b610fc061150d565b610fc8611577565b8015610fda576000805461ff00191690555b50565b600054610100900460ff1680610ff6575060005460ff16155b6110125760405162461bcd60e51b815260040161055490611cf1565b600054610100900460ff16158015611034576000805461ffff19166101011790555b61103c61150d565b6110468383611625565b8015611058576000805461ff00191690555b505050565b604080516001600160a01b038416602482015260448082018490528251808303909101815260649091019091526020810180516001600160e01b031663a9059cbb60e01b1790526110589084906116ba565b6001600160a01b0383166111135760405162461bcd60e51b815260206004820152602560248201527f45524332303a207472616e736665722066726f6d20746865207a65726f206164604482015264647265737360d81b6064820152608401610554565b6001600160a01b0382166111755760405162461bcd60e51b815260206004820152602360248201527f45524332303a207472616e7366657220746f20746865207a65726f206164647260448201526265737360e81b6064820152608401610554565b6001600160a01b038316600090815260656020526040902054818110156111ed5760405162461bcd60e51b815260206004820152602660248201527f45524332303a207472616e7366657220616d6f756e7420657863656564732062604482015265616c616e636560d01b6064820152608401610554565b6111f78282611d3f565b6001600160a01b03808616600090815260656020526040808220939093559085168152908120805484929061122d908490611cd9565b92505081905550826001600160a01b0316846001600160a01b03167fddf252ad1be2c89b69c2b068fc378daa952ba7f163c4a11628f55a4df523b3ef8460405161127991815260200190565b60405180910390a350505050565b60008082121580156112a257508261129f8382611db6565b13155b806112c057506000821280156112c05750826112be8382611db6565b135b6112c957600080fd5b6105238284611db6565b6001600160a01b0382166113295760405162461bcd60e51b815260206004820152601f60248201527f45524332303a206d696e7420746f20746865207a65726f2061646472657373006044820152606401610554565b806067600082825461133b9190611cd9565b90915550506001600160a01b03821660009081526065602052604081208054839290611368908490611cd9565b90915550506040518181526001600160a01b038316906000907fddf252ad1be2c89b69c2b068fc378daa952ba7f163c4a11628f55a4df523b3ef9060200160405180910390a35050565b6001600160a01b0382166114125760405162461bcd60e51b815260206004820152602160248201527f45524332303a206275726e2066726f6d20746865207a65726f206164647265736044820152607360f81b6064820152608401610554565b6001600160a01b038216600090815260656020526040902054818110156114865760405162461bcd60e51b815260206004820152602260248201527f45524332303a206275726e20616d6f756e7420657863656564732062616c616e604482015261636560f01b6064820152608401610554565b6114908282611d3f565b6001600160a01b038416600090815260656020526040812091909155606780548492906114be908490611d3f565b90915550506040518281526000906001600160a01b038516907fddf252ad1be2c89b69c2b068fc378daa952ba7f163c4a11628f55a4df523b3ef90602001610d02565b60006105238284611d3f565b600054610100900460ff1680611526575060005460ff16155b6115425760405162461bcd60e51b815260040161055490611cf1565b600054610100900460ff16158015610fc8576000805461ffff19166101011790558015610fda576000805461ff001916905550565b600054610100900460ff1680611590575060005460ff16155b6115ac5760405162461bcd60e51b815260040161055490611cf1565b600054610100900460ff161580156115ce576000805461ffff19166101011790555b603380546001600160a01b0319163390811790915560405181906000907f8be0079c531659141344cd1fd0a4f28419497f9722a3daafe3b4186f6b6457e0908290a3508015610fda576000805461ff001916905550565b600054610100900460ff168061163e575060005460ff16155b61165a5760405162461bcd60e51b815260040161055490611cf1565b600054610100900460ff1615801561167c576000805461ffff19166101011790555b825161168f906068906020860190611904565b5081516116a3906069906020850190611904565b508015611058576000805461ff0019169055505050565b600061170f826040518060400160405280602081526020017f5361666545524332303a206c6f772d6c6576656c2063616c6c206661696c6564815250856001600160a01b031661178c9092919063ffffffff16565b805190915015611058578080602001905181019061172d9190611df5565b6110585760405162461bcd60e51b815260206004820152602a60248201527f5361666545524332303a204552433230206f7065726174696f6e20646964206e6044820152691bdd081cdd58d8d9595960b21b6064820152608401610554565b606061179b84846000856117a3565b949350505050565b6060824710156118045760405162461bcd60e51b815260206004820152602660248201527f416464726573733a20696e73756666696369656e742062616c616e636520666f6044820152651c8818d85b1b60d21b6064820152608401610554565b843b6118525760405162461bcd60e51b815260206004820152601d60248201527f416464726573733a2063616c6c20746f206e6f6e2d636f6e74726163740000006044820152606401610554565b600080866001600160a01b0316858760405161186e9190611e17565b60006040518083038185875af1925050503d80600081146118ab576040519150601f19603f3d011682016040523d82523d6000602084013e6118b0565b606091505b50915091506118c08282866118cb565b979650505050505050565b606083156118da575081610523565b8251156118ea5782518084602001fd5b8160405162461bcd60e51b815260040161055491906119f2565b82805461191090611c6a565b90600052602060002090601f0160209004810192826119325760008555611978565b82601f1061194b57805160ff1916838001178555611978565b82800160010185558215611978579182015b8281111561197857825182559160200191906001019061195d565b50610b999291505b80821115610b995760008155600101611980565b6001600160a01b0381168114610fda57600080fd5b6000602082840312156119bb57600080fd5b813561052381611994565b60005b838110156119e15781810151838201526020016119c9565b838111156105d15750506000910152565b6020815260008251806020840152611a118160408501602087016119c6565b601f01601f19169190910160400192915050565b60008060408385031215611a3857600080fd5b8235611a4381611994565b946020939093013593505050565b600080600060608486031215611a6657600080fd5b8335611a7181611994565b92506020840135611a8181611994565b929592945050506040919091013590565b600080600060608486031215611aa757600080fd5b8335611ab281611994565b95602085013595506040909401359392505050565b600060208284031215611ad957600080fd5b5035919050565b634e487b7160e01b600052604160045260246000fd5b600082601f830112611b0757600080fd5b813567ffffffffffffffff80821115611b2257611b22611ae0565b604051601f8301601f19908116603f01168101908282118183101715611b4a57611b4a611ae0565b81604052838152866020858801011115611b6357600080fd5b836020870160208301376000602085830101528094505050505092915050565b600080600060608486031215611b9857600080fd5b8335611ba381611994565b9250602084013567ffffffffffffffff80821115611bc057600080fd5b611bcc87838801611af6565b93506040860135915080821115611be257600080fd5b50611bef86828701611af6565b9150509250925092565b60008060408385031215611c0c57600080fd5b8235611c1781611994565b91506020830135611c2781611994565b809150509250929050565b634e487b7160e01b600052601160045260246000fd5b600082611c6557634e487b7160e01b600052601260045260246000fd5b500490565b600181811c90821680611c7e57607f821691505b602082108103611c9e57634e487b7160e01b600052602260045260246000fd5b50919050565b6020808252818101527f4f776e61626c653a2063616c6c6572206973206e6f7420746865206f776e6572604082015260600190565b60008219821115611cec57611cec611c32565b500190565b6020808252602e908201527f496e697469616c697a61626c653a20636f6e747261637420697320616c72656160408201526d191e481a5b9a5d1a585b1a5e995960921b606082015260800190565b600082821015611d5157611d51611c32565b500390565b6000816000190483118215151615611d7057611d70611c32565b500290565b600080821280156001600160ff1b0384900385131615611d9757611d97611c32565b600160ff1b8390038412811615611db057611db0611c32565b50500190565b60008083128015600160ff1b850184121615611dd457611dd4611c32565b6001600160ff1b0384018313811615611def57611def611c32565b50500390565b600060208284031215611e0757600080fd5b8151801515811461052357600080fd5b60008251611e298184602087016119c6565b919091019291505056fe45524332303a207472616e7366657220616d6f756e74206578636565647320616c6c6f77616e6365a26469706673582212208e6da87de22f3dd1f2b266ff2b7105ae2b6b3ee86ce48657a57c83d63e4a894664736f6c634300080d0033",
  "linkReferences": {},
  "deployedLinkReferences": {}
}