{
  "_format": "hh-sol-artifact-1",
  "contractName": "FlashRedeem",
  "sourceName": "contracts/src/FlashRedeem.sol",
  "abi": [
    {
      "inputs": [],
      "stateMutability": "nonpayable",
      "type": "constructor"
    },
    {
      "anonymous": false,
      "inputs": [
        {
          "indexed": false,
          "internalType": "address",
          "name": "",
          "type": "address"
        },
        {
          "indexed": false,
          "internalType": "uint256",
          "name": "",
          "type": "uint256"
        }
      ],
      "name": "Received",
      "type": "event"
    },
    {
      "inputs": [
        {
          "internalType": "address",
          "name": "token",
          "type": "address"
        },
        {
          "internalType": "uint256",
          "name": "amount",
          "type": "uint256"
        }
      ],
      "name": "flashBorrow",
      "outputs": [],
      "stateMutability": "payable",
      "type": "function"
    },
    {
      "inputs": [
        {
          "internalType": "address",
          "name": "operator",
          "type": "address"
        },
        {
          "internalType": "address",
          "name": "from",
          "type": "address"
        },
        {
          "internalType": "uint256",
          "name": "tokenId",
          "type": "uint256"
        },
        {
          "internalType": "bytes",
          "name": "data",
          "type": "bytes"
        }
      ],
      "name": "onERC721Received",
      "outputs": [
        {
          "internalType": "bytes4",
          "name": "",
          "type": "bytes4"
        }
      ],
      "stateMutability": "nonpayable",
      "type": "function"
    },
    {
      "inputs": [
        {
          "internalType": "address",
          "name": "initiator",
          "type": "address"
        },
        {
          "internalType": "address",
          "name": "token",
          "type": "address"
        },
        {
          "internalType": "uint256",
          "name": "amount",
          "type": "uint256"
        },
        {
          "internalType": "uint256",
          "name": "fee",
          "type": "uint256"
        },
        {
          "internalType": "bytes",
          "name": "data",
          "type": "bytes"
        }
      ],
      "name": "onFlashLoan",
      "outputs": [
        {
          "internalType": "bytes32",
          "name": "",
          "type": "bytes32"
        }
      ],
      "stateMutability": "nonpayable",
      "type": "function"
    },
    {
      "stateMutability": "payable",
      "type": "receive"
    }
  ],
  "bytecode": "0x6080604052600080546001600160a01b0319908116738a90cab2b38dba80c64b7734e58ee1db38b8992e908117909255600180548216732f131c4dad4be81683abb966b4de05a54914444390811790915560028054831673466cfcd0525189b573e794f554b8a751279213ac90811790915560038054841673d9e1ce17f2641f24ae83637ab66a2cca9c378b9f90811790915560048054851673c02aaa39b223fe8d0a0e5c4f27ead9083c756cc2908117909155600580548616734d6d117bf2fd1ffc790b95c219f4fa7e338d31721790556007805486168517905560088054861690961790955560098054851683179055600a8054851684179055600b80548516909517909455600c80548416909217909155600d805483169091179055600e8054909116909117905534801561013657600080fd5b5061191c806101466000396000f3fe6080604052600436106100385760003560e01c8063150b7a021461007c57806323e30c8b146100ba578063b53e4885146100e857600080fd5b3661007757604080513381523460208201527f88a5966d370b9919b20f3e2c13ff65706f196a4e32cc2c12bf57088f88525874910160405180910390a1005b600080fd5b34801561008857600080fd5b5061009c61009736600461139c565b6100fd565b6040516001600160e01b031990911681526020015b60405180910390f35b3480156100c657600080fd5b506100da6100d536600461140f565b6101b5565b6040519081526020016100b1565b6100fb6100f636600461148b565b610d11565b005b6001546000906001600160a01b039081169086160361018a57600680546001810182556000919091527ff652222313e28459528d920b65115c16c04f3efc82aaedc97be59f3f377c0d3f0184905560408051808201909152601b81527f52657061796d656e7420646f6f646c657320746f6b656e49643a200000000000602082015261018a9085876111ff565b507f150b7a023d4804d13e8c85fb27262cb750cf6ba9f9dd3bb30d90f482ceeb4b1f95945050505050565b600c546000906001600160a01b031633146102175760405162461bcd60e51b815260206004820152601f60248201527f466c617368426f72726f7765723a20556e74727573746564206c656e6465720060448201526064015b60405180910390fd5b6001600160a01b038716301461027f5760405162461bcd60e51b815260206004820152602760248201527f466c617368426f72726f7765723a20556e74727573746564206c6f616e20696e60448201526634ba34b0ba37b960c91b606482015260840161020e565b60408051808201825260208082527f4e657720444f4f444c4553204e46545820746f6b656e2062616c616e63653a209082015260075491516370a0823160e01b8152306004820152610325926001600160a01b0316906370a08231906024015b602060405180830381865afa1580156102fc573d6000803e3d6000fd5b505050506040513d601f19601f8201168201806040525081019061032091906114b7565b61124b565b600a80546040516362506dcb60e11b81526060926001600160a01b039092169163c4a0db969161035a9190859060040161150b565b6000604051808303816000875af1158015610379573d6000803e3d6000fd5b505050506040513d6000823e601f3d908101601f191682016040526103a19190810190611542565b50604080518082018252601f81527f4e657720444f4f444c4553204e465420746f6b656e2062616c616e63653a2000602082015260085491516370a0823160e01b8152306004820152610406926001600160a01b0316906370a08231906024016102df565b600d60009054906101000a90046001600160a01b03166001600160a01b0316634e71d92d6040518163ffffffff1660e01b8152600401600060405180830381600087803b15801561045657600080fd5b505af115801561046a573d6000803e3d6000fd5b5050604080518082018252601981527f4e657720446f6f706c696361746f722062616c616e63653a2000000000000000602082015260095491516370a0823160e01b81523060048201526104d694509092506001600160a01b03909116906370a08231906024016102df565b60408051808201909152601a81527f52657061796d656e7420646f6f646c6573206c656e6774683a200000000000006020820152600654610517919061124b565b6008546001805460405163a22cb46560e01b81526001600160a01b03918216600482015260248101929092529091169063a22cb46590604401600060405180830381600087803b15801561056a57600080fd5b505af115801561057e573d6000803e3d6000fd5b5050505060005b60065481101561088d576105e16040518060400160405280601381526020017202932b830bcb6b2b73a103237b7b23632b99d1606d1b815250600683815481106105d1576105d1611600565b906000526020600020015461124b565b604080518082019091526011815270027bbb732b937b3103237b7b23632b99d1607d1b6020820152600854600680546106a493926001600160a01b031691636352211e918690811061063557610635611600565b90600052602060002001546040518263ffffffff1660e01b815260040161065e91815260200190565b602060405180830381865afa15801561067b573d6000803e3d6000fd5b505050506040513d601f19601f8201168201806040525081019061069f9190611616565b611294565b6106d46040518060400160405280600e81526020016d02a3434b99030b2323932b9b99d160951b81525030611294565b6040805180820182526012815271024b99030b8383937bb32903a3434b9901d160751b6020820152600854600154925163e985e9c560e01b81523060048201526001600160a01b03938416602482015261077c939091169063e985e9c5906044015b602060405180830381865afa158015610753573d6000803e3d6000fd5b505050506040513d601f19601f82011682018060405250810190610777919061163a565b6112d9565b600854600154600680546001600160a01b039384169363095ea7b393169190859081106107ab576107ab611600565b6000918252602090912001546040516001600160e01b031960e085901b1681526001600160a01b0390921660048301526024820152604401600060405180830381600087803b1580156107fd57600080fd5b505af1158015610811573d6000803e3d6000fd5b5050505061087b6040518060400160405280601381526020017202932b830bcb6b2b73a103237b7b23632b99d1606d1b815250600860009054906101000a90046001600160a01b03166001600160a01b031663081812fc6006858154811061063557610635611600565b8061088581611672565b915050610585565b50604080518082018252600d81526c024b99030b8383937bb32901d1609d1b6020820152600854600154925163e985e9c560e01b81523060048201526001600160a01b0393841660248201526060936108f19392169063e985e9c590604401610736565b600a54604051630f57464360e21b81526001600160a01b0390911690633d5d190c9061092490600690859060040161168b565b6020604051808303816000875af1158015610943573d6000803e3d6000fd5b505050506040513d601f19601f8201168201806040525081019061096791906114b7565b50604080518082018252600d81526c024b99030b8383937bb32901d1609d1b6020820152600854600154925163e985e9c560e01b81523060048201526001600160a01b0393841660248201526109c9939091169063e985e9c590604401610736565b604080516002808252606082018352600092602083019080368337505060015482519293506001600160a01b031691839150600090610a0a57610a0a611600565b6001600160a01b03928316602091820292909201810191909152600e54604080516315ab88c960e31b81529051919093169263ad5c46489260048083019391928290030181865afa158015610a63573d6000803e3d6000fd5b505050506040513d601f19601f82011682018060405250810190610a879190611616565b81600181518110610a9a57610a9a611600565b6001600160a01b0392831660209182029290920101526007546040516370a0823160e01b81523060048201526000928b9216906370a0823190602401602060405180830381865afa158015610af3573d6000803e3d6000fd5b505050506040513d601f19601f82011682018060405250810190610b1791906114b7565b610b2191906116ea565b9050610b626040518060400160405280601981526020017f657863657373446f6f646c65734e667478546f6b656e733a20000000000000008152508261124b565b8015610ce157610ba76040518060400160405280601981526020017f4554482062616c616e6365206265666f726520737761703a20000000000000008152504761124b565b60075460035460405163095ea7b360e01b81526001600160a01b0391821660048201526024810184905291169063095ea7b3906044016020604051808303816000875af1158015610bfc573d6000803e3d6000fd5b505050506040513d601f19601f82011682018060405250810190610c20919061163a565b50600e546040516318cbafe560e01b81526001600160a01b03909116906318cbafe590610c5a90849060009087903090429060040161173a565b6000604051808303816000875af1158015610c79573d6000803e3d6000fd5b505050506040513d6000823e601f3d908101601f19168201604052610ca19190810190611542565b50610ce16040518060400160405280601881526020017f4554482062616c616e636520616674657220737761703a2000000000000000008152504761124b565b507f439148f0bbc682ca079e46d6e2c2f0c1e3b820f1a291b069d8882abf8cf18dd99a9950505050505050505050565b6040805160028082526060820183526000926020830190803683375050600e54604080516315ab88c960e31b815290519394506001600160a01b039091169263ad5c4648925060048083019260209291908290030181865afa158015610d7b573d6000803e3d6000fd5b505050506040513d601f19601f82011682018060405250810190610d9f9190611616565b81600081518110610db257610db2611600565b6001600160a01b0392831660209182029290920101526001805483519216918391908110610de257610de2611600565b6001600160a01b03928316602091820292909201810191909152604080518082018252601a81527f4e4654582062616c616e6365206265666f726520737761703a2000000000000092810192909252516370a0823160e01b8152306004820152610e57928616906370a08231906024016102df565b600e5460405163fb3bdb4160e01b81526001600160a01b039091169063fb3bdb41903490610e97906706f05b59d3b2000090869030904290600401611776565b60006040518083038185885af1158015610eb5573d6000803e3d6000fd5b50505050506040513d6000823e601f3d908101601f19168201604052610ede9190810190611542565b50604080518082018252601981527f4e4654582062616c616e636520616674657220737761703a2000000000000000602082015290516370a0823160e01b8152306004820152610f4291906001600160a01b038616906370a08231906024016102df565b600c54604051636eb1769f60e11b81523060048201526001600160a01b03918216602482015260009185169063dd62ed3e90604401602060405180830381865afa158015610f94573d6000803e3d6000fd5b505050506040513d601f19601f82011682018060405250810190610fb891906114b7565b600c54604051633676633960e21b81526001600160a01b038781166004830152602482018790529293506000929091169063d9d98ce490604401602060405180830381865afa15801561100f573d6000803e3d6000fd5b505050506040513d601f19601f8201168201806040525081019061103391906114b7565b9050600061104182866117ab565b600c549091506001600160a01b038088169163095ea7b3911661106484876117ab565b6040516001600160e01b031960e085901b1681526001600160a01b03909216600483015260248201526044016020604051808303816000875af11580156110af573d6000803e3d6000fd5b505050506040513d601f19601f820116820180604052508101906110d3919061163a565b5060408051808201909152600a815269616d6f756e742b66656560b01b60208201526111039061032083866117ab565b604080518082018252600a8152693130b630b731b29037b360b11b602082015290516370a0823160e01b815230600482015261115391906001600160a01b038916906370a08231906024016102df565b600c546001600160a01b0316635cffe9de30888860006040519080825280601f01601f191660200182016040528015611193576020820181803683370190505b506040518563ffffffff1660e01b81526004016111b39493929190611810565b6020604051808303816000875af11580156111d2573d6000803e3d6000fd5b505050506040513d601f19601f820116820180604052508101906111f6919061163a565b50505050505050565b61124683838360405160240161121793929190611843565b60408051601f198184030181529190526020810180516001600160e01b031663e3849f7960e01b17905261131a565b505050565b6112908282604051602401611261929190611876565b60408051601f198184030181529190526020810180516001600160e01b03166309710a9d60e41b17905261131a565b5050565b61129082826040516024016112aa929190611898565b60408051601f198184030181529190526020810180516001600160e01b031663319af33360e01b17905261131a565b61129082826040516024016112ef9291906118c2565b60408051601f198184030181529190526020810180516001600160e01b031663c3b5563560e01b1790525b80516a636f6e736f6c652e6c6f67602083016000808483855afa5050505050565b6001600160a01b038116811461135057600080fd5b50565b60008083601f84011261136557600080fd5b50813567ffffffffffffffff81111561137d57600080fd5b60208301915083602082850101111561139557600080fd5b9250929050565b6000806000806000608086880312156113b457600080fd5b85356113bf8161133b565b945060208601356113cf8161133b565b935060408601359250606086013567ffffffffffffffff8111156113f257600080fd5b6113fe88828901611353565b969995985093965092949392505050565b60008060008060008060a0878903121561142857600080fd5b86356114338161133b565b955060208701356114438161133b565b94506040870135935060608701359250608087013567ffffffffffffffff81111561146d57600080fd5b61147989828a01611353565b979a9699509497509295939492505050565b6000806040838503121561149e57600080fd5b82356114a98161133b565b946020939093013593505050565b6000602082840312156114c957600080fd5b5051919050565b600081518084526020808501945080840160005b83811015611500578151875295820195908201906001016114e4565b509495945050505050565b82815260406020820152600061152460408301846114d0565b949350505050565b634e487b7160e01b600052604160045260246000fd5b6000602080838503121561155557600080fd5b825167ffffffffffffffff8082111561156d57600080fd5b818501915085601f83011261158157600080fd5b8151818111156115935761159361152c565b8060051b604051601f19603f830116810181811085821117156115b8576115b861152c565b6040529182528482019250838101850191888311156115d657600080fd5b938501935b828510156115f4578451845293850193928501926115db565b98975050505050505050565b634e487b7160e01b600052603260045260246000fd5b60006020828403121561162857600080fd5b81516116338161133b565b9392505050565b60006020828403121561164c57600080fd5b8151801515811461163357600080fd5b634e487b7160e01b600052601160045260246000fd5b6000600182016116845761168461165c565b5060010190565b6000604082016040835280855480835260608501915086600052602092508260002060005b828110156116cc578154845292840192600191820191016116b0565b505050838103828501526116e081866114d0565b9695505050505050565b6000828210156116fc576116fc61165c565b500390565b600081518084526020808501945080840160005b838110156115005781516001600160a01b031687529582019590820190600101611715565b85815284602082015260a06040820152600061175960a0830186611701565b6001600160a01b0394909416606083015250608001529392505050565b84815260806020820152600061178f6080830186611701565b6001600160a01b03949094166040830152506060015292915050565b600082198211156117be576117be61165c565b500190565b6000815180845260005b818110156117e9576020818501810151868301820152016117cd565b818111156117fb576000602083870101525b50601f01601f19169290920160200192915050565b6001600160a01b03858116825284166020820152604081018390526080606082018190526000906116e0908301846117c3565b60608152600061185660608301866117c3565b6020830194909452506001600160a01b0391909116604090910152919050565b60408152600061188960408301856117c3565b90508260208301529392505050565b6040815260006118ab60408301856117c3565b905060018060a01b03831660208301529392505050565b6040815260006118d560408301856117c3565b90508215156020830152939250505056fea26469706673582212204b5e42b532fab8da09c30d5c853af4d83a578b052ee0a71858b4fafaadd2ab6764736f6c634300080d0033",
  "linkReferences": {},
  "deployedLinkReferences": {}
}