{
  "_format": "hh-sol-artifact-1",
  "contractName": "MockDistributor",
  "sourceName": "contracts/solidity/testing/MockDistributor.sol",
  "abi": [
    {
      "anonymous": false,
      "inputs": [
        {
          "indexed": true,
          "internalType": "address",
          "name": "previousOwner",
          "type": "address"
        },
        {
          "indexed": true,
          "internalType": "address",
          "name": "newOwner",
          "type": "address"
        }
      ],
      "name": "OwnershipTransferred",
      "type": "event"
    },
    {
      "inputs": [],
      "name": "__MockDistributor_init",
      "outputs": [],
      "stateMutability": "nonpayable",
      "type": "function"
    },
    {
      "inputs": [
        {
          "internalType": "uint256",
          "name": "vaultId",
          "type": "uint256"
        }
      ],
      "name": "distribute",
      "outputs": [],
      "stateMutability": "nonpayable",
      "type": "function"
    },
    {
      "inputs": [
        {
          "internalType": "uint256",
          "name": "vaultId",
          "type": "uint256"
        }
      ],
      "name": "initializeVaultReceivers",
      "outputs": [],
      "stateMutability": "nonpayable",
      "type": "function"
    },
    {
      "inputs": [],
      "name": "owner",
      "outputs": [
        {
          "internalType": "address",
          "name": "",
          "type": "address"
        }
      ],
      "stateMutability": "view",
      "type": "function"
    },
    {
      "inputs": [],
      "name": "renounceOwnership",
      "outputs": [],
      "stateMutability": "nonpayable",
      "type": "function"
    },
    {
      "inputs": [
        {
          "internalType": "address",
          "name": "newOwner",
          "type": "address"
        }
      ],
      "name": "transferOwnership",
      "outputs": [],
      "stateMutability": "nonpayable",
      "type": "function"
    },
    {
      "inputs": [
        {
          "internalType": "address",
          "name": "token",
          "type": "address"
        }
      ],
      "name": "withdrawTokens",
      "outputs": [],
      "stateMutability": "nonpayable",
      "type": "function"
    }
  ],
  "bytecode": "0x608060405234801561001057600080fd5b5061063a806100206000396000f3fe608060405234801561001057600080fd5b506004361061007d5760003560e01c80638da5cb5b1161005b5780638da5cb5b146100b057806391c05b0b14610082578063bfd7d2d2146100cf578063f2fde38b146100d757600080fd5b806319d3d2a41461008257806349df728c14610095578063715018a6146100a8575b600080fd5b6100936100903660046104fd565b50565b005b6100936100a3366004610516565b6100ea565b610093610201565b603354604080516001600160a01b039092168252519081900360200190f35b610093610275565b6100936100e5366004610516565b61027f565b6033546001600160a01b0316331461011d5760405162461bcd60e51b815260040161011490610546565b60405180910390fd5b6040516370a0823160e01b81523060048201526000906001600160a01b038316906370a0823190602401602060405180830381865afa158015610164573d6000803e3d6000fd5b505050506040513d601f19601f82011682018060405250810190610188919061057b565b60405163a9059cbb60e01b8152336004820152602481018290529091506001600160a01b0383169063a9059cbb906044016020604051808303816000875af11580156101d8573d6000803e3d6000fd5b505050506040513d601f19601f820116820180604052508101906101fc9190610594565b505050565b6033546001600160a01b0316331461022b5760405162461bcd60e51b815260040161011490610546565b6033546040516000916001600160a01b0316907f8be0079c531659141344cd1fd0a4f28419497f9722a3daafe3b4186f6b6457e0908390a3603380546001600160a01b0319169055565b61027d61036a565b565b6033546001600160a01b031633146102a95760405162461bcd60e51b815260040161011490610546565b6001600160a01b03811661030e5760405162461bcd60e51b815260206004820152602660248201527f4f776e61626c653a206e6577206f776e657220697320746865207a65726f206160448201526564647265737360d01b6064820152608401610114565b6033546040516001600160a01b038084169216907f8be0079c531659141344cd1fd0a4f28419497f9722a3daafe3b4186f6b6457e090600090a3603380546001600160a01b0319166001600160a01b0392909216919091179055565b600054610100900460ff1680610383575060005460ff16155b61039f5760405162461bcd60e51b8152600401610114906105b6565b600054610100900460ff161580156103c1576000805461ffff19166101011790555b6103c96103e5565b6103d161044f565b8015610090576000805461ff001916905550565b600054610100900460ff16806103fe575060005460ff16155b61041a5760405162461bcd60e51b8152600401610114906105b6565b600054610100900460ff161580156103d1576000805461ffff19166101011790558015610090576000805461ff001916905550565b600054610100900460ff1680610468575060005460ff16155b6104845760405162461bcd60e51b8152600401610114906105b6565b600054610100900460ff161580156104a6576000805461ffff19166101011790555b603380546001600160a01b0319163390811790915560405181906000907f8be0079c531659141344cd1fd0a4f28419497f9722a3daafe3b4186f6b6457e0908290a3508015610090576000805461ff001916905550565b60006020828403121561050f57600080fd5b5035919050565b60006020828403121561052857600080fd5b81356001600160a01b038116811461053f57600080fd5b9392505050565b6020808252818101527f4f776e61626c653a2063616c6c6572206973206e6f7420746865206f776e6572604082015260600190565b60006020828403121561058d57600080fd5b5051919050565b6000602082840312156105a657600080fd5b8151801515811461053f57600080fd5b6020808252602e908201527f496e697469616c697a61626c653a20636f6e747261637420697320616c72656160408201526d191e481a5b9a5d1a585b1a5e995960921b60608201526080019056fea264697066735822122084fe78e69db0d8038dca8df6490f7e2d7753601f93b4af7c8ad3ee6c92dcc72c64736f6c634300080d0033",
  "linkReferences": {},
  "deployedLinkReferences": {}
}