{
  "_format": "hh-sol-artifact-1",
  "contractName": "NFTXVaultFactoryUpgradeable",
  "sourceName": "contracts/solidity/NFTXVaultFactoryUpgradeable.sol",
  "abi": [
    {
      "anonymous": false,
      "inputs": [
        {
          "indexed": false,
          "internalType": "uint256",
          "name": "vaultId",
          "type": "uint256"
        }
      ],
      "name": "DisableVaultFees",
      "type": "event"
    },
    {
      "anonymous": false,
      "inputs": [
        {
          "indexed": false,
          "internalType": "address",
          "name": "feeExcluded",
          "type": "address"
        },
        {
          "indexed": false,
          "internalType": "bool",
          "name": "excluded",
          "type": "bool"
        }
      ],
      "name": "FeeExclusion",
      "type": "event"
    },
    {
      "anonymous": false,
      "inputs": [
        {
          "indexed": false,
          "internalType": "address",
          "name": "oldEligManager",
          "type": "address"
        },
        {
          "indexed": false,
          "internalType": "address",
          "name": "newEligManager",
          "type": "address"
        }
      ],
      "name": "NewEligibilityManager",
      "type": "event"
    },
    {
      "anonymous": false,
      "inputs": [
        {
          "indexed": false,
          "internalType": "address",
          "name": "oldDistributor",
          "type": "address"
        },
        {
          "indexed": false,
          "internalType": "address",
          "name": "newDistributor",
          "type": "address"
        }
      ],
      "name": "NewFeeDistributor",
      "type": "event"
    },
    {
      "anonymous": false,
      "inputs": [
        {
          "indexed": true,
          "internalType": "uint256",
          "name": "vaultId",
          "type": "uint256"
        },
        {
          "indexed": false,
          "internalType": "address",
          "name": "vaultAddress",
          "type": "address"
        },
        {
          "indexed": false,
          "internalType": "address",
          "name": "assetAddress",
          "type": "address"
        }
      ],
      "name": "NewVault",
      "type": "event"
    },
    {
      "anonymous": false,
      "inputs": [
        {
          "indexed": false,
          "internalType": "address",
          "name": "oldZap",
          "type": "address"
        },
        {
          "indexed": false,
          "internalType": "address",
          "name": "newZap",
          "type": "address"
        }
      ],
      "name": "NewZapContract",
      "type": "event"
    },
    {
      "anonymous": false,
      "inputs": [
        {
          "indexed": true,
          "internalType": "address",
          "name": "previousOwner",
          "type": "address"
        },
        {
          "indexed": true,
          "internalType": "address",
          "name": "newOwner",
          "type": "address"
        }
      ],
      "name": "OwnershipTransferred",
      "type": "event"
    },
    {
      "anonymous": false,
      "inputs": [
        {
          "indexed": false,
          "internalType": "address",
          "name": "addr",
          "type": "address"
        },
        {
          "indexed": false,
          "internalType": "bool",
          "name": "isGuardian",
          "type": "bool"
        }
      ],
      "name": "SetIsGuardian",
      "type": "event"
    },
    {
      "anonymous": false,
      "inputs": [
        {
          "indexed": false,
          "internalType": "uint256",
          "name": "lockId",
          "type": "uint256"
        },
        {
          "indexed": false,
          "internalType": "bool",
          "name": "paused",
          "type": "bool"
        }
      ],
      "name": "SetPaused",
      "type": "event"
    },
    {
      "anonymous": false,
      "inputs": [
        {
          "indexed": false,
          "internalType": "uint256",
          "name": "mintFee",
          "type": "uint256"
        },
        {
          "indexed": false,
          "internalType": "uint256",
          "name": "randomRedeemFee",
          "type": "uint256"
        },
        {
          "indexed": false,
          "internalType": "uint256",
          "name": "targetRedeemFee",
          "type": "uint256"
        },
        {
          "indexed": false,
          "internalType": "uint256",
          "name": "randomSwapFee",
          "type": "uint256"
        },
        {
          "indexed": false,
          "internalType": "uint256",
          "name": "targetSwapFee",
          "type": "uint256"
        }
      ],
      "name": "UpdateFactoryFees",
      "type": "event"
    },
    {
      "anonymous": false,
      "inputs": [
        {
          "indexed": false,
          "internalType": "uint256",
          "name": "vaultId",
          "type": "uint256"
        },
        {
          "indexed": false,
          "internalType": "uint256",
          "name": "mintFee",
          "type": "uint256"
        },
        {
          "indexed": false,
          "internalType": "uint256",
          "name": "randomRedeemFee",
          "type": "uint256"
        },
        {
          "indexed": false,
          "internalType": "uint256",
          "name": "targetRedeemFee",
          "type": "uint256"
        },
        {
          "indexed": false,
          "internalType": "uint256",
          "name": "randomSwapFee",
          "type": "uint256"
        },
        {
          "indexed": false,
          "internalType": "uint256",
          "name": "targetSwapFee",
          "type": "uint256"
        }
      ],
      "name": "UpdateVaultFees",
      "type": "event"
    },
    {
      "anonymous": false,
      "inputs": [
        {
          "indexed": true,
          "internalType": "address",
          "name": "childImplementation",
          "type": "address"
        }
      ],
      "name": "Upgraded",
      "type": "event"
    },
    {
      "inputs": [
        {
          "internalType": "address",
          "name": "_vaultImpl",
          "type": "address"
        },
        {
          "internalType": "address",
          "name": "_feeDistributor",
          "type": "address"
        }
      ],
      "name": "__NFTXVaultFactory_init",
      "outputs": [],
      "stateMutability": "nonpayable",
      "type": "function"
    },
    {
      "inputs": [
        {
          "internalType": "address",
          "name": "childImplementation_",
          "type": "address"
        }
      ],
      "name": "__UpgradeableBeacon__init",
      "outputs": [],
      "stateMutability": "nonpayable",
      "type": "function"
    },
    {
      "inputs": [],
      "name": "allVaults",
      "outputs": [
        {
          "internalType": "address[]",
          "name": "",
          "type": "address[]"
        }
      ],
      "stateMutability": "view",
      "type": "function"
    },
    {
      "inputs": [],
      "name": "childImplementation",
      "outputs": [
        {
          "internalType": "address",
          "name": "",
          "type": "address"
        }
      ],
      "stateMutability": "view",
      "type": "function"
    },
    {
      "inputs": [
        {
          "internalType": "string",
          "name": "name",
          "type": "string"
        },
        {
          "internalType": "string",
          "name": "symbol",
          "type": "string"
        },
        {
          "internalType": "address",
          "name": "_assetAddress",
          "type": "address"
        },
        {
          "internalType": "bool",
          "name": "is1155",
          "type": "bool"
        },
        {
          "internalType": "bool",
          "name": "allowAllItems",
          "type": "bool"
        }
      ],
      "name": "createVault",
      "outputs": [
        {
          "internalType": "uint256",
          "name": "",
          "type": "uint256"
        }
      ],
      "stateMutability": "nonpayable",
      "type": "function"
    },
    {
      "inputs": [
        {
          "internalType": "uint256",
          "name": "vaultId",
          "type": "uint256"
        }
      ],
      "name": "disableVaultFees",
      "outputs": [],
      "stateMutability": "nonpayable",
      "type": "function"
    },
    {
      "inputs": [],
      "name": "eligibilityManager",
      "outputs": [
        {
          "internalType": "address",
          "name": "",
          "type": "address"
        }
      ],
      "stateMutability": "view",
      "type": "function"
    },
    {
      "inputs": [
        {
          "internalType": "address",
          "name": "",
          "type": "address"
        }
      ],
      "name": "excludedFromFees",
      "outputs": [
        {
          "internalType": "bool",
          "name": "",
          "type": "bool"
        }
      ],
      "stateMutability": "view",
      "type": "function"
    },
    {
      "inputs": [],
      "name": "factoryMintFee",
      "outputs": [
        {
          "internalType": "uint64",
          "name": "",
          "type": "uint64"
        }
      ],
      "stateMutability": "view",
      "type": "function"
    },
    {
      "inputs": [],
      "name": "factoryRandomRedeemFee",
      "outputs": [
        {
          "internalType": "uint64",
          "name": "",
          "type": "uint64"
        }
      ],
      "stateMutability": "view",
      "type": "function"
    },
    {
      "inputs": [],
      "name": "factoryRandomSwapFee",
      "outputs": [
        {
          "internalType": "uint64",
          "name": "",
          "type": "uint64"
        }
      ],
      "stateMutability": "view",
      "type": "function"
    },
    {
      "inputs": [],
      "name": "factoryTargetRedeemFee",
      "outputs": [
        {
          "internalType": "uint64",
          "name": "",
          "type": "uint64"
        }
      ],
      "stateMutability": "view",
      "type": "function"
    },
    {
      "inputs": [],
      "name": "factoryTargetSwapFee",
      "outputs": [
        {
          "internalType": "uint64",
          "name": "",
          "type": "uint64"
        }
      ],
      "stateMutability": "view",
      "type": "function"
    },
    {
      "inputs": [],
      "name": "feeDistributor",
      "outputs": [
        {
          "internalType": "address",
          "name": "",
          "type": "address"
        }
      ],
      "stateMutability": "view",
      "type": "function"
    },
    {
      "inputs": [
        {
          "internalType": "address",
          "name": "",
          "type": "address"
        }
      ],
      "name": "isGuardian",
      "outputs": [
        {
          "internalType": "bool",
          "name": "",
          "type": "bool"
        }
      ],
      "stateMutability": "view",
      "type": "function"
    },
    {
      "inputs": [
        {
          "internalType": "uint256",
          "name": "lockId",
          "type": "uint256"
        }
      ],
      "name": "isLocked",
      "outputs": [
        {
          "internalType": "bool",
          "name": "",
          "type": "bool"
        }
      ],
      "stateMutability": "view",
      "type": "function"
    },
    {
      "inputs": [
        {
          "internalType": "uint256",
          "name": "",
          "type": "uint256"
        }
      ],
      "name": "isPaused",
      "outputs": [
        {
          "internalType": "bool",
          "name": "",
          "type": "bool"
        }
      ],
      "stateMutability": "view",
      "type": "function"
    },
    {
      "inputs": [],
      "name": "numVaults",
      "outputs": [
        {
          "internalType": "uint256",
          "name": "",
          "type": "uint256"
        }
      ],
      "stateMutability": "view",
      "type": "function"
    },
    {
      "inputs": [
        {
          "internalType": "uint256",
          "name": "lockId",
          "type": "uint256"
        }
      ],
      "name": "onlyOwnerIfPaused",
      "outputs": [],
      "stateMutability": "view",
      "type": "function"
    },
    {
      "inputs": [],
      "name": "owner",
      "outputs": [
        {
          "internalType": "address",
          "name": "",
          "type": "address"
        }
      ],
      "stateMutability": "view",
      "type": "function"
    },
    {
      "inputs": [
        {
          "internalType": "uint256",
          "name": "lockId",
          "type": "uint256"
        }
      ],
      "name": "pause",
      "outputs": [],
      "stateMutability": "nonpayable",
      "type": "function"
    },
    {
      "inputs": [],
      "name": "renounceOwnership",
      "outputs": [],
      "stateMutability": "nonpayable",
      "type": "function"
    },
    {
      "inputs": [
        {
          "internalType": "address",
          "name": "_eligibilityManager",
          "type": "address"
        }
      ],
      "name": "setEligibilityManager",
      "outputs": [],
      "stateMutability": "nonpayable",
      "type": "function"
    },
    {
      "inputs": [
        {
          "internalType": "uint256",
          "name": "mintFee",
          "type": "uint256"
        },
        {
          "internalType": "uint256",
          "name": "randomRedeemFee",
          "type": "uint256"
        },
        {
          "internalType": "uint256",
          "name": "targetRedeemFee",
          "type": "uint256"
        },
        {
          "internalType": "uint256",
          "name": "randomSwapFee",
          "type": "uint256"
        },
        {
          "internalType": "uint256",
          "name": "targetSwapFee",
          "type": "uint256"
        }
      ],
      "name": "setFactoryFees",
      "outputs": [],
      "stateMutability": "nonpayable",
      "type": "function"
    },
    {
      "inputs": [
        {
          "internalType": "address",
          "name": "_feeDistributor",
          "type": "address"
        }
      ],
      "name": "setFeeDistributor",
      "outputs": [],
      "stateMutability": "nonpayable",
      "type": "function"
    },
    {
      "inputs": [
        {
          "internalType": "address",
          "name": "_excludedAddr",
          "type": "address"
        },
        {
          "internalType": "bool",
          "name": "excluded",
          "type": "bool"
        }
      ],
      "name": "setFeeExclusion",
      "outputs": [],
      "stateMutability": "nonpayable",
      "type": "function"
    },
    {
      "inputs": [
        {
          "internalType": "address",
          "name": "addr",
          "type": "address"
        },
        {
          "internalType": "bool",
          "name": "_isGuardian",
          "type": "bool"
        }
      ],
      "name": "setIsGuardian",
      "outputs": [],
      "stateMutability": "nonpayable",
      "type": "function"
    },
    {
      "inputs": [
        {
          "internalType": "uint256",
          "name": "vaultId",
          "type": "uint256"
        },
        {
          "internalType": "uint256",
          "name": "mintFee",
          "type": "uint256"
        },
        {
          "internalType": "uint256",
          "name": "randomRedeemFee",
          "type": "uint256"
        },
        {
          "internalType": "uint256",
          "name": "targetRedeemFee",
          "type": "uint256"
        },
        {
          "internalType": "uint256",
          "name": "randomSwapFee",
          "type": "uint256"
        },
        {
          "internalType": "uint256",
          "name": "targetSwapFee",
          "type": "uint256"
        }
      ],
      "name": "setVaultFees",
      "outputs": [],
      "stateMutability": "nonpayable",
      "type": "function"
    },
    {
      "inputs": [
        {
          "internalType": "address",
          "name": "_zapContract",
          "type": "address"
        }
      ],
      "name": "setZapContract",
      "outputs": [],
      "stateMutability": "nonpayable",
      "type": "function"
    },
    {
      "inputs": [
        {
          "internalType": "address",
          "name": "newOwner",
          "type": "address"
        }
      ],
      "name": "transferOwnership",
      "outputs": [],
      "stateMutability": "nonpayable",
      "type": "function"
    },
    {
      "inputs": [
        {
          "internalType": "uint256",
          "name": "lockId",
          "type": "uint256"
        }
      ],
      "name": "unpause",
      "outputs": [],
      "stateMutability": "nonpayable",
      "type": "function"
    },
    {
      "inputs": [
        {
          "internalType": "address",
          "name": "newChildImplementation",
          "type": "address"
        }
      ],
      "name": "upgradeChildTo",
      "outputs": [],
      "stateMutability": "nonpayable",
      "type": "function"
    },
    {
      "inputs": [
        {
          "internalType": "uint256",
          "name": "vaultId",
          "type": "uint256"
        }
      ],
      "name": "vault",
      "outputs": [
        {
          "internalType": "address",
          "name": "",
          "type": "address"
        }
      ],
      "stateMutability": "view",
      "type": "function"
    },
    {
      "inputs": [
        {
          "internalType": "uint256",
          "name": "vaultId",
          "type": "uint256"
        }
      ],
      "name": "vaultFees",
      "outputs": [
        {
          "internalType": "uint256",
          "name": "",
          "type": "uint256"
        },
        {
          "internalType": "uint256",
          "name": "",
          "type": "uint256"
        },
        {
          "internalType": "uint256",
          "name": "",
          "type": "uint256"
        },
        {
          "internalType": "uint256",
          "name": "",
          "type": "uint256"
        },
        {
          "internalType": "uint256",
          "name": "",
          "type": "uint256"
        }
      ],
      "stateMutability": "view",
      "type": "function"
    },
    {
      "inputs": [
        {
          "internalType": "address",
          "name": "assetAddress",
          "type": "address"
        }
      ],
      "name": "vaultsForAsset",
      "outputs": [
        {
          "internalType": "address[]",
          "name": "",
          "type": "address[]"
        }
      ],
      "stateMutability": "view",
      "type": "function"
    },
    {
      "inputs": [],
      "name": "zapContract",
      "outputs": [
        {
          "internalType": "address",
          "name": "",
          "type": "address"
        }
      ],
      "stateMutability": "view",
      "type": "function"
    }
  ],
  "bytecode": "0x608060405234801561001057600080fd5b5061296a806100206000396000f3fe60806040523480156200001157600080fd5b5060043610620002495760003560e01c80637c77b616116200013d578063da52571611620000bb578063f2fde38b1162000086578063f2fde38b14620005a2578063f6aacfb114620005b9578063fabc1cbc14620005df578063fc21c3f814620005f6578063fcaa8737146200060a57600080fd5b8063da525716146200053c578063dbe66ca0146200054e578063e59560271462000574578063ef8658db146200058b57600080fd5b80639b084d1b11620001085780639b084d1b14620004bd5780639e1a882414620004d4578063bdf2a43c14620004e8578063c182f2b2146200050e578063ccfc2e8d146200052557600080fd5b80637c77b616146200046657806381a36fb6146200047d5780638da5cb5b146200049457806390f434d814620004a657600080fd5b806323845fb511620001cb5780633ec93d9c11620001965780633ec93d9c14620003f857806340f2d555146200040f5780636d1458461462000426578063715018a614620004415780637c0f44a2146200044b57600080fd5b806323845fb514620003a35780632549dad914620003ba578063264a620814620003ce57806330b94cd514620003e157600080fd5b8063136439dd1162000218578063136439dd146200030857806314c77faa14620003215780631f1713fc1462000335578063219962d2146200034c57806322061379146200036357600080fd5b8063063effeb146200024e57806309d25e7914620002705780630c68ba2114620002a45780630d43e8ad14620002db575b600080fd5b6200025862000621565b60405162000267919062001c3c565b60405180910390f35b6071546200028b90600160801b90046001600160401b031681565b6040516001600160401b03909116815260200162000267565b620002ca620002b536600462001ca8565b60656020526000908152604090205460ff1681565b604051901515815260200162000267565b606a54620002ef906001600160a01b031681565b6040516001600160a01b03909116815260200162000267565b6200031f6200031936600462001ccd565b62000685565b005b606b54620002ef906001600160a01b031681565b6200031f6200034636600462001ca8565b62000730565b6200031f6200035d36600462001ce7565b6200076b565b6200037a6200037436600462001ccd565b62000aa9565b604080519586526020860194909452928401919091526060830152608082015260a00162000267565b6200031f620003b436600462001d3c565b62000bca565b606954620002ef906001600160a01b031681565b606e545b60405190815260200162000267565b6200031f620003f236600462001d3c565b62000c5a565b6200031f6200040936600462001d74565b62000cf5565b6200031f6200042036600462001ca8565b62000dbe565b6071546200028b90600160c01b90046001600160401b031681565b6200031f62000e54565b6071546200028b90600160401b90046001600160401b031681565b6200031f6200047736600462001ccd565b62000ecb565b620002ef6200048e36600462001ccd565b62000f2b565b6033546001600160a01b0316620002ef565b62000258620004b736600462001ca8565b62000f5e565b6200031f620004ce36600462001da3565b62000fd6565b6071546200028b906001600160401b031681565b620002ca620004f936600462001ccd565b60666020526000908152604090205460ff1681565b6200031f6200051f36600462001ccd565b620011a3565b6200031f6200053636600462001ca8565b62001284565b6067546001600160a01b0316620002ef565b620002ca6200055f36600462001ca8565b606f6020526000908152604090205460ff1681565b6200031f6200058536600462001ca8565b6200132e565b620003d26200059c36600462001e89565b620013ac565b6200031f620005b336600462001ca8565b620015bf565b620002ca620005ca36600462001ccd565b60009081526066602052604090205460ff1690565b6200031f620005f036600462001ccd565b620016af565b6072546200028b906001600160401b031681565b6200031f6200061b36600462001ca8565b6200172a565b6060606e8054806020026020016040519081016040528092919081815260200182805480156200067b57602002820191906000526020600020905b81546001600160a01b031681526001909101906020018083116200065c575b5050505050905090565b3360009081526065602052604090205460ff16620006d85760405162461bcd60e51b815260206004820152600b60248201526a43616e277420706175736560a81b60448201526064015b60405180910390fd5b600081815260666020908152604091829020805460ff191660019081179091558251848152918201527f77f1fcfcce67dc392d64f842056d2ec06c80986c47c910f7e79c5b23a2738d7491015b60405180910390a150565b6033546001600160a01b031633146200075d5760405162461bcd60e51b8152600401620006cf9062001f2b565b6200076881620017c0565b50565b6033546001600160a01b03163314620007f1576000606e878154811062000796576200079662001f60565b6000918252602090912001546001600160a01b03169050338114620007ef5760405162461bcd60e51b815260206004820152600e60248201526d139bdd08199c9bdb481d985d5b1d60921b6044820152606401620006cf565b505b6706f05b59d3b200008511156200081c5760405162461bcd60e51b8152600401620006cf9062001f76565b6706f05b59d3b20000841115620008475760405162461bcd60e51b8152600401620006cf9062001f76565b6706f05b59d3b20000831115620008725760405162461bcd60e51b8152600401620006cf9062001f76565b6706f05b59d3b200008211156200089d5760405162461bcd60e51b8152600401620006cf9062001f76565b6706f05b59d3b20000811115620008c85760405162461bcd60e51b8152600401620006cf9062001f76565b6040518060c00160405280600115158152602001866001600160401b03168152602001856001600160401b03168152602001846001600160401b03168152602001836001600160401b03168152602001826001600160401b03168152506070600088815260200190815260200160002060008201518160000160006101000a81548160ff02191690831515021790555060208201518160000160016101000a8154816001600160401b0302191690836001600160401b0316021790555060408201518160000160096101000a8154816001600160401b0302191690836001600160401b0316021790555060608201518160000160116101000a8154816001600160401b0302191690836001600160401b0316021790555060808201518160010160006101000a8154816001600160401b0302191690836001600160401b0316021790555060a08201518160010160086101000a8154816001600160401b0302191690836001600160401b031602179055509050507fd9ffbc90281646bcb01af117b3e6cd6ad280ffe01a9b09f6576155b4fa3f45c986868686868660405162000a9996959493929190958652602086019490945260408501929092526060840152608083015260a082015260c00190565b60405180910390a1505050505050565b6000818152607060209081526040808320815160c081018352815460ff811615801583526001600160401b03610100830481169684019690965269010000000000000000008204861694830194909452600160881b9004841660608201526001909101548084166080830152600160401b900490921660a0830152829182918291829162000b885780602001516001600160401b031681604001516001600160401b031682606001516001600160401b031683608001516001600160401b03168460a001516001600160401b0316955095509550955095505062000bc1565b50506071546072546001600160401b038083169650600160401b830481169550600160801b830481169450600160c01b90920482169250165b91939590929450565b6033546001600160a01b0316331462000bf75760405162461bcd60e51b8152600401620006cf9062001f2b565b6001600160a01b038216600081815260656020908152604091829020805460ff19168515159081179091558251938452908301527fd0b6b573d5442f7c29fd50d9735ae341581c25c6ed07748d50eda519f1ffa88a910160405180910390a15050565b6033546001600160a01b0316331462000c875760405162461bcd60e51b8152600401620006cf9062001f2b565b604080516001600160a01b038416815282151560208201527f7091fe081ceb2a09a20e86451ff5cba0b3ed3a6fc7fb6557147601a616459035910160405180910390a16001600160a01b03919091166000908152606f60205260409020805460ff1916911515919091179055565b600054610100900460ff168062000d0f575060005460ff16155b62000d2e5760405162461bcd60e51b8152600401620006cf9062001fa2565b600054610100900460ff1615801562000d51576000805461ffff19166101011790555b62000d5b62001880565b62000d66836200132e565b62000d718262001284565b62000da667016345785d8a000066b1a2bc2ec5000067016345785d8a000066b1a2bc2ec5000067016345785d8a000062000fd6565b801562000db9576000805461ff00191690555b505050565b6033546001600160a01b0316331462000deb5760405162461bcd60e51b8152600401620006cf9062001f2b565b606b54604080516001600160a01b03928316815291831660208301527fdd1b73e02786644d6e9994c9d513f1058320c4ff857e1a76ded4c77f83ab3ea9910160405180910390a1606b80546001600160a01b0319166001600160a01b0392909216919091179055565b6033546001600160a01b0316331462000e815760405162461bcd60e51b8152600401620006cf9062001f2b565b6033546040516000916001600160a01b0316907f8be0079c531659141344cd1fd0a4f28419497f9722a3daafe3b4186f6b6457e0908390a3603380546001600160a01b0319169055565b60008181526066602052604090205460ff16158062000ef457506033546001600160a01b031633145b620007685760405162461bcd60e51b815260206004820152600660248201526514185d5cd95960d21b6044820152606401620006cf565b6000606e828154811062000f435762000f4362001f60565b6000918252602090912001546001600160a01b031692915050565b6001600160a01b0381166000908152606d602090815260409182902080548351818402810184019094528084526060939283018282801562000fca57602002820191906000526020600020905b81546001600160a01b0316815260019091019060200180831162000fab575b50505050509050919050565b6033546001600160a01b03163314620010035760405162461bcd60e51b8152600401620006cf9062001f2b565b6706f05b59d3b200008511156200102e5760405162461bcd60e51b8152600401620006cf9062001f76565b6706f05b59d3b20000841115620010595760405162461bcd60e51b8152600401620006cf9062001f76565b6706f05b59d3b20000831115620010845760405162461bcd60e51b8152600401620006cf9062001f76565b6706f05b59d3b20000821115620010af5760405162461bcd60e51b8152600401620006cf9062001f76565b6706f05b59d3b20000811115620010da5760405162461bcd60e51b8152600401620006cf9062001f76565b607180546001600160401b038781166001600160801b031990921691909117600160401b87831602176fffffffffffffffffffffffffffffffff16600160801b868316026001600160c01b031617600160c01b85831602179091556072805467ffffffffffffffff1916918316919091179055604080518681526020810186905290810184905260608101839052608081018290527f5ece4b6d3e9829ead7e8adb5ab3a10f91b8547a80e9e96264fc5fe012f10937a9060a00160405180910390a15050505050565b6033546001600160a01b0316331462001224576000606e8281548110620011ce57620011ce62001f60565b6000918252602090912001546001600160a01b03169050338114620012225760405162461bcd60e51b8152602060048201526009602482015268139bdd081d985d5b1d60ba1b6044820152606401620006cf565b505b6000818152607060205260409081902080546001600160c81b031916815560010180546001600160801b0319169055517f52fa46cefef72586d9ef48406d9aa3772833013b97e06ad9bbb4f812b105aa6890620007259083815260200190565b6033546001600160a01b03163314620012b15760405162461bcd60e51b8152600401620006cf9062001f2b565b6001600160a01b038116620012c557600080fd5b606a54604080516001600160a01b03928316815291831660208301527ff50858c0e53e1daa79884af03c6b676de789362564e7c27ff542914c0b513ea7910160405180910390a1606a80546001600160a01b0319166001600160a01b0392909216919091179055565b600054610100900460ff168062001348575060005460ff16155b620013675760405162461bcd60e51b8152600401620006cf9062001fa2565b600054610100900460ff161580156200138a576000805461ffff19166101011790555b6200139582620017c0565b8015620013a8576000805461ff00191690555b5050565b6000620013ba600062000ecb565b606a546001600160a01b0316620014145760405162461bcd60e51b815260206004820152601860248201527f4e4654583a2046656520726563656976657220756e73657400000000000000006044820152606401620006cf565b6000620014296067546001600160a01b031690565b6001600160a01b031603620014815760405162461bcd60e51b815260206004820181905260248201527f4e4654583a205661756c7420696d706c656d656e746174696f6e20756e7365746044820152606401620006cf565b6000620014928787878787620018fb565b606e80546001600160a01b038881166000908152606d6020908152604080832080546001808201835591855292842090920180548886166001600160a01b0319918216811790925587549384018855969093527f9930d9ff0dee0ef5ca2f7710ea66b8f84dd0f5f5351ecffe72b952cd9db7142a9091018054909516909117909355606a549251630674f4a960e21b81526004810183905293945090929116906319d3d2a490602401600060405180830381600087803b1580156200155657600080fd5b505af11580156200156b573d6000803e3d6000fd5b5050604080516001600160a01b0380871682528a1660208201528493507fb94e8fc8ad4a054390a833a774eabcd7c0547c9a62d1fafb5c54dd761c6f0aac92500160405180910390a2979650505050505050565b6033546001600160a01b03163314620015ec5760405162461bcd60e51b8152600401620006cf9062001f2b565b6001600160a01b038116620016535760405162461bcd60e51b815260206004820152602660248201527f4f776e61626c653a206e6577206f776e657220697320746865207a65726f206160448201526564647265737360d01b6064820152608401620006cf565b6033546040516001600160a01b038084169216907f8be0079c531659141344cd1fd0a4f28419497f9722a3daafe3b4186f6b6457e090600090a3603380546001600160a01b0319166001600160a01b0392909216919091179055565b6033546001600160a01b03163314620016dc5760405162461bcd60e51b8152600401620006cf9062001f2b565b6000818152606660209081526040808320805460ff191690558051848152918201929092527f77f1fcfcce67dc392d64f842056d2ec06c80986c47c910f7e79c5b23a2738d74910162000725565b6033546001600160a01b03163314620017575760405162461bcd60e51b8152600401620006cf9062001f2b565b606954604080516001600160a01b03928316815291831660208301527fd15026dcb7cbc5e2eea1bcdb50ace689a683d996a4afc44fc48644ab1eb22540910160405180910390a1606980546001600160a01b0319166001600160a01b0392909216919091179055565b803b620018365760405162461bcd60e51b815260206004820152603960248201527f5570677261646561626c65426561636f6e3a206368696c6420696d706c656d6560448201527f6e746174696f6e206973206e6f74206120636f6e7472616374000000000000006064820152608401620006cf565b606780546001600160a01b0319166001600160a01b0383169081179091556040517fbc7cd75a20ee27fd9adebab32041f755214dbc6bffa90cc0225b39da2e5c2d3b90600090a250565b600054610100900460ff16806200189a575060005460ff16155b620018b95760405162461bcd60e51b8152600401620006cf9062001fa2565b600054610100900460ff16158015620018dc576000805461ffff19166101011790555b620018e662001a9a565b801562000768576000805461ff001916905550565b600080306040516200190d9062001c2e565b6001600160a01b039091168152604060208201819052600090820152606001604051809103906000f08015801562001949573d6000803e3d6000fd5b506040516339e1163160e21b81529091506001600160a01b0382169063e78458c49062001983908a908a908a908a908a9060040162002040565b600060405180830381600087803b1580156200199e57600080fd5b505af1158015620019b3573d6000803e3d6000fd5b505060405163d0ebdbe760e01b81523360048201526001600160a01b038416925063d0ebdbe79150602401600060405180830381600087803b158015620019f957600080fd5b505af115801562001a0e573d6000803e3d6000fd5b50505050806001600160a01b031663f2fde38b62001a346033546001600160a01b031690565b6040516001600160e01b031960e084901b1681526001600160a01b039091166004820152602401600060405180830381600087803b15801562001a7657600080fd5b505af115801562001a8b573d6000803e3d6000fd5b50929998505050505050505050565b600054610100900460ff168062001ab4575060005460ff16155b62001ad35760405162461bcd60e51b8152600401620006cf9062001fa2565b600054610100900460ff1615801562001af6576000805461ffff19166101011790555b62001b0062001b0a565b620018e662001b7a565b600054610100900460ff168062001b24575060005460ff16155b62001b435760405162461bcd60e51b8152600401620006cf9062001fa2565b600054610100900460ff16158015620018e6576000805461ffff1916610101179055801562000768576000805461ff001916905550565b600054610100900460ff168062001b94575060005460ff16155b62001bb35760405162461bcd60e51b8152600401620006cf9062001fa2565b600054610100900460ff1615801562001bd6576000805461ffff19166101011790555b603380546001600160a01b0319163390811790915560405181906000907f8be0079c531659141344cd1fd0a4f28419497f9722a3daafe3b4186f6b6457e0908290a350801562000768576000805461ff001916905550565b6108a2806200209383390190565b6020808252825182820181905260009190848201906040850190845b8181101562001c7f5783516001600160a01b03168352928401929184019160010162001c58565b50909695505050505050565b80356001600160a01b038116811462001ca357600080fd5b919050565b60006020828403121562001cbb57600080fd5b62001cc68262001c8b565b9392505050565b60006020828403121562001ce057600080fd5b5035919050565b60008060008060008060c0878903121562001d0157600080fd5b505084359660208601359650604086013595606081013595506080810135945060a0013592509050565b8035801515811462001ca357600080fd5b6000806040838503121562001d5057600080fd5b62001d5b8362001c8b565b915062001d6b6020840162001d2b565b90509250929050565b6000806040838503121562001d8857600080fd5b62001d938362001c8b565b915062001d6b6020840162001c8b565b600080600080600060a0868803121562001dbc57600080fd5b505083359560208501359550604085013594606081013594506080013592509050565b634e487b7160e01b600052604160045260246000fd5b600082601f83011262001e0757600080fd5b81356001600160401b038082111562001e245762001e2462001ddf565b604051601f8301601f19908116603f0116810190828211818310171562001e4f5762001e4f62001ddf565b8160405283815286602085880101111562001e6957600080fd5b836020870160208301376000602085830101528094505050505092915050565b600080600080600060a0868803121562001ea257600080fd5b85356001600160401b038082111562001eba57600080fd5b62001ec889838a0162001df5565b9650602088013591508082111562001edf57600080fd5b5062001eee8882890162001df5565b94505062001eff6040870162001c8b565b925062001f0f6060870162001d2b565b915062001f1f6080870162001d2b565b90509295509295909350565b6020808252818101527f4f776e61626c653a2063616c6c6572206973206e6f7420746865206f776e6572604082015260600190565b634e487b7160e01b600052603260045260246000fd5b60208082526012908201527121b0b73737ba101f1018171a9032ba3432b960711b604082015260600190565b6020808252602e908201527f496e697469616c697a61626c653a20636f6e747261637420697320616c72656160408201526d191e481a5b9a5d1a585b1a5e995960921b606082015260800190565b6000815180845260005b81811015620020185760208185018101518683018201520162001ffa565b818111156200202b576000602083870101525b50601f01601f19169290920160200192915050565b60a0815260006200205560a083018862001ff0565b828103602084015262002069818862001ff0565b6001600160a01b039690961660408401525050911515606083015215156080909101529291505056fe60806040526040516108a23803806108a283398101604081905261002291610418565b61004d60017fa3f0ad74e5423aebfd80d3ef4346578335a9a72aeaee59ff6cb3582b35133d516104d8565b60008051602061086183398151915214610069576100696104fd565b610073828261007a565b505061057d565b61008d8261022660201b6100291760201c565b6100ec5760405162461bcd60e51b815260206004820152602560248201527f426561636f6e50726f78793a20626561636f6e206973206e6f74206120636f6e6044820152641d1c9858dd60da1b60648201526084015b60405180910390fd5b610160826001600160a01b031663da5257166040518163ffffffff1660e01b8152600401602060405180830381865afa15801561012d573d6000803e3d6000fd5b505050506040513d601f19601f820116820180604052508101906101519190610513565b61022660201b6100291760201c565b6101d25760405162461bcd60e51b815260206004820152603460248201527f426561636f6e50726f78793a20626561636f6e20696d706c656d656e7461746960448201527f6f6e206973206e6f74206120636f6e747261637400000000000000000000000060648201526084016100e3565b6000805160206108618339815191528281558151156102215761021f6101f661022c565b83604051806060016040528060218152602001610881602191396102aa60201b61002f1760201c565b505b505050565b3b151590565b60006102446000805160206108618339815191525490565b6001600160a01b031663da5257166040518163ffffffff1660e01b8152600401602060405180830381865afa158015610281573d6000803e3d6000fd5b505050506040513d601f19601f820116820180604052508101906102a59190610513565b905090565b6060833b6103095760405162461bcd60e51b815260206004820152602660248201527f416464726573733a2064656c65676174652063616c6c20746f206e6f6e2d636f6044820152651b9d1c9858dd60d21b60648201526084016100e3565b600080856001600160a01b031685604051610324919061052e565b600060405180830381855af49150503d806000811461035f576040519150601f19603f3d011682016040523d82523d6000602084013e610364565b606091505b509092509050610375828286610381565b925050505b9392505050565b6060831561039057508161037a565b8251156103a05782518084602001fd5b8160405162461bcd60e51b81526004016100e3919061054a565b80516001600160a01b03811681146103d157600080fd5b919050565b634e487b7160e01b600052604160045260246000fd5b60005b838110156104075781810151838201526020016103ef565b8381111561021f5750506000910152565b6000806040838503121561042b57600080fd5b610434836103ba565b60208401519092506001600160401b038082111561045157600080fd5b818501915085601f83011261046557600080fd5b815181811115610477576104776103d6565b604051601f8201601f19908116603f0116810190838211818310171561049f5761049f6103d6565b816040528281528860208487010111156104b857600080fd5b6104c98360208301602088016103ec565b80955050505050509250929050565b6000828210156104f857634e487b7160e01b600052601160045260246000fd5b500390565b634e487b7160e01b600052600160045260246000fd5b60006020828403121561052557600080fd5b61037a826103ba565b600082516105408184602087016103ec565b9190910192915050565b60208152600082518060208401526105698160408501602087016103ec565b601f01601f19169190910160400192915050565b6102d58061058c6000396000f3fe60806040523661001357610011610017565b005b6100115b61002761002261010a565b61019a565b565b3b151590565b6060833b6100935760405162461bcd60e51b815260206004820152602660248201527f416464726573733a2064656c65676174652063616c6c20746f206e6f6e2d636f6044820152651b9d1c9858dd60d21b60648201526084015b60405180910390fd5b600080856001600160a01b0316856040516100ae9190610227565b600060405180830381855af49150503d80600081146100e9576040519150601f19603f3d011682016040523d82523d6000602084013e6100ee565b606091505b50915091506100fe8282866101be565b925050505b9392505050565b60006101347fa3f0ad74e5423aebfd80d3ef4346578335a9a72aeaee59ff6cb3582b35133d505490565b6001600160a01b031663da5257166040518163ffffffff1660e01b8152600401602060405180830381865afa158015610171573d6000803e3d6000fd5b505050506040513d601f19601f820116820180604052508101906101959190610243565b905090565b3660008037600080366000845af43d6000803e8080156101b9573d6000f35b3d6000fd5b606083156101cd575081610103565b8251156101dd5782518084602001fd5b8160405162461bcd60e51b815260040161008a919061026c565b60005b838110156102125781810151838201526020016101fa565b83811115610221576000848401525b50505050565b600082516102398184602087016101f7565b9190910192915050565b60006020828403121561025557600080fd5b81516001600160a01b038116811461010357600080fd5b602081526000825180602084015261028b8160408501602087016101f7565b601f01601f1916919091016040019291505056fea264697066735822122039a948046df4459ae3df581aecce42d607339220f2f5a6b803bf52ebfe6bf64664736f6c634300080d0033a3f0ad74e5423aebfd80d3ef4346578335a9a72aeaee59ff6cb3582b35133d50426561636f6e50726f78793a2066756e6374696f6e2063616c6c206661696c6564a2646970667358221220dd78a46c25d449e0bd7e6a9fc4debf946880ddc73da3331c38ce12f4f80c1e3964736f6c634300080d0033",
  "linkReferences": {},
  "deployedLinkReferences": {}
}