{
  "_format": "hh-sol-artifact-1",
  "contractName": "NFTXV1Buyout",
  "sourceName": "contracts/solidity/NFTXV1Buyout.sol",
  "abi": [
    {
      "anonymous": false,
      "inputs": [
        {
          "indexed": false,
          "internalType": "address",
          "name": "tokenAddress",
          "type": "address"
        }
      ],
      "name": "BuyoutComplete",
      "type": "event"
    },
    {
      "anonymous": false,
      "inputs": [
        {
          "indexed": true,
          "internalType": "address",
          "name": "previousOwner",
          "type": "address"
        },
        {
          "indexed": true,
          "internalType": "address",
          "name": "newOwner",
          "type": "address"
        }
      ],
      "name": "OwnershipTransferred",
      "type": "event"
    },
    {
      "anonymous": false,
      "inputs": [
        {
          "indexed": false,
          "internalType": "address",
          "name": "addr",
          "type": "address"
        },
        {
          "indexed": false,
          "internalType": "bool",
          "name": "isGuardian",
          "type": "bool"
        }
      ],
      "name": "SetIsGuardian",
      "type": "event"
    },
    {
      "anonymous": false,
      "inputs": [
        {
          "indexed": false,
          "internalType": "uint256",
          "name": "lockId",
          "type": "uint256"
        },
        {
          "indexed": false,
          "internalType": "bool",
          "name": "paused",
          "type": "bool"
        }
      ],
      "name": "SetPaused",
      "type": "event"
    },
    {
      "anonymous": false,
      "inputs": [
        {
          "indexed": false,
          "internalType": "address",
          "name": "tokenAddress",
          "type": "address"
        },
        {
          "indexed": false,
          "internalType": "uint256",
          "name": "totalEth",
          "type": "uint256"
        }
      ],
      "name": "TokenBuyout",
      "type": "event"
    },
    {
      "inputs": [],
      "name": "__NFTXV1Buyout_init",
      "outputs": [],
      "stateMutability": "nonpayable",
      "type": "function"
    },
    {
      "inputs": [
        {
          "internalType": "address",
          "name": "v1TokenAddr",
          "type": "address"
        }
      ],
      "name": "addBuyout",
      "outputs": [],
      "stateMutability": "payable",
      "type": "function"
    },
    {
      "inputs": [
        {
          "internalType": "address",
          "name": "v1TokenAddr",
          "type": "address"
        }
      ],
      "name": "claimETH",
      "outputs": [],
      "stateMutability": "nonpayable",
      "type": "function"
    },
    {
      "inputs": [
        {
          "internalType": "address",
          "name": "v1TokenAddr",
          "type": "address"
        }
      ],
      "name": "clearBuyout",
      "outputs": [],
      "stateMutability": "nonpayable",
      "type": "function"
    },
    {
      "inputs": [],
      "name": "emergencyWithdraw",
      "outputs": [],
      "stateMutability": "nonpayable",
      "type": "function"
    },
    {
      "inputs": [
        {
          "internalType": "address",
          "name": "",
          "type": "address"
        }
      ],
      "name": "ethAvailiable",
      "outputs": [
        {
          "internalType": "uint256",
          "name": "",
          "type": "uint256"
        }
      ],
      "stateMutability": "view",
      "type": "function"
    },
    {
      "inputs": [
        {
          "internalType": "address",
          "name": "",
          "type": "address"
        }
      ],
      "name": "isGuardian",
      "outputs": [
        {
          "internalType": "bool",
          "name": "",
          "type": "bool"
        }
      ],
      "stateMutability": "view",
      "type": "function"
    },
    {
      "inputs": [
        {
          "internalType": "uint256",
          "name": "",
          "type": "uint256"
        }
      ],
      "name": "isPaused",
      "outputs": [
        {
          "internalType": "bool",
          "name": "",
          "type": "bool"
        }
      ],
      "stateMutability": "view",
      "type": "function"
    },
    {
      "inputs": [
        {
          "internalType": "uint256",
          "name": "lockId",
          "type": "uint256"
        }
      ],
      "name": "onlyOwnerIfPaused",
      "outputs": [],
      "stateMutability": "view",
      "type": "function"
    },
    {
      "inputs": [],
      "name": "owner",
      "outputs": [
        {
          "internalType": "address",
          "name": "",
          "type": "address"
        }
      ],
      "stateMutability": "view",
      "type": "function"
    },
    {
      "inputs": [
        {
          "internalType": "uint256",
          "name": "lockId",
          "type": "uint256"
        }
      ],
      "name": "pause",
      "outputs": [],
      "stateMutability": "nonpayable",
      "type": "function"
    },
    {
      "inputs": [
        {
          "internalType": "address",
          "name": "v1TokenAddr",
          "type": "address"
        }
      ],
      "name": "removeBuyout",
      "outputs": [],
      "stateMutability": "nonpayable",
      "type": "function"
    },
    {
      "inputs": [],
      "name": "renounceOwnership",
      "outputs": [],
      "stateMutability": "nonpayable",
      "type": "function"
    },
    {
      "inputs": [
        {
          "internalType": "address",
          "name": "addr",
          "type": "address"
        },
        {
          "internalType": "bool",
          "name": "_isGuardian",
          "type": "bool"
        }
      ],
      "name": "setIsGuardian",
      "outputs": [],
      "stateMutability": "nonpayable",
      "type": "function"
    },
    {
      "inputs": [
        {
          "internalType": "address",
          "name": "newOwner",
          "type": "address"
        }
      ],
      "name": "transferOwnership",
      "outputs": [],
      "stateMutability": "nonpayable",
      "type": "function"
    },
    {
      "inputs": [
        {
          "internalType": "uint256",
          "name": "lockId",
          "type": "uint256"
        }
      ],
      "name": "unpause",
      "outputs": [],
      "stateMutability": "nonpayable",
      "type": "function"
    }
  ],
  "bytecode": "0x608060405234801561001057600080fd5b506112b7806100206000396000f3fe6080604052600436106100f35760003560e01c80638da5cb5b1161008a578063d837474011610059578063d837474014610294578063db2e21bc146102cf578063f2fde38b146102e4578063fabc1cbc1461030457600080fd5b80638da5cb5b146101fc578063b5ba3a1a14610224578063bdf2a43c14610244578063cdcf9cdb1461027457600080fd5b806369cbec6d116100c657806369cbec6d14610192578063715018a6146101a75780637c77b616146101bc5780637e66c0b9146101dc57600080fd5b80630c68ba21146100f8578063136439dd1461013d57806323845fb51461015f57806366f0a57d1461017f575b600080fd5b34801561010457600080fd5b5061012861011336600461108b565b60656020526000908152604090205460ff1681565b60405190151581526020015b60405180910390f35b34801561014957600080fd5b5061015d6101583660046110ad565b610324565b005b34801561016b57600080fd5b5061015d61017a3660046110c6565b6103ce565b61015d61018d36600461108b565b61045c565b34801561019e57600080fd5b5061015d61053a565b3480156101b357600080fd5b5061015d6105b6565b3480156101c857600080fd5b5061015d6101d73660046110ad565b61062a565b3480156101e857600080fd5b5061015d6101f736600461108b565b610687565b34801561020857600080fd5b506033546040516001600160a01b039091168152602001610134565b34801561023057600080fd5b5061015d61023f36600461108b565b6109ee565b34801561025057600080fd5b5061012861025f3660046110ad565b60666020526000908152604090205460ff1681565b34801561028057600080fd5b5061015d61028f36600461108b565b610a64565b3480156102a057600080fd5b506102c16102af36600461108b565b60996020526000908152604090205481565b604051908152602001610134565b3480156102db57600080fd5b5061015d610b42565b3480156102f057600080fd5b5061015d6102ff36600461108b565b610b98565b34801561031057600080fd5b5061015d61031f3660046110ad565b610c83565b3360009081526065602052604090205460ff166103765760405162461bcd60e51b815260206004820152600b60248201526a43616e277420706175736560a81b60448201526064015b60405180910390fd5b600081815260666020908152604091829020805460ff191660019081179091558251848152918201527f77f1fcfcce67dc392d64f842056d2ec06c80986c47c910f7e79c5b23a2738d7491015b60405180910390a150565b6033546001600160a01b031633146103f85760405162461bcd60e51b815260040161036d90611102565b6001600160a01b038216600081815260656020908152604091829020805460ff19168515159081179091558251938452908301527fd0b6b573d5442f7c29fd50d9735ae341581c25c6ed07748d50eda519f1ffa88a91015b60405180910390a15050565b6033546001600160a01b031633146104865760405162461bcd60e51b815260040161036d90611102565b600034116104cf5760405162461bcd60e51b8152602060048201526016602482015275086c2dcdcdee840e0c2d2e440eed2e8d04060408aa8960531b604482015260640161036d565b6001600160a01b038116600090815260996020526040812080543492906104f790849061114d565b9091555050604080516001600160a01b03831681523460208201527fbe39c8dbb06465ca74bc1ec6df6c287310b3a828aab734bf780f429f2f8090a891016103c3565b600054610100900460ff1680610553575060005460ff16155b61056f5760405162461bcd60e51b815260040161036d90611165565b600054610100900460ff16158015610591576000805461ffff19166101011790555b610599610cfa565b6105a1610d59565b80156105b3576000805461ff00191690555b50565b6033546001600160a01b031633146105e05760405162461bcd60e51b815260040161036d90611102565b6033546040516000916001600160a01b0316907f8be0079c531659141344cd1fd0a4f28419497f9722a3daafe3b4186f6b6457e0908390a3603380546001600160a01b0319169055565b60008181526066602052604090205460ff16158061065257506033546001600160a01b031633145b6105b35760405162461bcd60e51b815260206004820152600660248201526514185d5cd95960d21b604482015260640161036d565b6002606754036106d95760405162461bcd60e51b815260206004820152601f60248201527f5265656e7472616e637947756172643a207265656e7472616e742063616c6c00604482015260640161036d565b60026067556106e8600061062a565b6001600160a01b0381166000908152609960205260409020548061074e5760405162461bcd60e51b815260206004820152601860248201527f4e6f7420612076616c6964206275796f757420746f6b656e0000000000000000604482015260640161036d565b6040516370a0823160e01b81523360048201526000906001600160a01b038416906370a0823190602401602060405180830381865afa158015610795573d6000803e3d6000fd5b505050506040513d601f19601f820116820180604052508101906107b991906111b3565b9050600081116107fa5760405162461bcd60e51b815260206004820152600c60248201526b63616e74206265207a65726f60a01b604482015260640161036d565b6000836001600160a01b03166318160ddd6040518163ffffffff1660e01b8152600401602060405180830381865afa15801561083a573d6000803e3d6000fd5b505050506040513d601f19601f8201168201806040525081019061085e91906111b3565b60405163079cc67960e41b8152336004820152602481018490529091506001600160a01b038516906379cc679090604401600060405180830381600087803b1580156108a957600080fd5b505af11580156108bd573d6000803e3d6000fd5b5050505060008183856108d091906111cc565b6108da91906111eb565b90508381116108e957806108eb565b835b6001600160a01b03861660009081526099602052604081208054929350839290919061091890849061120d565b9091555050604051600090339083908381818185875af1925050503d806000811461095f576040519150601f19603f3d011682016040523d82523d6000602084013e610964565b606091505b50509050806109855760405162461bcd60e51b815260040161036d90611224565b6001600160a01b03861660009081526099602052604081205490036109e1576040516001600160a01b03871681527f558c309d16979977d7c6c19ebb1878fb2e0f856b7ebb440bee5dfd2e7b7c12359060200160405180910390a15b5050600160675550505050565b6033546001600160a01b03163314610a185760405162461bcd60e51b815260040161036d90611102565b6001600160a01b03811660008181526099602090815260408083209290925590519182527f558c309d16979977d7c6c19ebb1878fb2e0f856b7ebb440bee5dfd2e7b7c123591016103c3565b6033546001600160a01b03163314610a8e5760405162461bcd60e51b815260040161036d90611102565b6001600160a01b03811660009081526099602052604090205480610ae65760405162461bcd60e51b815260206004820152600f60248201526e043616e6e6f742072656d6f7665203608c1b604482015260640161036d565b6001600160a01b038216600090815260996020526040812055610b093382610db8565b6040516001600160a01b03831681527f558c309d16979977d7c6c19ebb1878fb2e0f856b7ebb440bee5dfd2e7b7c123590602001610450565b6033546001600160a01b03163314610b6c5760405162461bcd60e51b815260040161036d90611102565b60405133904780156108fc02916000818181858888f193505050501580156105b3573d6000803e3d6000fd5b6033546001600160a01b03163314610bc25760405162461bcd60e51b815260040161036d90611102565b6001600160a01b038116610c275760405162461bcd60e51b815260206004820152602660248201527f4f776e61626c653a206e6577206f776e657220697320746865207a65726f206160448201526564647265737360d01b606482015260840161036d565b6033546040516001600160a01b038084169216907f8be0079c531659141344cd1fd0a4f28419497f9722a3daafe3b4186f6b6457e090600090a3603380546001600160a01b0319166001600160a01b0392909216919091179055565b6033546001600160a01b03163314610cad5760405162461bcd60e51b815260040161036d90611102565b6000818152606660209081526040808320805460ff191690558051848152918201929092527f77f1fcfcce67dc392d64f842056d2ec06c80986c47c910f7e79c5b23a2738d7491016103c3565b600054610100900460ff1680610d13575060005460ff16155b610d2f5760405162461bcd60e51b815260040161036d90611165565b600054610100900460ff16158015610d51576000805461ffff19166101011790555b6105a1610e80565b600054610100900460ff1680610d72575060005460ff16155b610d8e5760405162461bcd60e51b815260040161036d90611165565b600054610100900460ff16158015610db0576000805461ffff19166101011790555b6105a1610ee7565b80471015610e085760405162461bcd60e51b815260206004820152601d60248201527f416464726573733a20696e73756666696369656e742062616c616e6365000000604482015260640161036d565b6000826001600160a01b03168260405160006040518083038185875af1925050503d8060008114610e55576040519150601f19603f3d011682016040523d82523d6000602084013e610e5a565b606091505b5050905080610e7b5760405162461bcd60e51b815260040161036d90611224565b505050565b600054610100900460ff1680610e99575060005460ff16155b610eb55760405162461bcd60e51b815260040161036d90611165565b600054610100900460ff16158015610ed7576000805461ffff19166101011790555b610edf610f57565b6105a1610fc1565b600054610100900460ff1680610f00575060005460ff16155b610f1c5760405162461bcd60e51b815260040161036d90611165565b600054610100900460ff16158015610f3e576000805461ffff19166101011790555b600160675580156105b3576000805461ff001916905550565b600054610100900460ff1680610f70575060005460ff16155b610f8c5760405162461bcd60e51b815260040161036d90611165565b600054610100900460ff161580156105a1576000805461ffff191661010117905580156105b3576000805461ff001916905550565b600054610100900460ff1680610fda575060005460ff16155b610ff65760405162461bcd60e51b815260040161036d90611165565b600054610100900460ff16158015611018576000805461ffff19166101011790555b603380546001600160a01b0319163390811790915560405181906000907f8be0079c531659141344cd1fd0a4f28419497f9722a3daafe3b4186f6b6457e0908290a35080156105b3576000805461ff001916905550565b80356001600160a01b038116811461108657600080fd5b919050565b60006020828403121561109d57600080fd5b6110a68261106f565b9392505050565b6000602082840312156110bf57600080fd5b5035919050565b600080604083850312156110d957600080fd5b6110e28361106f565b9150602083013580151581146110f757600080fd5b809150509250929050565b6020808252818101527f4f776e61626c653a2063616c6c6572206973206e6f7420746865206f776e6572604082015260600190565b634e487b7160e01b600052601160045260246000fd5b6000821982111561116057611160611137565b500190565b6020808252602e908201527f496e697469616c697a61626c653a20636f6e747261637420697320616c72656160408201526d191e481a5b9a5d1a585b1a5e995960921b606082015260800190565b6000602082840312156111c557600080fd5b5051919050565b60008160001904831182151516156111e6576111e6611137565b500290565b60008261120857634e487b7160e01b600052601260045260246000fd5b500490565b60008282101561121f5761121f611137565b500390565b6020808252603a908201527f416464726573733a20756e61626c6520746f2073656e642076616c75652c207260408201527f6563697069656e74206d6179206861766520726576657274656400000000000060608201526080019056fea26469706673582212204a30b08c92d2d8854726a56b49307dfb33b323801dfcd28f7d80a6ae8e333a2164736f6c634300080d0033",
  "linkReferences": {},
  "deployedLinkReferences": {}
}