{
  "_format": "hh-sol-artifact-1",
  "contractName": "NFTXUnstakingInventoryZap",
  "sourceName": "contracts/solidity/NFTXUnstakingInventoryZap.sol",
  "abi": [
    {
      "anonymous": false,
      "inputs": [
        {
          "indexed": false,
          "internalType": "uint256",
          "name": "vaultId",
          "type": "uint256"
        },
        {
          "indexed": false,
          "internalType": "uint256",
          "name": "xTokensUnstaked",
          "type": "uint256"
        },
        {
          "indexed": false,
          "internalType": "uint256",
          "name": "numNftsRedeemed",
          "type": "uint256"
        },
        {
          "indexed": false,
          "internalType": "address",
          "name": "unstaker",
          "type": "address"
        }
      ],
      "name": "InventoryUnstaked",
      "type": "event"
    },
    {
      "anonymous": false,
      "inputs": [
        {
          "indexed": true,
          "internalType": "address",
          "name": "previousOwner",
          "type": "address"
        },
        {
          "indexed": true,
          "internalType": "address",
          "name": "newOwner",
          "type": "address"
        }
      ],
      "name": "OwnershipTransferred",
      "type": "event"
    },
    {
      "inputs": [],
      "name": "inventoryStaking",
      "outputs": [
        {
          "internalType": "contract NFTXInventoryStaking",
          "name": "",
          "type": "address"
        }
      ],
      "stateMutability": "view",
      "type": "function"
    },
    {
      "inputs": [
        {
          "internalType": "uint256",
          "name": "vaultId",
          "type": "uint256"
        },
        {
          "internalType": "address",
          "name": "staker",
          "type": "address"
        },
        {
          "internalType": "address",
          "name": "slpToken",
          "type": "address"
        }
      ],
      "name": "maxNftsUsingXToken",
      "outputs": [
        {
          "internalType": "uint256",
          "name": "numNfts",
          "type": "uint256"
        },
        {
          "internalType": "bool",
          "name": "shortByTinyAmount",
          "type": "bool"
        }
      ],
      "stateMutability": "view",
      "type": "function"
    },
    {
      "inputs": [],
      "name": "owner",
      "outputs": [
        {
          "internalType": "address",
          "name": "",
          "type": "address"
        }
      ],
      "stateMutability": "view",
      "type": "function"
    },
    {
      "inputs": [],
      "name": "renounceOwnership",
      "outputs": [],
      "stateMutability": "nonpayable",
      "type": "function"
    },
    {
      "inputs": [
        {
          "internalType": "address",
          "name": "token",
          "type": "address"
        }
      ],
      "name": "rescue",
      "outputs": [],
      "stateMutability": "nonpayable",
      "type": "function"
    },
    {
      "inputs": [
        {
          "internalType": "address",
          "name": "addr",
          "type": "address"
        }
      ],
      "name": "setInventoryStaking",
      "outputs": [],
      "stateMutability": "nonpayable",
      "type": "function"
    },
    {
      "inputs": [
        {
          "internalType": "address",
          "name": "sushiRouterAddr",
          "type": "address"
        }
      ],
      "name": "setSushiRouterAndWeth",
      "outputs": [],
      "stateMutability": "nonpayable",
      "type": "function"
    },
    {
      "inputs": [
        {
          "internalType": "address",
          "name": "addr",
          "type": "address"
        }
      ],
      "name": "setVaultFactory",
      "outputs": [],
      "stateMutability": "nonpayable",
      "type": "function"
    },
    {
      "inputs": [],
      "name": "sushiRouter",
      "outputs": [
        {
          "internalType": "contract IUniswapV2Router01",
          "name": "",
          "type": "address"
        }
      ],
      "stateMutability": "view",
      "type": "function"
    },
    {
      "inputs": [
        {
          "internalType": "address",
          "name": "newOwner",
          "type": "address"
        }
      ],
      "name": "transferOwnership",
      "outputs": [],
      "stateMutability": "nonpayable",
      "type": "function"
    },
    {
      "inputs": [
        {
          "internalType": "uint256",
          "name": "vaultId",
          "type": "uint256"
        },
        {
          "internalType": "uint256",
          "name": "numNfts",
          "type": "uint256"
        },
        {
          "internalType": "uint256",
          "name": "remainingPortionToUnstake",
          "type": "uint256"
        }
      ],
      "name": "unstakeInventory",
      "outputs": [],
      "stateMutability": "payable",
      "type": "function"
    },
    {
      "inputs": [],
      "name": "vaultFactory",
      "outputs": [
        {
          "internalType": "contract INFTXVaultFactory",
          "name": "",
          "type": "address"
        }
      ],
      "stateMutability": "view",
      "type": "function"
    },
    {
      "inputs": [],
      "name": "weth",
      "outputs": [
        {
          "internalType": "contract IWETH",
          "name": "",
          "type": "address"
        }
      ],
      "stateMutability": "view",
      "type": "function"
    },
    {
      "stateMutability": "payable",
      "type": "receive"
    }
  ],
  "bytecode": "0x608060405234801561001057600080fd5b50600080546001600160a01b031916339081178255604051909182917f8be0079c531659141344cd1fd0a4f28419497f9722a3daafe3b4186f6b6457e0908290a35060018055611eb0806100656000396000f3fe6080604052600436106100c65760003560e01c806378caec371161007f578063c0c65a4e11610059578063c0c65a4e14610219578063d8a06f7314610239578063f2fde38b14610259578063fa8afbd91461027957600080fd5b806378caec37146101bb578063839006f2146101db5780638da5cb5b146101fb57600080fd5b80630eb188ae146100d25780633ea7fbdb1461010c5780633fc8cef31461012e5780636d13582c14610166578063715018a61461018657806374a1b0b01461019b57600080fd5b366100cd57005b600080fd5b3480156100de57600080fd5b506100f26100ed366004611aaa565b61028c565b604080519283529015156020830152015b60405180910390f35b34801561011857600080fd5b5061012c610127366004611aec565b610792565b005b34801561013a57600080fd5b5060055461014e906001600160a01b031681565b6040516001600160a01b039091168152602001610103565b34801561017257600080fd5b5060045461014e906001600160a01b031681565b34801561019257600080fd5b5061012c6107e7565b3480156101a757600080fd5b5060035461014e906001600160a01b031681565b3480156101c757600080fd5b5061012c6101d6366004611aec565b61085b565b3480156101e757600080fd5b5061012c6101f6366004611aec565b610922565b34801561020757600080fd5b506000546001600160a01b031661014e565b34801561022557600080fd5b5061012c610234366004611aec565b610a9e565b34801561024557600080fd5b5060025461014e906001600160a01b031681565b34801561026557600080fd5b5061012c610274366004611aec565b610aea565b61012c610287366004611b09565b610bd4565b600354604051630611e36d60e51b8152600481018590526001600160a01b038481166024830152600092839242929091169063c23c6da090604401602060405180830381865afa1580156102e4573d6000803e3d6000fd5b505050506040513d601f19601f820116820180604052508101906103089190611b35565b11156103195750600090508061078a565b6002546040516340d1b7db60e11b8152600481018790526000916001600160a01b0316906381a36fb690602401602060405180830381865afa158015610363573d6000803e3d6000fd5b505050506040513d601f19601f820116820180604052508101906103879190611b4e565b60035460405163cda13d6760e01b81526001600160a01b0380841660048301529293506000929091169063cda13d6790602401602060405180830381865afa1580156103d7573d6000803e3d6000fd5b505050506040513d601f19601f820116820180604052508101906103fb9190611b4e565b6040516370a0823160e01b81526001600160a01b038881166004830152919250839183918891600091908416906370a0823190602401602060405180830381865afa15801561044e573d6000803e3d6000fd5b505050506040513d601f19601f820116820180604052508101906104729190611b35565b6003546040516321b1fe6960e11b8152600481018e90529192506000916001600160a01b0390911690634363fcd290602401602060405180830381865afa1580156104c1573d6000803e3d6000fd5b505050506040513d601f19601f820116820180604052508101906104e59190611b35565b90506000670de0b6b3a76400006104fc8385611b81565b6105069190611ba0565b90506000670de0b6b3a764000061051d8486611b81565b6105279190611ba0565b610532906063611bc2565b90506000610548670de0b6b3a764000084611ba0565b9050600061055e670de0b6b3a764000084611ba0565b905081811115610774576040516370a0823160e01b81523360048201526063906001600160a01b038b16906370a0823190602401602060405180830381865afa1580156105af573d6000803e3d6000fd5b505050506040513d601f19601f820116820180604052508101906105d39190611b35565b101580156106535750604051636eb1769f60e11b81523060048201526001600160a01b038c81166024830152606391908b169063dd62ed3e90604401602060405180830381865afa15801561062c573d6000803e3d6000fd5b505050506040513d601f19601f820116820180604052508101906106509190611b35565b10155b1561066e579b5060019a5061078a9950505050505050505050565b612710876001600160a01b03166318160ddd6040518163ffffffff1660e01b8152600401602060405180830381865afa1580156106af573d6000803e3d6000fd5b505050506040513d601f19601f820116820180604052508101906106d39190611b35565b106106ee579b5060019a5061078a9950505050505050505050565b6040516370a0823160e01b81523060048201526063906001600160a01b038b16906370a0823190602401602060405180830381865afa158015610735573d6000803e3d6000fd5b505050506040513d601f19601f820116820180604052508101906107599190611b35565b10610774579b5060019a5061078a9950505050505050505050565b509a506000995061078a98505050505050505050565b935093915050565b6000546001600160a01b031633146107c55760405162461bcd60e51b81526004016107bc90611bda565b60405180910390fd5b600280546001600160a01b0319166001600160a01b0392909216919091179055565b6000546001600160a01b031633146108115760405162461bcd60e51b81526004016107bc90611bda565b600080546040516001600160a01b03909116907f8be0079c531659141344cd1fd0a4f28419497f9722a3daafe3b4186f6b6457e0908390a3600080546001600160a01b0319169055565b6000546001600160a01b031633146108855760405162461bcd60e51b81526004016107bc90611bda565b600480546001600160a01b0319166001600160a01b0383169081178255604080516315ab88c960e31b81529051919263ad5c46489282820192602092908290030181865afa1580156108db573d6000803e3d6000fd5b505050506040513d601f19601f820116820180604052508101906108ff9190611b4e565b600580546001600160a01b0319166001600160a01b039290921691909117905550565b6000546001600160a01b0316331461094c5760405162461bcd60e51b81526004016107bc90611bda565b6001600160a01b038116610a1c57604051600090339047908381818185875af1925050503d806000811461099c576040519150601f19603f3d011682016040523d82523d6000602084013e6109a1565b606091505b5050905080610a185760405162461bcd60e51b815260206004820152603a60248201527f416464726573733a20756e61626c6520746f2073656e642076616c75652c207260448201527f6563697069656e74206d6179206861766520726576657274656400000000000060648201526084016107bc565b5050565b6040516370a0823160e01b8152306004820152610a9b9033906001600160a01b038416906370a0823190602401602060405180830381865afa158015610a66573d6000803e3d6000fd5b505050506040513d601f19601f82011682018060405250810190610a8a9190611b35565b6001600160a01b03841691906117a3565b50565b6000546001600160a01b03163314610ac85760405162461bcd60e51b81526004016107bc90611bda565b600380546001600160a01b0319166001600160a01b0392909216919091179055565b6000546001600160a01b03163314610b145760405162461bcd60e51b81526004016107bc90611bda565b6001600160a01b038116610b795760405162461bcd60e51b815260206004820152602660248201527f4f776e61626c653a206e6577206f776e657220697320746865207a65726f206160448201526564647265737360d01b60648201526084016107bc565b600080546040516001600160a01b03808516939216917f8be0079c531659141344cd1fd0a4f28419497f9722a3daafe3b4186f6b6457e091a3600080546001600160a01b0319166001600160a01b0392909216919091179055565b670de0b6b3a7640000811115610be957600080fd5b6002546040516340d1b7db60e11b8152600481018590526000916001600160a01b0316906381a36fb690602401602060405180830381865afa158015610c33573d6000803e3d6000fd5b505050506040513d601f19601f82011682018060405250810190610c579190611b4e565b60035460405163cda13d6760e01b81526001600160a01b0380841660048301529293506000929091169063cda13d6790602401602060405180830381865afa158015610ca7573d6000803e3d6000fd5b505050506040513d601f19601f82011682018060405250810190610ccb9190611b4e565b905081816000670de0b6b3a7640000869003610d50576040516370a0823160e01b81523360048201526001600160a01b038316906370a0823190602401602060405180830381865afa158015610d25573d6000803e3d6000fd5b505050506040513d601f19601f82011682018060405250810190610d499190611b35565b9050610fcc565b6003546040516321b1fe6960e11b8152600481018a90526000916001600160a01b031690634363fcd290602401602060405180830381865afa158015610d9a573d6000803e3d6000fd5b505050506040513d601f19601f82011682018060405250810190610dbe9190611b35565b9050600081610dd58a670de0b6b3a7640000611b81565b610de790670de0b6b3a7640000611b81565b610df19190611ba0565b9050610e0589670de0b6b3a7640000611b81565b670de0b6b3a7640000610e188484611b81565b610e229190611ba0565b1015610e3657610e33600182611bc2565b90505b6040516370a0823160e01b815233600482015281906001600160a01b038616906370a0823190602401602060405180830381865afa158015610e7c573d6000803e3d6000fd5b505050506040513d601f19601f82011682018060405250810190610ea09190611b35565b1015610f15576040516370a0823160e01b81523360048201526001600160a01b038516906370a0823190602401602060405180830381865afa158015610eea573d6000803e3d6000fd5b505050506040513d601f19601f82011682018060405250810190610f0e9190611b35565b9250610fc9565b87600003610f2557809250610fc9565b6040516370a0823160e01b815233600482015260009082906001600160a01b038716906370a0823190602401602060405180830381865afa158015610f6e573d6000803e3d6000fd5b505050506040513d601f19601f82011682018060405250810190610f929190611b35565b610f9c9190611c0f565b9050670de0b6b3a7640000610fb18a83611b81565b610fbb9190611ba0565b610fc59083611bc2565b9350505b50505b610fe16001600160a01b03831633308461180b565b600354604051636eb1769f60e11b81523060048201526001600160a01b039182166024820152829184169063dd62ed3e90604401602060405180830381865afa158015611032573d6000803e3d6000fd5b505050506040513d601f19601f820116820180604052508101906110569190611b35565b10156110d65760035460405163095ea7b360e01b81526001600160a01b03918216600482015260001960248201529083169063095ea7b3906044016020604051808303816000875af11580156110b0573d6000803e3d6000fd5b505050506040513d601f19601f820116820180604052508101906110d49190611c26565b505b6040516370a0823160e01b81523060048201526000906001600160a01b038516906370a0823190602401602060405180830381865afa15801561111d573d6000803e3d6000fd5b505050506040513d601f19601f820116820180604052508101906111419190611b35565b600354604051630441a3e760e41b8152600481018c9052602481018590529192506001600160a01b03169063441a3e7090604401600060405180830381600087803b15801561118f57600080fd5b505af11580156111a3573d6000803e3d6000fd5b50505050600088670de0b6b3a76400006111bd9190611b81565b6040516370a0823160e01b815230600482015283906001600160a01b038816906370a0823190602401602060405180830381865afa158015611203573d6000803e3d6000fd5b505050506040513d601f19601f820116820180604052508101906112279190611b35565b6112319190611c0f565b10156112ca576040516370a0823160e01b815230600482015282906001600160a01b038716906370a0823190602401602060405180830381865afa15801561127d573d6000803e3d6000fd5b505050506040513d601f19601f820116820180604052508101906112a19190611b35565b6112ab9190611c0f565b6112bd8a670de0b6b3a7640000611b81565b6112c79190611c0f565b90505b6064811061130f5760405162461bcd60e51b81526020600482015260126024820152716e6f7420656e6f7567682076546f6b656e7360701b60448201526064016107bc565b81811115611530576040516370a0823160e01b815233600482015281906001600160a01b038716906370a0823190602401602060405180830381865afa15801561135d573d6000803e3d6000fd5b505050506040513d601f19601f820116820180604052508101906113819190611b35565b101580156114005750604051636eb1769f60e11b81523060048201526001600160a01b03888116602483015282919087169063dd62ed3e90604401602060405180830381865afa1580156113d9573d6000803e3d6000fd5b505050506040513d601f19601f820116820180604052508101906113fd9190611b35565b10155b1561141f5761141a6001600160a01b03861633308461180b565b611530565b604080516002808252606082018352600092602083019080368337505060055482519293506001600160a01b03169183915060009061146057611460611c5e565b60200260200101906001600160a01b031690816001600160a01b031681525050878160018151811061149457611494611c5e565b6001600160a01b0392831660209182029290920101526004541663fb3bdb41633b9aca008484306114c742612710611bc2565b6040518663ffffffff1660e01b81526004016114e69493929190611c74565b60006040518083038185885af1158015611504573d6000803e3d6000fd5b50505050506040513d6000823e601f3d908101601f1916820160405261152d9190810190611cde565b50505b88156116b95761154889670de0b6b3a7640000611b81565b604051636eb1769f60e11b81523060048201526001600160a01b03898116602483015287169063dd62ed3e90604401602060405180830381865afa158015611594573d6000803e3d6000fd5b505050506040513d601f19601f820116820180604052508101906115b89190611b35565b10156116345760405163095ea7b360e01b81526001600160a01b038881166004830152600019602483015286169063095ea7b3906044016020604051808303816000875af115801561160e573d6000803e3d6000fd5b505050506040513d601f19601f820116820180604052508101906116329190611c26565b505b60408051600081526020810191829052634eaa6f7b60e11b9091526001600160a01b03881690639d54def690611670908c903360248201611d9c565b6000604051808303816000875af115801561168f573d6000803e3d6000fd5b505050506040513d6000823e601f3d908101601f191682016040526116b79190810190611cde565b505b6040516370a0823160e01b815230600482015260009083906001600160a01b038816906370a0823190602401602060405180830381865afa158015611702573d6000803e3d6000fd5b505050506040513d601f19601f820116820180604052508101906117269190611b35565b6117309190611c0f565b9050606481111561174f5761174f6001600160a01b03871633836117a3565b604080518c8152602081018690529081018b90523360608201527f2d80d681127a38ca715ea60cfd400ccbe674c857d140e3437d0da5dde6152fa39060800160405180910390a15050505050505050505050565b6040516001600160a01b03831660248201526044810182905261180690849063a9059cbb60e01b906064015b60408051601f198184030181529190526020810180516001600160e01b03166001600160e01b031990931692909217909152611849565b505050565b6040516001600160a01b03808516602483015283166044820152606481018290526118439085906323b872dd60e01b906084016117cf565b50505050565b600061189e826040518060400160405280602081526020017f5361666545524332303a206c6f772d6c6576656c2063616c6c206661696c6564815250856001600160a01b031661191b9092919063ffffffff16565b80519091501561180657808060200190518101906118bc9190611c26565b6118065760405162461bcd60e51b815260206004820152602a60248201527f5361666545524332303a204552433230206f7065726174696f6e20646964206e6044820152691bdd081cdd58d8d9595960b21b60648201526084016107bc565b606061192a8484600085611934565b90505b9392505050565b6060824710156119955760405162461bcd60e51b815260206004820152602660248201527f416464726573733a20696e73756666696369656e742062616c616e636520666f6044820152651c8818d85b1b60d21b60648201526084016107bc565b843b6119e35760405162461bcd60e51b815260206004820152601d60248201527f416464726573733a2063616c6c20746f206e6f6e2d636f6e747261637400000060448201526064016107bc565b600080866001600160a01b031685876040516119ff9190611e2b565b60006040518083038185875af1925050503d8060008114611a3c576040519150601f19603f3d011682016040523d82523d6000602084013e611a41565b606091505b5091509150611a51828286611a5c565b979650505050505050565b60608315611a6b57508161192d565b825115611a7b5782518084602001fd5b8160405162461bcd60e51b81526004016107bc9190611e47565b6001600160a01b0381168114610a9b57600080fd5b600080600060608486031215611abf57600080fd5b833592506020840135611ad181611a95565b91506040840135611ae181611a95565b809150509250925092565b600060208284031215611afe57600080fd5b813561192d81611a95565b600080600060608486031215611b1e57600080fd5b505081359360208301359350604090920135919050565b600060208284031215611b4757600080fd5b5051919050565b600060208284031215611b6057600080fd5b815161192d81611a95565b634e487b7160e01b600052601160045260246000fd5b6000816000190483118215151615611b9b57611b9b611b6b565b500290565b600082611bbd57634e487b7160e01b600052601260045260246000fd5b500490565b60008219821115611bd557611bd5611b6b565b500190565b6020808252818101527f4f776e61626c653a2063616c6c6572206973206e6f7420746865206f776e6572604082015260600190565b600082821015611c2157611c21611b6b565b500390565b600060208284031215611c3857600080fd5b8151801515811461192d57600080fd5b634e487b7160e01b600052604160045260246000fd5b634e487b7160e01b600052603260045260246000fd5b600060808201868352602060808185015281875180845260a086019150828901935060005b81811015611cbe5784516001600160a01b031683529383019391830191600101611c99565b50506001600160a01b039690961660408501525050506060015292915050565b60006020808385031215611cf157600080fd5b825167ffffffffffffffff80821115611d0957600080fd5b818501915085601f830112611d1d57600080fd5b815181811115611d2f57611d2f611c48565b8060051b604051601f19603f83011681018181108582111715611d5457611d54611c48565b604052918252848201925083810185019188831115611d7257600080fd5b938501935b82851015611d9057845184529385019392850192611d77565b98975050505050505050565b6000606082018583526020606081850152818651808452608086019150828801935060005b81811015611ddd57845183529383019391830191600101611dc1565b50506001600160a01b0395909516604094909401939093525091949350505050565b60005b83811015611e1a578181015183820152602001611e02565b838111156118435750506000910152565b60008251611e3d818460208701611dff565b9190910192915050565b6020815260008251806020840152611e66816040850160208701611dff565b601f01601f1916919091016040019291505056fea2646970667358221220b803a702d99a329de5e672f1d0324061f387da9f813285f3f2c1bf502c671df264736f6c634300080d0033",
  "linkReferences": {},
  "deployedLinkReferences": {}
}