{
  "_format": "hh-sol-artifact-1",
  "contractName": "UniswapV3SparkleEligibility",
  "sourceName": "contracts/solidity/eligibility/UniswapV3SparkleEligibility.sol",
  "abi": [
    {
      "anonymous": false,
      "inputs": [],
      "name": "NFTXEligibilityInit",
      "type": "event"
    },
    {
      "anonymous": false,
      "inputs": [
        {
          "indexed": true,
          "internalType": "address",
          "name": "previousOwner",
          "type": "address"
        },
        {
          "indexed": true,
          "internalType": "address",
          "name": "newOwner",
          "type": "address"
        }
      ],
      "name": "OwnershipTransferred",
      "type": "event"
    },
    {
      "anonymous": false,
      "inputs": [
        {
          "indexed": false,
          "internalType": "address[]",
          "name": "poolsAdded",
          "type": "address[]"
        }
      ],
      "name": "PoolsAdded",
      "type": "event"
    },
    {
      "inputs": [
        {
          "internalType": "address[]",
          "name": "_validPools",
          "type": "address[]"
        },
        {
          "internalType": "address",
          "name": "_owner",
          "type": "address"
        }
      ],
      "name": "__NFTXEligibility_init",
      "outputs": [],
      "stateMutability": "nonpayable",
      "type": "function"
    },
    {
      "inputs": [
        {
          "internalType": "bytes",
          "name": "configData",
          "type": "bytes"
        }
      ],
      "name": "__NFTXEligibility_init_bytes",
      "outputs": [],
      "stateMutability": "nonpayable",
      "type": "function"
    },
    {
      "inputs": [
        {
          "internalType": "address[]",
          "name": "newPools",
          "type": "address[]"
        }
      ],
      "name": "addValidPools",
      "outputs": [],
      "stateMutability": "nonpayable",
      "type": "function"
    },
    {
      "inputs": [
        {
          "internalType": "uint256[]",
          "name": "tokenIds",
          "type": "uint256[]"
        }
      ],
      "name": "afterMintHook",
      "outputs": [],
      "stateMutability": "nonpayable",
      "type": "function"
    },
    {
      "inputs": [
        {
          "internalType": "uint256[]",
          "name": "tokenIds",
          "type": "uint256[]"
        }
      ],
      "name": "afterRedeemHook",
      "outputs": [],
      "stateMutability": "nonpayable",
      "type": "function"
    },
    {
      "inputs": [
        {
          "internalType": "uint256[]",
          "name": "tokenIds",
          "type": "uint256[]"
        }
      ],
      "name": "beforeMintHook",
      "outputs": [],
      "stateMutability": "nonpayable",
      "type": "function"
    },
    {
      "inputs": [
        {
          "internalType": "uint256[]",
          "name": "tokenIds",
          "type": "uint256[]"
        }
      ],
      "name": "beforeRedeemHook",
      "outputs": [],
      "stateMutability": "nonpayable",
      "type": "function"
    },
    {
      "inputs": [
        {
          "internalType": "uint256[]",
          "name": "tokenIds",
          "type": "uint256[]"
        }
      ],
      "name": "checkAllEligible",
      "outputs": [
        {
          "internalType": "bool",
          "name": "",
          "type": "bool"
        }
      ],
      "stateMutability": "view",
      "type": "function"
    },
    {
      "inputs": [
        {
          "internalType": "uint256[]",
          "name": "tokenIds",
          "type": "uint256[]"
        }
      ],
      "name": "checkAllIneligible",
      "outputs": [
        {
          "internalType": "bool",
          "name": "",
          "type": "bool"
        }
      ],
      "stateMutability": "view",
      "type": "function"
    },
    {
      "inputs": [
        {
          "internalType": "uint256[]",
          "name": "tokenIds",
          "type": "uint256[]"
        }
      ],
      "name": "checkEligible",
      "outputs": [
        {
          "internalType": "bool[]",
          "name": "",
          "type": "bool[]"
        }
      ],
      "stateMutability": "view",
      "type": "function"
    },
    {
      "inputs": [
        {
          "internalType": "uint256",
          "name": "tokenId",
          "type": "uint256"
        }
      ],
      "name": "checkIsEligible",
      "outputs": [
        {
          "internalType": "bool",
          "name": "",
          "type": "bool"
        }
      ],
      "stateMutability": "view",
      "type": "function"
    },
    {
      "inputs": [],
      "name": "finalized",
      "outputs": [
        {
          "internalType": "bool",
          "name": "",
          "type": "bool"
        }
      ],
      "stateMutability": "view",
      "type": "function"
    },
    {
      "inputs": [],
      "name": "isInitialized",
      "outputs": [
        {
          "internalType": "bool",
          "name": "",
          "type": "bool"
        }
      ],
      "stateMutability": "view",
      "type": "function"
    },
    {
      "inputs": [],
      "name": "name",
      "outputs": [
        {
          "internalType": "string",
          "name": "",
          "type": "string"
        }
      ],
      "stateMutability": "pure",
      "type": "function"
    },
    {
      "inputs": [],
      "name": "owner",
      "outputs": [
        {
          "internalType": "address",
          "name": "",
          "type": "address"
        }
      ],
      "stateMutability": "view",
      "type": "function"
    },
    {
      "inputs": [],
      "name": "positionManager",
      "outputs": [
        {
          "internalType": "address",
          "name": "",
          "type": "address"
        }
      ],
      "stateMutability": "view",
      "type": "function"
    },
    {
      "inputs": [],
      "name": "renounceOwnership",
      "outputs": [],
      "stateMutability": "nonpayable",
      "type": "function"
    },
    {
      "inputs": [],
      "name": "targetAsset",
      "outputs": [
        {
          "internalType": "address",
          "name": "",
          "type": "address"
        }
      ],
      "stateMutability": "pure",
      "type": "function"
    },
    {
      "inputs": [
        {
          "internalType": "address",
          "name": "newOwner",
          "type": "address"
        }
      ],
      "name": "transferOwnership",
      "outputs": [],
      "stateMutability": "nonpayable",
      "type": "function"
    },
    {
      "inputs": [
        {
          "internalType": "address",
          "name": "",
          "type": "address"
        }
      ],
      "name": "validPools",
      "outputs": [
        {
          "internalType": "bool",
          "name": "",
          "type": "bool"
        }
      ],
      "stateMutability": "view",
      "type": "function"
    }
  ],
  "bytecode": "0x608060405234801561001057600080fd5b506114ba806100206000396000f3fe608060405234801561001057600080fd5b506004361061012c5760003560e01c8063791b98bc116100ad578063b3f05b9711610071578063b3f05b971461028e578063bd8affde1461016c578063ca373f2814610296578063d2a096e8146102a9578063f2fde38b146102bc57600080fd5b8063791b98bc1461021957806384ca9f85146102345780638da5cb5b1461024757806393368fdf146102585780639b524e1f1461027b57600080fd5b80634998b7f3116100f45780634998b7f3146101de5780635e2f9b521461016c5780636c47d5951461016c5780636cd91260146101f1578063715018a61461021157600080fd5b806306fdde031461013157806336eb08621461016c578063392e53cd146101805780633a8932731461019d5780633d4403ac146101b0575b600080fd5b604080518082018252601081526f556e69737761705633537061726b6c6560801b602082015290516101639190610db5565b60405180910390f35b61017e61017a366004610e0a565b5050565b005b60655461018d9060ff1681565b6040519015158152602001610163565b61017e6101ab366004610f73565b6102cf565b73c36442b4a4522e871399cd717abdd847ab11fe885b6040516001600160a01b039091168152602001610163565b61017e6101ec366004610fb0565b6103a5565b6102046101ff366004610e0a565b610438565b6040516101639190611045565b61017e6104ed565b6101c673c36442b4a4522e871399cd717abdd847ab11fe8881565b61018d610242366004610e0a565b610561565b6033546001600160a01b03166101c6565b61018d61026636600461108b565b60666020526000908152604090205460ff1681565b61017e6102893660046110af565b6105af565b61018d61066d565b61018d6102a4366004610e0a565b6106a1565b61018d6102b7366004611101565b6106e5565b61017e6102ca36600461108b565b6106f0565b6033546001600160a01b031633146103025760405162461bcd60e51b81526004016102f99061111a565b60405180910390fd5b60005b815181101561036a576001606660008484815181106103265761032661114f565b6020908102919091018101516001600160a01b03168252810191909152604001600020805460ff1916911515919091179055806103628161117b565b915050610305565b507f9af2f49f0fe48e38ec4cd4438b994734c1e8051ec41e556337eb2fd61bf58d268160405161039a9190611194565b60405180910390a150565b600054610100900460ff16806103be575060005460ff16155b6103da5760405162461bcd60e51b81526004016102f9906111d5565b600054610100900460ff161580156103fc576000805461ffff19166101011790555b60008083806020019051810190610413919061122e565b9150915061042182826105af565b5050801561017a576000805461ff00191690555050565b60608160008167ffffffffffffffff81111561045657610456610e7f565b60405190808252806020026020018201604052801561047f578160200160208202803683370190505b50905060005b828110156104e2576104ae8686838181106104a2576104a261114f565b905060200201356107db565b8282815181106104c0576104c061114f565b91151560209283029190910190910152806104da8161117b565b915050610485565b509150505b92915050565b6033546001600160a01b031633146105175760405162461bcd60e51b81526004016102f99061111a565b6033546040516000916001600160a01b0316907f8be0079c531659141344cd1fd0a4f28419497f9722a3daafe3b4186f6b6457e0908390a3603380546001600160a01b0319169055565b600081815b818110156105a4576105838585838181106104a2576104a261114f565b610592576000925050506104e7565b8061059c8161117b565b915050610566565b506001949350505050565b600054610100900460ff16806105c8575060005460ff16155b6105e45760405162461bcd60e51b81526004016102f9906111d5565b600054610100900460ff16158015610606576000805461ffff19166101011790555b61060e6109c4565b6065805460ff19166001179055610624836102cf565b6040517fb708568a0e67d40b1324a610ddd779500570f113513f944a791cc7b8b4970dec90600090a1610656826106f0565b8015610668576000805461ff00191690555b505050565b60655460009060ff16801561069c575060006106916033546001600160a01b031690565b6001600160a01b0316145b905090565b600081815b818110156105a4576106c38585838181106104a2576104a261114f565b156106d3576000925050506104e7565b806106dd8161117b565b9150506106a6565b60006104e7826107db565b6033546001600160a01b0316331461071a5760405162461bcd60e51b81526004016102f99061111a565b6001600160a01b03811661077f5760405162461bcd60e51b815260206004820152602660248201527f4f776e61626c653a206e6577206f776e657220697320746865207a65726f206160448201526564647265737360d01b60648201526084016102f9565b6033546040516001600160a01b038084169216907f8be0079c531659141344cd1fd0a4f28419497f9722a3daafe3b4186f6b6457e090600090a3603380546001600160a01b0319166001600160a01b0392909216919091179055565b600080600080600080600073c36442b4a4522e871399cd717abdd847ab11fe886001600160a01b03166399fbab88896040518263ffffffff1660e01b815260040161082891815260200190565b61018060405180830381865afa158015610846573d6000803e3d6000fd5b505050506040513d601f19601f8201168201806040525081019061086a9190611316565b9b509b5050509950505097509750975050506000836001600160801b0316600014801561089e57506001600160801b038316155b80156108b157506001600160801b038216155b9050806108c75750600098975050505050505050565b600061097973c36442b4a4522e871399cd717abdd847ab11fe886001600160a01b031663c45a01556040518163ffffffff1660e01b8152600401602060405180830381865afa15801561091e573d6000803e3d6000fd5b505050506040513d601f19601f8201168201806040525081019061094291906113f7565b60405180606001604052808b6001600160a01b031681526020018a6001600160a01b031681526020018962ffffff16815250610a40565b6001600160a01b03811660009081526066602052604090205490915060ff166109ac575060009998505050505050505050565b6109b68a82610b29565b9a9950505050505050505050565b600054610100900460ff16806109dd575060005460ff16155b6109f95760405162461bcd60e51b81526004016102f9906111d5565b600054610100900460ff16158015610a1b576000805461ffff19166101011790555b610a23610ba8565b610a2b610c12565b8015610a3d576000805461ff00191690555b50565b600081602001516001600160a01b031682600001516001600160a01b031610610a6857600080fd5b815160208084015160408086015181516001600160a01b0395861681860152949092168482015262ffffff90911660608085019190915281518085038201815260808501909252815191909201206001600160f81b031960a08401529085901b6bffffffffffffffffffffffff191660a183015260b58201527fe34f199b19b2b4f47f68442619d555527d244f78a3297ea89325f843f87b8b5460d582015260f50160408051601f1981840301815291905280516020909101209392505050565b6000808383604051602001610b5a92919091825260601b6bffffffffffffffffffffffff1916602082015260340190565b604051602081830303815290604052805190602001209050610b7b84610cc0565b610b86906002611414565b610b9190600161143d565b610ba09060ff16600019611462565b119392505050565b600054610100900460ff1680610bc1575060005460ff16155b610bdd5760405162461bcd60e51b81526004016102f9906111d5565b600054610100900460ff16158015610a2b576000805461ffff19166101011790558015610a3d576000805461ff001916905550565b600054610100900460ff1680610c2b575060005460ff16155b610c475760405162461bcd60e51b81526004016102f9906111d5565b600054610100900460ff16158015610c69576000805461ffff19166101011790555b603380546001600160a01b0319163390811790915560405181906000907f8be0079c531659141344cd1fd0a4f28419497f9722a3daafe3b4186f6b6457e0908290a3508015610a3d576000805461ff001916905550565b6000808211610cce57600080fd5b600160801b8210610cec57608091821c91610ce9908261143d565b90505b680100000000000000008210610d0f57604091821c91610d0c908261143d565b90505b6401000000008210610d2e57602091821c91610d2b908261143d565b90505b620100008210610d4b57601091821c91610d48908261143d565b90505b6101008210610d6757600891821c91610d64908261143d565b90505b60108210610d8257600491821c91610d7f908261143d565b90505b60048210610d9d57600291821c91610d9a908261143d565b90505b60028210610db0576104e760018261143d565b919050565b600060208083528351808285015260005b81811015610de257858101830151858201604001528201610dc6565b81811115610df4576000604083870101525b50601f01601f1916929092016040019392505050565b60008060208385031215610e1d57600080fd5b823567ffffffffffffffff80821115610e3557600080fd5b818501915085601f830112610e4957600080fd5b813581811115610e5857600080fd5b8660208260051b8501011115610e6d57600080fd5b60209290920196919550909350505050565b634e487b7160e01b600052604160045260246000fd5b604051601f8201601f1916810167ffffffffffffffff81118282101715610ebe57610ebe610e7f565b604052919050565b600067ffffffffffffffff821115610ee057610ee0610e7f565b5060051b60200190565b6001600160a01b0381168114610a3d57600080fd5b600082601f830112610f1057600080fd5b81356020610f25610f2083610ec6565b610e95565b82815260059290921b84018101918181019086841115610f4457600080fd5b8286015b84811015610f68578035610f5b81610eea565b8352918301918301610f48565b509695505050505050565b600060208284031215610f8557600080fd5b813567ffffffffffffffff811115610f9c57600080fd5b610fa884828501610eff565b949350505050565b60006020808385031215610fc357600080fd5b823567ffffffffffffffff80821115610fdb57600080fd5b818501915085601f830112610fef57600080fd5b81358181111561100157611001610e7f565b611013601f8201601f19168501610e95565b9150808252868482850101111561102957600080fd5b8084840185840137600090820190930192909252509392505050565b6020808252825182820181905260009190848201906040850190845b8181101561107f578351151583529284019291840191600101611061565b50909695505050505050565b60006020828403121561109d57600080fd5b81356110a881610eea565b9392505050565b600080604083850312156110c257600080fd5b823567ffffffffffffffff8111156110d957600080fd5b6110e585828601610eff565b92505060208301356110f681610eea565b809150509250929050565b60006020828403121561111357600080fd5b5035919050565b6020808252818101527f4f776e61626c653a2063616c6c6572206973206e6f7420746865206f776e6572604082015260600190565b634e487b7160e01b600052603260045260246000fd5b634e487b7160e01b600052601160045260246000fd5b60006001820161118d5761118d611165565b5060010190565b6020808252825182820181905260009190848201906040850190845b8181101561107f5783516001600160a01b0316835292840192918401916001016111b0565b6020808252602e908201527f496e697469616c697a61626c653a20636f6e747261637420697320616c72656160408201526d191e481a5b9a5d1a585b1a5e995960921b606082015260800190565b8051610db081610eea565b6000806040838503121561124157600080fd5b825167ffffffffffffffff81111561125857600080fd5b8301601f8101851361126957600080fd5b80516020611279610f2083610ec6565b82815260059290921b8301810191818101908884111561129857600080fd5b938201935b838510156112bf5784516112b081610eea565b8252938201939082019061129d565b95506112ce9050868201611223565b93505050509250929050565b805162ffffff81168114610db057600080fd5b8051600281900b8114610db057600080fd5b80516001600160801b0381168114610db057600080fd5b6000806000806000806000806000806000806101808d8f03121561133957600080fd5b8c516bffffffffffffffffffffffff8116811461135557600080fd5b9b5061136360208e01611223565b9a5061137160408e01611223565b995061137f60608e01611223565b985061138d60808e016112da565b975061139b60a08e016112ed565b96506113a960c08e016112ed565b95506113b760e08e016112ff565b94506101008d015193506101208d015192506113d66101408e016112ff565b91506113e56101608e016112ff565b90509295989b509295989b509295989b565b60006020828403121561140957600080fd5b81516110a881610eea565b600060ff821660ff84168160ff048111821515161561143557611435611165565b029392505050565b600060ff821660ff84168060ff0382111561145a5761145a611165565b019392505050565b60008261147f57634e487b7160e01b600052601260045260246000fd5b50049056fea2646970667358221220c452bc70db7b8cd938ccf944071c1f98c96f8e853d72ec177b0b7f5a3bedaeda64736f6c634300080d0033",
  "linkReferences": {},
  "deployedLinkReferences": {}
}