{
  "_format": "hh-sol-artifact-1",
  "contractName": "XTokenUpgradeable",
  "sourceName": "contracts/solidity/token/XTokenUpgradeable.sol",
  "abi": [
    {
      "anonymous": false,
      "inputs": [
        {
          "indexed": true,
          "internalType": "address",
          "name": "owner",
          "type": "address"
        },
        {
          "indexed": true,
          "internalType": "address",
          "name": "spender",
          "type": "address"
        },
        {
          "indexed": false,
          "internalType": "uint256",
          "name": "value",
          "type": "uint256"
        }
      ],
      "name": "Approval",
      "type": "event"
    },
    {
      "anonymous": false,
      "inputs": [
        {
          "indexed": true,
          "internalType": "address",
          "name": "previousOwner",
          "type": "address"
        },
        {
          "indexed": true,
          "internalType": "address",
          "name": "newOwner",
          "type": "address"
        }
      ],
      "name": "OwnershipTransferred",
      "type": "event"
    },
    {
      "anonymous": false,
      "inputs": [
        {
          "indexed": false,
          "internalType": "address",
          "name": "user",
          "type": "address"
        },
        {
          "indexed": false,
          "internalType": "uint256",
          "name": "until",
          "type": "uint256"
        }
      ],
      "name": "Timelocked",
      "type": "event"
    },
    {
      "anonymous": false,
      "inputs": [
        {
          "indexed": true,
          "internalType": "address",
          "name": "from",
          "type": "address"
        },
        {
          "indexed": true,
          "internalType": "address",
          "name": "to",
          "type": "address"
        },
        {
          "indexed": false,
          "internalType": "uint256",
          "name": "value",
          "type": "uint256"
        }
      ],
      "name": "Transfer",
      "type": "event"
    },
    {
      "inputs": [
        {
          "internalType": "address",
          "name": "_baseToken",
          "type": "address"
        },
        {
          "internalType": "string",
          "name": "name",
          "type": "string"
        },
        {
          "internalType": "string",
          "name": "symbol",
          "type": "string"
        }
      ],
      "name": "__XToken_init",
      "outputs": [],
      "stateMutability": "nonpayable",
      "type": "function"
    },
    {
      "inputs": [
        {
          "internalType": "address",
          "name": "owner",
          "type": "address"
        },
        {
          "internalType": "address",
          "name": "spender",
          "type": "address"
        }
      ],
      "name": "allowance",
      "outputs": [
        {
          "internalType": "uint256",
          "name": "",
          "type": "uint256"
        }
      ],
      "stateMutability": "view",
      "type": "function"
    },
    {
      "inputs": [
        {
          "internalType": "address",
          "name": "spender",
          "type": "address"
        },
        {
          "internalType": "uint256",
          "name": "amount",
          "type": "uint256"
        }
      ],
      "name": "approve",
      "outputs": [
        {
          "internalType": "bool",
          "name": "",
          "type": "bool"
        }
      ],
      "stateMutability": "nonpayable",
      "type": "function"
    },
    {
      "inputs": [
        {
          "internalType": "address",
          "name": "account",
          "type": "address"
        }
      ],
      "name": "balanceOf",
      "outputs": [
        {
          "internalType": "uint256",
          "name": "",
          "type": "uint256"
        }
      ],
      "stateMutability": "view",
      "type": "function"
    },
    {
      "inputs": [],
      "name": "baseToken",
      "outputs": [
        {
          "internalType": "contract IERC20Upgradeable",
          "name": "",
          "type": "address"
        }
      ],
      "stateMutability": "view",
      "type": "function"
    },
    {
      "inputs": [
        {
          "internalType": "address",
          "name": "who",
          "type": "address"
        },
        {
          "internalType": "uint256",
          "name": "_share",
          "type": "uint256"
        }
      ],
      "name": "burnXTokens",
      "outputs": [
        {
          "internalType": "uint256",
          "name": "",
          "type": "uint256"
        }
      ],
      "stateMutability": "nonpayable",
      "type": "function"
    },
    {
      "inputs": [],
      "name": "decimals",
      "outputs": [
        {
          "internalType": "uint8",
          "name": "",
          "type": "uint8"
        }
      ],
      "stateMutability": "view",
      "type": "function"
    },
    {
      "inputs": [
        {
          "internalType": "address",
          "name": "spender",
          "type": "address"
        },
        {
          "internalType": "uint256",
          "name": "subtractedValue",
          "type": "uint256"
        }
      ],
      "name": "decreaseAllowance",
      "outputs": [
        {
          "internalType": "bool",
          "name": "",
          "type": "bool"
        }
      ],
      "stateMutability": "nonpayable",
      "type": "function"
    },
    {
      "inputs": [
        {
          "internalType": "address",
          "name": "spender",
          "type": "address"
        },
        {
          "internalType": "uint256",
          "name": "addedValue",
          "type": "uint256"
        }
      ],
      "name": "increaseAllowance",
      "outputs": [
        {
          "internalType": "bool",
          "name": "",
          "type": "bool"
        }
      ],
      "stateMutability": "nonpayable",
      "type": "function"
    },
    {
      "inputs": [
        {
          "internalType": "address",
          "name": "account",
          "type": "address"
        },
        {
          "internalType": "uint256",
          "name": "_amount",
          "type": "uint256"
        },
        {
          "internalType": "uint256",
          "name": "timelockLength",
          "type": "uint256"
        }
      ],
      "name": "mintXTokens",
      "outputs": [
        {
          "internalType": "uint256",
          "name": "",
          "type": "uint256"
        }
      ],
      "stateMutability": "nonpayable",
      "type": "function"
    },
    {
      "inputs": [],
      "name": "name",
      "outputs": [
        {
          "internalType": "string",
          "name": "",
          "type": "string"
        }
      ],
      "stateMutability": "view",
      "type": "function"
    },
    {
      "inputs": [],
      "name": "owner",
      "outputs": [
        {
          "internalType": "address",
          "name": "",
          "type": "address"
        }
      ],
      "stateMutability": "view",
      "type": "function"
    },
    {
      "inputs": [],
      "name": "renounceOwnership",
      "outputs": [],
      "stateMutability": "nonpayable",
      "type": "function"
    },
    {
      "inputs": [],
      "name": "symbol",
      "outputs": [
        {
          "internalType": "string",
          "name": "",
          "type": "string"
        }
      ],
      "stateMutability": "view",
      "type": "function"
    },
    {
      "inputs": [
        {
          "internalType": "address",
          "name": "account",
          "type": "address"
        },
        {
          "internalType": "uint256",
          "name": "timelockLength",
          "type": "uint256"
        }
      ],
      "name": "timelockAccount",
      "outputs": [],
      "stateMutability": "nonpayable",
      "type": "function"
    },
    {
      "inputs": [
        {
          "internalType": "address",
          "name": "account",
          "type": "address"
        }
      ],
      "name": "timelockUntil",
      "outputs": [
        {
          "internalType": "uint256",
          "name": "",
          "type": "uint256"
        }
      ],
      "stateMutability": "view",
      "type": "function"
    },
    {
      "inputs": [],
      "name": "totalSupply",
      "outputs": [
        {
          "internalType": "uint256",
          "name": "",
          "type": "uint256"
        }
      ],
      "stateMutability": "view",
      "type": "function"
    },
    {
      "inputs": [
        {
          "internalType": "address",
          "name": "recipient",
          "type": "address"
        },
        {
          "internalType": "uint256",
          "name": "amount",
          "type": "uint256"
        }
      ],
      "name": "transfer",
      "outputs": [
        {
          "internalType": "bool",
          "name": "",
          "type": "bool"
        }
      ],
      "stateMutability": "nonpayable",
      "type": "function"
    },
    {
      "inputs": [
        {
          "internalType": "address",
          "name": "sender",
          "type": "address"
        },
        {
          "internalType": "address",
          "name": "recipient",
          "type": "address"
        },
        {
          "internalType": "uint256",
          "name": "amount",
          "type": "uint256"
        }
      ],
      "name": "transferFrom",
      "outputs": [
        {
          "internalType": "bool",
          "name": "",
          "type": "bool"
        }
      ],
      "stateMutability": "nonpayable",
      "type": "function"
    },
    {
      "inputs": [
        {
          "internalType": "address",
          "name": "newOwner",
          "type": "address"
        }
      ],
      "name": "transferOwnership",
      "outputs": [],
      "stateMutability": "nonpayable",
      "type": "function"
    }
  ],
  "bytecode": "0x608060405234801561001057600080fd5b506119f5806100206000396000f3fe608060405234801561001057600080fd5b506004361061012c5760003560e01c80637efe41b1116100ad578063b068498d11610071578063b068498d14610278578063c19ea0531461028b578063c55dae63146102b4578063dd62ed3e146102c7578063f2fde38b1461030057600080fd5b80637efe41b1146102125780638da5cb5b1461022557806395d89b411461024a578063a457c2d714610252578063a9059cbb1461026557600080fd5b806330fe73fd116100f457806330fe73fd146101aa578063313ce567146101bf57806339509351146101ce57806370a08231146101e1578063715018a61461020a57600080fd5b806306fdde0314610131578063095ea7b31461014f57806318160ddd1461017257806319e616a31461018457806323b872dd14610197575b600080fd5b610139610313565b60405161014691906115d8565b60405180910390f35b61016261015d366004611627565b6103a5565b6040519015158152602001610146565b6067545b604051908152602001610146565b610176610192366004611627565b6103bb565b6101626101a5366004611651565b6104ad565b6101bd6101b8366004611730565b610560565b005b60405160128152602001610146565b6101626101dc366004611627565b6105fc565b6101766101ef3660046117a4565b6001600160a01b031660009081526065602052604090205490565b6101bd610633565b6101766102203660046117bf565b6106a7565b6033546001600160a01b03165b6040516001600160a01b039091168152602001610146565b6101396107a3565b610162610260366004611627565b6107b2565b610162610273366004611627565b61084d565b6101bd610286366004611627565b61085a565b6101766102993660046117a4565b6001600160a01b031660009081526098602052604090205490565b609754610232906001600160a01b031681565b6101766102d53660046117f2565b6001600160a01b03918216600090815260666020908152604080832093909416825291909152205490565b6101bd61030e3660046117a4565b61094f565b60606068805461032290611825565b80601f016020809104026020016040519081016040528092919081815260200182805461034e90611825565b801561039b5780601f106103705761010080835404028352916020019161039b565b820191906000526020600020905b81548152906001019060200180831161037e57829003601f168201915b5050505050905090565b60006103b2338484610a3a565b50600192915050565b6033546000906001600160a01b031633146103f15760405162461bcd60e51b81526004016103e89061185f565b60405180910390fd5b60006103fc60675490565b6097546040516370a0823160e01b815230600482015291925060009183916001600160a01b0316906370a0823190602401602060405180830381865afa15801561044a573d6000803e3d6000fd5b505050506040513d601f19601f8201168201806040525081019061046e9190611894565b61047890866118c3565b61048291906118e2565b905061048e8585610b5f565b6097546104a5906001600160a01b03168683610bc2565b949350505050565b60006104ba848484610c14565b6001600160a01b03841660009081526066602090815260408083203384529091529020548281101561053f5760405162461bcd60e51b815260206004820152602860248201527f45524332303a207472616e7366657220616d6f756e74206578636565647320616044820152676c6c6f77616e636560c01b60648201526084016103e8565b610553853361054e8685611904565b610a3a565b60019150505b9392505050565b600054610100900460ff1680610579575060005460ff16155b6105955760405162461bcd60e51b81526004016103e89061191b565b600054610100900460ff161580156105b7576000805461ffff19166101011790555b6105bf610c74565b6105c98383610cf0565b609780546001600160a01b0319166001600160a01b03861617905580156105f6576000805461ff00191690555b50505050565b3360008181526066602090815260408083206001600160a01b038716845290915281205490916103b291859061054e908690611969565b6033546001600160a01b0316331461065d5760405162461bcd60e51b81526004016103e89061185f565b6033546040516000916001600160a01b0316907f8be0079c531659141344cd1fd0a4f28419497f9722a3daafe3b4186f6b6457e0908390a3603380546001600160a01b0319169055565b6033546000906001600160a01b031633146106d45760405162461bcd60e51b81526004016103e89061185f565b6097546040516370a0823160e01b81523060048201526000916001600160a01b0316906370a0823190602401602060405180830381865afa15801561071d573d6000803e3d6000fd5b505050506040513d601f19601f820116820180604052508101906107419190611894565b9050600061074e60675490565b905080158061075b575081155b156107755761076b868686610d6f565b8492505050610559565b60008261078283886118c3565b61078c91906118e2565b9050610799878287610d6f565b9250610559915050565b60606069805461032290611825565b3360009081526066602090815260408083206001600160a01b0386168452909152812054828110156108345760405162461bcd60e51b815260206004820152602560248201527f45524332303a2064656372656173656420616c6c6f77616e63652062656c6f77604482015264207a65726f60d81b60648201526084016103e8565b610843338561054e8685611904565b5060019392505050565b60006103b2338484610c14565b6033546001600160a01b031633146108845760405162461bcd60e51b81526004016103e89061185f565b62278d0081106108c65760405162461bcd60e51b815260206004820152600d60248201526c546f6f206c6f6e67206c6f636b60981b60448201526064016103e8565b60006108d28242611969565b6001600160a01b03841660009081526098602052604090205490915081111561094a576001600160a01b038316600081815260986020908152604091829020849055815192835282018390527f38f63775093182d55eb9f15cb41c506fd976eadb1b4544ba0aeaed494ee70cde910160405180910390a15b505050565b6033546001600160a01b031633146109795760405162461bcd60e51b81526004016103e89061185f565b6001600160a01b0381166109de5760405162461bcd60e51b815260206004820152602660248201527f4f776e61626c653a206e6577206f776e657220697320746865207a65726f206160448201526564647265737360d01b60648201526084016103e8565b6033546040516001600160a01b038084169216907f8be0079c531659141344cd1fd0a4f28419497f9722a3daafe3b4186f6b6457e090600090a3603380546001600160a01b0319166001600160a01b0392909216919091179055565b6001600160a01b038316610a9c5760405162461bcd60e51b8152602060048201526024808201527f45524332303a20617070726f76652066726f6d20746865207a65726f206164646044820152637265737360e01b60648201526084016103e8565b6001600160a01b038216610afd5760405162461bcd60e51b815260206004820152602260248201527f45524332303a20617070726f766520746f20746865207a65726f206164647265604482015261737360f01b60648201526084016103e8565b6001600160a01b0383811660008181526066602090815260408083209487168084529482529182902085905590518481527f8c5be1e5ebec7d5bd14f71427d1e84f3dd0314c0f7b2291e5b200ac8c7c3b92591015b60405180910390a3505050565b6001600160a01b0382166000908152609860205260409020544211610bb45760405162461bcd60e51b815260206004820152600b60248201526a155cd95c881b1bd8dad95960aa1b60448201526064016103e8565b610bbe8282610d83565b5050565b604080516001600160a01b038416602482015260448082018490528251808303909101815260649091019091526020810180516001600160e01b031663a9059cbb60e01b17905261094a908490610ed2565b6001600160a01b0383166000908152609860205260409020544211610c695760405162461bcd60e51b815260206004820152600b60248201526a155cd95c881b1bd8dad95960aa1b60448201526064016103e8565b61094a838383610fa4565b600054610100900460ff1680610c8d575060005460ff16155b610ca95760405162461bcd60e51b81526004016103e89061191b565b600054610100900460ff16158015610ccb576000805461ffff19166101011790555b610cd361117c565b610cdb6111e6565b8015610ced576000805461ff00191690555b50565b600054610100900460ff1680610d09575060005460ff16155b610d255760405162461bcd60e51b81526004016103e89061191b565b600054610100900460ff16158015610d47576000805461ffff19166101011790555b610d4f61117c565b610d598383611294565b801561094a576000805461ff0019169055505050565b610d79838261085a565b61094a8383611329565b6001600160a01b038216610de35760405162461bcd60e51b815260206004820152602160248201527f45524332303a206275726e2066726f6d20746865207a65726f206164647265736044820152607360f81b60648201526084016103e8565b6001600160a01b03821660009081526065602052604090205481811015610e575760405162461bcd60e51b815260206004820152602260248201527f45524332303a206275726e20616d6f756e7420657863656564732062616c616e604482015261636560f01b60648201526084016103e8565b610e618282611904565b6001600160a01b03841660009081526065602052604081209190915560678054849290610e8f908490611904565b90915550506040518281526000906001600160a01b038516907fddf252ad1be2c89b69c2b068fc378daa952ba7f163c4a11628f55a4df523b3ef90602001610b52565b6000610f27826040518060400160405280602081526020017f5361666545524332303a206c6f772d6c6576656c2063616c6c206661696c6564815250856001600160a01b03166114089092919063ffffffff16565b80519091501561094a5780806020019051810190610f459190611981565b61094a5760405162461bcd60e51b815260206004820152602a60248201527f5361666545524332303a204552433230206f7065726174696f6e20646964206e6044820152691bdd081cdd58d8d9595960b21b60648201526084016103e8565b6001600160a01b0383166110085760405162461bcd60e51b815260206004820152602560248201527f45524332303a207472616e736665722066726f6d20746865207a65726f206164604482015264647265737360d81b60648201526084016103e8565b6001600160a01b03821661106a5760405162461bcd60e51b815260206004820152602360248201527f45524332303a207472616e7366657220746f20746865207a65726f206164647260448201526265737360e81b60648201526084016103e8565b6001600160a01b038316600090815260656020526040902054818110156110e25760405162461bcd60e51b815260206004820152602660248201527f45524332303a207472616e7366657220616d6f756e7420657863656564732062604482015265616c616e636560d01b60648201526084016103e8565b6110ec8282611904565b6001600160a01b038086166000908152606560205260408082209390935590851681529081208054849290611122908490611969565b92505081905550826001600160a01b0316846001600160a01b03167fddf252ad1be2c89b69c2b068fc378daa952ba7f163c4a11628f55a4df523b3ef8460405161116e91815260200190565b60405180910390a350505050565b600054610100900460ff1680611195575060005460ff16155b6111b15760405162461bcd60e51b81526004016103e89061191b565b600054610100900460ff16158015610cdb576000805461ffff19166101011790558015610ced576000805461ff001916905550565b600054610100900460ff16806111ff575060005460ff16155b61121b5760405162461bcd60e51b81526004016103e89061191b565b600054610100900460ff1615801561123d576000805461ffff19166101011790555b603380546001600160a01b0319163390811790915560405181906000907f8be0079c531659141344cd1fd0a4f28419497f9722a3daafe3b4186f6b6457e0908290a3508015610ced576000805461ff001916905550565b600054610100900460ff16806112ad575060005460ff16155b6112c95760405162461bcd60e51b81526004016103e89061191b565b600054610100900460ff161580156112eb576000805461ffff19166101011790555b82516112fe906068906020860190611513565b508151611312906069906020850190611513565b50801561094a576000805461ff0019169055505050565b6001600160a01b03821661137f5760405162461bcd60e51b815260206004820152601f60248201527f45524332303a206d696e7420746f20746865207a65726f20616464726573730060448201526064016103e8565b80606760008282546113919190611969565b90915550506001600160a01b038216600090815260656020526040812080548392906113be908490611969565b90915550506040518181526001600160a01b038316906000907fddf252ad1be2c89b69c2b068fc378daa952ba7f163c4a11628f55a4df523b3ef9060200160405180910390a35050565b60606104a5848460008585843b6114615760405162461bcd60e51b815260206004820152601d60248201527f416464726573733a2063616c6c20746f206e6f6e2d636f6e747261637400000060448201526064016103e8565b600080866001600160a01b0316858760405161147d91906119a3565b60006040518083038185875af1925050503d80600081146114ba576040519150601f19603f3d011682016040523d82523d6000602084013e6114bf565b606091505b50915091506114cf8282866114da565b979650505050505050565b606083156114e9575081610559565b8251156114f95782518084602001fd5b8160405162461bcd60e51b81526004016103e891906115d8565b82805461151f90611825565b90600052602060002090601f0160209004810192826115415760008555611587565b82601f1061155a57805160ff1916838001178555611587565b82800160010185558215611587579182015b8281111561158757825182559160200191906001019061156c565b50611593929150611597565b5090565b5b808211156115935760008155600101611598565b60005b838110156115c75781810151838201526020016115af565b838111156105f65750506000910152565b60208152600082518060208401526115f78160408501602087016115ac565b601f01601f19169190910160400192915050565b80356001600160a01b038116811461162257600080fd5b919050565b6000806040838503121561163a57600080fd5b6116438361160b565b946020939093013593505050565b60008060006060848603121561166657600080fd5b61166f8461160b565b925061167d6020850161160b565b9150604084013590509250925092565b634e487b7160e01b600052604160045260246000fd5b600082601f8301126116b457600080fd5b813567ffffffffffffffff808211156116cf576116cf61168d565b604051601f8301601f19908116603f011681019082821181831017156116f7576116f761168d565b8160405283815286602085880101111561171057600080fd5b836020870160208301376000602085830101528094505050505092915050565b60008060006060848603121561174557600080fd5b61174e8461160b565b9250602084013567ffffffffffffffff8082111561176b57600080fd5b611777878388016116a3565b9350604086013591508082111561178d57600080fd5b5061179a868287016116a3565b9150509250925092565b6000602082840312156117b657600080fd5b6105598261160b565b6000806000606084860312156117d457600080fd5b6117dd8461160b565b95602085013595506040909401359392505050565b6000806040838503121561180557600080fd5b61180e8361160b565b915061181c6020840161160b565b90509250929050565b600181811c9082168061183957607f821691505b60208210810361185957634e487b7160e01b600052602260045260246000fd5b50919050565b6020808252818101527f4f776e61626c653a2063616c6c6572206973206e6f7420746865206f776e6572604082015260600190565b6000602082840312156118a657600080fd5b5051919050565b634e487b7160e01b600052601160045260246000fd5b60008160001904831182151516156118dd576118dd6118ad565b500290565b6000826118ff57634e487b7160e01b600052601260045260246000fd5b500490565b600082821015611916576119166118ad565b500390565b6020808252602e908201527f496e697469616c697a61626c653a20636f6e747261637420697320616c72656160408201526d191e481a5b9a5d1a585b1a5e995960921b606082015260800190565b6000821982111561197c5761197c6118ad565b500190565b60006020828403121561199357600080fd5b8151801515811461055957600080fd5b600082516119b58184602087016115ac565b919091019291505056fea2646970667358221220724117f17a9f6d7b816eb0956b3035bf385cba62ab5c08d796b6f89b75c336d864736f6c634300080d0033",
  "linkReferences": {},
  "deployedLinkReferences": {}
}