{
  "_format": "hh-sol-artifact-1",
  "contractName": "ERC1155",
  "sourceName": "contracts/solidity/testing/ERC1155.sol",
  "abi": [
    {
      "inputs": [
        {
          "internalType": "string",
          "name": "uri_",
          "type": "string"
        }
      ],
      "stateMutability": "nonpayable",
      "type": "constructor"
    },
    {
      "anonymous": false,
      "inputs": [
        {
          "indexed": true,
          "internalType": "address",
          "name": "account",
          "type": "address"
        },
        {
          "indexed": true,
          "internalType": "address",
          "name": "operator",
          "type": "address"
        },
        {
          "indexed": false,
          "internalType": "bool",
          "name": "approved",
          "type": "bool"
        }
      ],
      "name": "ApprovalForAll",
      "type": "event"
    },
    {
      "anonymous": false,
      "inputs": [
        {
          "indexed": true,
          "internalType": "address",
          "name": "operator",
          "type": "address"
        },
        {
          "indexed": true,
          "internalType": "address",
          "name": "from",
          "type": "address"
        },
        {
          "indexed": true,
          "internalType": "address",
          "name": "to",
          "type": "address"
        },
        {
          "indexed": false,
          "internalType": "uint256[]",
          "name": "ids",
          "type": "uint256[]"
        },
        {
          "indexed": false,
          "internalType": "uint256[]",
          "name": "values",
          "type": "uint256[]"
        }
      ],
      "name": "TransferBatch",
      "type": "event"
    },
    {
      "anonymous": false,
      "inputs": [
        {
          "indexed": true,
          "internalType": "address",
          "name": "operator",
          "type": "address"
        },
        {
          "indexed": true,
          "internalType": "address",
          "name": "from",
          "type": "address"
        },
        {
          "indexed": true,
          "internalType": "address",
          "name": "to",
          "type": "address"
        },
        {
          "indexed": false,
          "internalType": "uint256",
          "name": "id",
          "type": "uint256"
        },
        {
          "indexed": false,
          "internalType": "uint256",
          "name": "value",
          "type": "uint256"
        }
      ],
      "name": "TransferSingle",
      "type": "event"
    },
    {
      "anonymous": false,
      "inputs": [
        {
          "indexed": false,
          "internalType": "string",
          "name": "value",
          "type": "string"
        },
        {
          "indexed": true,
          "internalType": "uint256",
          "name": "id",
          "type": "uint256"
        }
      ],
      "name": "URI",
      "type": "event"
    },
    {
      "inputs": [
        {
          "internalType": "address",
          "name": "account",
          "type": "address"
        },
        {
          "internalType": "uint256",
          "name": "id",
          "type": "uint256"
        }
      ],
      "name": "balanceOf",
      "outputs": [
        {
          "internalType": "uint256",
          "name": "",
          "type": "uint256"
        }
      ],
      "stateMutability": "view",
      "type": "function"
    },
    {
      "inputs": [
        {
          "internalType": "address[]",
          "name": "accounts",
          "type": "address[]"
        },
        {
          "internalType": "uint256[]",
          "name": "ids",
          "type": "uint256[]"
        }
      ],
      "name": "balanceOfBatch",
      "outputs": [
        {
          "internalType": "uint256[]",
          "name": "",
          "type": "uint256[]"
        }
      ],
      "stateMutability": "view",
      "type": "function"
    },
    {
      "inputs": [
        {
          "internalType": "address",
          "name": "account",
          "type": "address"
        },
        {
          "internalType": "address",
          "name": "operator",
          "type": "address"
        }
      ],
      "name": "isApprovedForAll",
      "outputs": [
        {
          "internalType": "bool",
          "name": "",
          "type": "bool"
        }
      ],
      "stateMutability": "view",
      "type": "function"
    },
    {
      "inputs": [
        {
          "internalType": "address",
          "name": "to",
          "type": "address"
        },
        {
          "internalType": "uint256",
          "name": "tokenId",
          "type": "uint256"
        },
        {
          "internalType": "uint256",
          "name": "amount",
          "type": "uint256"
        }
      ],
      "name": "publicMint",
      "outputs": [],
      "stateMutability": "nonpayable",
      "type": "function"
    },
    {
      "inputs": [
        {
          "internalType": "address",
          "name": "to",
          "type": "address"
        },
        {
          "internalType": "uint256[]",
          "name": "tokenIds",
          "type": "uint256[]"
        },
        {
          "internalType": "uint256[]",
          "name": "amounts",
          "type": "uint256[]"
        }
      ],
      "name": "publicMintBatch",
      "outputs": [],
      "stateMutability": "nonpayable",
      "type": "function"
    },
    {
      "inputs": [
        {
          "internalType": "address",
          "name": "from",
          "type": "address"
        },
        {
          "internalType": "address",
          "name": "to",
          "type": "address"
        },
        {
          "internalType": "uint256[]",
          "name": "ids",
          "type": "uint256[]"
        },
        {
          "internalType": "uint256[]",
          "name": "amounts",
          "type": "uint256[]"
        },
        {
          "internalType": "bytes",
          "name": "data",
          "type": "bytes"
        }
      ],
      "name": "safeBatchTransferFrom",
      "outputs": [],
      "stateMutability": "nonpayable",
      "type": "function"
    },
    {
      "inputs": [
        {
          "internalType": "address",
          "name": "from",
          "type": "address"
        },
        {
          "internalType": "address",
          "name": "to",
          "type": "address"
        },
        {
          "internalType": "uint256",
          "name": "id",
          "type": "uint256"
        },
        {
          "internalType": "uint256",
          "name": "amount",
          "type": "uint256"
        },
        {
          "internalType": "bytes",
          "name": "data",
          "type": "bytes"
        }
      ],
      "name": "safeTransferFrom",
      "outputs": [],
      "stateMutability": "nonpayable",
      "type": "function"
    },
    {
      "inputs": [
        {
          "internalType": "address",
          "name": "operator",
          "type": "address"
        },
        {
          "internalType": "bool",
          "name": "approved",
          "type": "bool"
        }
      ],
      "name": "setApprovalForAll",
      "outputs": [],
      "stateMutability": "nonpayable",
      "type": "function"
    },
    {
      "inputs": [
        {
          "internalType": "bytes4",
          "name": "interfaceId",
          "type": "bytes4"
        }
      ],
      "name": "supportsInterface",
      "outputs": [
        {
          "internalType": "bool",
          "name": "",
          "type": "bool"
        }
      ],
      "stateMutability": "view",
      "type": "function"
    },
    {
      "inputs": [
        {
          "internalType": "uint256",
          "name": "",
          "type": "uint256"
        }
      ],
      "name": "uri",
      "outputs": [
        {
          "internalType": "string",
          "name": "",
          "type": "string"
        }
      ],
      "stateMutability": "view",
      "type": "function"
    }
  ],
  "bytecode": "0x60806040523480156200001157600080fd5b50604051620019c8380380620019c883398101604081905262000034916200011b565b6200003f8162000046565b5062000233565b80516200005b9060029060208401906200005f565b5050565b8280546200006d90620001f7565b90600052602060002090601f016020900481019282620000915760008555620000dc565b82601f10620000ac57805160ff1916838001178555620000dc565b82800160010185558215620000dc579182015b82811115620000dc578251825591602001919060010190620000bf565b50620000ea929150620000ee565b5090565b5b80821115620000ea5760008155600101620000ef565b634e487b7160e01b600052604160045260246000fd5b600060208083850312156200012f57600080fd5b82516001600160401b03808211156200014757600080fd5b818501915085601f8301126200015c57600080fd5b81518181111562000171576200017162000105565b604051601f8201601f19908116603f011681019083821181831017156200019c576200019c62000105565b816040528281528886848701011115620001b557600080fd5b600093505b82841015620001d95784840186015181850187015292850192620001ba565b82841115620001eb5760008684830101525b98975050505050505050565b600181811c908216806200020c57607f821691505b6020821081036200022d57634e487b7160e01b600052602260045260246000fd5b50919050565b61178580620002436000396000f3fe608060405234801561001057600080fd5b506004361061009d5760003560e01c80637e2ce523116100665780637e2ce523146101405780639f02c81e14610153578063a22cb46514610166578063e985e9c514610179578063f242432a146101b557600080fd5b8062fdd58e146100a257806301ffc9a7146100c85780630e89341c146100eb5780632eb2c2d61461010b5780634e1273f414610120575b600080fd5b6100b56100b0366004610e43565b6101c8565b6040519081526020015b60405180910390f35b6100db6100d6366004610e86565b61025f565b60405190151581526020016100bf565b6100fe6100f9366004610eaa565b6102b1565b6040516100bf9190610f10565b61011e61011936600461106f565b610345565b005b61013361012e366004611119565b6103dc565b6040516100bf919061121f565b61011e61014e366004611232565b610506565b61011e6101613660046112a6565b610526565b61011e6101743660046112d9565b610541565b6100db610187366004611315565b6001600160a01b03918216600090815260016020908152604080832093909416825291909152205460ff1690565b61011e6101c3366004611348565b610617565b60006001600160a01b0383166102395760405162461bcd60e51b815260206004820152602b60248201527f455243313135353a2062616c616e636520717565727920666f7220746865207a60448201526a65726f206164647265737360a81b60648201526084015b60405180910390fd5b506000908152602081815260408083206001600160a01b03949094168352929052205490565b60006001600160e01b03198216636cdb3d1360e11b148061029057506001600160e01b031982166303a24d0760e21b145b806102ab57506301ffc9a760e01b6001600160e01b03198316145b92915050565b6060600280546102c0906113ad565b80601f01602080910402602001604051908101604052809291908181526020018280546102ec906113ad565b80156103395780601f1061030e57610100808354040283529160200191610339565b820191906000526020600020905b81548152906001019060200180831161031c57829003601f168201915b50505050509050919050565b6001600160a01b03851633148061036157506103618533610187565b6103c85760405162461bcd60e51b815260206004820152603260248201527f455243313135353a207472616e736665722063616c6c6572206973206e6f74206044820152711bdddb995c881b9bdc88185c1c1c9bdd995960721b6064820152608401610230565b6103d5858585858561069e565b5050505050565b606081518351146104415760405162461bcd60e51b815260206004820152602960248201527f455243313135353a206163636f756e747320616e6420696473206c656e677468604482015268040dad2e6dac2e8c6d60bb1b6064820152608401610230565b6000835167ffffffffffffffff81111561045d5761045d610f23565b604051908082528060200260200182016040528015610486578160200160208202803683370190505b50905060005b84518110156104fe576104d18582815181106104aa576104aa6113e7565b60200260200101518583815181106104c4576104c46113e7565b60200260200101516101c8565b8282815181106104e3576104e36113e7565b60209081029190910101526104f781611413565b905061048c565b509392505050565b61052183838360405180602001604052806000815250610885565b505050565b610521838383604051806020016040528060008152506109d0565b6001600160a01b03821633036105ab5760405162461bcd60e51b815260206004820152602960248201527f455243313135353a2073657474696e6720617070726f76616c20737461747573604482015268103337b91039b2b63360b91b6064820152608401610230565b3360008181526001602090815260408083206001600160a01b03871680855290835292819020805460ff191686151590811790915590519081529192917f17307eab39ab6107e8899845ad3d59bd9653f200f220920489ca2b5937696c31910160405180910390a35050565b6001600160a01b03851633148061063357506106338533610187565b6106915760405162461bcd60e51b815260206004820152602960248201527f455243313135353a2063616c6c6572206973206e6f74206f776e6572206e6f7260448201526808185c1c1c9bdd995960ba1b6064820152608401610230565b6103d58585858585610aa0565b81518351146106bf5760405162461bcd60e51b81526004016102309061142c565b6001600160a01b0384166106e55760405162461bcd60e51b815260040161023090611474565b3360005b8451811015610817576000858281518110610706576107066113e7565b602002602001015190506000858381518110610724576107246113e7565b602090810291909101810151600084815280835260408082206001600160a01b038e1683529093529190912054909150818110156107745760405162461bcd60e51b8152600401610230906114b9565b61077e8282611503565b60008085815260200190815260200160002060008c6001600160a01b03166001600160a01b03168152602001908152602001600020819055508160008085815260200190815260200160002060008b6001600160a01b03166001600160a01b0316815260200190815260200160002060008282546107fc919061151a565b925050819055505050508061081090611413565b90506106e9565b50846001600160a01b0316866001600160a01b0316826001600160a01b03167f4a39dc06d4c0dbc64b70af90fd698a233a518aa5d07e595d983b8c0526c8f7fb8787604051610867929190611532565b60405180910390a461087d818787878787610bc6565b505050505050565b6001600160a01b0384166108ab5760405162461bcd60e51b815260040161023090611560565b81518351146108cc5760405162461bcd60e51b81526004016102309061142c565b3360005b8451811015610968578381815181106108eb576108eb6113e7565b6020026020010151600080878481518110610908576109086113e7565b602002602001015181526020019081526020016000206000886001600160a01b03166001600160a01b031681526020019081526020016000206000828254610950919061151a565b9091555081905061096081611413565b9150506108d0565b50846001600160a01b031660006001600160a01b0316826001600160a01b03167f4a39dc06d4c0dbc64b70af90fd698a233a518aa5d07e595d983b8c0526c8f7fb87876040516109b9929190611532565b60405180910390a46103d581600087878787610bc6565b6001600160a01b0384166109f65760405162461bcd60e51b815260040161023090611560565b33610a1081600087610a0788610d21565b6103d588610d21565b6000848152602081815260408083206001600160a01b038916845290915281208054859290610a4090849061151a565b909155505060408051858152602081018590526001600160a01b0380881692600092918516917fc3d58168c5ae7397731d063d5bbf3d657854427343f4c083240f7aacaa2d0f62910160405180910390a46103d581600087878787610d6c565b6001600160a01b038416610ac65760405162461bcd60e51b815260040161023090611474565b33610ad6818787610a0788610d21565b6000848152602081815260408083206001600160a01b038a16845290915290205483811015610b175760405162461bcd60e51b8152600401610230906114b9565b610b218482611503565b6000868152602081815260408083206001600160a01b038c81168552925280832093909355881681529081208054869290610b5d90849061151a565b909155505060408051868152602081018690526001600160a01b03808916928a821692918616917fc3d58168c5ae7397731d063d5bbf3d657854427343f4c083240f7aacaa2d0f62910160405180910390a4610bbd828888888888610d6c565b50505050505050565b6001600160a01b0384163b1561087d5760405163bc197c8160e01b81526001600160a01b0385169063bc197c8190610c0a90899089908890889088906004016115a1565b6020604051808303816000875af1925050508015610c45575060408051601f3d908101601f19168201909252610c42918101906115ff565b60015b610cf157610c5161161c565b806308c379a003610c8a5750610c65611638565b80610c705750610c8c565b8060405162461bcd60e51b81526004016102309190610f10565b505b60405162461bcd60e51b815260206004820152603460248201527f455243313135353a207472616e7366657220746f206e6f6e20455243313135356044820152732932b1b2b4bb32b91034b6b83632b6b2b73a32b960611b6064820152608401610230565b6001600160e01b0319811663bc197c8160e01b14610bbd5760405162461bcd60e51b8152600401610230906116c2565b60408051600180825281830190925260609160009190602080830190803683370190505090508281600081518110610d5b57610d5b6113e7565b602090810291909101015292915050565b6001600160a01b0384163b1561087d5760405163f23a6e6160e01b81526001600160a01b0385169063f23a6e6190610db0908990899088908890889060040161170a565b6020604051808303816000875af1925050508015610deb575060408051601f3d908101601f19168201909252610de8918101906115ff565b60015b610df757610c5161161c565b6001600160e01b0319811663f23a6e6160e01b14610bbd5760405162461bcd60e51b8152600401610230906116c2565b80356001600160a01b0381168114610e3e57600080fd5b919050565b60008060408385031215610e5657600080fd5b610e5f83610e27565b946020939093013593505050565b6001600160e01b031981168114610e8357600080fd5b50565b600060208284031215610e9857600080fd5b8135610ea381610e6d565b9392505050565b600060208284031215610ebc57600080fd5b5035919050565b6000815180845260005b81811015610ee957602081850181015186830182015201610ecd565b81811115610efb576000602083870101525b50601f01601f19169290920160200192915050565b602081526000610ea36020830184610ec3565b634e487b7160e01b600052604160045260246000fd5b601f8201601f1916810167ffffffffffffffff81118282101715610f5f57610f5f610f23565b6040525050565b600067ffffffffffffffff821115610f8057610f80610f23565b5060051b60200190565b600082601f830112610f9b57600080fd5b81356020610fa882610f66565b604051610fb58282610f39565b83815260059390931b8501820192828101915086841115610fd557600080fd5b8286015b84811015610ff05780358352918301918301610fd9565b509695505050505050565b600082601f83011261100c57600080fd5b813567ffffffffffffffff81111561102657611026610f23565b60405161103d601f8301601f191660200182610f39565b81815284602083860101111561105257600080fd5b816020850160208301376000918101602001919091529392505050565b600080600080600060a0868803121561108757600080fd5b61109086610e27565b945061109e60208701610e27565b9350604086013567ffffffffffffffff808211156110bb57600080fd5b6110c789838a01610f8a565b945060608801359150808211156110dd57600080fd5b6110e989838a01610f8a565b935060808801359150808211156110ff57600080fd5b5061110c88828901610ffb565b9150509295509295909350565b6000806040838503121561112c57600080fd5b823567ffffffffffffffff8082111561114457600080fd5b818501915085601f83011261115857600080fd5b8135602061116582610f66565b6040516111728282610f39565b83815260059390931b850182019282810191508984111561119257600080fd5b948201945b838610156111b7576111a886610e27565b82529482019490820190611197565b965050860135925050808211156111cd57600080fd5b506111da85828601610f8a565b9150509250929050565b600081518084526020808501945080840160005b83811015611214578151875295820195908201906001016111f8565b509495945050505050565b602081526000610ea360208301846111e4565b60008060006060848603121561124757600080fd5b61125084610e27565b9250602084013567ffffffffffffffff8082111561126d57600080fd5b61127987838801610f8a565b9350604086013591508082111561128f57600080fd5b5061129c86828701610f8a565b9150509250925092565b6000806000606084860312156112bb57600080fd5b6112c484610e27565b95602085013595506040909401359392505050565b600080604083850312156112ec57600080fd5b6112f583610e27565b91506020830135801515811461130a57600080fd5b809150509250929050565b6000806040838503121561132857600080fd5b61133183610e27565b915061133f60208401610e27565b90509250929050565b600080600080600060a0868803121561136057600080fd5b61136986610e27565b945061137760208701610e27565b93506040860135925060608601359150608086013567ffffffffffffffff8111156113a157600080fd5b61110c88828901610ffb565b600181811c908216806113c157607f821691505b6020821081036113e157634e487b7160e01b600052602260045260246000fd5b50919050565b634e487b7160e01b600052603260045260246000fd5b634e487b7160e01b600052601160045260246000fd5b600060018201611425576114256113fd565b5060010190565b60208082526028908201527f455243313135353a2069647320616e6420616d6f756e7473206c656e677468206040820152670dad2e6dac2e8c6d60c31b606082015260800190565b60208082526025908201527f455243313135353a207472616e7366657220746f20746865207a65726f206164604082015264647265737360d81b606082015260800190565b6020808252602a908201527f455243313135353a20696e73756666696369656e742062616c616e636520666f60408201526939103a3930b739b332b960b11b606082015260800190565b600082821015611515576115156113fd565b500390565b6000821982111561152d5761152d6113fd565b500190565b60408152600061154560408301856111e4565b828103602084015261155781856111e4565b95945050505050565b60208082526021908201527f455243313135353a206d696e7420746f20746865207a65726f206164647265736040820152607360f81b606082015260800190565b6001600160a01b0386811682528516602082015260a0604082018190526000906115cd908301866111e4565b82810360608401526115df81866111e4565b905082810360808401526115f38185610ec3565b98975050505050505050565b60006020828403121561161157600080fd5b8151610ea381610e6d565b600060033d11156116355760046000803e5060005160e01c5b90565b600060443d10156116465790565b6040516003193d81016004833e81513d67ffffffffffffffff816024840111818411171561167657505050505090565b828501915081518181111561168e5750505050505090565b843d87010160208285010111156116a85750505050505090565b6116b760208286010187610f39565b509095945050505050565b60208082526028908201527f455243313135353a204552433131353552656365697665722072656a656374656040820152676420746f6b656e7360c01b606082015260800190565b6001600160a01b03868116825285166020820152604081018490526060810183905260a06080820181905260009061174490830184610ec3565b97965050505050505056fea2646970667358221220918bb93f6752facb74d99b376f5e967e56c6fadd67061fcdcb9ceeaf536a266c64736f6c634300080d0033",
  "linkReferences": {},
  "deployedLinkReferences": {}
}