{
  "_format": "hh-sol-artifact-1",
  "contractName": "FlashBorrower",
  "sourceName": "contracts/solidity/testing/FlashBorrower.sol",
  "abi": [
    {
      "inputs": [],
      "name": "flashBalance",
      "outputs": [
        {
          "internalType": "uint256",
          "name": "",
          "type": "uint256"
        }
      ],
      "stateMutability": "view",
      "type": "function"
    },
    {
      "inputs": [
        {
          "internalType": "address",
          "name": "lender",
          "type": "address"
        },
        {
          "internalType": "address",
          "name": "token",
          "type": "address"
        },
        {
          "internalType": "uint256",
          "name": "value",
          "type": "uint256"
        }
      ],
      "name": "flashBorrow",
      "outputs": [],
      "stateMutability": "nonpayable",
      "type": "function"
    },
    {
      "inputs": [
        {
          "internalType": "address",
          "name": "lender",
          "type": "address"
        },
        {
          "internalType": "address",
          "name": "token",
          "type": "address"
        },
        {
          "internalType": "uint256",
          "name": "value",
          "type": "uint256"
        }
      ],
      "name": "flashBorrowAndReenter",
      "outputs": [],
      "stateMutability": "nonpayable",
      "type": "function"
    },
    {
      "inputs": [
        {
          "internalType": "address",
          "name": "lender",
          "type": "address"
        },
        {
          "internalType": "address",
          "name": "token",
          "type": "address"
        },
        {
          "internalType": "uint256",
          "name": "value",
          "type": "uint256"
        }
      ],
      "name": "flashBorrowAndSteal",
      "outputs": [],
      "stateMutability": "nonpayable",
      "type": "function"
    },
    {
      "inputs": [],
      "name": "flashFee",
      "outputs": [
        {
          "internalType": "uint256",
          "name": "",
          "type": "uint256"
        }
      ],
      "stateMutability": "view",
      "type": "function"
    },
    {
      "inputs": [],
      "name": "flashToken",
      "outputs": [
        {
          "internalType": "address",
          "name": "",
          "type": "address"
        }
      ],
      "stateMutability": "view",
      "type": "function"
    },
    {
      "inputs": [],
      "name": "flashUser",
      "outputs": [
        {
          "internalType": "address",
          "name": "",
          "type": "address"
        }
      ],
      "stateMutability": "view",
      "type": "function"
    },
    {
      "inputs": [],
      "name": "flashValue",
      "outputs": [
        {
          "internalType": "uint256",
          "name": "",
          "type": "uint256"
        }
      ],
      "stateMutability": "view",
      "type": "function"
    },
    {
      "inputs": [
        {
          "internalType": "address",
          "name": "user",
          "type": "address"
        },
        {
          "internalType": "address",
          "name": "token",
          "type": "address"
        },
        {
          "internalType": "uint256",
          "name": "value",
          "type": "uint256"
        },
        {
          "internalType": "uint256",
          "name": "fee",
          "type": "uint256"
        },
        {
          "internalType": "bytes",
          "name": "data",
          "type": "bytes"
        }
      ],
      "name": "onFlashLoan",
      "outputs": [
        {
          "internalType": "bytes32",
          "name": "",
          "type": "bytes32"
        }
      ],
      "stateMutability": "nonpayable",
      "type": "function"
    }
  ],
  "bytecode": "0x608060405234801561001057600080fd5b5061070b806100206000396000f3fe608060405234801561001057600080fd5b50600436106100935760003560e01c8063d3cf70b311610066578063d3cf70b314610107578063d3eaa4d81461011a578063e07df5b41461012d578063ebbc8d2414610136578063f9d5bbfc1461013f57600080fd5b806323e30c8b14610098578063249ab761146100be57806377ee0855146100c75780637df3cc91146100f2575b600080fd5b6100ab6100a636600461048d565b610152565b6040519081526020015b60405180910390f35b6100ab60035481565b6002546100da906001600160a01b031681565b6040516001600160a01b0390911681526020016100b5565b610105610100366004610533565b6103aa565b005b610105610115366004610533565b61044a565b610105610128366004610533565b61045d565b6100ab60045481565b6100ab60005481565b6001546100da906001600160a01b031681565b6000806101618385018561056f565b600180546001600160a01b03808c166001600160a01b03199283161790925560028054928b169290911691909117905560038790556004869055905060008160028111156101b1576101b1610597565b036102b0576040516370a0823160e01b81523060048201526001600160a01b038816906370a0823190602401602060405180830381865afa1580156101fa573d6000803e3d6000fd5b505050506040513d601f19601f8201168201806040525081019061021e91906105ad565b6000556001600160a01b03871663095ea7b33361023b888a6105dc565b6040516001600160e01b031960e085901b1681526001600160a01b03909216600483015260248201526044016020604051808303816000875af1158015610286573d6000803e3d6000fd5b505050506040513d601f19601f820116820180604052508101906102aa91906105f4565b5061037d565b60018160028111156102c4576102c4610597565b1461037d5760028160028111156102dd576102dd610597565b0361037d576102f23388610115896002610616565b6001600160a01b03871663095ea7b33361030c888a6105dc565b6040516001600160e01b031960e085901b1681526001600160a01b03909216600483015260248201526044016020604051808303816000875af1158015610357573d6000803e3d6000fd5b505050506040513d601f19601f8201168201806040525081019061037b91906105f4565b505b507f439148f0bbc682ca079e46d6e2c2f0c1e3b820f1a291b069d8882abf8cf18dd9979650505050505050565b600060026040516020016103be9190610635565b60408051601f1981840301815290829052632e7ff4ef60e11b825291506001600160a01b03851690635cffe9de9061040090309087908790879060040161065d565b6020604051808303816000875af115801561041f573d6000803e3d6000fd5b505050506040513d601f19601f8201168201806040525081019061044391906105f4565b5050505050565b6000806040516020016103be9190610635565b600060016040516020016103be9190610635565b80356001600160a01b038116811461048857600080fd5b919050565b60008060008060008060a087890312156104a657600080fd5b6104af87610471565b95506104bd60208801610471565b94506040870135935060608701359250608087013567ffffffffffffffff808211156104e857600080fd5b818901915089601f8301126104fc57600080fd5b81358181111561050b57600080fd5b8a602082850101111561051d57600080fd5b6020830194508093505050509295509295509295565b60008060006060848603121561054857600080fd5b61055184610471565b925061055f60208501610471565b9150604084013590509250925092565b60006020828403121561058157600080fd5b81356003811061059057600080fd5b9392505050565b634e487b7160e01b600052602160045260246000fd5b6000602082840312156105bf57600080fd5b5051919050565b634e487b7160e01b600052601160045260246000fd5b600082198211156105ef576105ef6105c6565b500190565b60006020828403121561060657600080fd5b8151801515811461059057600080fd5b6000816000190483118215151615610630576106306105c6565b500290565b602081016003831061065757634e487b7160e01b600052602160045260246000fd5b91905290565b600060018060a01b038087168352602081871681850152856040850152608060608501528451915081608085015260005b828110156106aa5785810182015185820160a00152810161068e565b828111156106bc57600060a084870101525b5050601f01601f19169190910160a0019594505050505056fea2646970667358221220b49891a935ae569e7730b0b6d20b8967efe777e7203c94c818e0d6049fbb7e1364736f6c634300080d0033",
  "linkReferences": {},
  "deployedLinkReferences": {}
}