{
  "_format": "hh-sol-artifact-1",
  "contractName": "NFTXRangeExtendedEligibility",
  "sourceName": "contracts/solidity/eligibility/NFTXRangeExtendedEligibility.sol",
  "abi": [
    {
      "anonymous": false,
      "inputs": [
        {
          "indexed": false,
          "internalType": "address",
          "name": "owner",
          "type": "address"
        },
        {
          "indexed": false,
          "internalType": "uint256",
          "name": "rangeStart",
          "type": "uint256"
        },
        {
          "indexed": false,
          "internalType": "uint256",
          "name": "rangeEnd",
          "type": "uint256"
        }
      ],
      "name": "NFTXEligibilityInit",
      "type": "event"
    },
    {
      "anonymous": false,
      "inputs": [
        {
          "indexed": true,
          "internalType": "address",
          "name": "previousOwner",
          "type": "address"
        },
        {
          "indexed": true,
          "internalType": "address",
          "name": "newOwner",
          "type": "address"
        }
      ],
      "name": "OwnershipTransferred",
      "type": "event"
    },
    {
      "anonymous": false,
      "inputs": [
        {
          "indexed": false,
          "internalType": "uint256",
          "name": "rangeStart",
          "type": "uint256"
        },
        {
          "indexed": false,
          "internalType": "uint256",
          "name": "rangeEnd",
          "type": "uint256"
        }
      ],
      "name": "RangeSet",
      "type": "event"
    },
    {
      "anonymous": false,
      "inputs": [
        {
          "indexed": false,
          "internalType": "uint256[]",
          "name": "tokenIds",
          "type": "uint256[]"
        },
        {
          "indexed": false,
          "internalType": "bool",
          "name": "isEligible",
          "type": "bool"
        }
      ],
      "name": "UniqueEligibilitiesSet",
      "type": "event"
    },
    {
      "inputs": [
        {
          "internalType": "address",
          "name": "_owner",
          "type": "address"
        },
        {
          "internalType": "uint256",
          "name": "_rangeStart",
          "type": "uint256"
        },
        {
          "internalType": "uint256",
          "name": "_rangeEnd",
          "type": "uint256"
        }
      ],
      "name": "__NFTXEligibility_init",
      "outputs": [],
      "stateMutability": "nonpayable",
      "type": "function"
    },
    {
      "inputs": [
        {
          "internalType": "bytes",
          "name": "_configData",
          "type": "bytes"
        }
      ],
      "name": "__NFTXEligibility_init_bytes",
      "outputs": [],
      "stateMutability": "nonpayable",
      "type": "function"
    },
    {
      "inputs": [
        {
          "internalType": "uint256[]",
          "name": "tokenIds",
          "type": "uint256[]"
        }
      ],
      "name": "afterMintHook",
      "outputs": [],
      "stateMutability": "nonpayable",
      "type": "function"
    },
    {
      "inputs": [
        {
          "internalType": "uint256[]",
          "name": "tokenIds",
          "type": "uint256[]"
        }
      ],
      "name": "afterRedeemHook",
      "outputs": [],
      "stateMutability": "nonpayable",
      "type": "function"
    },
    {
      "inputs": [
        {
          "internalType": "uint256[]",
          "name": "tokenIds",
          "type": "uint256[]"
        }
      ],
      "name": "beforeMintHook",
      "outputs": [],
      "stateMutability": "nonpayable",
      "type": "function"
    },
    {
      "inputs": [
        {
          "internalType": "uint256[]",
          "name": "tokenIds",
          "type": "uint256[]"
        }
      ],
      "name": "beforeRedeemHook",
      "outputs": [],
      "stateMutability": "nonpayable",
      "type": "function"
    },
    {
      "inputs": [
        {
          "internalType": "uint256[]",
          "name": "tokenIds",
          "type": "uint256[]"
        }
      ],
      "name": "checkAllEligible",
      "outputs": [
        {
          "internalType": "bool",
          "name": "",
          "type": "bool"
        }
      ],
      "stateMutability": "view",
      "type": "function"
    },
    {
      "inputs": [
        {
          "internalType": "uint256[]",
          "name": "tokenIds",
          "type": "uint256[]"
        }
      ],
      "name": "checkAllIneligible",
      "outputs": [
        {
          "internalType": "bool",
          "name": "",
          "type": "bool"
        }
      ],
      "stateMutability": "view",
      "type": "function"
    },
    {
      "inputs": [
        {
          "internalType": "uint256[]",
          "name": "tokenIds",
          "type": "uint256[]"
        }
      ],
      "name": "checkEligible",
      "outputs": [
        {
          "internalType": "bool[]",
          "name": "",
          "type": "bool[]"
        }
      ],
      "stateMutability": "view",
      "type": "function"
    },
    {
      "inputs": [
        {
          "internalType": "uint256",
          "name": "tokenId",
          "type": "uint256"
        }
      ],
      "name": "checkIsEligible",
      "outputs": [
        {
          "internalType": "bool",
          "name": "",
          "type": "bool"
        }
      ],
      "stateMutability": "view",
      "type": "function"
    },
    {
      "inputs": [],
      "name": "finalized",
      "outputs": [
        {
          "internalType": "bool",
          "name": "",
          "type": "bool"
        }
      ],
      "stateMutability": "view",
      "type": "function"
    },
    {
      "inputs": [],
      "name": "isInitialized",
      "outputs": [
        {
          "internalType": "bool",
          "name": "",
          "type": "bool"
        }
      ],
      "stateMutability": "view",
      "type": "function"
    },
    {
      "inputs": [
        {
          "internalType": "uint256",
          "name": "tokenId",
          "type": "uint256"
        }
      ],
      "name": "isUniqueEligible",
      "outputs": [
        {
          "internalType": "bool",
          "name": "",
          "type": "bool"
        }
      ],
      "stateMutability": "view",
      "type": "function"
    },
    {
      "inputs": [],
      "name": "name",
      "outputs": [
        {
          "internalType": "string",
          "name": "",
          "type": "string"
        }
      ],
      "stateMutability": "pure",
      "type": "function"
    },
    {
      "inputs": [],
      "name": "owner",
      "outputs": [
        {
          "internalType": "address",
          "name": "",
          "type": "address"
        }
      ],
      "stateMutability": "view",
      "type": "function"
    },
    {
      "inputs": [],
      "name": "rangeEnd",
      "outputs": [
        {
          "internalType": "uint256",
          "name": "",
          "type": "uint256"
        }
      ],
      "stateMutability": "view",
      "type": "function"
    },
    {
      "inputs": [],
      "name": "rangeStart",
      "outputs": [
        {
          "internalType": "uint256",
          "name": "",
          "type": "uint256"
        }
      ],
      "stateMutability": "view",
      "type": "function"
    },
    {
      "inputs": [],
      "name": "renounceOwnership",
      "outputs": [],
      "stateMutability": "nonpayable",
      "type": "function"
    },
    {
      "inputs": [
        {
          "internalType": "uint256",
          "name": "_rangeStart",
          "type": "uint256"
        },
        {
          "internalType": "uint256",
          "name": "_rangeEnd",
          "type": "uint256"
        }
      ],
      "name": "setEligibilityPreferences",
      "outputs": [],
      "stateMutability": "nonpayable",
      "type": "function"
    },
    {
      "inputs": [
        {
          "internalType": "uint256[]",
          "name": "tokenIds",
          "type": "uint256[]"
        },
        {
          "internalType": "bool",
          "name": "_isEligible",
          "type": "bool"
        }
      ],
      "name": "setUniqueEligibilities",
      "outputs": [],
      "stateMutability": "nonpayable",
      "type": "function"
    },
    {
      "inputs": [],
      "name": "targetAsset",
      "outputs": [
        {
          "internalType": "address",
          "name": "",
          "type": "address"
        }
      ],
      "stateMutability": "pure",
      "type": "function"
    },
    {
      "inputs": [
        {
          "internalType": "address",
          "name": "newOwner",
          "type": "address"
        }
      ],
      "name": "transferOwnership",
      "outputs": [],
      "stateMutability": "nonpayable",
      "type": "function"
    }
  ],
  "bytecode": "0x608060405234801561001057600080fd5b506110c9806100206000396000f3fe608060405234801561001057600080fd5b50600436106101425760003560e01c8063715018a6116100b8578063bcd925fd1161007c578063bcd925fd14610278578063bd8affde1461017f578063ca373f281461028b578063d2a096e81461029e578063f2fde38b146102b1578063fbd5cb20146102c457600080fd5b8063715018a61461023b5780637920c1271461024357806384ca9f851461024c5780638da5cb5b1461025f578063b3f05b971461027057600080fd5b80633e7ea26c1161010a5780633e7ea26c146101de5780634998b7f3146101f15780635c99ee01146102045780635e2f9b521461017f5780636c47d5951461017f5780636cd912601461021b57600080fd5b806306fdde031461014757806336eb08621461017f578063392e53cd146101935780633942cf36146101b05780633d4403ac146101c3575b600080fd5b604080518082018252600d81526c14985b99d9515e1d195b991959609a1b602082015290516101769190610c25565b60405180910390f35b61019161018d366004610cc6565b5050565b005b6066546101a09060ff1681565b6040519015158152602001610176565b6101a06101be366004610d08565b6102d7565b60005b6040516001600160a01b039091168152602001610176565b6101916101ec366004610d21565b61030a565b6101916101ff366004610d59565b6103c0565b61020d60685481565b604051908152602001610176565b61022e610229366004610cc6565b610459565b6040516101769190610e0a565b61019161050e565b61020d60675481565b6101a061025a366004610cc6565b610582565b6033546001600160a01b03166101c6565b6101a06105d0565b610191610286366004610e65565b610604565b6101a0610299366004610cc6565b61075a565b6101a06102ac366004610d08565b61079e565b6101916102bf366004610e9a565b6107a9565b6101916102d2366004610eb7565b610894565b6000806102e661010084610f29565b6000818152606560205260409020549091506103028185610901565b949350505050565b6033546001600160a01b0316331461033d5760405162461bcd60e51b815260040161033490610f3d565b60405180910390fd5b808211156103795760405162461bcd60e51b8152602060048201526009602482015268139bdd081d985b1a5960ba1b6044820152606401610334565b6067829055606881905560408051838152602081018390527f2aa006707091dbb6a3c123c2b234325bd71d72a53ba791b7227967655a550957910160405180910390a15050565b600054610100900460ff16806103d9575060005460ff16155b6103f55760405162461bcd60e51b815260040161033490610f72565b600054610100900460ff16158015610417576000805461ffff19166101011790555b6000806000848060200190518101906104309190610fc0565b925092509250610441838383610604565b505050801561018d576000805461ff00191690555050565b60608160008167ffffffffffffffff81111561047757610477610d43565b6040519080825280602002602001820160405280156104a0578160200160208202803683370190505b50905060005b82811015610503576104cf8686838181106104c3576104c3610ff7565b90506020020135610921565b8282815181106104e1576104e1610ff7565b91151560209283029190910190910152806104fb8161100d565b9150506104a6565b509150505b92915050565b6033546001600160a01b031633146105385760405162461bcd60e51b815260040161033490610f3d565b6033546040516000916001600160a01b0316907f8be0079c531659141344cd1fd0a4f28419497f9722a3daafe3b4186f6b6457e0908390a3603380546001600160a01b0319169055565b600081815b818110156105c5576105a48585838181106104c3576104c3610ff7565b6105b357600092505050610508565b806105bd8161100d565b915050610587565b506001949350505050565b60665460009060ff1680156105ff575060006105f46033546001600160a01b031690565b6001600160a01b0316145b905090565b600054610100900460ff168061061d575060005460ff16155b6106395760405162461bcd60e51b815260040161033490610f72565b600054610100900460ff1615801561065b576000805461ffff19166101011790555b61066361095b565b6066805460ff19166001179055818311156106ac5760405162461bcd60e51b8152602060048201526009602482015268139bdd081d985b1a5960ba1b6044820152606401610334565b6067839055606882905560408051848152602081018490527f2aa006707091dbb6a3c123c2b234325bd71d72a53ba791b7227967655a550957910160405180910390a1604080516001600160a01b0386168152602081018590529081018390527f9fa39868c0c87f00f712ceb0ce6f0afff58fbf7824d3e47ee76362a48893bd299060600160405180910390a1610742846107a9565b8015610754576000805461ff00191690555b50505050565b600081815b818110156105c55761077c8585838181106104c3576104c3610ff7565b1561078c57600092505050610508565b806107968161100d565b91505061075f565b600061050882610921565b6033546001600160a01b031633146107d35760405162461bcd60e51b815260040161033490610f3d565b6001600160a01b0381166108385760405162461bcd60e51b815260206004820152602660248201527f4f776e61626c653a206e6577206f776e657220697320746865207a65726f206160448201526564647265737360d01b6064820152608401610334565b6033546040516001600160a01b038084169216907f8be0079c531659141344cd1fd0a4f28419497f9722a3daafe3b4186f6b6457e090600090a3603380546001600160a01b0319166001600160a01b0392909216919091179055565b6033546001600160a01b031633146108be5760405162461bcd60e51b815260040161033490610f3d565b6108fc8383808060200260200160405190810160405280939291908181526020018383602002808284376000920191909152508592506109d7915050565b505050565b60008061091061010084611034565b9390931c6001908116149392505050565b6000806000606854111561094657606754831015801561094357506068548311155b90505b8061050857610954836102d7565b9392505050565b600054610100900460ff1680610974575060005460ff16155b6109905760405162461bcd60e51b815260040161033490610f72565b600054610100900460ff161580156109b2576000805461ffff19166101011790555b6109ba610ad9565b6109c2610b43565b80156109d4576000805461ff00191690555b50565b600080805260656020527fffdfc1249c027f9191656349feb0761381bb32c9f557e01f419fd08754bf5a1b5490805b8451811015610a87576000858281518110610a2357610a23610ff7565b60200260200101519050600061010082610a3d9190610f29565b9050838114610a65576000938452606560205260408085209590955580845293909220549291825b610a70858388610bf1565b945050508080610a7f9061100d565b915050610a06565b5060008181526065602052604090819020839055517ffacde3821ab1224682dd0ab6a805f71860b6ca6982ad044c8c4927ea4c6f140190610acb9086908690611048565b60405180910390a150505050565b600054610100900460ff1680610af2575060005460ff16155b610b0e5760405162461bcd60e51b815260040161033490610f72565b600054610100900460ff161580156109c2576000805461ffff191661010117905580156109d4576000805461ff001916905550565b600054610100900460ff1680610b5c575060005460ff16155b610b785760405162461bcd60e51b815260040161033490610f72565b600054610100900460ff16158015610b9a576000805461ffff19166101011790555b603380546001600160a01b0319163390811790915560405181906000907f8be0079c531659141344cd1fd0a4f28419497f9722a3daafe3b4186f6b6457e0908290a35080156109d4576000805461ff001916905550565b600080610c0061010085611034565b90508215610c15576001901b84179050610954565b6001901b19841690509392505050565b600060208083528351808285015260005b81811015610c5257858101830151858201604001528201610c36565b81811115610c64576000604083870101525b50601f01601f1916929092016040019392505050565b60008083601f840112610c8c57600080fd5b50813567ffffffffffffffff811115610ca457600080fd5b6020830191508360208260051b8501011115610cbf57600080fd5b9250929050565b60008060208385031215610cd957600080fd5b823567ffffffffffffffff811115610cf057600080fd5b610cfc85828601610c7a565b90969095509350505050565b600060208284031215610d1a57600080fd5b5035919050565b60008060408385031215610d3457600080fd5b50508035926020909101359150565b634e487b7160e01b600052604160045260246000fd5b600060208284031215610d6b57600080fd5b813567ffffffffffffffff80821115610d8357600080fd5b818401915084601f830112610d9757600080fd5b813581811115610da957610da9610d43565b604051601f8201601f19908116603f01168101908382118183101715610dd157610dd1610d43565b81604052828152876020848701011115610dea57600080fd5b826020860160208301376000928101602001929092525095945050505050565b6020808252825182820181905260009190848201906040850190845b81811015610e44578351151583529284019291840191600101610e26565b50909695505050505050565b6001600160a01b03811681146109d457600080fd5b600080600060608486031215610e7a57600080fd5b8335610e8581610e50565b95602085013595506040909401359392505050565b600060208284031215610eac57600080fd5b813561095481610e50565b600080600060408486031215610ecc57600080fd5b833567ffffffffffffffff811115610ee357600080fd5b610eef86828701610c7a565b90945092505060208401358015158114610f0857600080fd5b809150509250925092565b634e487b7160e01b600052601260045260246000fd5b600082610f3857610f38610f13565b500490565b6020808252818101527f4f776e61626c653a2063616c6c6572206973206e6f7420746865206f776e6572604082015260600190565b6020808252602e908201527f496e697469616c697a61626c653a20636f6e747261637420697320616c72656160408201526d191e481a5b9a5d1a585b1a5e995960921b606082015260800190565b600080600060608486031215610fd557600080fd5b8351610fe081610e50565b602085015160409095015190969495509392505050565b634e487b7160e01b600052603260045260246000fd5b60006001820161102d57634e487b7160e01b600052601160045260246000fd5b5060010190565b60008261104357611043610f13565b500690565b604080825283519082018190526000906020906060840190828701845b8281101561108157815184529284019290840190600101611065565b5050509315159201919091525091905056fea264697066735822122013f709ecca24ef3b1a8b30bf95fd8aad5926f9ab15c7959c2c110da5a02e266664736f6c634300080d0033",
  "linkReferences": {},
  "deployedLinkReferences": {}
}