{
  "_format": "hh-sol-artifact-1",
  "contractName": "NFTXENSMerkleEligibility",
  "sourceName": "contracts/solidity/eligibility/NFTXENSMerkleEligibility.sol",
  "abi": [
    {
      "inputs": [
        {
          "internalType": "uint256",
          "name": "_minExpirationTime",
          "type": "uint256"
        }
      ],
      "stateMutability": "nonpayable",
      "type": "constructor"
    },
    {
      "anonymous": false,
      "inputs": [
        {
          "indexed": false,
          "internalType": "bytes32",
          "name": "merkleRoot",
          "type": "bytes32"
        },
        {
          "indexed": false,
          "internalType": "string",
          "name": "_merkleReference",
          "type": "string"
        },
        {
          "indexed": false,
          "internalType": "string",
          "name": "_merkleLeavesURI",
          "type": "string"
        }
      ],
      "name": "NFTXEligibilityInit",
      "type": "event"
    },
    {
      "anonymous": false,
      "inputs": [
        {
          "indexed": false,
          "internalType": "uint256",
          "name": "tokenId",
          "type": "uint256"
        },
        {
          "indexed": false,
          "internalType": "bytes32",
          "name": "requestId",
          "type": "bytes32"
        },
        {
          "indexed": false,
          "internalType": "bool",
          "name": "isValid",
          "type": "bool"
        }
      ],
      "name": "PrecursoryCheckComplete",
      "type": "event"
    },
    {
      "anonymous": false,
      "inputs": [
        {
          "indexed": false,
          "internalType": "uint256",
          "name": "tokenId",
          "type": "uint256"
        },
        {
          "indexed": false,
          "internalType": "bytes32",
          "name": "requestId",
          "type": "bytes32"
        }
      ],
      "name": "PrecursoryCheckStarted",
      "type": "event"
    },
    {
      "inputs": [
        {
          "internalType": "bytes32",
          "name": "_merkleRoot",
          "type": "bytes32"
        },
        {
          "internalType": "string",
          "name": "_merkleReference",
          "type": "string"
        },
        {
          "internalType": "string",
          "name": "_merkleLeavesURI",
          "type": "string"
        }
      ],
      "name": "__NFTXEligibility_init",
      "outputs": [],
      "stateMutability": "nonpayable",
      "type": "function"
    },
    {
      "inputs": [
        {
          "internalType": "bytes",
          "name": "configData",
          "type": "bytes"
        }
      ],
      "name": "__NFTXEligibility_init_bytes",
      "outputs": [],
      "stateMutability": "nonpayable",
      "type": "function"
    },
    {
      "inputs": [
        {
          "internalType": "uint256[]",
          "name": "tokenIds",
          "type": "uint256[]"
        }
      ],
      "name": "afterMintHook",
      "outputs": [],
      "stateMutability": "nonpayable",
      "type": "function"
    },
    {
      "inputs": [
        {
          "internalType": "uint256[]",
          "name": "tokenIds",
          "type": "uint256[]"
        }
      ],
      "name": "afterRedeemHook",
      "outputs": [],
      "stateMutability": "nonpayable",
      "type": "function"
    },
    {
      "inputs": [
        {
          "internalType": "uint256[]",
          "name": "tokenIds",
          "type": "uint256[]"
        }
      ],
      "name": "beforeMintHook",
      "outputs": [],
      "stateMutability": "nonpayable",
      "type": "function"
    },
    {
      "inputs": [
        {
          "internalType": "uint256[]",
          "name": "tokenIds",
          "type": "uint256[]"
        }
      ],
      "name": "beforeRedeemHook",
      "outputs": [],
      "stateMutability": "nonpayable",
      "type": "function"
    },
    {
      "inputs": [
        {
          "internalType": "uint256[]",
          "name": "tokenIds",
          "type": "uint256[]"
        }
      ],
      "name": "checkAllEligible",
      "outputs": [
        {
          "internalType": "bool",
          "name": "",
          "type": "bool"
        }
      ],
      "stateMutability": "view",
      "type": "function"
    },
    {
      "inputs": [
        {
          "internalType": "uint256[]",
          "name": "tokenIds",
          "type": "uint256[]"
        }
      ],
      "name": "checkAllIneligible",
      "outputs": [
        {
          "internalType": "bool",
          "name": "",
          "type": "bool"
        }
      ],
      "stateMutability": "view",
      "type": "function"
    },
    {
      "inputs": [
        {
          "internalType": "uint256[]",
          "name": "tokenIds",
          "type": "uint256[]"
        }
      ],
      "name": "checkEligible",
      "outputs": [
        {
          "internalType": "bool[]",
          "name": "",
          "type": "bool[]"
        }
      ],
      "stateMutability": "view",
      "type": "function"
    },
    {
      "inputs": [
        {
          "internalType": "uint256",
          "name": "tokenId",
          "type": "uint256"
        }
      ],
      "name": "checkIsEligible",
      "outputs": [
        {
          "internalType": "bool",
          "name": "",
          "type": "bool"
        }
      ],
      "stateMutability": "view",
      "type": "function"
    },
    {
      "inputs": [],
      "name": "finalized",
      "outputs": [
        {
          "internalType": "bool",
          "name": "",
          "type": "bool"
        }
      ],
      "stateMutability": "view",
      "type": "function"
    },
    {
      "inputs": [],
      "name": "merkleLeavesURI",
      "outputs": [
        {
          "internalType": "string",
          "name": "",
          "type": "string"
        }
      ],
      "stateMutability": "view",
      "type": "function"
    },
    {
      "inputs": [],
      "name": "merkleReference",
      "outputs": [
        {
          "internalType": "string",
          "name": "",
          "type": "string"
        }
      ],
      "stateMutability": "view",
      "type": "function"
    },
    {
      "inputs": [],
      "name": "merkleRoot",
      "outputs": [
        {
          "internalType": "bytes32",
          "name": "",
          "type": "bytes32"
        }
      ],
      "stateMutability": "view",
      "type": "function"
    },
    {
      "inputs": [],
      "name": "minExpirationTime",
      "outputs": [
        {
          "internalType": "uint256",
          "name": "",
          "type": "uint256"
        }
      ],
      "stateMutability": "view",
      "type": "function"
    },
    {
      "inputs": [],
      "name": "name",
      "outputs": [
        {
          "internalType": "string",
          "name": "",
          "type": "string"
        }
      ],
      "stateMutability": "pure",
      "type": "function"
    },
    {
      "inputs": [
        {
          "internalType": "uint256",
          "name": "tokenId",
          "type": "uint256"
        },
        {
          "internalType": "bytes32[]",
          "name": "merkleProof",
          "type": "bytes32[]"
        }
      ],
      "name": "processToken",
      "outputs": [
        {
          "internalType": "bool",
          "name": "isValid",
          "type": "bool"
        }
      ],
      "stateMutability": "nonpayable",
      "type": "function"
    },
    {
      "inputs": [
        {
          "internalType": "uint256[]",
          "name": "tokenIds",
          "type": "uint256[]"
        },
        {
          "internalType": "bytes32[][]",
          "name": "merkleProofs",
          "type": "bytes32[][]"
        }
      ],
      "name": "processTokens",
      "outputs": [
        {
          "internalType": "bool[]",
          "name": "",
          "type": "bool[]"
        }
      ],
      "stateMutability": "nonpayable",
      "type": "function"
    },
    {
      "inputs": [
        {
          "internalType": "uint256",
          "name": "tokenId",
          "type": "uint256"
        },
        {
          "internalType": "bytes32[]",
          "name": "merkleProof",
          "type": "bytes32[]"
        }
      ],
      "name": "requiresProcessing",
      "outputs": [
        {
          "internalType": "bool",
          "name": "",
          "type": "bool"
        }
      ],
      "stateMutability": "view",
      "type": "function"
    },
    {
      "inputs": [],
      "name": "targetAsset",
      "outputs": [
        {
          "internalType": "address",
          "name": "",
          "type": "address"
        }
      ],
      "stateMutability": "pure",
      "type": "function"
    },
    {
      "inputs": [
        {
          "internalType": "bytes32",
          "name": "",
          "type": "bytes32"
        }
      ],
      "name": "validTokenHashes",
      "outputs": [
        {
          "internalType": "bool",
          "name": "",
          "type": "bool"
        }
      ],
      "stateMutability": "view",
      "type": "function"
    }
  ],
  "bytecode": "0x608060405234801561001057600080fd5b5060405161126d38038061126d83398101604081905261002f91610037565b600655610050565b60006020828403121561004957600080fd5b5051919050565b61120e8061005f6000396000f3fe608060405234801561001057600080fd5b50600436106101375760003560e01c80636cd91260116100b8578063b3f05b971161007c578063b3f05b9714610283578063bd8affde1461019e578063c5fa13751461028a578063ca373f281461029d578063d2a096e8146102b0578063f3c6ce7a146102c357600080fd5b80636cd91260146101f7578063830338181461021757806384ca9f851461023a578063a25a38ed1461024d578063afeaaf4b1461027057600080fd5b80633eea06d4116100ff5780633eea06d4146101d45780634998b7f3146101dc5780635b88331e146101ef5780635e2f9b521461019e5780636c47d5951461019e57600080fd5b806306fdde031461013c5780632eb4a7ab1461017e57806331b412d71461019557806336eb08621461019e5780633d4403ac146101b2575b600080fd5b604080518082019091526014815273454e534d65726b6c65456c69676962696c69747960601b60208201525b6040516101759190610bf7565b60405180910390f35b61018760035481565b604051908152602001610175565b61018760065481565b6101b06101ac366004610c55565b5050565b005b6040517357f1887a8bf19b14fc0df6fd9b2acc9af147ea858152602001610175565b6101686102d6565b6101b06101ea366004610d41565b610364565b610168610406565b61020a610205366004610c55565b610413565b6040516101759190610d89565b61022a610225366004610dcf565b6104c7565b6040519015158152602001610175565b61022a610248366004610c55565b610541565b61022a61025b366004610e1a565b60016020526000908152604090205460ff1681565b61020a61027e366004610e33565b61058f565b600161022a565b61022a610298366004610dcf565b610658565b61022a6102ab366004610c55565b610764565b61022a6102be366004610e1a565b6107a8565b6101b06102d1366004610ebe565b6107b3565b600480546102e390610f2a565b80601f016020809104026020016040519081016040528092919081815260200182805461030f90610f2a565b801561035c5780601f106103315761010080835404028352916020019161035c565b820191906000526020600020905b81548152906001019060200180831161033f57829003601f168201915b505050505081565b600054610100900460ff168061037d575060005460ff16155b6103a25760405162461bcd60e51b815260040161039990610f64565b60405180910390fd5b600054610100900460ff161580156103c4576000805461ffff19166101011790555b6000806000848060200190518101906103dd9190610ff7565b9250925092506103ee8383836107b3565b50505080156101ac576000805461ff00191690555050565b600580546102e390610f2a565b6060816000816001600160401b0381111561043057610430610c96565b604051908082528060200260200182016040528015610459578160200160208202803683370190505b50905060005b828110156104bc5761048886868381811061047c5761047c611059565b9050602002013561088a565b82828151811061049a5761049a611059565b91151560209283029190910190910152806104b481611085565b91505061045f565b509150505b92915050565b6000600260006104d686610925565b8152602001908152602001600020600061052285858080602002602001604051908101604052809392919081815260200183836020028082843760009201919091525061093e92505050565b815260208101919091526040016000205460ff161590505b9392505050565b600081815b818110156105845761056385858381811061047c5761047c611059565b610572576000925050506104c1565b8061057c81611085565b915050610546565b506001949350505050565b6060836000816001600160401b038111156105ac576105ac610c96565b6040519080825280602002602001820160405280156105d5578160200160208202803683370190505b50905060005b8281101561064d576106238888838181106105f8576105f8611059565b9050602002013587878481811061061157610611611059565b9050602002810190610298919061109e565b82828151811061063557610635611059565b911515602092830291909101909101526001016105db565b509695505050505050565b60006106658484846104c7565b610679576106728461088a565b905061053a565b600061068485610925565b90506106c784848080602002602001604051908101604052809392919081815260200183836020028082843760009201919091525050600354915084905061096e565b915081156106ea576000818152600160205260409020805460ff19168315151790555b600160026000838152602001908152602001600020600061073d87878080602002602001604051908101604052809392919081815260200183836020028082843760009201919091525061093e92505050565b81526020810191909152604001600020805460ff1916911515919091179055509392505050565b600081815b818110156105845761078685858381811061047c5761047c611059565b15610796576000925050506104c1565b806107a081611085565b915050610769565b60006104c18261088a565b600054610100900460ff16806107cc575060005460ff16155b6107e85760405162461bcd60e51b815260040161039990610f64565b600054610100900460ff1615801561080a576000805461ffff19166101011790555b60038490558251610822906004906020860190610b06565b508151610836906005906020850190610b06565b507feaccdf52e14d5053012b2bacdc83bfc609cca17cd4b8843968b9ab7f41eb684184848460405161086a939291906110e7565b60405180910390a18015610884576000805461ff00191690555b50505050565b604051636b727d4360e11b8152600481018290526000907357f1887a8bf19b14fc0df6fd9b2acc9af147ea859063d6e4fa8690602401602060405180830381865afa1580156108dd573d6000803e3d6000fd5b505050506040513d601f19601f82011682018060405250810190610901919061111c565b60065461090e9042611135565b111561091c57506000919050565b6104c1826109b4565b6000610930826109dd565b805190602001209050919050565b600081604051602001610951919061114d565b604051602081830303815290604052805190602001209050919050565b600081815b85518110156109a95761099f8287838151811061099257610992611059565b6020026020010151610ada565b9150600101610973565b509092149392505050565b6000600160006109c384610925565b815260208101919091526040016000205460ff1692915050565b606081600003610a045750506040805180820190915260018152600360fc1b602082015290565b8160005b8115610a2357600101610a1c600a83611199565b9150610a08565b6000816001600160401b03811115610a3d57610a3d610c96565b6040519080825280601f01601f191660200182016040528015610a67576020820181803683370190505b5090505b8415610ad257610a7c6001836111ad565b9150610a89600a866111c4565b610a94906030611135565b60f81b818381518110610aa957610aa9611059565b60200101906001600160f81b031916908160001a905350610acb600a86611199565b9450610a6b565b949350505050565b6000818310610af657600082815260208490526040902061053a565b5060009182526020526040902090565b828054610b1290610f2a565b90600052602060002090601f016020900481019282610b345760008555610b7a565b82601f10610b4d57805160ff1916838001178555610b7a565b82800160010185558215610b7a579182015b82811115610b7a578251825591602001919060010190610b5f565b50610b86929150610b8a565b5090565b5b80821115610b865760008155600101610b8b565b60005b83811015610bba578181015183820152602001610ba2565b838111156108845750506000910152565b60008151808452610be3816020860160208601610b9f565b601f01601f19169290920160200192915050565b60208152600061053a6020830184610bcb565b60008083601f840112610c1c57600080fd5b5081356001600160401b03811115610c3357600080fd5b6020830191508360208260051b8501011115610c4e57600080fd5b9250929050565b60008060208385031215610c6857600080fd5b82356001600160401b03811115610c7e57600080fd5b610c8a85828601610c0a565b90969095509350505050565b634e487b7160e01b600052604160045260246000fd5b604051601f8201601f191681016001600160401b0381118282101715610cd457610cd4610c96565b604052919050565b60006001600160401b03821115610cf557610cf5610c96565b50601f01601f191660200190565b6000610d16610d1184610cdc565b610cac565b9050828152838383011115610d2a57600080fd5b828260208301376000602084830101529392505050565b600060208284031215610d5357600080fd5b81356001600160401b03811115610d6957600080fd5b8201601f81018413610d7a57600080fd5b610ad284823560208401610d03565b6020808252825182820181905260009190848201906040850190845b81811015610dc3578351151583529284019291840191600101610da5565b50909695505050505050565b600080600060408486031215610de457600080fd5b8335925060208401356001600160401b03811115610e0157600080fd5b610e0d86828701610c0a565b9497909650939450505050565b600060208284031215610e2c57600080fd5b5035919050565b60008060008060408587031215610e4957600080fd5b84356001600160401b0380821115610e6057600080fd5b610e6c88838901610c0a565b90965094506020870135915080821115610e8557600080fd5b50610e9287828801610c0a565b95989497509550505050565b600082601f830112610eaf57600080fd5b61053a83833560208501610d03565b600080600060608486031215610ed357600080fd5b8335925060208401356001600160401b0380821115610ef157600080fd5b610efd87838801610e9e565b93506040860135915080821115610f1357600080fd5b50610f2086828701610e9e565b9150509250925092565b600181811c90821680610f3e57607f821691505b602082108103610f5e57634e487b7160e01b600052602260045260246000fd5b50919050565b6020808252602e908201527f496e697469616c697a61626c653a20636f6e747261637420697320616c72656160408201526d191e481a5b9a5d1a585b1a5e995960921b606082015260800190565b600082601f830112610fc357600080fd5b8151610fd1610d1182610cdc565b818152846020838601011115610fe657600080fd5b610ad2826020830160208701610b9f565b60008060006060848603121561100c57600080fd5b8351925060208401516001600160401b038082111561102a57600080fd5b61103687838801610fb2565b9350604086015191508082111561104c57600080fd5b50610f2086828701610fb2565b634e487b7160e01b600052603260045260246000fd5b634e487b7160e01b600052601160045260246000fd5b6000600182016110975761109761106f565b5060010190565b6000808335601e198436030181126110b557600080fd5b8301803591506001600160401b038211156110cf57600080fd5b6020019150600581901b3603821315610c4e57600080fd5b8381526060602082015260006111006060830185610bcb565b82810360408401526111128185610bcb565b9695505050505050565b60006020828403121561112e57600080fd5b5051919050565b600082198211156111485761114861106f565b500190565b815160009082906020808601845b838110156111775781518552938201939082019060010161115b565b50929695505050505050565b634e487b7160e01b600052601260045260246000fd5b6000826111a8576111a8611183565b500490565b6000828210156111bf576111bf61106f565b500390565b6000826111d3576111d3611183565b50069056fea2646970667358221220944996f7da0f6e2594c101c3e0c82dc24d0e989e9282f385de08aef1afbd23f164736f6c634300080d0033",
  "linkReferences": {},
  "deployedLinkReferences": {}
}