{
  "_format": "hh-sol-artifact-1",
  "contractName": "MultiProxyController",
  "sourceName": "contracts/solidity/proxy/MultiProxyController.sol",
  "abi": [
    {
      "inputs": [
        {
          "internalType": "string[]",
          "name": "_names",
          "type": "string[]"
        },
        {
          "internalType": "address[]",
          "name": "_proxies",
          "type": "address[]"
        }
      ],
      "stateMutability": "nonpayable",
      "type": "constructor"
    },
    {
      "anonymous": false,
      "inputs": [
        {
          "indexed": true,
          "internalType": "address",
          "name": "previousOwner",
          "type": "address"
        },
        {
          "indexed": true,
          "internalType": "address",
          "name": "newOwner",
          "type": "address"
        }
      ],
      "name": "OwnershipTransferred",
      "type": "event"
    },
    {
      "anonymous": false,
      "inputs": [
        {
          "indexed": false,
          "internalType": "string",
          "name": "name",
          "type": "string"
        },
        {
          "indexed": false,
          "internalType": "address",
          "name": "proxy",
          "type": "address"
        }
      ],
      "name": "ProxyAdded",
      "type": "event"
    },
    {
      "anonymous": false,
      "inputs": [
        {
          "indexed": false,
          "internalType": "uint256",
          "name": "index",
          "type": "uint256"
        },
        {
          "indexed": false,
          "internalType": "address",
          "name": "newAdmin",
          "type": "address"
        }
      ],
      "name": "ProxyAdminChanged",
      "type": "event"
    },
    {
      "anonymous": false,
      "inputs": [
        {
          "indexed": false,
          "internalType": "uint256",
          "name": "index",
          "type": "uint256"
        }
      ],
      "name": "ProxyRemoved",
      "type": "event"
    },
    {
      "inputs": [
        {
          "internalType": "string",
          "name": "name",
          "type": "string"
        },
        {
          "internalType": "address",
          "name": "proxy",
          "type": "address"
        }
      ],
      "name": "addProxy",
      "outputs": [],
      "stateMutability": "nonpayable",
      "type": "function"
    },
    {
      "inputs": [
        {
          "internalType": "address",
          "name": "newAdmin",
          "type": "address"
        }
      ],
      "name": "changeAllAdmins",
      "outputs": [],
      "stateMutability": "nonpayable",
      "type": "function"
    },
    {
      "inputs": [
        {
          "internalType": "uint256",
          "name": "start",
          "type": "uint256"
        },
        {
          "internalType": "uint256",
          "name": "count",
          "type": "uint256"
        },
        {
          "internalType": "address",
          "name": "newAdmin",
          "type": "address"
        }
      ],
      "name": "changeAllAdmins",
      "outputs": [],
      "stateMutability": "nonpayable",
      "type": "function"
    },
    {
      "inputs": [
        {
          "internalType": "uint256",
          "name": "index",
          "type": "uint256"
        },
        {
          "internalType": "address",
          "name": "newAdmin",
          "type": "address"
        }
      ],
      "name": "changeProxyAdmin",
      "outputs": [],
      "stateMutability": "nonpayable",
      "type": "function"
    },
    {
      "inputs": [
        {
          "internalType": "uint256",
          "name": "index",
          "type": "uint256"
        }
      ],
      "name": "getAdmin",
      "outputs": [
        {
          "internalType": "address",
          "name": "",
          "type": "address"
        }
      ],
      "stateMutability": "view",
      "type": "function"
    },
    {
      "inputs": [],
      "name": "getAllImpls",
      "outputs": [
        {
          "internalType": "address[]",
          "name": "",
          "type": "address[]"
        }
      ],
      "stateMutability": "view",
      "type": "function"
    },
    {
      "inputs": [],
      "name": "getAllProxies",
      "outputs": [
        {
          "internalType": "address[]",
          "name": "",
          "type": "address[]"
        }
      ],
      "stateMutability": "view",
      "type": "function"
    },
    {
      "inputs": [],
      "name": "getAllProxiesInfo",
      "outputs": [
        {
          "internalType": "string[]",
          "name": "",
          "type": "string[]"
        }
      ],
      "stateMutability": "view",
      "type": "function"
    },
    {
      "inputs": [
        {
          "internalType": "uint256",
          "name": "index",
          "type": "uint256"
        }
      ],
      "name": "getImpl",
      "outputs": [
        {
          "internalType": "address",
          "name": "",
          "type": "address"
        }
      ],
      "stateMutability": "view",
      "type": "function"
    },
    {
      "inputs": [
        {
          "internalType": "uint256",
          "name": "index",
          "type": "uint256"
        }
      ],
      "name": "getName",
      "outputs": [
        {
          "internalType": "string",
          "name": "",
          "type": "string"
        }
      ],
      "stateMutability": "view",
      "type": "function"
    },
    {
      "inputs": [],
      "name": "owner",
      "outputs": [
        {
          "internalType": "address",
          "name": "",
          "type": "address"
        }
      ],
      "stateMutability": "view",
      "type": "function"
    },
    {
      "inputs": [
        {
          "internalType": "uint256",
          "name": "index",
          "type": "uint256"
        }
      ],
      "name": "removeProxy",
      "outputs": [],
      "stateMutability": "nonpayable",
      "type": "function"
    },
    {
      "inputs": [],
      "name": "renounceOwnership",
      "outputs": [],
      "stateMutability": "nonpayable",
      "type": "function"
    },
    {
      "inputs": [
        {
          "internalType": "address",
          "name": "newOwner",
          "type": "address"
        }
      ],
      "name": "transferOwnership",
      "outputs": [],
      "stateMutability": "nonpayable",
      "type": "function"
    },
    {
      "inputs": [
        {
          "internalType": "uint256",
          "name": "index",
          "type": "uint256"
        },
        {
          "internalType": "address",
          "name": "newImpl",
          "type": "address"
        }
      ],
      "name": "upgradeProxyTo",
      "outputs": [],
      "stateMutability": "nonpayable",
      "type": "function"
    }
  ],
  "bytecode": "0x60806040523480156200001157600080fd5b5060405162001c1438038062001c14833981016040819052620000349162000451565b600080546001600160a01b031916339081178255604051909182917f8be0079c531659141344cd1fd0a4f28419497f9722a3daafe3b4186f6b6457e0908290a350805182518114620000c05760405162461bcd60e51b815260206004820152601060248201526f09cdee840cae2eac2d840d8cadccee8d60831b60448201526064015b60405180910390fd5b60005b818110156200012b5762000116848281518110620000e557620000e56200058f565b60200260200101518483815181106200010257620001026200058f565b60200260200101516200013560201b60201c565b806200012281620005a5565b915050620000c3565b505050506200064f565b6000546001600160a01b03163314620001915760405162461bcd60e51b815260206004820181905260248201527f4f776e61626c653a2063616c6c6572206973206e6f7420746865206f776e65726044820152606401620000b7565b604080516060810182528381526001600160a01b038316602080830191909152600092820183905260018054808201825593528151805185946003027fb10e2d527612073b26eecdfd717e6a320cf44b4afac2b0732d9fcbe2b7fa0cf60192620002009284929101906200027f565b5060208201516001820180546001600160a01b039283166001600160a01b03199182161790915560409384015160029093018054939092169216919091179055517f73fbb85d72acba6320038d26d92319475c494604598393660b5ec00429ae7cda90620002729085908590620005cd565b60405180910390a1505050565b8280546200028d9062000613565b90600052602060002090601f016020900481019282620002b15760008555620002fc565b82601f10620002cc57805160ff1916838001178555620002fc565b82800160010185558215620002fc579182015b82811115620002fc578251825591602001919060010190620002df565b506200030a9291506200030e565b5090565b5b808211156200030a57600081556001016200030f565b634e487b7160e01b600052604160045260246000fd5b604051601f8201601f191681016001600160401b038111828210171562000366576200036662000325565b604052919050565b60006001600160401b038211156200038a576200038a62000325565b5060051b60200190565b60005b83811015620003b157818101518382015260200162000397565b83811115620003c1576000848401525b50505050565b600082601f830112620003d957600080fd5b81516020620003f2620003ec836200036e565b6200033b565b82815260059290921b840181019181810190868411156200041257600080fd5b8286015b84811015620004465780516001600160a01b0381168114620004385760008081fd5b835291830191830162000416565b509695505050505050565b60008060408084860312156200046657600080fd5b83516001600160401b03808211156200047e57600080fd5b8186019150601f87818401126200049457600080fd5b82516020620004a7620003ec836200036e565b82815260059290921b8501810191818101908b841115620004c757600080fd5b8287015b848110156200055957805187811115620004e55760008081fd5b8801603f81018e13620004f85760008081fd5b84810151888111156200050f576200050f62000325565b62000522818901601f191687016200033b565b8181528f8c838501011115620005385760008081fd5b62000549828883018e860162000394565b85525050918301918301620004cb565b50918a0151919850909550505050808311156200057557600080fd5b50506200058585828601620003c7565b9150509250929050565b634e487b7160e01b600052603260045260246000fd5b600060018201620005c657634e487b7160e01b600052601160045260246000fd5b5060010190565b6040815260008351806040840152620005ee81606085016020880162000394565b6001600160a01b0393909316602083015250601f91909101601f191601606001919050565b600181811c908216806200062857607f821691505b6020821081036200064957634e487b7160e01b600052602260045260246000fd5b50919050565b6115b5806200065f6000396000f3fe608060405234801561001057600080fd5b50600436106100f55760003560e01c8063715018a611610097578063b193081b11610066578063b193081b146101e3578063c600f129146101f6578063ef1dcd5114610209578063f2fde38b1461021c57600080fd5b8063715018a6146101ad5780637eda7165146101b5578063883edfb8146101ca5780638da5cb5b146101d257600080fd5b806346ba31b7116100d357806346ba31b7146101525780634acaaec9146101655780636b8ff574146101785780636dad6f0a1461019857600080fd5b8063111fd88b146100fa57806315c489471461012a5780633ab7d8411461013f575b600080fd5b61010d6101083660046110b8565b61022f565b6040516001600160a01b0390911681526020015b60405180910390f35b61013d61013836600461110c565b6102c4565b005b61013d61014d3660046110b8565b6103e1565b61013d6101603660046111ce565b610574565b61013d6101733660046111f2565b6105cb565b61018b6101863660046110b8565b61069d565b604051610121919061127a565b6101a0610753565b604051610121919061128d565b61013d6108fb565b6101bd61096f565b60405161012191906112ef565b6101bd610a8e565b6000546001600160a01b031661010d565b61013d6101f136600461133c565b610b58565b61010d6102043660046110b8565b610be0565b61013d6102173660046111f2565b610c4b565b61013d61022a3660046111ce565b610d58565b60006001828154811061024457610244611375565b600091825260209182902060016003909202010154604080516303e1469160e61b815290516001600160a01b039092169263f851a440926004808401938290030181865afa15801561029a573d6000803e3d6000fd5b505050506040513d601f19601f820116820180604052508101906102be919061138b565b92915050565b6000546001600160a01b031633146102f75760405162461bcd60e51b81526004016102ee906113a8565b60405180910390fd5b604080516060810182528381526001600160a01b038316602080830191909152600092820183905260018054808201825593528151805185946003027fb10e2d527612073b26eecdfd717e6a320cf44b4afac2b0732d9fcbe2b7fa0cf60192610364928492910190610f6e565b5060208201516001820180546001600160a01b039283166001600160a01b03199182161790915560409384015160029093018054939092169216919091179055517f73fbb85d72acba6320038d26d92319475c494604598393660b5ec00429ae7cda906103d490859085906113dd565b60405180910390a1505050565b6000546001600160a01b0316331461040b5760405162461bcd60e51b81526004016102ee906113a8565b600154808210610419575050565b815b61042660018361141d565b8110156104e55760016104398282611434565b8154811061044957610449611375565b90600052602060002090600302016001828154811061046a5761046a611375565b9060005260206000209060030201600082018160000190805461048c9061144c565b610497929190610ff2565b5060018281015490820180546001600160a01b03199081166001600160a01b039384161790915560029384015493909201805490921692169190911790556104de81611486565b905061041b565b5060018054806104f7576104f761149f565b60008281526020812060001990920191600383020190610517828261106d565b506001810180546001600160a01b031990811690915560029091018054909116905590556040518281527f81fc1fac5c45a543e62cfdadad11ae7abfd47f38dd8983645c8f71ace2cafe41906020015b60405180910390a1505b50565b6000546001600160a01b0316331461059e5760405162461bcd60e51b81526004016102ee906113a8565b60015460005b818110156105c6576105b68184610c4b565b6105bf81611486565b90506105a4565b505050565b6000546001600160a01b031633146105f55760405162461bcd60e51b81526004016102ee906113a8565b60015482106106165760405162461bcd60e51b81526004016102ee906114b5565b6001828154811061062957610629611375565b6000918252602090912060039091020160010154604051631b2ce7f360e11b81526001600160a01b03838116600483015290911690633659cfe690602401600060405180830381600087803b15801561068157600080fd5b505af1158015610695573d6000803e3d6000fd5b505050505050565b6060600182815481106106b2576106b2611375565b906000526020600020906003020160000180546106ce9061144c565b80601f01602080910402602001604051908101604052809291908181526020018280546106fa9061144c565b80156107475780601f1061071c57610100808354040283529160200191610747565b820191906000526020600020905b81548152906001019060200180831161072a57829003601f168201915b50505050509050919050565b60015460609060008167ffffffffffffffff811115610774576107746110d1565b6040519080825280602002602001820160405280156107a757816020015b60608152602001906001900390816107925790505b50905060005b828110156108f4576000600182815481106107ca576107ca611375565b90600052602060002090600302016040518060600160405290816000820180546107f39061144c565b80601f016020809104026020016040519081016040528092919081815260200182805461081f9061144c565b801561086c5780601f106108415761010080835404028352916020019161086c565b820191906000526020600020905b81548152906001019060200180831161084f57829003601f168201915b505050918352505060018201546001600160a01b03908116602083015260029092015490911660409091015290506108a382610e42565b81516040516108b69291906020016114dc565b6040516020818303038152906040528383815181106108d7576108d7611375565b602002602001018190525050806108ed90611486565b90506107ad565b5092915050565b6000546001600160a01b031633146109255760405162461bcd60e51b81526004016102ee906113a8565b600080546040516001600160a01b03909116907f8be0079c531659141344cd1fd0a4f28419497f9722a3daafe3b4186f6b6457e0908390a3600080546001600160a01b0319169055565b60015460609060008167ffffffffffffffff811115610990576109906110d1565b6040519080825280602002602001820160405280156109b9578160200160208202803683370190505b50905060005b828110156108f457600181815481106109da576109da611375565b60009182526020918290206001600390920201015460408051635c60da1b60e01b815290516001600160a01b0390921692635c60da1b926004808401938290030181865afa158015610a30573d6000803e3d6000fd5b505050506040513d601f19601f82011682018060405250810190610a54919061138b565b828281518110610a6657610a66611375565b6001600160a01b0390921660209283029190910190910152610a8781611486565b90506109bf565b60015460609060008167ffffffffffffffff811115610aaf57610aaf6110d1565b604051908082528060200260200182016040528015610ad8578160200160208202803683370190505b50905060005b828110156108f45760018181548110610af957610af9611375565b906000526020600020906003020160010160009054906101000a90046001600160a01b0316828281518110610b3057610b30611375565b6001600160a01b0390921660209283029190910190910152610b5181611486565b9050610ade565b6000546001600160a01b03163314610b825760405162461bcd60e51b81526004016102ee906113a8565b600154610b8f8385611434565b1115610bad5760405162461bcd60e51b81526004016102ee906114b5565b825b610bb98385611434565b811015610bda57610bca8183610c4b565b610bd381611486565b9050610baf565b50505050565b600060018281548110610bf557610bf5611375565b60009182526020918290206001600390920201015460408051635c60da1b60e01b815290516001600160a01b0390921692635c60da1b926004808401938290030181865afa15801561029a573d6000803e3d6000fd5b6000546001600160a01b03163314610c755760405162461bcd60e51b81526004016102ee906113a8565b6001548210610c965760405162461bcd60e51b81526004016102ee906114b5565b60018281548110610ca957610ca9611375565b60009182526020909120600390910201600101546040516308f2839760e41b81526001600160a01b03838116600483015290911690638f28397090602401600060405180830381600087803b158015610d0157600080fd5b505af1158015610d15573d6000803e3d6000fd5b5050604080518581526001600160a01b03851660208201527fdd46f7a110d29e571d4200939ad89fe6fd13f4bbdb521c01f8a8cef93ec2dd8d9350019050610567565b6000546001600160a01b03163314610d825760405162461bcd60e51b81526004016102ee906113a8565b6001600160a01b038116610de75760405162461bcd60e51b815260206004820152602660248201527f4f776e61626c653a206e6577206f776e657220697320746865207a65726f206160448201526564647265737360d01b60648201526084016102ee565b600080546040516001600160a01b03808516939216917f8be0079c531659141344cd1fd0a4f28419497f9722a3daafe3b4186f6b6457e091a3600080546001600160a01b0319166001600160a01b0392909216919091179055565b606081600003610e695750506040805180820190915260018152600360fc1b602082015290565b8160005b8115610e935780610e7d81611486565b9150610e8c9050600a83611519565b9150610e6d565b60008167ffffffffffffffff811115610eae57610eae6110d1565b6040519080825280601f01601f191660200182016040528015610ed8576020820181803683370190505b509050815b8515610f6557610eee60018261141d565b90506000610efd600a88611519565b610f0890600a61153b565b610f12908861141d565b610f1d90603061155a565b905060008160f81b905080848481518110610f3a57610f3a611375565b60200101906001600160f81b031916908160001a905350610f5c600a89611519565b97505050610edd565b50949350505050565b828054610f7a9061144c565b90600052602060002090601f016020900481019282610f9c5760008555610fe2565b82601f10610fb557805160ff1916838001178555610fe2565b82800160010185558215610fe2579182015b82811115610fe2578251825591602001919060010190610fc7565b50610fee9291506110a3565b5090565b828054610ffe9061144c565b90600052602060002090601f0160209004810192826110205760008555610fe2565b82601f106110315780548555610fe2565b82800160010185558215610fe257600052602060002091601f016020900482015b82811115610fe2578254825591600101919060010190611052565b5080546110799061144c565b6000825580601f10611089575050565b601f01602090049060005260206000209081019061057191905b5b80821115610fee57600081556001016110a4565b6000602082840312156110ca57600080fd5b5035919050565b634e487b7160e01b600052604160045260246000fd5b6001600160a01b038116811461057157600080fd5b8035611107816110e7565b919050565b6000806040838503121561111f57600080fd5b823567ffffffffffffffff8082111561113757600080fd5b818501915085601f83011261114b57600080fd5b81358181111561115d5761115d6110d1565b604051601f8201601f19908116603f01168101908382118183101715611185576111856110d1565b8160405282815288602084870101111561119e57600080fd5b8260208601602083013760006020848301015280965050505050506111c5602084016110fc565b90509250929050565b6000602082840312156111e057600080fd5b81356111eb816110e7565b9392505050565b6000806040838503121561120557600080fd5b823591506020830135611217816110e7565b809150509250929050565b60005b8381101561123d578181015183820152602001611225565b83811115610bda5750506000910152565b60008151808452611266816020860160208601611222565b601f01601f19169290920160200192915050565b6020815260006111eb602083018461124e565b6000602080830181845280855180835260408601915060408160051b870101925083870160005b828110156112e257603f198886030184526112d085835161124e565b945092850192908501906001016112b4565b5092979650505050505050565b6020808252825182820181905260009190848201906040850190845b818110156113305783516001600160a01b03168352928401929184019160010161130b565b50909695505050505050565b60008060006060848603121561135157600080fd5b8335925060208401359150604084013561136a816110e7565b809150509250925092565b634e487b7160e01b600052603260045260246000fd5b60006020828403121561139d57600080fd5b81516111eb816110e7565b6020808252818101527f4f776e61626c653a2063616c6c6572206973206e6f7420746865206f776e6572604082015260600190565b6040815260006113f0604083018561124e565b905060018060a01b03831660208301529392505050565b634e487b7160e01b600052601160045260246000fd5b60008282101561142f5761142f611407565b500390565b6000821982111561144757611447611407565b500190565b600181811c9082168061146057607f821691505b60208210810361148057634e487b7160e01b600052602260045260246000fd5b50919050565b60006001820161149857611498611407565b5060010190565b634e487b7160e01b600052603160045260246000fd5b6020808252600d908201526c4f7574206f6620626f756e647360981b604082015260600190565b600083516114ee818460208801611222565b6101d160f51b908301908152835161150d816002840160208801611222565b01600201949350505050565b60008261153657634e487b7160e01b600052601260045260246000fd5b500490565b600081600019048311821515161561155557611555611407565b500290565b600060ff821660ff84168060ff0382111561157757611577611407565b01939250505056fea2646970667358221220852bd162197f12d95983f4832051350c2cfec856f5d7c22125132ba19d73bf0964736f6c634300080d0033",
  "linkReferences": {},
  "deployedLinkReferences": {}
}