{
  "_format": "hh-sol-artifact-1",
  "contractName": "NFTXLPStaking2",
  "sourceName": "contracts/solidity/testing/NFTXLPStaking2.sol",
  "abi": [
    {
      "anonymous": false,
      "inputs": [
        {
          "indexed": false,
          "internalType": "uint256",
          "name": "vaultId",
          "type": "uint256"
        },
        {
          "indexed": false,
          "internalType": "uint256",
          "name": "amount",
          "type": "uint256"
        }
      ],
      "name": "FeesReceived",
      "type": "event"
    },
    {
      "anonymous": false,
      "inputs": [
        {
          "indexed": true,
          "internalType": "address",
          "name": "previousOwner",
          "type": "address"
        },
        {
          "indexed": true,
          "internalType": "address",
          "name": "newOwner",
          "type": "address"
        }
      ],
      "name": "OwnershipTransferred",
      "type": "event"
    },
    {
      "anonymous": false,
      "inputs": [
        {
          "indexed": false,
          "internalType": "uint256",
          "name": "vaultId",
          "type": "uint256"
        },
        {
          "indexed": false,
          "internalType": "address",
          "name": "pool",
          "type": "address"
        }
      ],
      "name": "PoolCreated",
      "type": "event"
    },
    {
      "anonymous": false,
      "inputs": [
        {
          "indexed": false,
          "internalType": "uint256",
          "name": "vaultId",
          "type": "uint256"
        },
        {
          "indexed": false,
          "internalType": "address",
          "name": "pool",
          "type": "address"
        }
      ],
      "name": "PoolUpdated",
      "type": "event"
    },
    {
      "anonymous": false,
      "inputs": [
        {
          "indexed": false,
          "internalType": "address",
          "name": "addr",
          "type": "address"
        },
        {
          "indexed": false,
          "internalType": "bool",
          "name": "isGuardian",
          "type": "bool"
        }
      ],
      "name": "SetIsGuardian",
      "type": "event"
    },
    {
      "anonymous": false,
      "inputs": [
        {
          "indexed": false,
          "internalType": "uint256",
          "name": "lockId",
          "type": "uint256"
        },
        {
          "indexed": false,
          "internalType": "bool",
          "name": "paused",
          "type": "bool"
        }
      ],
      "name": "SetPaused",
      "type": "event"
    },
    {
      "inputs": [
        {
          "internalType": "address",
          "name": "_stakingTokenProvider",
          "type": "address"
        }
      ],
      "name": "__NFTXLPStaking__init",
      "outputs": [],
      "stateMutability": "nonpayable",
      "type": "function"
    },
    {
      "inputs": [
        {
          "components": [
            {
              "internalType": "address",
              "name": "stakingToken",
              "type": "address"
            },
            {
              "internalType": "address",
              "name": "rewardToken",
              "type": "address"
            }
          ],
          "internalType": "struct NFTXLPStaking.StakingPool",
          "name": "pool",
          "type": "tuple"
        }
      ],
      "name": "_rewardDistributionTokenAddr",
      "outputs": [
        {
          "internalType": "contract TimelockRewardDistributionTokenImpl",
          "name": "",
          "type": "address"
        }
      ],
      "stateMutability": "view",
      "type": "function"
    },
    {
      "inputs": [
        {
          "internalType": "uint256",
          "name": "vaultId",
          "type": "uint256"
        }
      ],
      "name": "addPoolForVault",
      "outputs": [],
      "stateMutability": "nonpayable",
      "type": "function"
    },
    {
      "inputs": [
        {
          "internalType": "uint256",
          "name": "vaultId",
          "type": "uint256"
        },
        {
          "internalType": "address",
          "name": "staker",
          "type": "address"
        }
      ],
      "name": "adjustedDividendOf",
      "outputs": [
        {
          "internalType": "uint256",
          "name": "",
          "type": "uint256"
        }
      ],
      "stateMutability": "view",
      "type": "function"
    },
    {
      "inputs": [
        {
          "internalType": "uint256",
          "name": "vaultId",
          "type": "uint256"
        },
        {
          "internalType": "address",
          "name": "addr",
          "type": "address"
        }
      ],
      "name": "balanceOf",
      "outputs": [
        {
          "internalType": "uint256",
          "name": "",
          "type": "uint256"
        }
      ],
      "stateMutability": "view",
      "type": "function"
    },
    {
      "inputs": [
        {
          "internalType": "uint256[]",
          "name": "vaultIds",
          "type": "uint256[]"
        }
      ],
      "name": "claimMultipleRewards",
      "outputs": [],
      "stateMutability": "nonpayable",
      "type": "function"
    },
    {
      "inputs": [
        {
          "internalType": "uint256",
          "name": "vaultId",
          "type": "uint256"
        }
      ],
      "name": "claimRewards",
      "outputs": [],
      "stateMutability": "nonpayable",
      "type": "function"
    },
    {
      "inputs": [
        {
          "internalType": "uint256",
          "name": "vaultId",
          "type": "uint256"
        },
        {
          "internalType": "uint256",
          "name": "amount",
          "type": "uint256"
        }
      ],
      "name": "deposit",
      "outputs": [],
      "stateMutability": "nonpayable",
      "type": "function"
    },
    {
      "inputs": [
        {
          "internalType": "address",
          "name": "_stakingToken",
          "type": "address"
        },
        {
          "internalType": "address",
          "name": "_rewardToken",
          "type": "address"
        }
      ],
      "name": "emergencyExit",
      "outputs": [],
      "stateMutability": "nonpayable",
      "type": "function"
    },
    {
      "inputs": [
        {
          "internalType": "address",
          "name": "_stakingToken",
          "type": "address"
        },
        {
          "internalType": "address",
          "name": "_rewardToken",
          "type": "address"
        }
      ],
      "name": "emergencyExitAndClaim",
      "outputs": [],
      "stateMutability": "nonpayable",
      "type": "function"
    },
    {
      "inputs": [
        {
          "internalType": "uint256",
          "name": "vaultId",
          "type": "uint256"
        }
      ],
      "name": "exit",
      "outputs": [],
      "stateMutability": "nonpayable",
      "type": "function"
    },
    {
      "inputs": [
        {
          "internalType": "address",
          "name": "",
          "type": "address"
        }
      ],
      "name": "isGuardian",
      "outputs": [
        {
          "internalType": "bool",
          "name": "",
          "type": "bool"
        }
      ],
      "stateMutability": "view",
      "type": "function"
    },
    {
      "inputs": [
        {
          "internalType": "uint256",
          "name": "",
          "type": "uint256"
        }
      ],
      "name": "isPaused",
      "outputs": [
        {
          "internalType": "bool",
          "name": "",
          "type": "bool"
        }
      ],
      "stateMutability": "view",
      "type": "function"
    },
    {
      "inputs": [
        {
          "internalType": "uint256",
          "name": "vaultId",
          "type": "uint256"
        },
        {
          "internalType": "address",
          "name": "who",
          "type": "address"
        }
      ],
      "name": "lockedLPBalance",
      "outputs": [
        {
          "internalType": "uint256",
          "name": "",
          "type": "uint256"
        }
      ],
      "stateMutability": "view",
      "type": "function"
    },
    {
      "inputs": [
        {
          "internalType": "uint256",
          "name": "vaultId",
          "type": "uint256"
        },
        {
          "internalType": "address",
          "name": "who",
          "type": "address"
        }
      ],
      "name": "lockedUntil",
      "outputs": [
        {
          "internalType": "uint256",
          "name": "",
          "type": "uint256"
        }
      ],
      "stateMutability": "view",
      "type": "function"
    },
    {
      "inputs": [
        {
          "internalType": "uint256",
          "name": "vaultId",
          "type": "uint256"
        }
      ],
      "name": "newRewardDistributionToken",
      "outputs": [
        {
          "internalType": "contract TimelockRewardDistributionTokenImpl",
          "name": "",
          "type": "address"
        }
      ],
      "stateMutability": "view",
      "type": "function"
    },
    {
      "inputs": [],
      "name": "newTimelockRewardDistTokenImpl",
      "outputs": [
        {
          "internalType": "contract TimelockRewardDistributionTokenImpl",
          "name": "",
          "type": "address"
        }
      ],
      "stateMutability": "view",
      "type": "function"
    },
    {
      "inputs": [],
      "name": "nftxVaultFactory",
      "outputs": [
        {
          "internalType": "contract INFTXVaultFactory",
          "name": "",
          "type": "address"
        }
      ],
      "stateMutability": "view",
      "type": "function"
    },
    {
      "inputs": [
        {
          "internalType": "uint256",
          "name": "lockId",
          "type": "uint256"
        }
      ],
      "name": "onlyOwnerIfPaused",
      "outputs": [],
      "stateMutability": "view",
      "type": "function"
    },
    {
      "inputs": [],
      "name": "owner",
      "outputs": [
        {
          "internalType": "address",
          "name": "",
          "type": "address"
        }
      ],
      "stateMutability": "view",
      "type": "function"
    },
    {
      "inputs": [
        {
          "internalType": "uint256",
          "name": "lockId",
          "type": "uint256"
        }
      ],
      "name": "pause",
      "outputs": [],
      "stateMutability": "nonpayable",
      "type": "function"
    },
    {
      "inputs": [
        {
          "internalType": "uint256",
          "name": "vaultId",
          "type": "uint256"
        },
        {
          "internalType": "uint256",
          "name": "amount",
          "type": "uint256"
        }
      ],
      "name": "receiveRewards",
      "outputs": [
        {
          "internalType": "bool",
          "name": "",
          "type": "bool"
        }
      ],
      "stateMutability": "nonpayable",
      "type": "function"
    },
    {
      "inputs": [],
      "name": "renounceOwnership",
      "outputs": [],
      "stateMutability": "nonpayable",
      "type": "function"
    },
    {
      "inputs": [
        {
          "internalType": "uint256",
          "name": "vaultId",
          "type": "uint256"
        },
        {
          "internalType": "uint256",
          "name": "amount",
          "type": "uint256"
        },
        {
          "internalType": "address",
          "name": "from",
          "type": "address"
        },
        {
          "internalType": "address",
          "name": "to",
          "type": "address"
        }
      ],
      "name": "retrieveTokens",
      "outputs": [],
      "stateMutability": "nonpayable",
      "type": "function"
    },
    {
      "inputs": [],
      "name": "rewardDistTokenImpl",
      "outputs": [
        {
          "internalType": "contract IRewardDistributionToken",
          "name": "",
          "type": "address"
        }
      ],
      "stateMutability": "view",
      "type": "function"
    },
    {
      "inputs": [
        {
          "internalType": "address",
          "name": "stakedToken",
          "type": "address"
        },
        {
          "internalType": "address",
          "name": "rewardToken",
          "type": "address"
        }
      ],
      "name": "rewardDistributionTokenAddr",
      "outputs": [
        {
          "internalType": "address",
          "name": "",
          "type": "address"
        }
      ],
      "stateMutability": "view",
      "type": "function"
    },
    {
      "inputs": [
        {
          "internalType": "address",
          "name": "addr",
          "type": "address"
        },
        {
          "internalType": "bool",
          "name": "_isGuardian",
          "type": "bool"
        }
      ],
      "name": "setIsGuardian",
      "outputs": [],
      "stateMutability": "nonpayable",
      "type": "function"
    },
    {
      "inputs": [
        {
          "internalType": "address",
          "name": "newFactory",
          "type": "address"
        }
      ],
      "name": "setNFTXVaultFactory",
      "outputs": [],
      "stateMutability": "nonpayable",
      "type": "function"
    },
    {
      "inputs": [
        {
          "internalType": "address",
          "name": "newProvider",
          "type": "address"
        }
      ],
      "name": "setStakingTokenProvider",
      "outputs": [],
      "stateMutability": "nonpayable",
      "type": "function"
    },
    {
      "inputs": [],
      "name": "stakingTokenProvider",
      "outputs": [
        {
          "internalType": "contract StakingTokenProvider",
          "name": "",
          "type": "address"
        }
      ],
      "stateMutability": "view",
      "type": "function"
    },
    {
      "inputs": [
        {
          "internalType": "uint256",
          "name": "a",
          "type": "uint256"
        },
        {
          "internalType": "uint256",
          "name": "b",
          "type": "uint256"
        }
      ],
      "name": "sum",
      "outputs": [
        {
          "internalType": "uint256",
          "name": "",
          "type": "uint256"
        }
      ],
      "stateMutability": "pure",
      "type": "function"
    },
    {
      "inputs": [
        {
          "internalType": "uint256",
          "name": "vaultId",
          "type": "uint256"
        },
        {
          "internalType": "address",
          "name": "account",
          "type": "address"
        },
        {
          "internalType": "uint256",
          "name": "amount",
          "type": "uint256"
        },
        {
          "internalType": "uint256",
          "name": "timelockLength",
          "type": "uint256"
        }
      ],
      "name": "timelockDepositFor",
      "outputs": [],
      "stateMutability": "nonpayable",
      "type": "function"
    },
    {
      "inputs": [
        {
          "internalType": "uint256",
          "name": "vaultId",
          "type": "uint256"
        }
      ],
      "name": "totalUndistributedFees",
      "outputs": [
        {
          "internalType": "uint256",
          "name": "",
          "type": "uint256"
        }
      ],
      "stateMutability": "view",
      "type": "function"
    },
    {
      "inputs": [
        {
          "internalType": "address",
          "name": "newOwner",
          "type": "address"
        }
      ],
      "name": "transferOwnership",
      "outputs": [],
      "stateMutability": "nonpayable",
      "type": "function"
    },
    {
      "inputs": [
        {
          "internalType": "uint256",
          "name": "vaultId",
          "type": "uint256"
        },
        {
          "internalType": "address",
          "name": "staker",
          "type": "address"
        }
      ],
      "name": "undistributedFees",
      "outputs": [
        {
          "internalType": "uint256",
          "name": "",
          "type": "uint256"
        }
      ],
      "stateMutability": "view",
      "type": "function"
    },
    {
      "inputs": [
        {
          "internalType": "uint256",
          "name": "lockId",
          "type": "uint256"
        }
      ],
      "name": "unpause",
      "outputs": [],
      "stateMutability": "nonpayable",
      "type": "function"
    },
    {
      "inputs": [
        {
          "internalType": "uint256",
          "name": "vaultId",
          "type": "uint256"
        }
      ],
      "name": "updatePoolForVault",
      "outputs": [],
      "stateMutability": "nonpayable",
      "type": "function"
    },
    {
      "inputs": [
        {
          "internalType": "uint256[]",
          "name": "vaultIds",
          "type": "uint256[]"
        }
      ],
      "name": "updatePoolForVaults",
      "outputs": [],
      "stateMutability": "nonpayable",
      "type": "function"
    },
    {
      "inputs": [
        {
          "internalType": "uint256",
          "name": "",
          "type": "uint256"
        }
      ],
      "name": "vaultStakingInfo",
      "outputs": [
        {
          "internalType": "address",
          "name": "stakingToken",
          "type": "address"
        },
        {
          "internalType": "address",
          "name": "rewardToken",
          "type": "address"
        }
      ],
      "stateMutability": "view",
      "type": "function"
    },
    {
      "inputs": [
        {
          "internalType": "uint256",
          "name": "vaultId",
          "type": "uint256"
        },
        {
          "internalType": "uint256",
          "name": "amount",
          "type": "uint256"
        }
      ],
      "name": "withdraw",
      "outputs": [],
      "stateMutability": "nonpayable",
      "type": "function"
    }
  ],
  "bytecode": "0x608060405234801561001057600080fd5b50615086806100206000396000f3fe608060405234801561001057600080fd5b50600436106102485760003560e01c8063859251ff1161013b578063bdf2a43c116100b8578063e2bbb1581161007c578063e2bbb15814610577578063f2fde38b1461058a578063f36d52da1461059d578063f99e7405146105b0578063fabc1cbc146105c357600080fd5b8063bdf2a43c14610508578063cad0899b1461052b578063cd4605321461053e578063da04682b14610551578063e0e9e64d1461056457600080fd5b806392a05be6116100ff57806392a05be6146104a95780639d8ab6ae146104bc578063a3837c6c146104cf578063a77abced146104e2578063b7019b37146104f557600080fd5b8063859251ff1461044c57806386c920fc1461045f57806387a6753f146104725780638a789162146104855780638da5cb5b1461049857600080fd5b80634dfa5fcf116101c9578063763c6da11161018d578063763c6da1146103ed5780637a77a5f7146104005780637c77b616146104135780637ec732ab146104265780637f8661a11461043957600080fd5b80634dfa5fcf146103995780635cec16c0146103ac5780636c9b9588146103bf578063715018a6146103d2578063729d0a8a146103da57600080fd5b80633580c2f2116102105780633580c2f2146103145780633656eec2146103275780633801daf114610348578063441a3e7014610373578063482d0fd21461038657600080fd5b80630962ef791461024d5780630c68ba2114610262578063136439dd1461029a57806323845fb5146102ad5780633504f437146102c0575b600080fd5b61026061025b366004612bb4565b6105d6565b005b610285610270366004612be2565b60656020526000908152604090205460ff1681565b60405190151581526020015b60405180910390f35b6102606102a8366004612bb4565b610621565b6102606102bb366004612c0d565b6106cb565b6102f46102ce366004612bb4565b606a60205260009081526040902080546001909101546001600160a01b03918216911682565b604080516001600160a01b03938416815292909116602083015201610291565b610260610322366004612c46565b610758565b61033a610335366004612c74565b61088f565b604051908152602001610291565b60675461035b906001600160a01b031681565b6040516001600160a01b039091168152602001610291565b610260610381366004612c99565b610965565b610260610394366004612bb4565b6109bc565b61033a6103a7366004612bb4565b610b86565b6102606103ba366004612c46565b610dd1565b6102606103cd366004612cbb565b610e1a565b610260611005565b6102606103e8366004612cf8565b611079565b61033a6103fb366004612c74565b6110b6565b61026061040e366004612cf8565b611181565b610260610421366004612bb4565b6111be565b610260610434366004612be2565b61121e565b610260610447366004612bb4565b61127d565b606b5461035b906001600160a01b031681565b60695461035b906001600160a01b031681565b610260610480366004612bb4565b6112d2565b61033a610493366004612c74565b611606565b6033546001600160a01b031661035b565b60685461035b906001600160a01b031681565b6102606104ca366004612be2565b611780565b61035b6104dd366004612d83565b61195d565b6102606104f0366004612be2565b6119cf565b61035b610503366004612bb4565b611a74565b610285610516366004612bb4565b60666020526000908152604090205460ff1681565b61033a610539366004612c99565b611ac9565b61026061054c366004612de2565b611ad5565b61035b61055f366004612c46565b611c0f565b61033a610572366004612c74565b611c39565b610260610585366004612c99565b611cf9565b610260610598366004612be2565b611eca565b6102856105ab366004612c99565b611fb5565b61033a6105be366004612c74565b612240565b6102606105d1366004612bb4565b6122b2565b6000818152606a6020908152604091829020825180840190935280546001600160a01b039081168452600190910154169082015261061382612329565b61061d81336123fb565b5050565b3360009081526065602052604090205460ff166106735760405162461bcd60e51b815260206004820152600b60248201526a43616e277420706175736560a81b60448201526064015b60405180910390fd5b600081815260666020908152604091829020805460ff191660019081179091558251848152918201527f77f1fcfcce67dc392d64f842056d2ec06c80986c47c910f7e79c5b23a2738d7491015b60405180910390a150565b6033546001600160a01b031633146106f55760405162461bcd60e51b815260040161066a90612e2c565b6001600160a01b038216600081815260656020908152604091829020805460ff19168515159081179091558251938452908301527fd0b6b573d5442f7c29fd50d9735ae341581c25c6ed07748d50eda519f1ffa88a910160405180910390a15050565b604080518082019091526001600160a01b0380841682528216602082015260006107818261195d565b9050803b6107a15760405162461bcd60e51b815260040161066a90612e61565b61080b836001600160a01b03166333194c0a6040518163ffffffff1660e01b8152600401602060405180830381865afa1580156107e2573d6000803e3d6000fd5b505050506040513d601f19601f820116820180604052508101906108069190612e85565b612329565b61081582336123fb565b6040516370a0823160e01b81523360048201526108899083906001600160a01b038416906370a0823190602401602060405180830381865afa15801561085f573d6000803e3d6000fd5b505050506040513d601f19601f820116820180604052508101906108839190612e85565b3361248c565b50505050565b6000828152606a60209081526040808320815180830190925280546001600160a01b0390811683526001909101541691810191909152816108cf8261195d565b9050803b6108ef5760405162461bcd60e51b815260040161066a90612e61565b6040516370a0823160e01b81526001600160a01b0385811660048301528216906370a08231906024015b602060405180830381865afa158015610936573d6000803e3d6000fd5b505050506040513d601f19601f8201168201806040525081019061095a9190612e85565b925050505b92915050565b6000828152606a6020908152604091829020825180840190935280546001600160a01b03908116845260019091015416908201526109a283612329565b6109ac81336123fb565b6109b781833361248c565b505050565b6000818152606a6020908152604091829020825180840190935280546001600160a01b039081168085526001909201541691830191909152610a405760405162461bcd60e51b815260206004820152601d60248201527f4c505374616b696e673a20506f6f6c20646f65736e2774206578697374000000604482015260640161066a565b60695460208201516040516387c13f4d60e01b81526001600160a01b03918216600482015260009291909116906387c13f4d90602401602060405180830381865afa158015610a93573d6000803e3d6000fd5b505050506040513d601f19601f82011682018060405250810190610ab79190612e9e565b6040805180820182526001600160a01b03808416825260208681015182168184019081526000898152606a909252938120835181549084166001600160a01b0319918216178255945160019091018054919093169416939093179055919250610b1f8261195d565b9050803b15610b2f575050505050565b6000610b3a83612537565b604080518881526001600160a01b03831660208201529192507fd2bb61ed4a0a485d895c65f25fb6c9185c98180ae407831365bc59f65419f9fe910160405180910390a1505050505050565b600080606760009054906101000a90046001600160a01b03166001600160a01b0316630d43e8ad6040518163ffffffff1660e01b8152600401602060405180830381865afa158015610bdc573d6000803e3d6000fd5b505050506040513d601f19601f82011682018060405250810190610c009190612e9e565b604051632819fec960e11b815260006004820181905291925081906001600160a01b03841690635033fd92906024016040805180830381865afa158015610c4b573d6000803e3d6000fd5b505050506040513d601f19601f82011682018060405250810190610c6f9190612ebb565b90925090506001600160a01b0382163014610cba5760405162461bcd60e51b815260206004820152600b60248201526a0eee4dedcce40d2dcc8caf60ab1b604482015260640161066a565b6000858152606a6020908152604091829020600101546067548351630d43e8ad60e01b81529351670de0b6b3a76400009486946001600160a01b03948516946370a08231941692630d43e8ad9260048082019392918290030181865afa158015610d28573d6000803e3d6000fd5b505050506040513d601f19601f82011682018060405250810190610d4c9190612e9e565b6040516001600160e01b031960e084901b1681526001600160a01b039091166004820152602401602060405180830381865afa158015610d90573d6000803e3d6000fd5b505050506040513d601f19601f82011682018060405250810190610db49190612e85565b610dbe9190612eff565b610dc89190612f1e565b95945050505050565b604080518082019091526001600160a01b038084168252821660208201526000610dfa8261195d565b9050803b6108155760405162461bcd60e51b815260040161066a90612e61565b62278d008110610e605760405162461bcd60e51b815260206004820152601160248201527054696d656c6f636b20746f6f206c6f6e6760781b604482015260640161066a565b6067546040516306df336560e51b81523360048201526001600160a01b039091169063dbe66ca090602401602060405180830381865afa158015610ea8573d6000803e3d6000fd5b505050506040513d601f19601f82011682018060405250810190610ecc9190612f40565b610f025760405162461bcd60e51b815260206004820152600760248201526604e6f74207a61760cc1b604482015260640161066a565b610f0c600a6111be565b610f15846109bc565b610f1e84612329565b6000848152606a6020908152604091829020825180840190935280546001600160a01b039081168085526001909201541691830191909152610f725760405162461bcd60e51b815260040161066a90612f5d565b8051610f89906001600160a01b0316333086612696565b610f928161195d565b60405163145e612f60e11b81526001600160a01b038681166004830152602482018690526044820185905291909116906328bcc25e906064015b600060405180830381600087803b158015610fe657600080fd5b505af1158015610ffa573d6000803e3d6000fd5b505050505050505050565b6033546001600160a01b0316331461102f5760405162461bcd60e51b815260040161066a90612e2c565b6033546040516000916001600160a01b0316907f8be0079c531659141344cd1fd0a4f28419497f9722a3daafe3b4186f6b6457e0908390a3603380546001600160a01b0319169055565b8060005b81811015610889576110a684848381811061109a5761109a612f94565b905060200201356105d6565b6110af81612faa565b905061107d565b6000828152606a60209081526040808320815180830190925280546001600160a01b039081168352600190910154169181019190915281906110f79061195d565b6040516348dc4fdd60e11b81526001600160a01b038581166004830152919250908216906391b89fba90602401602060405180830381865afa158015611141573d6000803e3d6000fd5b505050506040513d601f19601f820116820180604052508101906111659190612e85565b61116f8585611606565b6111799190612fc3565b949350505050565b8060005b81811015610889576111ae8484838181106111a2576111a2612f94565b905060200201356109bc565b6111b781612faa565b9050611185565b60008181526066602052604090205460ff1615806111e657506033546001600160a01b031633145b61121b5760405162461bcd60e51b815260206004820152600660248201526514185d5cd95960d21b604482015260640161066a565b50565b6033546001600160a01b031633146112485760405162461bcd60e51b815260040161066a90612e2c565b6001600160a01b03811661125b57600080fd5b606980546001600160a01b0319166001600160a01b0392909216919091179055565b6000818152606a6020908152604091829020825180840190935280546001600160a01b03908116845260019091015416908201526112ba82612329565b6112c481336123fb565b61061d81610883843361088f565b6033546001600160a01b03163314806113725750606760009054906101000a90046001600160a01b03166001600160a01b0316630d43e8ad6040518163ffffffff1660e01b8152600401602060405180830381865afa158015611339573d6000803e3d6000fd5b505050506040513d601f19601f8201168201806040525081019061135d9190612e9e565b6001600160a01b0316336001600160a01b0316145b6113ba5760405162461bcd60e51b8152602060048201526019602482015278131414dd185ada5b99ce88139bdd08185d5d1a1bdc9a5e9959603a1b604482015260640161066a565b6067546001600160a01b03166114125760405162461bcd60e51b815260206004820152601a60248201527f4c505374616b696e673a20466163746f7279206e6f7420736574000000000000604482015260640161066a565b6000818152606a60205260409020546001600160a01b0316156114775760405162461bcd60e51b815260206004820152601e60248201527f4c505374616b696e673a20506f6f6c20616c7265616479206578697374730000604482015260640161066a565b6067546040516340d1b7db60e11b8152600481018390526000916001600160a01b0316906381a36fb690602401602060405180830381865afa1580156114c1573d6000803e3d6000fd5b505050506040513d601f19601f820116820180604052508101906114e59190612e9e565b6069546040516387c13f4d60e01b81526001600160a01b038084166004830152929350600092909116906387c13f4d90602401602060405180830381865afa158015611535573d6000803e3d6000fd5b505050506040513d601f19601f820116820180604052508101906115599190612e9e565b6040805180820182526001600160a01b03808416825285811660208084019182526000898152606a909152938420835181549084166001600160a01b03199182161782559151600190910180549190931691161790559192506115bb82612537565b604080518781526001600160a01b03831660208201529192507f65fc0eb45954044fb55e1b01344d5d72fbfdf88e732d955f73bb7fb2bcc131e9910160405180910390a15050505050565b6000828152606a60209081526040808320815180830190925280546001600160a01b039081168352600190910154169181019190915281906116479061195d565b90506000816001600160a01b03166318160ddd6040518163ffffffff1660e01b8152600401602060405180830381865afa158015611689573d6000803e3d6000fd5b505050506040513d601f19601f820116820180604052508101906116ad9190612e85565b9050806000036116c25760009250505061095f565b6040516370a0823160e01b81526001600160a01b03858116600483015260009183918516906370a0823190602401602060405180830381865afa15801561170d573d6000803e3d6000fd5b505050506040513d601f19601f820116820180604052508101906117319190612e85565b61174390670de0b6b3a7640000612eff565b61174d9190612f1e565b9050670de0b6b3a76400008161176288610b86565b61176c9190612eff565b6117769190612f1e565b9695505050505050565b600054610100900460ff1680611799575060005460ff16155b6117b55760405162461bcd60e51b815260040161066a90612fdb565b600054610100900460ff161580156117d7576000805461ffff19166101011790555b6117df612701565b6001600160a01b03821661182e5760405162461bcd60e51b815260206004820152601660248201527550726f766964657220213d206164647265737328302960501b604482015260640161066a565b606b546001600160a01b03161561187a5760405162461bcd60e51b815260206004820152601060248201526f105b1c9958591e48185cdcda59db995960821b604482015260640161066a565b606980546001600160a01b0319166001600160a01b0384161790556040516118a190612ba7565b604051809103906000f0801580156118bd573d6000803e3d6000fd5b50606b80546001600160a01b0319166001600160a01b03929092169182179055604051639f63df1f60e01b81526000600482018190526060602483015260648201819052608060448301526084820152639f63df1f9060a401600060405180830381600087803b15801561193057600080fd5b505af1158015611944573d6000803e3d6000fd5b50505050801561061d576000805461ff00191690555050565b80516020808301516040516bffffffffffffffffffffffff19606094851b811693820193909352921b16603482015260026048820152600090819060680160408051601f198184030181529190528051602090910120606b54909150600090611179906001600160a01b03168361277c565b6033546001600160a01b031633146119f95760405162461bcd60e51b815260040161066a90612e2c565b6067546001600160a01b031615611a525760405162461bcd60e51b815260206004820152601d60248201527f6e6674785661756c74466163746f727920697320696d6d757461626c65000000604482015260640161066a565b606780546001600160a01b0319166001600160a01b0392909216919091179055565b6000818152606a60209081526040808320815180830190925280546001600160a01b03908116808452600190920154169282019290925290611ab95750600092915050565b611ac28161195d565b9392505050565b6000611ac28284612fc3565b6033546001600160a01b03163314611aff5760405162461bcd60e51b815260040161066a90612e2c565b6000848152606a60209081526040808320815180830190925280546001600160a01b039081168352600190910154169181019190915290611b3f8261195d565b60405163079cc67960e41b81526001600160a01b03868116600483015260248201889052919250908216906379cc679090604401600060405180830381600087803b158015611b8d57600080fd5b505af1158015611ba1573d6000803e3d6000fd5b50506040516340c10f1960e01b81526001600160a01b03868116600483015260248201899052841692506340c10f199150604401600060405180830381600087803b158015611bef57600080fd5b505af1158015611c03573d6000803e3d6000fd5b50505050505050505050565b604080518082019091526001600160a01b038084168252821660208201526000906111798161195d565b6000828152606a60209081526040808320815180830190925280546001600160a01b039081168352600190910154169181019190915281611c798261195d565b60405163c19ea05360e01b81526001600160a01b0386811660048301529192509082169063c19ea05390602401602060405180830381865afa158015611cc3573d6000803e3d6000fd5b505050506040513d601f19601f82011682018060405250810190611ce79190612e85565b4211156108ef5760009250505061095f565b611d03600a6111be565b611d0c826109bc565b611d1582612329565b6000828152606a6020908152604091829020825180840190935280546001600160a01b039081168085526001909201541691830191909152611d695760405162461bcd60e51b815260040161066a90612f5d565b8051611d80906001600160a01b0316333085612696565b6000611d8b8261195d565b60405163c19ea05360e01b81523360048201529091506000906001600160a01b0383169063c19ea05390602401602060405180830381865afa158015611dd5573d6000803e3d6000fd5b505050506040513d601f19601f82011682018060405250810190611df99190612e85565b905042811115611e89576001600160a01b0382166328bcc25e3386611e1e4286613029565b6040516001600160e01b031960e086901b1681526001600160a01b03909316600484015260248301919091526044820152606401600060405180830381600087803b158015611e6c57600080fd5b505af1158015611e80573d6000803e3d6000fd5b50505050611ec3565b60405163145e612f60e11b815233600482015260248101859052600260448201526001600160a01b038316906328bcc25e90606401610fcc565b5050505050565b6033546001600160a01b03163314611ef45760405162461bcd60e51b815260040161066a90612e2c565b6001600160a01b038116611f595760405162461bcd60e51b815260206004820152602660248201527f4f776e61626c653a206e6577206f776e657220697320746865207a65726f206160448201526564647265737360d01b606482015260840161066a565b6033546040516001600160a01b038084169216907f8be0079c531659141344cd1fd0a4f28419497f9722a3daafe3b4186f6b6457e090600090a3603380546001600160a01b0319166001600160a01b0392909216919091179055565b6000611fc96033546001600160a01b031690565b6001600160a01b0316336001600160a01b0316148061206f5750606760009054906101000a90046001600160a01b03166001600160a01b0316630d43e8ad6040518163ffffffff1660e01b8152600401602060405180830381865afa158015612036573d6000803e3d6000fd5b505050506040513d601f19601f8201168201806040525081019061205a9190612e9e565b6001600160a01b0316336001600160a01b0316145b6120b75760405162461bcd60e51b8152602060048201526019602482015278131414dd185ada5b99ce88139bdd08185d5d1a1bdc9a5e9959603a1b604482015260640161066a565b6000838152606a6020908152604091829020825180840190935280546001600160a01b0390811680855260019092015416918301919091526120fd57600091505061095f565b60006121088261195d565b9050803b15806121775750806001600160a01b03166318160ddd6040518163ffffffff1660e01b8152600401602060405180830381865afa158015612151573d6000803e3d6000fd5b505050506040513d601f19601f820116820180604052508101906121759190612e85565b155b156121875760009250505061095f565b60208201516121a1906001600160a01b0316338387612696565b604051630b32e9c760e31b8152600481018590526001600160a01b038216906359974e3890602401600060405180830381600087803b1580156121e357600080fd5b505af11580156121f7573d6000803e3d6000fd5b505060408051888152602081018890527f0299314386021feac38b734d748626da8e75d6abb4e6a897c0f9c8f23ff42715935001905060405180910390a1506001949350505050565b6000828152606a60209081526040808320815180830190925280546001600160a01b0390811683526001909101541691810191909152816122808261195d565b60405163c19ea05360e01b81526001600160a01b0386811660048301529192509082169063c19ea05390602401610919565b6033546001600160a01b031633146122dc5760405162461bcd60e51b815260040161066a90612e2c565b6000818152606660209081526040808320805460ff191690558051848152918201929092527f77f1fcfcce67dc392d64f842056d2ec06c80986c47c910f7e79c5b23a2738d7491016106c0565b606760009054906101000a90046001600160a01b03166001600160a01b0316630d43e8ad6040518163ffffffff1660e01b8152600401602060405180830381865afa15801561237c573d6000803e3d6000fd5b505050506040513d601f19601f820116820180604052508101906123a09190612e9e565b6001600160a01b03166391c05b0b826040518263ffffffff1660e01b81526004016123cd91815260200190565b600060405180830381600087803b1580156123e757600080fd5b505af1158015611ec3573d6000803e3d6000fd5b81516001600160a01b03166124225760405162461bcd60e51b815260040161066a90612f5d565b61242b8261195d565b604051632e1b8c8760e21b81526001600160a01b038381166004830152919091169063b86e321c90602401600060405180830381600087803b15801561247057600080fd5b505af1158015612484573d6000803e3d6000fd5b505050505050565b82516001600160a01b03166124b35760405162461bcd60e51b815260040161066a90612f5d565b6124bc8361195d565b60405163079cc67960e41b81526001600160a01b0383811660048301526024820185905291909116906379cc679090604401600060405180830381600087803b15801561250857600080fd5b505af115801561251c573d6000803e3d6000fd5b505084516109b792506001600160a01b0316905082846127e2565b80516020808301516040516bffffffffffffffffffffffff19606094851b811693820193909352921b16603482015260026048820152600090819060680160408051601f198184030181529190528051602090910120606b549091506000906125a9906001600160a01b031683612812565b60695460208601516040516396c5967160e01b81526001600160a01b0391821660048201529293506000929116906396c5967190602401600060405180830381865afa1580156125fd573d6000803e3d6000fd5b505050506040513d6000823e601f3d908101601f19168201604052612625919081019061306c565b6020860151604051639f63df1f60e01b81529192506001600160a01b03841691639f63df1f9161265b918590819060040161313a565b600060405180830381600087803b15801561267557600080fd5b505af1158015612689573d6000803e3d6000fd5b5093979650505050505050565b6040516001600160a01b03808516602483015283166044820152606481018290526108899085906323b872dd60e01b906084015b60408051601f198184030181529190526020810180516001600160e01b03166001600160e01b0319909316929092179091526128b2565b600054610100900460ff168061271a575060005460ff16155b6127365760405162461bcd60e51b815260040161066a90612fdb565b600054610100900460ff16158015612758576000805461ffff19166101011790555b612760612984565b6127686129ee565b801561121b576000805461ff001916905550565b6000611ac2838330604051733d602d80600a3d3981f3363d3d373d3d3d363d7360601b8152606093841b60148201526f5af43d82803e903d91602b57fd5bf3ff60801b6028820152921b6038830152604c8201526037808220606c830152605591012090565b6040516001600160a01b0383166024820152604481018290526109b790849063a9059cbb60e01b906064016126ca565b6000604051733d602d80600a3d3981f3363d3d373d3d3d363d7360601b81528360601b60148201526e5af43d82803e903d91602b57fd5bf360881b6028820152826037826000f59150506001600160a01b03811661095f5760405162461bcd60e51b815260206004820152601760248201527f455243313136373a2063726561746532206661696c6564000000000000000000604482015260640161066a565b6000612907826040518060400160405280602081526020017f5361666545524332303a206c6f772d6c6576656c2063616c6c206661696c6564815250856001600160a01b0316612a9c9092919063ffffffff16565b8051909150156109b757808060200190518101906129259190612f40565b6109b75760405162461bcd60e51b815260206004820152602a60248201527f5361666545524332303a204552433230206f7065726174696f6e20646964206e6044820152691bdd081cdd58d8d9595960b21b606482015260840161066a565b600054610100900460ff168061299d575060005460ff16155b6129b95760405162461bcd60e51b815260040161066a90612fdb565b600054610100900460ff16158015612768576000805461ffff1916610101179055801561121b576000805461ff001916905550565b600054610100900460ff1680612a07575060005460ff16155b612a235760405162461bcd60e51b815260040161066a90612fdb565b600054610100900460ff16158015612a45576000805461ffff19166101011790555b603380546001600160a01b0319163390811790915560405181906000907f8be0079c531659141344cd1fd0a4f28419497f9722a3daafe3b4186f6b6457e0908290a350801561121b576000805461ff001916905550565b6060611179848460008585843b612af55760405162461bcd60e51b815260206004820152601d60248201527f416464726573733a2063616c6c20746f206e6f6e2d636f6e7472616374000000604482015260640161066a565b600080866001600160a01b03168587604051612b119190613170565b60006040518083038185875af1925050503d8060008114612b4e576040519150601f19603f3d011682016040523d82523d6000602084013e612b53565b606091505b5091509150612b63828286612b6e565b979650505050505050565b60608315612b7d575081611ac2565b825115612b8d5782518084602001fd5b8160405162461bcd60e51b815260040161066a919061318c565b611eb1806131a083390190565b600060208284031215612bc657600080fd5b5035919050565b6001600160a01b038116811461121b57600080fd5b600060208284031215612bf457600080fd5b8135611ac281612bcd565b801515811461121b57600080fd5b60008060408385031215612c2057600080fd5b8235612c2b81612bcd565b91506020830135612c3b81612bff565b809150509250929050565b60008060408385031215612c5957600080fd5b8235612c6481612bcd565b91506020830135612c3b81612bcd565b60008060408385031215612c8757600080fd5b823591506020830135612c3b81612bcd565b60008060408385031215612cac57600080fd5b50508035926020909101359150565b60008060008060808587031215612cd157600080fd5b843593506020850135612ce381612bcd565b93969395505050506040820135916060013590565b60008060208385031215612d0b57600080fd5b823567ffffffffffffffff80821115612d2357600080fd5b818501915085601f830112612d3757600080fd5b813581811115612d4657600080fd5b8660208260051b8501011115612d5b57600080fd5b60209290920196919550909350505050565b634e487b7160e01b600052604160045260246000fd5b600060408284031215612d9557600080fd5b6040516040810181811067ffffffffffffffff82111715612db857612db8612d6d565b6040528235612dc681612bcd565b81526020830135612dd681612bcd565b60208201529392505050565b60008060008060808587031215612df857600080fd5b84359350602085013592506040850135612e1181612bcd565b91506060850135612e2181612bcd565b939692955090935050565b6020808252818101527f4f776e61626c653a2063616c6c6572206973206e6f7420746865206f776e6572604082015260600190565b6020808252600a9082015269139bdd0818481c1bdbdb60b21b604082015260600190565b600060208284031215612e9757600080fd5b5051919050565b600060208284031215612eb057600080fd5b8151611ac281612bcd565b60008060408385031215612ece57600080fd5b8251612ed981612bcd565b6020939093015192949293505050565b634e487b7160e01b600052601160045260246000fd5b6000816000190483118215151615612f1957612f19612ee9565b500290565b600082612f3b57634e487b7160e01b600052601260045260246000fd5b500490565b600060208284031215612f5257600080fd5b8151611ac281612bff565b6020808252601b908201527f4c505374616b696e673a204e6f6e6578697374656e7420706f6f6c0000000000604082015260600190565b634e487b7160e01b600052603260045260246000fd5b600060018201612fbc57612fbc612ee9565b5060010190565b60008219821115612fd657612fd6612ee9565b500190565b6020808252602e908201527f496e697469616c697a61626c653a20636f6e747261637420697320616c72656160408201526d191e481a5b9a5d1a585b1a5e995960921b606082015260800190565b60008282101561303b5761303b612ee9565b500390565b60005b8381101561305b578181015183820152602001613043565b838111156108895750506000910152565b60006020828403121561307e57600080fd5b815167ffffffffffffffff8082111561309657600080fd5b818401915084601f8301126130aa57600080fd5b8151818111156130bc576130bc612d6d565b604051601f8201601f19908116603f011681019083821181831017156130e4576130e4612d6d565b816040528281528760208487010111156130fd57600080fd5b612b63836020830160208801613040565b60008151808452613126816020860160208601613040565b601f01601f19169290920160200192915050565b6001600160a01b038416815260606020820181905260009061315e9083018561310e565b8281036040840152611776818561310e565b60008251613182818460208701613040565b9190910192915050565b602081526000611ac2602083018461310e56fe608060405234801561001057600080fd5b50611e91806100206000396000f3fe608060405234801561001057600080fd5b50600436106101735760003560e01c806379cc6790116100de578063a9059cbb11610097578063c19ea05311610071578063c19ea05314610347578063d4b8399214610370578063dd62ed3e14610383578063f2fde38b146103bc57600080fd5b8063a9059cbb146102f8578063ad76d6861461030b578063b86e321c1461033457600080fd5b806379cc67901461027f5780638da5cb5b1461029257806391b89fba146102b757806395d89b41146102ca5780639f63df1f146102d2578063a457c2d7146102e557600080fd5b8063313ce56711610130578063313ce56714610206578063395093511461021557806340c10f191461022857806359974e381461023b57806370a082311461024e578063715018a61461027757600080fd5b806305b3ccb41461017857806306fdde031461019e578063095ea7b3146101b357806318160ddd146101d657806323b872dd146101de57806328bcc25e146101f1575b600080fd5b61018b6101863660046119a9565b6103cf565b6040519081526020015b60405180910390f35b6101a6610432565b60405161019591906119f2565b6101c66101c1366004611a25565b6104c4565b6040519015158152602001610195565b60675461018b565b6101c66101ec366004611a51565b6104da565b6102046101ff366004611a92565b61052a565b005b60405160128152602001610195565b6101c6610223366004611a25565b6105d7565b610204610236366004611a25565b61060e565b610204610249366004611ac7565b610646565b61018b61025c3660046119a9565b6001600160a01b031660009081526065602052604090205490565b61020461076e565b61020461028d366004611a25565b6107e2565b6033546001600160a01b03165b6040516001600160a01b039091168152602001610195565b61018b6102c53660046119a9565b610816565b6101a6610821565b6102046102e0366004611b83565b610830565b6101c66102f3366004611a25565b6108cb565b6101c6610306366004611a25565b61095c565b61018b6103193660046119a9565b6001600160a01b03166000908152609a602052604090205490565b6102046103423660046119a9565b610969565b61018b6103553660046119a9565b6001600160a01b03166000908152609b602052604090205490565b60975461029f906001600160a01b031681565b61018b610391366004611bf9565b6001600160a01b03918216600090815260666020908152604080832093909416825291909152205490565b6102046103ca3660046119a9565b610a3c565b6001600160a01b0381166000908152609960209081526040808320546065909252822054609854600160801b926104229261041d92610417916104129190610b27565b610b33565b90610b9d565b610bdb565b61042c9190611c48565b92915050565b60606068805461044190611c6a565b80601f016020809104026020016040519081016040528092919081815260200182805461046d90611c6a565b80156104ba5780601f1061048f576101008083540402835291602001916104ba565b820191906000526020600020905b81548152906001019060200180831161049d57829003601f168201915b5050505050905090565b60006104d1338484610bea565b50600192915050565b60006104e7848484610d0f565b61051f843361051a85604051806060016040528060288152602001611e34602891396105138a33610391565b9190610e00565b610bea565b5060015b9392505050565b6033546001600160a01b0316331461055d5760405162461bcd60e51b815260040161055490611ca4565b60405180910390fd5b60006105698242611cd9565b6001600160a01b0385166000818152609b60209081526040918290208490558151928352820186905281018290529091507fe1d6ea7b60537f263509ee48f8e298cc60801e7bddbec613b343272d897dc5e79060600160405180910390a16105d18484610e2c565b50505050565b3360008181526066602090815260408083206001600160a01b038716845290915281205490916104d191859061051a908690611cd9565b6033546001600160a01b031633146106385760405162461bcd60e51b815260040161055490611ca4565b6106428282610e2c565b5050565b6033546001600160a01b031633146106705760405162461bcd60e51b815260040161055490611ca4565b600061067b60675490565b116106bf5760405162461bcd60e51b8152602060048201526014602482015273526577617264446973743a203020737570706c7960601b6044820152606401610554565b600081116107065760405162461bcd60e51b815260206004820152601460248201527314995dd85c99111a5cdd0e880c08185b5bdd5b9d60621b6044820152606401610554565b61073361071260675490565b61072083600160801b610b27565b61072a9190611c48565b60985490610e90565b60985560405181815233907fdf29796aad820e4bb192f3a8d631b76519bcd2cbe77cc85af20e9df53cece0869060200160405180910390a250565b6033546001600160a01b031633146107985760405162461bcd60e51b815260040161055490611ca4565b6033546040516000916001600160a01b0316907f8be0079c531659141344cd1fd0a4f28419497f9722a3daafe3b4186f6b6457e0908390a3603380546001600160a01b0319169055565b6033546001600160a01b0316331461080c5760405162461bcd60e51b815260040161055490611ca4565b6106428282610e9c565b600061042c82610f35565b60606069805461044190611c6a565b600054610100900460ff1680610849575060005460ff16155b6108655760405162461bcd60e51b815260040161055490611cf1565b600054610100900460ff16158015610887576000805461ffff19166101011790555b61088f610f61565b6108998383610fdd565b609780546001600160a01b0319166001600160a01b03861617905580156105d1576000805461ff001916905550505050565b3360009081526066602090815260408083206001600160a01b03861684529091528120548281101561094d5760405162461bcd60e51b815260206004820152602560248201527f45524332303a2064656372656173656420616c6c6f77616e63652062656c6f77604482015264207a65726f60d81b6064820152608401610554565b61051f338561051a8685611d3f565b60006104d1338484610d0f565b6033546001600160a01b031633146109935760405162461bcd60e51b815260040161055490611ca4565b600061099e82610f35565b90508015610642576001600160a01b0382166000908152609a60205260409020546109c99082610e90565b6001600160a01b038084166000908152609a60205260409020919091556097546109f59116838361105d565b816001600160a01b03167f1d3eee4ca001cff39eec6ec7615aacf2f2bd61791273830728ba00ccbd6e133782604051610a3091815260200190565b60405180910390a25050565b6033546001600160a01b03163314610a665760405162461bcd60e51b815260040161055490611ca4565b6001600160a01b038116610acb5760405162461bcd60e51b815260206004820152602660248201527f4f776e61626c653a206e6577206f776e657220697320746865207a65726f206160448201526564647265737360d01b6064820152608401610554565b6033546040516001600160a01b038084169216907f8be0079c531659141344cd1fd0a4f28419497f9722a3daafe3b4186f6b6457e090600090a3603380546001600160a01b0319166001600160a01b0392909216919091179055565b60006105238284611d56565b6000600160ff1b8210610b995760405162461bcd60e51b815260206004820152602860248201527f53616665436173743a2076616c756520646f65736e27742066697420696e2061604482015267371034b73a191a9b60c11b6064820152608401610554565b5090565b600080610baa8385611d75565b905060008312158015610bbd5750838112155b80610bd25750600083128015610bd257508381125b61052357600080fd5b600080821215610b9957600080fd5b6001600160a01b038316610c4c5760405162461bcd60e51b8152602060048201526024808201527f45524332303a20617070726f76652066726f6d20746865207a65726f206164646044820152637265737360e01b6064820152608401610554565b6001600160a01b038216610cad5760405162461bcd60e51b815260206004820152602260248201527f45524332303a20617070726f766520746f20746865207a65726f206164647265604482015261737360f01b6064820152608401610554565b6001600160a01b0383811660008181526066602090815260408083209487168084529482529182902085905590518481527f8c5be1e5ebec7d5bd14f71427d1e84f3dd0314c0f7b2291e5b200ac8c7c3b92591015b60405180910390a3505050565b6001600160a01b0383166000908152609b60205260409020544211610d645760405162461bcd60e51b815260206004820152600b60248201526a155cd95c881b1bd8dad95960aa1b6044820152606401610554565b610d6f8383836110af565b6000610d8961041283609854610b2790919063ffffffff16565b6001600160a01b038516600090815260996020526040902054909150610daf9082610b9d565b6001600160a01b038086166000908152609960205260408082209390935590851681522054610dde9082611287565b6001600160a01b03909316600090815260996020526040902092909255505050565b60008184841115610e245760405162461bcd60e51b815260040161055491906119f2565b505050900390565b610e3682826112d3565b610e70610e5161041283609854610b2790919063ffffffff16565b6001600160a01b03841660009081526099602052604090205490611287565b6001600160a01b0390921660009081526099602052604090209190915550565b60006105238284611cd9565b6001600160a01b0382166000908152609b60205260409020544211610ef15760405162461bcd60e51b815260206004820152600b60248201526a155cd95c881b1bd8dad95960aa1b6044820152606401610554565b610efb82826113b2565b610e70610f1661041283609854610b2790919063ffffffff16565b6001600160a01b03841660009081526099602052604090205490610b9d565b6001600160a01b0381166000908152609a602052604081205461042c90610f5b846103cf565b90611501565b600054610100900460ff1680610f7a575060005460ff16155b610f965760405162461bcd60e51b815260040161055490611cf1565b600054610100900460ff16158015610fb8576000805461ffff19166101011790555b610fc061150d565b610fc8611577565b8015610fda576000805461ff00191690555b50565b600054610100900460ff1680610ff6575060005460ff16155b6110125760405162461bcd60e51b815260040161055490611cf1565b600054610100900460ff16158015611034576000805461ffff19166101011790555b61103c61150d565b6110468383611625565b8015611058576000805461ff00191690555b505050565b604080516001600160a01b038416602482015260448082018490528251808303909101815260649091019091526020810180516001600160e01b031663a9059cbb60e01b1790526110589084906116ba565b6001600160a01b0383166111135760405162461bcd60e51b815260206004820152602560248201527f45524332303a207472616e736665722066726f6d20746865207a65726f206164604482015264647265737360d81b6064820152608401610554565b6001600160a01b0382166111755760405162461bcd60e51b815260206004820152602360248201527f45524332303a207472616e7366657220746f20746865207a65726f206164647260448201526265737360e81b6064820152608401610554565b6001600160a01b038316600090815260656020526040902054818110156111ed5760405162461bcd60e51b815260206004820152602660248201527f45524332303a207472616e7366657220616d6f756e7420657863656564732062604482015265616c616e636560d01b6064820152608401610554565b6111f78282611d3f565b6001600160a01b03808616600090815260656020526040808220939093559085168152908120805484929061122d908490611cd9565b92505081905550826001600160a01b0316846001600160a01b03167fddf252ad1be2c89b69c2b068fc378daa952ba7f163c4a11628f55a4df523b3ef8460405161127991815260200190565b60405180910390a350505050565b60008082121580156112a257508261129f8382611db6565b13155b806112c057506000821280156112c05750826112be8382611db6565b135b6112c957600080fd5b6105238284611db6565b6001600160a01b0382166113295760405162461bcd60e51b815260206004820152601f60248201527f45524332303a206d696e7420746f20746865207a65726f2061646472657373006044820152606401610554565b806067600082825461133b9190611cd9565b90915550506001600160a01b03821660009081526065602052604081208054839290611368908490611cd9565b90915550506040518181526001600160a01b038316906000907fddf252ad1be2c89b69c2b068fc378daa952ba7f163c4a11628f55a4df523b3ef9060200160405180910390a35050565b6001600160a01b0382166114125760405162461bcd60e51b815260206004820152602160248201527f45524332303a206275726e2066726f6d20746865207a65726f206164647265736044820152607360f81b6064820152608401610554565b6001600160a01b038216600090815260656020526040902054818110156114865760405162461bcd60e51b815260206004820152602260248201527f45524332303a206275726e20616d6f756e7420657863656564732062616c616e604482015261636560f01b6064820152608401610554565b6114908282611d3f565b6001600160a01b038416600090815260656020526040812091909155606780548492906114be908490611d3f565b90915550506040518281526000906001600160a01b038516907fddf252ad1be2c89b69c2b068fc378daa952ba7f163c4a11628f55a4df523b3ef90602001610d02565b60006105238284611d3f565b600054610100900460ff1680611526575060005460ff16155b6115425760405162461bcd60e51b815260040161055490611cf1565b600054610100900460ff16158015610fc8576000805461ffff19166101011790558015610fda576000805461ff001916905550565b600054610100900460ff1680611590575060005460ff16155b6115ac5760405162461bcd60e51b815260040161055490611cf1565b600054610100900460ff161580156115ce576000805461ffff19166101011790555b603380546001600160a01b0319163390811790915560405181906000907f8be0079c531659141344cd1fd0a4f28419497f9722a3daafe3b4186f6b6457e0908290a3508015610fda576000805461ff001916905550565b600054610100900460ff168061163e575060005460ff16155b61165a5760405162461bcd60e51b815260040161055490611cf1565b600054610100900460ff1615801561167c576000805461ffff19166101011790555b825161168f906068906020860190611904565b5081516116a3906069906020850190611904565b508015611058576000805461ff0019169055505050565b600061170f826040518060400160405280602081526020017f5361666545524332303a206c6f772d6c6576656c2063616c6c206661696c6564815250856001600160a01b031661178c9092919063ffffffff16565b805190915015611058578080602001905181019061172d9190611df5565b6110585760405162461bcd60e51b815260206004820152602a60248201527f5361666545524332303a204552433230206f7065726174696f6e20646964206e6044820152691bdd081cdd58d8d9595960b21b6064820152608401610554565b606061179b84846000856117a3565b949350505050565b6060824710156118045760405162461bcd60e51b815260206004820152602660248201527f416464726573733a20696e73756666696369656e742062616c616e636520666f6044820152651c8818d85b1b60d21b6064820152608401610554565b843b6118525760405162461bcd60e51b815260206004820152601d60248201527f416464726573733a2063616c6c20746f206e6f6e2d636f6e74726163740000006044820152606401610554565b600080866001600160a01b0316858760405161186e9190611e17565b60006040518083038185875af1925050503d80600081146118ab576040519150601f19603f3d011682016040523d82523d6000602084013e6118b0565b606091505b50915091506118c08282866118cb565b979650505050505050565b606083156118da575081610523565b8251156118ea5782518084602001fd5b8160405162461bcd60e51b815260040161055491906119f2565b82805461191090611c6a565b90600052602060002090601f0160209004810192826119325760008555611978565b82601f1061194b57805160ff1916838001178555611978565b82800160010185558215611978579182015b8281111561197857825182559160200191906001019061195d565b50610b999291505b80821115610b995760008155600101611980565b6001600160a01b0381168114610fda57600080fd5b6000602082840312156119bb57600080fd5b813561052381611994565b60005b838110156119e15781810151838201526020016119c9565b838111156105d15750506000910152565b6020815260008251806020840152611a118160408501602087016119c6565b601f01601f19169190910160400192915050565b60008060408385031215611a3857600080fd5b8235611a4381611994565b946020939093013593505050565b600080600060608486031215611a6657600080fd5b8335611a7181611994565b92506020840135611a8181611994565b929592945050506040919091013590565b600080600060608486031215611aa757600080fd5b8335611ab281611994565b95602085013595506040909401359392505050565b600060208284031215611ad957600080fd5b5035919050565b634e487b7160e01b600052604160045260246000fd5b600082601f830112611b0757600080fd5b813567ffffffffffffffff80821115611b2257611b22611ae0565b604051601f8301601f19908116603f01168101908282118183101715611b4a57611b4a611ae0565b81604052838152866020858801011115611b6357600080fd5b836020870160208301376000602085830101528094505050505092915050565b600080600060608486031215611b9857600080fd5b8335611ba381611994565b9250602084013567ffffffffffffffff80821115611bc057600080fd5b611bcc87838801611af6565b93506040860135915080821115611be257600080fd5b50611bef86828701611af6565b9150509250925092565b60008060408385031215611c0c57600080fd5b8235611c1781611994565b91506020830135611c2781611994565b809150509250929050565b634e487b7160e01b600052601160045260246000fd5b600082611c6557634e487b7160e01b600052601260045260246000fd5b500490565b600181811c90821680611c7e57607f821691505b602082108103611c9e57634e487b7160e01b600052602260045260246000fd5b50919050565b6020808252818101527f4f776e61626c653a2063616c6c6572206973206e6f7420746865206f776e6572604082015260600190565b60008219821115611cec57611cec611c32565b500190565b6020808252602e908201527f496e697469616c697a61626c653a20636f6e747261637420697320616c72656160408201526d191e481a5b9a5d1a585b1a5e995960921b606082015260800190565b600082821015611d5157611d51611c32565b500390565b6000816000190483118215151615611d7057611d70611c32565b500290565b600080821280156001600160ff1b0384900385131615611d9757611d97611c32565b600160ff1b8390038412811615611db057611db0611c32565b50500190565b60008083128015600160ff1b850184121615611dd457611dd4611c32565b6001600160ff1b0384018313811615611def57611def611c32565b50500390565b600060208284031215611e0757600080fd5b8151801515811461052357600080fd5b60008251611e298184602087016119c6565b919091019291505056fe45524332303a207472616e7366657220616d6f756e74206578636565647320616c6c6f77616e6365a26469706673582212208e6da87de22f3dd1f2b266ff2b7105ae2b6b3ee86ce48657a57c83d63e4a894664736f6c634300080d0033a2646970667358221220ba68e52fc2f3d8e5ce13aac6f17bb5c791e06a6c9a4ca8f94f0e88571cba966164736f6c634300080d0033",
  "linkReferences": {},
  "deployedLinkReferences": {}
}