{
  "_format": "hh-sol-artifact-1",
  "contractName": "TestVaultUpgrade",
  "sourceName": "contracts/solidity/testing/TestVaultUpgrade.sol",
  "abi": [
    {
      "anonymous": false,
      "inputs": [
        {
          "indexed": true,
          "internalType": "address",
          "name": "owner",
          "type": "address"
        },
        {
          "indexed": true,
          "internalType": "address",
          "name": "spender",
          "type": "address"
        },
        {
          "indexed": false,
          "internalType": "uint256",
          "name": "value",
          "type": "uint256"
        }
      ],
      "name": "Approval",
      "type": "event"
    },
    {
      "anonymous": false,
      "inputs": [
        {
          "indexed": false,
          "internalType": "uint256",
          "name": "moduleIndex",
          "type": "uint256"
        },
        {
          "indexed": false,
          "internalType": "address",
          "name": "eligibilityAddr",
          "type": "address"
        }
      ],
      "name": "EligibilityDeployed",
      "type": "event"
    },
    {
      "anonymous": false,
      "inputs": [
        {
          "indexed": false,
          "internalType": "bool",
          "name": "enabled",
          "type": "bool"
        }
      ],
      "name": "EnableMintUpdated",
      "type": "event"
    },
    {
      "anonymous": false,
      "inputs": [
        {
          "indexed": false,
          "internalType": "bool",
          "name": "enabled",
          "type": "bool"
        }
      ],
      "name": "EnableRandomRedeemUpdated",
      "type": "event"
    },
    {
      "anonymous": false,
      "inputs": [
        {
          "indexed": false,
          "internalType": "bool",
          "name": "enabled",
          "type": "bool"
        }
      ],
      "name": "EnableRandomSwapUpdated",
      "type": "event"
    },
    {
      "anonymous": false,
      "inputs": [
        {
          "indexed": false,
          "internalType": "bool",
          "name": "enabled",
          "type": "bool"
        }
      ],
      "name": "EnableTargetRedeemUpdated",
      "type": "event"
    },
    {
      "anonymous": false,
      "inputs": [
        {
          "indexed": false,
          "internalType": "bool",
          "name": "enabled",
          "type": "bool"
        }
      ],
      "name": "EnableTargetSwapUpdated",
      "type": "event"
    },
    {
      "anonymous": false,
      "inputs": [
        {
          "indexed": false,
          "internalType": "address",
          "name": "user",
          "type": "address"
        },
        {
          "indexed": false,
          "internalType": "uint256",
          "name": "amount",
          "type": "uint256"
        },
        {
          "indexed": false,
          "internalType": "uint256",
          "name": "actionType",
          "type": "uint256"
        }
      ],
      "name": "FeeSentToDistributor",
      "type": "event"
    },
    {
      "anonymous": false,
      "inputs": [
        {
          "indexed": false,
          "internalType": "address",
          "name": "manager",
          "type": "address"
        }
      ],
      "name": "ManagerSet",
      "type": "event"
    },
    {
      "anonymous": false,
      "inputs": [
        {
          "indexed": false,
          "internalType": "string",
          "name": "oldName",
          "type": "string"
        },
        {
          "indexed": false,
          "internalType": "string",
          "name": "oldSymbol",
          "type": "string"
        },
        {
          "indexed": false,
          "internalType": "string",
          "name": "newName",
          "type": "string"
        },
        {
          "indexed": false,
          "internalType": "string",
          "name": "newSymbol",
          "type": "string"
        }
      ],
      "name": "MetaDataChange",
      "type": "event"
    },
    {
      "anonymous": false,
      "inputs": [
        {
          "indexed": false,
          "internalType": "uint256[]",
          "name": "nftIds",
          "type": "uint256[]"
        },
        {
          "indexed": false,
          "internalType": "uint256[]",
          "name": "amounts",
          "type": "uint256[]"
        },
        {
          "indexed": false,
          "internalType": "address",
          "name": "to",
          "type": "address"
        }
      ],
      "name": "Minted",
      "type": "event"
    },
    {
      "anonymous": false,
      "inputs": [
        {
          "indexed": true,
          "internalType": "address",
          "name": "previousOwner",
          "type": "address"
        },
        {
          "indexed": true,
          "internalType": "address",
          "name": "newOwner",
          "type": "address"
        }
      ],
      "name": "OwnershipTransferred",
      "type": "event"
    },
    {
      "anonymous": false,
      "inputs": [
        {
          "indexed": false,
          "internalType": "uint256[]",
          "name": "nftIds",
          "type": "uint256[]"
        },
        {
          "indexed": false,
          "internalType": "uint256[]",
          "name": "specificIds",
          "type": "uint256[]"
        },
        {
          "indexed": false,
          "internalType": "address",
          "name": "to",
          "type": "address"
        }
      ],
      "name": "Redeemed",
      "type": "event"
    },
    {
      "anonymous": false,
      "inputs": [
        {
          "indexed": false,
          "internalType": "uint256[]",
          "name": "nftIds",
          "type": "uint256[]"
        },
        {
          "indexed": false,
          "internalType": "uint256[]",
          "name": "amounts",
          "type": "uint256[]"
        },
        {
          "indexed": false,
          "internalType": "uint256[]",
          "name": "specificIds",
          "type": "uint256[]"
        },
        {
          "indexed": false,
          "internalType": "uint256[]",
          "name": "redeemedIds",
          "type": "uint256[]"
        },
        {
          "indexed": false,
          "internalType": "address",
          "name": "to",
          "type": "address"
        }
      ],
      "name": "Swapped",
      "type": "event"
    },
    {
      "anonymous": false,
      "inputs": [
        {
          "indexed": true,
          "internalType": "address",
          "name": "from",
          "type": "address"
        },
        {
          "indexed": true,
          "internalType": "address",
          "name": "to",
          "type": "address"
        },
        {
          "indexed": false,
          "internalType": "uint256",
          "name": "value",
          "type": "uint256"
        }
      ],
      "name": "Transfer",
      "type": "event"
    },
    {
      "anonymous": false,
      "inputs": [
        {
          "indexed": true,
          "internalType": "uint256",
          "name": "vaultId",
          "type": "uint256"
        },
        {
          "indexed": false,
          "internalType": "address",
          "name": "assetAddress",
          "type": "address"
        },
        {
          "indexed": false,
          "internalType": "bool",
          "name": "is1155",
          "type": "bool"
        },
        {
          "indexed": false,
          "internalType": "bool",
          "name": "allowAllItems",
          "type": "bool"
        }
      ],
      "name": "VaultInit",
      "type": "event"
    },
    {
      "anonymous": false,
      "inputs": [
        {
          "indexed": false,
          "internalType": "address",
          "name": "assetAddress",
          "type": "address"
        },
        {
          "indexed": false,
          "internalType": "uint256",
          "name": "numItems",
          "type": "uint256"
        },
        {
          "indexed": false,
          "internalType": "address",
          "name": "recipient",
          "type": "address"
        }
      ],
      "name": "VaultShutdown",
      "type": "event"
    },
    {
      "inputs": [
        {
          "internalType": "string",
          "name": "_name",
          "type": "string"
        },
        {
          "internalType": "string",
          "name": "_symbol",
          "type": "string"
        },
        {
          "internalType": "address",
          "name": "_assetAddress",
          "type": "address"
        },
        {
          "internalType": "bool",
          "name": "_is1155",
          "type": "bool"
        },
        {
          "internalType": "bool",
          "name": "_allowAllItems",
          "type": "bool"
        }
      ],
      "name": "__NFTXVault_init",
      "outputs": [],
      "stateMutability": "nonpayable",
      "type": "function"
    },
    {
      "inputs": [],
      "name": "allHoldings",
      "outputs": [
        {
          "internalType": "uint256[]",
          "name": "",
          "type": "uint256[]"
        }
      ],
      "stateMutability": "view",
      "type": "function"
    },
    {
      "inputs": [
        {
          "internalType": "uint256[]",
          "name": "tokenIds",
          "type": "uint256[]"
        }
      ],
      "name": "allValidNFTs",
      "outputs": [
        {
          "internalType": "bool",
          "name": "",
          "type": "bool"
        }
      ],
      "stateMutability": "view",
      "type": "function"
    },
    {
      "inputs": [],
      "name": "allowAllItems",
      "outputs": [
        {
          "internalType": "bool",
          "name": "",
          "type": "bool"
        }
      ],
      "stateMutability": "view",
      "type": "function"
    },
    {
      "inputs": [
        {
          "internalType": "address",
          "name": "owner",
          "type": "address"
        },
        {
          "internalType": "address",
          "name": "spender",
          "type": "address"
        }
      ],
      "name": "allowance",
      "outputs": [
        {
          "internalType": "uint256",
          "name": "",
          "type": "uint256"
        }
      ],
      "stateMutability": "view",
      "type": "function"
    },
    {
      "inputs": [
        {
          "internalType": "address",
          "name": "spender",
          "type": "address"
        },
        {
          "internalType": "uint256",
          "name": "amount",
          "type": "uint256"
        }
      ],
      "name": "approve",
      "outputs": [
        {
          "internalType": "bool",
          "name": "",
          "type": "bool"
        }
      ],
      "stateMutability": "nonpayable",
      "type": "function"
    },
    {
      "inputs": [],
      "name": "assetAddress",
      "outputs": [
        {
          "internalType": "address",
          "name": "",
          "type": "address"
        }
      ],
      "stateMutability": "view",
      "type": "function"
    },
    {
      "inputs": [
        {
          "internalType": "address",
          "name": "account",
          "type": "address"
        }
      ],
      "name": "balanceOf",
      "outputs": [
        {
          "internalType": "uint256",
          "name": "",
          "type": "uint256"
        }
      ],
      "stateMutability": "view",
      "type": "function"
    },
    {
      "inputs": [],
      "name": "decimals",
      "outputs": [
        {
          "internalType": "uint8",
          "name": "",
          "type": "uint8"
        }
      ],
      "stateMutability": "view",
      "type": "function"
    },
    {
      "inputs": [
        {
          "internalType": "address",
          "name": "spender",
          "type": "address"
        },
        {
          "internalType": "uint256",
          "name": "subtractedValue",
          "type": "uint256"
        }
      ],
      "name": "decreaseAllowance",
      "outputs": [
        {
          "internalType": "bool",
          "name": "",
          "type": "bool"
        }
      ],
      "stateMutability": "nonpayable",
      "type": "function"
    },
    {
      "inputs": [
        {
          "internalType": "uint256",
          "name": "moduleIndex",
          "type": "uint256"
        },
        {
          "internalType": "bytes",
          "name": "initData",
          "type": "bytes"
        }
      ],
      "name": "deployEligibilityStorage",
      "outputs": [
        {
          "internalType": "address",
          "name": "",
          "type": "address"
        }
      ],
      "stateMutability": "nonpayable",
      "type": "function"
    },
    {
      "inputs": [],
      "name": "disableVaultFees",
      "outputs": [],
      "stateMutability": "nonpayable",
      "type": "function"
    },
    {
      "inputs": [],
      "name": "eligibilityStorage",
      "outputs": [
        {
          "internalType": "contract INFTXEligibility",
          "name": "",
          "type": "address"
        }
      ],
      "stateMutability": "view",
      "type": "function"
    },
    {
      "inputs": [],
      "name": "enableMint",
      "outputs": [
        {
          "internalType": "bool",
          "name": "",
          "type": "bool"
        }
      ],
      "stateMutability": "view",
      "type": "function"
    },
    {
      "inputs": [],
      "name": "enableRandomRedeem",
      "outputs": [
        {
          "internalType": "bool",
          "name": "",
          "type": "bool"
        }
      ],
      "stateMutability": "view",
      "type": "function"
    },
    {
      "inputs": [],
      "name": "enableRandomSwap",
      "outputs": [
        {
          "internalType": "bool",
          "name": "",
          "type": "bool"
        }
      ],
      "stateMutability": "view",
      "type": "function"
    },
    {
      "inputs": [],
      "name": "enableTargetRedeem",
      "outputs": [
        {
          "internalType": "bool",
          "name": "",
          "type": "bool"
        }
      ],
      "stateMutability": "view",
      "type": "function"
    },
    {
      "inputs": [],
      "name": "enableTargetSwap",
      "outputs": [
        {
          "internalType": "bool",
          "name": "",
          "type": "bool"
        }
      ],
      "stateMutability": "view",
      "type": "function"
    },
    {
      "inputs": [],
      "name": "finalizeVault",
      "outputs": [],
      "stateMutability": "nonpayable",
      "type": "function"
    },
    {
      "inputs": [
        {
          "internalType": "address",
          "name": "token",
          "type": "address"
        },
        {
          "internalType": "uint256",
          "name": "amount",
          "type": "uint256"
        }
      ],
      "name": "flashFee",
      "outputs": [
        {
          "internalType": "uint256",
          "name": "",
          "type": "uint256"
        }
      ],
      "stateMutability": "view",
      "type": "function"
    },
    {
      "inputs": [
        {
          "internalType": "contract IERC3156FlashBorrowerUpgradeable",
          "name": "receiver",
          "type": "address"
        },
        {
          "internalType": "address",
          "name": "token",
          "type": "address"
        },
        {
          "internalType": "uint256",
          "name": "amount",
          "type": "uint256"
        },
        {
          "internalType": "bytes",
          "name": "data",
          "type": "bytes"
        }
      ],
      "name": "flashLoan",
      "outputs": [
        {
          "internalType": "bool",
          "name": "",
          "type": "bool"
        }
      ],
      "stateMutability": "nonpayable",
      "type": "function"
    },
    {
      "inputs": [
        {
          "internalType": "address",
          "name": "spender",
          "type": "address"
        },
        {
          "internalType": "uint256",
          "name": "addedValue",
          "type": "uint256"
        }
      ],
      "name": "increaseAllowance",
      "outputs": [
        {
          "internalType": "bool",
          "name": "",
          "type": "bool"
        }
      ],
      "stateMutability": "nonpayable",
      "type": "function"
    },
    {
      "inputs": [],
      "name": "is1155",
      "outputs": [
        {
          "internalType": "bool",
          "name": "",
          "type": "bool"
        }
      ],
      "stateMutability": "view",
      "type": "function"
    },
    {
      "inputs": [],
      "name": "isUpgraded",
      "outputs": [
        {
          "internalType": "bool",
          "name": "",
          "type": "bool"
        }
      ],
      "stateMutability": "pure",
      "type": "function"
    },
    {
      "inputs": [],
      "name": "manager",
      "outputs": [
        {
          "internalType": "address",
          "name": "",
          "type": "address"
        }
      ],
      "stateMutability": "view",
      "type": "function"
    },
    {
      "inputs": [
        {
          "internalType": "address",
          "name": "token",
          "type": "address"
        }
      ],
      "name": "maxFlashLoan",
      "outputs": [
        {
          "internalType": "uint256",
          "name": "",
          "type": "uint256"
        }
      ],
      "stateMutability": "view",
      "type": "function"
    },
    {
      "inputs": [
        {
          "internalType": "uint256[]",
          "name": "tokenIds",
          "type": "uint256[]"
        },
        {
          "internalType": "uint256[]",
          "name": "amounts",
          "type": "uint256[]"
        }
      ],
      "name": "mint",
      "outputs": [
        {
          "internalType": "uint256",
          "name": "",
          "type": "uint256"
        }
      ],
      "stateMutability": "nonpayable",
      "type": "function"
    },
    {
      "inputs": [],
      "name": "mintFee",
      "outputs": [
        {
          "internalType": "uint256",
          "name": "",
          "type": "uint256"
        }
      ],
      "stateMutability": "view",
      "type": "function"
    },
    {
      "inputs": [
        {
          "internalType": "uint256[]",
          "name": "tokenIds",
          "type": "uint256[]"
        },
        {
          "internalType": "uint256[]",
          "name": "amounts",
          "type": "uint256[]"
        },
        {
          "internalType": "address",
          "name": "to",
          "type": "address"
        }
      ],
      "name": "mintTo",
      "outputs": [
        {
          "internalType": "uint256",
          "name": "",
          "type": "uint256"
        }
      ],
      "stateMutability": "nonpayable",
      "type": "function"
    },
    {
      "inputs": [],
      "name": "name",
      "outputs": [
        {
          "internalType": "string",
          "name": "",
          "type": "string"
        }
      ],
      "stateMutability": "view",
      "type": "function"
    },
    {
      "inputs": [
        {
          "internalType": "uint256",
          "name": "holdingsIndex",
          "type": "uint256"
        }
      ],
      "name": "nftIdAt",
      "outputs": [
        {
          "internalType": "uint256",
          "name": "",
          "type": "uint256"
        }
      ],
      "stateMutability": "view",
      "type": "function"
    },
    {
      "inputs": [
        {
          "internalType": "address",
          "name": "operator",
          "type": "address"
        },
        {
          "internalType": "address",
          "name": "",
          "type": "address"
        },
        {
          "internalType": "uint256[]",
          "name": "",
          "type": "uint256[]"
        },
        {
          "internalType": "uint256[]",
          "name": "",
          "type": "uint256[]"
        },
        {
          "internalType": "bytes",
          "name": "",
          "type": "bytes"
        }
      ],
      "name": "onERC1155BatchReceived",
      "outputs": [
        {
          "internalType": "bytes4",
          "name": "",
          "type": "bytes4"
        }
      ],
      "stateMutability": "nonpayable",
      "type": "function"
    },
    {
      "inputs": [
        {
          "internalType": "address",
          "name": "operator",
          "type": "address"
        },
        {
          "internalType": "address",
          "name": "",
          "type": "address"
        },
        {
          "internalType": "uint256",
          "name": "",
          "type": "uint256"
        },
        {
          "internalType": "uint256",
          "name": "",
          "type": "uint256"
        },
        {
          "internalType": "bytes",
          "name": "",
          "type": "bytes"
        }
      ],
      "name": "onERC1155Received",
      "outputs": [
        {
          "internalType": "bytes4",
          "name": "",
          "type": "bytes4"
        }
      ],
      "stateMutability": "nonpayable",
      "type": "function"
    },
    {
      "inputs": [
        {
          "internalType": "address",
          "name": "operator",
          "type": "address"
        },
        {
          "internalType": "address",
          "name": "",
          "type": "address"
        },
        {
          "internalType": "uint256",
          "name": "",
          "type": "uint256"
        },
        {
          "internalType": "bytes",
          "name": "",
          "type": "bytes"
        }
      ],
      "name": "onERC721Received",
      "outputs": [
        {
          "internalType": "bytes4",
          "name": "",
          "type": "bytes4"
        }
      ],
      "stateMutability": "nonpayable",
      "type": "function"
    },
    {
      "inputs": [],
      "name": "owner",
      "outputs": [
        {
          "internalType": "address",
          "name": "",
          "type": "address"
        }
      ],
      "stateMutability": "view",
      "type": "function"
    },
    {
      "inputs": [],
      "name": "randomRedeemFee",
      "outputs": [
        {
          "internalType": "uint256",
          "name": "",
          "type": "uint256"
        }
      ],
      "stateMutability": "view",
      "type": "function"
    },
    {
      "inputs": [],
      "name": "randomSwapFee",
      "outputs": [
        {
          "internalType": "uint256",
          "name": "",
          "type": "uint256"
        }
      ],
      "stateMutability": "view",
      "type": "function"
    },
    {
      "inputs": [
        {
          "internalType": "uint256",
          "name": "amount",
          "type": "uint256"
        },
        {
          "internalType": "uint256[]",
          "name": "specificIds",
          "type": "uint256[]"
        }
      ],
      "name": "redeem",
      "outputs": [
        {
          "internalType": "uint256[]",
          "name": "",
          "type": "uint256[]"
        }
      ],
      "stateMutability": "nonpayable",
      "type": "function"
    },
    {
      "inputs": [
        {
          "internalType": "uint256",
          "name": "amount",
          "type": "uint256"
        },
        {
          "internalType": "uint256[]",
          "name": "specificIds",
          "type": "uint256[]"
        },
        {
          "internalType": "address",
          "name": "to",
          "type": "address"
        }
      ],
      "name": "redeemTo",
      "outputs": [
        {
          "internalType": "uint256[]",
          "name": "",
          "type": "uint256[]"
        }
      ],
      "stateMutability": "nonpayable",
      "type": "function"
    },
    {
      "inputs": [],
      "name": "renounceOwnership",
      "outputs": [],
      "stateMutability": "nonpayable",
      "type": "function"
    },
    {
      "inputs": [
        {
          "internalType": "uint256",
          "name": "amount",
          "type": "uint256"
        },
        {
          "internalType": "address",
          "name": "from",
          "type": "address"
        },
        {
          "internalType": "address",
          "name": "to",
          "type": "address"
        }
      ],
      "name": "retrieveTokens",
      "outputs": [],
      "stateMutability": "nonpayable",
      "type": "function"
    },
    {
      "inputs": [
        {
          "internalType": "uint256",
          "name": "_mintFee",
          "type": "uint256"
        },
        {
          "internalType": "uint256",
          "name": "_randomRedeemFee",
          "type": "uint256"
        },
        {
          "internalType": "uint256",
          "name": "_targetRedeemFee",
          "type": "uint256"
        },
        {
          "internalType": "uint256",
          "name": "_randomSwapFee",
          "type": "uint256"
        },
        {
          "internalType": "uint256",
          "name": "_targetSwapFee",
          "type": "uint256"
        }
      ],
      "name": "setFees",
      "outputs": [],
      "stateMutability": "nonpayable",
      "type": "function"
    },
    {
      "inputs": [
        {
          "internalType": "address",
          "name": "_manager",
          "type": "address"
        }
      ],
      "name": "setManager",
      "outputs": [],
      "stateMutability": "nonpayable",
      "type": "function"
    },
    {
      "inputs": [
        {
          "internalType": "bool",
          "name": "_enableMint",
          "type": "bool"
        },
        {
          "internalType": "bool",
          "name": "_enableRandomRedeem",
          "type": "bool"
        },
        {
          "internalType": "bool",
          "name": "_enableTargetRedeem",
          "type": "bool"
        },
        {
          "internalType": "bool",
          "name": "_enableRandomSwap",
          "type": "bool"
        },
        {
          "internalType": "bool",
          "name": "_enableTargetSwap",
          "type": "bool"
        }
      ],
      "name": "setVaultFeatures",
      "outputs": [],
      "stateMutability": "nonpayable",
      "type": "function"
    },
    {
      "inputs": [
        {
          "internalType": "string",
          "name": "name_",
          "type": "string"
        },
        {
          "internalType": "string",
          "name": "symbol_",
          "type": "string"
        }
      ],
      "name": "setVaultMetadata",
      "outputs": [],
      "stateMutability": "nonpayable",
      "type": "function"
    },
    {
      "inputs": [
        {
          "internalType": "address",
          "name": "recipient",
          "type": "address"
        }
      ],
      "name": "shutdown",
      "outputs": [],
      "stateMutability": "nonpayable",
      "type": "function"
    },
    {
      "inputs": [
        {
          "internalType": "bytes4",
          "name": "interfaceId",
          "type": "bytes4"
        }
      ],
      "name": "supportsInterface",
      "outputs": [
        {
          "internalType": "bool",
          "name": "",
          "type": "bool"
        }
      ],
      "stateMutability": "view",
      "type": "function"
    },
    {
      "inputs": [
        {
          "internalType": "uint256[]",
          "name": "tokenIds",
          "type": "uint256[]"
        },
        {
          "internalType": "uint256[]",
          "name": "amounts",
          "type": "uint256[]"
        },
        {
          "internalType": "uint256[]",
          "name": "specificIds",
          "type": "uint256[]"
        }
      ],
      "name": "swap",
      "outputs": [
        {
          "internalType": "uint256[]",
          "name": "",
          "type": "uint256[]"
        }
      ],
      "stateMutability": "nonpayable",
      "type": "function"
    },
    {
      "inputs": [
        {
          "internalType": "uint256[]",
          "name": "tokenIds",
          "type": "uint256[]"
        },
        {
          "internalType": "uint256[]",
          "name": "amounts",
          "type": "uint256[]"
        },
        {
          "internalType": "uint256[]",
          "name": "specificIds",
          "type": "uint256[]"
        },
        {
          "internalType": "address",
          "name": "to",
          "type": "address"
        }
      ],
      "name": "swapTo",
      "outputs": [
        {
          "internalType": "uint256[]",
          "name": "",
          "type": "uint256[]"
        }
      ],
      "stateMutability": "nonpayable",
      "type": "function"
    },
    {
      "inputs": [],
      "name": "symbol",
      "outputs": [
        {
          "internalType": "string",
          "name": "",
          "type": "string"
        }
      ],
      "stateMutability": "view",
      "type": "function"
    },
    {
      "inputs": [],
      "name": "targetRedeemFee",
      "outputs": [
        {
          "internalType": "uint256",
          "name": "",
          "type": "uint256"
        }
      ],
      "stateMutability": "view",
      "type": "function"
    },
    {
      "inputs": [],
      "name": "targetSwapFee",
      "outputs": [
        {
          "internalType": "uint256",
          "name": "",
          "type": "uint256"
        }
      ],
      "stateMutability": "view",
      "type": "function"
    },
    {
      "inputs": [],
      "name": "totalHoldings",
      "outputs": [
        {
          "internalType": "uint256",
          "name": "",
          "type": "uint256"
        }
      ],
      "stateMutability": "view",
      "type": "function"
    },
    {
      "inputs": [],
      "name": "totalSupply",
      "outputs": [
        {
          "internalType": "uint256",
          "name": "",
          "type": "uint256"
        }
      ],
      "stateMutability": "view",
      "type": "function"
    },
    {
      "inputs": [
        {
          "internalType": "address",
          "name": "recipient",
          "type": "address"
        },
        {
          "internalType": "uint256",
          "name": "amount",
          "type": "uint256"
        }
      ],
      "name": "transfer",
      "outputs": [
        {
          "internalType": "bool",
          "name": "",
          "type": "bool"
        }
      ],
      "stateMutability": "nonpayable",
      "type": "function"
    },
    {
      "inputs": [
        {
          "internalType": "address",
          "name": "sender",
          "type": "address"
        },
        {
          "internalType": "address",
          "name": "recipient",
          "type": "address"
        },
        {
          "internalType": "uint256",
          "name": "amount",
          "type": "uint256"
        }
      ],
      "name": "transferFrom",
      "outputs": [
        {
          "internalType": "bool",
          "name": "",
          "type": "bool"
        }
      ],
      "stateMutability": "nonpayable",
      "type": "function"
    },
    {
      "inputs": [
        {
          "internalType": "address",
          "name": "newOwner",
          "type": "address"
        }
      ],
      "name": "transferOwnership",
      "outputs": [],
      "stateMutability": "nonpayable",
      "type": "function"
    },
    {
      "inputs": [],
      "name": "vaultFactory",
      "outputs": [
        {
          "internalType": "contract INFTXVaultFactory",
          "name": "",
          "type": "address"
        }
      ],
      "stateMutability": "view",
      "type": "function"
    },
    {
      "inputs": [],
      "name": "vaultFees",
      "outputs": [
        {
          "internalType": "uint256",
          "name": "",
          "type": "uint256"
        },
        {
          "internalType": "uint256",
          "name": "",
          "type": "uint256"
        },
        {
          "internalType": "uint256",
          "name": "",
          "type": "uint256"
        },
        {
          "internalType": "uint256",
          "name": "",
          "type": "uint256"
        },
        {
          "internalType": "uint256",
          "name": "",
          "type": "uint256"
        }
      ],
      "stateMutability": "view",
      "type": "function"
    },
    {
      "inputs": [],
      "name": "vaultId",
      "outputs": [
        {
          "internalType": "uint256",
          "name": "",
          "type": "uint256"
        }
      ],
      "stateMutability": "view",
      "type": "function"
    },
    {
      "inputs": [],
      "name": "version",
      "outputs": [
        {
          "internalType": "string",
          "name": "",
          "type": "string"
        }
      ],
      "stateMutability": "pure",
      "type": "function"
    }
  ],
  "bytecode": "0x608060405234801561001057600080fd5b506148af806100206000396000f3fe608060405234801561001057600080fd5b50600436106103ae5760003560e01c806372188e3f116101f4578063d0ebdbe71161011a578063e78458c4116100ad578063f2fde38b1161007c578063f2fde38b1461084e578063f7fce33414610861578063fcc0e38114610869578063feb8eba51461087e57600080fd5b8063e78458c414610801578063e9ec2e9914610814578063f1d20dd41461081c578063f23a6e611461082f57600080fd5b8063d9d98ce4116100e9578063d9d98ce41461078f578063dd62ed3e146107a2578063e0a8b97a146107db578063e0b4a79a146107ee57600080fd5b8063d0ebdbe71461074e578063d53f621714610761578063d6ee4a9314610769578063d8a06f731461077c57600080fd5b8063a457c2d711610192578063c3cb8c1411610161578063c3cb8c141461070d578063c4a0db9614610715578063c4ff524714610728578063cce2f3fb1461073b57600080fd5b8063a457c2d7146106b5578063a9059cbb146106c8578063b10402ea146106db578063bc197c81146106ee57600080fd5b80638da5cb5b116101ce5780638da5cb5b146106765780638f878a431461068757806395d89b411461069a5780639d54def6146106a257600080fd5b806372188e3f1461061d578063793096581461064d5780638c8508141461066357600080fd5b806335dca76c116102d95780635035434a11610277578063613255ab11610246578063613255ab146105c65780636b948a35146105d957806370a08231146105ec578063715018a61461061557600080fd5b80635035434a1461057057806354fd4d501461057e5780635877aee6146105a05780635cffe9de146105b357600080fd5b806342c80fc9116102b357806342c80fc91461052f57806344b28d591461053657806345a0b6521461054a578063481c6a751461055d57600080fd5b806335dca76c1461050157806339509351146105095780633d5d190c1461051c57600080fd5b806313966db51161035157806323b872dd1161032057806323b872dd146104c157806325705d8d146104d4578063313ce567146104e957806333194c0a146104f857600080fd5b806313966db514610441578063150b7a021461045757806318160ddd1461048e5780631ba46cfd1461049657600080fd5b806306f26dc21161038d57806306f26dc2146103f857806306fdde0314610406578063095ea7b31461041b5780630d636a091461042e57600080fd5b8062518161146103b357806301ffc9a7146103bd57806304a66b48146103e5575b600080fd5b6103bb610886565b005b6103d06103cb366004613a3d565b6108f7565b60405190151581526020015b60405180910390f35b6103bb6103f3366004613a67565b61092e565b610104546103d09060ff1681565b61040e6109c2565b6040516103dc9190613afa565b6103d0610429366004613b22565b610a54565b6103bb61043c366004613b5c565b610a6a565b610449610bde565b6040519081526020016103dc565b610475610465366004613c82565b630a85bd0160e11b949350505050565b6040516001600160e01b031990911681526020016103dc565b606754610449565b60fd546104a9906001600160a01b031681565b6040516001600160a01b0390911681526020016103dc565b6103d06104cf366004613ced565b610c64565b6104dc610d1a565b6040516103dc9190613d69565b604051601281526020016103dc565b61044960fb5481565b610449610dbc565b6103d0610517366004613b22565b610e41565b61044961052a366004613dc7565b610e78565b60016103d0565b610104546103d09062010000900460ff1681565b610449610558366004613e32565b610ef2565b60fc546104a9906001600160a01b031681565b610108546103d09060ff1681565b60408051808201909152600681526576312e302e3560d01b602082015261040e565b6104a96105ae366004613e8c565b610f00565b6103d06105c1366004613c82565b6110c3565b6104496105d4366004613ed7565b6110db565b610104546103d090610100900460ff1681565b6104496105fa366004613ed7565b6001600160a01b031660009081526065602052604090205490565b6103bb611103565b610625611177565b604080519586526020860194909452928401919091526060830152608082015260a0016103dc565b610104546103d090640100000000900460ff1681565b6104dc610671366004613f68565b611202565b6033546001600160a01b03166104a9565b60ff546104a9906001600160a01b031681565b61040e611460565b6104dc6106b0366004614002565b61146f565b6103d06106c3366004613b22565b611649565b6103d06106d6366004613b22565b6116e4565b6104496106e936600461405c565b6116f1565b6104756106fc3660046140b7565b63bc197c8160e01b95945050505050565b6103bb611808565b6104dc610723366004614164565b611814565b610108546103d090610100900460ff1681565b6103bb610749366004613ed7565b61185d565b6103bb61075c366004613ed7565b611965565b6104496119c1565b6104dc6107773660046141a2565b611a46565b60fe546104a9906001600160a01b031681565b61044961079d366004613b22565b611af3565b6104496107b036600461423b565b6001600160a01b03918216600090815260666020908152604080832093909416825291909152205490565b6103bb6107e9366004614274565b611b56565b6103bb6107fc3660046142d3565b611c20565b6103bb61080f36600461430a565b611c63565b610449611e40565b6103d061082a366004614379565b611e52565b61047561083d3660046143ad565b63f23a6e6160e01b95945050505050565b6103bb61085c366004613ed7565b611efc565b610449611fe7565b610104546103d0906301000000900460ff1681565b61044961206d565b61088e6120f3565b60fe5460fb546040516360c1795960e11b81526001600160a01b039092169163c182f2b2916108c39160040190815260200190565b600060405180830381600087803b1580156108dd57600080fd5b505af11580156108f1573d6000803e3d6000fd5b50505050565b60006001600160e01b03198216630271189760e51b148061092857506301ffc9a760e01b6001600160e01b03198316145b92915050565b6109366120f3565b60fe5460fb546040516310ccb16960e11b815260048101919091526024810187905260448101869052606481018590526084810184905260a481018390526001600160a01b039091169063219962d29060c401600060405180830381600087803b1580156109a357600080fd5b505af11580156109b7573d6000803e3d6000fd5b505050505050505050565b6060606880546109d190614415565b80601f01602080910402602001604051908101604052809291908181526020018280546109fd90614415565b8015610a4a5780601f10610a1f57610100808354040283529160200191610a4a565b820191906000526020600020905b815481529060010190602001808311610a2d57829003601f168201915b5050505050905090565b6000610a61338484612191565b50600192915050565b610a726120f3565b610104805463ffff000019166201000087151590810263ff0000001916919091176301000000871515021764ff0000000019166401000000008615150217909155610108805461ffff191684151561ff00191617610100841515021790556040519081527fc604be2f834727754dc1ec1225c14d1ecde48e7d12fa7b745dfb137a3db998bd9060200160405180910390a160405184151581527f835d9397f97f5df575f718046bb3e918f911d39d7edfa79aa8d40ddc7d5ce2a59060200160405180910390a160405183151581527f64b60f32742df47d4ccb5b31ca12fee1bc20695467bfe8fa058b00ec446c15639060200160405180910390a160405182151581527f7e8b58aeb3d1d3a1777185c996f374a5d3c46ef3cd25a07ec6eb2569488d50589060200160405180910390a160405181151581527fbfb092a6cb2d49526b6982acab35d64782cf1c05f8c8f0dd88008b288bfa5af59060200160405180910390a15050505050565b60fe5460fb54604051632206137960e01b815260009283926001600160a01b0390911691632206137991610c189160040190815260200190565b60a060405180830381865afa158015610c35573d6000803e3d6000fd5b505050506040513d601f19601f82011682018060405250810190610c59919061444f565b509295945050505050565b6000610c718484846122b6565b6001600160a01b038416600090815260666020908152604080832033845290915290205482811015610cfb5760405162461bcd60e51b815260206004820152602860248201527f45524332303a207472616e7366657220616d6f756e74206578636565647320616044820152676c6c6f77616e636560c01b60648201526084015b60405180910390fd5b610d0f8533610d0a86856144a5565b612191565b506001949350505050565b60606000610d2961010561248e565b90506000816001600160401b03811115610d4557610d45613bcd565b604051908082528060200260200182016040528015610d6e578160200160208202803683370190505b50905060005b82811015610db557610d8861010582612498565b828281518110610d9a57610d9a6144bc565b6020908102919091010152610dae816144d2565b9050610d74565b5092915050565b60fe5460fb54604051632206137960e01b815260009283926001600160a01b0390911691632206137991610df69160040190815260200190565b60a060405180830381865afa158015610e13573d6000803e3d6000fd5b505050506040513d601f19601f82011682018060405250810190610e37919061444f565b9695505050505050565b3360008181526066602090815260408083206001600160a01b03871684529091528120549091610a61918590610d0a9086906144eb565b6000610ee9858580806020026020016040519081016040528093929190818152602001838360200280828437600092019190915250506040805160208089028281018201909352888252909350889250879182918501908490808284376000920191909152503392506116f1915050565b95945050505050565b600061092861010583612498565b6000610f0a6120f3565b60ff546001600160a01b031615610f6e5760405162461bcd60e51b815260206004820152602260248201527f4e4654585661756c743a20656c69676962696c69747920616c72656164792073604482015261195d60f21b6064820152608401610cf2565b60fe5460408051630a63bfd560e11b815290516000926001600160a01b0316916314c77faa9160048083019260209291908290030181865afa158015610fb8573d6000803e3d6000fd5b505050506040513d601f19601f82011682018060405250810190610fdc9190614503565b90506000816001600160a01b031663576ff9088787876040518463ffffffff1660e01b815260040161101093929190614549565b6020604051808303816000875af115801561102f573d6000803e3d6000fd5b505050506040513d601f19601f820116820180604052508101906110539190614503565b60ff80546001600160a01b0319166001600160a01b038316908117909155610104805461ff00191690556040805189815260208101929092529192507fe14c63b3d4272158635bee1d1b95b51bb8de042ee95a15cbfaf2865b4d0af811910160405180910390a195945050505050565b60006110cf60046124a4565b610ee98585858561255f565b60006001600160a01b03821630146110f4576000610928565b606754610928906000196144a5565b6033546001600160a01b0316331461112d5760405162461bcd60e51b8152600401610cf290614563565b6033546040516000916001600160a01b0316907f8be0079c531659141344cd1fd0a4f28419497f9722a3daafe3b4186f6b6457e0908390a3603380546001600160a01b0319169055565b60fe5460fb54604051632206137960e01b8152600481019190915260009182918291829182916001600160a01b03169063220613799060240160a060405180830381865afa1580156111cd573d6000803e3d6000fd5b505050506040513d601f19601f820116820180604052508101906111f1919061444f565b945094509450945094509091929394565b6060600260c954036112265760405162461bcd60e51b8152600401610cf290614598565b600260c95561123560036124a4565b6101045460009060ff16156112e25760005b86518110156112dc576000868281518110611264576112646144bc565b60200260200101519050806000036112be5760405162461bcd60e51b815260206004820152601b60248201527f4e4654585661756c743a207472616e7366657272696e67203c203100000000006044820152606401610cf2565b6112c881846144eb565b925050806112d5906144d2565b9050611247565b506112e6565b5084515b83518114806112f857506101085460ff165b6113445760405162461bcd60e51b815260206004820152601f60248201527f4e4654585661756c743a2052616e646f6d20737761702064697361626c6564006044820152606401610cf2565b8351158061135a575061010854610100900460ff165b6113a65760405162461bcd60e51b815260206004820152601f60248201527f4e4654585661756c743a2054617267657420737761702064697361626c6564006044820152606401610cf2565b6000806113b1611177565b9450945050505060008651846113c791906144a5565b6113d190846145cf565b87516113dd90846145cf565b6113e791906144eb565b90506113f533826003612734565b6000611402858989612876565b905061140e8a8a612a42565b507f66982ed4a058811a8004bdcec9adcb3671f2b4f1a788667a3a74959d7c09af3c8a8a8a848b6040516114469594939291906145ee565b60405180910390a1600160c9559998505050505050505050565b6060606980546109d190614415565b6060600260c954036114935760405162461bcd60e51b8152600401610cf290614598565b600260c98190556114a3906124a4565b82518414806114bc5750610104546301000000900460ff165b6115145760405162461bcd60e51b8152602060048201526024808201527f4e4654585661756c743a2052616e646f6d2072656465656d206e6f7420656e61604482015263189b195960e21b6064820152608401610cf2565b8251158061152d575061010454640100000000900460ff165b6115855760405162461bcd60e51b8152602060048201526024808201527f4e4654585661756c743a205461726765742072656465656d206e6f7420656e61604482015263189b195960e21b6064820152608401610cf2565b6115a03361159b86670de0b6b3a76400006145cf565b612c82565b6000806115ab611177565b5050925092505060008551876115c191906144a5565b6115cb90846145cf565b86516115d790846145cf565b6115e191906144eb565b90506115ef33826001612734565b60006115fc888888612876565b90507f63b13f6307f284441e029836b0c22eb91eb62a7ad555670061157930ce884f4e81888860405161163193929190614656565b60405180910390a1600160c955979650505050505050565b3360009081526066602090815260408083206001600160a01b0386168452909152812054828110156116cb5760405162461bcd60e51b815260206004820152602560248201527f45524332303a2064656372656173656420616c6c6f77616e63652062656c6f77604482015264207a65726f60d81b6064820152608401610cf2565b6116da3385610d0a86856144a5565b5060019392505050565b6000610a613384846122b6565b6000600260c954036117155760405162461bcd60e51b8152600401610cf290614598565b600260c95561172460016124a4565b6101045462010000900460ff166117735760405162461bcd60e51b8152602060048201526013602482015272135a5b9d1a5b99c81b9bdd08195b98589b1959606a1b6044820152606401610cf2565b600061177f8585612a42565b905061179c8361179783670de0b6b3a76400006145cf565b612dd1565b6000816117a7610bde565b6117b191906145cf565b90506117bf33826000612734565b7f1f72ad2a14447fa756b6f5aca53504645af79813493aca2d906b69e4aaeb94928686866040516117f293929190614656565b60405180910390a150600160c955949350505050565b6118126000611965565b565b60606118558484848080602002602001604051908101604052809392919081815260200183836020028082843760009201919091525033925061146f915050565b949350505050565b6033546001600160a01b031633146118875760405162461bcd60e51b8152600401610cf290614563565b6000670de0b6b3a764000061189b60675490565b6118a591906146aa565b9050600481106118e85760405162461bcd60e51b815260206004820152600e60248201526d746f6f206d616e79206974656d7360901b6044820152606401610cf2565b604080516000815260208101909152611902828285612876565b5060fd54604080516001600160a01b0392831681526020810185905291851682820152517f1f6d756c685d4969a551099165b59f836b4d2cc7e036e623f0248c28bff91db59181900360600190a1505060fd80546001600160a01b031916905550565b61196d6120f3565b60fc80546001600160a01b0319166001600160a01b0383169081179091556040519081527f60a0f5b9f9e81e98216071b85826681c796256fe3d1354ecb675580fba64fa699060200160405180910390a150565b60fe5460fb54604051632206137960e01b815260009283926001600160a01b03909116916322061379916119fb9160040190815260200190565b60a060405180830381865afa158015611a18573d6000803e3d6000fd5b505050506040513d601f19601f82011682018060405250810190611a3c919061444f565b5095945050505050565b6060611ae887878080602002602001604051908101604052809392919081815260200183836020028082843760009201919091525050604080516020808b0282810182019093528a82529093508a92508991829185019084908082843760009201919091525050604080516020808a02828101820190935289825290935089925088918291850190849080828437600092019190915250339250611202915050565b979650505050505050565b60006001600160a01b0383163014611b4d5760405162461bcd60e51b815260206004820152601b60248201527f4552433230466c6173684d696e743a2077726f6e6720746f6b656e00000000006044820152606401610cf2565b50600092915050565b611b5e6120f3565b7f1b92808356942344452465ae2648676199ae4c2fe413605353e51ff008e6f2ce611b876109c2565b611b8f611460565b86868686604051611ba5969594939291906146be565b60405180910390a16108f184848080601f01602080910402602001604051908101604052809392919081815260200183838082843760009201919091525050604080516020601f88018190048102820181019092528681529250869150859081908401838280828437600092019190915250612eb092505050565b6033546001600160a01b03163314611c4a5760405162461bcd60e51b8152600401610cf290614563565b611c548284612c82565b611c5e8184612dd1565b505050565b600054610100900460ff1680611c7c575060005460ff16155b611c985760405162461bcd60e51b8152600401610cf29061471a565b600054610100900460ff16158015611cba576000805461ffff19166101011790555b611cc2612ed7565b611ccc8686612f52565b6001600160a01b038416611d185760405162461bcd60e51b8152602060048201526013602482015272417373657420213d206164647265737328302960681b6044820152606401610cf2565b60fd80546001600160a01b03199081166001600160a01b0387161790915560fe805433921682179055604080516304c94c4160e31b8152905163264a6208916004808201926020929091908290030181865afa158015611d7c573d6000803e3d6000fd5b505050506040513d601f19601f82011682018060405250810190611da09190614768565b60fb8190556101048054841515610100810261ff001988151590811661ffff199094169390931717909255604080516001600160a01b038916815260208101929092528101919091527f18ecce5c418b882a3d89e5b6cc8100dc3383309b8e78525266fe1283a7f934d69060600160405180910390a2611e266001806001806001610a6a565b8015611e38576000805461ff00191690555b505050505050565b6000611e4d61010561248e565b905090565b61010454600090610100900460ff1615611e6e57506001919050565b60ff546001600160a01b031680611e885750600092915050565b6040516384ca9f8560e01b81526001600160a01b038216906384ca9f8590611eb4908690600401613d69565b602060405180830381865afa158015611ed1573d6000803e3d6000fd5b505050506040513d601f19601f82011682018060405250810190611ef59190614781565b9392505050565b6033546001600160a01b03163314611f265760405162461bcd60e51b8152600401610cf290614563565b6001600160a01b038116611f8b5760405162461bcd60e51b815260206004820152602660248201527f4f776e61626c653a206e6577206f776e657220697320746865207a65726f206160448201526564647265737360d01b6064820152608401610cf2565b6033546040516001600160a01b038084169216907f8be0079c531659141344cd1fd0a4f28419497f9722a3daafe3b4186f6b6457e090600090a3603380546001600160a01b0319166001600160a01b0392909216919091179055565b60fe5460fb54604051632206137960e01b815260009283926001600160a01b03909116916322061379916120219160040190815260200190565b60a060405180830381865afa15801561203e573d6000803e3d6000fd5b505050506040513d601f19601f82011682018060405250810190612062919061444f565b509195945050505050565b60fe5460fb54604051632206137960e01b815260009283926001600160a01b03909116916322061379916120a79160040190815260200190565b60a060405180830381865afa1580156120c4573d6000803e3d6000fd5b505050506040513d601f19601f820116820180604052508101906120e8919061444f565b509095945050505050565b60fc546001600160a01b0316612149576033546001600160a01b031633146118125760405162461bcd60e51b81526020600482015260096024820152682737ba1037bbb732b960b91b6044820152606401610cf2565b60fc546001600160a01b031633146118125760405162461bcd60e51b815260206004820152600b60248201526a2737ba1036b0b730b3b2b960a91b6044820152606401610cf2565b6001600160a01b0383166121f35760405162461bcd60e51b8152602060048201526024808201527f45524332303a20617070726f76652066726f6d20746865207a65726f206164646044820152637265737360e01b6064820152608401610cf2565b6001600160a01b0382166122545760405162461bcd60e51b815260206004820152602260248201527f45524332303a20617070726f766520746f20746865207a65726f206164647265604482015261737360f01b6064820152608401610cf2565b6001600160a01b0383811660008181526066602090815260408083209487168084529482529182902085905590518481527f8c5be1e5ebec7d5bd14f71427d1e84f3dd0314c0f7b2291e5b200ac8c7c3b92591015b60405180910390a3505050565b6001600160a01b03831661231a5760405162461bcd60e51b815260206004820152602560248201527f45524332303a207472616e736665722066726f6d20746865207a65726f206164604482015264647265737360d81b6064820152608401610cf2565b6001600160a01b03821661237c5760405162461bcd60e51b815260206004820152602360248201527f45524332303a207472616e7366657220746f20746865207a65726f206164647260448201526265737360e81b6064820152608401610cf2565b6001600160a01b038316600090815260656020526040902054818110156123f45760405162461bcd60e51b815260206004820152602660248201527f45524332303a207472616e7366657220616d6f756e7420657863656564732062604482015265616c616e636560d01b6064820152608401610cf2565b6123fe82826144a5565b6001600160a01b0380861660009081526065602052604080822093909355908516815290812080548492906124349084906144eb565b92505081905550826001600160a01b0316846001600160a01b03167fddf252ad1be2c89b69c2b068fc378daa952ba7f163c4a11628f55a4df523b3ef8460405161248091815260200190565b60405180910390a350505050565b6000610928825490565b6000611ef58383612fd1565b60fe5460405163f6aacfb160e01b8152600481018390526001600160a01b039091169063f6aacfb190602401602060405180830381865afa1580156124ed573d6000803e3d6000fd5b505050506040513d601f19601f820116820180604052508101906125119190614781565b158061252757506033546001600160a01b031633145b61255c5760405162461bcd60e51b815260206004820152600660248201526514185d5cd95960d21b6044820152606401610cf2565b50565b60008061256c8585611af3565b90506125788685612dd1565b6040516323e30c8b60e01b81527f439148f0bbc682ca079e46d6e2c2f0c1e3b820f1a291b069d8882abf8cf18dd9906001600160a01b038816906323e30c8b906125ce9033908a908a9088908b9060040161479e565b6020604051808303816000875af11580156125ed573d6000803e3d6000fd5b505050506040513d601f19601f820116820180604052508101906126119190614768565b1461266a5760405162461bcd60e51b8152602060048201526024808201527f4552433230466c6173684d696e743a20696e76616c69642072657475726e2076604482015263616c756560e01b6064820152608401610cf2565b6001600160a01b038616600090815260666020908152604080832030845290915290205461269882866144eb565b8110156126ff5760405162461bcd60e51b815260206004820152602f60248201527f4552433230466c6173684d696e743a20616c6c6f77616e636520646f6573206e60448201526e1bdd08185b1b1bddc81c99599d5b99608a1b6064820152608401610cf2565b61271987308461270f89866144a5565b610d0a91906144a5565b6127278761159b84886144eb565b5060019695505050505050565b60fe546040516306df336560e51b81523360048201526001600160a01b0390911690819063dbe66ca090602401602060405180830381865afa15801561277e573d6000803e3d6000fd5b505050506040513d601f19601f820116820180604052508101906127a29190614781565b156127ad5750505050565b82156108f1576000816001600160a01b0316630d43e8ad6040518163ffffffff1660e01b8152600401602060405180830381865afa1580156127f3573d6000803e3d6000fd5b505050506040513d601f19601f820116820180604052508101906128179190614503565b604080516001600160a01b0388168152602081018790529081018590529091507f16e6ccd2ef416ef3f3bcfb0c2e72cc20b803f356fa7cab0289bb7de870cb3cb69060600160405180910390a161286f8582866122b6565b5050505050565b6101045460fd5460609160ff16906001600160a01b03166000866001600160401b038111156128a7576128a7613bcd565b6040519080825280602002602001820160405280156128d0578160200160208202803683370190505b50865190915060005b88811015612a2d5760008282106128f7576128f2612ffb565b612912565b888281518110612909576129096144bc565b60200260200101515b905080848381518110612927576129276144bc565b6020026020010181815250508515612a04576000818152610107602052604081208054600192906129599084906144a5565b90915550506000818152610107602052604081205490036129825761298061010582613099565b505b604051637921219560e11b81523060048201526001600160a01b038981166024830152604482018390526001606483015260a06084830152600060a483015286169063f242432a9060c401600060405180830381600087803b1580156129e757600080fd5b505af11580156129fb573d6000803e3d6000fd5b50505050612a1c565b612a1061010582613099565b50612a1c8589836130a5565b50612a26816144d2565b90506128d9565b50612a378261327a565b509695505050505050565b6000612a4d83611e52565b612a995760405162461bcd60e51b815260206004820152601760248201527f4e4654585661756c743a206e6f7420656c696769626c650000000000000000006044820152606401610cf2565b82516101045460ff1615612c195760fd54604051631759616b60e11b81526001600160a01b0390911690632eb2c2d690612add9033903090899089906004016147d8565b600060405180830381600087803b158015612af757600080fd5b505af1158015612b0b573d6000803e3d6000fd5b505050506000805b82811015612c0f576000868281518110612b2f57612b2f6144bc565b602002602001015190506000868381518110612b4d57612b4d6144bc565b6020026020010151905080600003612ba75760405162461bcd60e51b815260206004820152601b60248201527f4e4654585661756c743a207472616e7366657272696e67203c203100000000006044820152606401610cf2565b600082815261010760205260408120549003612bcb57612bc9610105836132e9565b505b6000828152610107602052604081208054839290612bea9084906144eb565b90915550612bfa905081856144eb565b9350505080612c08906144d2565b9050612b13565b5091506109289050565b60fd546001600160a01b031660005b82811015612c77576000868281518110612c4457612c446144bc565b60200260200101519050612c5883826132f5565b612c64610105826132e9565b505080612c70906144d2565b9050612c28565b508192505050610928565b6001600160a01b038216612ce25760405162461bcd60e51b815260206004820152602160248201527f45524332303a206275726e2066726f6d20746865207a65726f206164647265736044820152607360f81b6064820152608401610cf2565b6001600160a01b03821660009081526065602052604090205481811015612d565760405162461bcd60e51b815260206004820152602260248201527f45524332303a206275726e20616d6f756e7420657863656564732062616c616e604482015261636560f01b6064820152608401610cf2565b612d6082826144a5565b6001600160a01b03841660009081526065602052604081209190915560678054849290612d8e9084906144a5565b90915550506040518281526000906001600160a01b038516907fddf252ad1be2c89b69c2b068fc378daa952ba7f163c4a11628f55a4df523b3ef906020016122a9565b6001600160a01b038216612e275760405162461bcd60e51b815260206004820152601f60248201527f45524332303a206d696e7420746f20746865207a65726f2061646472657373006044820152606401610cf2565b8060676000828254612e3991906144eb565b90915550506001600160a01b03821660009081526065602052604081208054839290612e669084906144eb565b90915550506040518181526001600160a01b038316906000907fddf252ad1be2c89b69c2b068fc378daa952ba7f163c4a11628f55a4df523b3ef9060200160405180910390a35050565b8151612ec39060689060208501906139a4565b508051611c5e9060699060208401906139a4565b600054610100900460ff1680612ef0575060005460ff16155b612f0c5760405162461bcd60e51b8152600401610cf29061471a565b600054610100900460ff16158015612f2e576000805461ffff19166101011790555b612f366136b5565b612f3e61371f565b801561255c576000805461ff001916905550565b600054610100900460ff1680612f6b575060005460ff16155b612f875760405162461bcd60e51b8152600401610cf29061471a565b600054610100900460ff16158015612fa9576000805461ffff19166101011790555b612fb16136b5565b612fbb83836137cd565b8015611c5e576000805461ff0019169055505050565b6000826000018281548110612fe857612fe86144bc565b9060005260206000200154905092915050565b60008061300961010561248e565b6130146001436144a5565b61010054604080519240602084015282015241606090811b6bffffffffffffffffffffffff19169082015244607482015242609482015260b4016040516020818303038152906040528051906020012060001c6130719190614833565b905061010060008154613083906144d2565b9091555061309361010582612498565b91505090565b6000611ef58383613862565b7306012c8cf97bead5deae237070f9587f8e7a266d73b47e3cd837ddf8e4c57f05d70ab865de6e193bbb60607306012c8cf97bead5deae237070f9587f8e7a266c196001600160a01b03871601613143576040516001600160a01b03861660248201526044810185905260640160408051601f198184030181529190526020810180516001600160e01b031663a9059cbb60e01b17905290506131f8565b816001600160a01b0316866001600160a01b0316036131a9576040516001600160a01b03861660248201526044810185905260640160408051601f198184030181529190526020810180516001600160e01b03166322dca8bb60e21b17905290506131f8565b6040513060248201526001600160a01b03861660448201526064810185905260840160408051601f198184030181529190526020810180516001600160e01b0316632142170760e11b17905290505b600080876001600160a01b0316836040516132139190614847565b6000604051808303816000865af19150503d8060008114613250576040519150601f19603f3d011682016040523d82523d6000602084013e613255565b606091505b50915091508181906109b75760405162461bcd60e51b8152600401610cf29190613afa565b60ff546001600160a01b03168061328f575050565b604051632f17cda960e11b81526001600160a01b03821690635e2f9b52906132bb908590600401613d69565b600060405180830381600087803b1580156132d557600080fd5b505af1158015611e38573d6000803e3d6000fd5b6000611ef58383613955565b7306012c8cf97bead5deae237070f9587f8e7a266d73b47e3cd837ddf8e4c57f05d70ab865de6e193bbb60607306012c8cf97bead5deae237070f9587f8e7a266c196001600160a01b03861601613390576040513360248201523060448201526064810185905260840160408051601f198184030181529190526020810180516001600160e01b03166323b872dd60e01b1790529050613629565b816001600160a01b0316856001600160a01b0316036134fc576000846040516024016133be91815260200190565b60408051601f198184030181529181526020820180516001600160e01b0316630b02f02d60e31b1790525190915060009081906001600160a01b03891690613407908590614847565b600060405180830381855afa9150503d8060008114613442576040519150601f19603f3d011682016040523d82523d6000602084013e613447565b606091505b50915091506000818060200190518101906134629190614503565b905082801561347957506001600160a01b03811633145b6134b95760405162461bcd60e51b81526020600482015260116024820152702737ba103a34329027232a1037bbb732b960791b6044820152606401610cf2565b6040516024810189905260440160408051601f198184030181529190526020810180516001600160e01b031663104c9fd360e31b17905294506136299350505050565b60fd546040516331a9108f60e11b81526004810186905230916001600160a01b031690636352211e90602401602060405180830381865afa158015613545573d6000803e3d6000fd5b505050506040513d601f19601f820116820180604052508101906135699190614503565b6001600160a01b0316036135e3576135966101058560008181526001830160205260408120541515611ef5565b1561286f5760405162461bcd60e51b815260206004820152601a60248201527f547279696e6720746f2075736520616e206f776e6564204e46540000000000006044820152606401610cf2565b6040513360248201523060448201526064810185905260840160408051601f198184030181529190526020810180516001600160e01b0316632142170760e11b17905290505b600080866001600160a01b0316836040516136449190614847565b6000604051808303816000865af19150503d8060008114613681576040519150601f19603f3d011682016040523d82523d6000602084013e613686565b606091505b50915091508181906136ab5760405162461bcd60e51b8152600401610cf29190613afa565b5050505050505050565b600054610100900460ff16806136ce575060005460ff16155b6136ea5760405162461bcd60e51b8152600401610cf29061471a565b600054610100900460ff16158015612f3e576000805461ffff1916610101179055801561255c576000805461ff001916905550565b600054610100900460ff1680613738575060005460ff16155b6137545760405162461bcd60e51b8152600401610cf29061471a565b600054610100900460ff16158015613776576000805461ffff19166101011790555b603380546001600160a01b0319163390811790915560405181906000907f8be0079c531659141344cd1fd0a4f28419497f9722a3daafe3b4186f6b6457e0908290a350801561255c576000805461ff001916905550565b600054610100900460ff16806137e6575060005460ff16155b6138025760405162461bcd60e51b8152600401610cf29061471a565b600054610100900460ff16158015613824576000805461ffff19166101011790555b82516138379060689060208601906139a4565b50815161384b9060699060208501906139a4565b508015611c5e576000805461ff0019169055505050565b6000818152600183016020526040812054801561394b5760006138866001836144a5565b855490915060009061389a906001906144a5565b90508181146138ff5760008660000182815481106138ba576138ba6144bc565b90600052602060002001549050808760000184815481106138dd576138dd6144bc565b6000918252602080832090910192909255918252600188019052604090208390555b855486908061391057613910614863565b600190038181906000526020600020016000905590558560010160008681526020019081526020016000206000905560019350505050610928565b6000915050610928565b600081815260018301602052604081205461399c57508154600181810184556000848152602080822090930184905584548482528286019093526040902091909155610928565b506000610928565b8280546139b090614415565b90600052602060002090601f0160209004810192826139d25760008555613a18565b82601f106139eb57805160ff1916838001178555613a18565b82800160010185558215613a18579182015b82811115613a185782518255916020019190600101906139fd565b50613a24929150613a28565b5090565b5b80821115613a245760008155600101613a29565b600060208284031215613a4f57600080fd5b81356001600160e01b031981168114611ef557600080fd5b600080600080600060a08688031215613a7f57600080fd5b505083359560208501359550604085013594606081013594506080013592509050565b60005b83811015613abd578181015183820152602001613aa5565b838111156108f15750506000910152565b60008151808452613ae6816020860160208601613aa2565b601f01601f19169290920160200192915050565b602081526000611ef56020830184613ace565b6001600160a01b038116811461255c57600080fd5b60008060408385031215613b3557600080fd5b8235613b4081613b0d565b946020939093013593505050565b801515811461255c57600080fd5b600080600080600060a08688031215613b7457600080fd5b8535613b7f81613b4e565b94506020860135613b8f81613b4e565b93506040860135613b9f81613b4e565b92506060860135613baf81613b4e565b91506080860135613bbf81613b4e565b809150509295509295909350565b634e487b7160e01b600052604160045260246000fd5b604051601f8201601f191681016001600160401b0381118282101715613c0b57613c0b613bcd565b604052919050565b600082601f830112613c2457600080fd5b81356001600160401b03811115613c3d57613c3d613bcd565b613c50601f8201601f1916602001613be3565b818152846020838601011115613c6557600080fd5b816020850160208301376000918101602001919091529392505050565b60008060008060808587031215613c9857600080fd5b8435613ca381613b0d565b93506020850135613cb381613b0d565b92506040850135915060608501356001600160401b03811115613cd557600080fd5b613ce187828801613c13565b91505092959194509250565b600080600060608486031215613d0257600080fd5b8335613d0d81613b0d565b92506020840135613d1d81613b0d565b929592945050506040919091013590565b600081518084526020808501945080840160005b83811015613d5e57815187529582019590820190600101613d42565b509495945050505050565b602081526000611ef56020830184613d2e565b60008083601f840112613d8e57600080fd5b5081356001600160401b03811115613da557600080fd5b6020830191508360208260051b8501011115613dc057600080fd5b9250929050565b60008060008060408587031215613ddd57600080fd5b84356001600160401b0380821115613df457600080fd5b613e0088838901613d7c565b90965094506020870135915080821115613e1957600080fd5b50613e2687828801613d7c565b95989497509550505050565b600060208284031215613e4457600080fd5b5035919050565b60008083601f840112613e5d57600080fd5b5081356001600160401b03811115613e7457600080fd5b602083019150836020828501011115613dc057600080fd5b600080600060408486031215613ea157600080fd5b8335925060208401356001600160401b03811115613ebe57600080fd5b613eca86828701613e4b565b9497909650939450505050565b600060208284031215613ee957600080fd5b8135611ef581613b0d565b600082601f830112613f0557600080fd5b813560206001600160401b03821115613f2057613f20613bcd565b8160051b613f2f828201613be3565b9283528481018201928281019087851115613f4957600080fd5b83870192505b84831015611ae857823582529183019190830190613f4f565b60008060008060808587031215613f7e57600080fd5b84356001600160401b0380821115613f9557600080fd5b613fa188838901613ef4565b95506020870135915080821115613fb757600080fd5b613fc388838901613ef4565b94506040870135915080821115613fd957600080fd5b50613fe687828801613ef4565b9250506060850135613ff781613b0d565b939692955090935050565b60008060006060848603121561401757600080fd5b8335925060208401356001600160401b0381111561403457600080fd5b61404086828701613ef4565b925050604084013561405181613b0d565b809150509250925092565b60008060006060848603121561407157600080fd5b83356001600160401b038082111561408857600080fd5b61409487838801613ef4565b945060208601359150808211156140aa57600080fd5b5061404086828701613ef4565b600080600080600060a086880312156140cf57600080fd5b85356140da81613b0d565b945060208601356140ea81613b0d565b935060408601356001600160401b038082111561410657600080fd5b61411289838a01613ef4565b9450606088013591508082111561412857600080fd5b61413489838a01613ef4565b9350608088013591508082111561414a57600080fd5b5061415788828901613c13565b9150509295509295909350565b60008060006040848603121561417957600080fd5b8335925060208401356001600160401b0381111561419657600080fd5b613eca86828701613d7c565b600080600080600080606087890312156141bb57600080fd5b86356001600160401b03808211156141d257600080fd5b6141de8a838b01613d7c565b909850965060208901359150808211156141f757600080fd5b6142038a838b01613d7c565b9096509450604089013591508082111561421c57600080fd5b5061422989828a01613d7c565b979a9699509497509295939492505050565b6000806040838503121561424e57600080fd5b823561425981613b0d565b9150602083013561426981613b0d565b809150509250929050565b6000806000806040858703121561428a57600080fd5b84356001600160401b03808211156142a157600080fd5b6142ad88838901613e4b565b909650945060208701359150808211156142c657600080fd5b50613e2687828801613e4b565b6000806000606084860312156142e857600080fd5b8335925060208401356142fa81613b0d565b9150604084013561405181613b0d565b600080600080600060a0868803121561432257600080fd5b85356001600160401b038082111561433957600080fd5b61434589838a01613c13565b9650602088013591508082111561435b57600080fd5b5061436888828901613c13565b9450506040860135613b9f81613b0d565b60006020828403121561438b57600080fd5b81356001600160401b038111156143a157600080fd5b61185584828501613ef4565b600080600080600060a086880312156143c557600080fd5b85356143d081613b0d565b945060208601356143e081613b0d565b9350604086013592506060860135915060808601356001600160401b0381111561440957600080fd5b61415788828901613c13565b600181811c9082168061442957607f821691505b60208210810361444957634e487b7160e01b600052602260045260246000fd5b50919050565b600080600080600060a0868803121561446757600080fd5b5050835160208501516040860151606087015160809097015192989197509594509092509050565b634e487b7160e01b600052601160045260246000fd5b6000828210156144b7576144b761448f565b500390565b634e487b7160e01b600052603260045260246000fd5b6000600182016144e4576144e461448f565b5060010190565b600082198211156144fe576144fe61448f565b500190565b60006020828403121561451557600080fd5b8151611ef581613b0d565b81835281816020850137506000828201602090810191909152601f909101601f19169091010190565b838152604060208201526000610ee9604083018486614520565b6020808252818101527f4f776e61626c653a2063616c6c6572206973206e6f7420746865206f776e6572604082015260600190565b6020808252601f908201527f5265656e7472616e637947756172643a207265656e7472616e742063616c6c00604082015260600190565b60008160001904831182151516156145e9576145e961448f565b500290565b60a08152600061460160a0830188613d2e565b82810360208401526146138188613d2e565b905082810360408401526146278187613d2e565b9050828103606084015261463b8186613d2e565b91505060018060a01b03831660808301529695505050505050565b6060815260006146696060830186613d2e565b828103602084015261467b8186613d2e565b91505060018060a01b0383166040830152949350505050565b634e487b7160e01b600052601260045260246000fd5b6000826146b9576146b9614694565b500490565b6080815260006146d16080830189613ace565b82810360208401526146e38189613ace565b905082810360408401526146f8818789614520565b9050828103606084015261470d818587614520565b9998505050505050505050565b6020808252602e908201527f496e697469616c697a61626c653a20636f6e747261637420697320616c72656160408201526d191e481a5b9a5d1a585b1a5e995960921b606082015260800190565b60006020828403121561477a57600080fd5b5051919050565b60006020828403121561479357600080fd5b8151611ef581613b4e565b6001600160a01b03868116825285166020820152604081018490526060810183905260a060808201819052600090611ae890830184613ace565b6001600160a01b0385811682528416602082015260a06040820181905260009061480490830185613d2e565b82810360608401526148168185613d2e565b838103608090940193909352505060008152602001949350505050565b60008261484257614842614694565b500690565b60008251614859818460208701613aa2565b9190910192915050565b634e487b7160e01b600052603160045260246000fdfea2646970667358221220a4c94d51475cfbdac31617bd89257e8c10ca77abc0a2fdfbba55fc82c1154c6164736f6c634300080d0033",
  "linkReferences": {},
  "deployedLinkReferences": {}
}