{
  "_format": "hh-sol-artifact-1",
  "contractName": "NFTXStakingZap",
  "sourceName": "contracts/solidity/NFTXStakingZap.sol",
  "abi": [
    {
      "inputs": [
        {
          "internalType": "address",
          "name": "_nftxFactory",
          "type": "address"
        },
        {
          "internalType": "address",
          "name": "_sushiRouter",
          "type": "address"
        }
      ],
      "stateMutability": "nonpayable",
      "type": "constructor"
    },
    {
      "anonymous": false,
      "inputs": [
        {
          "indexed": true,
          "internalType": "address",
          "name": "previousOwner",
          "type": "address"
        },
        {
          "indexed": true,
          "internalType": "address",
          "name": "newOwner",
          "type": "address"
        }
      ],
      "name": "OwnershipTransferred",
      "type": "event"
    },
    {
      "anonymous": false,
      "inputs": [
        {
          "indexed": false,
          "internalType": "uint256",
          "name": "vaultId",
          "type": "uint256"
        },
        {
          "indexed": false,
          "internalType": "uint256",
          "name": "count",
          "type": "uint256"
        },
        {
          "indexed": false,
          "internalType": "uint256",
          "name": "lpBalance",
          "type": "uint256"
        },
        {
          "indexed": false,
          "internalType": "uint256",
          "name": "timelockUntil",
          "type": "uint256"
        },
        {
          "indexed": false,
          "internalType": "address",
          "name": "sender",
          "type": "address"
        }
      ],
      "name": "UserStaked",
      "type": "event"
    },
    {
      "inputs": [],
      "name": "WETH",
      "outputs": [
        {
          "internalType": "contract IWETH",
          "name": "",
          "type": "address"
        }
      ],
      "stateMutability": "view",
      "type": "function"
    },
    {
      "inputs": [
        {
          "internalType": "uint256",
          "name": "vaultId",
          "type": "uint256"
        },
        {
          "internalType": "uint256[]",
          "name": "ids",
          "type": "uint256[]"
        },
        {
          "internalType": "uint256[]",
          "name": "amounts",
          "type": "uint256[]"
        },
        {
          "internalType": "uint256",
          "name": "minWethIn",
          "type": "uint256"
        },
        {
          "internalType": "uint256",
          "name": "wethIn",
          "type": "uint256"
        }
      ],
      "name": "addLiquidity1155",
      "outputs": [
        {
          "internalType": "uint256",
          "name": "",
          "type": "uint256"
        }
      ],
      "stateMutability": "nonpayable",
      "type": "function"
    },
    {
      "inputs": [
        {
          "internalType": "uint256",
          "name": "vaultId",
          "type": "uint256"
        },
        {
          "internalType": "uint256[]",
          "name": "ids",
          "type": "uint256[]"
        },
        {
          "internalType": "uint256[]",
          "name": "amounts",
          "type": "uint256[]"
        },
        {
          "internalType": "uint256",
          "name": "minEthIn",
          "type": "uint256"
        }
      ],
      "name": "addLiquidity1155ETH",
      "outputs": [
        {
          "internalType": "uint256",
          "name": "",
          "type": "uint256"
        }
      ],
      "stateMutability": "payable",
      "type": "function"
    },
    {
      "inputs": [
        {
          "internalType": "uint256",
          "name": "vaultId",
          "type": "uint256"
        },
        {
          "internalType": "uint256[]",
          "name": "ids",
          "type": "uint256[]"
        },
        {
          "internalType": "uint256[]",
          "name": "amounts",
          "type": "uint256[]"
        },
        {
          "internalType": "uint256",
          "name": "minEthIn",
          "type": "uint256"
        },
        {
          "internalType": "address",
          "name": "to",
          "type": "address"
        }
      ],
      "name": "addLiquidity1155ETHTo",
      "outputs": [
        {
          "internalType": "uint256",
          "name": "",
          "type": "uint256"
        }
      ],
      "stateMutability": "payable",
      "type": "function"
    },
    {
      "inputs": [
        {
          "internalType": "uint256",
          "name": "vaultId",
          "type": "uint256"
        },
        {
          "internalType": "uint256[]",
          "name": "ids",
          "type": "uint256[]"
        },
        {
          "internalType": "uint256[]",
          "name": "amounts",
          "type": "uint256[]"
        },
        {
          "internalType": "uint256",
          "name": "minWethIn",
          "type": "uint256"
        },
        {
          "internalType": "uint256",
          "name": "wethIn",
          "type": "uint256"
        },
        {
          "internalType": "address",
          "name": "to",
          "type": "address"
        }
      ],
      "name": "addLiquidity1155To",
      "outputs": [
        {
          "internalType": "uint256",
          "name": "",
          "type": "uint256"
        }
      ],
      "stateMutability": "nonpayable",
      "type": "function"
    },
    {
      "inputs": [
        {
          "internalType": "uint256",
          "name": "vaultId",
          "type": "uint256"
        },
        {
          "internalType": "uint256[]",
          "name": "ids",
          "type": "uint256[]"
        },
        {
          "internalType": "uint256",
          "name": "minWethIn",
          "type": "uint256"
        },
        {
          "internalType": "uint256",
          "name": "wethIn",
          "type": "uint256"
        }
      ],
      "name": "addLiquidity721",
      "outputs": [
        {
          "internalType": "uint256",
          "name": "",
          "type": "uint256"
        }
      ],
      "stateMutability": "nonpayable",
      "type": "function"
    },
    {
      "inputs": [
        {
          "internalType": "uint256",
          "name": "vaultId",
          "type": "uint256"
        },
        {
          "internalType": "uint256[]",
          "name": "ids",
          "type": "uint256[]"
        },
        {
          "internalType": "uint256",
          "name": "minWethIn",
          "type": "uint256"
        }
      ],
      "name": "addLiquidity721ETH",
      "outputs": [
        {
          "internalType": "uint256",
          "name": "",
          "type": "uint256"
        }
      ],
      "stateMutability": "payable",
      "type": "function"
    },
    {
      "inputs": [
        {
          "internalType": "uint256",
          "name": "vaultId",
          "type": "uint256"
        },
        {
          "internalType": "uint256[]",
          "name": "ids",
          "type": "uint256[]"
        },
        {
          "internalType": "uint256",
          "name": "minWethIn",
          "type": "uint256"
        },
        {
          "internalType": "address",
          "name": "to",
          "type": "address"
        }
      ],
      "name": "addLiquidity721ETHTo",
      "outputs": [
        {
          "internalType": "uint256",
          "name": "",
          "type": "uint256"
        }
      ],
      "stateMutability": "payable",
      "type": "function"
    },
    {
      "inputs": [
        {
          "internalType": "uint256",
          "name": "vaultId",
          "type": "uint256"
        },
        {
          "internalType": "uint256[]",
          "name": "ids",
          "type": "uint256[]"
        },
        {
          "internalType": "uint256",
          "name": "minWethIn",
          "type": "uint256"
        },
        {
          "internalType": "uint256",
          "name": "wethIn",
          "type": "uint256"
        },
        {
          "internalType": "address",
          "name": "to",
          "type": "address"
        }
      ],
      "name": "addLiquidity721To",
      "outputs": [
        {
          "internalType": "uint256",
          "name": "",
          "type": "uint256"
        }
      ],
      "stateMutability": "nonpayable",
      "type": "function"
    },
    {
      "inputs": [],
      "name": "assignStakingContracts",
      "outputs": [],
      "stateMutability": "nonpayable",
      "type": "function"
    },
    {
      "inputs": [],
      "name": "inventoryLockTime",
      "outputs": [
        {
          "internalType": "uint256",
          "name": "",
          "type": "uint256"
        }
      ],
      "stateMutability": "view",
      "type": "function"
    },
    {
      "inputs": [],
      "name": "inventoryStaking",
      "outputs": [
        {
          "internalType": "contract INFTXInventoryStaking",
          "name": "",
          "type": "address"
        }
      ],
      "stateMutability": "view",
      "type": "function"
    },
    {
      "inputs": [
        {
          "internalType": "address",
          "name": "addr",
          "type": "address"
        },
        {
          "internalType": "uint256",
          "name": "vaultId",
          "type": "uint256"
        }
      ],
      "name": "isAddressTimelockExcluded",
      "outputs": [
        {
          "internalType": "bool",
          "name": "",
          "type": "bool"
        }
      ],
      "stateMutability": "view",
      "type": "function"
    },
    {
      "inputs": [],
      "name": "lpLockTime",
      "outputs": [
        {
          "internalType": "uint256",
          "name": "",
          "type": "uint256"
        }
      ],
      "stateMutability": "view",
      "type": "function"
    },
    {
      "inputs": [],
      "name": "lpStaking",
      "outputs": [
        {
          "internalType": "contract INFTXLPStaking",
          "name": "",
          "type": "address"
        }
      ],
      "stateMutability": "view",
      "type": "function"
    },
    {
      "inputs": [],
      "name": "nftxFactory",
      "outputs": [
        {
          "internalType": "contract INFTXVaultFactory",
          "name": "",
          "type": "address"
        }
      ],
      "stateMutability": "view",
      "type": "function"
    },
    {
      "inputs": [
        {
          "internalType": "address",
          "name": "",
          "type": "address"
        },
        {
          "internalType": "address",
          "name": "",
          "type": "address"
        },
        {
          "internalType": "uint256[]",
          "name": "",
          "type": "uint256[]"
        },
        {
          "internalType": "uint256[]",
          "name": "",
          "type": "uint256[]"
        },
        {
          "internalType": "bytes",
          "name": "",
          "type": "bytes"
        }
      ],
      "name": "onERC1155BatchReceived",
      "outputs": [
        {
          "internalType": "bytes4",
          "name": "",
          "type": "bytes4"
        }
      ],
      "stateMutability": "nonpayable",
      "type": "function"
    },
    {
      "inputs": [
        {
          "internalType": "address",
          "name": "",
          "type": "address"
        },
        {
          "internalType": "address",
          "name": "",
          "type": "address"
        },
        {
          "internalType": "uint256",
          "name": "",
          "type": "uint256"
        },
        {
          "internalType": "uint256",
          "name": "",
          "type": "uint256"
        },
        {
          "internalType": "bytes",
          "name": "",
          "type": "bytes"
        }
      ],
      "name": "onERC1155Received",
      "outputs": [
        {
          "internalType": "bytes4",
          "name": "",
          "type": "bytes4"
        }
      ],
      "stateMutability": "nonpayable",
      "type": "function"
    },
    {
      "inputs": [
        {
          "internalType": "address",
          "name": "",
          "type": "address"
        },
        {
          "internalType": "address",
          "name": "",
          "type": "address"
        },
        {
          "internalType": "uint256",
          "name": "",
          "type": "uint256"
        },
        {
          "internalType": "bytes",
          "name": "",
          "type": "bytes"
        }
      ],
      "name": "onERC721Received",
      "outputs": [
        {
          "internalType": "bytes4",
          "name": "",
          "type": "bytes4"
        }
      ],
      "stateMutability": "nonpayable",
      "type": "function"
    },
    {
      "inputs": [],
      "name": "owner",
      "outputs": [
        {
          "internalType": "address",
          "name": "",
          "type": "address"
        }
      ],
      "stateMutability": "view",
      "type": "function"
    },
    {
      "inputs": [
        {
          "internalType": "uint256",
          "name": "vaultId",
          "type": "uint256"
        },
        {
          "internalType": "uint256[]",
          "name": "tokenIds",
          "type": "uint256[]"
        },
        {
          "internalType": "uint256[]",
          "name": "amounts",
          "type": "uint256[]"
        }
      ],
      "name": "provideInventory1155",
      "outputs": [],
      "stateMutability": "nonpayable",
      "type": "function"
    },
    {
      "inputs": [
        {
          "internalType": "uint256",
          "name": "vaultId",
          "type": "uint256"
        },
        {
          "internalType": "uint256[]",
          "name": "tokenIds",
          "type": "uint256[]"
        }
      ],
      "name": "provideInventory721",
      "outputs": [],
      "stateMutability": "nonpayable",
      "type": "function"
    },
    {
      "inputs": [],
      "name": "renounceOwnership",
      "outputs": [],
      "stateMutability": "nonpayable",
      "type": "function"
    },
    {
      "inputs": [
        {
          "internalType": "address",
          "name": "token",
          "type": "address"
        }
      ],
      "name": "rescue",
      "outputs": [],
      "stateMutability": "nonpayable",
      "type": "function"
    },
    {
      "inputs": [
        {
          "internalType": "uint256",
          "name": "newInventoryLockTime",
          "type": "uint256"
        }
      ],
      "name": "setInventoryLockTime",
      "outputs": [],
      "stateMutability": "nonpayable",
      "type": "function"
    },
    {
      "inputs": [
        {
          "internalType": "uint256",
          "name": "newLPLockTime",
          "type": "uint256"
        }
      ],
      "name": "setLPLockTime",
      "outputs": [],
      "stateMutability": "nonpayable",
      "type": "function"
    },
    {
      "inputs": [
        {
          "internalType": "address",
          "name": "addr",
          "type": "address"
        }
      ],
      "name": "setTimelockExcludeList",
      "outputs": [],
      "stateMutability": "nonpayable",
      "type": "function"
    },
    {
      "inputs": [
        {
          "internalType": "bytes4",
          "name": "interfaceId",
          "type": "bytes4"
        }
      ],
      "name": "supportsInterface",
      "outputs": [
        {
          "internalType": "bool",
          "name": "",
          "type": "bool"
        }
      ],
      "stateMutability": "view",
      "type": "function"
    },
    {
      "inputs": [],
      "name": "sushiRouter",
      "outputs": [
        {
          "internalType": "contract IUniswapV2Router01",
          "name": "",
          "type": "address"
        }
      ],
      "stateMutability": "view",
      "type": "function"
    },
    {
      "inputs": [],
      "name": "timelockExcludeList",
      "outputs": [
        {
          "internalType": "contract ITimelockExcludeList",
          "name": "",
          "type": "address"
        }
      ],
      "stateMutability": "view",
      "type": "function"
    },
    {
      "inputs": [
        {
          "internalType": "address",
          "name": "newOwner",
          "type": "address"
        }
      ],
      "name": "transferOwnership",
      "outputs": [],
      "stateMutability": "nonpayable",
      "type": "function"
    },
    {
      "stateMutability": "payable",
      "type": "receive"
    }
  ],
  "bytecode": "0x60e06040526202a30060055562093a806006553480156200001f57600080fd5b50604051620045b4380380620045b483398101604081905262000042916200059e565b6200004d3362000174565b600180556001600160a01b0380831660a052811660c0819052604080516315ab88c960e31b8152905163ad5c4648916004808201926020929091908290030181865afa158015620000a2573d6000803e3d6000fd5b505050506040513d601f19601f82011682018060405250810190620000c89190620005d6565b6001600160a01b03166080816001600160a01b0316815250506200016c81600019836001600160a01b031663ad5c46486040518163ffffffff1660e01b8152600401602060405180830381865afa15801562000128573d6000803e3d6000fd5b505050506040513d601f19601f820116820180604052508101906200014e9190620005d6565b6001600160a01b0316620001c460201b62001f16179092919060201c565b5050620006b8565b600080546001600160a01b038381166001600160a01b0319831681178455604051919092169283917f8be0079c531659141344cd1fd0a4f28419497f9722a3daafe3b4186f6b6457e09190a35050565b801580620002425750604051636eb1769f60e11b81523060048201526001600160a01b03838116602483015284169063dd62ed3e90604401602060405180830381865afa1580156200021a573d6000803e3d6000fd5b505050506040513d601f19601f82011682018060405250810190620002409190620005f4565b155b620002ba5760405162461bcd60e51b815260206004820152603660248201527f5361666545524332303a20617070726f76652066726f6d206e6f6e2d7a65726f60448201527f20746f206e6f6e2d7a65726f20616c6c6f77616e63650000000000000000000060648201526084015b60405180910390fd5b604080516001600160a01b038416602482015260448082018490528251808303909101815260649091019091526020810180516001600160e01b0390811663095ea7b360e01b17909152620003129185916200031716565b505050565b600062000373826040518060400160405280602081526020017f5361666545524332303a206c6f772d6c6576656c2063616c6c206661696c6564815250856001600160a01b0316620003f560201b62002063179092919060201c565b8051909150156200031257808060200190518101906200039491906200060e565b620003125760405162461bcd60e51b815260206004820152602a60248201527f5361666545524332303a204552433230206f7065726174696f6e20646964206e6044820152691bdd081cdd58d8d9595960b21b6064820152608401620002b1565b606062000406848460008562000410565b90505b9392505050565b606082471015620004735760405162461bcd60e51b815260206004820152602660248201527f416464726573733a20696e73756666696369656e742062616c616e636520666f6044820152651c8818d85b1b60d21b6064820152608401620002b1565b843b620004c35760405162461bcd60e51b815260206004820152601d60248201527f416464726573733a2063616c6c20746f206e6f6e2d636f6e74726163740000006044820152606401620002b1565b600080866001600160a01b03168587604051620004e1919062000665565b60006040518083038185875af1925050503d806000811462000520576040519150601f19603f3d011682016040523d82523d6000602084013e62000525565b606091505b5090925090506200053882828662000543565b979650505050505050565b606083156200055457508162000409565b825115620005655782518084602001fd5b8160405162461bcd60e51b8152600401620002b1919062000683565b80516001600160a01b03811681146200059957600080fd5b919050565b60008060408385031215620005b257600080fd5b620005bd8362000581565b9150620005cd6020840162000581565b90509250929050565b600060208284031215620005e957600080fd5b620004098262000581565b6000602082840312156200060757600080fd5b5051919050565b6000602082840312156200062157600080fd5b815180151581146200040957600080fd5b60005b838110156200064f57818101518382015260200162000635565b838111156200065f576000848401525b50505050565b600082516200067981846020870162000632565b9190910192915050565b6020815260008251806020840152620006a481604085016020870162000632565b601f01601f19169190910160400192915050565b60805160a05160c051613e3262000782600039600081816103fc01528181612c9b01528181612d350152612f880152600081816103c801528181610e0501528181610f0e0152818161110b015281816119df015281816120dc01528181612169015281816123df015261246c0152600081816101ec015281816105a10152818161071b015281816107950152818161091f0152818161099801528181611649015281816116fd01528181611829015281816118dc01528181612cde0152612dc40152613e326000f3fe6080604052600436106101dc5760003560e01c806384d5a23211610102578063ad402dfc11610095578063c46c4e8a11610064578063c46c4e8a14610602578063cd9d37b714610618578063f23a6e6114610638578063f2fde38b1461066457600080fd5b8063ad402dfc1461057c578063ad5c46481461058f578063bc197c81146105c3578063bdd8172b146105ef57600080fd5b806392054f8b116100d157806392054f8b146105065780639bf1401c146105265780639d2cbed014610546578063a7b128461461056657600080fd5b806384d5a23214610493578063881b2f2d146104b35780638da5cb5b146104d35780639199fc9c146104f157600080fd5b80634a5ff0611161017a578063715018a611610149578063715018a61461041e578063739697751461043357806374a1b0b014610453578063839006f21461047357600080fd5b80634a5ff0611461038357806353b573bf146103a35780635ee50f88146103b65780636d13582c146103ea57600080fd5b806311ad9d38116101b657806311ad9d38146102d4578063150b7a021461030c5780631809d2c2146103505780631a6907cd1461037057600080fd5b806301ffc9a714610251578063021001551461028657806310cde786146102b457600080fd5b3661024c57336001600160a01b037f0000000000000000000000000000000000000000000000000000000000000000161461024a5760405162461bcd60e51b815260206004820152600960248201526809edcd8f240ae8aa8960bb1b60448201526064015b60405180910390fd5b005b600080fd5b34801561025d57600080fd5b5061027161026c3660046131c1565b610684565b60405190151581526020015b60405180910390f35b34801561029257600080fd5b506102a66102a13660046132ba565b6106bb565b60405190815260200161027d565b3480156102c057600080fd5b506102a66102cf36600461334d565b610815565b3480156102e057600080fd5b506004546102f4906001600160a01b031681565b6040516001600160a01b03909116815260200161027d565b34801561031857600080fd5b5061033761032736600461343a565b630a85bd0160e11b949350505050565b6040516001600160e01b0319909116815260200161027d565b34801561035c57600080fd5b506102a661036b3660046134e9565b61082f565b6102a661037e366004613546565b610873565b34801561038f57600080fd5b506102a661039e366004613598565b6108bf565b6102a66103b1366004613606565b610a17565b3480156103c257600080fd5b506102f47f000000000000000000000000000000000000000000000000000000000000000081565b3480156103f657600080fd5b506102f47f000000000000000000000000000000000000000000000000000000000000000081565b34801561042a57600080fd5b5061024a610a96565b34801561043f57600080fd5b5061024a61044e366004613687565b610adb565b34801561045f57600080fd5b506003546102f4906001600160a01b031681565b34801561047f57600080fd5b5061024a61048e3660046136a0565b610b5c565b34801561049f57600080fd5b5061024a6104ae366004613687565b610c91565b3480156104bf57600080fd5b506102716104ce3660046136bd565b610d12565b3480156104df57600080fd5b506000546001600160a01b03166102f4565b3480156104fd57600080fd5b5061024a610dab565b34801561051257600080fd5b5061024a6105213660046136a0565b611011565b34801561053257600080fd5b506002546102f4906001600160a01b031681565b34801561055257600080fd5b5061024a6105613660046136e9565b61106c565b34801561057257600080fd5b506102a660055481565b6102a661058a366004613762565b6115f4565b34801561059b57600080fd5b506102f47f000000000000000000000000000000000000000000000000000000000000000081565b3480156105cf57600080fd5b506103376105de3660046137df565b63bc197c8160e01b95945050505050565b6102a66105fd36600461388c565b6117d4565b34801561060e57600080fd5b506102a660065481565b34801561062457600080fd5b5061024a6106333660046138ee565b6119c4565b34801561064457600080fd5b50610337610653366004613939565b63f23a6e6160e01b95945050505050565b34801561067057600080fd5b5061024a61067f3660046136a0565b611e6f565b60006001600160e01b03198216630271189760e51b14806106b557506301ffc9a760e01b6001600160e01b03198316145b92915050565b60006002600154036106df5760405162461bcd60e51b8152600401610241906139a1565b60026001556001600160a01b0382161580159061070557506001600160a01b0382163014155b61070e57600080fd5b6107436001600160a01b037f00000000000000000000000000000000000000000000000000000000000000001633308661207a565b6000806107548989898989896120b8565b92509250506000828661076791906139ee565b905080156108045760405163a9059cbb60e01b81526001600160a01b038681166004830152602482018390527f0000000000000000000000000000000000000000000000000000000000000000169063a9059cbb906044016020604051808303816000875af11580156107de573d6000803e3d6000fd5b505050506040513d601f19601f820116820180604052508101906108029190613a05565b505b506001805598975050505050505050565b60006108258686868686336106bb565b9695505050505050565b6000610825868686808060200260200160405190810160405280939291908181526020018383602002808284376000920191909152508892508791503390506108bf565b60006108b6858585808060200260200160405190810160405280939291908181526020018383602002808284376000920191909152508792503391506117d49050565b95945050505050565b60006002600154036108e35760405162461bcd60e51b8152600401610241906139a1565b60026001556001600160a01b0382161580159061090957506001600160a01b0382163014155b61091257600080fd5b6109476001600160a01b037f00000000000000000000000000000000000000000000000000000000000000001633308661207a565b60008061095788888888886123bb565b92509250506000828661096a91906139ee565b90508015610a075760405163a9059cbb60e01b81526001600160a01b038681166004830152602482018390527f0000000000000000000000000000000000000000000000000000000000000000169063a9059cbb906044016020604051808303816000875af11580156109e1573d6000803e3d6000fd5b505050506040513d601f19601f82011682018060405250810190610a059190613a05565b505b5060018055979650505050505050565b6000610a8b8787878080602002602001604051908101604052809392919081815260200183836020028082843760009201919091525050604080516020808b0282810182019093528a82529093508a9250899182918501908490808284376000920191909152508892503391506115f49050565b979650505050505050565b33610aa96000546001600160a01b031690565b6001600160a01b031614610acf5760405162461bcd60e51b815260040161024190613a27565b610ad9600061265f565b565b33610aee6000546001600160a01b031690565b6001600160a01b031614610b145760405162461bcd60e51b815260040161024190613a27565b62127500811115610b575760405162461bcd60e51b815260206004820152600d60248201526c4c6f636b20746f6f206c6f6e6760981b6044820152606401610241565b600655565b33610b6f6000546001600160a01b031690565b6001600160a01b031614610b955760405162461bcd60e51b815260040161024190613a27565b6001600160a01b038116610c0f57604051600090339047908381818185875af1925050503d8060008114610be5576040519150601f19603f3d011682016040523d82523d6000602084013e610bea565b606091505b5050905080610c0b5760405162461bcd60e51b815260040161024190613a5c565b5050565b6040516370a0823160e01b8152306004820152610c8e9033906001600160a01b038416906370a0823190602401602060405180830381865afa158015610c59573d6000803e3d6000fd5b505050506040513d601f19601f82011682018060405250810190610c7d9190613ab9565b6001600160a01b03841691906126af565b50565b33610ca46000546001600160a01b031690565b6001600160a01b031614610cca5760405162461bcd60e51b815260040161024190613a27565b62093a80811115610d0d5760405162461bcd60e51b815260206004820152600d60248201526c4c6f636b20746f6f206c6f6e6760981b6044820152606401610241565b600555565b6004546000906001600160a01b0316610d2d575060006106b5565b600480546040516340f4bdb360e11b81526001600160a01b0386811693820193909352602481018590529116906381e97b6690604401602060405180830381865afa158015610d80573d6000803e3d6000fd5b505050506040513d601f19601f82011682018060405250810190610da49190613a05565b9392505050565b6002546001600160a01b03161580610dcc57506003546001600160a01b0316155b610e035760405162461bcd60e51b81526020600482015260086024820152676e6f74207a65726f60c01b6044820152606401610241565b7f00000000000000000000000000000000000000000000000000000000000000006001600160a01b0316630d43e8ad6040518163ffffffff1660e01b8152600401602060405180830381865afa158015610e61573d6000803e3d6000fd5b505050506040513d601f19601f82011682018060405250810190610e859190613ad2565b6001600160a01b0316639bf1401c6040518163ffffffff1660e01b8152600401602060405180830381865afa158015610ec2573d6000803e3d6000fd5b505050506040513d601f19601f82011682018060405250810190610ee69190613ad2565b600260006101000a8154816001600160a01b0302191690836001600160a01b031602179055507f00000000000000000000000000000000000000000000000000000000000000006001600160a01b0316630d43e8ad6040518163ffffffff1660e01b8152600401602060405180830381865afa158015610f6a573d6000803e3d6000fd5b505050506040513d601f19601f82011682018060405250810190610f8e9190613ad2565b6001600160a01b03166374a1b0b06040518163ffffffff1660e01b8152600401602060405180830381865afa158015610fcb573d6000803e3d6000fd5b505050506040513d601f19601f82011682018060405250810190610fef9190613ad2565b600380546001600160a01b0319166001600160a01b0392909216919091179055565b336110246000546001600160a01b031690565b6001600160a01b03161461104a5760405162461bcd60e51b815260040161024190613a27565b600480546001600160a01b0319166001600160a01b0392909216919091179055565b828181146110af5760405162461bcd60e51b815260206004820152601060248201526f09cdee840cae2eac2d840d8cadccee8d60831b6044820152606401610241565b6000805b828110156110f1578484828181106110cd576110cd613aef565b90506020020135826110df9190613b05565b91506110ea81613b1d565b90506110b3565b506040516340d1b7db60e11b8152600481018890526000907f00000000000000000000000000000000000000000000000000000000000000006001600160a01b0316906381a36fb690602401602060405180830381865afa15801561115a573d6000803e3d6000fd5b505050506040513d601f19601f8201168201806040525081019061117e9190613ad2565b9050600061118c338a610d12565b6111985760065461119b565b60005b6003549091506001600160a01b0316632699f55a8a6111c2670de0b6b3a764000087613b36565b6040516001600160e01b031960e085901b16815260048101929092526024820152336044820152606481018490526084016020604051808303816000875af1158015611212573d6000803e3d6000fd5b505050506040513d601f19601f820116820180604052508101906112369190613ab9565b5060035460405162d3f20f60e21b8152600481018b90526000916001600160a01b03169063034fc83c90602401602060405180830381865afa158015611280573d6000803e3d6000fd5b505050506040513d601f19601f820116820180604052508101906112a49190613ad2565b6040516370a0823160e01b81526001600160a01b0380831660048301529192506000918516906370a0823190602401602060405180830381865afa1580156112f0573d6000803e3d6000fd5b505050506040513d601f19601f820116820180604052508101906113149190613ab9565b90506000846001600160a01b0316631ba46cfd6040518163ffffffff1660e01b8152600401602060405180830381865afa158015611356573d6000803e3d6000fd5b505050506040513d601f19601f8201168201806040525081019061137a9190613ad2565b9050806001600160a01b0316632eb2c2d633308e8e8e8e6040518763ffffffff1660e01b81526004016113b296959493929190613b8b565b600060405180830381600087803b1580156113cc57600080fd5b505af11580156113e0573d6000803e3d6000fd5b505060405163a22cb46560e01b81526001600160a01b038881166004830152600160248301528416925063a22cb4659150604401600060405180830381600087803b15801561142e57600080fd5b505af1158015611442573d6000803e3d6000fd5b5050604051635882017560e11b81526001600160a01b038816925063b10402ea915061147a908e908e908e908e908a90600401613bea565b6020604051808303816000875af1158015611499573d6000803e3d6000fd5b505050506040513d601f19601f820116820180604052508101906114bd9190613ab9565b506040516370a0823160e01b81526001600160a01b038481166004830152600091908716906370a0823190602401602060405180830381865afa158015611508573d6000803e3d6000fd5b505050506040513d601f19601f8201168201806040525081019061152c9190613ab9565b9050611540670de0b6b3a764000088613b36565b61154a9084613b05565b81146115935760405162461bcd60e51b8152602060048201526018602482015277125b98dbdc9c9958dd081d9d1bdad95b9cc81b5a5b9d195960421b6044820152606401610241565b600061159f8642613b05565b90507f9f69538b20901013ea360bae2dce4079d45308fcfed02b3f0768c9f70f4ba9c08e8e8e9050600084336040516115dc959493929190613c2c565b60405180910390a15050505050505050505050505050565b60006002600154036116185760405162461bcd60e51b8152600401610241906139a1565b60026001556001600160a01b0382161580159061163e57506001600160a01b0382163014155b61164757600080fd5b7f00000000000000000000000000000000000000000000000000000000000000006001600160a01b031663d0e30db0346040518263ffffffff1660e01b81526004016000604051808303818588803b1580156116a257600080fd5b505af11580156116b6573d6000803e3d6000fd5b50505050506000806116cc8888888834896120b8565b9250925050600082346116df91906139ee565b90508015610a0757604051632e1a7d4d60e01b8152600481018290527f00000000000000000000000000000000000000000000000000000000000000006001600160a01b031690632e1a7d4d90602401600060405180830381600087803b15801561174957600080fd5b505af115801561175d573d6000803e3d6000fd5b505050506000856001600160a01b03168260405160006040518083038185875af1925050503d80600081146117ae576040519150601f19603f3d011682016040523d82523d6000602084013e6117b3565b606091505b5050905080610a055760405162461bcd60e51b815260040161024190613a5c565b60006002600154036117f85760405162461bcd60e51b8152600401610241906139a1565b60026001556001600160a01b0382161580159061181e57506001600160a01b0382163014155b61182757600080fd5b7f00000000000000000000000000000000000000000000000000000000000000006001600160a01b031663d0e30db0346040518263ffffffff1660e01b81526004016000604051808303818588803b15801561188257600080fd5b505af1158015611896573d6000803e3d6000fd5b50505050506000806118ab87878734886123bb565b9250925050600082346118be91906139ee565b905080156119b557604051632e1a7d4d60e01b8152600481018290527f00000000000000000000000000000000000000000000000000000000000000006001600160a01b031690632e1a7d4d90602401600060405180830381600087803b15801561192857600080fd5b505af115801561193c573d6000803e3d6000fd5b505050506000856001600160a01b03168260405160006040518083038185875af1925050503d806000811461198d576040519150601f19603f3d011682016040523d82523d6000602084013e611992565b606091505b50509050806119b35760405162461bcd60e51b815260040161024190613a5c565b505b50600180559695505050505050565b6040516340d1b7db60e11b81526004810184905281906000907f00000000000000000000000000000000000000000000000000000000000000006001600160a01b0316906381a36fb690602401602060405180830381865afa158015611a2e573d6000803e3d6000fd5b505050506040513d601f19601f82011682018060405250810190611a529190613ad2565b90506000611a603387610d12565b611a6c57600654611a6f565b60005b6003549091506001600160a01b0316632699f55a87611a96670de0b6b3a764000087613b36565b6040516001600160e01b031960e085901b16815260048101929092526024820152336044820152606481018490526084016020604051808303816000875af1158015611ae6573d6000803e3d6000fd5b505050506040513d601f19601f82011682018060405250810190611b0a9190613ab9565b5060035460405162d3f20f60e21b8152600481018890526000916001600160a01b03169063034fc83c90602401602060405180830381865afa158015611b54573d6000803e3d6000fd5b505050506040513d601f19601f82011682018060405250810190611b789190613ad2565b6040516370a0823160e01b81526001600160a01b0380831660048301529192506000918516906370a0823190602401602060405180830381865afa158015611bc4573d6000803e3d6000fd5b505050506040513d601f19601f82011682018060405250810190611be89190613ab9565b60408051600080825260208201909252919250506000856001600160a01b0316631ba46cfd6040518163ffffffff1660e01b8152600401602060405180830381865afa158015611c3c573d6000803e3d6000fd5b505050506040513d601f19601f82011682018060405250810190611c609190613ad2565b90508760005b81811015611cc457611c91838c8c84818110611c8457611c84613aef565b905060200201358a6126df565b611cb483898d8d85818110611ca857611ca8613aef565b905060200201356129cb565b611cbd81613b1d565b9050611c66565b50604051635882017560e11b81526001600160a01b0388169063b10402ea90611cf7908d908d9088908b90600401613c93565b6020604051808303816000875af1158015611d16573d6000803e3d6000fd5b505050506040513d601f19601f82011682018060405250810190611d3a9190613ab9565b506040516370a0823160e01b81526001600160a01b038681166004830152600091908916906370a0823190602401602060405180830381865afa158015611d85573d6000803e3d6000fd5b505050506040513d601f19601f82011682018060405250810190611da99190613ab9565b9050611dbd670de0b6b3a76400008a613b36565b611dc79086613b05565b8114611e105760405162461bcd60e51b8152602060048201526018602482015277125b98dbdc9c9958dd081d9d1bdad95b9cc81b5a5b9d195960421b6044820152606401610241565b6000611e1c8842613b05565b6040519091507f9f69538b20901013ea360bae2dce4079d45308fcfed02b3f0768c9f70f4ba9c090611e58908f908e9060009086903390613c2c565b60405180910390a150505050505050505050505050565b33611e826000546001600160a01b031690565b6001600160a01b031614611ea85760405162461bcd60e51b815260040161024190613a27565b6001600160a01b038116611f0d5760405162461bcd60e51b815260206004820152602660248201527f4f776e61626c653a206e6577206f776e657220697320746865207a65726f206160448201526564647265737360d01b6064820152608401610241565b610c8e8161265f565b801580611f905750604051636eb1769f60e11b81523060048201526001600160a01b03838116602483015284169063dd62ed3e90604401602060405180830381865afa158015611f6a573d6000803e3d6000fd5b505050506040513d601f19601f82011682018060405250810190611f8e9190613ab9565b155b611ffb5760405162461bcd60e51b815260206004820152603660248201527f5361666545524332303a20617070726f76652066726f6d206e6f6e2d7a65726f60448201527520746f206e6f6e2d7a65726f20616c6c6f77616e636560501b6064820152608401610241565b6040516001600160a01b03831660248201526044810182905261205e90849063095ea7b360e01b906064015b60408051601f198184030181529190526020810180516001600160e01b03166001600160e01b031990931692909217909152612a99565b505050565b60606120728484600085612b6b565b949350505050565b6040516001600160a01b03808516602483015283166044820152606481018290526120b29085906323b872dd60e01b90608401612027565b50505050565b6040516306df336560e51b8152306004820152600090819081906001600160a01b037f0000000000000000000000000000000000000000000000000000000000000000169063dbe66ca090602401602060405180830381865afa158015612123573d6000803e3d6000fd5b505050506040513d601f19601f820116820180604052508101906121479190613a05565b61215057600080fd5b6040516340d1b7db60e11b8152600481018a90526000907f00000000000000000000000000000000000000000000000000000000000000006001600160a01b0316906381a36fb690602401602060405180830381865afa1580156121b8573d6000803e3d6000fd5b505050506040513d601f19601f820116820180604052508101906121dc9190613ad2565b90506000816001600160a01b0316631ba46cfd6040518163ffffffff1660e01b8152600401602060405180830381865afa15801561221e573d6000803e3d6000fd5b505050506040513d601f19601f820116820180604052508101906122429190613ad2565b604051631759616b60e11b81529091506001600160a01b03821690632eb2c2d69061227790339030908f908f90600401613cd3565b600060405180830381600087803b15801561229157600080fd5b505af11580156122a5573d6000803e3d6000fd5b505060405163a22cb46560e01b81526001600160a01b038581166004830152600160248301528416925063a22cb4659150604401600060405180830381600087803b1580156122f357600080fd5b505af1158015612307573d6000803e3d6000fd5b5050604051630f57464360e21b8152600092506001600160a01b0385169150633d5d190c9061233c908e908e90600401613d2e565b6020604051808303816000875af115801561235b573d6000803e3d6000fd5b505050506040513d601f19601f8201168201806040525081019061237f9190613ab9565b90506000612395670de0b6b3a764000083613b36565b90506123a58d85838d8d8d612c88565b9650965096505050505096509650969350505050565b6040516306df336560e51b8152306004820152600090819081906001600160a01b037f0000000000000000000000000000000000000000000000000000000000000000169063dbe66ca090602401602060405180830381865afa158015612426573d6000803e3d6000fd5b505050506040513d601f19601f8201168201806040525081019061244a9190613a05565b61245357600080fd5b6040516340d1b7db60e11b8152600481018990526000907f00000000000000000000000000000000000000000000000000000000000000006001600160a01b0316906381a36fb690602401602060405180830381865afa1580156124bb573d6000803e3d6000fd5b505050506040513d601f19601f820116820180604052508101906124df9190613ad2565b90506000816001600160a01b0316631ba46cfd6040518163ffffffff1660e01b8152600401602060405180830381865afa158015612521573d6000803e3d6000fd5b505050506040513d601f19601f820116820180604052508101906125459190613ad2565b895190915060005b818110156125af57612579838c838151811061256b5761256b613aef565b6020026020010151866126df565b61259d83858d848151811061259057612590613aef565b60200260200101516129cb565b806125a781613b1d565b91505061254d565b50604051630f57464360e21b81526060906001600160a01b03851690633d5d190c906125e1908e908590600401613d2e565b6020604051808303816000875af1158015612600573d6000803e3d6000fd5b505050506040513d601f19601f820116820180604052508101906126249190613ab9565b506000612639670de0b6b3a764000084613b36565b90506126498d86838e8e8e612c88565b9750975097505050505050955095509592505050565b600080546001600160a01b038381166001600160a01b0319831681178455604051919092169283917f8be0079c531659141344cd1fd0a4f28419497f9722a3daafe3b4186f6b6457e09190a35050565b6040516001600160a01b03831660248201526044810182905261205e90849063a9059cbb60e01b90606401612027565b7306012c8cf97bead5deae237070f9587f8e7a266d73b47e3cd837ddf8e4c57f05d70ab865de6e193bbb60607306012c8cf97bead5deae237070f9587f8e7a266c196001600160a01b03871601612783576040513360248201526001600160a01b03851660448201526064810186905260840160408051601f198184030181529190526020810180516001600160e01b03166323b872dd60e01b179052905061293e565b816001600160a01b0316866001600160a01b0316036128ef576000856040516024016127b191815260200190565b60408051601f198184030181529181526020820180516001600160e01b0316630b02f02d60e31b1790525190915060009081906001600160a01b038a16906127fa908590613d7f565b600060405180830381855afa9150503d8060008114612835576040519150601f19603f3d011682016040523d82523d6000602084013e61283a565b606091505b50915091506000818060200190518101906128559190613ad2565b905082801561286c57506001600160a01b03811633145b6128ac5760405162461bcd60e51b81526020600482015260116024820152702737ba103a34329027232a1037bbb732b960791b6044820152606401610241565b604051602481018a905260440160408051601f198184030181529190526020810180516001600160e01b031663104c9fd360e31b179052945061293e9350505050565b6040513360248201526001600160a01b03851660448201526064810186905260840160408051601f198184030181529190526020810180516001600160e01b0316632142170760e11b17905290505b600080876001600160a01b0316836040516129599190613d7f565b6000604051808303816000865af19150503d8060008114612996576040519150601f19603f3d011682016040523d82523d6000602084013e61299b565b606091505b50915091508181906129c05760405162461bcd60e51b81526004016102419190613d9b565b505050505050505050565b7306012c8cf97bead5deae237070f9587f8e7a266d73b47e3cd837ddf8e4c57f05d70ab865de6e193bbb60607306012c8cf97bead5deae237070f9587f8e7a266c196001600160a01b03871601612a2457505050505050565b816001600160a01b0316866001600160a01b031603612a915760405160248101859052600060448201526001600160a01b038616606482015260840160408051601f198184030181529190526020810180516001600160e01b031663bf31196f60e01b179052905061293e565b505050505050565b6000612aee826040518060400160405280602081526020017f5361666545524332303a206c6f772d6c6576656c2063616c6c206661696c6564815250856001600160a01b03166120639092919063ffffffff16565b80519091501561205e5780806020019051810190612b0c9190613a05565b61205e5760405162461bcd60e51b815260206004820152602a60248201527f5361666545524332303a204552433230206f7065726174696f6e20646964206e6044820152691bdd081cdd58d8d9595960b21b6064820152608401610241565b606082471015612bcc5760405162461bcd60e51b815260206004820152602660248201527f416464726573733a20696e73756666696369656e742062616c616e636520666f6044820152651c8818d85b1b60d21b6064820152608401610241565b843b612c1a5760405162461bcd60e51b815260206004820152601d60248201527f416464726573733a2063616c6c20746f206e6f6e2d636f6e74726163740000006044820152606401610241565b600080866001600160a01b03168587604051612c369190613d7f565b60006040518083038185875af1925050503d8060008114612c73576040519150601f19603f3d011682016040523d82523d6000602084013e612c78565b606091505b5091509150610a8b828286612f3a565b60008080612cc06001600160a01b0389167f000000000000000000000000000000000000000000000000000000000000000089611f16565b60405162e8e33760e81b81526001600160a01b0389811660048301527f00000000000000000000000000000000000000000000000000000000000000008116602483015260448201899052606482018790526084820189905260a482018890523060c48301524260e4830152600091829182917f00000000000000000000000000000000000000000000000000000000000000009091169063e8e3370090610104016060604051808303816000875af1158015612d81573d6000803e3d6000fd5b505050506040513d601f19601f82011682018060405250810190612da59190613dce565b6002549295509093509150612df8906001600160a01b031682612de88e7f0000000000000000000000000000000000000000000000000000000000000000612f73565b6001600160a01b03169190611f16565b6000612e04338e610d12565b612e1057600554612e13565b60005b9050600260009054906101000a90046001600160a01b03166001600160a01b0316636c9b95888e8a85856040518563ffffffff1660e01b8152600401612e7b94939291909384526001600160a01b039290921660208401526040830152606082015260800190565b600060405180830381600087803b158015612e9557600080fd5b505af1158015612ea9573d6000803e3d6000fd5b505050506000848c612ebb91906139ee565b90508015612ed757612ed76001600160a01b038e168a836126af565b6000612ee38342613b05565b90507f9f69538b20901013ea360bae2dce4079d45308fcfed02b3f0768c9f70f4ba9c08f8e86848e604051612f1c959493929190613c2c565b60405180910390a150939d929c50909a509098505050505050505050565b60608315612f49575081610da4565b825115612f595782518084602001fd5b8160405162461bcd60e51b81526004016102419190613d9b565b6000806000612f8285856130ca565b915091507f00000000000000000000000000000000000000000000000000000000000000006001600160a01b031663c45a01556040518163ffffffff1660e01b8152600401602060405180830381865afa158015612fe4573d6000803e3d6000fd5b505050506040513d601f19601f820116820180604052508101906130089190613ad2565b6040516bffffffffffffffffffffffff19606085811b8216602084015284901b166034820152604801604051602081830303815290604052805190602001206040516020016130a99291906001600160f81b0319815260609290921b6bffffffffffffffffffffffff1916600183015260158201527fe18a34eb0e04b04f7a0ac29a6e80748dca96319b42c54d679cb821dca90c6303603582015260550190565b60408051601f19818403018152919052805160209091012095945050505050565b600080826001600160a01b0316846001600160a01b03160361313c5760405162461bcd60e51b815260206004820152602560248201527f556e697377617056324c6962726172793a204944454e544943414c5f41444452604482015264455353455360d81b6064820152608401610241565b826001600160a01b0316846001600160a01b03161061315c57828461315f565b83835b90925090506001600160a01b0382166131ba5760405162461bcd60e51b815260206004820152601e60248201527f556e697377617056324c6962726172793a205a45524f5f4144445245535300006044820152606401610241565b9250929050565b6000602082840312156131d357600080fd5b81356001600160e01b031981168114610da457600080fd5b634e487b7160e01b600052604160045260246000fd5b604051601f8201601f191681016001600160401b0381118282101715613229576132296131eb565b604052919050565b600082601f83011261324257600080fd5b813560206001600160401b0382111561325d5761325d6131eb565b8160051b61326c828201613201565b928352848101820192828101908785111561328657600080fd5b83870192505b84831015610a8b5782358252918301919083019061328c565b6001600160a01b0381168114610c8e57600080fd5b60008060008060008060c087890312156132d357600080fd5b8635955060208701356001600160401b03808211156132f157600080fd5b6132fd8a838b01613231565b9650604089013591508082111561331357600080fd5b5061332089828a01613231565b945050606087013592506080870135915060a087013561333f816132a5565b809150509295509295509295565b600080600080600060a0868803121561336557600080fd5b8535945060208601356001600160401b038082111561338357600080fd5b61338f89838a01613231565b955060408801359150808211156133a557600080fd5b506133b288828901613231565b9598949750949560608101359550608001359392505050565b600082601f8301126133dc57600080fd5b81356001600160401b038111156133f5576133f56131eb565b613408601f8201601f1916602001613201565b81815284602083860101111561341d57600080fd5b816020850160208301376000918101602001919091529392505050565b6000806000806080858703121561345057600080fd5b843561345b816132a5565b9350602085013561346b816132a5565b92506040850135915060608501356001600160401b0381111561348d57600080fd5b613499878288016133cb565b91505092959194509250565b60008083601f8401126134b757600080fd5b5081356001600160401b038111156134ce57600080fd5b6020830191508360208260051b85010111156131ba57600080fd5b60008060008060006080868803121561350157600080fd5b8535945060208601356001600160401b0381111561351e57600080fd5b61352a888289016134a5565b9699909850959660408101359660609091013595509350505050565b6000806000806060858703121561355c57600080fd5b8435935060208501356001600160401b0381111561357957600080fd5b613585878288016134a5565b9598909750949560400135949350505050565b600080600080600060a086880312156135b057600080fd5b8535945060208601356001600160401b038111156135cd57600080fd5b6135d988828901613231565b945050604086013592506060860135915060808601356135f8816132a5565b809150509295509295909350565b6000806000806000806080878903121561361f57600080fd5b8635955060208701356001600160401b038082111561363d57600080fd5b6136498a838b016134a5565b9097509550604089013591508082111561366257600080fd5b5061366f89828a016134a5565b979a9699509497949695606090950135949350505050565b60006020828403121561369957600080fd5b5035919050565b6000602082840312156136b257600080fd5b8135610da4816132a5565b600080604083850312156136d057600080fd5b82356136db816132a5565b946020939093013593505050565b60008060008060006060868803121561370157600080fd5b8535945060208601356001600160401b038082111561371f57600080fd5b61372b89838a016134a5565b9096509450604088013591508082111561374457600080fd5b50613751888289016134a5565b969995985093965092949392505050565b600080600080600060a0868803121561377a57600080fd5b8535945060208601356001600160401b038082111561379857600080fd5b6137a489838a01613231565b955060408801359150808211156137ba57600080fd5b506137c788828901613231565b9350506060860135915060808601356135f8816132a5565b600080600080600060a086880312156137f757600080fd5b8535613802816132a5565b94506020860135613812816132a5565b935060408601356001600160401b038082111561382e57600080fd5b61383a89838a01613231565b9450606088013591508082111561385057600080fd5b61385c89838a01613231565b9350608088013591508082111561387257600080fd5b5061387f888289016133cb565b9150509295509295909350565b600080600080608085870312156138a257600080fd5b8435935060208501356001600160401b038111156138bf57600080fd5b6138cb87828801613231565b9350506040850135915060608501356138e3816132a5565b939692955090935050565b60008060006040848603121561390357600080fd5b8335925060208401356001600160401b0381111561392057600080fd5b61392c868287016134a5565b9497909650939450505050565b600080600080600060a0868803121561395157600080fd5b853561395c816132a5565b9450602086013561396c816132a5565b9350604086013592506060860135915060808601356001600160401b0381111561399557600080fd5b61387f888289016133cb565b6020808252601f908201527f5265656e7472616e637947756172643a207265656e7472616e742063616c6c00604082015260600190565b634e487b7160e01b600052601160045260246000fd5b600082821015613a0057613a006139d8565b500390565b600060208284031215613a1757600080fd5b81518015158114610da457600080fd5b6020808252818101527f4f776e61626c653a2063616c6c6572206973206e6f7420746865206f776e6572604082015260600190565b6020808252603a908201527f416464726573733a20756e61626c6520746f2073656e642076616c75652c207260408201527f6563697069656e74206d61792068617665207265766572746564000000000000606082015260800190565b600060208284031215613acb57600080fd5b5051919050565b600060208284031215613ae457600080fd5b8151610da4816132a5565b634e487b7160e01b600052603260045260246000fd5b60008219821115613b1857613b186139d8565b500190565b600060018201613b2f57613b2f6139d8565b5060010190565b6000816000190483118215151615613b5057613b506139d8565b500290565b81835260006001600160fb1b03831115613b6e57600080fd5b8260051b8083602087013760009401602001938452509192915050565b6001600160a01b0387811682528616602082015260a060408201819052600090613bb89083018688613b55565b8281036060840152613bcb818587613b55565b8381036080909401939093525050600081526020019695505050505050565b606081526000613bfe606083018789613b55565b8281036020840152613c11818688613b55565b91505060018060a01b03831660408301529695505050505050565b9485526020850193909352604084019190915260608301526001600160a01b0316608082015260a00190565b600081518084526020808501945080840160005b83811015613c8857815187529582019590820190600101613c6c565b509495945050505050565b606081526000613ca7606083018688613b55565b8281036020840152613cb98186613c58565b91505060018060a01b038316604083015295945050505050565b6001600160a01b0385811682528416602082015260a060408201819052600090613cff90830185613c58565b8281036060840152613d118185613c58565b838103608090940193909352505060008152602001949350505050565b604081526000613d416040830185613c58565b82810360208401526108b68185613c58565b60005b83811015613d6e578181015183820152602001613d56565b838111156120b25750506000910152565b60008251613d91818460208701613d53565b9190910192915050565b6020815260008251806020840152613dba816040850160208701613d53565b601f01601f19169190910160400192915050565b600080600060608486031215613de357600080fd5b835192506020840151915060408401519050925092509256fea2646970667358221220b7826504c1c669cfb7917707084f9333c401304edfeb2c44ecfb21fe71e15b6864736f6c634300080d0033",
  "linkReferences": {},
  "deployedLinkReferences": {}
}