{
  "_format": "hh-sol-artifact-1",
  "contractName": "RewardDistributionTokenUpgradeable",
  "sourceName": "contracts/solidity/token/RewardDistributionTokenUpgradeable.sol",
  "abi": [
    {
      "anonymous": false,
      "inputs": [
        {
          "indexed": true,
          "internalType": "address",
          "name": "owner",
          "type": "address"
        },
        {
          "indexed": true,
          "internalType": "address",
          "name": "spender",
          "type": "address"
        },
        {
          "indexed": false,
          "internalType": "uint256",
          "name": "value",
          "type": "uint256"
        }
      ],
      "name": "Approval",
      "type": "event"
    },
    {
      "anonymous": false,
      "inputs": [
        {
          "indexed": true,
          "internalType": "address",
          "name": "previousOwner",
          "type": "address"
        },
        {
          "indexed": true,
          "internalType": "address",
          "name": "newOwner",
          "type": "address"
        }
      ],
      "name": "OwnershipTransferred",
      "type": "event"
    },
    {
      "anonymous": false,
      "inputs": [
        {
          "indexed": true,
          "internalType": "address",
          "name": "to",
          "type": "address"
        },
        {
          "indexed": false,
          "internalType": "uint256",
          "name": "weiAmount",
          "type": "uint256"
        }
      ],
      "name": "RewardWithdrawn",
      "type": "event"
    },
    {
      "anonymous": false,
      "inputs": [
        {
          "indexed": true,
          "internalType": "address",
          "name": "from",
          "type": "address"
        },
        {
          "indexed": false,
          "internalType": "uint256",
          "name": "weiAmount",
          "type": "uint256"
        }
      ],
      "name": "RewardsDistributed",
      "type": "event"
    },
    {
      "anonymous": false,
      "inputs": [
        {
          "indexed": true,
          "internalType": "address",
          "name": "from",
          "type": "address"
        },
        {
          "indexed": true,
          "internalType": "address",
          "name": "to",
          "type": "address"
        },
        {
          "indexed": false,
          "internalType": "uint256",
          "name": "value",
          "type": "uint256"
        }
      ],
      "name": "Transfer",
      "type": "event"
    },
    {
      "inputs": [
        {
          "internalType": "contract IERC20Upgradeable",
          "name": "_target",
          "type": "address"
        },
        {
          "internalType": "string",
          "name": "_name",
          "type": "string"
        },
        {
          "internalType": "string",
          "name": "_symbol",
          "type": "string"
        }
      ],
      "name": "__RewardDistributionToken_init",
      "outputs": [],
      "stateMutability": "nonpayable",
      "type": "function"
    },
    {
      "inputs": [
        {
          "internalType": "address",
          "name": "_owner",
          "type": "address"
        }
      ],
      "name": "accumulativeRewardOf",
      "outputs": [
        {
          "internalType": "uint256",
          "name": "",
          "type": "uint256"
        }
      ],
      "stateMutability": "view",
      "type": "function"
    },
    {
      "inputs": [
        {
          "internalType": "address",
          "name": "owner",
          "type": "address"
        },
        {
          "internalType": "address",
          "name": "spender",
          "type": "address"
        }
      ],
      "name": "allowance",
      "outputs": [
        {
          "internalType": "uint256",
          "name": "",
          "type": "uint256"
        }
      ],
      "stateMutability": "view",
      "type": "function"
    },
    {
      "inputs": [
        {
          "internalType": "address",
          "name": "spender",
          "type": "address"
        },
        {
          "internalType": "uint256",
          "name": "amount",
          "type": "uint256"
        }
      ],
      "name": "approve",
      "outputs": [
        {
          "internalType": "bool",
          "name": "",
          "type": "bool"
        }
      ],
      "stateMutability": "nonpayable",
      "type": "function"
    },
    {
      "inputs": [
        {
          "internalType": "address",
          "name": "account",
          "type": "address"
        }
      ],
      "name": "balanceOf",
      "outputs": [
        {
          "internalType": "uint256",
          "name": "",
          "type": "uint256"
        }
      ],
      "stateMutability": "view",
      "type": "function"
    },
    {
      "inputs": [
        {
          "internalType": "address",
          "name": "account",
          "type": "address"
        },
        {
          "internalType": "uint256",
          "name": "amount",
          "type": "uint256"
        }
      ],
      "name": "burnFrom",
      "outputs": [],
      "stateMutability": "nonpayable",
      "type": "function"
    },
    {
      "inputs": [],
      "name": "decimals",
      "outputs": [
        {
          "internalType": "uint8",
          "name": "",
          "type": "uint8"
        }
      ],
      "stateMutability": "view",
      "type": "function"
    },
    {
      "inputs": [
        {
          "internalType": "address",
          "name": "spender",
          "type": "address"
        },
        {
          "internalType": "uint256",
          "name": "subtractedValue",
          "type": "uint256"
        }
      ],
      "name": "decreaseAllowance",
      "outputs": [
        {
          "internalType": "bool",
          "name": "",
          "type": "bool"
        }
      ],
      "stateMutability": "nonpayable",
      "type": "function"
    },
    {
      "inputs": [
        {
          "internalType": "uint256",
          "name": "amount",
          "type": "uint256"
        }
      ],
      "name": "distributeRewards",
      "outputs": [],
      "stateMutability": "nonpayable",
      "type": "function"
    },
    {
      "inputs": [
        {
          "internalType": "address",
          "name": "_owner",
          "type": "address"
        }
      ],
      "name": "dividendOf",
      "outputs": [
        {
          "internalType": "uint256",
          "name": "",
          "type": "uint256"
        }
      ],
      "stateMutability": "view",
      "type": "function"
    },
    {
      "inputs": [
        {
          "internalType": "address",
          "name": "spender",
          "type": "address"
        },
        {
          "internalType": "uint256",
          "name": "addedValue",
          "type": "uint256"
        }
      ],
      "name": "increaseAllowance",
      "outputs": [
        {
          "internalType": "bool",
          "name": "",
          "type": "bool"
        }
      ],
      "stateMutability": "nonpayable",
      "type": "function"
    },
    {
      "inputs": [
        {
          "internalType": "address",
          "name": "account",
          "type": "address"
        },
        {
          "internalType": "address",
          "name": "to",
          "type": "address"
        },
        {
          "internalType": "uint256",
          "name": "amount",
          "type": "uint256"
        }
      ],
      "name": "mint",
      "outputs": [],
      "stateMutability": "nonpayable",
      "type": "function"
    },
    {
      "inputs": [],
      "name": "name",
      "outputs": [
        {
          "internalType": "string",
          "name": "",
          "type": "string"
        }
      ],
      "stateMutability": "view",
      "type": "function"
    },
    {
      "inputs": [],
      "name": "owner",
      "outputs": [
        {
          "internalType": "address",
          "name": "",
          "type": "address"
        }
      ],
      "stateMutability": "view",
      "type": "function"
    },
    {
      "inputs": [],
      "name": "renounceOwnership",
      "outputs": [],
      "stateMutability": "nonpayable",
      "type": "function"
    },
    {
      "inputs": [],
      "name": "symbol",
      "outputs": [
        {
          "internalType": "string",
          "name": "",
          "type": "string"
        }
      ],
      "stateMutability": "view",
      "type": "function"
    },
    {
      "inputs": [],
      "name": "target",
      "outputs": [
        {
          "internalType": "contract IERC20Upgradeable",
          "name": "",
          "type": "address"
        }
      ],
      "stateMutability": "view",
      "type": "function"
    },
    {
      "inputs": [],
      "name": "totalSupply",
      "outputs": [
        {
          "internalType": "uint256",
          "name": "",
          "type": "uint256"
        }
      ],
      "stateMutability": "view",
      "type": "function"
    },
    {
      "inputs": [
        {
          "internalType": "address",
          "name": "recipient",
          "type": "address"
        },
        {
          "internalType": "uint256",
          "name": "amount",
          "type": "uint256"
        }
      ],
      "name": "transfer",
      "outputs": [
        {
          "internalType": "bool",
          "name": "",
          "type": "bool"
        }
      ],
      "stateMutability": "nonpayable",
      "type": "function"
    },
    {
      "inputs": [
        {
          "internalType": "address",
          "name": "sender",
          "type": "address"
        },
        {
          "internalType": "address",
          "name": "recipient",
          "type": "address"
        },
        {
          "internalType": "uint256",
          "name": "amount",
          "type": "uint256"
        }
      ],
      "name": "transferFrom",
      "outputs": [
        {
          "internalType": "bool",
          "name": "",
          "type": "bool"
        }
      ],
      "stateMutability": "nonpayable",
      "type": "function"
    },
    {
      "inputs": [
        {
          "internalType": "address",
          "name": "newOwner",
          "type": "address"
        }
      ],
      "name": "transferOwnership",
      "outputs": [],
      "stateMutability": "nonpayable",
      "type": "function"
    },
    {
      "inputs": [
        {
          "internalType": "address",
          "name": "user",
          "type": "address"
        }
      ],
      "name": "withdrawReward",
      "outputs": [],
      "stateMutability": "nonpayable",
      "type": "function"
    },
    {
      "inputs": [
        {
          "internalType": "address",
          "name": "_owner",
          "type": "address"
        }
      ],
      "name": "withdrawnRewardOf",
      "outputs": [
        {
          "internalType": "uint256",
          "name": "",
          "type": "uint256"
        }
      ],
      "stateMutability": "view",
      "type": "function"
    }
  ],
  "bytecode": "0x608060405234801561001057600080fd5b50611cd3806100206000396000f3fe608060405234801561001057600080fd5b506004361061014d5760003560e01c806379cc6790116100c3578063ad76d6861161007c578063ad76d686146102bf578063b86e321c146102e8578063c6c3bbe6146102fb578063d4b839921461030e578063dd62ed3e14610321578063f2fde38b1461035a57600080fd5b806379cc6790146102465780638da5cb5b1461025957806391b89fba1461027e57806395d89b4114610291578063a457c2d714610299578063a9059cbb146102ac57600080fd5b806323b872dd1161011557806323b872dd146101cd578063313ce567146101e057806339509351146101ef57806359974e381461020257806370a0823114610215578063715018a61461023e57600080fd5b806305b3ccb41461015257806306fdde031461017857806307f96bf51461018d578063095ea7b3146101a257806318160ddd146101c5575b600080fd5b610165610160366004611820565b61036d565b6040519081526020015b60405180910390f35b6101806103d0565b60405161016f9190611869565b6101a061019b36600461193f565b610462565b005b6101b56101b03660046119b5565b610507565b604051901515815260200161016f565b606754610165565b6101b56101db3660046119e1565b61051d565b6040516012815260200161016f565b6101b56101fd3660046119b5565b61056d565b6101a0610210366004611a22565b6105a4565b610165610223366004611820565b6001600160a01b031660009081526065602052604090205490565b6101a06106cc565b6101a06102543660046119b5565b610740565b6033546001600160a01b03165b6040516001600160a01b03909116815260200161016f565b61016561028c366004611820565b610778565b610180610783565b6101b56102a73660046119b5565b610792565b6101b56102ba3660046119b5565b610823565b6101656102cd366004611820565b6001600160a01b03166000908152609a602052604090205490565b6101a06102f6366004611820565b610830565b6101a06103093660046119e1565b610903565b609754610266906001600160a01b031681565b61016561032f366004611a3b565b6001600160a01b03918216600090815260666020908152604080832093909416825291909152205490565b6101a0610368366004611820565b61093d565b6001600160a01b0381166000908152609960209081526040808320546065909252822054609854600160801b926103c0926103bb926103b5916103b09190610a28565b610a34565b90610a9e565b610adc565b6103ca9190611a8a565b92915050565b6060606880546103df90611aac565b80601f016020809104026020016040519081016040528092919081815260200182805461040b90611aac565b80156104585780601f1061042d57610100808354040283529160200191610458565b820191906000526020600020905b81548152906001019060200180831161043b57829003601f168201915b5050505050905090565b600054610100900460ff168061047b575060005460ff16155b6104a05760405162461bcd60e51b815260040161049790611ae6565b60405180910390fd5b600054610100900460ff161580156104c2576000805461ffff19166101011790555b6104ca610aeb565b6104d48383610b67565b609780546001600160a01b0319166001600160a01b0386161790558015610501576000805461ff00191690555b50505050565b6000610514338484610be6565b50600192915050565b600061052a848484610d0b565b610562843361055d85604051806060016040528060288152602001611c76602891396105568a3361032f565b9190610da7565b610be6565b5060015b9392505050565b3360008181526066602090815260408083206001600160a01b0387168452909152812054909161051491859061055d908690611b34565b6033546001600160a01b031633146105ce5760405162461bcd60e51b815260040161049790611b4c565b60006105d960675490565b1161061d5760405162461bcd60e51b8152602060048201526014602482015273526577617264446973743a203020737570706c7960601b6044820152606401610497565b600081116106645760405162461bcd60e51b815260206004820152601460248201527314995dd85c99111a5cdd0e880c08185b5bdd5b9d60621b6044820152606401610497565b61069161067060675490565b61067e83600160801b610a28565b6106889190611a8a565b60985490610dd3565b60985560405181815233907fdf29796aad820e4bb192f3a8d631b76519bcd2cbe77cc85af20e9df53cece0869060200160405180910390a250565b6033546001600160a01b031633146106f65760405162461bcd60e51b815260040161049790611b4c565b6033546040516000916001600160a01b0316907f8be0079c531659141344cd1fd0a4f28419497f9722a3daafe3b4186f6b6457e0908390a3603380546001600160a01b0319169055565b6033546001600160a01b0316331461076a5760405162461bcd60e51b815260040161049790611b4c565b6107748282610ddf565b5050565b60006103ca82610e43565b6060606980546103df90611aac565b3360009081526066602090815260408083206001600160a01b0386168452909152812054828110156108145760405162461bcd60e51b815260206004820152602560248201527f45524332303a2064656372656173656420616c6c6f77616e63652062656c6f77604482015264207a65726f60d81b6064820152608401610497565b610562338561055d8685611b81565b6000610514338484610d0b565b6033546001600160a01b0316331461085a5760405162461bcd60e51b815260040161049790611b4c565b600061086582610e43565b90508015610774576001600160a01b0382166000908152609a60205260409020546108909082610dd3565b6001600160a01b038084166000908152609a60205260409020919091556097546108bc91168383610e6f565b816001600160a01b03167f1d3eee4ca001cff39eec6ec7615aacf2f2bd61791273830728ba00ccbd6e1337826040516108f791815260200190565b60405180910390a25050565b6033546001600160a01b0316331461092d5760405162461bcd60e51b815260040161049790611b4c565b610938838383610ec1565b505050565b6033546001600160a01b031633146109675760405162461bcd60e51b815260040161049790611b4c565b6001600160a01b0381166109cc5760405162461bcd60e51b815260206004820152602660248201527f4f776e61626c653a206e6577206f776e657220697320746865207a65726f206160448201526564647265737360d01b6064820152608401610497565b6033546040516001600160a01b038084169216907f8be0079c531659141344cd1fd0a4f28419497f9722a3daafe3b4186f6b6457e090600090a3603380546001600160a01b0319166001600160a01b0392909216919091179055565b60006105668284611b98565b6000600160ff1b8210610a9a5760405162461bcd60e51b815260206004820152602860248201527f53616665436173743a2076616c756520646f65736e27742066697420696e2061604482015267371034b73a191a9b60c11b6064820152608401610497565b5090565b600080610aab8385611bb7565b905060008312158015610abe5750838112155b80610ad35750600083128015610ad357508381125b61056657600080fd5b600080821215610a9a57600080fd5b600054610100900460ff1680610b04575060005460ff16155b610b205760405162461bcd60e51b815260040161049790611ae6565b600054610100900460ff16158015610b42576000805461ffff19166101011790555b610b4a610f26565b610b52610f90565b8015610b64576000805461ff00191690555b50565b600054610100900460ff1680610b80575060005460ff16155b610b9c5760405162461bcd60e51b815260040161049790611ae6565b600054610100900460ff16158015610bbe576000805461ffff19166101011790555b610bc6610f26565b610bd0838361103e565b8015610938576000805461ff0019169055505050565b6001600160a01b038316610c485760405162461bcd60e51b8152602060048201526024808201527f45524332303a20617070726f76652066726f6d20746865207a65726f206164646044820152637265737360e01b6064820152608401610497565b6001600160a01b038216610ca95760405162461bcd60e51b815260206004820152602260248201527f45524332303a20617070726f766520746f20746865207a65726f206164647265604482015261737360f01b6064820152608401610497565b6001600160a01b0383811660008181526066602090815260408083209487168084529482529182902085905590518481527f8c5be1e5ebec7d5bd14f71427d1e84f3dd0314c0f7b2291e5b200ac8c7c3b92591015b60405180910390a3505050565b610d168383836110d3565b6000610d306103b083609854610a2890919063ffffffff16565b6001600160a01b038516600090815260996020526040902054909150610d569082610a9e565b6001600160a01b038086166000908152609960205260408082209390935590851681522054610d8590826112ab565b6001600160a01b03909316600090815260996020526040902092909255505050565b60008184841115610dcb5760405162461bcd60e51b81526004016104979190611869565b505050900390565b60006105668284611b34565b610de982826112f7565b610e23610e046103b083609854610a2890919063ffffffff16565b6001600160a01b03841660009081526099602052604090205490610a9e565b6001600160a01b0390921660009081526099602052604090209190915550565b6001600160a01b0381166000908152609a60205260408120546103ca90610e698461036d565b90611446565b604080516001600160a01b038416602482015260448082018490528251808303909101815260649091019091526020810180516001600160e01b031663a9059cbb60e01b179052610938908490611452565b610ecb8282611524565b610f05610ee66103b083609854610a2890919063ffffffff16565b6001600160a01b038516600090815260996020526040902054906112ab565b6001600160a01b039093166000908152609960205260409020929092555050565b600054610100900460ff1680610f3f575060005460ff16155b610f5b5760405162461bcd60e51b815260040161049790611ae6565b600054610100900460ff16158015610b52576000805461ffff19166101011790558015610b64576000805461ff001916905550565b600054610100900460ff1680610fa9575060005460ff16155b610fc55760405162461bcd60e51b815260040161049790611ae6565b600054610100900460ff16158015610fe7576000805461ffff19166101011790555b603380546001600160a01b0319163390811790915560405181906000907f8be0079c531659141344cd1fd0a4f28419497f9722a3daafe3b4186f6b6457e0908290a3508015610b64576000805461ff001916905550565b600054610100900460ff1680611057575060005460ff16155b6110735760405162461bcd60e51b815260040161049790611ae6565b600054610100900460ff16158015611095576000805461ffff19166101011790555b82516110a890606890602086019061177b565b5081516110bc90606990602085019061177b565b508015610938576000805461ff0019169055505050565b6001600160a01b0383166111375760405162461bcd60e51b815260206004820152602560248201527f45524332303a207472616e736665722066726f6d20746865207a65726f206164604482015264647265737360d81b6064820152608401610497565b6001600160a01b0382166111995760405162461bcd60e51b815260206004820152602360248201527f45524332303a207472616e7366657220746f20746865207a65726f206164647260448201526265737360e81b6064820152608401610497565b6001600160a01b038316600090815260656020526040902054818110156112115760405162461bcd60e51b815260206004820152602660248201527f45524332303a207472616e7366657220616d6f756e7420657863656564732062604482015265616c616e636560d01b6064820152608401610497565b61121b8282611b81565b6001600160a01b038086166000908152606560205260408082209390935590851681529081208054849290611251908490611b34565b92505081905550826001600160a01b0316846001600160a01b03167fddf252ad1be2c89b69c2b068fc378daa952ba7f163c4a11628f55a4df523b3ef8460405161129d91815260200190565b60405180910390a350505050565b60008082121580156112c65750826112c38382611bf8565b13155b806112e457506000821280156112e45750826112e28382611bf8565b135b6112ed57600080fd5b6105668284611bf8565b6001600160a01b0382166113575760405162461bcd60e51b815260206004820152602160248201527f45524332303a206275726e2066726f6d20746865207a65726f206164647265736044820152607360f81b6064820152608401610497565b6001600160a01b038216600090815260656020526040902054818110156113cb5760405162461bcd60e51b815260206004820152602260248201527f45524332303a206275726e20616d6f756e7420657863656564732062616c616e604482015261636560f01b6064820152608401610497565b6113d58282611b81565b6001600160a01b03841660009081526065602052604081209190915560678054849290611403908490611b81565b90915550506040518281526000906001600160a01b038516907fddf252ad1be2c89b69c2b068fc378daa952ba7f163c4a11628f55a4df523b3ef90602001610cfe565b60006105668284611b81565b60006114a7826040518060400160405280602081526020017f5361666545524332303a206c6f772d6c6576656c2063616c6c206661696c6564815250856001600160a01b03166116039092919063ffffffff16565b80519091501561093857808060200190518101906114c59190611c37565b6109385760405162461bcd60e51b815260206004820152602a60248201527f5361666545524332303a204552433230206f7065726174696f6e20646964206e6044820152691bdd081cdd58d8d9595960b21b6064820152608401610497565b6001600160a01b03821661157a5760405162461bcd60e51b815260206004820152601f60248201527f45524332303a206d696e7420746f20746865207a65726f2061646472657373006044820152606401610497565b806067600082825461158c9190611b34565b90915550506001600160a01b038216600090815260656020526040812080548392906115b9908490611b34565b90915550506040518181526001600160a01b038316906000907fddf252ad1be2c89b69c2b068fc378daa952ba7f163c4a11628f55a4df523b3ef9060200160405180910390a35050565b6060611612848460008561161a565b949350505050565b60608247101561167b5760405162461bcd60e51b815260206004820152602660248201527f416464726573733a20696e73756666696369656e742062616c616e636520666f6044820152651c8818d85b1b60d21b6064820152608401610497565b843b6116c95760405162461bcd60e51b815260206004820152601d60248201527f416464726573733a2063616c6c20746f206e6f6e2d636f6e74726163740000006044820152606401610497565b600080866001600160a01b031685876040516116e59190611c59565b60006040518083038185875af1925050503d8060008114611722576040519150601f19603f3d011682016040523d82523d6000602084013e611727565b606091505b5091509150611737828286611742565b979650505050505050565b60608315611751575081610566565b8251156117615782518084602001fd5b8160405162461bcd60e51b81526004016104979190611869565b82805461178790611aac565b90600052602060002090601f0160209004810192826117a957600085556117ef565b82601f106117c257805160ff19168380011785556117ef565b828001600101855582156117ef579182015b828111156117ef5782518255916020019190600101906117d4565b50610a9a9291505b80821115610a9a57600081556001016117f7565b6001600160a01b0381168114610b6457600080fd5b60006020828403121561183257600080fd5b81356105668161180b565b60005b83811015611858578181015183820152602001611840565b838111156105015750506000910152565b602081526000825180602084015261188881604085016020870161183d565b601f01601f19169190910160400192915050565b634e487b7160e01b600052604160045260246000fd5b600082601f8301126118c357600080fd5b813567ffffffffffffffff808211156118de576118de61189c565b604051601f8301601f19908116603f011681019082821181831017156119065761190661189c565b8160405283815286602085880101111561191f57600080fd5b836020870160208301376000602085830101528094505050505092915050565b60008060006060848603121561195457600080fd5b833561195f8161180b565b9250602084013567ffffffffffffffff8082111561197c57600080fd5b611988878388016118b2565b9350604086013591508082111561199e57600080fd5b506119ab868287016118b2565b9150509250925092565b600080604083850312156119c857600080fd5b82356119d38161180b565b946020939093013593505050565b6000806000606084860312156119f657600080fd5b8335611a018161180b565b92506020840135611a118161180b565b929592945050506040919091013590565b600060208284031215611a3457600080fd5b5035919050565b60008060408385031215611a4e57600080fd5b8235611a598161180b565b91506020830135611a698161180b565b809150509250929050565b634e487b7160e01b600052601160045260246000fd5b600082611aa757634e487b7160e01b600052601260045260246000fd5b500490565b600181811c90821680611ac057607f821691505b602082108103611ae057634e487b7160e01b600052602260045260246000fd5b50919050565b6020808252602e908201527f496e697469616c697a61626c653a20636f6e747261637420697320616c72656160408201526d191e481a5b9a5d1a585b1a5e995960921b606082015260800190565b60008219821115611b4757611b47611a74565b500190565b6020808252818101527f4f776e61626c653a2063616c6c6572206973206e6f7420746865206f776e6572604082015260600190565b600082821015611b9357611b93611a74565b500390565b6000816000190483118215151615611bb257611bb2611a74565b500290565b600080821280156001600160ff1b0384900385131615611bd957611bd9611a74565b600160ff1b8390038412811615611bf257611bf2611a74565b50500190565b60008083128015600160ff1b850184121615611c1657611c16611a74565b6001600160ff1b0384018313811615611c3157611c31611a74565b50500390565b600060208284031215611c4957600080fd5b8151801515811461056657600080fd5b60008251611c6b81846020870161183d565b919091019291505056fe45524332303a207472616e7366657220616d6f756e74206578636565647320616c6c6f77616e6365a26469706673582212203d33ba3e0ba7da88d4a7a853cfac6aa0ddf2b408040844634d3211757a879c1764736f6c634300080d0033",
  "linkReferences": {},
  "deployedLinkReferences": {}
}