{
  "_format": "hh-sol-artifact-1",
  "contractName": "MockNFTXENSMerkleEligibility",
  "sourceName": "contracts/solidity/testing/MockENSMerkleEligibility.sol",
  "abi": [
    {
      "inputs": [
        {
          "internalType": "uint256",
          "name": "_minExpirationTime",
          "type": "uint256"
        }
      ],
      "stateMutability": "nonpayable",
      "type": "constructor"
    },
    {
      "anonymous": false,
      "inputs": [
        {
          "indexed": false,
          "internalType": "bytes32",
          "name": "merkleRoot",
          "type": "bytes32"
        },
        {
          "indexed": false,
          "internalType": "string",
          "name": "_merkleReference",
          "type": "string"
        },
        {
          "indexed": false,
          "internalType": "string",
          "name": "_merkleLeavesURI",
          "type": "string"
        }
      ],
      "name": "NFTXEligibilityInit",
      "type": "event"
    },
    {
      "anonymous": false,
      "inputs": [
        {
          "indexed": false,
          "internalType": "uint256",
          "name": "tokenId",
          "type": "uint256"
        },
        {
          "indexed": false,
          "internalType": "bytes32",
          "name": "requestId",
          "type": "bytes32"
        },
        {
          "indexed": false,
          "internalType": "bool",
          "name": "isValid",
          "type": "bool"
        }
      ],
      "name": "PrecursoryCheckComplete",
      "type": "event"
    },
    {
      "anonymous": false,
      "inputs": [
        {
          "indexed": false,
          "internalType": "uint256",
          "name": "tokenId",
          "type": "uint256"
        },
        {
          "indexed": false,
          "internalType": "bytes32",
          "name": "requestId",
          "type": "bytes32"
        }
      ],
      "name": "PrecursoryCheckStarted",
      "type": "event"
    },
    {
      "inputs": [
        {
          "internalType": "bytes32",
          "name": "_merkleRoot",
          "type": "bytes32"
        },
        {
          "internalType": "string",
          "name": "_merkleReference",
          "type": "string"
        },
        {
          "internalType": "string",
          "name": "_merkleLeavesURI",
          "type": "string"
        }
      ],
      "name": "__NFTXEligibility_init",
      "outputs": [],
      "stateMutability": "nonpayable",
      "type": "function"
    },
    {
      "inputs": [
        {
          "internalType": "bytes",
          "name": "configData",
          "type": "bytes"
        }
      ],
      "name": "__NFTXEligibility_init_bytes",
      "outputs": [],
      "stateMutability": "nonpayable",
      "type": "function"
    },
    {
      "inputs": [
        {
          "internalType": "uint256[]",
          "name": "tokenIds",
          "type": "uint256[]"
        }
      ],
      "name": "afterMintHook",
      "outputs": [],
      "stateMutability": "nonpayable",
      "type": "function"
    },
    {
      "inputs": [
        {
          "internalType": "uint256[]",
          "name": "tokenIds",
          "type": "uint256[]"
        }
      ],
      "name": "afterRedeemHook",
      "outputs": [],
      "stateMutability": "nonpayable",
      "type": "function"
    },
    {
      "inputs": [
        {
          "internalType": "uint256[]",
          "name": "tokenIds",
          "type": "uint256[]"
        }
      ],
      "name": "beforeMintHook",
      "outputs": [],
      "stateMutability": "nonpayable",
      "type": "function"
    },
    {
      "inputs": [
        {
          "internalType": "uint256[]",
          "name": "tokenIds",
          "type": "uint256[]"
        }
      ],
      "name": "beforeRedeemHook",
      "outputs": [],
      "stateMutability": "nonpayable",
      "type": "function"
    },
    {
      "inputs": [
        {
          "internalType": "uint256[]",
          "name": "tokenIds",
          "type": "uint256[]"
        }
      ],
      "name": "checkAllEligible",
      "outputs": [
        {
          "internalType": "bool",
          "name": "",
          "type": "bool"
        }
      ],
      "stateMutability": "view",
      "type": "function"
    },
    {
      "inputs": [
        {
          "internalType": "uint256[]",
          "name": "tokenIds",
          "type": "uint256[]"
        }
      ],
      "name": "checkAllIneligible",
      "outputs": [
        {
          "internalType": "bool",
          "name": "",
          "type": "bool"
        }
      ],
      "stateMutability": "view",
      "type": "function"
    },
    {
      "inputs": [
        {
          "internalType": "uint256[]",
          "name": "tokenIds",
          "type": "uint256[]"
        }
      ],
      "name": "checkEligible",
      "outputs": [
        {
          "internalType": "bool[]",
          "name": "",
          "type": "bool[]"
        }
      ],
      "stateMutability": "view",
      "type": "function"
    },
    {
      "inputs": [
        {
          "internalType": "uint256",
          "name": "tokenId",
          "type": "uint256"
        }
      ],
      "name": "checkIsEligible",
      "outputs": [
        {
          "internalType": "bool",
          "name": "",
          "type": "bool"
        }
      ],
      "stateMutability": "view",
      "type": "function"
    },
    {
      "inputs": [],
      "name": "finalized",
      "outputs": [
        {
          "internalType": "bool",
          "name": "",
          "type": "bool"
        }
      ],
      "stateMutability": "view",
      "type": "function"
    },
    {
      "inputs": [],
      "name": "merkleLeavesURI",
      "outputs": [
        {
          "internalType": "string",
          "name": "",
          "type": "string"
        }
      ],
      "stateMutability": "view",
      "type": "function"
    },
    {
      "inputs": [],
      "name": "merkleReference",
      "outputs": [
        {
          "internalType": "string",
          "name": "",
          "type": "string"
        }
      ],
      "stateMutability": "view",
      "type": "function"
    },
    {
      "inputs": [],
      "name": "merkleRoot",
      "outputs": [
        {
          "internalType": "bytes32",
          "name": "",
          "type": "bytes32"
        }
      ],
      "stateMutability": "view",
      "type": "function"
    },
    {
      "inputs": [],
      "name": "name",
      "outputs": [
        {
          "internalType": "string",
          "name": "",
          "type": "string"
        }
      ],
      "stateMutability": "pure",
      "type": "function"
    },
    {
      "inputs": [
        {
          "internalType": "uint256",
          "name": "tokenId",
          "type": "uint256"
        },
        {
          "internalType": "bytes32[]",
          "name": "merkleProof",
          "type": "bytes32[]"
        }
      ],
      "name": "processToken",
      "outputs": [
        {
          "internalType": "bool",
          "name": "isValid",
          "type": "bool"
        }
      ],
      "stateMutability": "nonpayable",
      "type": "function"
    },
    {
      "inputs": [
        {
          "internalType": "uint256[]",
          "name": "tokenIds",
          "type": "uint256[]"
        },
        {
          "internalType": "bytes32[][]",
          "name": "merkleProofs",
          "type": "bytes32[][]"
        }
      ],
      "name": "processTokens",
      "outputs": [
        {
          "internalType": "bool[]",
          "name": "",
          "type": "bool[]"
        }
      ],
      "stateMutability": "nonpayable",
      "type": "function"
    },
    {
      "inputs": [
        {
          "internalType": "uint256",
          "name": "tokenId",
          "type": "uint256"
        },
        {
          "internalType": "bytes32[]",
          "name": "merkleProof",
          "type": "bytes32[]"
        }
      ],
      "name": "requiresProcessing",
      "outputs": [
        {
          "internalType": "bool",
          "name": "",
          "type": "bool"
        }
      ],
      "stateMutability": "view",
      "type": "function"
    },
    {
      "inputs": [],
      "name": "targetAsset",
      "outputs": [
        {
          "internalType": "address",
          "name": "",
          "type": "address"
        }
      ],
      "stateMutability": "pure",
      "type": "function"
    },
    {
      "inputs": [
        {
          "internalType": "bytes32",
          "name": "",
          "type": "bytes32"
        }
      ],
      "name": "validTokenHashes",
      "outputs": [
        {
          "internalType": "bool",
          "name": "",
          "type": "bool"
        }
      ],
      "stateMutability": "view",
      "type": "function"
    }
  ],
  "bytecode": "0x608060405234801561001057600080fd5b506040516111a53803806111a583398101604081905261002f91610037565b600655610050565b60006020828403121561004957600080fd5b5051919050565b6111468061005f6000396000f3fe608060405234801561001057600080fd5b506004361061012c5760003560e01c806383033818116100ad578063bd8affde11610071578063bd8affde1461018a578063c5fa137514610276578063ca373f2814610289578063d2a096e81461029c578063f3c6ce7a146102af57600080fd5b8063830338181461020357806384ca9f8514610226578063a25a38ed14610239578063afeaaf4b1461025c578063b3f05b971461026f57600080fd5b80634998b7f3116100f45780634998b7f3146101c85780635b88331e146101db5780635e2f9b521461018a5780636c47d5951461018a5780636cd91260146101e357600080fd5b806306fdde03146101315780632eb4a7ab1461017357806336eb08621461018a5780633d4403ac1461019e5780633eea06d4146101c0575b600080fd5b604080518082019091526014815273454e534d65726b6c65456c69676962696c69747960601b60208201525b60405161016a9190610b48565b60405180910390f35b61017c60035481565b60405190815260200161016a565b61019c610198366004610ba6565b5050565b005b6040517357f1887a8bf19b14fc0df6fd9b2acc9af147ea85815260200161016a565b61015d6102c2565b61019c6101d6366004610c92565b610350565b61015d6103f2565b6101f66101f1366004610ba6565b6103ff565b60405161016a9190610cda565b610216610211366004610d20565b6104b3565b604051901515815260200161016a565b610216610234366004610ba6565b61052d565b610216610247366004610d6b565b60016020526000908152604090205460ff1681565b6101f661026a366004610d84565b61057b565b6001610216565b610216610284366004610d20565b610644565b610216610297366004610ba6565b610750565b6102166102aa366004610d6b565b610794565b61019c6102bd366004610e0f565b61079f565b600480546102cf90610e7b565b80601f01602080910402602001604051908101604052809291908181526020018280546102fb90610e7b565b80156103485780601f1061031d57610100808354040283529160200191610348565b820191906000526020600020905b81548152906001019060200180831161032b57829003601f168201915b505050505081565b600054610100900460ff1680610369575060005460ff16155b61038e5760405162461bcd60e51b815260040161038590610eb5565b60405180910390fd5b600054610100900460ff161580156103b0576000805461ffff19166101011790555b6000806000848060200190518101906103c99190610f48565b9250925092506103da83838361079f565b5050508015610198576000805461ff00191690555050565b600580546102cf90610e7b565b6060816000816001600160401b0381111561041c5761041c610be7565b604051908082528060200260200182016040528015610445578160200160208202803683370190505b50905060005b828110156104a85761047486868381811061046857610468610faa565b90506020020135610876565b82828151811061048657610486610faa565b91151560209283029190910190910152806104a081610fd6565b91505061044b565b509150505b92915050565b6000600260006104c28661089f565b8152602001908152602001600020600061050e8585808060200260200160405190810160405280939291908181526020018383602002808284376000920191909152506108b892505050565b815260208101919091526040016000205460ff161590505b9392505050565b600081815b818110156105705761054f85858381811061046857610468610faa565b61055e576000925050506104ad565b8061056881610fd6565b915050610532565b506001949350505050565b6060836000816001600160401b0381111561059857610598610be7565b6040519080825280602002602001820160405280156105c1578160200160208202803683370190505b50905060005b828110156106395761060f8888838181106105e4576105e4610faa565b905060200201358787848181106105fd576105fd610faa565b90506020028101906102849190610fef565b82828151811061062157610621610faa565b911515602092830291909101909101526001016105c7565b509695505050505050565b60006106518484846104b3565b6106655761065e84610876565b9050610526565b60006106708561089f565b90506106b38484808060200260200160405190810160405280939291908181526020018383602002808284376000920191909152505060035491508490506108e8565b915081156106d6576000818152600160205260409020805460ff19168315151790555b60016002600083815260200190815260200160002060006107298787808060200260200160405190810160405280939291908181526020018383602002808284376000920191909152506108b892505050565b81526020810191909152604001600020805460ff1916911515919091179055509392505050565b600081815b818110156105705761077285858381811061046857610468610faa565b15610782576000925050506104ad565b8061078c81610fd6565b915050610755565b60006104ad82610876565b600054610100900460ff16806107b8575060005460ff16155b6107d45760405162461bcd60e51b815260040161038590610eb5565b600054610100900460ff161580156107f6576000805461ffff19166101011790555b6003849055825161080e906004906020860190610a57565b508151610822906005906020850190610a57565b507feaccdf52e14d5053012b2bacdc83bfc609cca17cd4b8843968b9ab7f41eb684184848460405161085693929190611038565b60405180910390a18015610870576000805461ff00191690555b50505050565b6000600160006108858461089f565b815260208101919091526040016000205460ff1692915050565b60006108aa8261092e565b805190602001209050919050565b6000816040516020016108cb919061106d565b604051602081830303815290604052805190602001209050919050565b600081815b8551811015610923576109198287838151811061090c5761090c610faa565b6020026020010151610a2b565b91506001016108ed565b509092149392505050565b6060816000036109555750506040805180820190915260018152600360fc1b602082015290565b8160005b81156109745760010161096d600a836110b9565b9150610959565b6000816001600160401b0381111561098e5761098e610be7565b6040519080825280601f01601f1916602001820160405280156109b8576020820181803683370190505b5090505b8415610a23576109cd6001836110cd565b91506109da600a866110e4565b6109e59060306110f8565b60f81b8183815181106109fa576109fa610faa565b60200101906001600160f81b031916908160001a905350610a1c600a866110b9565b94506109bc565b949350505050565b6000818310610a47576000828152602084905260409020610526565b5060009182526020526040902090565b828054610a6390610e7b565b90600052602060002090601f016020900481019282610a855760008555610acb565b82601f10610a9e57805160ff1916838001178555610acb565b82800160010185558215610acb579182015b82811115610acb578251825591602001919060010190610ab0565b50610ad7929150610adb565b5090565b5b80821115610ad75760008155600101610adc565b60005b83811015610b0b578181015183820152602001610af3565b838111156108705750506000910152565b60008151808452610b34816020860160208601610af0565b601f01601f19169290920160200192915050565b6020815260006105266020830184610b1c565b60008083601f840112610b6d57600080fd5b5081356001600160401b03811115610b8457600080fd5b6020830191508360208260051b8501011115610b9f57600080fd5b9250929050565b60008060208385031215610bb957600080fd5b82356001600160401b03811115610bcf57600080fd5b610bdb85828601610b5b565b90969095509350505050565b634e487b7160e01b600052604160045260246000fd5b604051601f8201601f191681016001600160401b0381118282101715610c2557610c25610be7565b604052919050565b60006001600160401b03821115610c4657610c46610be7565b50601f01601f191660200190565b6000610c67610c6284610c2d565b610bfd565b9050828152838383011115610c7b57600080fd5b828260208301376000602084830101529392505050565b600060208284031215610ca457600080fd5b81356001600160401b03811115610cba57600080fd5b8201601f81018413610ccb57600080fd5b610a2384823560208401610c54565b6020808252825182820181905260009190848201906040850190845b81811015610d14578351151583529284019291840191600101610cf6565b50909695505050505050565b600080600060408486031215610d3557600080fd5b8335925060208401356001600160401b03811115610d5257600080fd5b610d5e86828701610b5b565b9497909650939450505050565b600060208284031215610d7d57600080fd5b5035919050565b60008060008060408587031215610d9a57600080fd5b84356001600160401b0380821115610db157600080fd5b610dbd88838901610b5b565b90965094506020870135915080821115610dd657600080fd5b50610de387828801610b5b565b95989497509550505050565b600082601f830112610e0057600080fd5b61052683833560208501610c54565b600080600060608486031215610e2457600080fd5b8335925060208401356001600160401b0380821115610e4257600080fd5b610e4e87838801610def565b93506040860135915080821115610e6457600080fd5b50610e7186828701610def565b9150509250925092565b600181811c90821680610e8f57607f821691505b602082108103610eaf57634e487b7160e01b600052602260045260246000fd5b50919050565b6020808252602e908201527f496e697469616c697a61626c653a20636f6e747261637420697320616c72656160408201526d191e481a5b9a5d1a585b1a5e995960921b606082015260800190565b600082601f830112610f1457600080fd5b8151610f22610c6282610c2d565b818152846020838601011115610f3757600080fd5b610a23826020830160208701610af0565b600080600060608486031215610f5d57600080fd5b8351925060208401516001600160401b0380821115610f7b57600080fd5b610f8787838801610f03565b93506040860151915080821115610f9d57600080fd5b50610e7186828701610f03565b634e487b7160e01b600052603260045260246000fd5b634e487b7160e01b600052601160045260246000fd5b600060018201610fe857610fe8610fc0565b5060010190565b6000808335601e1984360301811261100657600080fd5b8301803591506001600160401b0382111561102057600080fd5b6020019150600581901b3603821315610b9f57600080fd5b8381526060602082015260006110516060830185610b1c565b82810360408401526110638185610b1c565b9695505050505050565b815160009082906020808601845b838110156110975781518552938201939082019060010161107b565b50929695505050505050565b634e487b7160e01b600052601260045260246000fd5b6000826110c8576110c86110a3565b500490565b6000828210156110df576110df610fc0565b500390565b6000826110f3576110f36110a3565b500690565b6000821982111561110b5761110b610fc0565b50019056fea2646970667358221220a5063b85b71061d0884472a3c576b72759e2a2ba926f232d75e00e3037207d0964736f6c634300080d0033",
  "linkReferences": {},
  "deployedLinkReferences": {}
}