{
  "_format": "hh-sol-artifact-1",
  "contractName": "NFTXFlashSwipe",
  "sourceName": "contracts/solidity/tools/NFTXFlashSwipe.sol",
  "abi": [
    {
      "inputs": [
        {
          "internalType": "address",
          "name": "operator",
          "type": "address"
        },
        {
          "internalType": "uint256",
          "name": "vaultId",
          "type": "uint256"
        },
        {
          "internalType": "uint256",
          "name": "count",
          "type": "uint256"
        },
        {
          "internalType": "uint256[]",
          "name": "specificIds",
          "type": "uint256[]"
        },
        {
          "internalType": "enum NFTXFlashSwipe.Type",
          "name": "swipeType",
          "type": "uint8"
        }
      ],
      "name": "flashSwipe",
      "outputs": [],
      "stateMutability": "nonpayable",
      "type": "function"
    },
    {
      "inputs": [
        {
          "internalType": "address",
          "name": "operator",
          "type": "address"
        },
        {
          "internalType": "uint256",
          "name": "count",
          "type": "uint256"
        },
        {
          "internalType": "uint256[]",
          "name": "specificIds",
          "type": "uint256[]"
        }
      ],
      "name": "flashSwipeNCT",
      "outputs": [],
      "stateMutability": "nonpayable",
      "type": "function"
    },
    {
      "inputs": [
        {
          "internalType": "address",
          "name": "operator",
          "type": "address"
        },
        {
          "internalType": "uint256",
          "name": "count",
          "type": "uint256"
        },
        {
          "internalType": "uint256[]",
          "name": "specificIds",
          "type": "uint256[]"
        }
      ],
      "name": "flashSwipeWET",
      "outputs": [],
      "stateMutability": "nonpayable",
      "type": "function"
    },
    {
      "inputs": [],
      "name": "nftxFactory",
      "outputs": [
        {
          "internalType": "contract INFTXVaultFactory",
          "name": "",
          "type": "address"
        }
      ],
      "stateMutability": "view",
      "type": "function"
    },
    {
      "inputs": [
        {
          "internalType": "address",
          "name": "initiator",
          "type": "address"
        },
        {
          "internalType": "address",
          "name": "",
          "type": "address"
        },
        {
          "internalType": "uint256",
          "name": "",
          "type": "uint256"
        },
        {
          "internalType": "uint256",
          "name": "",
          "type": "uint256"
        },
        {
          "internalType": "bytes",
          "name": "data",
          "type": "bytes"
        }
      ],
      "name": "onFlashLoan",
      "outputs": [
        {
          "internalType": "bytes32",
          "name": "",
          "type": "bytes32"
        }
      ],
      "stateMutability": "nonpayable",
      "type": "function"
    }
  ],
  "bytecode": "0x6080604052600180546001600160a01b0319908116738a9c4dfe8b9d8962b31e4e16f8321c44d48e246e17909155600280549091167376280af9d18a868a0af3dca95b57dde816c1aaf217905534801561005857600080fd5b506111dc806100686000396000f3fe608060405234801561001057600080fd5b50600436106100575760003560e01c806323e30c8b1461005c5780635ee50f88146100825780638a06f844146100ad578063a2e8814b146100c2578063e396e480146100d5575b600080fd5b61006f61006a366004610a0a565b6100e8565b6040519081526020015b60405180910390f35b600054610095906001600160a01b031681565b6040516001600160a01b039091168152602001610079565b6100c06100bb366004610b00565b61042c565b005b6100c06100d0366004610b6b565b610442565b6100c06100e3366004610b00565b6108d5565b60006001600160a01b03871630146101535760405162461bcd60e51b8152602060048201526024808201527f466c61736853776970653a20556e74727573746564206c6f616e20696e69746960448201526330ba37b960e11b60648201526084015b60405180910390fd5b6003546001600160a01b031633146101ad5760405162461bcd60e51b815260206004820152601c60248201527f466c61736853776970653a20556e74727573746564206c656e64657200000000604482015260640161014a565b60006101bb83850185610c78565b905060006101c8826108e5565b905060018260a0015160018111156101e2576101e2610d87565b036102df57600254604051630d74982760e31b81526000916001600160a01b031690636ba4c13890610218908590600401610dd8565b6020604051808303816000875af1158015610237573d6000803e3d6000fd5b505050506040513d601f19601f8201168201806040525081019061025b9190610df2565b600254608085015160405163a9059cbb60e01b81526001600160a01b03918216600482015260248101849052929350169063a9059cbb906044016020604051808303816000875af11580156102b4573d6000803e3d6000fd5b505050506040513d601f19601f820116820180604052508101906102d89190610e0b565b50506103f0565b60008260a0015160018111156102f7576102f7610d87565b036103f057600154604051630d74982760e31b81526000916001600160a01b031690636ba4c1389061032d908590600401610dd8565b6020604051808303816000875af115801561034c573d6000803e3d6000fd5b505050506040513d601f19601f820116820180604052508101906103709190610df2565b600154608085015160405163a9059cbb60e01b81526001600160a01b03918216600482015260248101849052929350169063a9059cbb906044016020604051808303816000875af11580156103c9573d6000803e3d6000fd5b505050506040513d601f19601f820116820180604052508101906103ed9190610e0b565b50505b6103fe82602001518261096e565b507f439148f0bbc682ca079e46d6e2c2f0c1e3b820f1a291b069d8882abf8cf18dd998975050505050505050565b61043c84600a8585856001610442565b50505050565b6001600160a01b038616331461048c5760405162461bcd60e51b815260206004820152600f60248201526e4e6f2066726f6e7472756e20706c7360881b604482015260640161014a565b600080546040516340d1b7db60e11b8152600481018890526001600160a01b03909116906381a36fb690602401602060405180830381865afa1580156104d6573d6000803e3d6000fd5b505050506040513d601f19601f820116820180604052508101906104fa9190610e2d565b9050600084849050826001600160a01b031663feb8eba56040518163ffffffff1660e01b8152600401602060405180830381865afa158015610540573d6000803e3d6000fd5b505050506040513d601f19601f820116820180604052508101906105649190610df2565b61056e9190610e60565b9050600086836001600160a01b03166313966db56040518163ffffffff1660e01b8152600401602060405180830381865afa1580156105b1573d6000803e3d6000fd5b505050506040513d601f19601f820116820180604052508101906105d59190610df2565b6105df9190610e60565b90506001600160a01b0383166323b872dd33306105fc8686610e7f565b6040516001600160e01b031960e086901b1681526001600160a01b03938416600482015292909116602483015260448201526064016020604051808303816000875af1158015610650573d6000803e3d6000fd5b505050506040513d601f19601f820116820180604052508101906106749190610e0b565b50604051636eb1769f60e11b81523060048201526001600160a01b0384166024820181905260009163dd62ed3e90604401602060405180830381865afa1580156106c2573d6000803e3d6000fd5b505050506040513d601f19601f820116820180604052508101906106e69190610df2565b905060006106fc670de0b6b3a76400008a610f7b565b90506001600160a01b03851663095ea7b3866107188c86610e7f565b6040516001600160e01b031960e085901b1681526001600160a01b03909216600483015260248201526044016020604051808303816000875af1158015610763573d6000803e3d6000fd5b505050506040513d601f19601f820116820180604052508101906107879190610e0b565b5060006040518060c001604052808c8152602001876001600160a01b031681526020018b81526020018a8a808060200260200160405190810160405280939291908181526020018383602002808284376000920191909152505050908252506001600160a01b038e16602082015260400188600181111561080a5761080a610d87565b905260405161081c9190602001610fa9565b60408051808303601f1901815290829052600380546001600160a01b0319166001600160a01b038a16908117909155632e7ff4ef60e11b835290925090635cffe9de906108739030908a908790879060040161104e565b6020604051808303816000875af1158015610892573d6000803e3d6000fd5b505050506040513d601f19601f820116820180604052508101906108b69190610e0b565b5050600380546001600160a01b03191690555050505050505050505050565b61043c8460068585856000610442565b606081602001516001600160a01b031663c4a0db96836040015184606001516040518363ffffffff1660e01b81526004016109219291906110c6565b6000604051808303816000875af1158015610940573d6000803e3d6000fd5b505050506040513d6000823e601f3d908101601f1916820160405261096891908101906110e7565b92915050565b604051630f57464360e21b81526060906001600160a01b03841690633d5d190c9061099f9085908590600401611178565b6020604051808303816000875af11580156109be573d6000803e3d6000fd5b505050506040513d601f19601f8201168201806040525081019061043c9190610df2565b6001600160a01b03811681146109f757600080fd5b50565b8035610a05816109e2565b919050565b60008060008060008060a08789031215610a2357600080fd5b8635610a2e816109e2565b95506020870135610a3e816109e2565b94506040870135935060608701359250608087013567ffffffffffffffff80821115610a6957600080fd5b818901915089601f830112610a7d57600080fd5b813581811115610a8c57600080fd5b8a6020828501011115610a9e57600080fd5b6020830194508093505050509295509295509295565b60008083601f840112610ac657600080fd5b50813567ffffffffffffffff811115610ade57600080fd5b6020830191508360208260051b8501011115610af957600080fd5b9250929050565b60008060008060608587031215610b1657600080fd5b8435610b21816109e2565b935060208501359250604085013567ffffffffffffffff811115610b4457600080fd5b610b5087828801610ab4565b95989497509550505050565b803560028110610a0557600080fd5b60008060008060008060a08789031215610b8457600080fd5b8635610b8f816109e2565b95506020870135945060408701359350606087013567ffffffffffffffff811115610bb957600080fd5b610bc589828a01610ab4565b9094509250610bd8905060808801610b5c565b90509295509295509295565b634e487b7160e01b600052604160045260246000fd5b60405160c0810167ffffffffffffffff81118282101715610c1d57610c1d610be4565b60405290565b604051601f8201601f1916810167ffffffffffffffff81118282101715610c4c57610c4c610be4565b604052919050565b600067ffffffffffffffff821115610c6e57610c6e610be4565b5060051b60200190565b60006020808385031215610c8b57600080fd5b823567ffffffffffffffff80821115610ca357600080fd5b9084019060c08287031215610cb757600080fd5b610cbf610bfa565b8235815283830135610cd0816109e2565b8185015260408381013590820152606083013582811115610cf057600080fd5b83019150601f82018713610d0357600080fd5b8135610d16610d1182610c54565b610c23565b81815260059190911b83018501908581019089831115610d3557600080fd5b938601935b82851015610d5357843582529386019390860190610d3a565b606084015250610d679050608084016109fa565b6080820152610d7860a08401610b5c565b60a08201529695505050505050565b634e487b7160e01b600052602160045260246000fd5b600081518084526020808501945080840160005b83811015610dcd57815187529582019590820190600101610db1565b509495945050505050565b602081526000610deb6020830184610d9d565b9392505050565b600060208284031215610e0457600080fd5b5051919050565b600060208284031215610e1d57600080fd5b81518015158114610deb57600080fd5b600060208284031215610e3f57600080fd5b8151610deb816109e2565b634e487b7160e01b600052601160045260246000fd5b6000816000190483118215151615610e7a57610e7a610e4a565b500290565b60008219821115610e9257610e92610e4a565b500190565b600181815b80851115610ed2578160001904821115610eb857610eb8610e4a565b80851615610ec557918102915b93841c9390800290610e9c565b509250929050565b600082610ee957506001610968565b81610ef657506000610968565b8160018114610f0c5760028114610f1657610f32565b6001915050610968565b60ff841115610f2757610f27610e4a565b50506001821b610968565b5060208310610133831016604e8410600b8410161715610f55575081810a610968565b610f5f8383610e97565b8060001904821115610f7357610f73610e4a565b029392505050565b6000610deb8383610eda565b60028110610fa557634e487b7160e01b600052602160045260246000fd5b9052565b6020808252825182820152828101516001600160a01b031660408084019190915283015160608084019190915283015160c06080840152805160e084018190526000929182019083906101008601905b808310156110195783518252928401926001929092019190840190610ff9565b5060808701516001600160a01b03811660a0880152935060a0870151935061104460c0870185610f87565b9695505050505050565b600060018060a01b038087168352602081871681850152856040850152608060608501528451915081608085015260005b8281101561109b5785810182015185820160a00152810161107f565b828111156110ad57600060a084870101525b5050601f01601f19169190910160a00195945050505050565b8281526040602082015260006110df6040830184610d9d565b949350505050565b600060208083850312156110fa57600080fd5b825167ffffffffffffffff81111561111157600080fd5b8301601f8101851361112257600080fd5b8051611130610d1182610c54565b81815260059190911b8201830190838101908783111561114f57600080fd5b928401925b8284101561116d57835182529284019290840190611154565b979650505050505050565b60408152600061118b6040830185610d9d565b828103602084015261119d8185610d9d565b9594505050505056fea26469706673582212209c4822bc6d9df4fb0223ce7268a319df03ca1125e1d6697bac791b4127f4f2df64736f6c634300080d0033",
  "linkReferences": {},
  "deployedLinkReferences": {}
}