{
  "_format": "hh-sol-artifact-1",
  "contractName": "NFTXOpenseaEligibility",
  "sourceName": "contracts/solidity/eligibility/NFTXOpenseaEligibility.sol",
  "abi": [
    {
      "anonymous": false,
      "inputs": [
        {
          "indexed": false,
          "internalType": "uint256",
          "name": "collectionId",
          "type": "uint256"
        }
      ],
      "name": "NFTXEligibilityInit",
      "type": "event"
    },
    {
      "inputs": [
        {
          "internalType": "uint256",
          "name": "_collectionId",
          "type": "uint256"
        }
      ],
      "name": "__NFTXEligibility_init",
      "outputs": [],
      "stateMutability": "nonpayable",
      "type": "function"
    },
    {
      "inputs": [
        {
          "internalType": "bytes",
          "name": "configData",
          "type": "bytes"
        }
      ],
      "name": "__NFTXEligibility_init_bytes",
      "outputs": [],
      "stateMutability": "nonpayable",
      "type": "function"
    },
    {
      "inputs": [
        {
          "internalType": "uint256[]",
          "name": "tokenIds",
          "type": "uint256[]"
        }
      ],
      "name": "afterMintHook",
      "outputs": [],
      "stateMutability": "nonpayable",
      "type": "function"
    },
    {
      "inputs": [
        {
          "internalType": "uint256[]",
          "name": "tokenIds",
          "type": "uint256[]"
        }
      ],
      "name": "afterRedeemHook",
      "outputs": [],
      "stateMutability": "nonpayable",
      "type": "function"
    },
    {
      "inputs": [
        {
          "internalType": "uint256[]",
          "name": "tokenIds",
          "type": "uint256[]"
        }
      ],
      "name": "beforeMintHook",
      "outputs": [],
      "stateMutability": "nonpayable",
      "type": "function"
    },
    {
      "inputs": [
        {
          "internalType": "uint256[]",
          "name": "tokenIds",
          "type": "uint256[]"
        }
      ],
      "name": "beforeRedeemHook",
      "outputs": [],
      "stateMutability": "nonpayable",
      "type": "function"
    },
    {
      "inputs": [
        {
          "internalType": "uint256[]",
          "name": "tokenIds",
          "type": "uint256[]"
        }
      ],
      "name": "checkAllEligible",
      "outputs": [
        {
          "internalType": "bool",
          "name": "",
          "type": "bool"
        }
      ],
      "stateMutability": "view",
      "type": "function"
    },
    {
      "inputs": [
        {
          "internalType": "uint256[]",
          "name": "tokenIds",
          "type": "uint256[]"
        }
      ],
      "name": "checkAllIneligible",
      "outputs": [
        {
          "internalType": "bool",
          "name": "",
          "type": "bool"
        }
      ],
      "stateMutability": "view",
      "type": "function"
    },
    {
      "inputs": [
        {
          "internalType": "uint256[]",
          "name": "tokenIds",
          "type": "uint256[]"
        }
      ],
      "name": "checkEligible",
      "outputs": [
        {
          "internalType": "bool[]",
          "name": "",
          "type": "bool[]"
        }
      ],
      "stateMutability": "view",
      "type": "function"
    },
    {
      "inputs": [
        {
          "internalType": "uint256",
          "name": "tokenId",
          "type": "uint256"
        }
      ],
      "name": "checkIsEligible",
      "outputs": [
        {
          "internalType": "bool",
          "name": "",
          "type": "bool"
        }
      ],
      "stateMutability": "view",
      "type": "function"
    },
    {
      "inputs": [],
      "name": "collectionId",
      "outputs": [
        {
          "internalType": "uint256",
          "name": "",
          "type": "uint256"
        }
      ],
      "stateMutability": "view",
      "type": "function"
    },
    {
      "inputs": [],
      "name": "finalized",
      "outputs": [
        {
          "internalType": "bool",
          "name": "",
          "type": "bool"
        }
      ],
      "stateMutability": "view",
      "type": "function"
    },
    {
      "inputs": [],
      "name": "name",
      "outputs": [
        {
          "internalType": "string",
          "name": "",
          "type": "string"
        }
      ],
      "stateMutability": "pure",
      "type": "function"
    },
    {
      "inputs": [],
      "name": "targetAsset",
      "outputs": [
        {
          "internalType": "address",
          "name": "",
          "type": "address"
        }
      ],
      "stateMutability": "pure",
      "type": "function"
    }
  ],
  "bytecode": "0x608060405234801561001057600080fd5b506107a6806100206000396000f3fe608060405234801561001057600080fd5b50600436106100ea5760003560e01c80636cd912601161008c578063b3f05b9711610066578063b3f05b97146101d7578063bd8affde14610121578063ca373f28146101de578063d2a096e8146101f157600080fd5b80636cd912601461018157806377973ae8146101a157806384ca9f85146101b457600080fd5b80633d4403ac116100c85780633d4403ac1461014c5780634998b7f31461016e5780635e2f9b52146101215780636c47d5951461012157600080fd5b806306fdde03146100ef57806336eb0862146101215780633d26bb6714610135575b600080fd5b60408051808201825260078152664f70656e73656160c81b6020820152905161011891906104dc565b60405180910390f35b61013361012f366004610531565b5050565b005b61013e60015481565b604051908152602001610118565b60405173495f947276749ce646f68ac8c248420045cb7b5e8152602001610118565b61013361017c3660046105bc565b610204565b61019461018f366004610531565b61029b565b604051610118919061066d565b6101336101af3660046106b3565b610358565b6101c76101c2366004610531565b610439565b6040519015158152602001610118565b60016101c7565b6101c76101ec366004610531565b610487565b6101c76101ff3660046106b3565b6104cb565b600054610100900460ff168061021d575060005460ff16155b6102425760405162461bcd60e51b8152600401610239906106cc565b60405180910390fd5b600054610100900460ff16158015610264576000805461ffff19166101011790555b60008280602001905181019061027a919061071a565b905061028581610358565b50801561012f576000805461ff00191690555050565b60608160008167ffffffffffffffff8111156102b9576102b96105a6565b6040519080825280602002602001820160405280156102e2578160200160208202803683370190505b50905060005b8281101561034d5761031986868381811061030557610305610733565b9050602002013560015460609190911c1490565b82828151811061032b5761032b610733565b911515602092830291909101909101528061034581610749565b9150506102e8565b509150505b92915050565b600054610100900460ff1680610371575060005460ff16155b61038d5760405162461bcd60e51b8152600401610239906106cc565b600054610100900460ff161580156103af576000805461ffff19166101011790555b816000036103ec5760405162461bcd60e51b815260206004820152600a602482015269043616e277420626520360b41b6044820152606401610239565b60018290556040518281527f8149ebb6ef626d669b8f1dc752f5b65e57fd929f7cd9ffb2eac100cdc67342089060200160405180910390a1801561012f576000805461ff00191690555050565b600081815b8181101561047c5761045b85858381811061030557610305610733565b61046a57600092505050610352565b8061047481610749565b91505061043e565b506001949350505050565b600081815b8181101561047c576104a985858381811061030557610305610733565b156104b957600092505050610352565b806104c381610749565b91505061048c565b600154600090606083901c14610352565b600060208083528351808285015260005b81811015610509578581018301518582016040015282016104ed565b8181111561051b576000604083870101525b50601f01601f1916929092016040019392505050565b6000806020838503121561054457600080fd5b823567ffffffffffffffff8082111561055c57600080fd5b818501915085601f83011261057057600080fd5b81358181111561057f57600080fd5b8660208260051b850101111561059457600080fd5b60209290920196919550909350505050565b634e487b7160e01b600052604160045260246000fd5b6000602082840312156105ce57600080fd5b813567ffffffffffffffff808211156105e657600080fd5b818401915084601f8301126105fa57600080fd5b81358181111561060c5761060c6105a6565b604051601f8201601f19908116603f01168101908382118183101715610634576106346105a6565b8160405282815287602084870101111561064d57600080fd5b826020860160208301376000928101602001929092525095945050505050565b6020808252825182820181905260009190848201906040850190845b818110156106a7578351151583529284019291840191600101610689565b50909695505050505050565b6000602082840312156106c557600080fd5b5035919050565b6020808252602e908201527f496e697469616c697a61626c653a20636f6e747261637420697320616c72656160408201526d191e481a5b9a5d1a585b1a5e995960921b606082015260800190565b60006020828403121561072c57600080fd5b5051919050565b634e487b7160e01b600052603260045260246000fd5b60006001820161076957634e487b7160e01b600052601160045260246000fd5b506001019056fea26469706673582212201201dc42af71e0489989476ef85e3f0aa7e4a658ee4602415934644f2e9595e664736f6c634300080d0033",
  "linkReferences": {},
  "deployedLinkReferences": {}
}