{
  "_format": "hh-sol-artifact-1",
  "contractName": "NFTXUniqueEligibility",
  "sourceName": "contracts/solidity/eligibility/NFTXUniqueEligibility.sol",
  "abi": [
    {
      "anonymous": false,
      "inputs": [
        {
          "indexed": false,
          "internalType": "address",
          "name": "owner",
          "type": "address"
        },
        {
          "indexed": false,
          "internalType": "address",
          "name": "vault",
          "type": "address"
        },
        {
          "indexed": false,
          "internalType": "bool",
          "name": "negateElig",
          "type": "bool"
        },
        {
          "indexed": false,
          "internalType": "bool",
          "name": "finalize",
          "type": "bool"
        },
        {
          "indexed": false,
          "internalType": "uint256[]",
          "name": "tokenIds",
          "type": "uint256[]"
        }
      ],
      "name": "NFTXEligibilityInit",
      "type": "event"
    },
    {
      "anonymous": false,
      "inputs": [
        {
          "indexed": true,
          "internalType": "address",
          "name": "previousOwner",
          "type": "address"
        },
        {
          "indexed": true,
          "internalType": "address",
          "name": "newOwner",
          "type": "address"
        }
      ],
      "name": "OwnershipTransferred",
      "type": "event"
    },
    {
      "anonymous": false,
      "inputs": [
        {
          "indexed": false,
          "internalType": "uint256[]",
          "name": "tokenIds",
          "type": "uint256[]"
        },
        {
          "indexed": false,
          "internalType": "bool",
          "name": "isEligible",
          "type": "bool"
        }
      ],
      "name": "UniqueEligibilitiesSet",
      "type": "event"
    },
    {
      "anonymous": false,
      "inputs": [
        {
          "indexed": false,
          "internalType": "bool",
          "name": "negateElig",
          "type": "bool"
        }
      ],
      "name": "negateEligilityOnRedeemSet",
      "type": "event"
    },
    {
      "inputs": [
        {
          "internalType": "address",
          "name": "_owner",
          "type": "address"
        },
        {
          "internalType": "address",
          "name": "_vault",
          "type": "address"
        },
        {
          "internalType": "bool",
          "name": "negateElig",
          "type": "bool"
        },
        {
          "internalType": "bool",
          "name": "finalize",
          "type": "bool"
        },
        {
          "internalType": "uint256[]",
          "name": "tokenIds",
          "type": "uint256[]"
        }
      ],
      "name": "__NFTXEligibility_init",
      "outputs": [],
      "stateMutability": "nonpayable",
      "type": "function"
    },
    {
      "inputs": [
        {
          "internalType": "bytes",
          "name": "_configData",
          "type": "bytes"
        }
      ],
      "name": "__NFTXEligibility_init_bytes",
      "outputs": [],
      "stateMutability": "nonpayable",
      "type": "function"
    },
    {
      "inputs": [
        {
          "internalType": "uint256[]",
          "name": "tokenIds",
          "type": "uint256[]"
        }
      ],
      "name": "afterMintHook",
      "outputs": [],
      "stateMutability": "nonpayable",
      "type": "function"
    },
    {
      "inputs": [
        {
          "internalType": "uint256[]",
          "name": "tokenIds",
          "type": "uint256[]"
        }
      ],
      "name": "afterRedeemHook",
      "outputs": [],
      "stateMutability": "nonpayable",
      "type": "function"
    },
    {
      "inputs": [
        {
          "internalType": "uint256[]",
          "name": "tokenIds",
          "type": "uint256[]"
        }
      ],
      "name": "beforeMintHook",
      "outputs": [],
      "stateMutability": "nonpayable",
      "type": "function"
    },
    {
      "inputs": [
        {
          "internalType": "uint256[]",
          "name": "tokenIds",
          "type": "uint256[]"
        }
      ],
      "name": "beforeRedeemHook",
      "outputs": [],
      "stateMutability": "nonpayable",
      "type": "function"
    },
    {
      "inputs": [
        {
          "internalType": "uint256[]",
          "name": "tokenIds",
          "type": "uint256[]"
        }
      ],
      "name": "checkAllEligible",
      "outputs": [
        {
          "internalType": "bool",
          "name": "",
          "type": "bool"
        }
      ],
      "stateMutability": "view",
      "type": "function"
    },
    {
      "inputs": [
        {
          "internalType": "uint256[]",
          "name": "tokenIds",
          "type": "uint256[]"
        }
      ],
      "name": "checkAllIneligible",
      "outputs": [
        {
          "internalType": "bool",
          "name": "",
          "type": "bool"
        }
      ],
      "stateMutability": "view",
      "type": "function"
    },
    {
      "inputs": [
        {
          "internalType": "uint256[]",
          "name": "tokenIds",
          "type": "uint256[]"
        }
      ],
      "name": "checkEligible",
      "outputs": [
        {
          "internalType": "bool[]",
          "name": "",
          "type": "bool[]"
        }
      ],
      "stateMutability": "view",
      "type": "function"
    },
    {
      "inputs": [
        {
          "internalType": "uint256",
          "name": "tokenId",
          "type": "uint256"
        }
      ],
      "name": "checkIsEligible",
      "outputs": [
        {
          "internalType": "bool",
          "name": "",
          "type": "bool"
        }
      ],
      "stateMutability": "view",
      "type": "function"
    },
    {
      "inputs": [],
      "name": "finalized",
      "outputs": [
        {
          "internalType": "bool",
          "name": "",
          "type": "bool"
        }
      ],
      "stateMutability": "view",
      "type": "function"
    },
    {
      "inputs": [],
      "name": "isInitialized",
      "outputs": [
        {
          "internalType": "bool",
          "name": "",
          "type": "bool"
        }
      ],
      "stateMutability": "view",
      "type": "function"
    },
    {
      "inputs": [
        {
          "internalType": "uint256",
          "name": "tokenId",
          "type": "uint256"
        }
      ],
      "name": "isUniqueEligible",
      "outputs": [
        {
          "internalType": "bool",
          "name": "",
          "type": "bool"
        }
      ],
      "stateMutability": "view",
      "type": "function"
    },
    {
      "inputs": [],
      "name": "name",
      "outputs": [
        {
          "internalType": "string",
          "name": "",
          "type": "string"
        }
      ],
      "stateMutability": "pure",
      "type": "function"
    },
    {
      "inputs": [],
      "name": "negateEligOnRedeem",
      "outputs": [
        {
          "internalType": "bool",
          "name": "",
          "type": "bool"
        }
      ],
      "stateMutability": "view",
      "type": "function"
    },
    {
      "inputs": [],
      "name": "owner",
      "outputs": [
        {
          "internalType": "address",
          "name": "",
          "type": "address"
        }
      ],
      "stateMutability": "view",
      "type": "function"
    },
    {
      "inputs": [],
      "name": "renounceOwnership",
      "outputs": [],
      "stateMutability": "nonpayable",
      "type": "function"
    },
    {
      "inputs": [
        {
          "internalType": "bool",
          "name": "_negateEligOnRedeem",
          "type": "bool"
        }
      ],
      "name": "setEligibilityPreferences",
      "outputs": [],
      "stateMutability": "nonpayable",
      "type": "function"
    },
    {
      "inputs": [
        {
          "internalType": "uint256[]",
          "name": "tokenIds",
          "type": "uint256[]"
        },
        {
          "internalType": "bool",
          "name": "_isEligible",
          "type": "bool"
        }
      ],
      "name": "setUniqueEligibilities",
      "outputs": [],
      "stateMutability": "nonpayable",
      "type": "function"
    },
    {
      "inputs": [],
      "name": "targetAsset",
      "outputs": [
        {
          "internalType": "address",
          "name": "",
          "type": "address"
        }
      ],
      "stateMutability": "pure",
      "type": "function"
    },
    {
      "inputs": [
        {
          "internalType": "address",
          "name": "newOwner",
          "type": "address"
        }
      ],
      "name": "transferOwnership",
      "outputs": [],
      "stateMutability": "nonpayable",
      "type": "function"
    }
  ],
  "bytecode": "0x608060405234801561001057600080fd5b506112eb806100206000396000f3fe608060405234801561001057600080fd5b50600436106101375760003560e01c80636cd91260116100b8578063bd8affde1161007c578063bd8affde14610182578063ca373f2814610273578063d2a096e814610286578063d6eed93714610299578063f2fde38b146102ad578063fbd5cb20146102c057600080fd5b80636cd912601461021f578063715018a61461023f57806384ca9f85146102475780638da5cb5b1461025a578063b3f05b971461026b57600080fd5b80633d4403ac116100ff5780633d4403ac146101cb578063423515c4146101e65780634998b7f3146101f95780635e2f9b521461020c5780636c47d5951461018257600080fd5b806306fdde031461013c5780630a7e40961461016d57806336eb086214610182578063392e53cd146101945780633942cf36146101b8575b600080fd5b6040805180820182526006815265556e6971756560d01b602082015290516101649190610c63565b60405180910390f35b61018061017b366004610db1565b6102d3565b005b610180610190366004610e39565b5050565b6066546101a890600160a01b900460ff1681565b6040519015158152602001610164565b6101a86101c6366004610eae565b610487565b60005b6040516001600160a01b039091168152602001610164565b6101806101f4366004610ec7565b6104ba565b610180610207366004610ee4565b61053c565b61018061021a366004610e39565b6105e8565b61023261022d366004610e39565b61064d565b6040516101649190610f79565b610180610702565b6101a8610255366004610e39565b610776565b6033546001600160a01b03166101ce565b6101a86107c4565b6101a8610281366004610e39565b6107ff565b6101a8610294366004610eae565b610843565b6066546101a890600160a81b900460ff1681565b6101806102bb366004610fbf565b61084e565b6101806102ce366004610fdc565b610939565b600054610100900460ff16806102ec575060005460ff16155b6103115760405162461bcd60e51b81526004016103089061102e565b60405180910390fd5b600054610100900460ff16158015610333576000805461ffff19166101011790555b61033b61096d565b6001600160a01b0386166103875760405162461bcd60e51b81526020600482015260136024820152724f776e657220213d206164647265737328302960681b6044820152606401610308565b6001600160a01b0385166103d35760405162461bcd60e51b81526020600482015260136024820152725661756c7420213d206164647265737328302960681b6044820152606401610308565b60668054600160a01b6001600160a81b03199091166001600160a01b038816171760ff60a81b1916600160a81b861515021790556104128260016109e9565b7fab54c710aa0ff99f4b7667b84e94caebe3d960186b2588d4309acd5cdf0ab2b786868686866040516104499594939291906110b7565b60405180910390a182156104645761045f610702565b61046d565b61046d8661084e565b801561047f576000805461ff00191690555b505050505050565b60008061049661010084611114565b6000818152606560205260409020549091506104b28185610aeb565b949350505050565b6033546001600160a01b031633146104e45760405162461bcd60e51b815260040161030890611128565b60668054821515600160a81b0260ff60a81b199091161790556040517f9038d4f71df700fd5979d0e9b93f30d31a3e528411cf593749e474ee836568599061053190831515815260200190565b60405180910390a150565b600054610100900460ff1680610555575060005460ff16155b6105715760405162461bcd60e51b81526004016103089061102e565b600054610100900460ff16158015610593576000805461ffff19166101011790555b61059b61096d565b6000806000806000868060200190518101906105b7919061115d565b945094509450945094506105ce85858486856102d3565b50505050508015610190576000805461ff00191690555050565b6066546001600160a01b031633146105ff57600080fd5b606654600160a81b900460ff161561019057610190828280806020026020016040519081016040528093929190818152602001838360200280828437600092018290525092506109e9915050565b60608160008167ffffffffffffffff81111561066b5761066b610cdb565b604051908082528060200260200182016040528015610694578160200160208202803683370190505b50905060005b828110156106f7576106c38686838181106106b7576106b7611240565b90506020020135610b0b565b8282815181106106d5576106d5611240565b91151560209283029190910190910152806106ef81611256565b91505061069a565b509150505b92915050565b6033546001600160a01b0316331461072c5760405162461bcd60e51b815260040161030890611128565b6033546040516000916001600160a01b0316907f8be0079c531659141344cd1fd0a4f28419497f9722a3daafe3b4186f6b6457e0908390a3603380546001600160a01b0319169055565b600081815b818110156107b9576107988585838181106106b7576106b7611240565b6107a7576000925050506106fc565b806107b181611256565b91505061077b565b506001949350505050565b606654600090600160a01b900460ff1680156107fa575060006107ef6033546001600160a01b031690565b6001600160a01b0316145b905090565b600081815b818110156107b9576108218585838181106106b7576106b7611240565b15610831576000925050506106fc565b8061083b81611256565b915050610804565b60006106fc82610b0b565b6033546001600160a01b031633146108785760405162461bcd60e51b815260040161030890611128565b6001600160a01b0381166108dd5760405162461bcd60e51b815260206004820152602660248201527f4f776e61626c653a206e6577206f776e657220697320746865207a65726f206160448201526564647265737360d01b6064820152608401610308565b6033546040516001600160a01b038084169216907f8be0079c531659141344cd1fd0a4f28419497f9722a3daafe3b4186f6b6457e090600090a3603380546001600160a01b0319166001600160a01b0392909216919091179055565b6033546001600160a01b031633146109635760405162461bcd60e51b815260040161030890611128565b61019082826109e9565b600054610100900460ff1680610986575060005460ff16155b6109a25760405162461bcd60e51b81526004016103089061102e565b600054610100900460ff161580156109c4576000805461ffff19166101011790555b6109cc610b16565b6109d4610b80565b80156109e6576000805461ff00191690555b50565b600080805260656020527fffdfc1249c027f9191656349feb0761381bb32c9f557e01f419fd08754bf5a1b5490805b8451811015610a99576000858281518110610a3557610a35611240565b60200260200101519050600061010082610a4f9190611114565b9050838114610a77576000938452606560205260408085209590955580845293909220549291825b610a82858388610c2e565b945050508080610a9190611256565b915050610a18565b5060008181526065602052604090819020839055517ffacde3821ab1224682dd0ab6a805f71860b6ca6982ad044c8c4927ea4c6f140190610add908690869061127d565b60405180910390a150505050565b600080610afa610100846112a1565b9390931c6001908116149392505050565b60006106fc82610487565b600054610100900460ff1680610b2f575060005460ff16155b610b4b5760405162461bcd60e51b81526004016103089061102e565b600054610100900460ff161580156109d4576000805461ffff191661010117905580156109e6576000805461ff001916905550565b600054610100900460ff1680610b99575060005460ff16155b610bb55760405162461bcd60e51b81526004016103089061102e565b600054610100900460ff16158015610bd7576000805461ffff19166101011790555b603380546001600160a01b0319163390811790915560405181906000907f8be0079c531659141344cd1fd0a4f28419497f9722a3daafe3b4186f6b6457e0908290a35080156109e6576000805461ff001916905550565b600080610c3d610100856112a1565b90508215610c52576001901b84179050610c5c565b6001901b19841690505b9392505050565b600060208083528351808285015260005b81811015610c9057858101830151858201604001528201610c74565b81811115610ca2576000604083870101525b50601f01601f1916929092016040019392505050565b6001600160a01b03811681146109e657600080fd5b80151581146109e657600080fd5b634e487b7160e01b600052604160045260246000fd5b604051601f8201601f1916810167ffffffffffffffff81118282101715610d1a57610d1a610cdb565b604052919050565b600067ffffffffffffffff821115610d3c57610d3c610cdb565b5060051b60200190565b600082601f830112610d5757600080fd5b81356020610d6c610d6783610d22565b610cf1565b82815260059290921b84018101918181019086841115610d8b57600080fd5b8286015b84811015610da65780358352918301918301610d8f565b509695505050505050565b600080600080600060a08688031215610dc957600080fd5b8535610dd481610cb8565b94506020860135610de481610cb8565b93506040860135610df481610ccd565b92506060860135610e0481610ccd565b9150608086013567ffffffffffffffff811115610e2057600080fd5b610e2c88828901610d46565b9150509295509295909350565b60008060208385031215610e4c57600080fd5b823567ffffffffffffffff80821115610e6457600080fd5b818501915085601f830112610e7857600080fd5b813581811115610e8757600080fd5b8660208260051b8501011115610e9c57600080fd5b60209290920196919550909350505050565b600060208284031215610ec057600080fd5b5035919050565b600060208284031215610ed957600080fd5b8135610c5c81610ccd565b60006020808385031215610ef757600080fd5b823567ffffffffffffffff80821115610f0f57600080fd5b818501915085601f830112610f2357600080fd5b813581811115610f3557610f35610cdb565b610f47601f8201601f19168501610cf1565b91508082528684828501011115610f5d57600080fd5b8084840185840137600090820190930192909252509392505050565b6020808252825182820181905260009190848201906040850190845b81811015610fb3578351151583529284019291840191600101610f95565b50909695505050505050565b600060208284031215610fd157600080fd5b8135610c5c81610cb8565b60008060408385031215610fef57600080fd5b823567ffffffffffffffff81111561100657600080fd5b61101285828601610d46565b925050602083013561102381610ccd565b809150509250929050565b6020808252602e908201527f496e697469616c697a61626c653a20636f6e747261637420697320616c72656160408201526d191e481a5b9a5d1a585b1a5e995960921b606082015260800190565b600081518084526020808501945080840160005b838110156110ac57815187529582019590820190600101611090565b509495945050505050565b6001600160a01b038681168252851660208201528315156040820152821515606082015260a0608082018190526000906110f39083018461107c565b979650505050505050565b634e487b7160e01b600052601260045260246000fd5b600082611123576111236110fe565b500490565b6020808252818101527f4f776e61626c653a2063616c6c6572206973206e6f7420746865206f776e6572604082015260600190565b600080600080600060a0868803121561117557600080fd5b855161118081610cb8565b8095505060208087015161119381610cb8565b60408801519095506111a481610ccd565b60608801519094506111b581610ccd565b608088015190935067ffffffffffffffff8111156111d257600080fd5b8701601f810189136111e357600080fd5b80516111f1610d6782610d22565b81815260059190911b8201830190838101908b83111561121057600080fd5b928401925b8284101561122e57835182529284019290840190611215565b80955050505050509295509295909350565b634e487b7160e01b600052603260045260246000fd5b60006001820161127657634e487b7160e01b600052601160045260246000fd5b5060010190565b604081526000611290604083018561107c565b905082151560208301529392505050565b6000826112b0576112b06110fe565b50069056fea2646970667358221220c35f1dc000edd3285a947707d191fad1ee62b29a024b4e8b4ea830c53d82797764736f6c634300080d0033",
  "linkReferences": {},
  "deployedLinkReferences": {}
}