{
  "_format": "hh-sol-artifact-1",
  "contractName": "NFTXInventoryStaking",
  "sourceName": "contracts/solidity/NFTXInventoryStaking.sol",
  "abi": [
    {
      "anonymous": false,
      "inputs": [
        {
          "indexed": false,
          "internalType": "uint256",
          "name": "vaultId",
          "type": "uint256"
        },
        {
          "indexed": false,
          "internalType": "uint256",
          "name": "baseTokenAmount",
          "type": "uint256"
        },
        {
          "indexed": false,
          "internalType": "uint256",
          "name": "xTokenAmount",
          "type": "uint256"
        },
        {
          "indexed": false,
          "internalType": "uint256",
          "name": "timelockUntil",
          "type": "uint256"
        },
        {
          "indexed": false,
          "internalType": "address",
          "name": "sender",
          "type": "address"
        }
      ],
      "name": "Deposit",
      "type": "event"
    },
    {
      "anonymous": false,
      "inputs": [
        {
          "indexed": false,
          "internalType": "uint256",
          "name": "vaultId",
          "type": "uint256"
        },
        {
          "indexed": false,
          "internalType": "uint256",
          "name": "amount",
          "type": "uint256"
        }
      ],
      "name": "FeesReceived",
      "type": "event"
    },
    {
      "anonymous": false,
      "inputs": [
        {
          "indexed": true,
          "internalType": "address",
          "name": "previousOwner",
          "type": "address"
        },
        {
          "indexed": true,
          "internalType": "address",
          "name": "newOwner",
          "type": "address"
        }
      ],
      "name": "OwnershipTransferred",
      "type": "event"
    },
    {
      "anonymous": false,
      "inputs": [
        {
          "indexed": false,
          "internalType": "address",
          "name": "addr",
          "type": "address"
        },
        {
          "indexed": false,
          "internalType": "bool",
          "name": "isGuardian",
          "type": "bool"
        }
      ],
      "name": "SetIsGuardian",
      "type": "event"
    },
    {
      "anonymous": false,
      "inputs": [
        {
          "indexed": false,
          "internalType": "uint256",
          "name": "lockId",
          "type": "uint256"
        },
        {
          "indexed": false,
          "internalType": "bool",
          "name": "paused",
          "type": "bool"
        }
      ],
      "name": "SetPaused",
      "type": "event"
    },
    {
      "anonymous": false,
      "inputs": [
        {
          "indexed": true,
          "internalType": "address",
          "name": "childImplementation",
          "type": "address"
        }
      ],
      "name": "Upgraded",
      "type": "event"
    },
    {
      "anonymous": false,
      "inputs": [
        {
          "indexed": false,
          "internalType": "uint256",
          "name": "vaultId",
          "type": "uint256"
        },
        {
          "indexed": false,
          "internalType": "uint256",
          "name": "baseTokenAmount",
          "type": "uint256"
        },
        {
          "indexed": false,
          "internalType": "uint256",
          "name": "xTokenAmount",
          "type": "uint256"
        },
        {
          "indexed": false,
          "internalType": "address",
          "name": "sender",
          "type": "address"
        }
      ],
      "name": "Withdraw",
      "type": "event"
    },
    {
      "anonymous": false,
      "inputs": [
        {
          "indexed": false,
          "internalType": "uint256",
          "name": "vaultId",
          "type": "uint256"
        },
        {
          "indexed": false,
          "internalType": "address",
          "name": "baseToken",
          "type": "address"
        },
        {
          "indexed": false,
          "internalType": "address",
          "name": "xToken",
          "type": "address"
        }
      ],
      "name": "XTokenCreated",
      "type": "event"
    },
    {
      "inputs": [
        {
          "internalType": "address",
          "name": "_nftxVaultFactory",
          "type": "address"
        }
      ],
      "name": "__NFTXInventoryStaking_init",
      "outputs": [],
      "stateMutability": "nonpayable",
      "type": "function"
    },
    {
      "inputs": [
        {
          "internalType": "address",
          "name": "childImplementation_",
          "type": "address"
        }
      ],
      "name": "__UpgradeableBeacon__init",
      "outputs": [],
      "stateMutability": "nonpayable",
      "type": "function"
    },
    {
      "inputs": [
        {
          "internalType": "uint256",
          "name": "vaultId",
          "type": "uint256"
        }
      ],
      "name": "adjustedXTokenShareValue",
      "outputs": [
        {
          "internalType": "uint256",
          "name": "",
          "type": "uint256"
        }
      ],
      "stateMutability": "view",
      "type": "function"
    },
    {
      "inputs": [
        {
          "internalType": "uint256",
          "name": "vaultId",
          "type": "uint256"
        },
        {
          "internalType": "address",
          "name": "who",
          "type": "address"
        }
      ],
      "name": "balanceOf",
      "outputs": [
        {
          "internalType": "uint256",
          "name": "",
          "type": "uint256"
        }
      ],
      "stateMutability": "view",
      "type": "function"
    },
    {
      "inputs": [],
      "name": "childImplementation",
      "outputs": [
        {
          "internalType": "address",
          "name": "",
          "type": "address"
        }
      ],
      "stateMutability": "view",
      "type": "function"
    },
    {
      "inputs": [
        {
          "internalType": "uint256",
          "name": "vaultId",
          "type": "uint256"
        }
      ],
      "name": "deployXTokenForVault",
      "outputs": [],
      "stateMutability": "nonpayable",
      "type": "function"
    },
    {
      "inputs": [
        {
          "internalType": "uint256",
          "name": "vaultId",
          "type": "uint256"
        },
        {
          "internalType": "uint256",
          "name": "_amount",
          "type": "uint256"
        }
      ],
      "name": "deposit",
      "outputs": [],
      "stateMutability": "nonpayable",
      "type": "function"
    },
    {
      "inputs": [],
      "name": "inventoryLockTimeErc20",
      "outputs": [
        {
          "internalType": "uint256",
          "name": "",
          "type": "uint256"
        }
      ],
      "stateMutability": "view",
      "type": "function"
    },
    {
      "inputs": [
        {
          "internalType": "address",
          "name": "addr",
          "type": "address"
        },
        {
          "internalType": "uint256",
          "name": "vaultId",
          "type": "uint256"
        }
      ],
      "name": "isAddressTimelockExcluded",
      "outputs": [
        {
          "internalType": "bool",
          "name": "",
          "type": "bool"
        }
      ],
      "stateMutability": "view",
      "type": "function"
    },
    {
      "inputs": [
        {
          "internalType": "address",
          "name": "",
          "type": "address"
        }
      ],
      "name": "isGuardian",
      "outputs": [
        {
          "internalType": "bool",
          "name": "",
          "type": "bool"
        }
      ],
      "stateMutability": "view",
      "type": "function"
    },
    {
      "inputs": [
        {
          "internalType": "uint256",
          "name": "",
          "type": "uint256"
        }
      ],
      "name": "isPaused",
      "outputs": [
        {
          "internalType": "bool",
          "name": "",
          "type": "bool"
        }
      ],
      "stateMutability": "view",
      "type": "function"
    },
    {
      "inputs": [],
      "name": "nftxVaultFactory",
      "outputs": [
        {
          "internalType": "contract INFTXVaultFactory",
          "name": "",
          "type": "address"
        }
      ],
      "stateMutability": "view",
      "type": "function"
    },
    {
      "inputs": [
        {
          "internalType": "uint256",
          "name": "lockId",
          "type": "uint256"
        }
      ],
      "name": "onlyOwnerIfPaused",
      "outputs": [],
      "stateMutability": "view",
      "type": "function"
    },
    {
      "inputs": [],
      "name": "owner",
      "outputs": [
        {
          "internalType": "address",
          "name": "",
          "type": "address"
        }
      ],
      "stateMutability": "view",
      "type": "function"
    },
    {
      "inputs": [
        {
          "internalType": "uint256",
          "name": "lockId",
          "type": "uint256"
        }
      ],
      "name": "pause",
      "outputs": [],
      "stateMutability": "nonpayable",
      "type": "function"
    },
    {
      "inputs": [
        {
          "internalType": "uint256",
          "name": "vaultId",
          "type": "uint256"
        },
        {
          "internalType": "uint256",
          "name": "amount",
          "type": "uint256"
        }
      ],
      "name": "receiveRewards",
      "outputs": [
        {
          "internalType": "bool",
          "name": "",
          "type": "bool"
        }
      ],
      "stateMutability": "nonpayable",
      "type": "function"
    },
    {
      "inputs": [],
      "name": "renounceOwnership",
      "outputs": [],
      "stateMutability": "nonpayable",
      "type": "function"
    },
    {
      "inputs": [
        {
          "internalType": "uint256",
          "name": "time",
          "type": "uint256"
        }
      ],
      "name": "setInventoryLockTimeErc20",
      "outputs": [],
      "stateMutability": "nonpayable",
      "type": "function"
    },
    {
      "inputs": [
        {
          "internalType": "address",
          "name": "addr",
          "type": "address"
        },
        {
          "internalType": "bool",
          "name": "_isGuardian",
          "type": "bool"
        }
      ],
      "name": "setIsGuardian",
      "outputs": [],
      "stateMutability": "nonpayable",
      "type": "function"
    },
    {
      "inputs": [
        {
          "internalType": "address",
          "name": "addr",
          "type": "address"
        }
      ],
      "name": "setTimelockExcludeList",
      "outputs": [],
      "stateMutability": "nonpayable",
      "type": "function"
    },
    {
      "inputs": [],
      "name": "timelockExcludeList",
      "outputs": [
        {
          "internalType": "contract ITimelockExcludeList",
          "name": "",
          "type": "address"
        }
      ],
      "stateMutability": "view",
      "type": "function"
    },
    {
      "inputs": [
        {
          "internalType": "uint256",
          "name": "vaultId",
          "type": "uint256"
        },
        {
          "internalType": "uint256",
          "name": "amount",
          "type": "uint256"
        },
        {
          "internalType": "address",
          "name": "to",
          "type": "address"
        },
        {
          "internalType": "uint256",
          "name": "timelockLength",
          "type": "uint256"
        }
      ],
      "name": "timelockMintFor",
      "outputs": [
        {
          "internalType": "uint256",
          "name": "",
          "type": "uint256"
        }
      ],
      "stateMutability": "nonpayable",
      "type": "function"
    },
    {
      "inputs": [
        {
          "internalType": "uint256",
          "name": "vaultId",
          "type": "uint256"
        },
        {
          "internalType": "address",
          "name": "who",
          "type": "address"
        }
      ],
      "name": "timelockUntil",
      "outputs": [
        {
          "internalType": "uint256",
          "name": "",
          "type": "uint256"
        }
      ],
      "stateMutability": "view",
      "type": "function"
    },
    {
      "inputs": [
        {
          "internalType": "uint256",
          "name": "vaultId",
          "type": "uint256"
        }
      ],
      "name": "totalUndistributedFees",
      "outputs": [
        {
          "internalType": "uint256",
          "name": "",
          "type": "uint256"
        }
      ],
      "stateMutability": "view",
      "type": "function"
    },
    {
      "inputs": [
        {
          "internalType": "address",
          "name": "newOwner",
          "type": "address"
        }
      ],
      "name": "transferOwnership",
      "outputs": [],
      "stateMutability": "nonpayable",
      "type": "function"
    },
    {
      "inputs": [
        {
          "internalType": "uint256",
          "name": "lockId",
          "type": "uint256"
        }
      ],
      "name": "unpause",
      "outputs": [],
      "stateMutability": "nonpayable",
      "type": "function"
    },
    {
      "inputs": [
        {
          "internalType": "address",
          "name": "newChildImplementation",
          "type": "address"
        }
      ],
      "name": "upgradeChildTo",
      "outputs": [],
      "stateMutability": "nonpayable",
      "type": "function"
    },
    {
      "inputs": [
        {
          "internalType": "uint256",
          "name": "vaultId",
          "type": "uint256"
        }
      ],
      "name": "vaultXToken",
      "outputs": [
        {
          "internalType": "address",
          "name": "",
          "type": "address"
        }
      ],
      "stateMutability": "view",
      "type": "function"
    },
    {
      "inputs": [
        {
          "internalType": "uint256",
          "name": "vaultId",
          "type": "uint256"
        },
        {
          "internalType": "uint256",
          "name": "_share",
          "type": "uint256"
        }
      ],
      "name": "withdraw",
      "outputs": [],
      "stateMutability": "nonpayable",
      "type": "function"
    },
    {
      "inputs": [
        {
          "internalType": "address",
          "name": "baseToken",
          "type": "address"
        }
      ],
      "name": "xTokenAddr",
      "outputs": [
        {
          "internalType": "address",
          "name": "",
          "type": "address"
        }
      ],
      "stateMutability": "view",
      "type": "function"
    },
    {
      "inputs": [
        {
          "internalType": "uint256",
          "name": "vaultId",
          "type": "uint256"
        }
      ],
      "name": "xTokenShareValue",
      "outputs": [
        {
          "internalType": "uint256",
          "name": "",
          "type": "uint256"
        }
      ],
      "stateMutability": "view",
      "type": "function"
    }
  ],
  "bytecode": "0x608060405234801561001057600080fd5b50614c69806100206000396000f3fe60806040523480156200001157600080fd5b50600436106200020c5760003560e01c8063715018a61162000125578063cda13d6711620000af578063f0f2a4d7116200007a578063f0f2a4d714620004b1578063f2fde38b14620004c8578063f36d52da14620004df578063fabc1cbc14620004f657600080fd5b8063cda13d67146200045a578063da5257161462000471578063e2bbb1581462000483578063e5956027146200049a57600080fd5b806392054f8b11620000f057806392054f8b14620003ef578063a2700d781462000406578063bdf2a43c146200041d578063c23c6da0146200044357600080fd5b8063715018a614620003a55780637c77b61614620003af578063881b2f2d14620003c65780638da5cb5b14620003dd57600080fd5b80632699f55a11620001a75780633a2950af11620001725780633a2950af14620003495780634363fcd21462000360578063441a3e7014620003775780634dfa5fcf146200038e57600080fd5b80632699f55a14620002fd5780633656eec2146200031457806337ce42bf146200032b5780633801daf1146200033557600080fd5b806311ad9d3811620001e857806311ad9d3814620002a2578063136439dd14620002b65780631f1713fc14620002cf57806323845fb514620002e657600080fd5b8062c46d811462000211578063034fc83c146200023b5780630c68ba21146200026b575b600080fd5b6200022862000222366004620025a8565b6200050d565b6040519081526020015b60405180910390f35b620002526200024c366004620025a8565b62000751565b6040516001600160a01b03909116815260200162000232565b620002916200027c366004620025d8565b60656020526000908152604090205460ff1681565b604051901515815260200162000232565b606a5462000252906001600160a01b031681565b620002cd620002c7366004620025a8565b620007ff565b005b620002cd620002e0366004620025d8565b620008a6565b620002cd620002f736600462002607565b620008e1565b620002286200030e36600462002645565b62000971565b620002286200032536600462002687565b62000b71565b6200022860695481565b60685462000252906001600160a01b031681565b620002cd6200035a366004620025a8565b62000bfb565b6200022862000371366004620025a8565b62000c72565b620002cd62000388366004620026af565b62000e95565b620002286200039f366004620025a8565b62000feb565b620002cd620012a3565b620002cd620003c0366004620025a8565b6200131a565b62000291620003d7366004620026d2565b6200137a565b6033546001600160a01b031662000252565b620002cd62000400366004620025d8565b62001417565b620002cd62000417366004620025d8565b62001466565b620002916200042e366004620025a8565b60666020526000908152604090205460ff1681565b620002286200045436600462002687565b6200153b565b620002526200046b366004620025d8565b6200157c565b6067546001600160a01b031662000252565b620002cd62000494366004620026af565b620015f5565b620002cd620004ab366004620025d8565b620016a9565b620002cd620004c2366004620025a8565b62001726565b620002cd620004d9366004620025d8565b62001815565b62000291620004f0366004620026af565b62001905565b620002cd62000507366004620025a8565b62001b72565b6068546040516340d1b7db60e11b81526004810183905260009182916001600160a01b03909116906381a36fb690602401602060405180830381865afa1580156200055c573d6000803e3d6000fd5b505050506040513d601f19601f8201168201806040525081019062000582919062002701565b9050600062000591826200157c565b90506001600160a01b038116620005c55760405162461bcd60e51b8152600401620005bc9062002721565b60405180910390fd5b670de0b6b3a76400006000620005db8662000feb565b6040516370a0823160e01b81526001600160a01b0385811660048301528616906370a0823190602401602060405180830381865afa15801562000622573d6000803e3d6000fd5b505050506040513d601f19601f820116820180604052508101906200064891906200274e565b6200065491906200277e565b90506000836001600160a01b03166318160ddd6040518163ffffffff1660e01b8152600401602060405180830381865afa15801562000697573d6000803e3d6000fd5b505050506040513d601f19601f82011682018060405250810190620006bd91906200274e565b11620006ca578162000747565b826001600160a01b03166318160ddd6040518163ffffffff1660e01b8152600401602060405180830381865afa15801562000709573d6000803e3d6000fd5b505050506040513d601f19601f820116820180604052508101906200072f91906200274e565b6200073b828462002799565b620007479190620027bb565b9695505050505050565b6068546040516340d1b7db60e11b81526004810183905260009182916001600160a01b03909116906381a36fb690602401602060405180830381865afa158015620007a0573d6000803e3d6000fd5b505050506040513d601f19601f82011682018060405250810190620007c6919062002701565b90506000620007d5826200157c565b9050803b620007f85760405162461bcd60e51b8152600401620005bc9062002721565b9392505050565b3360009081526065602052604090205460ff166200084e5760405162461bcd60e51b815260206004820152600b60248201526a43616e277420706175736560a81b6044820152606401620005bc565b600081815260666020908152604091829020805460ff191660019081179091558251848152918201527f77f1fcfcce67dc392d64f842056d2ec06c80986c47c910f7e79c5b23a2738d7491015b60405180910390a150565b6033546001600160a01b03163314620008d35760405162461bcd60e51b8152600401620005bc90620027de565b620008de8162001bed565b50565b6033546001600160a01b031633146200090e5760405162461bcd60e51b8152600401620005bc90620027de565b6001600160a01b038216600081815260656020908152604091829020805460ff19168515159081179091558251938452908301527fd0b6b573d5442f7c29fd50d9735ae341581c25c6ed07748d50eda519f1ffa88a910160405180910390a15050565b60006200097f600a6200131a565b606860009054906101000a90046001600160a01b03166001600160a01b0316632549dad96040518163ffffffff1660e01b8152600401602060405180830381865afa158015620009d3573d6000803e3d6000fd5b505050506040513d601f19601f82011682018060405250810190620009f9919062002701565b6001600160a01b0316336001600160a01b03161462000a4d5760405162461bcd60e51b815260206004820152600f60248201526e04e6f74207374616b696e67207a617608c1b6044820152606401620005bc565b6068546040516306df336560e51b81523360048201526001600160a01b039091169063dbe66ca090602401602060405180830381865afa15801562000a96573d6000803e3d6000fd5b505050506040513d601f19601f8201168201806040525081019062000abc919062002813565b62000afd5760405162461bcd60e51b815260206004820152601060248201526f139bdd0819995948195e18db1d59195960821b6044820152606401620005bc565b600062000b0d8685878662001cad565b604080518a8152602081018a9052808201839052606081018890526001600160a01b038916608082015290519194507ff6d712df0bc2e9953a525976e57448a1dcb9b85f49402ab6cce0cea20fc5249c935081900360a0019150a195945050505050565b60008062000b7f8462000751565b6040516370a0823160e01b81526001600160a01b038581166004830152919250908216906370a08231906024015b602060405180830381865afa15801562000bcb573d6000803e3d6000fd5b505050506040513d601f19601f8201168201806040525081019062000bf191906200274e565b9150505b92915050565b6033546001600160a01b0316331462000c285760405162461bcd60e51b8152600401620005bc90620027de565b6212750081111562000c6d5760405162461bcd60e51b815260206004820152600d60248201526c4c6f636b20746f6f206c6f6e6760981b6044820152606401620005bc565b606955565b6068546040516340d1b7db60e11b81526004810183905260009182916001600160a01b03909116906381a36fb690602401602060405180830381865afa15801562000cc1573d6000803e3d6000fd5b505050506040513d601f19601f8201168201806040525081019062000ce7919062002701565b9050600062000cf6826200157c565b90506001600160a01b03811662000d215760405162461bcd60e51b8152600401620005bc9062002721565b6000670de0b6b3a764000090506000826001600160a01b03166318160ddd6040518163ffffffff1660e01b8152600401602060405180830381865afa15801562000d6f573d6000803e3d6000fd5b505050506040513d601f19601f8201168201806040525081019062000d9591906200274e565b1162000da2578062000e8c565b816001600160a01b03166318160ddd6040518163ffffffff1660e01b8152600401602060405180830381865afa15801562000de1573d6000803e3d6000fd5b505050506040513d601f19601f8201168201806040525081019062000e0791906200274e565b6040516370a0823160e01b81526001600160a01b0384811660048301528516906370a0823190602401602060405180830381865afa15801562000e4e573d6000803e3d6000fd5b505050506040513d601f19601f8201168201806040525081019062000e7491906200274e565b62000e80908362002799565b62000e8c9190620027bb565b95945050505050565b62000ea08262001ddc565b6068546040516340d1b7db60e11b8152600481018490526000916001600160a01b0316906381a36fb690602401602060405180830381865afa15801562000eeb573d6000803e3d6000fd5b505050506040513d601f19601f8201168201806040525081019062000f11919062002701565b9050600062000f20826200157c565b6040516319e616a360e01b8152336004820152602481018590529091506000906001600160a01b038316906319e616a3906044016020604051808303816000875af115801562000f74573d6000803e3d6000fd5b505050506040513d601f19601f8201168201806040525081019062000f9a91906200274e565b60408051878152602081018390529081018690523360608201529091507f3049105fcf2a17b0c1862f64c05a6b2df2176ea17686f7cbf2689887594dd2f89060800160405180910390a15050505050565b600080606860009054906101000a90046001600160a01b03166001600160a01b0316630d43e8ad6040518163ffffffff1660e01b8152600401602060405180830381865afa15801562001042573d6000803e3d6000fd5b505050506040513d601f19601f8201168201806040525081019062001068919062002701565b604051632819fec960e11b81526001600482015290915060009081906001600160a01b03841690635033fd92906024016040805180830381865afa158015620010b5573d6000803e3d6000fd5b505050506040513d601f19601f82011682018060405250810190620010db919062002833565b90925090506001600160a01b0382163014620011285760405162461bcd60e51b815260206004820152600b60248201526a0eee4dedcce40d2dcc8caf60ab1b6044820152606401620005bc565b6068546040516340d1b7db60e11b815260048101879052670de0b6b3a76400009183916001600160a01b03909116906381a36fb690602401602060405180830381865afa1580156200117e573d6000803e3d6000fd5b505050506040513d601f19601f82011682018060405250810190620011a4919062002701565b6001600160a01b03166370a08231606860009054906101000a90046001600160a01b03166001600160a01b0316630d43e8ad6040518163ffffffff1660e01b8152600401602060405180830381865afa15801562001206573d6000803e3d6000fd5b505050506040513d601f19601f820116820180604052508101906200122c919062002701565b6040516001600160e01b031960e084901b1681526001600160a01b039091166004820152602401602060405180830381865afa15801562001271573d6000803e3d6000fd5b505050506040513d601f19601f820116820180604052508101906200129791906200274e565b62000e80919062002799565b6033546001600160a01b03163314620012d05760405162461bcd60e51b8152600401620005bc90620027de565b6033546040516000916001600160a01b0316907f8be0079c531659141344cd1fd0a4f28419497f9722a3daafe3b4186f6b6457e0908390a3603380546001600160a01b0319169055565b60008181526066602052604090205460ff1615806200134357506033546001600160a01b031633145b620008de5760405162461bcd60e51b815260206004820152600660248201526514185d5cd95960d21b6044820152606401620005bc565b606a546000906001600160a01b0316620013975750600062000bf5565b606a546040516340f4bdb360e11b81526001600160a01b03858116600483015260248201859052909116906381e97b6690604401602060405180830381865afa158015620013e9573d6000803e3d6000fd5b505050506040513d601f19601f820116820180604052508101906200140f919062002813565b905062000bf5565b6033546001600160a01b03163314620014445760405162461bcd60e51b8152600401620005bc90620027de565b606a80546001600160a01b0319166001600160a01b0392909216919091179055565b600054610100900460ff168062001480575060005460ff16155b6200149f5760405162461bcd60e51b8152600401620005bc9062002864565b600054610100900460ff16158015620014c2576000805461ffff19166101011790555b620014cc62001ebb565b606880546001600160a01b0319166001600160a01b038416179055604051600090620014f8906200258c565b604051809103906000f08015801562001515573d6000803e3d6000fd5b5090506200152381620016a9565b50801562001537576000805461ff00191690555b5050565b600080620015498462000751565b60405163c19ea05360e01b81526001600160a01b0385811660048301529192509082169063c19ea0539060240162000bad565b6040516001600160601b0319606083901b16602082015260009081906034016040516020818303038152906040528051906020012090506000620015ed8260405180602001620015cc906200259a565b6020820181038252601f19601f820116604052508051906020012062001f40565b949350505050565b62001601600a6200131a565b60006200160f33846200137a565b6200161d5760695462001620565b60005b90506000806000620016358633878762001cad565b91945092509050620016536001600160a01b03841633848862001f98565b6040805187815260208101879052908101829052606081018590523360808201527ff6d712df0bc2e9953a525976e57448a1dcb9b85f49402ab6cce0cea20fc5249c9060a00160405180910390a1505050505050565b600054610100900460ff1680620016c3575060005460ff16155b620016e25760405162461bcd60e51b8152600401620005bc9062002864565b600054610100900460ff1615801562001705576000805461ffff19166101011790555b620017108262001bed565b801562001537576000805461ff00191690555050565b6068546040516340d1b7db60e11b8152600481018390526000916001600160a01b0316906381a36fb690602401602060405180830381865afa15801562001771573d6000803e3d6000fd5b505050506040513d601f19601f8201168201806040525081019062001797919062002701565b90506000620017a6826200157c565b9050803b15620017b557505050565b6000620017c28362001ffa565b604080518681526001600160a01b03868116602083015283168183015290519192507fb3f4e35b757d28b36d957b4485e408df4f1b3a43f1fe56a7a74eb66f9904d734919081900360600190a150505050565b6033546001600160a01b03163314620018425760405162461bcd60e51b8152600401620005bc90620027de565b6001600160a01b038116620018a95760405162461bcd60e51b815260206004820152602660248201527f4f776e61626c653a206e6577206f776e657220697320746865207a65726f206160448201526564647265737360d01b6064820152608401620005bc565b6033546040516001600160a01b038084169216907f8be0079c531659141344cd1fd0a4f28419497f9722a3daafe3b4186f6b6457e090600090a3603380546001600160a01b0319166001600160a01b0392909216919091179055565b60006200191a6033546001600160a01b031690565b6001600160a01b0316336001600160a01b03161480620019c45750606860009054906101000a90046001600160a01b03166001600160a01b0316630d43e8ad6040518163ffffffff1660e01b8152600401602060405180830381865afa15801562001989573d6000803e3d6000fd5b505050506040513d601f19601f82011682018060405250810190620019af919062002701565b6001600160a01b0316336001600160a01b0316145b62001a125760405162461bcd60e51b815260206004820152601960248201527f4c505374616b696e673a204e6f7420617574686f72697a6564000000000000006044820152606401620005bc565b6068546040516340d1b7db60e11b8152600481018590526000916001600160a01b0316906381a36fb690602401602060405180830381865afa15801562001a5d573d6000803e3d6000fd5b505050506040513d601f19601f8201168201806040525081019062001a83919062002701565b9050600062001a92826200157c565b9050803b158062001b055750806001600160a01b03166318160ddd6040518163ffffffff1660e01b8152600401602060405180830381865afa15801562001add573d6000803e3d6000fd5b505050506040513d601f19601f8201168201806040525081019062001b0391906200274e565b155b1562001b175760009250505062000bf5565b62001b2e6001600160a01b03831633838762001f98565b60408051868152602081018690527f0299314386021feac38b734d748626da8e75d6abb4e6a897c0f9c8f23ff42715910160405180910390a1506001949350505050565b6033546001600160a01b0316331462001b9f5760405162461bcd60e51b8152600401620005bc90620027de565b6000818152606660209081526040808320805460ff191690558051848152918201929092527f77f1fcfcce67dc392d64f842056d2ec06c80986c47c910f7e79c5b23a2738d7491016200089b565b803b62001c635760405162461bcd60e51b815260206004820152603960248201527f5570677261646561626c65426561636f6e3a206368696c6420696d706c656d6560448201527f6e746174696f6e206973206e6f74206120636f6e7472616374000000000000006064820152608401620005bc565b606780546001600160a01b0319166001600160a01b0383169081179091556040517fbc7cd75a20ee27fd9adebab32041f755214dbc6bffa90cc0225b39da2e5c2d3b90600090a250565b600080600062001cbd8762001726565b6068546040516340d1b7db60e11b8152600481018990526000916001600160a01b0316906381a36fb690602401602060405180830381865afa15801562001d08573d6000803e3d6000fd5b505050506040513d601f19601f8201168201806040525081019062001d2e919062002701565b9050600062001d3d826200157c565b905062001d4a8962001ddc565b604051637efe41b160e01b81526001600160a01b038981166004830152602482018990526044820188905260009190831690637efe41b1906064016020604051808303816000875af115801562001da5573d6000803e3d6000fd5b505050506040513d601f19601f8201168201806040525081019062001dcb91906200274e565b929a91995091975095505050505050565b606860009054906101000a90046001600160a01b03166001600160a01b0316630d43e8ad6040518163ffffffff1660e01b8152600401602060405180830381865afa15801562001e30573d6000803e3d6000fd5b505050506040513d601f19601f8201168201806040525081019062001e56919062002701565b6001600160a01b03166391c05b0b826040518263ffffffff1660e01b815260040162001e8491815260200190565b600060405180830381600087803b15801562001e9f57600080fd5b505af115801562001eb4573d6000803e3d6000fd5b5050505050565b600054610100900460ff168062001ed5575060005460ff16155b62001ef45760405162461bcd60e51b8152600401620005bc9062002864565b600054610100900460ff1615801562001f17576000805461ffff19166101011790555b62001f2162002166565b62001f2b620021d6565b8015620008de576000805461ff001916905550565b604080516001600160f81b03196020808301919091526001600160601b03193060601b1660218301526035820185905260558083018590528351808403909101815260759092019092528051910120600090620007f8565b604080516001600160a01b0385811660248301528416604482015260648082018490528251808303909101815260849091019091526020810180516001600160e01b03166323b872dd60e01b17905262001ff49085906200228a565b50505050565b600080826001600160a01b03166395d89b416040518163ffffffff1660e01b8152600401600060405180830381865afa1580156200203c573d6000803e3d6000fd5b505050506040513d6000823e601f3d908101601f19168201604052620020669190810190620028f7565b9050806040516020016200207b9190620029a5565b60408051601f19818403018152908290526001600160601b0319606086901b16602083015291506000906034016040516020818303038152906040528051906020012090506000620020f460008360405180602001620020db906200259a565b601f1982820381018352601f9091011660405262002368565b6040516330fe73fd60e01b81529091506001600160a01b038216906330fe73fd906200212990889087908190600401620029fe565b600060405180830381600087803b1580156200214457600080fd5b505af115801562002159573d6000803e3d6000fd5b5092979650505050505050565b600054610100900460ff168062002180575060005460ff16155b6200219f5760405162461bcd60e51b8152600401620005bc9062002864565b600054610100900460ff1615801562001f2b576000805461ffff19166101011790558015620008de576000805461ff001916905550565b600054610100900460ff1680620021f0575060005460ff16155b6200220f5760405162461bcd60e51b8152600401620005bc9062002864565b600054610100900460ff1615801562002232576000805461ffff19166101011790555b603380546001600160a01b0319163390811790915560405181906000907f8be0079c531659141344cd1fd0a4f28419497f9722a3daafe3b4186f6b6457e0908290a3508015620008de576000805461ff001916905550565b6000620022e1826040518060400160405280602081526020017f5361666545524332303a206c6f772d6c6576656c2063616c6c206661696c6564815250856001600160a01b0316620024739092919063ffffffff16565b80519091501562002363578080602001905181019062002302919062002813565b620023635760405162461bcd60e51b815260206004820152602a60248201527f5361666545524332303a204552433230206f7065726174696f6e20646964206e6044820152691bdd081cdd58d8d9595960b21b6064820152608401620005bc565b505050565b60008084471015620023bd5760405162461bcd60e51b815260206004820152601d60248201527f437265617465323a20696e73756666696369656e742062616c616e63650000006044820152606401620005bc565b8251600003620024105760405162461bcd60e51b815260206004820181905260248201527f437265617465323a2062797465636f6465206c656e677468206973207a65726f6044820152606401620005bc565b8383516020850187f590506001600160a01b038116620015ed5760405162461bcd60e51b815260206004820152601960248201527f437265617465323a204661696c6564206f6e206465706c6f79000000000000006044820152606401620005bc565b6060620015ed848460008585843b620024cf5760405162461bcd60e51b815260206004820152601d60248201527f416464726573733a2063616c6c20746f206e6f6e2d636f6e74726163740000006044820152606401620005bc565b600080866001600160a01b03168587604051620024ed919062002a38565b60006040518083038185875af1925050503d80600081146200252c576040519150601f19603f3d011682016040523d82523d6000602084013e62002531565b606091505b5091509150620025438282866200254e565b979650505050505050565b606083156200255f575081620007f8565b825115620025705782518084602001fd5b8160405162461bcd60e51b8152600401620005bc919062002a56565b611a158062002a6c83390190565b6107b3806200448183390190565b600060208284031215620025bb57600080fd5b5035919050565b6001600160a01b0381168114620008de57600080fd5b600060208284031215620025eb57600080fd5b8135620007f881620025c2565b8015158114620008de57600080fd5b600080604083850312156200261b57600080fd5b82356200262881620025c2565b915060208301356200263a81620025f8565b809150509250929050565b600080600080608085870312156200265c57600080fd5b843593506020850135925060408501356200267781620025c2565b9396929550929360600135925050565b600080604083850312156200269b57600080fd5b8235915060208301356200263a81620025c2565b60008060408385031215620026c357600080fd5b50508035926020909101359150565b60008060408385031215620026e657600080fd5b8235620026f381620025c2565b946020939093013593505050565b6000602082840312156200271457600080fd5b8151620007f881620025c2565b60208082526013908201527216151bdad95b881b9bdd0819195c1b1bde5959606a1b604082015260600190565b6000602082840312156200276157600080fd5b5051919050565b634e487b7160e01b600052601160045260246000fd5b6000821982111562002794576200279462002768565b500190565b6000816000190483118215151615620027b657620027b662002768565b500290565b600082620027d957634e487b7160e01b600052601260045260246000fd5b500490565b6020808252818101527f4f776e61626c653a2063616c6c6572206973206e6f7420746865206f776e6572604082015260600190565b6000602082840312156200282657600080fd5b8151620007f881620025f8565b600080604083850312156200284757600080fd5b82516200285481620025c2565b6020939093015192949293505050565b6020808252602e908201527f496e697469616c697a61626c653a20636f6e747261637420697320616c72656160408201526d191e481a5b9a5d1a585b1a5e995960921b606082015260800190565b634e487b7160e01b600052604160045260246000fd5b60005b83811015620028e5578181015183820152602001620028cb565b8381111562001ff45750506000910152565b6000602082840312156200290a57600080fd5b815167ffffffffffffffff808211156200292357600080fd5b818401915084601f8301126200293857600080fd5b8151818111156200294d576200294d620028b2565b604051601f8201601f19908116603f01168101908382118183101715620029785762002978620028b2565b816040528281528760208487010111156200299257600080fd5b62002543836020830160208801620028c8565b600f60fb1b815260008251620029c3816001850160208701620028c8565b9190910160010192915050565b60008151808452620029ea816020860160208601620028c8565b601f01601f19169290920160200192915050565b6001600160a01b038416815260606020820181905260009062002a2490830185620029d0565b8281036040840152620007478185620029d0565b6000825162002a4c818460208701620028c8565b9190910192915050565b602081526000620007f86020830184620029d056fe608060405234801561001057600080fd5b506119f5806100206000396000f3fe608060405234801561001057600080fd5b506004361061012c5760003560e01c80637efe41b1116100ad578063b068498d11610071578063b068498d14610278578063c19ea0531461028b578063c55dae63146102b4578063dd62ed3e146102c7578063f2fde38b1461030057600080fd5b80637efe41b1146102125780638da5cb5b1461022557806395d89b411461024a578063a457c2d714610252578063a9059cbb1461026557600080fd5b806330fe73fd116100f457806330fe73fd146101aa578063313ce567146101bf57806339509351146101ce57806370a08231146101e1578063715018a61461020a57600080fd5b806306fdde0314610131578063095ea7b31461014f57806318160ddd1461017257806319e616a31461018457806323b872dd14610197575b600080fd5b610139610313565b60405161014691906115d8565b60405180910390f35b61016261015d366004611627565b6103a5565b6040519015158152602001610146565b6067545b604051908152602001610146565b610176610192366004611627565b6103bb565b6101626101a5366004611651565b6104ad565b6101bd6101b8366004611730565b610560565b005b60405160128152602001610146565b6101626101dc366004611627565b6105fc565b6101766101ef3660046117a4565b6001600160a01b031660009081526065602052604090205490565b6101bd610633565b6101766102203660046117bf565b6106a7565b6033546001600160a01b03165b6040516001600160a01b039091168152602001610146565b6101396107a3565b610162610260366004611627565b6107b2565b610162610273366004611627565b61084d565b6101bd610286366004611627565b61085a565b6101766102993660046117a4565b6001600160a01b031660009081526098602052604090205490565b609754610232906001600160a01b031681565b6101766102d53660046117f2565b6001600160a01b03918216600090815260666020908152604080832093909416825291909152205490565b6101bd61030e3660046117a4565b61094f565b60606068805461032290611825565b80601f016020809104026020016040519081016040528092919081815260200182805461034e90611825565b801561039b5780601f106103705761010080835404028352916020019161039b565b820191906000526020600020905b81548152906001019060200180831161037e57829003601f168201915b5050505050905090565b60006103b2338484610a3a565b50600192915050565b6033546000906001600160a01b031633146103f15760405162461bcd60e51b81526004016103e89061185f565b60405180910390fd5b60006103fc60675490565b6097546040516370a0823160e01b815230600482015291925060009183916001600160a01b0316906370a0823190602401602060405180830381865afa15801561044a573d6000803e3d6000fd5b505050506040513d601f19601f8201168201806040525081019061046e9190611894565b61047890866118c3565b61048291906118e2565b905061048e8585610b5f565b6097546104a5906001600160a01b03168683610bc2565b949350505050565b60006104ba848484610c14565b6001600160a01b03841660009081526066602090815260408083203384529091529020548281101561053f5760405162461bcd60e51b815260206004820152602860248201527f45524332303a207472616e7366657220616d6f756e74206578636565647320616044820152676c6c6f77616e636560c01b60648201526084016103e8565b610553853361054e8685611904565b610a3a565b60019150505b9392505050565b600054610100900460ff1680610579575060005460ff16155b6105955760405162461bcd60e51b81526004016103e89061191b565b600054610100900460ff161580156105b7576000805461ffff19166101011790555b6105bf610c74565b6105c98383610cf0565b609780546001600160a01b0319166001600160a01b03861617905580156105f6576000805461ff00191690555b50505050565b3360008181526066602090815260408083206001600160a01b038716845290915281205490916103b291859061054e908690611969565b6033546001600160a01b0316331461065d5760405162461bcd60e51b81526004016103e89061185f565b6033546040516000916001600160a01b0316907f8be0079c531659141344cd1fd0a4f28419497f9722a3daafe3b4186f6b6457e0908390a3603380546001600160a01b0319169055565b6033546000906001600160a01b031633146106d45760405162461bcd60e51b81526004016103e89061185f565b6097546040516370a0823160e01b81523060048201526000916001600160a01b0316906370a0823190602401602060405180830381865afa15801561071d573d6000803e3d6000fd5b505050506040513d601f19601f820116820180604052508101906107419190611894565b9050600061074e60675490565b905080158061075b575081155b156107755761076b868686610d6f565b8492505050610559565b60008261078283886118c3565b61078c91906118e2565b9050610799878287610d6f565b9250610559915050565b60606069805461032290611825565b3360009081526066602090815260408083206001600160a01b0386168452909152812054828110156108345760405162461bcd60e51b815260206004820152602560248201527f45524332303a2064656372656173656420616c6c6f77616e63652062656c6f77604482015264207a65726f60d81b60648201526084016103e8565b610843338561054e8685611904565b5060019392505050565b60006103b2338484610c14565b6033546001600160a01b031633146108845760405162461bcd60e51b81526004016103e89061185f565b62278d0081106108c65760405162461bcd60e51b815260206004820152600d60248201526c546f6f206c6f6e67206c6f636b60981b60448201526064016103e8565b60006108d28242611969565b6001600160a01b03841660009081526098602052604090205490915081111561094a576001600160a01b038316600081815260986020908152604091829020849055815192835282018390527f38f63775093182d55eb9f15cb41c506fd976eadb1b4544ba0aeaed494ee70cde910160405180910390a15b505050565b6033546001600160a01b031633146109795760405162461bcd60e51b81526004016103e89061185f565b6001600160a01b0381166109de5760405162461bcd60e51b815260206004820152602660248201527f4f776e61626c653a206e6577206f776e657220697320746865207a65726f206160448201526564647265737360d01b60648201526084016103e8565b6033546040516001600160a01b038084169216907f8be0079c531659141344cd1fd0a4f28419497f9722a3daafe3b4186f6b6457e090600090a3603380546001600160a01b0319166001600160a01b0392909216919091179055565b6001600160a01b038316610a9c5760405162461bcd60e51b8152602060048201526024808201527f45524332303a20617070726f76652066726f6d20746865207a65726f206164646044820152637265737360e01b60648201526084016103e8565b6001600160a01b038216610afd5760405162461bcd60e51b815260206004820152602260248201527f45524332303a20617070726f766520746f20746865207a65726f206164647265604482015261737360f01b60648201526084016103e8565b6001600160a01b0383811660008181526066602090815260408083209487168084529482529182902085905590518481527f8c5be1e5ebec7d5bd14f71427d1e84f3dd0314c0f7b2291e5b200ac8c7c3b92591015b60405180910390a3505050565b6001600160a01b0382166000908152609860205260409020544211610bb45760405162461bcd60e51b815260206004820152600b60248201526a155cd95c881b1bd8dad95960aa1b60448201526064016103e8565b610bbe8282610d83565b5050565b604080516001600160a01b038416602482015260448082018490528251808303909101815260649091019091526020810180516001600160e01b031663a9059cbb60e01b17905261094a908490610ed2565b6001600160a01b0383166000908152609860205260409020544211610c695760405162461bcd60e51b815260206004820152600b60248201526a155cd95c881b1bd8dad95960aa1b60448201526064016103e8565b61094a838383610fa4565b600054610100900460ff1680610c8d575060005460ff16155b610ca95760405162461bcd60e51b81526004016103e89061191b565b600054610100900460ff16158015610ccb576000805461ffff19166101011790555b610cd361117c565b610cdb6111e6565b8015610ced576000805461ff00191690555b50565b600054610100900460ff1680610d09575060005460ff16155b610d255760405162461bcd60e51b81526004016103e89061191b565b600054610100900460ff16158015610d47576000805461ffff19166101011790555b610d4f61117c565b610d598383611294565b801561094a576000805461ff0019169055505050565b610d79838261085a565b61094a8383611329565b6001600160a01b038216610de35760405162461bcd60e51b815260206004820152602160248201527f45524332303a206275726e2066726f6d20746865207a65726f206164647265736044820152607360f81b60648201526084016103e8565b6001600160a01b03821660009081526065602052604090205481811015610e575760405162461bcd60e51b815260206004820152602260248201527f45524332303a206275726e20616d6f756e7420657863656564732062616c616e604482015261636560f01b60648201526084016103e8565b610e618282611904565b6001600160a01b03841660009081526065602052604081209190915560678054849290610e8f908490611904565b90915550506040518281526000906001600160a01b038516907fddf252ad1be2c89b69c2b068fc378daa952ba7f163c4a11628f55a4df523b3ef90602001610b52565b6000610f27826040518060400160405280602081526020017f5361666545524332303a206c6f772d6c6576656c2063616c6c206661696c6564815250856001600160a01b03166114089092919063ffffffff16565b80519091501561094a5780806020019051810190610f459190611981565b61094a5760405162461bcd60e51b815260206004820152602a60248201527f5361666545524332303a204552433230206f7065726174696f6e20646964206e6044820152691bdd081cdd58d8d9595960b21b60648201526084016103e8565b6001600160a01b0383166110085760405162461bcd60e51b815260206004820152602560248201527f45524332303a207472616e736665722066726f6d20746865207a65726f206164604482015264647265737360d81b60648201526084016103e8565b6001600160a01b03821661106a5760405162461bcd60e51b815260206004820152602360248201527f45524332303a207472616e7366657220746f20746865207a65726f206164647260448201526265737360e81b60648201526084016103e8565b6001600160a01b038316600090815260656020526040902054818110156110e25760405162461bcd60e51b815260206004820152602660248201527f45524332303a207472616e7366657220616d6f756e7420657863656564732062604482015265616c616e636560d01b60648201526084016103e8565b6110ec8282611904565b6001600160a01b038086166000908152606560205260408082209390935590851681529081208054849290611122908490611969565b92505081905550826001600160a01b0316846001600160a01b03167fddf252ad1be2c89b69c2b068fc378daa952ba7f163c4a11628f55a4df523b3ef8460405161116e91815260200190565b60405180910390a350505050565b600054610100900460ff1680611195575060005460ff16155b6111b15760405162461bcd60e51b81526004016103e89061191b565b600054610100900460ff16158015610cdb576000805461ffff19166101011790558015610ced576000805461ff001916905550565b600054610100900460ff16806111ff575060005460ff16155b61121b5760405162461bcd60e51b81526004016103e89061191b565b600054610100900460ff1615801561123d576000805461ffff19166101011790555b603380546001600160a01b0319163390811790915560405181906000907f8be0079c531659141344cd1fd0a4f28419497f9722a3daafe3b4186f6b6457e0908290a3508015610ced576000805461ff001916905550565b600054610100900460ff16806112ad575060005460ff16155b6112c95760405162461bcd60e51b81526004016103e89061191b565b600054610100900460ff161580156112eb576000805461ffff19166101011790555b82516112fe906068906020860190611513565b508151611312906069906020850190611513565b50801561094a576000805461ff0019169055505050565b6001600160a01b03821661137f5760405162461bcd60e51b815260206004820152601f60248201527f45524332303a206d696e7420746f20746865207a65726f20616464726573730060448201526064016103e8565b80606760008282546113919190611969565b90915550506001600160a01b038216600090815260656020526040812080548392906113be908490611969565b90915550506040518181526001600160a01b038316906000907fddf252ad1be2c89b69c2b068fc378daa952ba7f163c4a11628f55a4df523b3ef9060200160405180910390a35050565b60606104a5848460008585843b6114615760405162461bcd60e51b815260206004820152601d60248201527f416464726573733a2063616c6c20746f206e6f6e2d636f6e747261637400000060448201526064016103e8565b600080866001600160a01b0316858760405161147d91906119a3565b60006040518083038185875af1925050503d80600081146114ba576040519150601f19603f3d011682016040523d82523d6000602084013e6114bf565b606091505b50915091506114cf8282866114da565b979650505050505050565b606083156114e9575081610559565b8251156114f95782518084602001fd5b8160405162461bcd60e51b81526004016103e891906115d8565b82805461151f90611825565b90600052602060002090601f0160209004810192826115415760008555611587565b82601f1061155a57805160ff1916838001178555611587565b82800160010185558215611587579182015b8281111561158757825182559160200191906001019061156c565b50611593929150611597565b5090565b5b808211156115935760008155600101611598565b60005b838110156115c75781810151838201526020016115af565b838111156105f65750506000910152565b60208152600082518060208401526115f78160408501602087016115ac565b601f01601f19169190910160400192915050565b80356001600160a01b038116811461162257600080fd5b919050565b6000806040838503121561163a57600080fd5b6116438361160b565b946020939093013593505050565b60008060006060848603121561166657600080fd5b61166f8461160b565b925061167d6020850161160b565b9150604084013590509250925092565b634e487b7160e01b600052604160045260246000fd5b600082601f8301126116b457600080fd5b813567ffffffffffffffff808211156116cf576116cf61168d565b604051601f8301601f19908116603f011681019082821181831017156116f7576116f761168d565b8160405283815286602085880101111561171057600080fd5b836020870160208301376000602085830101528094505050505092915050565b60008060006060848603121561174557600080fd5b61174e8461160b565b9250602084013567ffffffffffffffff8082111561176b57600080fd5b611777878388016116a3565b9350604086013591508082111561178d57600080fd5b5061179a868287016116a3565b9150509250925092565b6000602082840312156117b657600080fd5b6105598261160b565b6000806000606084860312156117d457600080fd5b6117dd8461160b565b95602085013595506040909401359392505050565b6000806040838503121561180557600080fd5b61180e8361160b565b915061181c6020840161160b565b90509250929050565b600181811c9082168061183957607f821691505b60208210810361185957634e487b7160e01b600052602260045260246000fd5b50919050565b6020808252818101527f4f776e61626c653a2063616c6c6572206973206e6f7420746865206f776e6572604082015260600190565b6000602082840312156118a657600080fd5b5051919050565b634e487b7160e01b600052601160045260246000fd5b60008160001904831182151516156118dd576118dd6118ad565b500290565b6000826118ff57634e487b7160e01b600052601260045260246000fd5b500490565b600082821015611916576119166118ad565b500390565b6020808252602e908201527f496e697469616c697a61626c653a20636f6e747261637420697320616c72656160408201526d191e481a5b9a5d1a585b1a5e995960921b606082015260800190565b6000821982111561197c5761197c6118ad565b500190565b60006020828403121561199357600080fd5b8151801515811461055957600080fd5b600082516119b58184602087016115ac565b919091019291505056fea2646970667358221220724117f17a9f6d7b816eb0956b3035bf385cba62ab5c08d796b6f89b75c336d864736f6c634300080d0033608060405261002f60017fa3f0ad74e5423aebfd80d3ef4346578335a9a72aeaee59ff6cb3582b35133d516103af565b6000805160206107728339815191521461004b5761004b6103d4565b61006a336040518060200160405280600081525061006f60201b60201c565b61048e565b6100828261021b60201b6100291760201c565b6100e15760405162461bcd60e51b815260206004820152602560248201527f426561636f6e50726f78793a20626561636f6e206973206e6f74206120636f6e6044820152641d1c9858dd60da1b60648201526084015b60405180910390fd5b610155826001600160a01b031663da5257166040518163ffffffff1660e01b8152600401602060405180830381865afa158015610122573d6000803e3d6000fd5b505050506040513d601f19601f8201168201806040525081019061014691906103ea565b61021b60201b6100291760201c565b6101c75760405162461bcd60e51b815260206004820152603460248201527f426561636f6e50726f78793a20626561636f6e20696d706c656d656e7461746960448201527f6f6e206973206e6f74206120636f6e747261637400000000000000000000000060648201526084016100d8565b600080516020610772833981519152828155815115610216576102146101eb610221565b836040518060600160405280602181526020016107926021913961029f60201b61002f1760201c565b505b505050565b3b151590565b60006102396000805160206107728339815191525490565b6001600160a01b031663da5257166040518163ffffffff1660e01b8152600401602060405180830381865afa158015610276573d6000803e3d6000fd5b505050506040513d601f19601f8201168201806040525081019061029a91906103ea565b905090565b6060833b6102fe5760405162461bcd60e51b815260206004820152602660248201527f416464726573733a2064656c65676174652063616c6c20746f206e6f6e2d636f6044820152651b9d1c9858dd60d21b60648201526084016100d8565b600080856001600160a01b031685604051610319919061043f565b600060405180830381855af49150503d8060008114610354576040519150601f19603f3d011682016040523d82523d6000602084013e610359565b606091505b50909250905061036a828286610376565b925050505b9392505050565b6060831561038557508161036f565b8251156103955782518084602001fd5b8160405162461bcd60e51b81526004016100d8919061045b565b6000828210156103cf57634e487b7160e01b600052601160045260246000fd5b500390565b634e487b7160e01b600052600160045260246000fd5b6000602082840312156103fc57600080fd5b81516001600160a01b038116811461036f57600080fd5b60005b8381101561042e578181015183820152602001610416565b838111156102145750506000910152565b60008251610451818460208701610413565b9190910192915050565b602081526000825180602084015261047a816040850160208701610413565b601f01601f19169190910160400192915050565b6102d58061049d6000396000f3fe60806040523661001357610011610017565b005b6100115b61002761002261010a565b61019a565b565b3b151590565b6060833b6100935760405162461bcd60e51b815260206004820152602660248201527f416464726573733a2064656c65676174652063616c6c20746f206e6f6e2d636f6044820152651b9d1c9858dd60d21b60648201526084015b60405180910390fd5b600080856001600160a01b0316856040516100ae9190610227565b600060405180830381855af49150503d80600081146100e9576040519150601f19603f3d011682016040523d82523d6000602084013e6100ee565b606091505b50915091506100fe8282866101be565b925050505b9392505050565b60006101347fa3f0ad74e5423aebfd80d3ef4346578335a9a72aeaee59ff6cb3582b35133d505490565b6001600160a01b031663da5257166040518163ffffffff1660e01b8152600401602060405180830381865afa158015610171573d6000803e3d6000fd5b505050506040513d601f19601f820116820180604052508101906101959190610243565b905090565b3660008037600080366000845af43d6000803e8080156101b9573d6000f35b3d6000fd5b606083156101cd575081610103565b8251156101dd5782518084602001fd5b8160405162461bcd60e51b815260040161008a919061026c565b60005b838110156102125781810151838201526020016101fa565b83811115610221576000848401525b50505050565b600082516102398184602087016101f7565b9190910192915050565b60006020828403121561025557600080fd5b81516001600160a01b038116811461010357600080fd5b602081526000825180602084015261028b8160408501602087016101f7565b601f01601f1916919091016040019291505056fea2646970667358221220a3e87a68e6efd0e4345b8ee9eea05501f997058ccadd4827692cefe2d849187264736f6c634300080d0033a3f0ad74e5423aebfd80d3ef4346578335a9a72aeaee59ff6cb3582b35133d50426561636f6e50726f78793a2066756e6374696f6e2063616c6c206661696c6564a2646970667358221220bdeea1cda364abb2b94708d675cfd40628fb610d6cb3f2a8558b66c32f0bf00b64736f6c634300080d0033",
  "linkReferences": {},
  "deployedLinkReferences": {}
}