{
  "_format": "hh-sol-artifact-1",
  "contractName": "MockStakingProvider",
  "sourceName": "contracts/solidity/testing/MockStakingProvider.sol",
  "abi": [
    {
      "inputs": [],
      "stateMutability": "nonpayable",
      "type": "constructor"
    },
    {
      "anonymous": false,
      "inputs": [
        {
          "indexed": true,
          "internalType": "address",
          "name": "previousOwner",
          "type": "address"
        },
        {
          "indexed": true,
          "internalType": "address",
          "name": "newOwner",
          "type": "address"
        }
      ],
      "name": "OwnershipTransferred",
      "type": "event"
    },
    {
      "inputs": [
        {
          "internalType": "address",
          "name": "_vaultToken",
          "type": "address"
        }
      ],
      "name": "nameForStakingToken",
      "outputs": [
        {
          "internalType": "string",
          "name": "",
          "type": "string"
        }
      ],
      "stateMutability": "view",
      "type": "function"
    },
    {
      "inputs": [],
      "name": "owner",
      "outputs": [
        {
          "internalType": "address",
          "name": "",
          "type": "address"
        }
      ],
      "stateMutability": "view",
      "type": "function"
    },
    {
      "inputs": [],
      "name": "renounceOwnership",
      "outputs": [],
      "stateMutability": "nonpayable",
      "type": "function"
    },
    {
      "inputs": [
        {
          "internalType": "bool",
          "name": "_changed",
          "type": "bool"
        }
      ],
      "name": "setChanged",
      "outputs": [],
      "stateMutability": "nonpayable",
      "type": "function"
    },
    {
      "inputs": [
        {
          "internalType": "address",
          "name": "_vaultToken",
          "type": "address"
        }
      ],
      "name": "stakingTokenForVaultToken",
      "outputs": [
        {
          "internalType": "address",
          "name": "",
          "type": "address"
        }
      ],
      "stateMutability": "view",
      "type": "function"
    },
    {
      "inputs": [
        {
          "internalType": "address",
          "name": "newOwner",
          "type": "address"
        }
      ],
      "name": "transferOwnership",
      "outputs": [],
      "stateMutability": "nonpayable",
      "type": "function"
    }
  ],
  "bytecode": "0x608060405234801561001057600080fd5b5061001961001e565b610256565b600054610100900460ff1680610037575060005460ff16155b61008d5760405162461bcd60e51b815260206004820152602e60248201526000805160206107c283398151915260448201526d191e481a5b9a5d1a585b1a5e995960921b60648201526084015b60405180910390fd5b600054610100900460ff161580156100af576000805461ffff19166101011790555b6100b76100d4565b6100bf610173565b80156100d1576000805461ff00191690555b50565b600054610100900460ff16806100ed575060005460ff16155b61013e5760405162461bcd60e51b815260206004820152602e60248201526000805160206107c283398151915260448201526d191e481a5b9a5d1a585b1a5e995960921b6064820152608401610084565b600054610100900460ff161580156100bf576000805461ffff191661010117905580156100d1576000805461ff001916905550565b600054610100900460ff168061018c575060005460ff16155b6101dd5760405162461bcd60e51b815260206004820152602e60248201526000805160206107c283398151915260448201526d191e481a5b9a5d1a585b1a5e995960921b6064820152608401610084565b600054610100900460ff161580156101ff576000805461ffff19166101011790555b603380546001600160a01b0319163390811790915560405181906000907f8be0079c531659141344cd1fd0a4f28419497f9722a3daafe3b4186f6b6457e0908290a35080156100d1576000805461ff001916905550565b61055d806102656000396000f3fe608060405234801561001057600080fd5b50600436106100625760003560e01c8063715018a61461006757806387c13f4d146100715780638da5cb5b146100a157806396c59671146100b2578063c9c53aa4146100d2578063f2fde38b146100e5575b600080fd5b61006f6100f8565b005b61008461007f36600461034d565b610175565b6040516001600160a01b0390911681526020015b60405180910390f35b6033546001600160a01b0316610084565b6100c56100c036600461034d565b610191565b60405161009891906103ad565b61006f6100e03660046103e0565b610225565b61006f6100f336600461034d565b610262565b6033546001600160a01b0316331461012b5760405162461bcd60e51b815260040161012290610402565b60405180910390fd5b6033546040516000916001600160a01b0316907f8be0079c531659141344cd1fd0a4f28419497f9722a3daafe3b4186f6b6457e0908390a3603380546001600160a01b0319169055565b60655460009060ff16610188578161018b565b60015b92915050565b60606000826001600160a01b03166395d89b416040518163ffffffff1660e01b8152600401600060405180830381865afa1580156101d3573d6000803e3d6000fd5b505050506040513d6000823e601f3d908101601f191682016040526101fb919081019061044d565b90508060405160200161020e91906104fa565b604051602081830303815290604052915050919050565b6033546001600160a01b0316331461024f5760405162461bcd60e51b815260040161012290610402565b6065805460ff1916911515919091179055565b6033546001600160a01b0316331461028c5760405162461bcd60e51b815260040161012290610402565b6001600160a01b0381166102f15760405162461bcd60e51b815260206004820152602660248201527f4f776e61626c653a206e6577206f776e657220697320746865207a65726f206160448201526564647265737360d01b6064820152608401610122565b6033546040516001600160a01b038084169216907f8be0079c531659141344cd1fd0a4f28419497f9722a3daafe3b4186f6b6457e090600090a3603380546001600160a01b0319166001600160a01b0392909216919091179055565b60006020828403121561035f57600080fd5b81356001600160a01b038116811461037657600080fd5b9392505050565b60005b83811015610398578181015183820152602001610380565b838111156103a7576000848401525b50505050565b60208152600082518060208401526103cc81604085016020870161037d565b601f01601f19169190910160400192915050565b6000602082840312156103f257600080fd5b8135801515811461037657600080fd5b6020808252818101527f4f776e61626c653a2063616c6c6572206973206e6f7420746865206f776e6572604082015260600190565b634e487b7160e01b600052604160045260246000fd5b60006020828403121561045f57600080fd5b815167ffffffffffffffff8082111561047757600080fd5b818401915084601f83011261048b57600080fd5b81518181111561049d5761049d610437565b604051601f8201601f19908116603f011681019083821181831017156104c5576104c5610437565b816040528281528760208487010111156104de57600080fd5b6104ef83602083016020880161037d565b979650505050505050565b6418985cd95960da1b81526000825161051a81600585016020870161037d565b919091016005019291505056fea2646970667358221220fdab9f30d04756516449bf6dcfdba7b9517a315f6cfb42d1e80bbc4bc317ff4864736f6c634300080d0033496e697469616c697a61626c653a20636f6e747261637420697320616c726561",
  "linkReferences": {},
  "deployedLinkReferences": {}
}