{
  "_format": "hh-sol-artifact-1",
  "contractName": "NFTXRangeEligibility",
  "sourceName": "contracts/solidity/eligibility/NFTXRangeEligibility.sol",
  "abi": [
    {
      "anonymous": false,
      "inputs": [
        {
          "indexed": false,
          "internalType": "uint256",
          "name": "rangeStart",
          "type": "uint256"
        },
        {
          "indexed": false,
          "internalType": "uint256",
          "name": "rangeEnd",
          "type": "uint256"
        }
      ],
      "name": "NFTXEligibilityInit",
      "type": "event"
    },
    {
      "anonymous": false,
      "inputs": [
        {
          "indexed": false,
          "internalType": "uint256",
          "name": "rangeStart",
          "type": "uint256"
        },
        {
          "indexed": false,
          "internalType": "uint256",
          "name": "rangeEnd",
          "type": "uint256"
        }
      ],
      "name": "RangeSet",
      "type": "event"
    },
    {
      "inputs": [
        {
          "internalType": "uint256",
          "name": "_rangeStart",
          "type": "uint256"
        },
        {
          "internalType": "uint256",
          "name": "_rangeEnd",
          "type": "uint256"
        }
      ],
      "name": "__NFTXEligibility_init",
      "outputs": [],
      "stateMutability": "nonpayable",
      "type": "function"
    },
    {
      "inputs": [
        {
          "internalType": "bytes",
          "name": "_configData",
          "type": "bytes"
        }
      ],
      "name": "__NFTXEligibility_init_bytes",
      "outputs": [],
      "stateMutability": "nonpayable",
      "type": "function"
    },
    {
      "inputs": [
        {
          "internalType": "uint256[]",
          "name": "tokenIds",
          "type": "uint256[]"
        }
      ],
      "name": "afterMintHook",
      "outputs": [],
      "stateMutability": "nonpayable",
      "type": "function"
    },
    {
      "inputs": [
        {
          "internalType": "uint256[]",
          "name": "tokenIds",
          "type": "uint256[]"
        }
      ],
      "name": "afterRedeemHook",
      "outputs": [],
      "stateMutability": "nonpayable",
      "type": "function"
    },
    {
      "inputs": [
        {
          "internalType": "uint256[]",
          "name": "tokenIds",
          "type": "uint256[]"
        }
      ],
      "name": "beforeMintHook",
      "outputs": [],
      "stateMutability": "nonpayable",
      "type": "function"
    },
    {
      "inputs": [
        {
          "internalType": "uint256[]",
          "name": "tokenIds",
          "type": "uint256[]"
        }
      ],
      "name": "beforeRedeemHook",
      "outputs": [],
      "stateMutability": "nonpayable",
      "type": "function"
    },
    {
      "inputs": [
        {
          "internalType": "uint256[]",
          "name": "tokenIds",
          "type": "uint256[]"
        }
      ],
      "name": "checkAllEligible",
      "outputs": [
        {
          "internalType": "bool",
          "name": "",
          "type": "bool"
        }
      ],
      "stateMutability": "view",
      "type": "function"
    },
    {
      "inputs": [
        {
          "internalType": "uint256[]",
          "name": "tokenIds",
          "type": "uint256[]"
        }
      ],
      "name": "checkAllIneligible",
      "outputs": [
        {
          "internalType": "bool",
          "name": "",
          "type": "bool"
        }
      ],
      "stateMutability": "view",
      "type": "function"
    },
    {
      "inputs": [
        {
          "internalType": "uint256[]",
          "name": "tokenIds",
          "type": "uint256[]"
        }
      ],
      "name": "checkEligible",
      "outputs": [
        {
          "internalType": "bool[]",
          "name": "",
          "type": "bool[]"
        }
      ],
      "stateMutability": "view",
      "type": "function"
    },
    {
      "inputs": [
        {
          "internalType": "uint256",
          "name": "tokenId",
          "type": "uint256"
        }
      ],
      "name": "checkIsEligible",
      "outputs": [
        {
          "internalType": "bool",
          "name": "",
          "type": "bool"
        }
      ],
      "stateMutability": "view",
      "type": "function"
    },
    {
      "inputs": [],
      "name": "finalized",
      "outputs": [
        {
          "internalType": "bool",
          "name": "",
          "type": "bool"
        }
      ],
      "stateMutability": "view",
      "type": "function"
    },
    {
      "inputs": [],
      "name": "name",
      "outputs": [
        {
          "internalType": "string",
          "name": "",
          "type": "string"
        }
      ],
      "stateMutability": "pure",
      "type": "function"
    },
    {
      "inputs": [],
      "name": "rangeEnd",
      "outputs": [
        {
          "internalType": "uint256",
          "name": "",
          "type": "uint256"
        }
      ],
      "stateMutability": "view",
      "type": "function"
    },
    {
      "inputs": [],
      "name": "rangeStart",
      "outputs": [
        {
          "internalType": "uint256",
          "name": "",
          "type": "uint256"
        }
      ],
      "stateMutability": "view",
      "type": "function"
    },
    {
      "inputs": [],
      "name": "targetAsset",
      "outputs": [
        {
          "internalType": "address",
          "name": "",
          "type": "address"
        }
      ],
      "stateMutability": "pure",
      "type": "function"
    }
  ],
  "bytecode": "0x608060405234801561001057600080fd5b50610824806100206000396000f3fe608060405234801561001057600080fd5b50600436106100f55760003560e01c80636c47d59511610097578063b3f05b9711610066578063b3f05b97146101d6578063bd8affde1461013f578063ca373f28146101dd578063d2a096e8146101f057600080fd5b80636c47d5951461013f5780636cd912601461018a5780637920c127146101aa57806384ca9f85146101b357600080fd5b80633d4403ac116100d35780633d4403ac146101515780634998b7f3146101605780635c99ee01146101735780635e2f9b521461013f57600080fd5b806306fdde03146100fa578063264b1b601461012a57806336eb08621461013f575b600080fd5b604080518082018252600581526452616e676560d81b60208201529051610121919061052d565b60405180910390f35b61013d610138366004610582565b610203565b005b61013d61014d3660046105a4565b5050565b60405160008152602001610121565b61013d61016e36600461062f565b610334565b61017c60025481565b604051908152602001610121565b61019d6101983660046105a4565b6103c7565b60405161012191906106e0565b61017c60015481565b6101c66101c13660046105a4565b61047c565b6040519015158152602001610121565b60016101c6565b6101c66101eb3660046105a4565b6104ca565b6101c66101fe366004610726565b61050e565b600054610100900460ff168061021c575060005460ff16155b6102415760405162461bcd60e51b81526004016102389061073f565b60405180910390fd5b600054610100900460ff16158015610263576000805461ffff19166101011790555b818311156102a15760405162461bcd60e51b815260206004820152600b60248201526a1cdd185c9d080f88195b9960aa1b6044820152606401610238565b6001839055600282905560408051848152602081018490527f2aa006707091dbb6a3c123c2b234325bd71d72a53ba791b7227967655a550957910160405180910390a160408051848152602081018490527f89321eb999f10a080658dd5e8e1ad2ad210be9e3d965c97d0fff3380159664fd910160405180910390a1801561032f576000805461ff00191690555b505050565b600054610100900460ff168061034d575060005460ff16155b6103695760405162461bcd60e51b81526004016102389061073f565b600054610100900460ff1615801561038b576000805461ffff19166101011790555b600080838060200190518101906103a2919061078d565b915091506103b08282610203565b5050801561014d576000805461ff00191690555050565b60608160008167ffffffffffffffff8111156103e5576103e5610619565b60405190808252806020026020018201604052801561040e578160200160208202803683370190505b50905060005b828110156104715761043d868683818110610431576104316107b1565b90506020020135610515565b82828151811061044f5761044f6107b1565b9115156020928302919091019091015280610469816107c7565b915050610414565b509150505b92915050565b600081815b818110156104bf5761049e858583818110610431576104316107b1565b6104ad57600092505050610476565b806104b7816107c7565b915050610481565b506001949350505050565b600081815b818110156104bf576104ec858583818110610431576104316107b1565b156104fc57600092505050610476565b80610506816107c7565b9150506104cf565b6000610476825b60006001548210158015610476575050600254101590565b600060208083528351808285015260005b8181101561055a5785810183015185820160400152820161053e565b8181111561056c576000604083870101525b50601f01601f1916929092016040019392505050565b6000806040838503121561059557600080fd5b50508035926020909101359150565b600080602083850312156105b757600080fd5b823567ffffffffffffffff808211156105cf57600080fd5b818501915085601f8301126105e357600080fd5b8135818111156105f257600080fd5b8660208260051b850101111561060757600080fd5b60209290920196919550909350505050565b634e487b7160e01b600052604160045260246000fd5b60006020828403121561064157600080fd5b813567ffffffffffffffff8082111561065957600080fd5b818401915084601f83011261066d57600080fd5b81358181111561067f5761067f610619565b604051601f8201601f19908116603f011681019083821181831017156106a7576106a7610619565b816040528281528760208487010111156106c057600080fd5b826020860160208301376000928101602001929092525095945050505050565b6020808252825182820181905260009190848201906040850190845b8181101561071a5783511515835292840192918401916001016106fc565b50909695505050505050565b60006020828403121561073857600080fd5b5035919050565b6020808252602e908201527f496e697469616c697a61626c653a20636f6e747261637420697320616c72656160408201526d191e481a5b9a5d1a585b1a5e995960921b606082015260800190565b600080604083850312156107a057600080fd5b505080516020909101519092909150565b634e487b7160e01b600052603260045260246000fd5b6000600182016107e757634e487b7160e01b600052601160045260246000fd5b506001019056fea2646970667358221220d4c16966cdcf8fdf256f6a2d33e584f0da8e3c89a2efc4e35223b823092b0d2564736f6c634300080d0033",
  "linkReferences": {},
  "deployedLinkReferences": {}
}