{
  "_format": "hh-sol-artifact-1",
  "contractName": "NFTXSimpleFeeDistributor",
  "sourceName": "contracts/solidity/NFTXSimpleFeeDistributor.sol",
  "abi": [
    {
      "anonymous": false,
      "inputs": [
        {
          "indexed": false,
          "internalType": "address",
          "name": "receiver",
          "type": "address"
        },
        {
          "indexed": false,
          "internalType": "uint256",
          "name": "allocPoint",
          "type": "uint256"
        }
      ],
      "name": "AddFeeReceiver",
      "type": "event"
    },
    {
      "anonymous": false,
      "inputs": [
        {
          "indexed": true,
          "internalType": "address",
          "name": "previousOwner",
          "type": "address"
        },
        {
          "indexed": true,
          "internalType": "address",
          "name": "newOwner",
          "type": "address"
        }
      ],
      "name": "OwnershipTransferred",
      "type": "event"
    },
    {
      "anonymous": false,
      "inputs": [
        {
          "indexed": false,
          "internalType": "bool",
          "name": "paused",
          "type": "bool"
        }
      ],
      "name": "PauseDistribution",
      "type": "event"
    },
    {
      "anonymous": false,
      "inputs": [
        {
          "indexed": false,
          "internalType": "address",
          "name": "receiver",
          "type": "address"
        }
      ],
      "name": "RemoveFeeReceiver",
      "type": "event"
    },
    {
      "anonymous": false,
      "inputs": [
        {
          "indexed": false,
          "internalType": "address",
          "name": "addr",
          "type": "address"
        },
        {
          "indexed": false,
          "internalType": "bool",
          "name": "isGuardian",
          "type": "bool"
        }
      ],
      "name": "SetIsGuardian",
      "type": "event"
    },
    {
      "anonymous": false,
      "inputs": [
        {
          "indexed": false,
          "internalType": "uint256",
          "name": "lockId",
          "type": "uint256"
        },
        {
          "indexed": false,
          "internalType": "bool",
          "name": "paused",
          "type": "bool"
        }
      ],
      "name": "SetPaused",
      "type": "event"
    },
    {
      "anonymous": false,
      "inputs": [
        {
          "indexed": false,
          "internalType": "address",
          "name": "oldReceiver",
          "type": "address"
        },
        {
          "indexed": false,
          "internalType": "address",
          "name": "newReceiver",
          "type": "address"
        }
      ],
      "name": "UpdateFeeReceiverAddress",
      "type": "event"
    },
    {
      "anonymous": false,
      "inputs": [
        {
          "indexed": false,
          "internalType": "address",
          "name": "receiver",
          "type": "address"
        },
        {
          "indexed": false,
          "internalType": "uint256",
          "name": "allocPoint",
          "type": "uint256"
        }
      ],
      "name": "UpdateFeeReceiverAlloc",
      "type": "event"
    },
    {
      "anonymous": false,
      "inputs": [
        {
          "indexed": false,
          "internalType": "address",
          "name": "newInventoryStaking",
          "type": "address"
        }
      ],
      "name": "UpdateInventoryStakingAddress",
      "type": "event"
    },
    {
      "anonymous": false,
      "inputs": [
        {
          "indexed": false,
          "internalType": "address",
          "name": "newLPStaking",
          "type": "address"
        }
      ],
      "name": "UpdateLPStakingAddress",
      "type": "event"
    },
    {
      "anonymous": false,
      "inputs": [
        {
          "indexed": false,
          "internalType": "address",
          "name": "factory",
          "type": "address"
        }
      ],
      "name": "UpdateNFTXVaultFactory",
      "type": "event"
    },
    {
      "anonymous": false,
      "inputs": [
        {
          "indexed": false,
          "internalType": "address",
          "name": "newTreasury",
          "type": "address"
        }
      ],
      "name": "UpdateTreasuryAddress",
      "type": "event"
    },
    {
      "inputs": [
        {
          "internalType": "address",
          "name": "_lpStaking",
          "type": "address"
        },
        {
          "internalType": "address",
          "name": "_treasury",
          "type": "address"
        }
      ],
      "name": "__SimpleFeeDistributor__init__",
      "outputs": [],
      "stateMutability": "nonpayable",
      "type": "function"
    },
    {
      "inputs": [
        {
          "internalType": "uint256",
          "name": "_allocPoint",
          "type": "uint256"
        },
        {
          "internalType": "address",
          "name": "_receiver",
          "type": "address"
        },
        {
          "internalType": "bool",
          "name": "_isContract",
          "type": "bool"
        }
      ],
      "name": "addReceiver",
      "outputs": [],
      "stateMutability": "nonpayable",
      "type": "function"
    },
    {
      "inputs": [],
      "name": "allocTotal",
      "outputs": [
        {
          "internalType": "uint256",
          "name": "",
          "type": "uint256"
        }
      ],
      "stateMutability": "view",
      "type": "function"
    },
    {
      "inputs": [
        {
          "internalType": "uint256",
          "name": "_receiverIdx",
          "type": "uint256"
        },
        {
          "internalType": "address",
          "name": "_address",
          "type": "address"
        },
        {
          "internalType": "bool",
          "name": "_isContract",
          "type": "bool"
        }
      ],
      "name": "changeReceiverAddress",
      "outputs": [],
      "stateMutability": "nonpayable",
      "type": "function"
    },
    {
      "inputs": [
        {
          "internalType": "uint256",
          "name": "_receiverIdx",
          "type": "uint256"
        },
        {
          "internalType": "uint256",
          "name": "_allocPoint",
          "type": "uint256"
        }
      ],
      "name": "changeReceiverAlloc",
      "outputs": [],
      "stateMutability": "nonpayable",
      "type": "function"
    },
    {
      "inputs": [
        {
          "internalType": "uint256",
          "name": "vaultId",
          "type": "uint256"
        }
      ],
      "name": "distribute",
      "outputs": [],
      "stateMutability": "nonpayable",
      "type": "function"
    },
    {
      "inputs": [],
      "name": "distributionPaused",
      "outputs": [
        {
          "internalType": "bool",
          "name": "",
          "type": "bool"
        }
      ],
      "stateMutability": "view",
      "type": "function"
    },
    {
      "inputs": [
        {
          "internalType": "uint256",
          "name": "index",
          "type": "uint256"
        }
      ],
      "name": "feeReceiverInfo",
      "outputs": [
        {
          "internalType": "address",
          "name": "",
          "type": "address"
        },
        {
          "internalType": "uint256",
          "name": "",
          "type": "uint256"
        }
      ],
      "stateMutability": "view",
      "type": "function"
    },
    {
      "inputs": [
        {
          "internalType": "uint256",
          "name": "",
          "type": "uint256"
        }
      ],
      "name": "feeReceivers",
      "outputs": [
        {
          "internalType": "uint256",
          "name": "allocPoint",
          "type": "uint256"
        },
        {
          "internalType": "address",
          "name": "receiver",
          "type": "address"
        },
        {
          "internalType": "bool",
          "name": "isContract",
          "type": "bool"
        }
      ],
      "stateMutability": "view",
      "type": "function"
    },
    {
      "inputs": [
        {
          "internalType": "uint256",
          "name": "_vaultId",
          "type": "uint256"
        }
      ],
      "name": "initializeVaultReceivers",
      "outputs": [],
      "stateMutability": "nonpayable",
      "type": "function"
    },
    {
      "inputs": [],
      "name": "inventoryStaking",
      "outputs": [
        {
          "internalType": "address",
          "name": "",
          "type": "address"
        }
      ],
      "stateMutability": "view",
      "type": "function"
    },
    {
      "inputs": [
        {
          "internalType": "address",
          "name": "",
          "type": "address"
        }
      ],
      "name": "isGuardian",
      "outputs": [
        {
          "internalType": "bool",
          "name": "",
          "type": "bool"
        }
      ],
      "stateMutability": "view",
      "type": "function"
    },
    {
      "inputs": [
        {
          "internalType": "uint256",
          "name": "",
          "type": "uint256"
        }
      ],
      "name": "isPaused",
      "outputs": [
        {
          "internalType": "bool",
          "name": "",
          "type": "bool"
        }
      ],
      "stateMutability": "view",
      "type": "function"
    },
    {
      "inputs": [],
      "name": "lpStaking",
      "outputs": [
        {
          "internalType": "address",
          "name": "",
          "type": "address"
        }
      ],
      "stateMutability": "view",
      "type": "function"
    },
    {
      "inputs": [],
      "name": "nftxVaultFactory",
      "outputs": [
        {
          "internalType": "address",
          "name": "",
          "type": "address"
        }
      ],
      "stateMutability": "view",
      "type": "function"
    },
    {
      "inputs": [
        {
          "internalType": "uint256",
          "name": "lockId",
          "type": "uint256"
        }
      ],
      "name": "onlyOwnerIfPaused",
      "outputs": [],
      "stateMutability": "view",
      "type": "function"
    },
    {
      "inputs": [],
      "name": "owner",
      "outputs": [
        {
          "internalType": "address",
          "name": "",
          "type": "address"
        }
      ],
      "stateMutability": "view",
      "type": "function"
    },
    {
      "inputs": [
        {
          "internalType": "uint256",
          "name": "lockId",
          "type": "uint256"
        }
      ],
      "name": "pause",
      "outputs": [],
      "stateMutability": "nonpayable",
      "type": "function"
    },
    {
      "inputs": [
        {
          "internalType": "bool",
          "name": "_pause",
          "type": "bool"
        }
      ],
      "name": "pauseFeeDistribution",
      "outputs": [],
      "stateMutability": "nonpayable",
      "type": "function"
    },
    {
      "inputs": [
        {
          "internalType": "uint256",
          "name": "_receiverIdx",
          "type": "uint256"
        }
      ],
      "name": "removeReceiver",
      "outputs": [],
      "stateMutability": "nonpayable",
      "type": "function"
    },
    {
      "inputs": [],
      "name": "renounceOwnership",
      "outputs": [],
      "stateMutability": "nonpayable",
      "type": "function"
    },
    {
      "inputs": [
        {
          "internalType": "address",
          "name": "_address",
          "type": "address"
        }
      ],
      "name": "rescueTokens",
      "outputs": [],
      "stateMutability": "nonpayable",
      "type": "function"
    },
    {
      "inputs": [
        {
          "internalType": "address",
          "name": "_inventoryStaking",
          "type": "address"
        }
      ],
      "name": "setInventoryStakingAddress",
      "outputs": [],
      "stateMutability": "nonpayable",
      "type": "function"
    },
    {
      "inputs": [
        {
          "internalType": "address",
          "name": "addr",
          "type": "address"
        },
        {
          "internalType": "bool",
          "name": "_isGuardian",
          "type": "bool"
        }
      ],
      "name": "setIsGuardian",
      "outputs": [],
      "stateMutability": "nonpayable",
      "type": "function"
    },
    {
      "inputs": [
        {
          "internalType": "address",
          "name": "_lpStaking",
          "type": "address"
        }
      ],
      "name": "setLPStakingAddress",
      "outputs": [],
      "stateMutability": "nonpayable",
      "type": "function"
    },
    {
      "inputs": [
        {
          "internalType": "address",
          "name": "_factory",
          "type": "address"
        }
      ],
      "name": "setNFTXVaultFactory",
      "outputs": [],
      "stateMutability": "nonpayable",
      "type": "function"
    },
    {
      "inputs": [
        {
          "internalType": "address",
          "name": "_treasury",
          "type": "address"
        }
      ],
      "name": "setTreasuryAddress",
      "outputs": [],
      "stateMutability": "nonpayable",
      "type": "function"
    },
    {
      "inputs": [
        {
          "internalType": "address",
          "name": "newOwner",
          "type": "address"
        }
      ],
      "name": "transferOwnership",
      "outputs": [],
      "stateMutability": "nonpayable",
      "type": "function"
    },
    {
      "inputs": [],
      "name": "treasury",
      "outputs": [
        {
          "internalType": "address",
          "name": "",
          "type": "address"
        }
      ],
      "stateMutability": "view",
      "type": "function"
    },
    {
      "inputs": [
        {
          "internalType": "uint256",
          "name": "lockId",
          "type": "uint256"
        }
      ],
      "name": "unpause",
      "outputs": [],
      "stateMutability": "nonpayable",
      "type": "function"
    }
  ],
  "bytecode": "0x608060405234801561001057600080fd5b50612352806100206000396000f3fe608060405234801561001057600080fd5b50600436106101d95760003560e01c806374a1b0b011610104578063a534cbbd116100a2578063bdf2a43c11610071578063bdf2a43c14610445578063d46307dc14610468578063f2fde38b1461047b578063fabc1cbc1461048e57600080fd5b8063a534cbbd146103f9578063a77abced1461040c578063aa4630651461041f578063af0568471461043257600080fd5b80638da5cb5b116100de5780638da5cb5b146103af578063915c5baf146103c057806391c05b0b146103d35780639bf1401c146103e657600080fd5b806374a1b0b0146103765780637c77b616146103895780638c0fd23d1461039c57600080fd5b806336d4d0311161017c5780635b3817601161014b5780635b3817601461031057806361d027b3146103485780636605bfda1461035b578063715018a61461036e57600080fd5b806336d4d0311461028e5780633801daf1146102a15780634912300d146102d15780635033fd92146102de57600080fd5b80630c68ba21116101b85780630c68ba2114610222578063136439dd1461025557806319d3d2a41461026857806323845fb51461027b57600080fd5b8062ae3bf8146101de57806303220d02146101f35780630813195114610206575b600080fd5b6101f16101ec366004611fd4565b6104a1565b005b6101f1610201366004611fff565b610559565b61020f609c5481565b6040519081526020015b60405180910390f35b610245610230366004611fd4565b60976020526000908152604090205460ff1681565b6040519015158152602001610219565b6101f1610263366004612041565b61061b565b6101f1610276366004612041565b6106c0565b6101f161028936600461205a565b6107f2565b6101f161029c366004611fd4565b61087f565b6099546102b99061010090046001600160a01b031681565b6040516001600160a01b039091168152602001610219565b6099546102459060ff1681565b6102f16102ec366004612041565b61094d565b604080516001600160a01b039093168352602083019190915201610219565b61032361031e366004612041565b6109b6565b604080519384526001600160a01b039092166020840152151590820152606001610219565b609b546102b9906001600160a01b031681565b6101f1610369366004611fd4565b6109f9565b6101f1610ac0565b609e546102b9906001600160a01b031681565b6101f1610397366004612041565b610b34565b6101f16103aa366004612093565b610b91565b6065546001600160a01b03166102b9565b6101f16103ce3660046120b0565b610bfc565b6101f16103e1366004612041565b610ca5565b609a546102b9906001600160a01b031681565b6101f1610407366004611fd4565b6110bc565b6101f161041a366004611fd4565b611134565b6101f161042d3660046120de565b611212565b6101f1610440366004612041565b611337565b610245610453366004612041565b60986020526000908152604090205460ff1681565b6101f1610476366004611fff565b61152f565b6101f1610489366004611fd4565b611564565b6101f161049c366004612041565b61164f565b6065546001600160a01b031633146104d45760405162461bcd60e51b81526004016104cb90612100565b60405180910390fd5b6040516370a0823160e01b81523060048201526000906001600160a01b038316906370a0823190602401602060405180830381865afa15801561051b573d6000803e3d6000fd5b505050506040513d601f19601f8201168201806040525081019061053f9190612135565b90506105556001600160a01b03831633836116c6565b5050565b6065546001600160a01b031633146105835760405162461bcd60e51b81526004016104cb90612100565b6000609d84815481106105985761059861214e565b60009182526020918290206002909102016001810180546001600160a01b038781166001600160a81b031983168117600160a01b89151502179093556040805191909216808252948101929092529193507f466bf064fd123a99d87cf265d40a3335a650757a2a5ece87ce6f888419f56d32910160405180910390a15050505050565b3360009081526097602052604090205460ff166106685760405162461bcd60e51b815260206004820152600b60248201526a43616e277420706175736560a81b60448201526064016104cb565b600081815260986020908152604091829020805460ff191660019081179091558251848152918201527f77f1fcfcce67dc392d64f842056d2ec06c80986c47c910f7e79c5b23a2738d7491015b60405180910390a150565b60995461010090046001600160a01b0316331461071f5760405162461bcd60e51b815260206004820152601860248201527f46656552656365697665723a206e6f7420666163746f7279000000000000000060448201526064016104cb565b609a546040516387a6753f60e01b8152600481018390526001600160a01b03909116906387a6753f90602401600060405180830381600087803b15801561076557600080fd5b505af1158015610779573d6000803e3d6000fd5b5050609e546001600160a01b03161591506107ef905057609e5460405163f0f2a4d760e01b8152600481018390526001600160a01b039091169063f0f2a4d790602401600060405180830381600087803b1580156107d657600080fd5b505af11580156107ea573d6000803e3d6000fd5b505050505b50565b6065546001600160a01b0316331461081c5760405162461bcd60e51b81526004016104cb90612100565b6001600160a01b038216600081815260976020908152604091829020805460ff19168515159081179091558251938452908301527fd0b6b573d5442f7c29fd50d9735ae341581c25c6ed07748d50eda519f1ffa88a910160405180910390a15050565b6065546001600160a01b031633146108a95760405162461bcd60e51b81526004016104cb90612100565b6001600160a01b0381166108ff5760405162461bcd60e51b815260206004820152601760248201527f4c505374616b696e6720213d206164647265737328302900000000000000000060448201526064016104cb565b609a80546001600160a01b0319166001600160a01b0383169081179091556040519081527f4de1363210f44b38c4e5a2ccac49005c6fc0041f1ead7de1bbc6fd23735a4fdc906020016106b5565b600080609d83815481106109635761096361214e565b906000526020600020906002020160010160009054906101000a90046001600160a01b0316609d848154811061099b5761099b61214e565b90600052602060002090600202016000015491509150915091565b609d81815481106109c657600080fd5b6000918252602090912060029091020180546001909101549091506001600160a01b03811690600160a01b900460ff1683565b6065546001600160a01b03163314610a235760405162461bcd60e51b81526004016104cb90612100565b6001600160a01b038116610a725760405162461bcd60e51b8152602060048201526016602482015275547265617375727920213d206164647265737328302960501b60448201526064016104cb565b609b80546001600160a01b0319166001600160a01b0383169081179091556040519081527f30d36c1dd67e2019526263df539f65050c3b537a6acf65766b5da7de7128cf36906020016106b5565b6065546001600160a01b03163314610aea5760405162461bcd60e51b81526004016104cb90612100565b6065546040516000916001600160a01b0316907f8be0079c531659141344cd1fd0a4f28419497f9722a3daafe3b4186f6b6457e0908390a3606580546001600160a01b0319169055565b60008181526098602052604090205460ff161580610b5c57506065546001600160a01b031633145b6107ef5760405162461bcd60e51b815260206004820152600660248201526514185d5cd95960d21b60448201526064016104cb565b6065546001600160a01b03163314610bbb5760405162461bcd60e51b81526004016104cb90612100565b6099805460ff19168215159081179091556040519081527fb008f183388020de01fd4365e295aa904b691f98e63fd033f74f75273b6b285f906020016106b5565b600054610100900460ff1680610c15575060005460ff16155b610c315760405162461bcd60e51b81526004016104cb90612164565b600054610100900460ff16158015610c53576000805461ffff19166101011790555b610c5b611729565b610c64826109f9565b610c6d8361087f565b609a54610c8e90670b1a2bc2ec500000906001600160a01b0316600161179c565b8015610ca0576000805461ff00191690555b505050565b600260015403610cf75760405162461bcd60e51b815260206004820152601f60248201527f5265656e7472616e637947756172643a207265656e7472616e742063616c6c0060448201526064016104cb565b600260015560995461010090046001600160a01b0316610d1657600080fd5b6099546040516340d1b7db60e11b81526004810183905260009161010090046001600160a01b0316906381a36fb690602401602060405180830381865afa158015610d65573d6000803e3d6000fd5b505050506040513d601f19601f82011682018060405250810190610d8991906121b2565b6040516370a0823160e01b81523060048201529091506000906001600160a01b038316906370a0823190602401602060405180830381865afa158015610dd3573d6000803e3d6000fd5b505050506040513d601f19601f82011682018060405250810190610df79190612135565b60995490915060ff1680610e0b5750609c54155b15610e3157609b54610e2a906001600160a01b038481169116836116c6565b50506110b5565b80600003610e405750506110b5565b609d546000805b8281101561101f576000609d8281548110610e6457610e6461214e565b600091825260208083206040805160608101825260029490940290910180548085526001909101546001600160a01b03811693850193909352600160a01b90920460ff16151590830152609c54919350610ebe90886121e5565b610ec89190612204565b610ed29085612226565b6040516370a0823160e01b81523060048201529091506000906001600160a01b038916906370a0823190602401602060405180830381865afa158015610f1c573d6000803e3d6000fd5b505050506040513d601f19601f82011682018060405250810190610f409190612135565b9050808211610f4f5781610f51565b805b91506000610f61848b8b866118ac565b905080611005576020840151604051636eb1769f60e11b81523060048201526001600160a01b0391821660248201526000918b169063dd62ed3e90604401602060405180830381865afa158015610fbc573d6000803e3d6000fd5b505050506040513d601f19601f82011682018060405250810190610fe09190612135565b6020860151909150610ffe906001600160a01b038c16906000611a27565b955061100a565b600095505b50505050806110189061223e565b9050610e47565b5080156110b0576040516370a0823160e01b81523060048201526000906001600160a01b038616906370a0823190602401602060405180830381865afa15801561106d573d6000803e3d6000fd5b505050506040513d601f19601f820116820180604052508101906110919190612135565b609b549091506110ae906001600160a01b038781169116836116c6565b505b505050505b5060018055565b6065546001600160a01b031633146110e65760405162461bcd60e51b81526004016104cb90612100565b609e80546001600160a01b0319166001600160a01b0383169081179091556040519081527f6e74da1326dcd8931bd9213a2f7ecf361c7008ccad60543e78b5cd50ca6e556a906020016106b5565b6065546001600160a01b0316331461115e5760405162461bcd60e51b81526004016104cb90612100565b60995461010090046001600160a01b0316156111bc5760405162461bcd60e51b815260206004820152601d60248201527f6e6674785661756c74466163746f727920697320696d6d757461626c6500000060448201526064016104cb565b60998054610100600160a81b0319166101006001600160a01b038416908102919091179091556040519081527f2693263e4020b2649b9bcc9a4b68c471d4ac35c81baa35264c695d647822b1a2906020016106b5565b6065546001600160a01b0316331461123c5760405162461bcd60e51b81526004016104cb90612100565b609d54821061128d5760405162461bcd60e51b815260206004820152601d60248201527f4665654469737472696275746f723a204f7574206f6620626f756e647300000060448201526064016104cb565b6000609d83815481106112a2576112a261214e565b906000526020600020906002020190508060000154609c60008282546112c89190612257565b9091555050818155609c80548391906000906112e5908490612226565b90915550506001810154604080516001600160a01b039092168252602082018490527fbf9a378b372297e179e435cdca3b5215960b36e3489288832cbdc7f323ff987d910160405180910390a1505050565b6065546001600160a01b031633146113615760405162461bcd60e51b81526004016104cb90612100565b609d548082106113b35760405162461bcd60e51b815260206004820152601d60248201527f4665654469737472696275746f723a204f7574206f6620626f756e647300000060448201526064016104cb565b7fef79c7490a6b7ae3d254565a3bdf2a58d73afe9877306e1c74121209a5527021609d83815481106113e7576113e761214e565b6000918252602091829020600290910201600101546040516001600160a01b0390911681520160405180910390a1609d82815481106114285761142861214e565b906000526020600020906002020160000154609c600082825461144b9190612257565b90915550609d905061145e600183612257565b8154811061146e5761146e61214e565b9060005260206000209060020201609d838154811061148f5761148f61214e565b600091825260209091208254600290920201908155600191820180549290910180546001600160a01b031981166001600160a01b039094169384178255915460ff600160a01b91829004161515026001600160a81b0319909216909217179055609d8054806115005761150061226e565b60008281526020812060026000199093019283020190815560010180546001600160a81b031916905590555050565b6065546001600160a01b031633146115595760405162461bcd60e51b81526004016104cb90612100565b610ca083838361179c565b6065546001600160a01b0316331461158e5760405162461bcd60e51b81526004016104cb90612100565b6001600160a01b0381166115f35760405162461bcd60e51b815260206004820152602660248201527f4f776e61626c653a206e6577206f776e657220697320746865207a65726f206160448201526564647265737360d01b60648201526084016104cb565b6065546040516001600160a01b038084169216907f8be0079c531659141344cd1fd0a4f28419497f9722a3daafe3b4186f6b6457e090600090a3606580546001600160a01b0319166001600160a01b0392909216919091179055565b6065546001600160a01b031633146116795760405162461bcd60e51b81526004016104cb90612100565b6000818152609860209081526040808320805460ff191690558051848152918201929092527f77f1fcfcce67dc392d64f842056d2ec06c80986c47c910f7e79c5b23a2738d7491016106b5565b6040516001600160a01b038316602482015260448101829052610ca090849063a9059cbb60e01b906064015b60408051601f198184030181529190526020810180516001600160e01b03166001600160e01b031990931692909217909152611b3c565b600054610100900460ff1680611742575060005460ff16155b61175e5760405162461bcd60e51b81526004016104cb90612164565b600054610100900460ff16158015611780576000805461ffff19166101011790555b611788611c0e565b80156107ef576000805461ff001916905550565b604080516060810182528481526001600160a01b0384811660208301908152841515938301938452609d8054600181018255600091825284517fd26e832454299e9fabb89e0e5fffdc046d4e14431bc1bf607ffb2e8a1ddecf7b60029092029182015591517fd26e832454299e9fabb89e0e5fffdc046d4e14431bc1bf607ffb2e8a1ddecf7c90920180549551929093166001600160a81b031990951694909417600160a01b91151591909102179055609c80549192869261185f908490612226565b9091555050604080516001600160a01b0385168152602081018690527f555ceefe9e17f4ae5f15e17c385a8eb55c46bddb25897aeabadcda1815dd5a75910160405180910390a150505050565b6000846040015115611a015760208501516118d2906001600160a01b0385169084611c75565b604080516024810186905260448082018590528251808303909101815260649091018252602080820180516001600160e01b03166379b6a96d60e11b179052870151915190916000916001600160a01b03909116906119329084906122b0565b6000604051808303816000865af19150503d806000811461196f576040519150601f19603f3d011682016040523d82523d6000602084013e611974565b606091505b505090508080156119f857506020870151604051636eb1769f60e11b81523060048201526001600160a01b0391821660248201529086169063dd62ed3e90604401602060405180830381865afa1580156119d2573d6000803e3d6000fd5b505050506040513d601f19601f820116820180604052508101906119f69190612135565b155b92505050611a1f565b6020850151611a1b906001600160a01b03851690846116c6565b5060015b949350505050565b801580611aa15750604051636eb1769f60e11b81523060048201526001600160a01b03838116602483015284169063dd62ed3e90604401602060405180830381865afa158015611a7b573d6000803e3d6000fd5b505050506040513d601f19601f82011682018060405250810190611a9f9190612135565b155b611b0c5760405162461bcd60e51b815260206004820152603660248201527f5361666545524332303a20617070726f76652066726f6d206e6f6e2d7a65726f60448201527520746f206e6f6e2d7a65726f20616c6c6f77616e636560501b60648201526084016104cb565b6040516001600160a01b038316602482015260448101829052610ca090849063095ea7b360e01b906064016116f2565b6000611b91826040518060400160405280602081526020017f5361666545524332303a206c6f772d6c6576656c2063616c6c206661696c6564815250856001600160a01b0316611d2d9092919063ffffffff16565b805190915015610ca05780806020019051810190611baf91906122cc565b610ca05760405162461bcd60e51b815260206004820152602a60248201527f5361666545524332303a204552433230206f7065726174696f6e20646964206e6044820152691bdd081cdd58d8d9595960b21b60648201526084016104cb565b600054610100900460ff1680611c27575060005460ff16155b611c435760405162461bcd60e51b81526004016104cb90612164565b600054610100900460ff16158015611c65576000805461ffff19166101011790555b611c6d611d46565b611788611db0565b604051636eb1769f60e11b81523060048201526001600160a01b038381166024830152600091839186169063dd62ed3e90604401602060405180830381865afa158015611cc6573d6000803e3d6000fd5b505050506040513d601f19601f82011682018060405250810190611cea9190612135565b611cf49190612226565b6040516001600160a01b038516602482015260448101829052909150611d2790859063095ea7b360e01b906064016116f2565b50505050565b6060611d3c8484600085611e5e565b90505b9392505050565b600054610100900460ff1680611d5f575060005460ff16155b611d7b5760405162461bcd60e51b81526004016104cb90612164565b600054610100900460ff16158015611788576000805461ffff191661010117905580156107ef576000805461ff001916905550565b600054610100900460ff1680611dc9575060005460ff16155b611de55760405162461bcd60e51b81526004016104cb90612164565b600054610100900460ff16158015611e07576000805461ffff19166101011790555b606580546001600160a01b0319163390811790915560405181906000907f8be0079c531659141344cd1fd0a4f28419497f9722a3daafe3b4186f6b6457e0908290a35080156107ef576000805461ff001916905550565b606082471015611ebf5760405162461bcd60e51b815260206004820152602660248201527f416464726573733a20696e73756666696369656e742062616c616e636520666f6044820152651c8818d85b1b60d21b60648201526084016104cb565b843b611f0d5760405162461bcd60e51b815260206004820152601d60248201527f416464726573733a2063616c6c20746f206e6f6e2d636f6e747261637400000060448201526064016104cb565b600080866001600160a01b03168587604051611f2991906122b0565b60006040518083038185875af1925050503d8060008114611f66576040519150601f19603f3d011682016040523d82523d6000602084013e611f6b565b606091505b5091509150611f7b828286611f86565b979650505050505050565b60608315611f95575081611d3f565b825115611fa55782518084602001fd5b8160405162461bcd60e51b81526004016104cb91906122e9565b6001600160a01b03811681146107ef57600080fd5b600060208284031215611fe657600080fd5b8135611d3f81611fbf565b80151581146107ef57600080fd5b60008060006060848603121561201457600080fd5b83359250602084013561202681611fbf565b9150604084013561203681611ff1565b809150509250925092565b60006020828403121561205357600080fd5b5035919050565b6000806040838503121561206d57600080fd5b823561207881611fbf565b9150602083013561208881611ff1565b809150509250929050565b6000602082840312156120a557600080fd5b8135611d3f81611ff1565b600080604083850312156120c357600080fd5b82356120ce81611fbf565b9150602083013561208881611fbf565b600080604083850312156120f157600080fd5b50508035926020909101359150565b6020808252818101527f4f776e61626c653a2063616c6c6572206973206e6f7420746865206f776e6572604082015260600190565b60006020828403121561214757600080fd5b5051919050565b634e487b7160e01b600052603260045260246000fd5b6020808252602e908201527f496e697469616c697a61626c653a20636f6e747261637420697320616c72656160408201526d191e481a5b9a5d1a585b1a5e995960921b606082015260800190565b6000602082840312156121c457600080fd5b8151611d3f81611fbf565b634e487b7160e01b600052601160045260246000fd5b60008160001904831182151516156121ff576121ff6121cf565b500290565b60008261222157634e487b7160e01b600052601260045260246000fd5b500490565b60008219821115612239576122396121cf565b500190565b600060018201612250576122506121cf565b5060010190565b600082821015612269576122696121cf565b500390565b634e487b7160e01b600052603160045260246000fd5b60005b8381101561229f578181015183820152602001612287565b83811115611d275750506000910152565b600082516122c2818460208701612284565b9190910192915050565b6000602082840312156122de57600080fd5b8151611d3f81611ff1565b6020815260008251806020840152612308816040850160208701612284565b601f01601f1916919091016040019291505056fea264697066735822122056550ee011a6ff92faae79523c24984e9302cce7e69e336f97491d34959a990664736f6c634300080d0033",
  "linkReferences": {},
  "deployedLinkReferences": {}
}