{
  "_format": "hh-sol-artifact-1",
  "contractName": "NFTXLPStaking",
  "sourceName": "contracts/solidity/NFTXLPStaking.sol",
  "abi": [
    {
      "anonymous": false,
      "inputs": [
        {
          "indexed": false,
          "internalType": "uint256",
          "name": "vaultId",
          "type": "uint256"
        },
        {
          "indexed": false,
          "internalType": "uint256",
          "name": "amount",
          "type": "uint256"
        }
      ],
      "name": "FeesReceived",
      "type": "event"
    },
    {
      "anonymous": false,
      "inputs": [
        {
          "indexed": true,
          "internalType": "address",
          "name": "previousOwner",
          "type": "address"
        },
        {
          "indexed": true,
          "internalType": "address",
          "name": "newOwner",
          "type": "address"
        }
      ],
      "name": "OwnershipTransferred",
      "type": "event"
    },
    {
      "anonymous": false,
      "inputs": [
        {
          "indexed": false,
          "internalType": "uint256",
          "name": "vaultId",
          "type": "uint256"
        },
        {
          "indexed": false,
          "internalType": "address",
          "name": "pool",
          "type": "address"
        }
      ],
      "name": "PoolCreated",
      "type": "event"
    },
    {
      "anonymous": false,
      "inputs": [
        {
          "indexed": false,
          "internalType": "uint256",
          "name": "vaultId",
          "type": "uint256"
        },
        {
          "indexed": false,
          "internalType": "address",
          "name": "pool",
          "type": "address"
        }
      ],
      "name": "PoolUpdated",
      "type": "event"
    },
    {
      "anonymous": false,
      "inputs": [
        {
          "indexed": false,
          "internalType": "address",
          "name": "addr",
          "type": "address"
        },
        {
          "indexed": false,
          "internalType": "bool",
          "name": "isGuardian",
          "type": "bool"
        }
      ],
      "name": "SetIsGuardian",
      "type": "event"
    },
    {
      "anonymous": false,
      "inputs": [
        {
          "indexed": false,
          "internalType": "uint256",
          "name": "lockId",
          "type": "uint256"
        },
        {
          "indexed": false,
          "internalType": "bool",
          "name": "paused",
          "type": "bool"
        }
      ],
      "name": "SetPaused",
      "type": "event"
    },
    {
      "inputs": [
        {
          "internalType": "address",
          "name": "_stakingTokenProvider",
          "type": "address"
        }
      ],
      "name": "__NFTXLPStaking__init",
      "outputs": [],
      "stateMutability": "nonpayable",
      "type": "function"
    },
    {
      "inputs": [
        {
          "components": [
            {
              "internalType": "address",
              "name": "stakingToken",
              "type": "address"
            },
            {
              "internalType": "address",
              "name": "rewardToken",
              "type": "address"
            }
          ],
          "internalType": "struct NFTXLPStaking.StakingPool",
          "name": "pool",
          "type": "tuple"
        }
      ],
      "name": "_rewardDistributionTokenAddr",
      "outputs": [
        {
          "internalType": "contract TimelockRewardDistributionTokenImpl",
          "name": "",
          "type": "address"
        }
      ],
      "stateMutability": "view",
      "type": "function"
    },
    {
      "inputs": [
        {
          "internalType": "uint256",
          "name": "vaultId",
          "type": "uint256"
        }
      ],
      "name": "addPoolForVault",
      "outputs": [],
      "stateMutability": "nonpayable",
      "type": "function"
    },
    {
      "inputs": [
        {
          "internalType": "uint256",
          "name": "vaultId",
          "type": "uint256"
        },
        {
          "internalType": "address",
          "name": "staker",
          "type": "address"
        }
      ],
      "name": "adjustedDividendOf",
      "outputs": [
        {
          "internalType": "uint256",
          "name": "",
          "type": "uint256"
        }
      ],
      "stateMutability": "view",
      "type": "function"
    },
    {
      "inputs": [
        {
          "internalType": "uint256",
          "name": "vaultId",
          "type": "uint256"
        },
        {
          "internalType": "address",
          "name": "addr",
          "type": "address"
        }
      ],
      "name": "balanceOf",
      "outputs": [
        {
          "internalType": "uint256",
          "name": "",
          "type": "uint256"
        }
      ],
      "stateMutability": "view",
      "type": "function"
    },
    {
      "inputs": [
        {
          "internalType": "uint256[]",
          "name": "vaultIds",
          "type": "uint256[]"
        }
      ],
      "name": "claimMultipleRewards",
      "outputs": [],
      "stateMutability": "nonpayable",
      "type": "function"
    },
    {
      "inputs": [
        {
          "internalType": "uint256",
          "name": "vaultId",
          "type": "uint256"
        }
      ],
      "name": "claimRewards",
      "outputs": [],
      "stateMutability": "nonpayable",
      "type": "function"
    },
    {
      "inputs": [
        {
          "internalType": "uint256",
          "name": "vaultId",
          "type": "uint256"
        },
        {
          "internalType": "uint256",
          "name": "amount",
          "type": "uint256"
        }
      ],
      "name": "deposit",
      "outputs": [],
      "stateMutability": "nonpayable",
      "type": "function"
    },
    {
      "inputs": [
        {
          "internalType": "address",
          "name": "_stakingToken",
          "type": "address"
        },
        {
          "internalType": "address",
          "name": "_rewardToken",
          "type": "address"
        }
      ],
      "name": "emergencyExit",
      "outputs": [],
      "stateMutability": "nonpayable",
      "type": "function"
    },
    {
      "inputs": [
        {
          "internalType": "address",
          "name": "_stakingToken",
          "type": "address"
        },
        {
          "internalType": "address",
          "name": "_rewardToken",
          "type": "address"
        }
      ],
      "name": "emergencyExitAndClaim",
      "outputs": [],
      "stateMutability": "nonpayable",
      "type": "function"
    },
    {
      "inputs": [
        {
          "internalType": "uint256",
          "name": "vaultId",
          "type": "uint256"
        }
      ],
      "name": "exit",
      "outputs": [],
      "stateMutability": "nonpayable",
      "type": "function"
    },
    {
      "inputs": [
        {
          "internalType": "address",
          "name": "",
          "type": "address"
        }
      ],
      "name": "isGuardian",
      "outputs": [
        {
          "internalType": "bool",
          "name": "",
          "type": "bool"
        }
      ],
      "stateMutability": "view",
      "type": "function"
    },
    {
      "inputs": [
        {
          "internalType": "uint256",
          "name": "",
          "type": "uint256"
        }
      ],
      "name": "isPaused",
      "outputs": [
        {
          "internalType": "bool",
          "name": "",
          "type": "bool"
        }
      ],
      "stateMutability": "view",
      "type": "function"
    },
    {
      "inputs": [
        {
          "internalType": "uint256",
          "name": "vaultId",
          "type": "uint256"
        },
        {
          "internalType": "address",
          "name": "who",
          "type": "address"
        }
      ],
      "name": "lockedLPBalance",
      "outputs": [
        {
          "internalType": "uint256",
          "name": "",
          "type": "uint256"
        }
      ],
      "stateMutability": "view",
      "type": "function"
    },
    {
      "inputs": [
        {
          "internalType": "uint256",
          "name": "vaultId",
          "type": "uint256"
        },
        {
          "internalType": "address",
          "name": "who",
          "type": "address"
        }
      ],
      "name": "lockedUntil",
      "outputs": [
        {
          "internalType": "uint256",
          "name": "",
          "type": "uint256"
        }
      ],
      "stateMutability": "view",
      "type": "function"
    },
    {
      "inputs": [
        {
          "internalType": "uint256",
          "name": "vaultId",
          "type": "uint256"
        }
      ],
      "name": "newRewardDistributionToken",
      "outputs": [
        {
          "internalType": "contract TimelockRewardDistributionTokenImpl",
          "name": "",
          "type": "address"
        }
      ],
      "stateMutability": "view",
      "type": "function"
    },
    {
      "inputs": [],
      "name": "newTimelockRewardDistTokenImpl",
      "outputs": [
        {
          "internalType": "contract TimelockRewardDistributionTokenImpl",
          "name": "",
          "type": "address"
        }
      ],
      "stateMutability": "view",
      "type": "function"
    },
    {
      "inputs": [],
      "name": "nftxVaultFactory",
      "outputs": [
        {
          "internalType": "contract INFTXVaultFactory",
          "name": "",
          "type": "address"
        }
      ],
      "stateMutability": "view",
      "type": "function"
    },
    {
      "inputs": [
        {
          "internalType": "uint256",
          "name": "lockId",
          "type": "uint256"
        }
      ],
      "name": "onlyOwnerIfPaused",
      "outputs": [],
      "stateMutability": "view",
      "type": "function"
    },
    {
      "inputs": [],
      "name": "owner",
      "outputs": [
        {
          "internalType": "address",
          "name": "",
          "type": "address"
        }
      ],
      "stateMutability": "view",
      "type": "function"
    },
    {
      "inputs": [
        {
          "internalType": "uint256",
          "name": "lockId",
          "type": "uint256"
        }
      ],
      "name": "pause",
      "outputs": [],
      "stateMutability": "nonpayable",
      "type": "function"
    },
    {
      "inputs": [
        {
          "internalType": "uint256",
          "name": "vaultId",
          "type": "uint256"
        },
        {
          "internalType": "uint256",
          "name": "amount",
          "type": "uint256"
        }
      ],
      "name": "receiveRewards",
      "outputs": [
        {
          "internalType": "bool",
          "name": "",
          "type": "bool"
        }
      ],
      "stateMutability": "nonpayable",
      "type": "function"
    },
    {
      "inputs": [],
      "name": "renounceOwnership",
      "outputs": [],
      "stateMutability": "nonpayable",
      "type": "function"
    },
    {
      "inputs": [
        {
          "internalType": "uint256",
          "name": "vaultId",
          "type": "uint256"
        },
        {
          "internalType": "uint256",
          "name": "amount",
          "type": "uint256"
        },
        {
          "internalType": "address",
          "name": "from",
          "type": "address"
        },
        {
          "internalType": "address",
          "name": "to",
          "type": "address"
        }
      ],
      "name": "retrieveTokens",
      "outputs": [],
      "stateMutability": "nonpayable",
      "type": "function"
    },
    {
      "inputs": [],
      "name": "rewardDistTokenImpl",
      "outputs": [
        {
          "internalType": "contract IRewardDistributionToken",
          "name": "",
          "type": "address"
        }
      ],
      "stateMutability": "view",
      "type": "function"
    },
    {
      "inputs": [
        {
          "internalType": "address",
          "name": "stakedToken",
          "type": "address"
        },
        {
          "internalType": "address",
          "name": "rewardToken",
          "type": "address"
        }
      ],
      "name": "rewardDistributionTokenAddr",
      "outputs": [
        {
          "internalType": "address",
          "name": "",
          "type": "address"
        }
      ],
      "stateMutability": "view",
      "type": "function"
    },
    {
      "inputs": [
        {
          "internalType": "address",
          "name": "addr",
          "type": "address"
        },
        {
          "internalType": "bool",
          "name": "_isGuardian",
          "type": "bool"
        }
      ],
      "name": "setIsGuardian",
      "outputs": [],
      "stateMutability": "nonpayable",
      "type": "function"
    },
    {
      "inputs": [
        {
          "internalType": "address",
          "name": "newFactory",
          "type": "address"
        }
      ],
      "name": "setNFTXVaultFactory",
      "outputs": [],
      "stateMutability": "nonpayable",
      "type": "function"
    },
    {
      "inputs": [
        {
          "internalType": "address",
          "name": "newProvider",
          "type": "address"
        }
      ],
      "name": "setStakingTokenProvider",
      "outputs": [],
      "stateMutability": "nonpayable",
      "type": "function"
    },
    {
      "inputs": [],
      "name": "stakingTokenProvider",
      "outputs": [
        {
          "internalType": "contract StakingTokenProvider",
          "name": "",
          "type": "address"
        }
      ],
      "stateMutability": "view",
      "type": "function"
    },
    {
      "inputs": [
        {
          "internalType": "uint256",
          "name": "vaultId",
          "type": "uint256"
        },
        {
          "internalType": "address",
          "name": "account",
          "type": "address"
        },
        {
          "internalType": "uint256",
          "name": "amount",
          "type": "uint256"
        },
        {
          "internalType": "uint256",
          "name": "timelockLength",
          "type": "uint256"
        }
      ],
      "name": "timelockDepositFor",
      "outputs": [],
      "stateMutability": "nonpayable",
      "type": "function"
    },
    {
      "inputs": [
        {
          "internalType": "uint256",
          "name": "vaultId",
          "type": "uint256"
        }
      ],
      "name": "totalUndistributedFees",
      "outputs": [
        {
          "internalType": "uint256",
          "name": "",
          "type": "uint256"
        }
      ],
      "stateMutability": "view",
      "type": "function"
    },
    {
      "inputs": [
        {
          "internalType": "address",
          "name": "newOwner",
          "type": "address"
        }
      ],
      "name": "transferOwnership",
      "outputs": [],
      "stateMutability": "nonpayable",
      "type": "function"
    },
    {
      "inputs": [
        {
          "internalType": "uint256",
          "name": "vaultId",
          "type": "uint256"
        },
        {
          "internalType": "address",
          "name": "staker",
          "type": "address"
        }
      ],
      "name": "undistributedFees",
      "outputs": [
        {
          "internalType": "uint256",
          "name": "",
          "type": "uint256"
        }
      ],
      "stateMutability": "view",
      "type": "function"
    },
    {
      "inputs": [
        {
          "internalType": "uint256",
          "name": "lockId",
          "type": "uint256"
        }
      ],
      "name": "unpause",
      "outputs": [],
      "stateMutability": "nonpayable",
      "type": "function"
    },
    {
      "inputs": [
        {
          "internalType": "uint256",
          "name": "vaultId",
          "type": "uint256"
        }
      ],
      "name": "updatePoolForVault",
      "outputs": [],
      "stateMutability": "nonpayable",
      "type": "function"
    },
    {
      "inputs": [
        {
          "internalType": "uint256[]",
          "name": "vaultIds",
          "type": "uint256[]"
        }
      ],
      "name": "updatePoolForVaults",
      "outputs": [],
      "stateMutability": "nonpayable",
      "type": "function"
    },
    {
      "inputs": [
        {
          "internalType": "uint256",
          "name": "",
          "type": "uint256"
        }
      ],
      "name": "vaultStakingInfo",
      "outputs": [
        {
          "internalType": "address",
          "name": "stakingToken",
          "type": "address"
        },
        {
          "internalType": "address",
          "name": "rewardToken",
          "type": "address"
        }
      ],
      "stateMutability": "view",
      "type": "function"
    },
    {
      "inputs": [
        {
          "internalType": "uint256",
          "name": "vaultId",
          "type": "uint256"
        },
        {
          "internalType": "uint256",
          "name": "amount",
          "type": "uint256"
        }
      ],
      "name": "withdraw",
      "outputs": [],
      "stateMutability": "nonpayable",
      "type": "function"
    }
  ],
  "bytecode": "0x608060405234801561001057600080fd5b5061505c806100206000396000f3fe608060405234801561001057600080fd5b506004361061023d5760003560e01c80637f8661a11161013b578063b7019b37116100b8578063e2bbb1581161007c578063e2bbb15814610559578063f2fde38b1461056c578063f36d52da1461057f578063f99e740514610592578063fabc1cbc146105a557600080fd5b8063b7019b37146104ea578063bdf2a43c146104fd578063cd46053214610520578063da04682b14610533578063e0e9e64d1461054657600080fd5b80638da5cb5b116100ff5780638da5cb5b1461048d57806392a05be61461049e5780639d8ab6ae146104b1578063a3837c6c146104c4578063a77abced146104d757600080fd5b80637f8661a11461042e578063859251ff1461044157806386c920fc1461045457806387a6753f146104675780638a7891621461047a57600080fd5b8063482d0fd2116101c9578063729d0a8a1161018d578063729d0a8a146103cf578063763c6da1146103e25780637a77a5f7146103f55780637c77b616146104085780637ec732ab1461041b57600080fd5b8063482d0fd21461037b5780634dfa5fcf1461038e5780635cec16c0146103a15780636c9b9588146103b4578063715018a6146103c757600080fd5b80633504f437116102105780633504f437146102b55780633580c2f2146103095780633656eec21461031c5780633801daf11461033d578063441a3e701461036857600080fd5b80630962ef79146102425780630c68ba2114610257578063136439dd1461028f57806323845fb5146102a2575b600080fd5b610255610250366004612b8a565b6105b8565b005b61027a610265366004612bb8565b60656020526000908152604090205460ff1681565b60405190151581526020015b60405180910390f35b61025561029d366004612b8a565b610603565b6102556102b0366004612be3565b6106ad565b6102e96102c3366004612b8a565b606a60205260009081526040902080546001909101546001600160a01b03918216911682565b604080516001600160a01b03938416815292909116602083015201610286565b610255610317366004612c1c565b61073a565b61032f61032a366004612c4a565b610871565b604051908152602001610286565b606754610350906001600160a01b031681565b6040516001600160a01b039091168152602001610286565b610255610376366004612c6f565b610947565b610255610389366004612b8a565b61099e565b61032f61039c366004612b8a565b610b68565b6102556103af366004612c1c565b610db3565b6102556103c2366004612c91565b610dfc565b610255610fe7565b6102556103dd366004612cce565b61105b565b61032f6103f0366004612c4a565b611098565b610255610403366004612cce565b611163565b610255610416366004612b8a565b6111a0565b610255610429366004612bb8565b611200565b61025561043c366004612b8a565b61125f565b606b54610350906001600160a01b031681565b606954610350906001600160a01b031681565b610255610475366004612b8a565b6112b4565b61032f610488366004612c4a565b6115e8565b6033546001600160a01b0316610350565b606854610350906001600160a01b031681565b6102556104bf366004612bb8565b611762565b6103506104d2366004612d59565b61193f565b6102556104e5366004612bb8565b6119b1565b6103506104f8366004612b8a565b611a56565b61027a61050b366004612b8a565b60666020526000908152604090205460ff1681565b61025561052e366004612db8565b611aab565b610350610541366004612c1c565b611be5565b61032f610554366004612c4a565b611c0f565b610255610567366004612c6f565b611ccf565b61025561057a366004612bb8565b611ea0565b61027a61058d366004612c6f565b611f8b565b61032f6105a0366004612c4a565b612216565b6102556105b3366004612b8a565b612288565b6000818152606a6020908152604091829020825180840190935280546001600160a01b03908116845260019091015416908201526105f5826122ff565b6105ff81336123d1565b5050565b3360009081526065602052604090205460ff166106555760405162461bcd60e51b815260206004820152600b60248201526a43616e277420706175736560a81b60448201526064015b60405180910390fd5b600081815260666020908152604091829020805460ff191660019081179091558251848152918201527f77f1fcfcce67dc392d64f842056d2ec06c80986c47c910f7e79c5b23a2738d7491015b60405180910390a150565b6033546001600160a01b031633146106d75760405162461bcd60e51b815260040161064c90612e02565b6001600160a01b038216600081815260656020908152604091829020805460ff19168515159081179091558251938452908301527fd0b6b573d5442f7c29fd50d9735ae341581c25c6ed07748d50eda519f1ffa88a910160405180910390a15050565b604080518082019091526001600160a01b0380841682528216602082015260006107638261193f565b9050803b6107835760405162461bcd60e51b815260040161064c90612e37565b6107ed836001600160a01b03166333194c0a6040518163ffffffff1660e01b8152600401602060405180830381865afa1580156107c4573d6000803e3d6000fd5b505050506040513d601f19601f820116820180604052508101906107e89190612e5b565b6122ff565b6107f782336123d1565b6040516370a0823160e01b815233600482015261086b9083906001600160a01b038416906370a0823190602401602060405180830381865afa158015610841573d6000803e3d6000fd5b505050506040513d601f19601f820116820180604052508101906108659190612e5b565b33612462565b50505050565b6000828152606a60209081526040808320815180830190925280546001600160a01b0390811683526001909101541691810191909152816108b18261193f565b9050803b6108d15760405162461bcd60e51b815260040161064c90612e37565b6040516370a0823160e01b81526001600160a01b0385811660048301528216906370a08231906024015b602060405180830381865afa158015610918573d6000803e3d6000fd5b505050506040513d601f19601f8201168201806040525081019061093c9190612e5b565b925050505b92915050565b6000828152606a6020908152604091829020825180840190935280546001600160a01b0390811684526001909101541690820152610984836122ff565b61098e81336123d1565b610999818333612462565b505050565b6000818152606a6020908152604091829020825180840190935280546001600160a01b039081168085526001909201541691830191909152610a225760405162461bcd60e51b815260206004820152601d60248201527f4c505374616b696e673a20506f6f6c20646f65736e2774206578697374000000604482015260640161064c565b60695460208201516040516387c13f4d60e01b81526001600160a01b03918216600482015260009291909116906387c13f4d90602401602060405180830381865afa158015610a75573d6000803e3d6000fd5b505050506040513d601f19601f82011682018060405250810190610a999190612e74565b6040805180820182526001600160a01b03808416825260208681015182168184019081526000898152606a909252938120835181549084166001600160a01b0319918216178255945160019091018054919093169416939093179055919250610b018261193f565b9050803b15610b11575050505050565b6000610b1c8361250d565b604080518881526001600160a01b03831660208201529192507fd2bb61ed4a0a485d895c65f25fb6c9185c98180ae407831365bc59f65419f9fe910160405180910390a1505050505050565b600080606760009054906101000a90046001600160a01b03166001600160a01b0316630d43e8ad6040518163ffffffff1660e01b8152600401602060405180830381865afa158015610bbe573d6000803e3d6000fd5b505050506040513d601f19601f82011682018060405250810190610be29190612e74565b604051632819fec960e11b815260006004820181905291925081906001600160a01b03841690635033fd92906024016040805180830381865afa158015610c2d573d6000803e3d6000fd5b505050506040513d601f19601f82011682018060405250810190610c519190612e91565b90925090506001600160a01b0382163014610c9c5760405162461bcd60e51b815260206004820152600b60248201526a0eee4dedcce40d2dcc8caf60ab1b604482015260640161064c565b6000858152606a6020908152604091829020600101546067548351630d43e8ad60e01b81529351670de0b6b3a76400009486946001600160a01b03948516946370a08231941692630d43e8ad9260048082019392918290030181865afa158015610d0a573d6000803e3d6000fd5b505050506040513d601f19601f82011682018060405250810190610d2e9190612e74565b6040516001600160e01b031960e084901b1681526001600160a01b039091166004820152602401602060405180830381865afa158015610d72573d6000803e3d6000fd5b505050506040513d601f19601f82011682018060405250810190610d969190612e5b565b610da09190612ed5565b610daa9190612ef4565b95945050505050565b604080518082019091526001600160a01b038084168252821660208201526000610ddc8261193f565b9050803b6107f75760405162461bcd60e51b815260040161064c90612e37565b62278d008110610e425760405162461bcd60e51b815260206004820152601160248201527054696d656c6f636b20746f6f206c6f6e6760781b604482015260640161064c565b6067546040516306df336560e51b81523360048201526001600160a01b039091169063dbe66ca090602401602060405180830381865afa158015610e8a573d6000803e3d6000fd5b505050506040513d601f19601f82011682018060405250810190610eae9190612f16565b610ee45760405162461bcd60e51b815260206004820152600760248201526604e6f74207a61760cc1b604482015260640161064c565b610eee600a6111a0565b610ef78461099e565b610f00846122ff565b6000848152606a6020908152604091829020825180840190935280546001600160a01b039081168085526001909201541691830191909152610f545760405162461bcd60e51b815260040161064c90612f33565b8051610f6b906001600160a01b031633308661266c565b610f748161193f565b60405163145e612f60e11b81526001600160a01b038681166004830152602482018690526044820185905291909116906328bcc25e906064015b600060405180830381600087803b158015610fc857600080fd5b505af1158015610fdc573d6000803e3d6000fd5b505050505050505050565b6033546001600160a01b031633146110115760405162461bcd60e51b815260040161064c90612e02565b6033546040516000916001600160a01b0316907f8be0079c531659141344cd1fd0a4f28419497f9722a3daafe3b4186f6b6457e0908390a3603380546001600160a01b0319169055565b8060005b8181101561086b5761108884848381811061107c5761107c612f6a565b905060200201356105b8565b61109181612f80565b905061105f565b6000828152606a60209081526040808320815180830190925280546001600160a01b039081168352600190910154169181019190915281906110d99061193f565b6040516348dc4fdd60e11b81526001600160a01b038581166004830152919250908216906391b89fba90602401602060405180830381865afa158015611123573d6000803e3d6000fd5b505050506040513d601f19601f820116820180604052508101906111479190612e5b565b61115185856115e8565b61115b9190612f99565b949350505050565b8060005b8181101561086b5761119084848381811061118457611184612f6a565b9050602002013561099e565b61119981612f80565b9050611167565b60008181526066602052604090205460ff1615806111c857506033546001600160a01b031633145b6111fd5760405162461bcd60e51b815260206004820152600660248201526514185d5cd95960d21b604482015260640161064c565b50565b6033546001600160a01b0316331461122a5760405162461bcd60e51b815260040161064c90612e02565b6001600160a01b03811661123d57600080fd5b606980546001600160a01b0319166001600160a01b0392909216919091179055565b6000818152606a6020908152604091829020825180840190935280546001600160a01b039081168452600190910154169082015261129c826122ff565b6112a681336123d1565b6105ff816108658433610871565b6033546001600160a01b03163314806113545750606760009054906101000a90046001600160a01b03166001600160a01b0316630d43e8ad6040518163ffffffff1660e01b8152600401602060405180830381865afa15801561131b573d6000803e3d6000fd5b505050506040513d601f19601f8201168201806040525081019061133f9190612e74565b6001600160a01b0316336001600160a01b0316145b61139c5760405162461bcd60e51b8152602060048201526019602482015278131414dd185ada5b99ce88139bdd08185d5d1a1bdc9a5e9959603a1b604482015260640161064c565b6067546001600160a01b03166113f45760405162461bcd60e51b815260206004820152601a60248201527f4c505374616b696e673a20466163746f7279206e6f7420736574000000000000604482015260640161064c565b6000818152606a60205260409020546001600160a01b0316156114595760405162461bcd60e51b815260206004820152601e60248201527f4c505374616b696e673a20506f6f6c20616c7265616479206578697374730000604482015260640161064c565b6067546040516340d1b7db60e11b8152600481018390526000916001600160a01b0316906381a36fb690602401602060405180830381865afa1580156114a3573d6000803e3d6000fd5b505050506040513d601f19601f820116820180604052508101906114c79190612e74565b6069546040516387c13f4d60e01b81526001600160a01b038084166004830152929350600092909116906387c13f4d90602401602060405180830381865afa158015611517573d6000803e3d6000fd5b505050506040513d601f19601f8201168201806040525081019061153b9190612e74565b6040805180820182526001600160a01b03808416825285811660208084019182526000898152606a909152938420835181549084166001600160a01b031991821617825591516001909101805491909316911617905591925061159d8261250d565b604080518781526001600160a01b03831660208201529192507f65fc0eb45954044fb55e1b01344d5d72fbfdf88e732d955f73bb7fb2bcc131e9910160405180910390a15050505050565b6000828152606a60209081526040808320815180830190925280546001600160a01b039081168352600190910154169181019190915281906116299061193f565b90506000816001600160a01b03166318160ddd6040518163ffffffff1660e01b8152600401602060405180830381865afa15801561166b573d6000803e3d6000fd5b505050506040513d601f19601f8201168201806040525081019061168f9190612e5b565b9050806000036116a457600092505050610941565b6040516370a0823160e01b81526001600160a01b03858116600483015260009183918516906370a0823190602401602060405180830381865afa1580156116ef573d6000803e3d6000fd5b505050506040513d601f19601f820116820180604052508101906117139190612e5b565b61172590670de0b6b3a7640000612ed5565b61172f9190612ef4565b9050670de0b6b3a76400008161174488610b68565b61174e9190612ed5565b6117589190612ef4565b9695505050505050565b600054610100900460ff168061177b575060005460ff16155b6117975760405162461bcd60e51b815260040161064c90612fb1565b600054610100900460ff161580156117b9576000805461ffff19166101011790555b6117c16126d7565b6001600160a01b0382166118105760405162461bcd60e51b815260206004820152601660248201527550726f766964657220213d206164647265737328302960501b604482015260640161064c565b606b546001600160a01b03161561185c5760405162461bcd60e51b815260206004820152601060248201526f105b1c9958591e48185cdcda59db995960821b604482015260640161064c565b606980546001600160a01b0319166001600160a01b03841617905560405161188390612b7d565b604051809103906000f08015801561189f573d6000803e3d6000fd5b50606b80546001600160a01b0319166001600160a01b03929092169182179055604051639f63df1f60e01b81526000600482018190526060602483015260648201819052608060448301526084820152639f63df1f9060a401600060405180830381600087803b15801561191257600080fd5b505af1158015611926573d6000803e3d6000fd5b5050505080156105ff576000805461ff00191690555050565b80516020808301516040516bffffffffffffffffffffffff19606094851b811693820193909352921b16603482015260026048820152600090819060680160408051601f198184030181529190528051602090910120606b5490915060009061115b906001600160a01b031683612752565b6033546001600160a01b031633146119db5760405162461bcd60e51b815260040161064c90612e02565b6067546001600160a01b031615611a345760405162461bcd60e51b815260206004820152601d60248201527f6e6674785661756c74466163746f727920697320696d6d757461626c65000000604482015260640161064c565b606780546001600160a01b0319166001600160a01b0392909216919091179055565b6000818152606a60209081526040808320815180830190925280546001600160a01b03908116808452600190920154169282019290925290611a9b5750600092915050565b611aa48161193f565b9392505050565b6033546001600160a01b03163314611ad55760405162461bcd60e51b815260040161064c90612e02565b6000848152606a60209081526040808320815180830190925280546001600160a01b039081168352600190910154169181019190915290611b158261193f565b60405163079cc67960e41b81526001600160a01b03868116600483015260248201889052919250908216906379cc679090604401600060405180830381600087803b158015611b6357600080fd5b505af1158015611b77573d6000803e3d6000fd5b50506040516340c10f1960e01b81526001600160a01b03868116600483015260248201899052841692506340c10f199150604401600060405180830381600087803b158015611bc557600080fd5b505af1158015611bd9573d6000803e3d6000fd5b50505050505050505050565b604080518082019091526001600160a01b0380841682528216602082015260009061115b8161193f565b6000828152606a60209081526040808320815180830190925280546001600160a01b039081168352600190910154169181019190915281611c4f8261193f565b60405163c19ea05360e01b81526001600160a01b0386811660048301529192509082169063c19ea05390602401602060405180830381865afa158015611c99573d6000803e3d6000fd5b505050506040513d601f19601f82011682018060405250810190611cbd9190612e5b565b4211156108d157600092505050610941565b611cd9600a6111a0565b611ce28261099e565b611ceb826122ff565b6000828152606a6020908152604091829020825180840190935280546001600160a01b039081168085526001909201541691830191909152611d3f5760405162461bcd60e51b815260040161064c90612f33565b8051611d56906001600160a01b031633308561266c565b6000611d618261193f565b60405163c19ea05360e01b81523360048201529091506000906001600160a01b0383169063c19ea05390602401602060405180830381865afa158015611dab573d6000803e3d6000fd5b505050506040513d601f19601f82011682018060405250810190611dcf9190612e5b565b905042811115611e5f576001600160a01b0382166328bcc25e3386611df44286612fff565b6040516001600160e01b031960e086901b1681526001600160a01b03909316600484015260248301919091526044820152606401600060405180830381600087803b158015611e4257600080fd5b505af1158015611e56573d6000803e3d6000fd5b50505050611e99565b60405163145e612f60e11b815233600482015260248101859052600260448201526001600160a01b038316906328bcc25e90606401610fae565b5050505050565b6033546001600160a01b03163314611eca5760405162461bcd60e51b815260040161064c90612e02565b6001600160a01b038116611f2f5760405162461bcd60e51b815260206004820152602660248201527f4f776e61626c653a206e6577206f776e657220697320746865207a65726f206160448201526564647265737360d01b606482015260840161064c565b6033546040516001600160a01b038084169216907f8be0079c531659141344cd1fd0a4f28419497f9722a3daafe3b4186f6b6457e090600090a3603380546001600160a01b0319166001600160a01b0392909216919091179055565b6000611f9f6033546001600160a01b031690565b6001600160a01b0316336001600160a01b031614806120455750606760009054906101000a90046001600160a01b03166001600160a01b0316630d43e8ad6040518163ffffffff1660e01b8152600401602060405180830381865afa15801561200c573d6000803e3d6000fd5b505050506040513d601f19601f820116820180604052508101906120309190612e74565b6001600160a01b0316336001600160a01b0316145b61208d5760405162461bcd60e51b8152602060048201526019602482015278131414dd185ada5b99ce88139bdd08185d5d1a1bdc9a5e9959603a1b604482015260640161064c565b6000838152606a6020908152604091829020825180840190935280546001600160a01b0390811680855260019092015416918301919091526120d3576000915050610941565b60006120de8261193f565b9050803b158061214d5750806001600160a01b03166318160ddd6040518163ffffffff1660e01b8152600401602060405180830381865afa158015612127573d6000803e3d6000fd5b505050506040513d601f19601f8201168201806040525081019061214b9190612e5b565b155b1561215d57600092505050610941565b6020820151612177906001600160a01b031633838761266c565b604051630b32e9c760e31b8152600481018590526001600160a01b038216906359974e3890602401600060405180830381600087803b1580156121b957600080fd5b505af11580156121cd573d6000803e3d6000fd5b505060408051888152602081018890527f0299314386021feac38b734d748626da8e75d6abb4e6a897c0f9c8f23ff42715935001905060405180910390a1506001949350505050565b6000828152606a60209081526040808320815180830190925280546001600160a01b0390811683526001909101541691810191909152816122568261193f565b60405163c19ea05360e01b81526001600160a01b0386811660048301529192509082169063c19ea053906024016108fb565b6033546001600160a01b031633146122b25760405162461bcd60e51b815260040161064c90612e02565b6000818152606660209081526040808320805460ff191690558051848152918201929092527f77f1fcfcce67dc392d64f842056d2ec06c80986c47c910f7e79c5b23a2738d7491016106a2565b606760009054906101000a90046001600160a01b03166001600160a01b0316630d43e8ad6040518163ffffffff1660e01b8152600401602060405180830381865afa158015612352573d6000803e3d6000fd5b505050506040513d601f19601f820116820180604052508101906123769190612e74565b6001600160a01b03166391c05b0b826040518263ffffffff1660e01b81526004016123a391815260200190565b600060405180830381600087803b1580156123bd57600080fd5b505af1158015611e99573d6000803e3d6000fd5b81516001600160a01b03166123f85760405162461bcd60e51b815260040161064c90612f33565b6124018261193f565b604051632e1b8c8760e21b81526001600160a01b038381166004830152919091169063b86e321c90602401600060405180830381600087803b15801561244657600080fd5b505af115801561245a573d6000803e3d6000fd5b505050505050565b82516001600160a01b03166124895760405162461bcd60e51b815260040161064c90612f33565b6124928361193f565b60405163079cc67960e41b81526001600160a01b0383811660048301526024820185905291909116906379cc679090604401600060405180830381600087803b1580156124de57600080fd5b505af11580156124f2573d6000803e3d6000fd5b5050845161099992506001600160a01b0316905082846127b8565b80516020808301516040516bffffffffffffffffffffffff19606094851b811693820193909352921b16603482015260026048820152600090819060680160408051601f198184030181529190528051602090910120606b5490915060009061257f906001600160a01b0316836127e8565b60695460208601516040516396c5967160e01b81526001600160a01b0391821660048201529293506000929116906396c5967190602401600060405180830381865afa1580156125d3573d6000803e3d6000fd5b505050506040513d6000823e601f3d908101601f191682016040526125fb9190810190613042565b6020860151604051639f63df1f60e01b81529192506001600160a01b03841691639f63df1f916126319185908190600401613110565b600060405180830381600087803b15801561264b57600080fd5b505af115801561265f573d6000803e3d6000fd5b5093979650505050505050565b6040516001600160a01b038085166024830152831660448201526064810182905261086b9085906323b872dd60e01b906084015b60408051601f198184030181529190526020810180516001600160e01b03166001600160e01b031990931692909217909152612888565b600054610100900460ff16806126f0575060005460ff16155b61270c5760405162461bcd60e51b815260040161064c90612fb1565b600054610100900460ff1615801561272e576000805461ffff19166101011790555b61273661295a565b61273e6129c4565b80156111fd576000805461ff001916905550565b6000611aa4838330604051733d602d80600a3d3981f3363d3d373d3d3d363d7360601b8152606093841b60148201526f5af43d82803e903d91602b57fd5bf3ff60801b6028820152921b6038830152604c8201526037808220606c830152605591012090565b6040516001600160a01b03831660248201526044810182905261099990849063a9059cbb60e01b906064016126a0565b6000604051733d602d80600a3d3981f3363d3d373d3d3d363d7360601b81528360601b60148201526e5af43d82803e903d91602b57fd5bf360881b6028820152826037826000f59150506001600160a01b0381166109415760405162461bcd60e51b815260206004820152601760248201527f455243313136373a2063726561746532206661696c6564000000000000000000604482015260640161064c565b60006128dd826040518060400160405280602081526020017f5361666545524332303a206c6f772d6c6576656c2063616c6c206661696c6564815250856001600160a01b0316612a729092919063ffffffff16565b80519091501561099957808060200190518101906128fb9190612f16565b6109995760405162461bcd60e51b815260206004820152602a60248201527f5361666545524332303a204552433230206f7065726174696f6e20646964206e6044820152691bdd081cdd58d8d9595960b21b606482015260840161064c565b600054610100900460ff1680612973575060005460ff16155b61298f5760405162461bcd60e51b815260040161064c90612fb1565b600054610100900460ff1615801561273e576000805461ffff191661010117905580156111fd576000805461ff001916905550565b600054610100900460ff16806129dd575060005460ff16155b6129f95760405162461bcd60e51b815260040161064c90612fb1565b600054610100900460ff16158015612a1b576000805461ffff19166101011790555b603380546001600160a01b0319163390811790915560405181906000907f8be0079c531659141344cd1fd0a4f28419497f9722a3daafe3b4186f6b6457e0908290a35080156111fd576000805461ff001916905550565b606061115b848460008585843b612acb5760405162461bcd60e51b815260206004820152601d60248201527f416464726573733a2063616c6c20746f206e6f6e2d636f6e7472616374000000604482015260640161064c565b600080866001600160a01b03168587604051612ae79190613146565b60006040518083038185875af1925050503d8060008114612b24576040519150601f19603f3d011682016040523d82523d6000602084013e612b29565b606091505b5091509150612b39828286612b44565b979650505050505050565b60608315612b53575081611aa4565b825115612b635782518084602001fd5b8160405162461bcd60e51b815260040161064c9190613162565b611eb18061317683390190565b600060208284031215612b9c57600080fd5b5035919050565b6001600160a01b03811681146111fd57600080fd5b600060208284031215612bca57600080fd5b8135611aa481612ba3565b80151581146111fd57600080fd5b60008060408385031215612bf657600080fd5b8235612c0181612ba3565b91506020830135612c1181612bd5565b809150509250929050565b60008060408385031215612c2f57600080fd5b8235612c3a81612ba3565b91506020830135612c1181612ba3565b60008060408385031215612c5d57600080fd5b823591506020830135612c1181612ba3565b60008060408385031215612c8257600080fd5b50508035926020909101359150565b60008060008060808587031215612ca757600080fd5b843593506020850135612cb981612ba3565b93969395505050506040820135916060013590565b60008060208385031215612ce157600080fd5b823567ffffffffffffffff80821115612cf957600080fd5b818501915085601f830112612d0d57600080fd5b813581811115612d1c57600080fd5b8660208260051b8501011115612d3157600080fd5b60209290920196919550909350505050565b634e487b7160e01b600052604160045260246000fd5b600060408284031215612d6b57600080fd5b6040516040810181811067ffffffffffffffff82111715612d8e57612d8e612d43565b6040528235612d9c81612ba3565b81526020830135612dac81612ba3565b60208201529392505050565b60008060008060808587031215612dce57600080fd5b84359350602085013592506040850135612de781612ba3565b91506060850135612df781612ba3565b939692955090935050565b6020808252818101527f4f776e61626c653a2063616c6c6572206973206e6f7420746865206f776e6572604082015260600190565b6020808252600a9082015269139bdd0818481c1bdbdb60b21b604082015260600190565b600060208284031215612e6d57600080fd5b5051919050565b600060208284031215612e8657600080fd5b8151611aa481612ba3565b60008060408385031215612ea457600080fd5b8251612eaf81612ba3565b6020939093015192949293505050565b634e487b7160e01b600052601160045260246000fd5b6000816000190483118215151615612eef57612eef612ebf565b500290565b600082612f1157634e487b7160e01b600052601260045260246000fd5b500490565b600060208284031215612f2857600080fd5b8151611aa481612bd5565b6020808252601b908201527f4c505374616b696e673a204e6f6e6578697374656e7420706f6f6c0000000000604082015260600190565b634e487b7160e01b600052603260045260246000fd5b600060018201612f9257612f92612ebf565b5060010190565b60008219821115612fac57612fac612ebf565b500190565b6020808252602e908201527f496e697469616c697a61626c653a20636f6e747261637420697320616c72656160408201526d191e481a5b9a5d1a585b1a5e995960921b606082015260800190565b60008282101561301157613011612ebf565b500390565b60005b83811015613031578181015183820152602001613019565b8381111561086b5750506000910152565b60006020828403121561305457600080fd5b815167ffffffffffffffff8082111561306c57600080fd5b818401915084601f83011261308057600080fd5b81518181111561309257613092612d43565b604051601f8201601f19908116603f011681019083821181831017156130ba576130ba612d43565b816040528281528760208487010111156130d357600080fd5b612b39836020830160208801613016565b600081518084526130fc816020860160208601613016565b601f01601f19169290920160200192915050565b6001600160a01b0384168152606060208201819052600090613134908301856130e4565b828103604084015261175881856130e4565b60008251613158818460208701613016565b9190910192915050565b602081526000611aa460208301846130e456fe608060405234801561001057600080fd5b50611e91806100206000396000f3fe608060405234801561001057600080fd5b50600436106101735760003560e01c806379cc6790116100de578063a9059cbb11610097578063c19ea05311610071578063c19ea05314610347578063d4b8399214610370578063dd62ed3e14610383578063f2fde38b146103bc57600080fd5b8063a9059cbb146102f8578063ad76d6861461030b578063b86e321c1461033457600080fd5b806379cc67901461027f5780638da5cb5b1461029257806391b89fba146102b757806395d89b41146102ca5780639f63df1f146102d2578063a457c2d7146102e557600080fd5b8063313ce56711610130578063313ce56714610206578063395093511461021557806340c10f191461022857806359974e381461023b57806370a082311461024e578063715018a61461027757600080fd5b806305b3ccb41461017857806306fdde031461019e578063095ea7b3146101b357806318160ddd146101d657806323b872dd146101de57806328bcc25e146101f1575b600080fd5b61018b6101863660046119a9565b6103cf565b6040519081526020015b60405180910390f35b6101a6610432565b60405161019591906119f2565b6101c66101c1366004611a25565b6104c4565b6040519015158152602001610195565b60675461018b565b6101c66101ec366004611a51565b6104da565b6102046101ff366004611a92565b61052a565b005b60405160128152602001610195565b6101c6610223366004611a25565b6105d7565b610204610236366004611a25565b61060e565b610204610249366004611ac7565b610646565b61018b61025c3660046119a9565b6001600160a01b031660009081526065602052604090205490565b61020461076e565b61020461028d366004611a25565b6107e2565b6033546001600160a01b03165b6040516001600160a01b039091168152602001610195565b61018b6102c53660046119a9565b610816565b6101a6610821565b6102046102e0366004611b83565b610830565b6101c66102f3366004611a25565b6108cb565b6101c6610306366004611a25565b61095c565b61018b6103193660046119a9565b6001600160a01b03166000908152609a602052604090205490565b6102046103423660046119a9565b610969565b61018b6103553660046119a9565b6001600160a01b03166000908152609b602052604090205490565b60975461029f906001600160a01b031681565b61018b610391366004611bf9565b6001600160a01b03918216600090815260666020908152604080832093909416825291909152205490565b6102046103ca3660046119a9565b610a3c565b6001600160a01b0381166000908152609960209081526040808320546065909252822054609854600160801b926104229261041d92610417916104129190610b27565b610b33565b90610b9d565b610bdb565b61042c9190611c48565b92915050565b60606068805461044190611c6a565b80601f016020809104026020016040519081016040528092919081815260200182805461046d90611c6a565b80156104ba5780601f1061048f576101008083540402835291602001916104ba565b820191906000526020600020905b81548152906001019060200180831161049d57829003601f168201915b5050505050905090565b60006104d1338484610bea565b50600192915050565b60006104e7848484610d0f565b61051f843361051a85604051806060016040528060288152602001611e34602891396105138a33610391565b9190610e00565b610bea565b5060015b9392505050565b6033546001600160a01b0316331461055d5760405162461bcd60e51b815260040161055490611ca4565b60405180910390fd5b60006105698242611cd9565b6001600160a01b0385166000818152609b60209081526040918290208490558151928352820186905281018290529091507fe1d6ea7b60537f263509ee48f8e298cc60801e7bddbec613b343272d897dc5e79060600160405180910390a16105d18484610e2c565b50505050565b3360008181526066602090815260408083206001600160a01b038716845290915281205490916104d191859061051a908690611cd9565b6033546001600160a01b031633146106385760405162461bcd60e51b815260040161055490611ca4565b6106428282610e2c565b5050565b6033546001600160a01b031633146106705760405162461bcd60e51b815260040161055490611ca4565b600061067b60675490565b116106bf5760405162461bcd60e51b8152602060048201526014602482015273526577617264446973743a203020737570706c7960601b6044820152606401610554565b600081116107065760405162461bcd60e51b815260206004820152601460248201527314995dd85c99111a5cdd0e880c08185b5bdd5b9d60621b6044820152606401610554565b61073361071260675490565b61072083600160801b610b27565b61072a9190611c48565b60985490610e90565b60985560405181815233907fdf29796aad820e4bb192f3a8d631b76519bcd2cbe77cc85af20e9df53cece0869060200160405180910390a250565b6033546001600160a01b031633146107985760405162461bcd60e51b815260040161055490611ca4565b6033546040516000916001600160a01b0316907f8be0079c531659141344cd1fd0a4f28419497f9722a3daafe3b4186f6b6457e0908390a3603380546001600160a01b0319169055565b6033546001600160a01b0316331461080c5760405162461bcd60e51b815260040161055490611ca4565b6106428282610e9c565b600061042c82610f35565b60606069805461044190611c6a565b600054610100900460ff1680610849575060005460ff16155b6108655760405162461bcd60e51b815260040161055490611cf1565b600054610100900460ff16158015610887576000805461ffff19166101011790555b61088f610f61565b6108998383610fdd565b609780546001600160a01b0319166001600160a01b03861617905580156105d1576000805461ff001916905550505050565b3360009081526066602090815260408083206001600160a01b03861684529091528120548281101561094d5760405162461bcd60e51b815260206004820152602560248201527f45524332303a2064656372656173656420616c6c6f77616e63652062656c6f77604482015264207a65726f60d81b6064820152608401610554565b61051f338561051a8685611d3f565b60006104d1338484610d0f565b6033546001600160a01b031633146109935760405162461bcd60e51b815260040161055490611ca4565b600061099e82610f35565b90508015610642576001600160a01b0382166000908152609a60205260409020546109c99082610e90565b6001600160a01b038084166000908152609a60205260409020919091556097546109f59116838361105d565b816001600160a01b03167f1d3eee4ca001cff39eec6ec7615aacf2f2bd61791273830728ba00ccbd6e133782604051610a3091815260200190565b60405180910390a25050565b6033546001600160a01b03163314610a665760405162461bcd60e51b815260040161055490611ca4565b6001600160a01b038116610acb5760405162461bcd60e51b815260206004820152602660248201527f4f776e61626c653a206e6577206f776e657220697320746865207a65726f206160448201526564647265737360d01b6064820152608401610554565b6033546040516001600160a01b038084169216907f8be0079c531659141344cd1fd0a4f28419497f9722a3daafe3b4186f6b6457e090600090a3603380546001600160a01b0319166001600160a01b0392909216919091179055565b60006105238284611d56565b6000600160ff1b8210610b995760405162461bcd60e51b815260206004820152602860248201527f53616665436173743a2076616c756520646f65736e27742066697420696e2061604482015267371034b73a191a9b60c11b6064820152608401610554565b5090565b600080610baa8385611d75565b905060008312158015610bbd5750838112155b80610bd25750600083128015610bd257508381125b61052357600080fd5b600080821215610b9957600080fd5b6001600160a01b038316610c4c5760405162461bcd60e51b8152602060048201526024808201527f45524332303a20617070726f76652066726f6d20746865207a65726f206164646044820152637265737360e01b6064820152608401610554565b6001600160a01b038216610cad5760405162461bcd60e51b815260206004820152602260248201527f45524332303a20617070726f766520746f20746865207a65726f206164647265604482015261737360f01b6064820152608401610554565b6001600160a01b0383811660008181526066602090815260408083209487168084529482529182902085905590518481527f8c5be1e5ebec7d5bd14f71427d1e84f3dd0314c0f7b2291e5b200ac8c7c3b92591015b60405180910390a3505050565b6001600160a01b0383166000908152609b60205260409020544211610d645760405162461bcd60e51b815260206004820152600b60248201526a155cd95c881b1bd8dad95960aa1b6044820152606401610554565b610d6f8383836110af565b6000610d8961041283609854610b2790919063ffffffff16565b6001600160a01b038516600090815260996020526040902054909150610daf9082610b9d565b6001600160a01b038086166000908152609960205260408082209390935590851681522054610dde9082611287565b6001600160a01b03909316600090815260996020526040902092909255505050565b60008184841115610e245760405162461bcd60e51b815260040161055491906119f2565b505050900390565b610e3682826112d3565b610e70610e5161041283609854610b2790919063ffffffff16565b6001600160a01b03841660009081526099602052604090205490611287565b6001600160a01b0390921660009081526099602052604090209190915550565b60006105238284611cd9565b6001600160a01b0382166000908152609b60205260409020544211610ef15760405162461bcd60e51b815260206004820152600b60248201526a155cd95c881b1bd8dad95960aa1b6044820152606401610554565b610efb82826113b2565b610e70610f1661041283609854610b2790919063ffffffff16565b6001600160a01b03841660009081526099602052604090205490610b9d565b6001600160a01b0381166000908152609a602052604081205461042c90610f5b846103cf565b90611501565b600054610100900460ff1680610f7a575060005460ff16155b610f965760405162461bcd60e51b815260040161055490611cf1565b600054610100900460ff16158015610fb8576000805461ffff19166101011790555b610fc061150d565b610fc8611577565b8015610fda576000805461ff00191690555b50565b600054610100900460ff1680610ff6575060005460ff16155b6110125760405162461bcd60e51b815260040161055490611cf1565b600054610100900460ff16158015611034576000805461ffff19166101011790555b61103c61150d565b6110468383611625565b8015611058576000805461ff00191690555b505050565b604080516001600160a01b038416602482015260448082018490528251808303909101815260649091019091526020810180516001600160e01b031663a9059cbb60e01b1790526110589084906116ba565b6001600160a01b0383166111135760405162461bcd60e51b815260206004820152602560248201527f45524332303a207472616e736665722066726f6d20746865207a65726f206164604482015264647265737360d81b6064820152608401610554565b6001600160a01b0382166111755760405162461bcd60e51b815260206004820152602360248201527f45524332303a207472616e7366657220746f20746865207a65726f206164647260448201526265737360e81b6064820152608401610554565b6001600160a01b038316600090815260656020526040902054818110156111ed5760405162461bcd60e51b815260206004820152602660248201527f45524332303a207472616e7366657220616d6f756e7420657863656564732062604482015265616c616e636560d01b6064820152608401610554565b6111f78282611d3f565b6001600160a01b03808616600090815260656020526040808220939093559085168152908120805484929061122d908490611cd9565b92505081905550826001600160a01b0316846001600160a01b03167fddf252ad1be2c89b69c2b068fc378daa952ba7f163c4a11628f55a4df523b3ef8460405161127991815260200190565b60405180910390a350505050565b60008082121580156112a257508261129f8382611db6565b13155b806112c057506000821280156112c05750826112be8382611db6565b135b6112c957600080fd5b6105238284611db6565b6001600160a01b0382166113295760405162461bcd60e51b815260206004820152601f60248201527f45524332303a206d696e7420746f20746865207a65726f2061646472657373006044820152606401610554565b806067600082825461133b9190611cd9565b90915550506001600160a01b03821660009081526065602052604081208054839290611368908490611cd9565b90915550506040518181526001600160a01b038316906000907fddf252ad1be2c89b69c2b068fc378daa952ba7f163c4a11628f55a4df523b3ef9060200160405180910390a35050565b6001600160a01b0382166114125760405162461bcd60e51b815260206004820152602160248201527f45524332303a206275726e2066726f6d20746865207a65726f206164647265736044820152607360f81b6064820152608401610554565b6001600160a01b038216600090815260656020526040902054818110156114865760405162461bcd60e51b815260206004820152602260248201527f45524332303a206275726e20616d6f756e7420657863656564732062616c616e604482015261636560f01b6064820152608401610554565b6114908282611d3f565b6001600160a01b038416600090815260656020526040812091909155606780548492906114be908490611d3f565b90915550506040518281526000906001600160a01b038516907fddf252ad1be2c89b69c2b068fc378daa952ba7f163c4a11628f55a4df523b3ef90602001610d02565b60006105238284611d3f565b600054610100900460ff1680611526575060005460ff16155b6115425760405162461bcd60e51b815260040161055490611cf1565b600054610100900460ff16158015610fc8576000805461ffff19166101011790558015610fda576000805461ff001916905550565b600054610100900460ff1680611590575060005460ff16155b6115ac5760405162461bcd60e51b815260040161055490611cf1565b600054610100900460ff161580156115ce576000805461ffff19166101011790555b603380546001600160a01b0319163390811790915560405181906000907f8be0079c531659141344cd1fd0a4f28419497f9722a3daafe3b4186f6b6457e0908290a3508015610fda576000805461ff001916905550565b600054610100900460ff168061163e575060005460ff16155b61165a5760405162461bcd60e51b815260040161055490611cf1565b600054610100900460ff1615801561167c576000805461ffff19166101011790555b825161168f906068906020860190611904565b5081516116a3906069906020850190611904565b508015611058576000805461ff0019169055505050565b600061170f826040518060400160405280602081526020017f5361666545524332303a206c6f772d6c6576656c2063616c6c206661696c6564815250856001600160a01b031661178c9092919063ffffffff16565b805190915015611058578080602001905181019061172d9190611df5565b6110585760405162461bcd60e51b815260206004820152602a60248201527f5361666545524332303a204552433230206f7065726174696f6e20646964206e6044820152691bdd081cdd58d8d9595960b21b6064820152608401610554565b606061179b84846000856117a3565b949350505050565b6060824710156118045760405162461bcd60e51b815260206004820152602660248201527f416464726573733a20696e73756666696369656e742062616c616e636520666f6044820152651c8818d85b1b60d21b6064820152608401610554565b843b6118525760405162461bcd60e51b815260206004820152601d60248201527f416464726573733a2063616c6c20746f206e6f6e2d636f6e74726163740000006044820152606401610554565b600080866001600160a01b0316858760405161186e9190611e17565b60006040518083038185875af1925050503d80600081146118ab576040519150601f19603f3d011682016040523d82523d6000602084013e6118b0565b606091505b50915091506118c08282866118cb565b979650505050505050565b606083156118da575081610523565b8251156118ea5782518084602001fd5b8160405162461bcd60e51b815260040161055491906119f2565b82805461191090611c6a565b90600052602060002090601f0160209004810192826119325760008555611978565b82601f1061194b57805160ff1916838001178555611978565b82800160010185558215611978579182015b8281111561197857825182559160200191906001019061195d565b50610b999291505b80821115610b995760008155600101611980565b6001600160a01b0381168114610fda57600080fd5b6000602082840312156119bb57600080fd5b813561052381611994565b60005b838110156119e15781810151838201526020016119c9565b838111156105d15750506000910152565b6020815260008251806020840152611a118160408501602087016119c6565b601f01601f19169190910160400192915050565b60008060408385031215611a3857600080fd5b8235611a4381611994565b946020939093013593505050565b600080600060608486031215611a6657600080fd5b8335611a7181611994565b92506020840135611a8181611994565b929592945050506040919091013590565b600080600060608486031215611aa757600080fd5b8335611ab281611994565b95602085013595506040909401359392505050565b600060208284031215611ad957600080fd5b5035919050565b634e487b7160e01b600052604160045260246000fd5b600082601f830112611b0757600080fd5b813567ffffffffffffffff80821115611b2257611b22611ae0565b604051601f8301601f19908116603f01168101908282118183101715611b4a57611b4a611ae0565b81604052838152866020858801011115611b6357600080fd5b836020870160208301376000602085830101528094505050505092915050565b600080600060608486031215611b9857600080fd5b8335611ba381611994565b9250602084013567ffffffffffffffff80821115611bc057600080fd5b611bcc87838801611af6565b93506040860135915080821115611be257600080fd5b50611bef86828701611af6565b9150509250925092565b60008060408385031215611c0c57600080fd5b8235611c1781611994565b91506020830135611c2781611994565b809150509250929050565b634e487b7160e01b600052601160045260246000fd5b600082611c6557634e487b7160e01b600052601260045260246000fd5b500490565b600181811c90821680611c7e57607f821691505b602082108103611c9e57634e487b7160e01b600052602260045260246000fd5b50919050565b6020808252818101527f4f776e61626c653a2063616c6c6572206973206e6f7420746865206f776e6572604082015260600190565b60008219821115611cec57611cec611c32565b500190565b6020808252602e908201527f496e697469616c697a61626c653a20636f6e747261637420697320616c72656160408201526d191e481a5b9a5d1a585b1a5e995960921b606082015260800190565b600082821015611d5157611d51611c32565b500390565b6000816000190483118215151615611d7057611d70611c32565b500290565b600080821280156001600160ff1b0384900385131615611d9757611d97611c32565b600160ff1b8390038412811615611db057611db0611c32565b50500190565b60008083128015600160ff1b850184121615611dd457611dd4611c32565b6001600160ff1b0384018313811615611def57611def611c32565b50500390565b600060208284031215611e0757600080fd5b8151801515811461052357600080fd5b60008251611e298184602087016119c6565b919091019291505056fe45524332303a207472616e7366657220616d6f756e74206578636565647320616c6c6f77616e6365a26469706673582212208e6da87de22f3dd1f2b266ff2b7105ae2b6b3ee86ce48657a57c83d63e4a894664736f6c634300080d0033a26469706673582212201407b4a1dcbe9f7d8d0b00153ad13d8997bbd81017a5a90dceef1ebfdffc60a864736f6c634300080d0033",
  "linkReferences": {},
  "deployedLinkReferences": {}
}