{
  "_format": "hh-sol-artifact-1",
  "contractName": "NFTXVaultFactoryUpgradeable2",
  "sourceName": "contracts/solidity/testing/NFTXVaultFactoryUpgradeable2.sol",
  "abi": [
    {
      "anonymous": false,
      "inputs": [
        {
          "indexed": false,
          "internalType": "uint256",
          "name": "vaultId",
          "type": "uint256"
        }
      ],
      "name": "DisableVaultFees",
      "type": "event"
    },
    {
      "anonymous": false,
      "inputs": [
        {
          "indexed": false,
          "internalType": "address",
          "name": "feeExcluded",
          "type": "address"
        },
        {
          "indexed": false,
          "internalType": "bool",
          "name": "excluded",
          "type": "bool"
        }
      ],
      "name": "FeeExclusion",
      "type": "event"
    },
    {
      "anonymous": false,
      "inputs": [
        {
          "indexed": false,
          "internalType": "address",
          "name": "oldEligManager",
          "type": "address"
        },
        {
          "indexed": false,
          "internalType": "address",
          "name": "newEligManager",
          "type": "address"
        }
      ],
      "name": "NewEligibilityManager",
      "type": "event"
    },
    {
      "anonymous": false,
      "inputs": [
        {
          "indexed": false,
          "internalType": "address",
          "name": "oldDistributor",
          "type": "address"
        },
        {
          "indexed": false,
          "internalType": "address",
          "name": "newDistributor",
          "type": "address"
        }
      ],
      "name": "NewFeeDistributor",
      "type": "event"
    },
    {
      "anonymous": false,
      "inputs": [
        {
          "indexed": true,
          "internalType": "uint256",
          "name": "vaultId",
          "type": "uint256"
        },
        {
          "indexed": false,
          "internalType": "address",
          "name": "vaultAddress",
          "type": "address"
        },
        {
          "indexed": false,
          "internalType": "address",
          "name": "assetAddress",
          "type": "address"
        }
      ],
      "name": "NewVault",
      "type": "event"
    },
    {
      "anonymous": false,
      "inputs": [
        {
          "indexed": false,
          "internalType": "address",
          "name": "oldZap",
          "type": "address"
        },
        {
          "indexed": false,
          "internalType": "address",
          "name": "newZap",
          "type": "address"
        }
      ],
      "name": "NewZapContract",
      "type": "event"
    },
    {
      "anonymous": false,
      "inputs": [
        {
          "indexed": true,
          "internalType": "address",
          "name": "previousOwner",
          "type": "address"
        },
        {
          "indexed": true,
          "internalType": "address",
          "name": "newOwner",
          "type": "address"
        }
      ],
      "name": "OwnershipTransferred",
      "type": "event"
    },
    {
      "anonymous": false,
      "inputs": [
        {
          "indexed": false,
          "internalType": "address",
          "name": "addr",
          "type": "address"
        },
        {
          "indexed": false,
          "internalType": "bool",
          "name": "isGuardian",
          "type": "bool"
        }
      ],
      "name": "SetIsGuardian",
      "type": "event"
    },
    {
      "anonymous": false,
      "inputs": [
        {
          "indexed": false,
          "internalType": "uint256",
          "name": "lockId",
          "type": "uint256"
        },
        {
          "indexed": false,
          "internalType": "bool",
          "name": "paused",
          "type": "bool"
        }
      ],
      "name": "SetPaused",
      "type": "event"
    },
    {
      "anonymous": false,
      "inputs": [
        {
          "indexed": false,
          "internalType": "uint256",
          "name": "mintFee",
          "type": "uint256"
        },
        {
          "indexed": false,
          "internalType": "uint256",
          "name": "randomRedeemFee",
          "type": "uint256"
        },
        {
          "indexed": false,
          "internalType": "uint256",
          "name": "targetRedeemFee",
          "type": "uint256"
        },
        {
          "indexed": false,
          "internalType": "uint256",
          "name": "randomSwapFee",
          "type": "uint256"
        },
        {
          "indexed": false,
          "internalType": "uint256",
          "name": "targetSwapFee",
          "type": "uint256"
        }
      ],
      "name": "UpdateFactoryFees",
      "type": "event"
    },
    {
      "anonymous": false,
      "inputs": [
        {
          "indexed": false,
          "internalType": "uint256",
          "name": "vaultId",
          "type": "uint256"
        },
        {
          "indexed": false,
          "internalType": "uint256",
          "name": "mintFee",
          "type": "uint256"
        },
        {
          "indexed": false,
          "internalType": "uint256",
          "name": "randomRedeemFee",
          "type": "uint256"
        },
        {
          "indexed": false,
          "internalType": "uint256",
          "name": "targetRedeemFee",
          "type": "uint256"
        },
        {
          "indexed": false,
          "internalType": "uint256",
          "name": "randomSwapFee",
          "type": "uint256"
        },
        {
          "indexed": false,
          "internalType": "uint256",
          "name": "targetSwapFee",
          "type": "uint256"
        }
      ],
      "name": "UpdateVaultFees",
      "type": "event"
    },
    {
      "anonymous": false,
      "inputs": [
        {
          "indexed": true,
          "internalType": "address",
          "name": "childImplementation",
          "type": "address"
        }
      ],
      "name": "Upgraded",
      "type": "event"
    },
    {
      "inputs": [
        {
          "internalType": "address",
          "name": "_vaultImpl",
          "type": "address"
        },
        {
          "internalType": "address",
          "name": "_feeDistributor",
          "type": "address"
        }
      ],
      "name": "__NFTXVaultFactory_init",
      "outputs": [],
      "stateMutability": "nonpayable",
      "type": "function"
    },
    {
      "inputs": [
        {
          "internalType": "address",
          "name": "childImplementation_",
          "type": "address"
        }
      ],
      "name": "__UpgradeableBeacon__init",
      "outputs": [],
      "stateMutability": "nonpayable",
      "type": "function"
    },
    {
      "inputs": [],
      "name": "allVaults",
      "outputs": [
        {
          "internalType": "address[]",
          "name": "",
          "type": "address[]"
        }
      ],
      "stateMutability": "view",
      "type": "function"
    },
    {
      "inputs": [],
      "name": "childImplementation",
      "outputs": [
        {
          "internalType": "address",
          "name": "",
          "type": "address"
        }
      ],
      "stateMutability": "view",
      "type": "function"
    },
    {
      "inputs": [
        {
          "internalType": "string",
          "name": "name",
          "type": "string"
        },
        {
          "internalType": "string",
          "name": "symbol",
          "type": "string"
        },
        {
          "internalType": "address",
          "name": "_assetAddress",
          "type": "address"
        },
        {
          "internalType": "bool",
          "name": "is1155",
          "type": "bool"
        },
        {
          "internalType": "bool",
          "name": "allowAllItems",
          "type": "bool"
        }
      ],
      "name": "createVault",
      "outputs": [
        {
          "internalType": "uint256",
          "name": "",
          "type": "uint256"
        }
      ],
      "stateMutability": "nonpayable",
      "type": "function"
    },
    {
      "inputs": [
        {
          "internalType": "uint256",
          "name": "vaultId",
          "type": "uint256"
        }
      ],
      "name": "disableVaultFees",
      "outputs": [],
      "stateMutability": "nonpayable",
      "type": "function"
    },
    {
      "inputs": [],
      "name": "eligibilityManager",
      "outputs": [
        {
          "internalType": "address",
          "name": "",
          "type": "address"
        }
      ],
      "stateMutability": "view",
      "type": "function"
    },
    {
      "inputs": [
        {
          "internalType": "address",
          "name": "",
          "type": "address"
        }
      ],
      "name": "excludedFromFees",
      "outputs": [
        {
          "internalType": "bool",
          "name": "",
          "type": "bool"
        }
      ],
      "stateMutability": "view",
      "type": "function"
    },
    {
      "inputs": [],
      "name": "factoryMintFee",
      "outputs": [
        {
          "internalType": "uint64",
          "name": "",
          "type": "uint64"
        }
      ],
      "stateMutability": "view",
      "type": "function"
    },
    {
      "inputs": [],
      "name": "factoryRandomRedeemFee",
      "outputs": [
        {
          "internalType": "uint64",
          "name": "",
          "type": "uint64"
        }
      ],
      "stateMutability": "view",
      "type": "function"
    },
    {
      "inputs": [],
      "name": "factoryRandomSwapFee",
      "outputs": [
        {
          "internalType": "uint64",
          "name": "",
          "type": "uint64"
        }
      ],
      "stateMutability": "view",
      "type": "function"
    },
    {
      "inputs": [],
      "name": "factoryTargetRedeemFee",
      "outputs": [
        {
          "internalType": "uint64",
          "name": "",
          "type": "uint64"
        }
      ],
      "stateMutability": "view",
      "type": "function"
    },
    {
      "inputs": [],
      "name": "factoryTargetSwapFee",
      "outputs": [
        {
          "internalType": "uint64",
          "name": "",
          "type": "uint64"
        }
      ],
      "stateMutability": "view",
      "type": "function"
    },
    {
      "inputs": [],
      "name": "feeDistributor",
      "outputs": [
        {
          "internalType": "address",
          "name": "",
          "type": "address"
        }
      ],
      "stateMutability": "view",
      "type": "function"
    },
    {
      "inputs": [
        {
          "internalType": "address",
          "name": "",
          "type": "address"
        }
      ],
      "name": "isGuardian",
      "outputs": [
        {
          "internalType": "bool",
          "name": "",
          "type": "bool"
        }
      ],
      "stateMutability": "view",
      "type": "function"
    },
    {
      "inputs": [
        {
          "internalType": "uint256",
          "name": "lockId",
          "type": "uint256"
        }
      ],
      "name": "isLocked",
      "outputs": [
        {
          "internalType": "bool",
          "name": "",
          "type": "bool"
        }
      ],
      "stateMutability": "view",
      "type": "function"
    },
    {
      "inputs": [
        {
          "internalType": "uint256",
          "name": "",
          "type": "uint256"
        }
      ],
      "name": "isPaused",
      "outputs": [
        {
          "internalType": "bool",
          "name": "",
          "type": "bool"
        }
      ],
      "stateMutability": "view",
      "type": "function"
    },
    {
      "inputs": [],
      "name": "numVaults",
      "outputs": [
        {
          "internalType": "uint256",
          "name": "",
          "type": "uint256"
        }
      ],
      "stateMutability": "view",
      "type": "function"
    },
    {
      "inputs": [
        {
          "internalType": "uint256",
          "name": "lockId",
          "type": "uint256"
        }
      ],
      "name": "onlyOwnerIfPaused",
      "outputs": [],
      "stateMutability": "view",
      "type": "function"
    },
    {
      "inputs": [],
      "name": "owner",
      "outputs": [
        {
          "internalType": "address",
          "name": "",
          "type": "address"
        }
      ],
      "stateMutability": "view",
      "type": "function"
    },
    {
      "inputs": [
        {
          "internalType": "uint256",
          "name": "lockId",
          "type": "uint256"
        }
      ],
      "name": "pause",
      "outputs": [],
      "stateMutability": "nonpayable",
      "type": "function"
    },
    {
      "inputs": [],
      "name": "renounceOwnership",
      "outputs": [],
      "stateMutability": "nonpayable",
      "type": "function"
    },
    {
      "inputs": [
        {
          "internalType": "address",
          "name": "_eligibilityManager",
          "type": "address"
        }
      ],
      "name": "setEligibilityManager",
      "outputs": [],
      "stateMutability": "nonpayable",
      "type": "function"
    },
    {
      "inputs": [
        {
          "internalType": "uint256",
          "name": "mintFee",
          "type": "uint256"
        },
        {
          "internalType": "uint256",
          "name": "randomRedeemFee",
          "type": "uint256"
        },
        {
          "internalType": "uint256",
          "name": "targetRedeemFee",
          "type": "uint256"
        },
        {
          "internalType": "uint256",
          "name": "randomSwapFee",
          "type": "uint256"
        },
        {
          "internalType": "uint256",
          "name": "targetSwapFee",
          "type": "uint256"
        }
      ],
      "name": "setFactoryFees",
      "outputs": [],
      "stateMutability": "nonpayable",
      "type": "function"
    },
    {
      "inputs": [
        {
          "internalType": "address",
          "name": "_feeDistributor",
          "type": "address"
        }
      ],
      "name": "setFeeDistributor",
      "outputs": [],
      "stateMutability": "nonpayable",
      "type": "function"
    },
    {
      "inputs": [
        {
          "internalType": "address",
          "name": "_excludedAddr",
          "type": "address"
        },
        {
          "internalType": "bool",
          "name": "excluded",
          "type": "bool"
        }
      ],
      "name": "setFeeExclusion",
      "outputs": [],
      "stateMutability": "nonpayable",
      "type": "function"
    },
    {
      "inputs": [
        {
          "internalType": "address",
          "name": "addr",
          "type": "address"
        },
        {
          "internalType": "bool",
          "name": "_isGuardian",
          "type": "bool"
        }
      ],
      "name": "setIsGuardian",
      "outputs": [],
      "stateMutability": "nonpayable",
      "type": "function"
    },
    {
      "inputs": [
        {
          "internalType": "uint256",
          "name": "vaultId",
          "type": "uint256"
        },
        {
          "internalType": "uint256",
          "name": "mintFee",
          "type": "uint256"
        },
        {
          "internalType": "uint256",
          "name": "randomRedeemFee",
          "type": "uint256"
        },
        {
          "internalType": "uint256",
          "name": "targetRedeemFee",
          "type": "uint256"
        },
        {
          "internalType": "uint256",
          "name": "randomSwapFee",
          "type": "uint256"
        },
        {
          "internalType": "uint256",
          "name": "targetSwapFee",
          "type": "uint256"
        }
      ],
      "name": "setVaultFees",
      "outputs": [],
      "stateMutability": "nonpayable",
      "type": "function"
    },
    {
      "inputs": [
        {
          "internalType": "address",
          "name": "_zapContract",
          "type": "address"
        }
      ],
      "name": "setZapContract",
      "outputs": [],
      "stateMutability": "nonpayable",
      "type": "function"
    },
    {
      "inputs": [
        {
          "internalType": "address",
          "name": "newOwner",
          "type": "address"
        }
      ],
      "name": "transferOwnership",
      "outputs": [],
      "stateMutability": "nonpayable",
      "type": "function"
    },
    {
      "inputs": [],
      "name": "twiceNumVaults",
      "outputs": [
        {
          "internalType": "uint256",
          "name": "",
          "type": "uint256"
        }
      ],
      "stateMutability": "view",
      "type": "function"
    },
    {
      "inputs": [
        {
          "internalType": "uint256",
          "name": "lockId",
          "type": "uint256"
        }
      ],
      "name": "unpause",
      "outputs": [],
      "stateMutability": "nonpayable",
      "type": "function"
    },
    {
      "inputs": [
        {
          "internalType": "address",
          "name": "newChildImplementation",
          "type": "address"
        }
      ],
      "name": "upgradeChildTo",
      "outputs": [],
      "stateMutability": "nonpayable",
      "type": "function"
    },
    {
      "inputs": [
        {
          "internalType": "uint256",
          "name": "vaultId",
          "type": "uint256"
        }
      ],
      "name": "vault",
      "outputs": [
        {
          "internalType": "address",
          "name": "",
          "type": "address"
        }
      ],
      "stateMutability": "view",
      "type": "function"
    },
    {
      "inputs": [
        {
          "internalType": "uint256",
          "name": "vaultId",
          "type": "uint256"
        }
      ],
      "name": "vaultFees",
      "outputs": [
        {
          "internalType": "uint256",
          "name": "",
          "type": "uint256"
        },
        {
          "internalType": "uint256",
          "name": "",
          "type": "uint256"
        },
        {
          "internalType": "uint256",
          "name": "",
          "type": "uint256"
        },
        {
          "internalType": "uint256",
          "name": "",
          "type": "uint256"
        },
        {
          "internalType": "uint256",
          "name": "",
          "type": "uint256"
        }
      ],
      "stateMutability": "view",
      "type": "function"
    },
    {
      "inputs": [
        {
          "internalType": "address",
          "name": "assetAddress",
          "type": "address"
        }
      ],
      "name": "vaultsForAsset",
      "outputs": [
        {
          "internalType": "address[]",
          "name": "",
          "type": "address[]"
        }
      ],
      "stateMutability": "view",
      "type": "function"
    },
    {
      "inputs": [],
      "name": "zapContract",
      "outputs": [
        {
          "internalType": "address",
          "name": "",
          "type": "address"
        }
      ],
      "stateMutability": "view",
      "type": "function"
    }
  ],
  "bytecode": "0x608060405234801561001057600080fd5b506129c6806100206000396000f3fe60806040523480156200001157600080fd5b5060043610620002555760003560e01c80637c77b6161162000149578063da52571611620000c7578063f60c07f41162000086578063f60c07f414620005c5578063f6aacfb114620005cf578063fabc1cbc14620005f5578063fc21c3f8146200060c578063fcaa8737146200062057600080fd5b8063da5257161462000548578063dbe66ca0146200055a578063e59560271462000580578063ef8658db1462000597578063f2fde38b14620005ae57600080fd5b80639b084d1b11620001145780639b084d1b14620004c95780639e1a882414620004e0578063bdf2a43c14620004f4578063c182f2b2146200051a578063ccfc2e8d146200053157600080fd5b80637c77b616146200047257806381a36fb614620004895780638da5cb5b14620004a057806390f434d814620004b257600080fd5b806323845fb511620001d75780633ec93d9c11620001a25780633ec93d9c146200040457806340f2d555146200041b5780636d1458461462000432578063715018a6146200044d5780637c0f44a2146200045757600080fd5b806323845fb514620003af5780632549dad914620003c6578063264a620814620003da57806330b94cd514620003ed57600080fd5b8063136439dd1162000224578063136439dd146200031457806314c77faa146200032d5780631f1713fc1462000341578063219962d2146200035857806322061379146200036f57600080fd5b8063063effeb146200025a57806309d25e79146200027c5780630c68ba2114620002b05780630d43e8ad14620002e7575b600080fd5b6200026462000637565b60405162000273919062001c6a565b60405180910390f35b6071546200029790600160801b90046001600160401b031681565b6040516001600160401b03909116815260200162000273565b620002d6620002c136600462001cd6565b60656020526000908152604090205460ff1681565b604051901515815260200162000273565b606a54620002fb906001600160a01b031681565b6040516001600160a01b03909116815260200162000273565b6200032b6200032536600462001cfb565b6200069b565b005b606b54620002fb906001600160a01b031681565b6200032b6200035236600462001cd6565b62000746565b6200032b6200036936600462001d15565b62000781565b620003866200038036600462001cfb565b62000abf565b604080519586526020860194909452928401919091526060830152608082015260a00162000273565b6200032b620003c036600462001d6a565b62000be0565b606954620002fb906001600160a01b031681565b606e545b60405190815260200162000273565b6200032b620003fe36600462001d6a565b62000c70565b6200032b6200041536600462001da2565b62000d0b565b6200032b6200042c36600462001cd6565b62000dd4565b6071546200029790600160c01b90046001600160401b031681565b6200032b62000e6a565b6071546200029790600160401b90046001600160401b031681565b6200032b6200048336600462001cfb565b62000ee1565b620002fb6200049a36600462001cfb565b62000f41565b6033546001600160a01b0316620002fb565b62000264620004c336600462001cd6565b62000f74565b6200032b620004da36600462001dd1565b62000fec565b60715462000297906001600160401b031681565b620002d66200050536600462001cfb565b60666020526000908152604090205460ff1681565b6200032b6200052b36600462001cfb565b620011b9565b6200032b6200054236600462001cd6565b6200129a565b6067546001600160a01b0316620002fb565b620002d66200056b36600462001cd6565b606f6020526000908152604090205460ff1681565b6200032b6200059136600462001cd6565b62001344565b620003de620005a836600462001eb7565b620013c2565b6200032b620005bf36600462001cd6565b620015d5565b620003de620016c5565b620002d6620005e036600462001cfb565b60009081526066602052604090205460ff1690565b6200032b6200060636600462001cfb565b620016dd565b60725462000297906001600160401b031681565b6200032b6200063136600462001cd6565b62001758565b6060606e8054806020026020016040519081016040528092919081815260200182805480156200069157602002820191906000526020600020905b81546001600160a01b0316815260019091019060200180831162000672575b5050505050905090565b3360009081526065602052604090205460ff16620006ee5760405162461bcd60e51b815260206004820152600b60248201526a43616e277420706175736560a81b60448201526064015b60405180910390fd5b600081815260666020908152604091829020805460ff191660019081179091558251848152918201527f77f1fcfcce67dc392d64f842056d2ec06c80986c47c910f7e79c5b23a2738d7491015b60405180910390a150565b6033546001600160a01b03163314620007735760405162461bcd60e51b8152600401620006e59062001f59565b6200077e81620017ee565b50565b6033546001600160a01b0316331462000807576000606e8781548110620007ac57620007ac62001f8e565b6000918252602090912001546001600160a01b03169050338114620008055760405162461bcd60e51b815260206004820152600e60248201526d139bdd08199c9bdb481d985d5b1d60921b6044820152606401620006e5565b505b6706f05b59d3b20000851115620008325760405162461bcd60e51b8152600401620006e59062001fa4565b6706f05b59d3b200008411156200085d5760405162461bcd60e51b8152600401620006e59062001fa4565b6706f05b59d3b20000831115620008885760405162461bcd60e51b8152600401620006e59062001fa4565b6706f05b59d3b20000821115620008b35760405162461bcd60e51b8152600401620006e59062001fa4565b6706f05b59d3b20000811115620008de5760405162461bcd60e51b8152600401620006e59062001fa4565b6040518060c00160405280600115158152602001866001600160401b03168152602001856001600160401b03168152602001846001600160401b03168152602001836001600160401b03168152602001826001600160401b03168152506070600088815260200190815260200160002060008201518160000160006101000a81548160ff02191690831515021790555060208201518160000160016101000a8154816001600160401b0302191690836001600160401b0316021790555060408201518160000160096101000a8154816001600160401b0302191690836001600160401b0316021790555060608201518160000160116101000a8154816001600160401b0302191690836001600160401b0316021790555060808201518160010160006101000a8154816001600160401b0302191690836001600160401b0316021790555060a08201518160010160086101000a8154816001600160401b0302191690836001600160401b031602179055509050507fd9ffbc90281646bcb01af117b3e6cd6ad280ffe01a9b09f6576155b4fa3f45c986868686868660405162000aaf96959493929190958652602086019490945260408501929092526060840152608083015260a082015260c00190565b60405180910390a1505050505050565b6000818152607060209081526040808320815160c081018352815460ff811615801583526001600160401b03610100830481169684019690965269010000000000000000008204861694830194909452600160881b9004841660608201526001909101548084166080830152600160401b900490921660a0830152829182918291829162000b9e5780602001516001600160401b031681604001516001600160401b031682606001516001600160401b031683608001516001600160401b03168460a001516001600160401b0316955095509550955095505062000bd7565b50506071546072546001600160401b038083169650600160401b830481169550600160801b830481169450600160c01b90920482169250165b91939590929450565b6033546001600160a01b0316331462000c0d5760405162461bcd60e51b8152600401620006e59062001f59565b6001600160a01b038216600081815260656020908152604091829020805460ff19168515159081179091558251938452908301527fd0b6b573d5442f7c29fd50d9735ae341581c25c6ed07748d50eda519f1ffa88a910160405180910390a15050565b6033546001600160a01b0316331462000c9d5760405162461bcd60e51b8152600401620006e59062001f59565b604080516001600160a01b038416815282151560208201527f7091fe081ceb2a09a20e86451ff5cba0b3ed3a6fc7fb6557147601a616459035910160405180910390a16001600160a01b03919091166000908152606f60205260409020805460ff1916911515919091179055565b600054610100900460ff168062000d25575060005460ff16155b62000d445760405162461bcd60e51b8152600401620006e59062001fd0565b600054610100900460ff1615801562000d67576000805461ffff19166101011790555b62000d71620018ae565b62000d7c8362001344565b62000d87826200129a565b62000dbc67016345785d8a000066b1a2bc2ec5000067016345785d8a000066b1a2bc2ec5000067016345785d8a000062000fec565b801562000dcf576000805461ff00191690555b505050565b6033546001600160a01b0316331462000e015760405162461bcd60e51b8152600401620006e59062001f59565b606b54604080516001600160a01b03928316815291831660208301527fdd1b73e02786644d6e9994c9d513f1058320c4ff857e1a76ded4c77f83ab3ea9910160405180910390a1606b80546001600160a01b0319166001600160a01b0392909216919091179055565b6033546001600160a01b0316331462000e975760405162461bcd60e51b8152600401620006e59062001f59565b6033546040516000916001600160a01b0316907f8be0079c531659141344cd1fd0a4f28419497f9722a3daafe3b4186f6b6457e0908390a3603380546001600160a01b0319169055565b60008181526066602052604090205460ff16158062000f0a57506033546001600160a01b031633145b6200077e5760405162461bcd60e51b815260206004820152600660248201526514185d5cd95960d21b6044820152606401620006e5565b6000606e828154811062000f595762000f5962001f8e565b6000918252602090912001546001600160a01b031692915050565b6001600160a01b0381166000908152606d602090815260409182902080548351818402810184019094528084526060939283018282801562000fe057602002820191906000526020600020905b81546001600160a01b0316815260019091019060200180831162000fc1575b50505050509050919050565b6033546001600160a01b03163314620010195760405162461bcd60e51b8152600401620006e59062001f59565b6706f05b59d3b20000851115620010445760405162461bcd60e51b8152600401620006e59062001fa4565b6706f05b59d3b200008411156200106f5760405162461bcd60e51b8152600401620006e59062001fa4565b6706f05b59d3b200008311156200109a5760405162461bcd60e51b8152600401620006e59062001fa4565b6706f05b59d3b20000821115620010c55760405162461bcd60e51b8152600401620006e59062001fa4565b6706f05b59d3b20000811115620010f05760405162461bcd60e51b8152600401620006e59062001fa4565b607180546001600160401b038781166001600160801b031990921691909117600160401b87831602176fffffffffffffffffffffffffffffffff16600160801b868316026001600160c01b031617600160c01b85831602179091556072805467ffffffffffffffff1916918316919091179055604080518681526020810186905290810184905260608101839052608081018290527f5ece4b6d3e9829ead7e8adb5ab3a10f91b8547a80e9e96264fc5fe012f10937a9060a00160405180910390a15050505050565b6033546001600160a01b031633146200123a576000606e8281548110620011e457620011e462001f8e565b6000918252602090912001546001600160a01b03169050338114620012385760405162461bcd60e51b8152602060048201526009602482015268139bdd081d985d5b1d60ba1b6044820152606401620006e5565b505b6000818152607060205260409081902080546001600160c81b031916815560010180546001600160801b0319169055517f52fa46cefef72586d9ef48406d9aa3772833013b97e06ad9bbb4f812b105aa68906200073b9083815260200190565b6033546001600160a01b03163314620012c75760405162461bcd60e51b8152600401620006e59062001f59565b6001600160a01b038116620012db57600080fd5b606a54604080516001600160a01b03928316815291831660208301527ff50858c0e53e1daa79884af03c6b676de789362564e7c27ff542914c0b513ea7910160405180910390a1606a80546001600160a01b0319166001600160a01b0392909216919091179055565b600054610100900460ff16806200135e575060005460ff16155b6200137d5760405162461bcd60e51b8152600401620006e59062001fd0565b600054610100900460ff16158015620013a0576000805461ffff19166101011790555b620013ab82620017ee565b8015620013be576000805461ff00191690555b5050565b6000620013d0600062000ee1565b606a546001600160a01b03166200142a5760405162461bcd60e51b815260206004820152601860248201527f4e4654583a2046656520726563656976657220756e73657400000000000000006044820152606401620006e5565b60006200143f6067546001600160a01b031690565b6001600160a01b031603620014975760405162461bcd60e51b815260206004820181905260248201527f4e4654583a205661756c7420696d706c656d656e746174696f6e20756e7365746044820152606401620006e5565b6000620014a8878787878762001929565b606e80546001600160a01b038881166000908152606d6020908152604080832080546001808201835591855292842090920180548886166001600160a01b0319918216811790925587549384018855969093527f9930d9ff0dee0ef5ca2f7710ea66b8f84dd0f5f5351ecffe72b952cd9db7142a9091018054909516909117909355606a549251630674f4a960e21b81526004810183905293945090929116906319d3d2a490602401600060405180830381600087803b1580156200156c57600080fd5b505af115801562001581573d6000803e3d6000fd5b5050604080516001600160a01b0380871682528a1660208201528493507fb94e8fc8ad4a054390a833a774eabcd7c0547c9a62d1fafb5c54dd761c6f0aac92500160405180910390a2979650505050505050565b6033546001600160a01b03163314620016025760405162461bcd60e51b8152600401620006e59062001f59565b6001600160a01b038116620016695760405162461bcd60e51b815260206004820152602660248201527f4f776e61626c653a206e6577206f776e657220697320746865207a65726f206160448201526564647265737360d01b6064820152608401620006e5565b6033546040516001600160a01b038084169216907f8be0079c531659141344cd1fd0a4f28419497f9722a3daafe3b4186f6b6457e090600090a3603380546001600160a01b0319166001600160a01b0392909216919091179055565b606e54600090620016d89060026200201e565b905090565b6033546001600160a01b031633146200170a5760405162461bcd60e51b8152600401620006e59062001f59565b6000818152606660209081526040808320805460ff191690558051848152918201929092527f77f1fcfcce67dc392d64f842056d2ec06c80986c47c910f7e79c5b23a2738d7491016200073b565b6033546001600160a01b03163314620017855760405162461bcd60e51b8152600401620006e59062001f59565b606954604080516001600160a01b03928316815291831660208301527fd15026dcb7cbc5e2eea1bcdb50ace689a683d996a4afc44fc48644ab1eb22540910160405180910390a1606980546001600160a01b0319166001600160a01b0392909216919091179055565b803b620018645760405162461bcd60e51b815260206004820152603960248201527f5570677261646561626c65426561636f6e3a206368696c6420696d706c656d6560448201527f6e746174696f6e206973206e6f74206120636f6e7472616374000000000000006064820152608401620006e5565b606780546001600160a01b0319166001600160a01b0383169081179091556040517fbc7cd75a20ee27fd9adebab32041f755214dbc6bffa90cc0225b39da2e5c2d3b90600090a250565b600054610100900460ff1680620018c8575060005460ff16155b620018e75760405162461bcd60e51b8152600401620006e59062001fd0565b600054610100900460ff161580156200190a576000805461ffff19166101011790555b6200191462001ac8565b80156200077e576000805461ff001916905550565b600080306040516200193b9062001c5c565b6001600160a01b039091168152604060208201819052600090820152606001604051809103906000f08015801562001977573d6000803e3d6000fd5b506040516339e1163160e21b81529091506001600160a01b0382169063e78458c490620019b1908a908a908a908a908a906004016200209c565b600060405180830381600087803b158015620019cc57600080fd5b505af1158015620019e1573d6000803e3d6000fd5b505060405163d0ebdbe760e01b81523360048201526001600160a01b038416925063d0ebdbe79150602401600060405180830381600087803b15801562001a2757600080fd5b505af115801562001a3c573d6000803e3d6000fd5b50505050806001600160a01b031663f2fde38b62001a626033546001600160a01b031690565b6040516001600160e01b031960e084901b1681526001600160a01b039091166004820152602401600060405180830381600087803b15801562001aa457600080fd5b505af115801562001ab9573d6000803e3d6000fd5b50929998505050505050505050565b600054610100900460ff168062001ae2575060005460ff16155b62001b015760405162461bcd60e51b8152600401620006e59062001fd0565b600054610100900460ff1615801562001b24576000805461ffff19166101011790555b62001b2e62001b38565b6200191462001ba8565b600054610100900460ff168062001b52575060005460ff16155b62001b715760405162461bcd60e51b8152600401620006e59062001fd0565b600054610100900460ff1615801562001914576000805461ffff191661010117905580156200077e576000805461ff001916905550565b600054610100900460ff168062001bc2575060005460ff16155b62001be15760405162461bcd60e51b8152600401620006e59062001fd0565b600054610100900460ff1615801562001c04576000805461ffff19166101011790555b603380546001600160a01b0319163390811790915560405181906000907f8be0079c531659141344cd1fd0a4f28419497f9722a3daafe3b4186f6b6457e0908290a35080156200077e576000805461ff001916905550565b6108a280620020ef83390190565b6020808252825182820181905260009190848201906040850190845b8181101562001cad5783516001600160a01b03168352928401929184019160010162001c86565b50909695505050505050565b80356001600160a01b038116811462001cd157600080fd5b919050565b60006020828403121562001ce957600080fd5b62001cf48262001cb9565b9392505050565b60006020828403121562001d0e57600080fd5b5035919050565b60008060008060008060c0878903121562001d2f57600080fd5b505084359660208601359650604086013595606081013595506080810135945060a0013592509050565b8035801515811462001cd157600080fd5b6000806040838503121562001d7e57600080fd5b62001d898362001cb9565b915062001d996020840162001d59565b90509250929050565b6000806040838503121562001db657600080fd5b62001dc18362001cb9565b915062001d996020840162001cb9565b600080600080600060a0868803121562001dea57600080fd5b505083359560208501359550604085013594606081013594506080013592509050565b634e487b7160e01b600052604160045260246000fd5b600082601f83011262001e3557600080fd5b81356001600160401b038082111562001e525762001e5262001e0d565b604051601f8301601f19908116603f0116810190828211818310171562001e7d5762001e7d62001e0d565b8160405283815286602085880101111562001e9757600080fd5b836020870160208301376000602085830101528094505050505092915050565b600080600080600060a0868803121562001ed057600080fd5b85356001600160401b038082111562001ee857600080fd5b62001ef689838a0162001e23565b9650602088013591508082111562001f0d57600080fd5b5062001f1c8882890162001e23565b94505062001f2d6040870162001cb9565b925062001f3d6060870162001d59565b915062001f4d6080870162001d59565b90509295509295909350565b6020808252818101527f4f776e61626c653a2063616c6c6572206973206e6f7420746865206f776e6572604082015260600190565b634e487b7160e01b600052603260045260246000fd5b60208082526012908201527121b0b73737ba101f1018171a9032ba3432b960711b604082015260600190565b6020808252602e908201527f496e697469616c697a61626c653a20636f6e747261637420697320616c72656160408201526d191e481a5b9a5d1a585b1a5e995960921b606082015260800190565b60008160001904831182151516156200204757634e487b7160e01b600052601160045260246000fd5b500290565b6000815180845260005b81811015620020745760208185018101518683018201520162002056565b8181111562002087576000602083870101525b50601f01601f19169290920160200192915050565b60a081526000620020b160a08301886200204c565b8281036020840152620020c581886200204c565b6001600160a01b039690961660408401525050911515606083015215156080909101529291505056fe60806040526040516108a23803806108a283398101604081905261002291610418565b61004d60017fa3f0ad74e5423aebfd80d3ef4346578335a9a72aeaee59ff6cb3582b35133d516104d8565b60008051602061086183398151915214610069576100696104fd565b610073828261007a565b505061057d565b61008d8261022660201b6100291760201c565b6100ec5760405162461bcd60e51b815260206004820152602560248201527f426561636f6e50726f78793a20626561636f6e206973206e6f74206120636f6e6044820152641d1c9858dd60da1b60648201526084015b60405180910390fd5b610160826001600160a01b031663da5257166040518163ffffffff1660e01b8152600401602060405180830381865afa15801561012d573d6000803e3d6000fd5b505050506040513d601f19601f820116820180604052508101906101519190610513565b61022660201b6100291760201c565b6101d25760405162461bcd60e51b815260206004820152603460248201527f426561636f6e50726f78793a20626561636f6e20696d706c656d656e7461746960448201527f6f6e206973206e6f74206120636f6e747261637400000000000000000000000060648201526084016100e3565b6000805160206108618339815191528281558151156102215761021f6101f661022c565b83604051806060016040528060218152602001610881602191396102aa60201b61002f1760201c565b505b505050565b3b151590565b60006102446000805160206108618339815191525490565b6001600160a01b031663da5257166040518163ffffffff1660e01b8152600401602060405180830381865afa158015610281573d6000803e3d6000fd5b505050506040513d601f19601f820116820180604052508101906102a59190610513565b905090565b6060833b6103095760405162461bcd60e51b815260206004820152602660248201527f416464726573733a2064656c65676174652063616c6c20746f206e6f6e2d636f6044820152651b9d1c9858dd60d21b60648201526084016100e3565b600080856001600160a01b031685604051610324919061052e565b600060405180830381855af49150503d806000811461035f576040519150601f19603f3d011682016040523d82523d6000602084013e610364565b606091505b509092509050610375828286610381565b925050505b9392505050565b6060831561039057508161037a565b8251156103a05782518084602001fd5b8160405162461bcd60e51b81526004016100e3919061054a565b80516001600160a01b03811681146103d157600080fd5b919050565b634e487b7160e01b600052604160045260246000fd5b60005b838110156104075781810151838201526020016103ef565b8381111561021f5750506000910152565b6000806040838503121561042b57600080fd5b610434836103ba565b60208401519092506001600160401b038082111561045157600080fd5b818501915085601f83011261046557600080fd5b815181811115610477576104776103d6565b604051601f8201601f19908116603f0116810190838211818310171561049f5761049f6103d6565b816040528281528860208487010111156104b857600080fd5b6104c98360208301602088016103ec565b80955050505050509250929050565b6000828210156104f857634e487b7160e01b600052601160045260246000fd5b500390565b634e487b7160e01b600052600160045260246000fd5b60006020828403121561052557600080fd5b61037a826103ba565b600082516105408184602087016103ec565b9190910192915050565b60208152600082518060208401526105698160408501602087016103ec565b601f01601f19169190910160400192915050565b6102d58061058c6000396000f3fe60806040523661001357610011610017565b005b6100115b61002761002261010a565b61019a565b565b3b151590565b6060833b6100935760405162461bcd60e51b815260206004820152602660248201527f416464726573733a2064656c65676174652063616c6c20746f206e6f6e2d636f6044820152651b9d1c9858dd60d21b60648201526084015b60405180910390fd5b600080856001600160a01b0316856040516100ae9190610227565b600060405180830381855af49150503d80600081146100e9576040519150601f19603f3d011682016040523d82523d6000602084013e6100ee565b606091505b50915091506100fe8282866101be565b925050505b9392505050565b60006101347fa3f0ad74e5423aebfd80d3ef4346578335a9a72aeaee59ff6cb3582b35133d505490565b6001600160a01b031663da5257166040518163ffffffff1660e01b8152600401602060405180830381865afa158015610171573d6000803e3d6000fd5b505050506040513d601f19601f820116820180604052508101906101959190610243565b905090565b3660008037600080366000845af43d6000803e8080156101b9573d6000f35b3d6000fd5b606083156101cd575081610103565b8251156101dd5782518084602001fd5b8160405162461bcd60e51b815260040161008a919061026c565b60005b838110156102125781810151838201526020016101fa565b83811115610221576000848401525b50505050565b600082516102398184602087016101f7565b9190910192915050565b60006020828403121561025557600080fd5b81516001600160a01b038116811461010357600080fd5b602081526000825180602084015261028b8160408501602087016101f7565b601f01601f1916919091016040019291505056fea264697066735822122039a948046df4459ae3df581aecce42d607339220f2f5a6b803bf52ebfe6bf64664736f6c634300080d0033a3f0ad74e5423aebfd80d3ef4346578335a9a72aeaee59ff6cb3582b35133d50426561636f6e50726f78793a2066756e6374696f6e2063616c6c206661696c6564a2646970667358221220862ae88aee9190458534c1bd5bfcd7ef1f8082bc8cb80e252051eef37eeae4c364736f6c634300080d0033",
  "linkReferences": {},
  "deployedLinkReferences": {}
}