{
  "_format": "hh-sol-artifact-1",
  "contractName": "DummyXToken",
  "sourceName": "contracts/solidity/testing/DummyXToken.sol",
  "abi": [
    {
      "inputs": [],
      "stateMutability": "nonpayable",
      "type": "constructor"
    },
    {
      "anonymous": false,
      "inputs": [
        {
          "indexed": true,
          "internalType": "address",
          "name": "owner",
          "type": "address"
        },
        {
          "indexed": true,
          "internalType": "address",
          "name": "spender",
          "type": "address"
        },
        {
          "indexed": false,
          "internalType": "uint256",
          "name": "value",
          "type": "uint256"
        }
      ],
      "name": "Approval",
      "type": "event"
    },
    {
      "anonymous": false,
      "inputs": [
        {
          "indexed": true,
          "internalType": "address",
          "name": "from",
          "type": "address"
        },
        {
          "indexed": true,
          "internalType": "address",
          "name": "to",
          "type": "address"
        },
        {
          "indexed": false,
          "internalType": "uint256",
          "name": "value",
          "type": "uint256"
        }
      ],
      "name": "Transfer",
      "type": "event"
    },
    {
      "inputs": [
        {
          "internalType": "address",
          "name": "owner",
          "type": "address"
        },
        {
          "internalType": "address",
          "name": "spender",
          "type": "address"
        }
      ],
      "name": "allowance",
      "outputs": [
        {
          "internalType": "uint256",
          "name": "",
          "type": "uint256"
        }
      ],
      "stateMutability": "view",
      "type": "function"
    },
    {
      "inputs": [
        {
          "internalType": "address",
          "name": "spender",
          "type": "address"
        },
        {
          "internalType": "uint256",
          "name": "amount",
          "type": "uint256"
        }
      ],
      "name": "approve",
      "outputs": [
        {
          "internalType": "bool",
          "name": "",
          "type": "bool"
        }
      ],
      "stateMutability": "nonpayable",
      "type": "function"
    },
    {
      "inputs": [
        {
          "internalType": "address",
          "name": "account",
          "type": "address"
        }
      ],
      "name": "balanceOf",
      "outputs": [
        {
          "internalType": "uint256",
          "name": "",
          "type": "uint256"
        }
      ],
      "stateMutability": "view",
      "type": "function"
    },
    {
      "inputs": [
        {
          "internalType": "address",
          "name": "account",
          "type": "address"
        },
        {
          "internalType": "uint256",
          "name": "amount",
          "type": "uint256"
        }
      ],
      "name": "burnFrom",
      "outputs": [],
      "stateMutability": "nonpayable",
      "type": "function"
    },
    {
      "inputs": [],
      "name": "decimals",
      "outputs": [
        {
          "internalType": "uint8",
          "name": "",
          "type": "uint8"
        }
      ],
      "stateMutability": "view",
      "type": "function"
    },
    {
      "inputs": [
        {
          "internalType": "address",
          "name": "spender",
          "type": "address"
        },
        {
          "internalType": "uint256",
          "name": "subtractedValue",
          "type": "uint256"
        }
      ],
      "name": "decreaseAllowance",
      "outputs": [
        {
          "internalType": "bool",
          "name": "",
          "type": "bool"
        }
      ],
      "stateMutability": "nonpayable",
      "type": "function"
    },
    {
      "inputs": [
        {
          "internalType": "address",
          "name": "spender",
          "type": "address"
        },
        {
          "internalType": "uint256",
          "name": "addedValue",
          "type": "uint256"
        }
      ],
      "name": "increaseAllowance",
      "outputs": [
        {
          "internalType": "bool",
          "name": "",
          "type": "bool"
        }
      ],
      "stateMutability": "nonpayable",
      "type": "function"
    },
    {
      "inputs": [
        {
          "internalType": "address",
          "name": "account",
          "type": "address"
        },
        {
          "internalType": "uint256",
          "name": "amount",
          "type": "uint256"
        }
      ],
      "name": "mint",
      "outputs": [],
      "stateMutability": "nonpayable",
      "type": "function"
    },
    {
      "inputs": [],
      "name": "name",
      "outputs": [
        {
          "internalType": "string",
          "name": "",
          "type": "string"
        }
      ],
      "stateMutability": "view",
      "type": "function"
    },
    {
      "inputs": [],
      "name": "symbol",
      "outputs": [
        {
          "internalType": "string",
          "name": "",
          "type": "string"
        }
      ],
      "stateMutability": "view",
      "type": "function"
    },
    {
      "inputs": [],
      "name": "totalSupply",
      "outputs": [
        {
          "internalType": "uint256",
          "name": "",
          "type": "uint256"
        }
      ],
      "stateMutability": "view",
      "type": "function"
    },
    {
      "inputs": [
        {
          "internalType": "address",
          "name": "recipient",
          "type": "address"
        },
        {
          "internalType": "uint256",
          "name": "amount",
          "type": "uint256"
        }
      ],
      "name": "transfer",
      "outputs": [
        {
          "internalType": "bool",
          "name": "",
          "type": "bool"
        }
      ],
      "stateMutability": "nonpayable",
      "type": "function"
    },
    {
      "inputs": [
        {
          "internalType": "address",
          "name": "sender",
          "type": "address"
        },
        {
          "internalType": "address",
          "name": "recipient",
          "type": "address"
        },
        {
          "internalType": "uint256",
          "name": "amount",
          "type": "uint256"
        }
      ],
      "name": "transferFrom",
      "outputs": [
        {
          "internalType": "bool",
          "name": "",
          "type": "bool"
        }
      ],
      "stateMutability": "nonpayable",
      "type": "function"
    }
  ],
  "bytecode": "0x60806040523480156200001157600080fd5b506200006060405180604001604052806006815260200165414d4f47555360d01b81525060405180604001604052806006815260200165414d4f47555360d01b8152506200006660201b60201c565b62000386565b600054610100900460ff168062000080575060005460ff16155b620000d85760405162461bcd60e51b815260206004820152602e602482015260008051602062000fa583398151915260448201526d191e481a5b9a5d1a585b1a5e995960921b60648201526084015b60405180910390fd5b600054610100900460ff16158015620000fb576000805461ffff19166101011790555b6200010562000129565b620001118383620001d0565b801562000124576000805461ff00191690555b505050565b600054610100900460ff168062000143575060005460ff16155b620001975760405162461bcd60e51b815260206004820152602e602482015260008051602062000fa583398151915260448201526d191e481a5b9a5d1a585b1a5e995960921b6064820152608401620000cf565b600054610100900460ff16158015620001ba576000805461ffff19166101011790555b8015620001cd576000805461ff00191690555b50565b600054610100900460ff1680620001ea575060005460ff16155b6200023e5760405162461bcd60e51b815260206004820152602e602482015260008051602062000fa583398151915260448201526d191e481a5b9a5d1a585b1a5e995960921b6064820152608401620000cf565b600054610100900460ff1615801562000261576000805461ffff19166101011790555b825162000276906036906020860190620002a4565b5081516200028c906037906020850190620002a4565b50801562000124576000805461ff0019169055505050565b828054620002b2906200034a565b90600052602060002090601f016020900481019282620002d6576000855562000321565b82601f10620002f157805160ff191683800117855562000321565b8280016001018555821562000321579182015b828111156200032157825182559160200191906001019062000304565b506200032f92915062000333565b5090565b5b808211156200032f576000815560010162000334565b600181811c908216806200035f57607f821691505b6020821081036200038057634e487b7160e01b600052602260045260246000fd5b50919050565b610c0f80620003966000396000f3fe608060405234801561001057600080fd5b50600436106100cf5760003560e01c806340c10f191161008c57806395d89b411161006657806395d89b41146101ad578063a457c2d7146101b5578063a9059cbb146101c8578063dd62ed3e146101db57600080fd5b806340c10f191461015c57806370a082311461017157806379cc67901461019a57600080fd5b806306fdde03146100d4578063095ea7b3146100f257806318160ddd1461011557806323b872dd14610127578063313ce5671461013a5780633950935114610149575b600080fd5b6100dc610214565b6040516100e99190610a2e565b60405180910390f35b610105610100366004610a9f565b6102a6565b60405190151581526020016100e9565b6035545b6040519081526020016100e9565b610105610135366004610ac9565b6102bc565b604051601281526020016100e9565b610105610157366004610a9f565b610372565b61016f61016a366004610a9f565b6103a9565b005b61011961017f366004610b05565b6001600160a01b031660009081526033602052604090205490565b61016f6101a8366004610a9f565b6103b7565b6100dc61044c565b6101056101c3366004610a9f565b61045b565b6101056101d6366004610a9f565b6104f6565b6101196101e9366004610b27565b6001600160a01b03918216600090815260346020908152604080832093909416825291909152205490565b60606036805461022390610b5a565b80601f016020809104026020016040519081016040528092919081815260200182805461024f90610b5a565b801561029c5780601f106102715761010080835404028352916020019161029c565b820191906000526020600020905b81548152906001019060200180831161027f57829003601f168201915b5050505050905090565b60006102b3338484610503565b50600192915050565b60006102c9848484610628565b6001600160a01b0384166000908152603460209081526040808320338452909152902054828110156103535760405162461bcd60e51b815260206004820152602860248201527f45524332303a207472616e7366657220616d6f756e74206578636565647320616044820152676c6c6f77616e636560c01b60648201526084015b60405180910390fd5b61036785336103628685610baa565b610503565b506001949350505050565b3360008181526034602090815260408083206001600160a01b038716845290915281205490916102b3918590610362908690610bc1565b6103b38282610800565b5050565b6001600160a01b0382166000908152603460209081526040808320338452909152902054808211156104235760405162461bcd60e51b815260206004820152601560248201527427379030b63637bbb0b731b2903337b910313ab93760591b604482015260640161034a565b600061042f8383610baa565b905061043c843383610503565b61044684846108df565b50505050565b60606037805461022390610b5a565b3360009081526034602090815260408083206001600160a01b0386168452909152812054828110156104dd5760405162461bcd60e51b815260206004820152602560248201527f45524332303a2064656372656173656420616c6c6f77616e63652062656c6f77604482015264207a65726f60d81b606482015260840161034a565b6104ec33856103628685610baa565b5060019392505050565b60006102b3338484610628565b6001600160a01b0383166105655760405162461bcd60e51b8152602060048201526024808201527f45524332303a20617070726f76652066726f6d20746865207a65726f206164646044820152637265737360e01b606482015260840161034a565b6001600160a01b0382166105c65760405162461bcd60e51b815260206004820152602260248201527f45524332303a20617070726f766520746f20746865207a65726f206164647265604482015261737360f01b606482015260840161034a565b6001600160a01b0383811660008181526034602090815260408083209487168084529482529182902085905590518481527f8c5be1e5ebec7d5bd14f71427d1e84f3dd0314c0f7b2291e5b200ac8c7c3b92591015b60405180910390a3505050565b6001600160a01b03831661068c5760405162461bcd60e51b815260206004820152602560248201527f45524332303a207472616e736665722066726f6d20746865207a65726f206164604482015264647265737360d81b606482015260840161034a565b6001600160a01b0382166106ee5760405162461bcd60e51b815260206004820152602360248201527f45524332303a207472616e7366657220746f20746865207a65726f206164647260448201526265737360e81b606482015260840161034a565b6001600160a01b038316600090815260336020526040902054818110156107665760405162461bcd60e51b815260206004820152602660248201527f45524332303a207472616e7366657220616d6f756e7420657863656564732062604482015265616c616e636560d01b606482015260840161034a565b6107708282610baa565b6001600160a01b0380861660009081526033602052604080822093909355908516815290812080548492906107a6908490610bc1565b92505081905550826001600160a01b0316846001600160a01b03167fddf252ad1be2c89b69c2b068fc378daa952ba7f163c4a11628f55a4df523b3ef846040516107f291815260200190565b60405180910390a350505050565b6001600160a01b0382166108565760405162461bcd60e51b815260206004820152601f60248201527f45524332303a206d696e7420746f20746865207a65726f206164647265737300604482015260640161034a565b80603560008282546108689190610bc1565b90915550506001600160a01b03821660009081526033602052604081208054839290610895908490610bc1565b90915550506040518181526001600160a01b038316906000907fddf252ad1be2c89b69c2b068fc378daa952ba7f163c4a11628f55a4df523b3ef9060200160405180910390a35050565b6001600160a01b03821661093f5760405162461bcd60e51b815260206004820152602160248201527f45524332303a206275726e2066726f6d20746865207a65726f206164647265736044820152607360f81b606482015260840161034a565b6001600160a01b038216600090815260336020526040902054818110156109b35760405162461bcd60e51b815260206004820152602260248201527f45524332303a206275726e20616d6f756e7420657863656564732062616c616e604482015261636560f01b606482015260840161034a565b6109bd8282610baa565b6001600160a01b038416600090815260336020526040812091909155603580548492906109eb908490610baa565b90915550506040518281526000906001600160a01b038516907fddf252ad1be2c89b69c2b068fc378daa952ba7f163c4a11628f55a4df523b3ef9060200161061b565b600060208083528351808285015260005b81811015610a5b57858101830151858201604001528201610a3f565b81811115610a6d576000604083870101525b50601f01601f1916929092016040019392505050565b80356001600160a01b0381168114610a9a57600080fd5b919050565b60008060408385031215610ab257600080fd5b610abb83610a83565b946020939093013593505050565b600080600060608486031215610ade57600080fd5b610ae784610a83565b9250610af560208501610a83565b9150604084013590509250925092565b600060208284031215610b1757600080fd5b610b2082610a83565b9392505050565b60008060408385031215610b3a57600080fd5b610b4383610a83565b9150610b5160208401610a83565b90509250929050565b600181811c90821680610b6e57607f821691505b602082108103610b8e57634e487b7160e01b600052602260045260246000fd5b50919050565b634e487b7160e01b600052601160045260246000fd5b600082821015610bbc57610bbc610b94565b500390565b60008219821115610bd457610bd4610b94565b50019056fea2646970667358221220929d6112608316681cee91632b5964c5ea27d6627eb118cf193ddad43c5f0e2364736f6c634300080d0033496e697469616c697a61626c653a20636f6e747261637420697320616c726561",
  "linkReferences": {},
  "deployedLinkReferences": {}
}