{
  "_format": "hh-sol-artifact-1",
  "contractName": "NFTXDenyEligibility",
  "sourceName": "contracts/solidity/eligibility/NFTXDenyEligibility.sol",
  "abi": [
    {
      "anonymous": false,
      "inputs": [
        {
          "indexed": false,
          "internalType": "address",
          "name": "owner",
          "type": "address"
        },
        {
          "indexed": false,
          "internalType": "address",
          "name": "vault",
          "type": "address"
        },
        {
          "indexed": false,
          "internalType": "bool",
          "name": "negateElig",
          "type": "bool"
        },
        {
          "indexed": false,
          "internalType": "bool",
          "name": "finalize",
          "type": "bool"
        },
        {
          "indexed": false,
          "internalType": "uint256[]",
          "name": "tokenIds",
          "type": "uint256[]"
        }
      ],
      "name": "NFTXEligibilityInit",
      "type": "event"
    },
    {
      "anonymous": false,
      "inputs": [
        {
          "indexed": true,
          "internalType": "address",
          "name": "previousOwner",
          "type": "address"
        },
        {
          "indexed": true,
          "internalType": "address",
          "name": "newOwner",
          "type": "address"
        }
      ],
      "name": "OwnershipTransferred",
      "type": "event"
    },
    {
      "anonymous": false,
      "inputs": [
        {
          "indexed": false,
          "internalType": "uint256[]",
          "name": "tokenIds",
          "type": "uint256[]"
        },
        {
          "indexed": false,
          "internalType": "bool",
          "name": "isEligible",
          "type": "bool"
        }
      ],
      "name": "UniqueEligibilitiesSet",
      "type": "event"
    },
    {
      "anonymous": false,
      "inputs": [
        {
          "indexed": false,
          "internalType": "bool",
          "name": "negateElig",
          "type": "bool"
        }
      ],
      "name": "negateEligilityOnRedeemSet",
      "type": "event"
    },
    {
      "inputs": [
        {
          "internalType": "address",
          "name": "_owner",
          "type": "address"
        },
        {
          "internalType": "address",
          "name": "_vault",
          "type": "address"
        },
        {
          "internalType": "bool",
          "name": "negateElig",
          "type": "bool"
        },
        {
          "internalType": "bool",
          "name": "finalize",
          "type": "bool"
        },
        {
          "internalType": "uint256[]",
          "name": "tokenIds",
          "type": "uint256[]"
        }
      ],
      "name": "__NFTXEligibility_init",
      "outputs": [],
      "stateMutability": "nonpayable",
      "type": "function"
    },
    {
      "inputs": [
        {
          "internalType": "bytes",
          "name": "_configData",
          "type": "bytes"
        }
      ],
      "name": "__NFTXEligibility_init_bytes",
      "outputs": [],
      "stateMutability": "nonpayable",
      "type": "function"
    },
    {
      "inputs": [
        {
          "internalType": "uint256[]",
          "name": "tokenIds",
          "type": "uint256[]"
        }
      ],
      "name": "afterMintHook",
      "outputs": [],
      "stateMutability": "nonpayable",
      "type": "function"
    },
    {
      "inputs": [
        {
          "internalType": "uint256[]",
          "name": "tokenIds",
          "type": "uint256[]"
        }
      ],
      "name": "afterRedeemHook",
      "outputs": [],
      "stateMutability": "nonpayable",
      "type": "function"
    },
    {
      "inputs": [
        {
          "internalType": "uint256[]",
          "name": "tokenIds",
          "type": "uint256[]"
        }
      ],
      "name": "beforeMintHook",
      "outputs": [],
      "stateMutability": "nonpayable",
      "type": "function"
    },
    {
      "inputs": [
        {
          "internalType": "uint256[]",
          "name": "tokenIds",
          "type": "uint256[]"
        }
      ],
      "name": "beforeRedeemHook",
      "outputs": [],
      "stateMutability": "nonpayable",
      "type": "function"
    },
    {
      "inputs": [
        {
          "internalType": "uint256[]",
          "name": "tokenIds",
          "type": "uint256[]"
        }
      ],
      "name": "checkAllEligible",
      "outputs": [
        {
          "internalType": "bool",
          "name": "",
          "type": "bool"
        }
      ],
      "stateMutability": "view",
      "type": "function"
    },
    {
      "inputs": [
        {
          "internalType": "uint256[]",
          "name": "tokenIds",
          "type": "uint256[]"
        }
      ],
      "name": "checkAllIneligible",
      "outputs": [
        {
          "internalType": "bool",
          "name": "",
          "type": "bool"
        }
      ],
      "stateMutability": "view",
      "type": "function"
    },
    {
      "inputs": [
        {
          "internalType": "uint256[]",
          "name": "tokenIds",
          "type": "uint256[]"
        }
      ],
      "name": "checkEligible",
      "outputs": [
        {
          "internalType": "bool[]",
          "name": "",
          "type": "bool[]"
        }
      ],
      "stateMutability": "view",
      "type": "function"
    },
    {
      "inputs": [
        {
          "internalType": "uint256",
          "name": "tokenId",
          "type": "uint256"
        }
      ],
      "name": "checkIsEligible",
      "outputs": [
        {
          "internalType": "bool",
          "name": "",
          "type": "bool"
        }
      ],
      "stateMutability": "view",
      "type": "function"
    },
    {
      "inputs": [],
      "name": "finalized",
      "outputs": [
        {
          "internalType": "bool",
          "name": "",
          "type": "bool"
        }
      ],
      "stateMutability": "view",
      "type": "function"
    },
    {
      "inputs": [],
      "name": "isInitialized",
      "outputs": [
        {
          "internalType": "bool",
          "name": "",
          "type": "bool"
        }
      ],
      "stateMutability": "view",
      "type": "function"
    },
    {
      "inputs": [
        {
          "internalType": "uint256",
          "name": "tokenId",
          "type": "uint256"
        }
      ],
      "name": "isUniqueEligible",
      "outputs": [
        {
          "internalType": "bool",
          "name": "",
          "type": "bool"
        }
      ],
      "stateMutability": "view",
      "type": "function"
    },
    {
      "inputs": [],
      "name": "name",
      "outputs": [
        {
          "internalType": "string",
          "name": "",
          "type": "string"
        }
      ],
      "stateMutability": "pure",
      "type": "function"
    },
    {
      "inputs": [],
      "name": "negateEligOnRedeem",
      "outputs": [
        {
          "internalType": "bool",
          "name": "",
          "type": "bool"
        }
      ],
      "stateMutability": "view",
      "type": "function"
    },
    {
      "inputs": [],
      "name": "owner",
      "outputs": [
        {
          "internalType": "address",
          "name": "",
          "type": "address"
        }
      ],
      "stateMutability": "view",
      "type": "function"
    },
    {
      "inputs": [],
      "name": "renounceOwnership",
      "outputs": [],
      "stateMutability": "nonpayable",
      "type": "function"
    },
    {
      "inputs": [
        {
          "internalType": "bool",
          "name": "_negateEligOnRedeem",
          "type": "bool"
        }
      ],
      "name": "setEligibilityPreferences",
      "outputs": [],
      "stateMutability": "nonpayable",
      "type": "function"
    },
    {
      "inputs": [
        {
          "internalType": "uint256[]",
          "name": "tokenIds",
          "type": "uint256[]"
        },
        {
          "internalType": "bool",
          "name": "_isEligible",
          "type": "bool"
        }
      ],
      "name": "setUniqueEligibilities",
      "outputs": [],
      "stateMutability": "nonpayable",
      "type": "function"
    },
    {
      "inputs": [],
      "name": "targetAsset",
      "outputs": [
        {
          "internalType": "address",
          "name": "",
          "type": "address"
        }
      ],
      "stateMutability": "pure",
      "type": "function"
    },
    {
      "inputs": [
        {
          "internalType": "address",
          "name": "newOwner",
          "type": "address"
        }
      ],
      "name": "transferOwnership",
      "outputs": [],
      "stateMutability": "nonpayable",
      "type": "function"
    }
  ],
  "bytecode": "0x608060405234801561001057600080fd5b506112f3806100206000396000f3fe608060405234801561001057600080fd5b50600436106101375760003560e01c80636cd91260116100b8578063bd8affde1161007c578063bd8affde14610180578063ca373f2814610271578063d2a096e814610284578063d6eed93714610297578063f2fde38b146102ab578063fbd5cb20146102be57600080fd5b80636cd912601461021d578063715018a61461023d57806384ca9f85146102455780638da5cb5b14610258578063b3f05b971461026957600080fd5b80633d4403ac116100ff5780633d4403ac146101c9578063423515c4146101e45780634998b7f3146101f75780635e2f9b521461020a5780636c47d5951461018057600080fd5b806306fdde031461013c5780630a7e40961461016b57806336eb086214610180578063392e53cd146101925780633942cf36146101b6575b600080fd5b604080518082018252600481526344656e7960e01b602082015290516101629190610c6b565b60405180910390f35b61017e610179366004610db9565b6102d1565b005b61017e61018e366004610e41565b5050565b6066546101a690600160a01b900460ff1681565b6040519015158152602001610162565b6101a66101c4366004610eb6565b610485565b60005b6040516001600160a01b039091168152602001610162565b61017e6101f2366004610ecf565b6104b8565b61017e610205366004610eec565b61053a565b61017e610218366004610e41565b6105e6565b61023061022b366004610e41565b61064e565b6040516101629190610f81565b61017e610703565b6101a6610253366004610e41565b610777565b6033546001600160a01b03166101cc565b6101a66107c5565b6101a661027f366004610e41565b610800565b6101a6610292366004610eb6565b610844565b6066546101a690600160a81b900460ff1681565b61017e6102b9366004610fc7565b61084f565b61017e6102cc366004610fe4565b61093a565b600054610100900460ff16806102ea575060005460ff16155b61030f5760405162461bcd60e51b815260040161030690611036565b60405180910390fd5b600054610100900460ff16158015610331576000805461ffff19166101011790555b61033961096e565b6001600160a01b0386166103855760405162461bcd60e51b81526020600482015260136024820152724f776e657220213d206164647265737328302960681b6044820152606401610306565b6001600160a01b0385166103d15760405162461bcd60e51b81526020600482015260136024820152725661756c7420213d206164647265737328302960681b6044820152606401610306565b60668054600160a01b6001600160a81b03199091166001600160a01b038816171760ff60a81b1916600160a81b861515021790556104108260016109ea565b7fab54c710aa0ff99f4b7667b84e94caebe3d960186b2588d4309acd5cdf0ab2b786868686866040516104479594939291906110bf565b60405180910390a182156104625761045d610703565b61046b565b61046b8661084f565b801561047d576000805461ff00191690555b505050505050565b6000806104946101008461111c565b6000818152606560205260409020549091506104b08185610aec565b949350505050565b6033546001600160a01b031633146104e25760405162461bcd60e51b815260040161030690611130565b60668054821515600160a81b0260ff60a81b199091161790556040517f9038d4f71df700fd5979d0e9b93f30d31a3e528411cf593749e474ee836568599061052f90831515815260200190565b60405180910390a150565b600054610100900460ff1680610553575060005460ff16155b61056f5760405162461bcd60e51b815260040161030690611036565b600054610100900460ff16158015610591576000805461ffff19166101011790555b61059961096e565b6000806000806000868060200190518101906105b59190611165565b945094509450945094506105cc85858486856102d1565b5050505050801561018e576000805461ff00191690555050565b6066546001600160a01b031633146105fd57600080fd5b606654600160a81b900460ff161561018e5761018e828280806020026020016040519081016040528093929190818152602001838360200280828437600092019190915250600192506109ea915050565b60608160008167ffffffffffffffff81111561066c5761066c610ce3565b604051908082528060200260200182016040528015610695578160200160208202803683370190505b50905060005b828110156106f8576106c48686838181106106b8576106b8611248565b90506020020135610b0c565b8282815181106106d6576106d6611248565b91151560209283029190910190910152806106f08161125e565b91505061069b565b509150505b92915050565b6033546001600160a01b0316331461072d5760405162461bcd60e51b815260040161030690611130565b6033546040516000916001600160a01b0316907f8be0079c531659141344cd1fd0a4f28419497f9722a3daafe3b4186f6b6457e0908390a3603380546001600160a01b0319169055565b600081815b818110156107ba576107998585838181106106b8576106b8611248565b6107a8576000925050506106fd565b806107b28161125e565b91505061077c565b506001949350505050565b606654600090600160a01b900460ff1680156107fb575060006107f06033546001600160a01b031690565b6001600160a01b0316145b905090565b600081815b818110156107ba576108228585838181106106b8576106b8611248565b15610832576000925050506106fd565b8061083c8161125e565b915050610805565b60006106fd82610b0c565b6033546001600160a01b031633146108795760405162461bcd60e51b815260040161030690611130565b6001600160a01b0381166108de5760405162461bcd60e51b815260206004820152602660248201527f4f776e61626c653a206e6577206f776e657220697320746865207a65726f206160448201526564647265737360d01b6064820152608401610306565b6033546040516001600160a01b038084169216907f8be0079c531659141344cd1fd0a4f28419497f9722a3daafe3b4186f6b6457e090600090a3603380546001600160a01b0319166001600160a01b0392909216919091179055565b6033546001600160a01b031633146109645760405162461bcd60e51b815260040161030690611130565b61018e82826109ea565b600054610100900460ff1680610987575060005460ff16155b6109a35760405162461bcd60e51b815260040161030690611036565b600054610100900460ff161580156109c5576000805461ffff19166101011790555b6109cd610b1e565b6109d5610b88565b80156109e7576000805461ff00191690555b50565b600080805260656020527fffdfc1249c027f9191656349feb0761381bb32c9f557e01f419fd08754bf5a1b5490805b8451811015610a9a576000858281518110610a3657610a36611248565b60200260200101519050600061010082610a50919061111c565b9050838114610a78576000938452606560205260408085209590955580845293909220549291825b610a83858388610c36565b945050508080610a929061125e565b915050610a19565b5060008181526065602052604090819020839055517ffacde3821ab1224682dd0ab6a805f71860b6ca6982ad044c8c4927ea4c6f140190610ade9086908690611285565b60405180910390a150505050565b600080610afb610100846112a9565b9390931c6001908116149392505050565b6000610b1782610485565b1592915050565b600054610100900460ff1680610b37575060005460ff16155b610b535760405162461bcd60e51b815260040161030690611036565b600054610100900460ff161580156109d5576000805461ffff191661010117905580156109e7576000805461ff001916905550565b600054610100900460ff1680610ba1575060005460ff16155b610bbd5760405162461bcd60e51b815260040161030690611036565b600054610100900460ff16158015610bdf576000805461ffff19166101011790555b603380546001600160a01b0319163390811790915560405181906000907f8be0079c531659141344cd1fd0a4f28419497f9722a3daafe3b4186f6b6457e0908290a35080156109e7576000805461ff001916905550565b600080610c45610100856112a9565b90508215610c5a576001901b84179050610c64565b6001901b19841690505b9392505050565b600060208083528351808285015260005b81811015610c9857858101830151858201604001528201610c7c565b81811115610caa576000604083870101525b50601f01601f1916929092016040019392505050565b6001600160a01b03811681146109e757600080fd5b80151581146109e757600080fd5b634e487b7160e01b600052604160045260246000fd5b604051601f8201601f1916810167ffffffffffffffff81118282101715610d2257610d22610ce3565b604052919050565b600067ffffffffffffffff821115610d4457610d44610ce3565b5060051b60200190565b600082601f830112610d5f57600080fd5b81356020610d74610d6f83610d2a565b610cf9565b82815260059290921b84018101918181019086841115610d9357600080fd5b8286015b84811015610dae5780358352918301918301610d97565b509695505050505050565b600080600080600060a08688031215610dd157600080fd5b8535610ddc81610cc0565b94506020860135610dec81610cc0565b93506040860135610dfc81610cd5565b92506060860135610e0c81610cd5565b9150608086013567ffffffffffffffff811115610e2857600080fd5b610e3488828901610d4e565b9150509295509295909350565b60008060208385031215610e5457600080fd5b823567ffffffffffffffff80821115610e6c57600080fd5b818501915085601f830112610e8057600080fd5b813581811115610e8f57600080fd5b8660208260051b8501011115610ea457600080fd5b60209290920196919550909350505050565b600060208284031215610ec857600080fd5b5035919050565b600060208284031215610ee157600080fd5b8135610c6481610cd5565b60006020808385031215610eff57600080fd5b823567ffffffffffffffff80821115610f1757600080fd5b818501915085601f830112610f2b57600080fd5b813581811115610f3d57610f3d610ce3565b610f4f601f8201601f19168501610cf9565b91508082528684828501011115610f6557600080fd5b8084840185840137600090820190930192909252509392505050565b6020808252825182820181905260009190848201906040850190845b81811015610fbb578351151583529284019291840191600101610f9d565b50909695505050505050565b600060208284031215610fd957600080fd5b8135610c6481610cc0565b60008060408385031215610ff757600080fd5b823567ffffffffffffffff81111561100e57600080fd5b61101a85828601610d4e565b925050602083013561102b81610cd5565b809150509250929050565b6020808252602e908201527f496e697469616c697a61626c653a20636f6e747261637420697320616c72656160408201526d191e481a5b9a5d1a585b1a5e995960921b606082015260800190565b600081518084526020808501945080840160005b838110156110b457815187529582019590820190600101611098565b509495945050505050565b6001600160a01b038681168252851660208201528315156040820152821515606082015260a0608082018190526000906110fb90830184611084565b979650505050505050565b634e487b7160e01b600052601260045260246000fd5b60008261112b5761112b611106565b500490565b6020808252818101527f4f776e61626c653a2063616c6c6572206973206e6f7420746865206f776e6572604082015260600190565b600080600080600060a0868803121561117d57600080fd5b855161118881610cc0565b8095505060208087015161119b81610cc0565b60408801519095506111ac81610cd5565b60608801519094506111bd81610cd5565b608088015190935067ffffffffffffffff8111156111da57600080fd5b8701601f810189136111eb57600080fd5b80516111f9610d6f82610d2a565b81815260059190911b8201830190838101908b83111561121857600080fd5b928401925b828410156112365783518252928401929084019061121d565b80955050505050509295509295909350565b634e487b7160e01b600052603260045260246000fd5b60006001820161127e57634e487b7160e01b600052601160045260246000fd5b5060010190565b6040815260006112986040830185611084565b905082151560208301529392505050565b6000826112b8576112b8611106565b50069056fea2646970667358221220b44c72ddd172b3909fc35ef9efa5e67c97cda9cca3618ba318fda6970f7c71f464736f6c634300080d0033",
  "linkReferences": {},
  "deployedLinkReferences": {}
}