{
  "_format": "hh-sol-artifact-1",
  "contractName": "ProxyControllerSimple",
  "sourceName": "contracts/solidity/proxy/ProxyControllerSimple.sol",
  "abi": [
    {
      "inputs": [
        {
          "internalType": "address",
          "name": "_proxy",
          "type": "address"
        }
      ],
      "stateMutability": "nonpayable",
      "type": "constructor"
    },
    {
      "anonymous": false,
      "inputs": [
        {
          "indexed": false,
          "internalType": "address",
          "name": "impl",
          "type": "address"
        }
      ],
      "name": "ImplAddressSet",
      "type": "event"
    },
    {
      "anonymous": false,
      "inputs": [
        {
          "indexed": true,
          "internalType": "address",
          "name": "previousOwner",
          "type": "address"
        },
        {
          "indexed": true,
          "internalType": "address",
          "name": "newOwner",
          "type": "address"
        }
      ],
      "name": "OwnershipTransferred",
      "type": "event"
    },
    {
      "anonymous": false,
      "inputs": [
        {
          "indexed": false,
          "internalType": "address",
          "name": "newAdmin",
          "type": "address"
        }
      ],
      "name": "ProxyAdminChanged",
      "type": "event"
    },
    {
      "inputs": [
        {
          "internalType": "address",
          "name": "newAdmin",
          "type": "address"
        }
      ],
      "name": "changeProxyAdmin",
      "outputs": [],
      "stateMutability": "nonpayable",
      "type": "function"
    },
    {
      "inputs": [],
      "name": "fetchImplAddress",
      "outputs": [],
      "stateMutability": "nonpayable",
      "type": "function"
    },
    {
      "inputs": [],
      "name": "getAdmin",
      "outputs": [
        {
          "internalType": "address",
          "name": "admin",
          "type": "address"
        }
      ],
      "stateMutability": "view",
      "type": "function"
    },
    {
      "inputs": [],
      "name": "impl",
      "outputs": [
        {
          "internalType": "address",
          "name": "",
          "type": "address"
        }
      ],
      "stateMutability": "view",
      "type": "function"
    },
    {
      "inputs": [],
      "name": "owner",
      "outputs": [
        {
          "internalType": "address",
          "name": "",
          "type": "address"
        }
      ],
      "stateMutability": "view",
      "type": "function"
    },
    {
      "inputs": [],
      "name": "renounceOwnership",
      "outputs": [],
      "stateMutability": "nonpayable",
      "type": "function"
    },
    {
      "inputs": [
        {
          "internalType": "address",
          "name": "newOwner",
          "type": "address"
        }
      ],
      "name": "transferOwnership",
      "outputs": [],
      "stateMutability": "nonpayable",
      "type": "function"
    },
    {
      "inputs": [
        {
          "internalType": "address",
          "name": "newImpl",
          "type": "address"
        }
      ],
      "name": "upgradeProxyTo",
      "outputs": [],
      "stateMutability": "nonpayable",
      "type": "function"
    }
  ],
  "bytecode": "0x608060405234801561001057600080fd5b506040516106b23803806106b283398101604081905261002f91610095565b600080546001600160a01b031916339081178255604051909182917f8be0079c531659141344cd1fd0a4f28419497f9722a3daafe3b4186f6b6457e0908290a350600280546001600160a01b0319166001600160a01b03929092169190911790556100c5565b6000602082840312156100a757600080fd5b81516001600160a01b03811681146100be57600080fd5b9392505050565b6105de806100d46000396000f3fe608060405234801561001057600080fd5b50600436106100885760003560e01c80638abf60771161005b5780638abf6077146100d65780638da5cb5b146100e95780639f712f2f146100fa578063f2fde38b1461010d57600080fd5b806355dbd8eb1461008d578063671f0f50146100a25780636e9960c3146100aa578063715018a6146100ce575b600080fd5b6100a061009b366004610532565b610120565b005b6100a06101b5565b6100b2610280565b6040516001600160a01b03909116815260200160405180910390f35b6100a06102f3565b6001546100b2906001600160a01b031681565b6000546001600160a01b03166100b2565b6100a0610108366004610532565b610367565b6100a061011b366004610532565b610430565b6000546001600160a01b031633146101535760405162461bcd60e51b815260040161014a90610556565b60405180910390fd5b600254604051631b2ce7f360e11b81526001600160a01b03838116600483015290911690633659cfe690602401600060405180830381600087803b15801561019a57600080fd5b505af11580156101ae573d6000803e3d6000fd5b5050505050565b600260009054906101000a90046001600160a01b03166001600160a01b0316635c60da1b6040518163ffffffff1660e01b8152600401602060405180830381865afa158015610208573d6000803e3d6000fd5b505050506040513d601f19601f8201168201806040525081019061022c919061058b565b600180546001600160a01b0319166001600160a01b039290921691821790556040519081527f58c17955ba6053cfb96ced3ab34a889aa2f05af8d10f083eba8d45993504a9a99060200160405180910390a1565b600254604080516303e1469160e61b815290516000926001600160a01b03169163f851a4409160048083019260209291908290030181865afa1580156102ca573d6000803e3d6000fd5b505050506040513d601f19601f820116820180604052508101906102ee919061058b565b905090565b6000546001600160a01b0316331461031d5760405162461bcd60e51b815260040161014a90610556565b600080546040516001600160a01b03909116907f8be0079c531659141344cd1fd0a4f28419497f9722a3daafe3b4186f6b6457e0908390a3600080546001600160a01b0319169055565b6000546001600160a01b031633146103915760405162461bcd60e51b815260040161014a90610556565b6002546040516308f2839760e41b81526001600160a01b03838116600483015290911690638f28397090602401600060405180830381600087803b1580156103d857600080fd5b505af11580156103ec573d6000803e3d6000fd5b50506040516001600160a01b03841681527f6235ad59b847efc75cf784228706832e1151064976e4a1ef1b8493cafeab7d409250602001905060405180910390a150565b6000546001600160a01b0316331461045a5760405162461bcd60e51b815260040161014a90610556565b6001600160a01b0381166104bf5760405162461bcd60e51b815260206004820152602660248201527f4f776e61626c653a206e6577206f776e657220697320746865207a65726f206160448201526564647265737360d01b606482015260840161014a565b600080546040516001600160a01b03808516939216917f8be0079c531659141344cd1fd0a4f28419497f9722a3daafe3b4186f6b6457e091a3600080546001600160a01b0319166001600160a01b0392909216919091179055565b6001600160a01b038116811461052f57600080fd5b50565b60006020828403121561054457600080fd5b813561054f8161051a565b9392505050565b6020808252818101527f4f776e61626c653a2063616c6c6572206973206e6f7420746865206f776e6572604082015260600190565b60006020828403121561059d57600080fd5b815161054f8161051a56fea2646970667358221220efc28e79f48c85e694dbb690e361345aa0ce16048d0236ca29dfbb33fb7bf69c64736f6c634300080d0033",
  "linkReferences": {},
  "deployedLinkReferences": {}
}