{
  "_format": "hh-sol-artifact-1",
  "contractName": "NFTXListEligibility",
  "sourceName": "contracts/solidity/eligibility/NFTXListEligibility.sol",
  "abi": [
    {
      "anonymous": false,
      "inputs": [
        {
          "indexed": false,
          "internalType": "uint256[]",
          "name": "tokenIds",
          "type": "uint256[]"
        }
      ],
      "name": "NFTXEligibilityInit",
      "type": "event"
    },
    {
      "anonymous": false,
      "inputs": [
        {
          "indexed": false,
          "internalType": "uint256[]",
          "name": "tokenIds",
          "type": "uint256[]"
        },
        {
          "indexed": false,
          "internalType": "bool",
          "name": "isEligible",
          "type": "bool"
        }
      ],
      "name": "UniqueEligibilitiesSet",
      "type": "event"
    },
    {
      "inputs": [
        {
          "internalType": "uint256[]",
          "name": "tokenIds",
          "type": "uint256[]"
        }
      ],
      "name": "__NFTXEligibility_init",
      "outputs": [],
      "stateMutability": "nonpayable",
      "type": "function"
    },
    {
      "inputs": [
        {
          "internalType": "bytes",
          "name": "_configData",
          "type": "bytes"
        }
      ],
      "name": "__NFTXEligibility_init_bytes",
      "outputs": [],
      "stateMutability": "nonpayable",
      "type": "function"
    },
    {
      "inputs": [
        {
          "internalType": "uint256[]",
          "name": "tokenIds",
          "type": "uint256[]"
        }
      ],
      "name": "afterMintHook",
      "outputs": [],
      "stateMutability": "nonpayable",
      "type": "function"
    },
    {
      "inputs": [
        {
          "internalType": "uint256[]",
          "name": "tokenIds",
          "type": "uint256[]"
        }
      ],
      "name": "afterRedeemHook",
      "outputs": [],
      "stateMutability": "nonpayable",
      "type": "function"
    },
    {
      "inputs": [
        {
          "internalType": "uint256[]",
          "name": "tokenIds",
          "type": "uint256[]"
        }
      ],
      "name": "beforeMintHook",
      "outputs": [],
      "stateMutability": "nonpayable",
      "type": "function"
    },
    {
      "inputs": [
        {
          "internalType": "uint256[]",
          "name": "tokenIds",
          "type": "uint256[]"
        }
      ],
      "name": "beforeRedeemHook",
      "outputs": [],
      "stateMutability": "nonpayable",
      "type": "function"
    },
    {
      "inputs": [
        {
          "internalType": "uint256[]",
          "name": "tokenIds",
          "type": "uint256[]"
        }
      ],
      "name": "checkAllEligible",
      "outputs": [
        {
          "internalType": "bool",
          "name": "",
          "type": "bool"
        }
      ],
      "stateMutability": "view",
      "type": "function"
    },
    {
      "inputs": [
        {
          "internalType": "uint256[]",
          "name": "tokenIds",
          "type": "uint256[]"
        }
      ],
      "name": "checkAllIneligible",
      "outputs": [
        {
          "internalType": "bool",
          "name": "",
          "type": "bool"
        }
      ],
      "stateMutability": "view",
      "type": "function"
    },
    {
      "inputs": [
        {
          "internalType": "uint256[]",
          "name": "tokenIds",
          "type": "uint256[]"
        }
      ],
      "name": "checkEligible",
      "outputs": [
        {
          "internalType": "bool[]",
          "name": "",
          "type": "bool[]"
        }
      ],
      "stateMutability": "view",
      "type": "function"
    },
    {
      "inputs": [
        {
          "internalType": "uint256",
          "name": "tokenId",
          "type": "uint256"
        }
      ],
      "name": "checkIsEligible",
      "outputs": [
        {
          "internalType": "bool",
          "name": "",
          "type": "bool"
        }
      ],
      "stateMutability": "view",
      "type": "function"
    },
    {
      "inputs": [],
      "name": "finalized",
      "outputs": [
        {
          "internalType": "bool",
          "name": "",
          "type": "bool"
        }
      ],
      "stateMutability": "view",
      "type": "function"
    },
    {
      "inputs": [
        {
          "internalType": "uint256",
          "name": "tokenId",
          "type": "uint256"
        }
      ],
      "name": "isUniqueEligible",
      "outputs": [
        {
          "internalType": "bool",
          "name": "",
          "type": "bool"
        }
      ],
      "stateMutability": "view",
      "type": "function"
    },
    {
      "inputs": [],
      "name": "name",
      "outputs": [
        {
          "internalType": "string",
          "name": "",
          "type": "string"
        }
      ],
      "stateMutability": "pure",
      "type": "function"
    },
    {
      "inputs": [],
      "name": "targetAsset",
      "outputs": [
        {
          "internalType": "address",
          "name": "",
          "type": "address"
        }
      ],
      "stateMutability": "pure",
      "type": "function"
    }
  ],
  "bytecode": "0x608060405234801561001057600080fd5b50610acc806100206000396000f3fe608060405234801561001057600080fd5b50600436106100ea5760003560e01c80636cd912601161008c578063bd8affde11610066578063bd8affde1461011e578063ca373f28146101b1578063d2a096e8146101c4578063facf895f146101d757600080fd5b80636cd912601461017757806384ca9f8514610197578063b3f05b97146101aa57600080fd5b80633d4403ac116100c85780633d4403ac146101555780634998b7f3146101645780635e2f9b521461011e5780636c47d5951461011e57600080fd5b806306fdde03146100ef57806336eb08621461011e5780633942cf3614610132575b600080fd5b6040805180820182526004815263131a5cdd60e21b602082015290516101159190610616565b60405180910390f35b61013061012c36600461066b565b5050565b005b6101456101403660046106e0565b6101ea565b6040519015158152602001610115565b60405160008152602001610115565b610130610172366004610740565b61021d565b61018a61018536600461066b565b6102b4565b60405161011591906107d5565b6101456101a536600461066b565b610369565b6001610145565b6101456101bf36600461066b565b6103b7565b6101456101d23660046106e0565b6103fb565b6101306101e536600461083f565b610406565b6000806101f9610100846108eb565b60008181526001602052604090205490915061021581856104b4565b949350505050565b600054610100900460ff1680610236575060005460ff16155b61025b5760405162461bcd60e51b8152600401610252906108ff565b60405180910390fd5b600054610100900460ff1615801561027d576000805461ffff19166101011790555b600082806020019051810190610293919061094d565b905061029e81610406565b50801561012c576000805461ff00191690555050565b60608160008167ffffffffffffffff8111156102d2576102d26106f9565b6040519080825280602002602001820160405280156102fb578160200160208202803683370190505b50905060005b8281101561035e5761032a86868381811061031e5761031e6109d3565b905060200201356104d4565b82828151811061033c5761033c6109d3565b9115156020928302919091019091015280610356816109e9565b915050610301565b509150505b92915050565b600081815b818110156103ac5761038b85858381811061031e5761031e6109d3565b61039a57600092505050610363565b806103a4816109e9565b91505061036e565b506001949350505050565b600081815b818110156103ac576103d985858381811061031e5761031e6109d3565b156103e957600092505050610363565b806103f3816109e9565b9150506103bc565b6000610363826104d4565b600054610100900460ff168061041f575060005460ff16155b61043b5760405162461bcd60e51b8152600401610252906108ff565b600054610100900460ff1615801561045d576000805461ffff19166101011790555b6104688260016104df565b7f57c1f3c63f373f6f173119ab80d232a4a8ca7449a0bdb2f33f6188847539e745826040516104979190610a4b565b60405180910390a1801561012c576000805461ff00191690555050565b6000806104c361010084610a5e565b9390931c6001908116149392505050565b6000610363826101ea565b600080805260016020527fa6eef7e35abe7026729641147f7915573c7e97b47efa546f5f6e3230263bcb495490805b845181101561058f57600085828151811061052b5761052b6109d3565b6020026020010151905060006101008261054591906108eb565b905083811461056d576000938452600160205260408085209590955580845293909220549291825b6105788583886105e1565b945050508080610587906109e9565b91505061050e565b5060008181526001602052604090819020839055517ffacde3821ab1224682dd0ab6a805f71860b6ca6982ad044c8c4927ea4c6f1401906105d39086908690610a72565b60405180910390a150505050565b6000806105f061010085610a5e565b90508215610605576001901b8417905061060f565b6001901b19841690505b9392505050565b600060208083528351808285015260005b8181101561064357858101830151858201604001528201610627565b81811115610655576000604083870101525b50601f01601f1916929092016040019392505050565b6000806020838503121561067e57600080fd5b823567ffffffffffffffff8082111561069657600080fd5b818501915085601f8301126106aa57600080fd5b8135818111156106b957600080fd5b8660208260051b85010111156106ce57600080fd5b60209290920196919550909350505050565b6000602082840312156106f257600080fd5b5035919050565b634e487b7160e01b600052604160045260246000fd5b604051601f8201601f1916810167ffffffffffffffff81118282101715610738576107386106f9565b604052919050565b6000602080838503121561075357600080fd5b823567ffffffffffffffff8082111561076b57600080fd5b818501915085601f83011261077f57600080fd5b813581811115610791576107916106f9565b6107a3601f8201601f1916850161070f565b915080825286848285010111156107b957600080fd5b8084840185840137600090820190930192909252509392505050565b6020808252825182820181905260009190848201906040850190845b8181101561080f5783511515835292840192918401916001016107f1565b50909695505050505050565b600067ffffffffffffffff821115610835576108356106f9565b5060051b60200190565b6000602080838503121561085257600080fd5b823567ffffffffffffffff81111561086957600080fd5b8301601f8101851361087a57600080fd5b803561088d6108888261081b565b61070f565b81815260059190911b820183019083810190878311156108ac57600080fd5b928401925b828410156108ca578335825292840192908401906108b1565b979650505050505050565b634e487b7160e01b600052601260045260246000fd5b6000826108fa576108fa6108d5565b500490565b6020808252602e908201527f496e697469616c697a61626c653a20636f6e747261637420697320616c72656160408201526d191e481a5b9a5d1a585b1a5e995960921b606082015260800190565b6000602080838503121561096057600080fd5b825167ffffffffffffffff81111561097757600080fd5b8301601f8101851361098857600080fd5b80516109966108888261081b565b81815260059190911b820183019083810190878311156109b557600080fd5b928401925b828410156108ca578351825292840192908401906109ba565b634e487b7160e01b600052603260045260246000fd5b600060018201610a0957634e487b7160e01b600052601160045260246000fd5b5060010190565b600081518084526020808501945080840160005b83811015610a4057815187529582019590820190600101610a24565b509495945050505050565b60208152600061060f6020830184610a10565b600082610a6d57610a6d6108d5565b500690565b604081526000610a856040830185610a10565b90508215156020830152939250505056fea2646970667358221220614a27bb402e257e8bdaafb311045bf7c087af14473d13abc106551d8f2498b764736f6c634300080d0033",
  "linkReferences": {},
  "deployedLinkReferences": {}
}