{
  "_format": "hh-sol-artifact-1",
  "contractName": "PalmNFTXStakingZap",
  "sourceName": "contracts/solidity/other/PalmNFTXStakingZap.sol",
  "abi": [
    {
      "inputs": [
        {
          "internalType": "address",
          "name": "_nftxFactory",
          "type": "address"
        },
        {
          "internalType": "address",
          "name": "_sushiRouter",
          "type": "address"
        },
        {
          "internalType": "address",
          "name": "_pairedToken",
          "type": "address"
        }
      ],
      "stateMutability": "nonpayable",
      "type": "constructor"
    },
    {
      "anonymous": false,
      "inputs": [
        {
          "indexed": true,
          "internalType": "address",
          "name": "previousOwner",
          "type": "address"
        },
        {
          "indexed": true,
          "internalType": "address",
          "name": "newOwner",
          "type": "address"
        }
      ],
      "name": "OwnershipTransferred",
      "type": "event"
    },
    {
      "anonymous": false,
      "inputs": [
        {
          "indexed": false,
          "internalType": "uint256",
          "name": "vaultId",
          "type": "uint256"
        },
        {
          "indexed": false,
          "internalType": "uint256",
          "name": "count",
          "type": "uint256"
        },
        {
          "indexed": false,
          "internalType": "uint256",
          "name": "lpBalance",
          "type": "uint256"
        },
        {
          "indexed": false,
          "internalType": "uint256",
          "name": "timelockUntil",
          "type": "uint256"
        },
        {
          "indexed": false,
          "internalType": "address",
          "name": "sender",
          "type": "address"
        }
      ],
      "name": "UserStaked",
      "type": "event"
    },
    {
      "inputs": [
        {
          "internalType": "uint256",
          "name": "vaultId",
          "type": "uint256"
        },
        {
          "internalType": "uint256[]",
          "name": "ids",
          "type": "uint256[]"
        },
        {
          "internalType": "uint256[]",
          "name": "amounts",
          "type": "uint256[]"
        },
        {
          "internalType": "uint256",
          "name": "minWethIn",
          "type": "uint256"
        },
        {
          "internalType": "uint256",
          "name": "wethIn",
          "type": "uint256"
        }
      ],
      "name": "addLiquidity1155",
      "outputs": [
        {
          "internalType": "uint256",
          "name": "",
          "type": "uint256"
        }
      ],
      "stateMutability": "nonpayable",
      "type": "function"
    },
    {
      "inputs": [
        {
          "internalType": "uint256",
          "name": "vaultId",
          "type": "uint256"
        },
        {
          "internalType": "uint256[]",
          "name": "ids",
          "type": "uint256[]"
        },
        {
          "internalType": "uint256[]",
          "name": "amounts",
          "type": "uint256[]"
        },
        {
          "internalType": "uint256",
          "name": "minWethIn",
          "type": "uint256"
        },
        {
          "internalType": "uint256",
          "name": "wethIn",
          "type": "uint256"
        },
        {
          "internalType": "address",
          "name": "to",
          "type": "address"
        }
      ],
      "name": "addLiquidity1155To",
      "outputs": [
        {
          "internalType": "uint256",
          "name": "",
          "type": "uint256"
        }
      ],
      "stateMutability": "nonpayable",
      "type": "function"
    },
    {
      "inputs": [
        {
          "internalType": "uint256",
          "name": "vaultId",
          "type": "uint256"
        },
        {
          "internalType": "uint256[]",
          "name": "ids",
          "type": "uint256[]"
        },
        {
          "internalType": "uint256",
          "name": "minWethIn",
          "type": "uint256"
        },
        {
          "internalType": "uint256",
          "name": "wethIn",
          "type": "uint256"
        }
      ],
      "name": "addLiquidity721",
      "outputs": [
        {
          "internalType": "uint256",
          "name": "",
          "type": "uint256"
        }
      ],
      "stateMutability": "nonpayable",
      "type": "function"
    },
    {
      "inputs": [
        {
          "internalType": "uint256",
          "name": "vaultId",
          "type": "uint256"
        },
        {
          "internalType": "uint256[]",
          "name": "ids",
          "type": "uint256[]"
        },
        {
          "internalType": "uint256",
          "name": "minWethIn",
          "type": "uint256"
        },
        {
          "internalType": "uint256",
          "name": "wethIn",
          "type": "uint256"
        },
        {
          "internalType": "address",
          "name": "to",
          "type": "address"
        }
      ],
      "name": "addLiquidity721To",
      "outputs": [
        {
          "internalType": "uint256",
          "name": "",
          "type": "uint256"
        }
      ],
      "stateMutability": "nonpayable",
      "type": "function"
    },
    {
      "inputs": [],
      "name": "lockTime",
      "outputs": [
        {
          "internalType": "uint256",
          "name": "",
          "type": "uint256"
        }
      ],
      "stateMutability": "view",
      "type": "function"
    },
    {
      "inputs": [
        {
          "internalType": "uint256",
          "name": "vaultId",
          "type": "uint256"
        },
        {
          "internalType": "address",
          "name": "who",
          "type": "address"
        }
      ],
      "name": "lockedLPBalance",
      "outputs": [
        {
          "internalType": "uint256",
          "name": "",
          "type": "uint256"
        }
      ],
      "stateMutability": "view",
      "type": "function"
    },
    {
      "inputs": [
        {
          "internalType": "uint256",
          "name": "vaultId",
          "type": "uint256"
        },
        {
          "internalType": "address",
          "name": "who",
          "type": "address"
        }
      ],
      "name": "lockedUntil",
      "outputs": [
        {
          "internalType": "uint256",
          "name": "",
          "type": "uint256"
        }
      ],
      "stateMutability": "view",
      "type": "function"
    },
    {
      "inputs": [],
      "name": "lpStaking",
      "outputs": [
        {
          "internalType": "contract INFTXLPStaking",
          "name": "",
          "type": "address"
        }
      ],
      "stateMutability": "view",
      "type": "function"
    },
    {
      "inputs": [],
      "name": "nftxFactory",
      "outputs": [
        {
          "internalType": "contract INFTXVaultFactory",
          "name": "",
          "type": "address"
        }
      ],
      "stateMutability": "view",
      "type": "function"
    },
    {
      "inputs": [
        {
          "internalType": "address",
          "name": "",
          "type": "address"
        },
        {
          "internalType": "address",
          "name": "",
          "type": "address"
        },
        {
          "internalType": "uint256[]",
          "name": "",
          "type": "uint256[]"
        },
        {
          "internalType": "uint256[]",
          "name": "",
          "type": "uint256[]"
        },
        {
          "internalType": "bytes",
          "name": "",
          "type": "bytes"
        }
      ],
      "name": "onERC1155BatchReceived",
      "outputs": [
        {
          "internalType": "bytes4",
          "name": "",
          "type": "bytes4"
        }
      ],
      "stateMutability": "nonpayable",
      "type": "function"
    },
    {
      "inputs": [
        {
          "internalType": "address",
          "name": "",
          "type": "address"
        },
        {
          "internalType": "address",
          "name": "",
          "type": "address"
        },
        {
          "internalType": "uint256",
          "name": "",
          "type": "uint256"
        },
        {
          "internalType": "uint256",
          "name": "",
          "type": "uint256"
        },
        {
          "internalType": "bytes",
          "name": "",
          "type": "bytes"
        }
      ],
      "name": "onERC1155Received",
      "outputs": [
        {
          "internalType": "bytes4",
          "name": "",
          "type": "bytes4"
        }
      ],
      "stateMutability": "nonpayable",
      "type": "function"
    },
    {
      "inputs": [
        {
          "internalType": "address",
          "name": "",
          "type": "address"
        },
        {
          "internalType": "address",
          "name": "",
          "type": "address"
        },
        {
          "internalType": "uint256",
          "name": "",
          "type": "uint256"
        },
        {
          "internalType": "bytes",
          "name": "",
          "type": "bytes"
        }
      ],
      "name": "onERC721Received",
      "outputs": [
        {
          "internalType": "bytes4",
          "name": "",
          "type": "bytes4"
        }
      ],
      "stateMutability": "nonpayable",
      "type": "function"
    },
    {
      "inputs": [],
      "name": "owner",
      "outputs": [
        {
          "internalType": "address",
          "name": "",
          "type": "address"
        }
      ],
      "stateMutability": "view",
      "type": "function"
    },
    {
      "inputs": [],
      "name": "pairedToken",
      "outputs": [
        {
          "internalType": "contract IERC20Upgradeable",
          "name": "",
          "type": "address"
        }
      ],
      "stateMutability": "view",
      "type": "function"
    },
    {
      "inputs": [],
      "name": "renounceOwnership",
      "outputs": [],
      "stateMutability": "nonpayable",
      "type": "function"
    },
    {
      "inputs": [
        {
          "internalType": "uint256",
          "name": "newLockTime",
          "type": "uint256"
        }
      ],
      "name": "setLockTime",
      "outputs": [],
      "stateMutability": "nonpayable",
      "type": "function"
    },
    {
      "inputs": [
        {
          "internalType": "bytes4",
          "name": "interfaceId",
          "type": "bytes4"
        }
      ],
      "name": "supportsInterface",
      "outputs": [
        {
          "internalType": "bool",
          "name": "",
          "type": "bool"
        }
      ],
      "stateMutability": "view",
      "type": "function"
    },
    {
      "inputs": [],
      "name": "sushiRouter",
      "outputs": [
        {
          "internalType": "contract IUniswapV2Router01",
          "name": "",
          "type": "address"
        }
      ],
      "stateMutability": "view",
      "type": "function"
    },
    {
      "inputs": [
        {
          "internalType": "address",
          "name": "newOwner",
          "type": "address"
        }
      ],
      "name": "transferOwnership",
      "outputs": [],
      "stateMutability": "nonpayable",
      "type": "function"
    },
    {
      "stateMutability": "payable",
      "type": "receive"
    }
  ],
  "bytecode": "0x6101006040526202a3006002553480156200001957600080fd5b5060405162002534380380620025348339810160408190526200003c9162000224565b6200004733620001b7565b600180556001600160a01b03831660c081905260408051630d43e8ad60e01b81529051630d43e8ad916004808201926020929091908290030181865afa15801562000096573d6000803e3d6000fd5b505050506040513d601f19601f82011682018060405250810190620000bc91906200026e565b6001600160a01b0316639bf1401c6040518163ffffffff1660e01b81526004016020604051808303816000875af1158015620000fc573d6000803e3d6000fd5b505050506040513d601f19601f820116820180604052508101906200012291906200026e565b6001600160a01b0390811660a05282811660e0819052908216608081905260405163095ea7b360e01b8152600481019290925260001960248301529063095ea7b3906044016020604051808303816000875af115801562000187573d6000803e3d6000fd5b505050506040513d601f19601f82011682018060405250810190620001ad919062000293565b50505050620002b7565b600080546001600160a01b038381166001600160a01b0319831681178455604051919092169283917f8be0079c531659141344cd1fd0a4f28419497f9722a3daafe3b4186f6b6457e09190a35050565b80516001600160a01b03811681146200021f57600080fd5b919050565b6000806000606084860312156200023a57600080fd5b620002458462000207565b9250620002556020850162000207565b9150620002656040850162000207565b90509250925092565b6000602082840312156200028157600080fd5b6200028c8262000207565b9392505050565b600060208284031215620002a657600080fd5b815180151581146200028c57600080fd5b60805160a05160c05160e0516121da6200035a6000396000818161029f015281816111810152818161127b01526117a401526000818161025301528181610bee0152610eb80152600081816103080152818161091f01528181610b490152818161133401526113ed015260008181610414015281816104ed0152818161058b015281816106e9015281816107860152818161122401526112f901526121da6000f3fe6080604052600436106101185760003560e01c8063715018a6116100a0578063e0e9e64d11610064578063e0e9e64d14610376578063f23a6e6114610396578063f2fde38b146103c2578063f99e7405146103e2578063ffc94f901461040257600080fd5b8063715018a6146102c15780638da5cb5b146102d85780639bf1401c146102f6578063ae04d45d1461032a578063bc197c811461034a57600080fd5b8063150b7a02116100e7578063150b7a02146101bd5780631809d2c2146102015780634a5ff061146102215780635ee50f88146102415780636d13582c1461028d57600080fd5b806301ffc9a71461012457806302100155146101595780630d6680871461018757806310cde7861461019d57600080fd5b3661011f57005b600080fd5b34801561013057600080fd5b5061014461013f3660046119dd565b610436565b60405190151581526020015b60405180910390f35b34801561016557600080fd5b50610179610174366004611aea565b61046d565b604051908152602001610150565b34801561019357600080fd5b5061017960025481565b3480156101a957600080fd5b506101796101b8366004611b7e565b61063c565b3480156101c957600080fd5b506101e86101d8366004611c6d565b630a85bd0160e11b949350505050565b6040516001600160e01b03199091168152602001610150565b34801561020d57600080fd5b5061017961021c366004611cd9565b610656565b34801561022d57600080fd5b5061017961023c366004611d30565b61066e565b34801561024d57600080fd5b506102757f000000000000000000000000000000000000000000000000000000000000000081565b6040516001600160a01b039091168152602001610150565b34801561029957600080fd5b506102757f000000000000000000000000000000000000000000000000000000000000000081565b3480156102cd57600080fd5b506102d6610836565b005b3480156102e457600080fd5b506000546001600160a01b0316610275565b34801561030257600080fd5b506102757f000000000000000000000000000000000000000000000000000000000000000081565b34801561033657600080fd5b506102d6610345366004611d9f565b61087b565b34801561035657600080fd5b506101e8610365366004611db8565b63bc197c8160e01b95945050505050565b34801561038257600080fd5b50610179610391366004611e66565b6108fc565b3480156103a257600080fd5b506101e86103b1366004611e96565b63f23a6e6160e01b95945050505050565b3480156103ce57600080fd5b506102d66103dd366004611eff565b610a7c565b3480156103ee57600080fd5b506101796103fd366004611e66565b610b26565b34801561040e57600080fd5b506102757f000000000000000000000000000000000000000000000000000000000000000081565b60006001600160e01b03198216630271189760e51b148061046757506301ffc9a760e01b6001600160e01b03198316145b92915050565b60006002600154036104c65760405162461bcd60e51b815260206004820152601f60248201527f5265656e7472616e637947756172643a207265656e7472616e742063616c6c0060448201526064015b60405180910390fd5b60026001556040516323b872dd60e01b8152336004820152306024820152604481018490527f00000000000000000000000000000000000000000000000000000000000000006001600160a01b0316906323b872dd906064016020604051808303816000875af115801561053e573d6000803e3d6000fd5b505050506040513d601f19601f820116820180604052508101906105629190611f1c565b50600080610574898989898989610be6565b92509250508482101561062c576001600160a01b037f00000000000000000000000000000000000000000000000000000000000000001663a9059cbb856105bb8589611f54565b6040516001600160e01b031960e085901b1681526001600160a01b03909216600483015260248201526044016020604051808303816000875af1158015610606573d6000803e3d6000fd5b505050506040513d601f19601f8201168201806040525081019061062a9190611f1c565b505b6001805598975050505050505050565b600061064c86868686863361046d565b9695505050505050565b6000610665858585853361066e565b95945050505050565b60006002600154036106c25760405162461bcd60e51b815260206004820152601f60248201527f5265656e7472616e637947756172643a207265656e7472616e742063616c6c0060448201526064016104bd565b60026001556040516323b872dd60e01b8152336004820152306024820152604481018490527f00000000000000000000000000000000000000000000000000000000000000006001600160a01b0316906323b872dd906064016020604051808303816000875af115801561073a573d6000803e3d6000fd5b505050506040513d601f19601f8201168201806040525081019061075e9190611f1c565b5060008061076f8888888888610eb0565b925092505084821015610827576001600160a01b037f00000000000000000000000000000000000000000000000000000000000000001663a9059cbb856107b68589611f54565b6040516001600160e01b031960e085901b1681526001600160a01b03909216600483015260248201526044016020604051808303816000875af1158015610801573d6000803e3d6000fd5b505050506040513d601f19601f820116820180604052508101906108259190611f1c565b505b60018055979650505050505050565b336108496000546001600160a01b031690565b6001600160a01b03161461086f5760405162461bcd60e51b81526004016104bd90611f6b565b610879600061111a565b565b3361088e6000546001600160a01b031690565b6001600160a01b0316146108b45760405162461bcd60e51b81526004016104bd90611f6b565b62093a808111156108f75760405162461bcd60e51b815260206004820152600d60248201526c4c6f636b20746f6f206c6f6e6760981b60448201526064016104bd565b600255565b60405163b7019b3760e01b81526004810183905260009081906001600160a01b037f0000000000000000000000000000000000000000000000000000000000000000169063b7019b3790602401602060405180830381865afa158015610966573d6000803e3d6000fd5b505050506040513d601f19601f8201168201806040525081019061098a9190611fa0565b60405163c19ea05360e01b81526001600160a01b0385811660048301529192509082169063c19ea05390602401602060405180830381865afa1580156109d4573d6000803e3d6000fd5b505050506040513d601f19601f820116820180604052508101906109f89190611fbd565b421115610a09576000915050610467565b6040516370a0823160e01b81526001600160a01b0384811660048301528216906370a08231906024015b602060405180830381865afa158015610a50573d6000803e3d6000fd5b505050506040513d601f19601f82011682018060405250810190610a749190611fbd565b949350505050565b33610a8f6000546001600160a01b031690565b6001600160a01b031614610ab55760405162461bcd60e51b81526004016104bd90611f6b565b6001600160a01b038116610b1a5760405162461bcd60e51b815260206004820152602660248201527f4f776e61626c653a206e6577206f776e657220697320746865207a65726f206160448201526564647265737360d01b60648201526084016104bd565b610b238161111a565b50565b60405163b7019b3760e01b81526004810183905260009081906001600160a01b037f0000000000000000000000000000000000000000000000000000000000000000169063b7019b3790602401602060405180830381865afa158015610b90573d6000803e3d6000fd5b505050506040513d601f19601f82011682018060405250810190610bb49190611fa0565b60405163c19ea05360e01b81526001600160a01b0385811660048301529192509082169063c19ea05390602401610a33565b6000806000807f00000000000000000000000000000000000000000000000000000000000000006001600160a01b03166381a36fb68b6040518263ffffffff1660e01b8152600401610c3a91815260200190565b602060405180830381865afa158015610c57573d6000803e3d6000fd5b505050506040513d601f19601f82011682018060405250810190610c7b9190611fa0565b90506001600160a01b038116610cd35760405162461bcd60e51b815260206004820152601d60248201527f4e4654585a61703a205661756c7420646f6573206e6f7420657869737400000060448201526064016104bd565b6000816001600160a01b0316631ba46cfd6040518163ffffffff1660e01b8152600401602060405180830381865afa158015610d13573d6000803e3d6000fd5b505050506040513d601f19601f82011682018060405250810190610d379190611fa0565b604051631759616b60e11b81529091506001600160a01b03821690632eb2c2d690610d6c90339030908f908f90600401612011565b600060405180830381600087803b158015610d8657600080fd5b505af1158015610d9a573d6000803e3d6000fd5b505060405163a22cb46560e01b81526001600160a01b038581166004830152600160248301528416925063a22cb4659150604401600060405180830381600087803b158015610de857600080fd5b505af1158015610dfc573d6000803e3d6000fd5b5050604051630f57464360e21b8152600092506001600160a01b0385169150633d5d190c90610e31908e908e9060040161206c565b6020604051808303816000875af1158015610e50573d6000803e3d6000fd5b505050506040513d601f19601f82011682018060405250810190610e749190611fbd565b90506000610e8a670de0b6b3a764000083612091565b9050610e9a8d85838d8d8d61116a565b9650965096505050505096509650969350505050565b6000806000807f00000000000000000000000000000000000000000000000000000000000000006001600160a01b03166381a36fb68a6040518263ffffffff1660e01b8152600401610f0491815260200190565b602060405180830381865afa158015610f21573d6000803e3d6000fd5b505050506040513d601f19601f82011682018060405250810190610f459190611fa0565b90506001600160a01b038116610f9d5760405162461bcd60e51b815260206004820152601d60248201527f4e4654585a61703a205661756c7420646f6573206e6f7420657869737400000060448201526064016104bd565b6000816001600160a01b0316631ba46cfd6040518163ffffffff1660e01b8152600401602060405180830381865afa158015610fdd573d6000803e3d6000fd5b505050506040513d601f19601f820116820180604052508101906110019190611fa0565b905060005b895181101561106857611032828b8381518110611025576110256120b0565b6020026020010151611569565b61105682848c8481518110611049576110496120b0565b602002602001015161163d565b80611060816120c6565b915050611006565b50604051630f57464360e21b81526060906001600160a01b03841690633d5d190c9061109a908d90859060040161206c565b6020604051808303816000875af11580156110b9573d6000803e3d6000fd5b505050506040513d601f19601f820116820180604052508101906110dd9190611fbd565b506000670de0b6b3a76400008b516110f59190612091565b90506111058c85838d8d8d61116a565b96509650965050505050955095509592505050565b600080546001600160a01b038381166001600160a01b0319831681178455604051919092169283917f8be0079c531659141344cd1fd0a4f28419497f9722a3daafe3b4186f6b6457e09190a35050565b60405163095ea7b360e01b81526001600160a01b037f00000000000000000000000000000000000000000000000000000000000000008116600483015260248201869052600091829182919089169063095ea7b3906044016020604051808303816000875af11580156111e1573d6000803e3d6000fd5b505050506040513d601f19601f820116820180604052508101906112059190611f1c565b5060405162e8e33760e81b81526001600160a01b0389811660048301527f00000000000000000000000000000000000000000000000000000000000000008116602483015260448201899052606482018790526084820189905260a482018890523060c48301524260e4830152600091829182917f00000000000000000000000000000000000000000000000000000000000000009091169063e8e3370090610104016060604051808303816000875af11580156112c7573d6000803e3d6000fd5b505050506040513d601f19601f820116820180604052508101906112eb91906120df565b925092509250600061131d8c7f000000000000000000000000000000000000000000000000000000000000000061178f565b60405163095ea7b360e01b81526001600160a01b037f000000000000000000000000000000000000000000000000000000000000000081166004830152602482018590529192509082169063095ea7b3906044016020604051808303816000875af1158015611390573d6000803e3d6000fd5b505050506040513d601f19601f820116820180604052508101906113b49190611f1c565b50600254604051630d9372b160e31b8152600481018f90526001600160a01b038a811660248301526044820185905260648201929092527f000000000000000000000000000000000000000000000000000000000000000090911690636c9b958890608401600060405180830381600087803b15801561143357600080fd5b505af1158015611447573d6000803e3d6000fd5b505050508a8410156114de576001600160a01b038c1663a9059cbb8961146d878f611f54565b6040516001600160e01b031960e085901b1681526001600160a01b03909216600483015260248201526044016020604051808303816000875af11580156114b8573d6000803e3d6000fd5b505050506040513d601f19601f820116820180604052508101906114dc9190611f1c565b505b6000600254426114ee919061210d565b90507f9f69538b20901013ea360bae2dce4079d45308fcfed02b3f0768c9f70f4ba9c08e8d85848d60405161154e9594939291909485526020850193909352604084019190915260608301526001600160a01b0316608082015260a00190565b60405180910390a150929c919b509950975050505050505050565b6040513360248201523060448201526064810182905260009060840160408051601f198184030181529181526020820180516001600160e01b0316632142170760e11b1790525190915060009081906001600160a01b038616906115ce908590612155565b6000604051808303816000865af19150503d806000811461160b576040519150601f19603f3d011682016040523d82523d6000602084013e611610565b606091505b50915091508181906116355760405162461bcd60e51b81526004016104bd9190612171565b505050505050565b60405163e985e9c560e01b81523060048201526001600160a01b03838116602483015284169063e985e9c590604401602060405180830381865afa158015611689573d6000803e3d6000fd5b505050506040513d601f19601f820116820180604052508101906116ad9190611f1c565b156116b757505050565b6040516001600160a01b03831660248201526001604482015260009060640160408051601f198184030181529181526020820180516001600160e01b031663a22cb46560e01b1790525190915060009081906001600160a01b0387169061171f908590612155565b6000604051808303816000865af19150503d806000811461175c576040519150601f19603f3d011682016040523d82523d6000602084013e611761565b606091505b50915091508181906117865760405162461bcd60e51b81526004016104bd9190612171565b50505050505050565b600080600061179e85856118e6565b915091507f00000000000000000000000000000000000000000000000000000000000000006001600160a01b031663c45a01556040518163ffffffff1660e01b8152600401602060405180830381865afa158015611800573d6000803e3d6000fd5b505050506040513d601f19601f820116820180604052508101906118249190611fa0565b6040516bffffffffffffffffffffffff19606085811b8216602084015284901b166034820152604801604051602081830303815290604052805190602001206040516020016118c59291906001600160f81b0319815260609290921b6bffffffffffffffffffffffff1916600183015260158201527fe18a34eb0e04b04f7a0ac29a6e80748dca96319b42c54d679cb821dca90c6303603582015260550190565b60408051601f19818403018152919052805160209091012095945050505050565b600080826001600160a01b0316846001600160a01b0316036119585760405162461bcd60e51b815260206004820152602560248201527f556e697377617056324c6962726172793a204944454e544943414c5f41444452604482015264455353455360d81b60648201526084016104bd565b826001600160a01b0316846001600160a01b03161061197857828461197b565b83835b90925090506001600160a01b0382166119d65760405162461bcd60e51b815260206004820152601e60248201527f556e697377617056324c6962726172793a205a45524f5f41444452455353000060448201526064016104bd565b9250929050565b6000602082840312156119ef57600080fd5b81356001600160e01b031981168114611a0757600080fd5b9392505050565b634e487b7160e01b600052604160045260246000fd5b604051601f8201601f1916810167ffffffffffffffff81118282101715611a4d57611a4d611a0e565b604052919050565b600082601f830112611a6657600080fd5b8135602067ffffffffffffffff821115611a8257611a82611a0e565b8160051b611a91828201611a24565b9283528481018201928281019087851115611aab57600080fd5b83870192505b84831015611aca57823582529183019190830190611ab1565b979650505050505050565b6001600160a01b0381168114610b2357600080fd5b60008060008060008060c08789031215611b0357600080fd5b86359550602087013567ffffffffffffffff80821115611b2257600080fd5b611b2e8a838b01611a55565b96506040890135915080821115611b4457600080fd5b50611b5189828a01611a55565b945050606087013592506080870135915060a0870135611b7081611ad5565b809150509295509295509295565b600080600080600060a08688031215611b9657600080fd5b85359450602086013567ffffffffffffffff80821115611bb557600080fd5b611bc189838a01611a55565b95506040880135915080821115611bd757600080fd5b50611be488828901611a55565b9598949750949560608101359550608001359392505050565b600082601f830112611c0e57600080fd5b813567ffffffffffffffff811115611c2857611c28611a0e565b611c3b601f8201601f1916602001611a24565b818152846020838601011115611c5057600080fd5b816020850160208301376000918101602001919091529392505050565b60008060008060808587031215611c8357600080fd5b8435611c8e81611ad5565b93506020850135611c9e81611ad5565b925060408501359150606085013567ffffffffffffffff811115611cc157600080fd5b611ccd87828801611bfd565b91505092959194509250565b60008060008060808587031215611cef57600080fd5b84359350602085013567ffffffffffffffff811115611d0d57600080fd5b611d1987828801611a55565b949794965050505060408301359260600135919050565b600080600080600060a08688031215611d4857600080fd5b85359450602086013567ffffffffffffffff811115611d6657600080fd5b611d7288828901611a55565b94505060408601359250606086013591506080860135611d9181611ad5565b809150509295509295909350565b600060208284031215611db157600080fd5b5035919050565b600080600080600060a08688031215611dd057600080fd5b8535611ddb81611ad5565b94506020860135611deb81611ad5565b9350604086013567ffffffffffffffff80821115611e0857600080fd5b611e1489838a01611a55565b94506060880135915080821115611e2a57600080fd5b611e3689838a01611a55565b93506080880135915080821115611e4c57600080fd5b50611e5988828901611bfd565b9150509295509295909350565b60008060408385031215611e7957600080fd5b823591506020830135611e8b81611ad5565b809150509250929050565b600080600080600060a08688031215611eae57600080fd5b8535611eb981611ad5565b94506020860135611ec981611ad5565b93506040860135925060608601359150608086013567ffffffffffffffff811115611ef357600080fd5b611e5988828901611bfd565b600060208284031215611f1157600080fd5b8135611a0781611ad5565b600060208284031215611f2e57600080fd5b81518015158114611a0757600080fd5b634e487b7160e01b600052601160045260246000fd5b600082821015611f6657611f66611f3e565b500390565b6020808252818101527f4f776e61626c653a2063616c6c6572206973206e6f7420746865206f776e6572604082015260600190565b600060208284031215611fb257600080fd5b8151611a0781611ad5565b600060208284031215611fcf57600080fd5b5051919050565b600081518084526020808501945080840160005b8381101561200657815187529582019590820190600101611fea565b509495945050505050565b6001600160a01b0385811682528416602082015260a06040820181905260009061203d90830185611fd6565b828103606084015261204f8185611fd6565b838103608090940193909352505060008152602001949350505050565b60408152600061207f6040830185611fd6565b82810360208401526106658185611fd6565b60008160001904831182151516156120ab576120ab611f3e565b500290565b634e487b7160e01b600052603260045260246000fd5b6000600182016120d8576120d8611f3e565b5060010190565b6000806000606084860312156120f457600080fd5b8351925060208401519150604084015190509250925092565b6000821982111561212057612120611f3e565b500190565b60005b83811015612140578181015183820152602001612128565b8381111561214f576000848401525b50505050565b60008251612167818460208701612125565b9190910192915050565b6020815260008251806020840152612190816040850160208701612125565b601f01601f1916919091016040019291505056fea264697066735822122077e40a834b8ddcbee4571b74d8c955f2b4aacb9bc32486553a976b0771ba6bfe64736f6c634300080d0033",
  "linkReferences": {},
  "deployedLinkReferences": {}
}